{
  "address": "0x5bbaf30bb44dbf3e23e6df7bb4a73908ed1e68de",
  "abi": [
    {
      "inputs": [
        {
          "internalType": "contract IPermissionedRegistry",
          "name": "ethRegistry_",
          "type": "address"
        },
        {
          "internalType": "address",
          "name": "owner_",
          "type": "address"
        }
      ],
      "stateMutability": "nonpayable",
      "type": "constructor"
    },
    {
      "inputs": [
        {
          "internalType": "address",
          "name": "owner",
          "type": "address"
        }
      ],
      "name": "OwnableInvalidOwner",
      "type": "error"
    },
    {
      "inputs": [
        {
          "internalType": "address",
          "name": "account",
          "type": "address"
        }
      ],
      "name": "OwnableUnauthorizedAccount",
      "type": "error"
    },
    {
      "anonymous": false,
      "inputs": [
        {
          "indexed": true,
          "internalType": "address",
          "name": "previousOwner",
          "type": "address"
        },
        {
          "indexed": true,
          "internalType": "address",
          "name": "newOwner",
          "type": "address"
        }
      ],
      "name": "OwnershipTransferred",
      "type": "event"
    },
    {
      "inputs": [],
      "name": "ETH_REGISTRY",
      "outputs": [
        {
          "internalType": "contract IPermissionedRegistry",
          "name": "",
          "type": "address"
        }
      ],
      "stateMutability": "view",
      "type": "function"
    },
    {
      "inputs": [
        {
          "internalType": "contract IRegistry",
          "name": "registry",
          "type": "address"
        },
        {
          "internalType": "address",
          "name": "resolver",
          "type": "address"
        },
        {
          "internalType": "string[]",
          "name": "labels",
          "type": "string[]"
        },
        {
          "internalType": "uint64[]",
          "name": "expires",
          "type": "uint64[]"
        }
      ],
      "name": "batchRegister",
      "outputs": [],
      "stateMutability": "nonpayable",
      "type": "function"
    },
    {
      "inputs": [],
      "name": "owner",
      "outputs": [
        {
          "internalType": "address",
          "name": "",
          "type": "address"
        }
      ],
      "stateMutability": "view",
      "type": "function"
    },
    {
      "inputs": [],
      "name": "renounceOwnership",
      "outputs": [],
      "stateMutability": "nonpayable",
      "type": "function"
    },
    {
      "inputs": [
        {
          "internalType": "address",
          "name": "newOwner",
          "type": "address"
        }
      ],
      "name": "transferOwnership",
      "outputs": [],
      "stateMutability": "nonpayable",
      "type": "function"
    }
  ],
  "contractName": "BatchRegistrar",
  "sourceName": "src/registrar/BatchRegistrar.sol",
  "bytecode": "0x60a060405234801561000f575f80fd5b506040516109a83803806109a883398101604081905261002e916100de565b806001600160a01b03811661005c57604051631e4fbdf760e01b81525f600482015260240160405180910390fd5b61006581610078565b50506001600160a01b0316608052610116565b5f80546001600160a01b038381166001600160a01b0319831681178455604051919092169283917f8be0079c531659141344cd1fd0a4f28419497f9722a3daafe3b4186f6b6457e09190a35050565b6001600160a01b03811681146100db575f80fd5b50565b5f80604083850312156100ef575f80fd5b82516100fa816100c7565b602084015190925061010b816100c7565b809150509250929050565b6080516108666101425f395f818160820152818161010b01528181610212015261035c01526108665ff3fe608060405234801561000f575f80fd5b5060043610610064575f3560e01c8063715018a61161004d578063715018a6146100c05780638da5cb5b146100c8578063f2fde38b146100d8575f80fd5b8063087be49f14610068578063475007081461007d575b5f80fd5b61007b6100763660046105bc565b6100eb565b005b6100a47f000000000000000000000000000000000000000000000000000000000000000081565b6040516001600160a01b03909116815260200160405180910390f35b61007b61043b565b5f546001600160a01b03166100a4565b61007b6100e636600461064b565b61044e565b6100f36104a9565b8281146100fe575f80fd5b5f5b83811015610432575f7f00000000000000000000000000000000000000000000000000000000000000006001600160a01b03166344c9af2861019888888681811061014d5761014d61066d565b905060200281019061015f9190610681565b8080601f0160208091040260200160405190810160405280939291908181526020018383808284375f920191909152506104ee92505050565b6040518263ffffffff1660e01b81526004016101b691815260200190565b60a060405180830381865afa1580156101d1573d5f803e3d5ffd5b505050506040513d601f19601f820116820180604052508101906101f591906106f4565b90505f8151600281111561020b5761020b610786565b036102f6577f00000000000000000000000000000000000000000000000000000000000000006001600160a01b03166385f3e6438787858181106102515761025161066d565b90506020028101906102639190610681565b5f8c8c5f8b8b8b8181106102795761027961066d565b905060200201602081019061028e919061079a565b6040518863ffffffff1660e01b81526004016102b097969594939291906107b5565b6020604051808303815f875af11580156102cc573d5f803e3d5ffd5b505050506040513d601f19601f820116820180604052508101906102f09190610819565b50610429565b60018151600281111561030b5761030b610786565b1480156103555750806020015167ffffffffffffffff168484848181106103345761033461066d565b9050602002016020810190610349919061079a565b67ffffffffffffffff16115b15610429577f00000000000000000000000000000000000000000000000000000000000000006001600160a01b0316635569f33d82606001518686868181106103a0576103a061066d565b90506020020160208101906103b5919061079a565b6040517fffffffff0000000000000000000000000000000000000000000000000000000060e085901b168152600481019290925267ffffffffffffffff1660248201526044015f604051808303815f87803b158015610412575f80fd5b505af1158015610424573d5f803e3d5ffd5b505050505b50600101610100565b50505050505050565b6104436104a9565b61044c5f6104f9565b565b6104566104a9565b6001600160a01b03811661049d576040517f1e4fbdf70000000000000000000000000000000000000000000000000000000081525f60048201526024015b60405180910390fd5b6104a6816104f9565b50565b5f546001600160a01b0316331461044c576040517f118cdaa7000000000000000000000000000000000000000000000000000000008152336004820152602401610494565b805160209091012090565b5f80546001600160a01b038381167fffffffffffffffffffffffff0000000000000000000000000000000000000000831681178455604051919092169283917f8be0079c531659141344cd1fd0a4f28419497f9722a3daafe3b4186f6b6457e09190a35050565b6001600160a01b03811681146104a6575f80fd5b5f8083601f840112610584575f80fd5b50813567ffffffffffffffff81111561059b575f80fd5b6020830191508360208260051b85010111156105b5575f80fd5b9250929050565b5f805f805f80608087890312156105d1575f80fd5b86356105dc81610560565b955060208701356105ec81610560565b9450604087013567ffffffffffffffff80821115610608575f80fd5b6106148a838b01610574565b9096509450606089013591508082111561062c575f80fd5b5061063989828a01610574565b979a9699509497509295939492505050565b5f6020828403121561065b575f80fd5b813561066681610560565b9392505050565b634e487b7160e01b5f52603260045260245ffd5b5f808335601e19843603018112610696575f80fd5b83018035915067ffffffffffffffff8211156106b0575f80fd5b6020019150368190038213156105b5575f80fd5b67ffffffffffffffff811681146104a6575f80fd5b80516106e4816106c4565b919050565b80516106e481610560565b5f60a08284031215610704575f80fd5b60405160a0810181811067ffffffffffffffff8211171561073357634e487b7160e01b5f52604160045260245ffd5b604052825160038110610744575f80fd5b8152610752602084016106d9565b6020820152610763604084016106e9565b604082015260608301516060820152608083015160808201528091505092915050565b634e487b7160e01b5f52602160045260245ffd5b5f602082840312156107aa575f80fd5b8135610666816106c4565b60c081528660c0820152868860e08301375f60e08883018101919091526001600160a01b0396871660208301529486166040820152929094166060830152608082015267ffffffffffffffff90921660a0830152601f909201601f19160101919050565b5f60208284031215610829575f80fd5b505191905056fea26469706673582212205b7ce41736c60fb298c2f9e96862acced0ef09f03713cc585d78e5411dfba31c64736f6c63430008190033",
  "linkReferences": {},
  "deployedLinkReferences": {},
  "immutableReferences": {
    "70996": [
      {
        "length": 32,
        "start": 130
      },
      {
        "length": 32,
        "start": 267
      },
      {
        "length": 32,
        "start": 530
      },
      {
        "length": 32,
        "start": 860
      }
    ]
  },
  "inputSourceName": "project/src/registrar/BatchRegistrar.sol",
  "devdoc": {
    "errors": {
      "OwnableInvalidOwner(address)": [
        {
          "details": "The owner is not a valid owner account. (eg. `address(0)`)"
        }
      ],
      "OwnableUnauthorizedAccount(address)": [
        {
          "details": "The caller account is not authorized to perform an operation."
        }
      ]
    },
    "kind": "dev",
    "methods": {
      "batchRegister(address,address,string[],uint64[])": {
        "params": {
          "expires": "Array of expiry timestamps corresponding to each label",
          "labels": "Array of labels to reserve or renew",
          "registry": "The registry for all names",
          "resolver": "The resolver for all names"
        }
      },
      "constructor": {
        "params": {
          "ethRegistry_": "The ETH registry to use for batch registration.",
          "owner_": "The owner of the contract."
        }
      },
      "owner()": {
        "details": "Returns the address of the current owner."
      },
      "renounceOwnership()": {
        "details": "Leaves the contract without owner. It will not be possible to call `onlyOwner` functions. Can only be called by the current owner. NOTE: Renouncing ownership will leave the contract without an owner, thereby disabling any functionality that is only available to the owner."
      },
      "transferOwnership(address)": {
        "details": "Transfers ownership of the contract to a new account (`newOwner`). Can only be called by the current owner."
      }
    },
    "title": "BatchRegistrar",
    "version": 1
  },
  "evm": {
    "gasEstimates": {
      "creation": {
        "codeDepositCost": "430000",
        "executionCost": "infinite",
        "totalCost": "infinite"
      },
      "external": {
        "ETH_REGISTRY()": "infinite",
        "batchRegister(address,address,string[],uint64[])": "infinite",
        "owner()": "2339",
        "renounceOwnership()": "infinite",
        "transferOwnership(address)": "infinite"
      }
    }
  },
  "storageLayout": {
    "storage": [
      {
        "astId": 45307,
        "contract": "project/src/registrar/BatchRegistrar.sol:BatchRegistrar",
        "label": "_owner",
        "offset": 0,
        "slot": "0",
        "type": "t_address"
      }
    ],
    "types": {
      "t_address": {
        "encoding": "inplace",
        "label": "address",
        "numberOfBytes": "20"
      }
    }
  },
  "userdoc": {
    "kind": "user",
    "methods": {
      "ETH_REGISTRY()": {
        "notice": "The ETH registry to use for batch registration."
      },
      "batchRegister(address,address,string[],uint64[])": {
        "notice": "Batch reserve or renew names for pre-migration"
      },
      "constructor": {
        "notice": "Initializes the BatchRegistrar."
      }
    },
    "notice": "Simple batch registration contract for pre-migration of ENS names.         Only the owner can invoke batch registration.",
    "version": 1
  },
  "argsData": "0x000000000000000000000000796fff2e907449be8d5921bcc215b1b76d89d080000000000000000000000000ffffffffff52d316b7bd028358089bc8066b8f80",
  "transaction": {
    "hash": "0x3bf0d1f1850fa21c2a5237ad1a59bf744a2be7f9bdfdec44c58a254a43038f04",
    "nonce": "0x1d49",
    "origin": "0xffffffffff52d316b7bd028358089bc8066b8f80"
  }
}