{
  "address": "0x08af79c8a0ecdedee7a1c9ddb039378b7c30b89b",
  "abi": [
    {
      "inputs": [
        {
          "internalType": "contract ENS",
          "name": "registryV1",
          "type": "address"
        },
        {
          "internalType": "contract IGatewayProvider",
          "name": "batchGatewayProvider",
          "type": "address"
        }
      ],
      "stateMutability": "nonpayable",
      "type": "constructor"
    },
    {
      "inputs": [
        {
          "internalType": "bytes",
          "name": "dns",
          "type": "bytes"
        }
      ],
      "name": "DNSDecodingFailed",
      "type": "error"
    },
    {
      "inputs": [],
      "name": "InvalidBatchGatewayResponse",
      "type": "error"
    },
    {
      "inputs": [
        {
          "internalType": "address",
          "name": "sender",
          "type": "address"
        },
        {
          "internalType": "string[]",
          "name": "urls",
          "type": "string[]"
        },
        {
          "internalType": "bytes",
          "name": "callData",
          "type": "bytes"
        },
        {
          "internalType": "bytes4",
          "name": "callbackFunction",
          "type": "bytes4"
        },
        {
          "internalType": "bytes",
          "name": "extraData",
          "type": "bytes"
        }
      ],
      "name": "OffchainLookup",
      "type": "error"
    },
    {
      "inputs": [
        {
          "internalType": "uint256",
          "name": "offset",
          "type": "uint256"
        },
        {
          "internalType": "uint256",
          "name": "length",
          "type": "uint256"
        }
      ],
      "name": "OffsetOutOfBoundsError",
      "type": "error"
    },
    {
      "inputs": [
        {
          "internalType": "bytes",
          "name": "name",
          "type": "bytes"
        }
      ],
      "name": "UnreachableName",
      "type": "error"
    },
    {
      "inputs": [],
      "name": "BATCH_GATEWAY_PROVIDER",
      "outputs": [
        {
          "internalType": "contract IGatewayProvider",
          "name": "",
          "type": "address"
        }
      ],
      "stateMutability": "view",
      "type": "function"
    },
    {
      "inputs": [],
      "name": "REGISTRY_V1",
      "outputs": [
        {
          "internalType": "contract ENS",
          "name": "",
          "type": "address"
        }
      ],
      "stateMutability": "view",
      "type": "function"
    },
    {
      "inputs": [
        {
          "internalType": "address",
          "name": "resolver",
          "type": "address"
        },
        {
          "internalType": "bytes",
          "name": "name",
          "type": "bytes"
        },
        {
          "internalType": "bytes",
          "name": "data",
          "type": "bytes"
        },
        {
          "internalType": "bool",
          "name": "hasContext",
          "type": "bool"
        },
        {
          "internalType": "bytes",
          "name": "context",
          "type": "bytes"
        },
        {
          "internalType": "string[]",
          "name": "batchGateways",
          "type": "string[]"
        }
      ],
      "name": "callResolver",
      "outputs": [
        {
          "internalType": "bytes",
          "name": "",
          "type": "bytes"
        }
      ],
      "stateMutability": "view",
      "type": "function"
    },
    {
      "inputs": [
        {
          "components": [
            {
              "components": [
                {
                  "internalType": "address",
                  "name": "target",
                  "type": "address"
                },
                {
                  "internalType": "bytes",
                  "name": "call",
                  "type": "bytes"
                },
                {
                  "internalType": "bytes",
                  "name": "data",
                  "type": "bytes"
                },
                {
                  "internalType": "uint256",
                  "name": "flags",
                  "type": "uint256"
                }
              ],
              "internalType": "struct CCIPBatcher.Lookup[]",
              "name": "lookups",
              "type": "tuple[]"
            },
            {
              "internalType": "string[]",
              "name": "gateways",
              "type": "string[]"
            }
          ],
          "internalType": "struct CCIPBatcher.Batch",
          "name": "batch",
          "type": "tuple"
        }
      ],
      "name": "ccipBatch",
      "outputs": [
        {
          "components": [
            {
              "components": [
                {
                  "internalType": "address",
                  "name": "target",
                  "type": "address"
                },
                {
                  "internalType": "bytes",
                  "name": "call",
                  "type": "bytes"
                },
                {
                  "internalType": "bytes",
                  "name": "data",
                  "type": "bytes"
                },
                {
                  "internalType": "uint256",
                  "name": "flags",
                  "type": "uint256"
                }
              ],
              "internalType": "struct CCIPBatcher.Lookup[]",
              "name": "lookups",
              "type": "tuple[]"
            },
            {
              "internalType": "string[]",
              "name": "gateways",
              "type": "string[]"
            }
          ],
          "internalType": "struct CCIPBatcher.Batch",
          "name": "",
          "type": "tuple"
        }
      ],
      "stateMutability": "view",
      "type": "function"
    },
    {
      "inputs": [
        {
          "internalType": "bytes",
          "name": "response",
          "type": "bytes"
        },
        {
          "internalType": "bytes",
          "name": "extraData",
          "type": "bytes"
        }
      ],
      "name": "ccipBatchCallback",
      "outputs": [
        {
          "components": [
            {
              "components": [
                {
                  "internalType": "address",
                  "name": "target",
                  "type": "address"
                },
                {
                  "internalType": "bytes",
                  "name": "call",
                  "type": "bytes"
                },
                {
                  "internalType": "bytes",
                  "name": "data",
                  "type": "bytes"
                },
                {
                  "internalType": "uint256",
                  "name": "flags",
                  "type": "uint256"
                }
              ],
              "internalType": "struct CCIPBatcher.Lookup[]",
              "name": "lookups",
              "type": "tuple[]"
            },
            {
              "internalType": "string[]",
              "name": "gateways",
              "type": "string[]"
            }
          ],
          "internalType": "struct CCIPBatcher.Batch",
          "name": "batch",
          "type": "tuple"
        }
      ],
      "stateMutability": "view",
      "type": "function"
    },
    {
      "inputs": [
        {
          "internalType": "bytes",
          "name": "response",
          "type": "bytes"
        },
        {
          "internalType": "bytes",
          "name": "extraData",
          "type": "bytes"
        }
      ],
      "name": "ccipReadCallback",
      "outputs": [],
      "stateMutability": "view",
      "type": "function"
    },
    {
      "inputs": [
        {
          "internalType": "bytes",
          "name": "name",
          "type": "bytes"
        }
      ],
      "name": "getResolver",
      "outputs": [
        {
          "internalType": "address",
          "name": "",
          "type": "address"
        },
        {
          "internalType": "bool",
          "name": "",
          "type": "bool"
        }
      ],
      "stateMutability": "view",
      "type": "function"
    },
    {
      "inputs": [
        {
          "internalType": "bytes",
          "name": "",
          "type": "bytes"
        }
      ],
      "name": "requiresOffchain",
      "outputs": [
        {
          "internalType": "bool",
          "name": "",
          "type": "bool"
        }
      ],
      "stateMutability": "pure",
      "type": "function"
    },
    {
      "inputs": [
        {
          "internalType": "bytes",
          "name": "name",
          "type": "bytes"
        },
        {
          "internalType": "bytes",
          "name": "data",
          "type": "bytes"
        }
      ],
      "name": "resolve",
      "outputs": [
        {
          "internalType": "bytes",
          "name": "",
          "type": "bytes"
        }
      ],
      "stateMutability": "view",
      "type": "function"
    },
    {
      "inputs": [
        {
          "internalType": "bytes",
          "name": "response",
          "type": "bytes"
        },
        {
          "internalType": "bytes",
          "name": "extraData",
          "type": "bytes"
        }
      ],
      "name": "resolveBatchCallback",
      "outputs": [
        {
          "internalType": "bytes",
          "name": "",
          "type": "bytes"
        }
      ],
      "stateMutability": "pure",
      "type": "function"
    },
    {
      "inputs": [
        {
          "internalType": "bytes",
          "name": "response",
          "type": "bytes"
        },
        {
          "internalType": "bytes",
          "name": "",
          "type": "bytes"
        }
      ],
      "name": "resolveDirectImmediateCallback",
      "outputs": [
        {
          "internalType": "bytes",
          "name": "",
          "type": "bytes"
        }
      ],
      "stateMutability": "pure",
      "type": "function"
    },
    {
      "inputs": [
        {
          "internalType": "bytes4",
          "name": "feature",
          "type": "bytes4"
        }
      ],
      "name": "supportsFeature",
      "outputs": [
        {
          "internalType": "bool",
          "name": "",
          "type": "bool"
        }
      ],
      "stateMutability": "pure",
      "type": "function"
    },
    {
      "inputs": [
        {
          "internalType": "bytes4",
          "name": "interfaceId",
          "type": "bytes4"
        }
      ],
      "name": "supportsInterface",
      "outputs": [
        {
          "internalType": "bool",
          "name": "",
          "type": "bool"
        }
      ],
      "stateMutability": "view",
      "type": "function"
    }
  ],
  "contractName": "ENSV1Resolver",
  "sourceName": "src/resolver/ENSV1Resolver.sol",
  "bytecode": "0x60e060405234801561000f575f80fd5b506040516128e13803806128e183398101604081905261002e91610062565b61c3506080526001600160a01b0390811660a0521660c05261009a565b6001600160a01b038116811461005f575f80fd5b50565b5f8060408385031215610073575f80fd5b825161007e8161004b565b602084015190925061008f8161004b565b809150509250929050565b60805160a05160c05161280f6100d25f395f818161020d0152610dc601525f8181610164015261056201525f610e70015261280f5ff3fe608060405234801561000f575f80fd5b50600436106100da575f3560e01c80639061b92311610088578063e370ecbe11610063578063e370ecbe14610208578063eea330f91461022f578063ef46c0b814610261578063f394443a14610276575f80fd5b80639061b923146101c25780639f28e99d146101d5578063b536af76146101f5575f80fd5b8063582de3e7116100b8578063582de3e71461013b5780636ccb86601461015f5780636d6dd5401461019e575f80fd5b806301ffc9a7146100de57806329476d8a14610106578063491fc4f91461011b575b5f80fd5b6100f16100ec366004611886565b610289565b60405190151581526020015b60405180910390f35b6100f16101143660046118df565b5f92915050565b61012e61012936600461191e565b61030e565b6040516100fd91906119b3565b6100f1610149366004611886565b6001600160e01b0319166312d6c5b760e31b1490565b6101867f000000000000000000000000000000000000000000000000000000000000000081565b6040516001600160a01b0390911681526020016100fd565b6101b46101ac36600461191e565b509192909150565b6040516100fd9291906119c5565b61012e6101d036600461191e565b6104ac565b6101e86101e3366004611c07565b6105db565b6040516100fd9190611dc7565b6101e861020336600461191e565b61079c565b6101867f000000000000000000000000000000000000000000000000000000000000000081565b61024261023d3660046118df565b6109eb565b604080516001600160a01b0390931683529015156020830152016100fd565b61027461026f366004611e90565b610a04565b005b61012e610284366004611f08565b610a89565b5f639061b92360e01b6001600160e01b0319831614806102d257507fc7e45d73000000000000000000000000000000000000000000000000000000006001600160e01b03198316145b806102ed575063582de3e760e01b6001600160e01b03198316145b8061030857506301ffc9a760e01b6001600160e01b03198316145b92915050565b60605f61031d85870187611c07565b5190505f8061032e85870187611fcd565b91509150811561043b575f835167ffffffffffffffff811115610353576103536119f3565b60405190808252806020026020018201604052801561038657816020015b60608152602001906001900390816103715790505b5090505f5b845181101561040f575f8582815181106103a7576103a7612004565b602002602001015190505f816040015190508480156103cb57506060820151600e16155b156103e757808060200190518101906103e4919061206c565b90505b808484815181106103fa576103fa612004565b6020908102919091010152505060010161038b565b5080604051602001610421919061209e565b6040516020818303038152906040529450505050506104a4565b5f835f8151811061044e5761044e612004565b60209081029190910101516040810151606082015191925090600e161561047757805160208201fd5b82156104945780806020019051810190610491919061206c565b90505b94506104a49350505050565b5050505b949350505050565b60606105d26104bb8686610dc0565b86868080601f0160208091040260200160405190810160405280939291908181526020018383808284375f9201919091525050604080516020601f8a0181900481028201810190925288815292508891508790819084018382808284375f9201829052506040805160208101825282815281517f093a86d3000000000000000000000000000000000000000000000000000000008152915192955093506001600160a01b037f000000000000000000000000000000000000000000000000000000000000000016925063093a86d391600480830192879291908290030181865afa1580156105ab573d5f803e3d5ffd5b505050506040513d5f823e601f3d908101601f19168201604052610284919081019061218e565b50949350505050565b60408051808201909152606080825260208201525f5b82515181101561078e575f835f0151828151811061061157610611612004565b6020026020010151905060408160600151165f1461062f5750610786565b60608101516030165f036106d9575f61064a825f0151610e2a565b610655576010610658565b60205b9050825b8551518110156106d657825f01516001600160a01b0316865f0151828151811061068857610688612004565b60200260200101515f01516001600160a01b0316036106ce5781865f015182815181106106b7576106b7612004565b602002602001015160600181815117915081815250505b60010161065c565b50505b5f60208260600151165f1490505f806106fb8315855f01518660200151610e5c565b91509150811580156107255750630556f18360e41b610719826121c0565b6001600160e01b031916145b1561073a57606084018051600117905261077a565b606084018051604017905282801561075157508051155b61076657816107665760608401805160021790525b80515f0361077a5760608401805160081790525b60409093019290925250505b6001016105f1565b5061079882610eef565b5090565b60408051808201909152606080825260208201525f806107be86880188612272565b9150915080518251146107e45760405163252e18f560e11b815260040160405180910390fd5b6107f084860186611c07565b92505f805b8451518110156109c0575f855f0151828151811061081557610815612004565b6020026020010151905060408160600151165f036109b75783518310156109ab575f84848151811061084957610849612004565b6020026020010151905085848151811061086557610865612004565b6020026020010151156108825760608201805160441790526109a5565b5f61089083604001516110da565b90505f815f01516001600160a01b031682606001518484608001516040516024016108bc929190612324565b60408051601f198184030181529181526020820180516001600160e01b03166001600160e01b03199094169390931790925290516108fa9190612348565b5f60405180830381855afa9150503d805f8114610932576040519150601f19603f3d011682016040523d82523d5f602084013e610937565b606091505b509350905080806109615750630556f18360e41b610954846121c0565b6001600160e01b03191614155b156109a257606084018051604017905280158061097d57508251155b1561098e5760608401805160021790525b82515f036109a25760608401805160081790525b50505b60408201525b6109b483612372565b92505b506001016107f5565b50815181146109e25760405163252e18f560e11b815260040160405180910390fd5b6104a084610eef565b5f806109f78484610dc0565b5f915091505b9250929050565b5f81806020019051810190610a1991906123a0565b9050610a84815f01518260200151858460400151604051602401610a3e929190612324565b60408051601f198184030181529190526020810180516001600160e01b03166001600160e01b0319909316929092179091526060840151608085015160a086015161111e565b505050565b6060866001600160a01b03163b5f03610ad957856040517f5fe9a5df000000000000000000000000000000000000000000000000000000008152600401610ad091906119b3565b60405180910390fd5b5f7fac9650d800000000000000000000000000000000000000000000000000000000610b04876121c0565b6001600160e01b0319161490505f858015610b2b5750610b2b8963477cc53f60e11b6112e1565b90505f8180610b465750610b468a639061b92360e01b6112e1565b9050610b598a63582de3e760e01b6112e1565b8015610bdd5750821580610bdd5750808015610bdd575060405163582de3e760e01b81526312d6c5b760e31b60048201526001600160a01b038b169063582de3e790602401602060405180830381865afa158015610bb9573d5f803e3d5ffd5b505050506040513d601f19601f82011682018060405250810190610bdd919061246f565b15610c27578015610c0257610bfd8a610bf8848c8c8b611367565b6113f9565b610c27565b610c278a89636d6dd54060e01b5f60e01b60405180602001604052805f81525061111e565b60608315610c6157610c47896004808c51610c42919061248a565b61141e565b806020019051810190610c5a919061249d565b9050610cac565b60408051600180825281830190925290816020015b6060815260200190600190039081610c7657905050905088815f81518110610ca057610ca0612004565b60200260200101819052505b8115610d09575f5b8151811015610d0757610ce2848c848481518110610cd457610cd4612004565b60200260200101518b611367565b828281518110610cf457610cf4612004565b6020908102919091010152600101610cb4565b505b610db23080639f28e99d610d1e8f868c61147a565b604051602401610d2e9190611dc7565b60408051601f19818403018152918152602080830180516001600160e01b031660e09590951b94909417909352519092507f491fc4f900000000000000000000000000000000000000000000000000000000915f91610d9e918b918a910191151582521515602082015260400190565b60405160208183030381529060405261111e565b505050509695505050505050565b5f610e207f000000000000000000000000000000000000000000000000000000000000000084848080601f0160208091040260200160405190810160405280939291908181526020018383808284375f920182905250925061158f915050565b5090949350505050565b5f306001600160a01b03831603610e4357506001919050565b6113885a5f805f808786fa50815a909103109392505050565b5f6060836001600160a01b031685610e94577f0000000000000000000000000000000000000000000000000000000000000000610e96565b5a5b84604051610ea49190612348565b5f604051808303818686fa925050503d805f8114610edd576040519150601f19603f3d011682016040523d82523d5f602084013e610ee2565b606091505b5090969095509350505050565b8051515f9067ffffffffffffffff811115610f0c57610f0c6119f3565b604051908082528060200260200182016040528015610f6957816020015b610f5660405180606001604052805f6001600160a01b0316815260200160608152602001606081525090565b815260200190600190039081610f2a5790505b5090505f805b83515181101561101a575f845f01518281518110610f8f57610f8f612004565b6020026020010151905060408160600151165f03611011575f610fb582604001516110da565b90506040518060600160405280825f01516001600160a01b03168152602001826020015181526020018260400151815250858580610ff290612372565b96508151811061100457611004612004565b6020026020010181905250505b50600101610f6f565b508015610a84578082523083602001518360405160240161103b9190612547565b60408051601f19818403018152918152602080830180516001600160e01b03167fa780bab60000000000000000000000000000000000000000000000000000000017905290517fb536af7600000000000000000000000000000000000000000000000000000000916110af91899101611dc7565b60408051601f1981840301815290829052630556f18360e41b8252610ad095949392916004016125e1565b6040805160a0810182525f808252606060208301819052928201839052828201526080810191909152610308611119836004808651610c42919061248a565b61168b565b5f8061113361112c88610e2a565b8888610e5c565b915091508115801561115d5750630556f18360e41b611151826121c0565b6001600160e01b031916145b1561120b575f61116c826110da565b9050876001600160a01b0316815f01516001600160a01b03160361120957308160200151826040015163ef46c0b860e01b6040518060c001604052808d6001600160a01b0316815260200186606001516001600160e01b0319168152602001866080015181526020018b6001600160e01b03191681526020018a6001600160e01b0319168152602001898152506040516020016110af9190612644565b505b5f826112175784611219565b855b90506001600160e01b03198116156112cb57306001600160a01b0316818386604051602401611249929190612324565b60408051601f198184030181529181526020820180516001600160e01b03166001600160e01b03199094169390931790925290516112879190612348565b5f60405180830381855afa9150503d805f81146112bf576040519150601f19603f3d011682016040523d82523d5f602084013e6112c4565b606091505b5090935091505b82156112d957815160208301f35b815160208301fd5b604080516001600160e01b03198316602480830191909152825180830390910181526044909101909152602080820180516001600160e01b03166301ffc9a760e01b17815282515f9392849283928392918391908a617530fa92503d91505f519050828015611351575060208210155b801561135c57505f81115b979650505050505050565b6060846113b0578383604051602401611381929190612324565b60408051601f198184030181529190526020810180516001600160e01b0316639061b92360e01b1790526113f0565b8383836040516024016113c5939291906126c0565b60408051601f198184030181529190526020810180516001600160e01b031663477cc53f60e11b1790525b95945050505050565b61141a82825f60e01b5f60e01b60405180602001604052805f81525061111e565b5050565b60608167ffffffffffffffff811115611439576114396119f3565b6040519080825280601f01601f191660200182016040528015611463576020820181803683370190505b5090506114738484835f866116f6565b9392505050565b60408051808201909152606080825260208201525f835167ffffffffffffffff8111156114a9576114a96119f3565b60405190808252806020026020018201604052801561150c57816020015b6114f960405180608001604052805f6001600160a01b0316815260200160608152602001606081526020015f81525090565b8152602001906001900390816114c75790505b5090505f5b8451811015611572575f82828151811061152d5761152d612004565b60209081029190910101516001600160a01b0388168152865190915086908390811061155b5761155b612004565b602090810291909101810151910152600101611511565b506040805180820190915290815260208101929092525092915050565b5f805f805f61159e8787611733565b9092509050811561167f575f805f6115b78b8b8661158f565b9250925092506115d082865f9182526020526040902090565b6040517f0178b8bf000000000000000000000000000000000000000000000000000000008152600481018290529097506001600160a01b038c1690630178b8bf90602401602060405180830381865afa15801561162f573d5f803e3d5ffd5b505050506040513d601f19601f820116820180604052508101906116539190612702565b97506001600160a01b03881661166b5782878261166f565b87878a5b9750975097505050505050611682565b50505b93509350939050565b6040805160a0810182525f808252606060208301819052928201839052828201526080810191909152818060200190518101906116c8919061271d565b60808601526001600160e01b0319166060850152604084015260208301526001600160a01b03168152919050565b6117098561170483876127c6565b611760565b6117178361170483856127c6565b61172c826020850101856020880101836117a8565b5050505050565b5f805f61174085856117f1565b9250905060ff81161561175857806021858701012092505b509250929050565b815181111561141a5781516040517f8a3c1cfb000000000000000000000000000000000000000000000000000000008152610ad0918391600401918252602082015260400190565b5b601f8111156117c9578151835260209283019290910190601f19016117a9565b8015610a845790518251600160209390930360031b9290921b5f190180199091169116179052565b5f8083518310611816578360405163ba4adc2360e01b8152600401610ad091906119b3565b83838151811061182857611828612004565b016020015160f81c9150508181016001018161184857835181141561184e565b83518110155b156109fd578360405163ba4adc2360e01b8152600401610ad091906119b3565b6001600160e01b031981168114611883575f80fd5b50565b5f60208284031215611896575f80fd5b81356114738161186e565b5f8083601f8401126118b1575f80fd5b50813567ffffffffffffffff8111156118c8575f80fd5b6020830191508360208285010111156109fd575f80fd5b5f80602083850312156118f0575f80fd5b823567ffffffffffffffff811115611906575f80fd5b611912858286016118a1565b90969095509350505050565b5f805f8060408587031215611931575f80fd5b843567ffffffffffffffff80821115611948575f80fd5b611954888389016118a1565b9096509450602087013591508082111561196c575f80fd5b50611979878288016118a1565b95989497509550505050565b5f81518084528060208401602086015e5f602082860101526020601f19601f83011685010191505092915050565b602081525f6114736020830184611985565b60208152816020820152818360408301375f818301604090810191909152601f909201601f19160101919050565b634e487b7160e01b5f52604160045260245ffd5b6040805190810167ffffffffffffffff81118282101715611a2a57611a2a6119f3565b60405290565b6040516080810167ffffffffffffffff81118282101715611a2a57611a2a6119f3565b60405160c0810167ffffffffffffffff81118282101715611a2a57611a2a6119f3565b604051601f8201601f1916810167ffffffffffffffff81118282101715611a9f57611a9f6119f3565b604052919050565b5f67ffffffffffffffff821115611ac057611ac06119f3565b5060051b60200190565b6001600160a01b0381168114611883575f80fd5b8035611ae981611aca565b919050565b5f67ffffffffffffffff821115611b0757611b076119f3565b50601f01601f191660200190565b5f611b27611b2284611aee565b611a76565b9050828152838383011115611b3a575f80fd5b828260208301375f602084830101529392505050565b5f82601f830112611b5f575f80fd5b61147383833560208501611b15565b5f82601f830112611b7d575f80fd5b81356020611b8d611b2283611aa7565b82815260059290921b84018101918181019086841115611bab575f80fd5b8286015b84811015611bfc57803567ffffffffffffffff811115611bcd575f80fd5b8701603f81018913611bdd575f80fd5b611bee898683013560408401611b15565b845250918301918301611baf565b509695505050505050565b5f6020808385031215611c18575f80fd5b823567ffffffffffffffff80821115611c2f575f80fd5b9084019060408287031215611c42575f80fd5b611c4a611a07565b823582811115611c58575f80fd5b8301601f81018813611c68575f80fd5b8035611c76611b2282611aa7565b81815260059190911b8201860190868101908a831115611c94575f80fd5b8784015b83811015611d3c57803587811115611cae575f80fd5b85016080818e03601f19011215611cc3575f80fd5b611ccb611a30565b8a820135611cd881611aca565b8152604082013589811115611ceb575f80fd5b611cf98f8d83860101611b50565b8c83015250606082013589811115611d0f575f80fd5b611d1d8f8d83860101611b50565b6040830152506080919091013560608201528352918801918801611c98565b5084525050508284013582811115611d52575f80fd5b611d5e88828601611b6e565b948201949094529695505050505050565b5f8282518085526020808601955060208260051b840101602086015f5b84811015611dba57601f19868403018952611da8838351611985565b98840198925090830190600101611d8c565b5090979650505050505050565b5f602080835260608084018551604080858801528282518085526080945060808901915060808160051b8a010187850194505f5b82811015611e6557607f198b830301845285516001600160a01b03815116835289810151888b850152611e3089850182611985565b90508682015184820388860152611e478282611985565b928b0151948b01949094525095890195938901939150600101611dfb565b50968a0151898803601f190160408b015296611e818189611d6f565b9b9a5050505050505050505050565b5f8060408385031215611ea1575f80fd5b823567ffffffffffffffff80821115611eb8575f80fd5b611ec486838701611b50565b93506020850135915080821115611ed9575f80fd5b50611ee685828601611b50565b9150509250929050565b8015158114611883575f80fd5b8035611ae981611ef0565b5f805f805f8060c08789031215611f1d575f80fd5b611f2687611ade565b9550602087013567ffffffffffffffff80821115611f42575f80fd5b611f4e8a838b01611b50565b96506040890135915080821115611f63575f80fd5b611f6f8a838b01611b50565b9550611f7d60608a01611efd565b94506080890135915080821115611f92575f80fd5b611f9e8a838b01611b50565b935060a0890135915080821115611fb3575f80fd5b50611fc089828a01611b6e565b9150509295509295509295565b5f8060408385031215611fde575f80fd5b8235611fe981611ef0565b91506020830135611ff981611ef0565b809150509250929050565b634e487b7160e01b5f52603260045260245ffd5b5f612025611b2284611aee565b9050828152838383011115612038575f80fd5b8282602083015e5f602084830101529392505050565b5f82601f83011261205d575f80fd5b61147383835160208501612018565b5f6020828403121561207c575f80fd5b815167ffffffffffffffff811115612092575f80fd5b6104a48482850161204e565b5f60208083016020845280855180835260408601915060408160051b8701019250602087015f5b828110156120f357603f198886030184526120e1858351611985565b945092850192908501906001016120c5565b5092979650505050505050565b5f82601f83011261210f575f80fd5b8151602061211f611b2283611aa7565b82815260059290921b8401810191818101908684111561213d575f80fd5b8286015b84811015611bfc57805167ffffffffffffffff81111561215f575f80fd5b8701603f8101891361216f575f80fd5b612180898683015160408401612018565b845250918301918301612141565b5f6020828403121561219e575f80fd5b815167ffffffffffffffff8111156121b4575f80fd5b6104a484828501612100565b5f815160208301516001600160e01b0319808216935060048310156121ef5780818460040360031b1b83161693505b505050919050565b5f82601f830112612206575f80fd5b81356020612216611b2283611aa7565b82815260059290921b84018101918181019086841115612234575f80fd5b8286015b84811015611bfc57803567ffffffffffffffff811115612256575f80fd5b6122648986838b0101611b50565b845250918301918301612238565b5f8060408385031215612283575f80fd5b823567ffffffffffffffff8082111561229a575f80fd5b818501915085601f8301126122ad575f80fd5b813560206122bd611b2283611aa7565b82815260059290921b840181019181810190898411156122db575f80fd5b948201945b838610156123025785356122f381611ef0565b825294820194908201906122e0565b96505086013592505080821115612317575f80fd5b50611ee6858286016121f7565b604081525f6123366040830185611985565b82810360208401526113f08185611985565b5f82518060208501845e5f920191825250919050565b634e487b7160e01b5f52601160045260245ffd5b5f600182016123835761238361235e565b5060010190565b8051611ae981611aca565b8051611ae98161186e565b5f602082840312156123b0575f80fd5b815167ffffffffffffffff808211156123c7575f80fd5b9083019060c082860312156123da575f80fd5b6123e2611a53565b6123eb8361238a565b81526123f960208401612395565b602082015260408301518281111561240f575f80fd5b61241b8782860161204e565b60408301525061242d60608401612395565b606082015261243e60808401612395565b608082015260a083015182811115612454575f80fd5b6124608782860161204e565b60a08301525095945050505050565b5f6020828403121561247f575f80fd5b815161147381611ef0565b818103818111156103085761030861235e565b5f60208083850312156124ae575f80fd5b825167ffffffffffffffff808211156124c5575f80fd5b818501915085601f8301126124d8575f80fd5b81516124e6611b2282611aa7565b81815260059190911b83018401908481019088831115612504575f80fd5b8585015b8381101561253a5780518581111561251e575f80fd5b61252c8b89838a010161204e565b845250918601918601612508565b5098975050505050505050565b5f60208083018184528085518083526040925060408601915060408160051b8701018488015f5b838110156125d357603f19898403018552815160606001600160a01b03825116855288820151818a8701526125a582870182611d6f565b915050878201519150848103888601526125bf8183611985565b96890196945050509086019060010161256e565b509098975050505050505050565b6001600160a01b038616815260a060208201525f61260260a0830187611d6f565b82810360408401526126148187611985565b90506001600160e01b03198516606084015282810360808401526126388185611985565b98975050505050505050565b602081526001600160a01b0382511660208201525f60208301516001600160e01b031980821660408501526040850151915060c0606085015261268a60e0850183611985565b91508060608601511660808501528060808601511660a08501525060a0840151601f198483030160c08501526113f08282611985565b606081525f6126d26060830186611985565b82810360208401526126e48186611985565b905082810360408401526126f88185611985565b9695505050505050565b5f60208284031215612712575f80fd5b815161147381611aca565b5f805f805f60a08688031215612731575f80fd5b855161273c81611aca565b602087015190955067ffffffffffffffff80821115612759575f80fd5b61276589838a01612100565b9550604088015191508082111561277a575f80fd5b61278689838a0161204e565b9450606088015191506127988261186e565b6080880151919350808211156127ac575f80fd5b506127b98882890161204e565b9150509295509295909350565b808201808211156103085761030861235e56fea264697066735822122044952eba9e24431c1875ea9ca5a909171fbc460bcac532d0025e866d9852855564736f6c63430008190033",
  "linkReferences": {},
  "deployedLinkReferences": {},
  "immutableReferences": {
    "1090": [
      {
        "length": 32,
        "start": 3696
      }
    ],
    "75992": [
      {
        "length": 32,
        "start": 356
      },
      {
        "length": 32,
        "start": 1378
      }
    ],
    "76135": [
      {
        "length": 32,
        "start": 525
      },
      {
        "length": 32,
        "start": 3526
      }
    ]
  },
  "inputSourceName": "project/src/resolver/ENSV1Resolver.sol",
  "devdoc": {
    "errors": {
      "DNSDecodingFailed(bytes)": [
        {
          "details": "The DNS-encoded name is malformed.      Error selector: `0xba4adc23`"
        }
      ],
      "InvalidBatchGatewayResponse()": [
        {
          "details": "Error selector: `0x4a5c31ea`"
        }
      ],
      "OffchainLookup(address,string[],bytes,bytes4,bytes)": [
        {
          "details": "https://eips.ethereum.org/EIPS/eip-3668 Error selector: `0x556f1830`"
        }
      ],
      "OffsetOutOfBoundsError(uint256,uint256)": [
        {
          "details": "`offset` was beyond `length`.       Error selector: `0x8a3c1cfb`"
        }
      ],
      "UnreachableName(bytes)": [
        {
          "details": "`name` cannot be resolved.      Error selector: `0x5fe9a5df`",
          "params": {
            "name": "The DNS-encoded ENS name."
          }
        }
      ]
    },
    "kind": "dev",
    "methods": {
      "callResolver(address,bytes,bytes,bool,bytes,string[])": {
        "details": "Reverts `UnreachableName` if resolver is not a contract.      This function never returns normally.      The return type is necessary to define the result of the callback.      Call this function externally or with `ccipRead()` to intercept the response.",
        "params": {
          "batchGateways": "The batch gateway URLs.",
          "context": "The context for `IExtendedDNSResolver`.",
          "data": "The calldata for the resolution.",
          "hasContext": "True if `IExtendedDNSResolver` should be considered.",
          "name": "The DNS-encoded ENS name.",
          "resolver": "The resolver to call."
        }
      },
      "ccipBatch(((address,bytes,bytes,uint256)[],string[]))": {
        "details": "Use `ccipRead()` to call this function with a batch.      The callback response will be `abi.encode(batch)`."
      },
      "ccipBatchCallback(bytes,bytes)": {
        "details": "CCIP-Read callback for `ccipBatch()`.      Updates `batch` using the batch gateway response. Reverts again if not \"done\".",
        "params": {
          "extraData": "The contextual data passed from `ccipBatch()`.",
          "response": "The response from the batch gateway."
        },
        "returns": {
          "batch": "The batch where every lookup is \"done\"."
        }
      },
      "ccipReadCallback(bytes,bytes)": {
        "details": "CCIP-Read callback for `ccipRead()`.The return type of this function is polymorphic depending on the caller.",
        "params": {
          "extraData": "The contextual data passed from `ccipRead()`.",
          "response": "The response from offchain."
        }
      },
      "constructor": {
        "params": {
          "batchGatewayProvider": "The batch gateway provider.",
          "registryV1": "The ENSv1 registry."
        }
      },
      "getResolver(bytes)": {
        "params": {
          "name": "The DNS-encoded name."
        },
        "returns": {
          "_0": "The underlying resolver address.",
          "_1": "`true` if `resolver` is offchain."
        }
      },
      "requiresOffchain(bytes)": {
        "params": {
          "name": "The DNS-encoded name."
        },
        "returns": {
          "_0": "`true` if requires offchain data."
        }
      },
      "resolveBatchCallback(bytes,bytes)": {
        "details": "CCIP-Read callback for `callResolver()` from batch calling a resolver.",
        "params": {
          "extraData": "The abi-encoded properties of the call.",
          "response": "The response data from the batch gateway."
        },
        "returns": {
          "_0": "result The response from the resolver."
        }
      },
      "resolveDirectImmediateCallback(bytes,bytes)": {
        "details": "CCIP-Read callback for `callResolver()` from direct calling an immediate resolver."
      },
      "supportsFeature(bytes4)": {
        "params": {
          "featureId": "The feature identifier."
        },
        "returns": {
          "_0": "`true` if the feature is supported by the contract."
        }
      },
      "supportsInterface(bytes4)": {
        "details": "See {IERC165-supportsInterface}."
      }
    },
    "version": 1
  },
  "evm": {
    "gasEstimates": {
      "creation": {
        "codeDepositCost": "2051000",
        "executionCost": "infinite",
        "totalCost": "infinite"
      },
      "external": {
        "BATCH_GATEWAY_PROVIDER()": "infinite",
        "REGISTRY_V1()": "infinite",
        "callResolver(address,bytes,bytes,bool,bytes,string[])": "infinite",
        "ccipBatch(((address,bytes,bytes,uint256)[],string[]))": "infinite",
        "ccipBatchCallback(bytes,bytes)": "infinite",
        "ccipReadCallback(bytes,bytes)": "infinite",
        "getResolver(bytes)": "infinite",
        "requiresOffchain(bytes)": "533",
        "resolve(bytes,bytes)": "infinite",
        "resolveBatchCallback(bytes,bytes)": "infinite",
        "resolveDirectImmediateCallback(bytes,bytes)": "infinite",
        "supportsFeature(bytes4)": "396",
        "supportsInterface(bytes4)": "580"
      },
      "internal": {
        "_findResolver(bytes calldata)": "infinite"
      }
    }
  },
  "storageLayout": {
    "storage": [],
    "types": null
  },
  "userdoc": {
    "errors": {
      "InvalidBatchGatewayResponse()": [
        {
          "notice": "The batch gateway supplied an incorrect number of responses."
        }
      ]
    },
    "kind": "user",
    "methods": {
      "BATCH_GATEWAY_PROVIDER()": {
        "notice": "Shared batch gateway provider."
      },
      "REGISTRY_V1()": {
        "notice": "The ENSv1 registry used to look up resolvers for names."
      },
      "callResolver(address,bytes,bytes,bool,bytes,string[])": {
        "notice": "Perform forward resolution. Call this function with `ccipRead()` to intercept the response. Supports extended (`IExtendedDNSResolver` and `IExtendedResolver`) and immediate resolvers. - If extended, the calldata is not `multicall()`, and the resolver supports ENSIP-22 features,   the call is performed directly without the batch gateway. - If extended, the calldata is `multicall()`, and the resolver supports `eth.ens.resolver.extended.multicall` feature,   the call is performed directly without the batch gateway. - Otherwise, the call is performed with the batch gateway.   The batch gateway is only invoked if any call reverts `OffchainLookup`.   If the calldata is `multicall()` it is disassembled, called separately, and reassembled."
      },
      "constructor": {
        "notice": "Initializes the ENSV1Resolver with the ENSv1 registry and batch gateway provider."
      },
      "getResolver(bytes)": {
        "notice": "Fetch the underlying resolver for `name`.         Callers should enable EIP-3668. * If `offchain`, additional information is necessary to locate `resolver`. * If `resolver` is null, `offchain` is irrelevant."
      },
      "requiresOffchain(bytes)": {
        "notice": "Determine if resolving `name` requires offchain data."
      },
      "supportsFeature(bytes4)": {
        "notice": "Check if a feature is supported."
      }
    },
    "notice": "Resolver that performs resolutions using ENSv1.",
    "version": 1
  },
  "argsData": "0x0000000000000000000000007e89b563f936c68c31a360840eb7f9a4aacaf014000000000000000000000000dd618e84bfdbe3f8c4bf70ad000493977d824ab9",
  "transaction": {
    "hash": "0xf89c2cd95e1144d3f850e696e18292cfc5b7fdd3d1554ee5452acb8dd5535bc1",
    "nonce": "0x1d2b",
    "origin": "0xffffffffff52d316b7bd028358089bc8066b8f80"
  }
}