{
  "address": "0x18cb116a1c88531a4bb2996e4fef136a31e11a80",
  "abi": [
    {
      "inputs": [
        {
          "internalType": "contract IRegistry",
          "name": "rootRegistry",
          "type": "address"
        },
        {
          "internalType": "contract IGatewayProvider",
          "name": "batchGatewayProvider",
          "type": "address"
        },
        {
          "internalType": "address",
          "name": "ethResolver",
          "type": "address"
        }
      ],
      "stateMutability": "nonpayable",
      "type": "constructor"
    },
    {
      "inputs": [
        {
          "internalType": "bytes",
          "name": "dns",
          "type": "bytes"
        }
      ],
      "name": "DNSDecodingFailed",
      "type": "error"
    },
    {
      "inputs": [],
      "name": "InvalidBatchGatewayResponse",
      "type": "error"
    },
    {
      "inputs": [
        {
          "internalType": "address",
          "name": "sender",
          "type": "address"
        },
        {
          "internalType": "string[]",
          "name": "urls",
          "type": "string[]"
        },
        {
          "internalType": "bytes",
          "name": "callData",
          "type": "bytes"
        },
        {
          "internalType": "bytes4",
          "name": "callbackFunction",
          "type": "bytes4"
        },
        {
          "internalType": "bytes",
          "name": "extraData",
          "type": "bytes"
        }
      ],
      "name": "OffchainLookup",
      "type": "error"
    },
    {
      "inputs": [
        {
          "internalType": "uint256",
          "name": "offset",
          "type": "uint256"
        },
        {
          "internalType": "uint256",
          "name": "length",
          "type": "uint256"
        }
      ],
      "name": "OffsetOutOfBoundsError",
      "type": "error"
    },
    {
      "inputs": [
        {
          "internalType": "bytes",
          "name": "name",
          "type": "bytes"
        }
      ],
      "name": "UnreachableName",
      "type": "error"
    },
    {
      "inputs": [],
      "name": "BATCH_GATEWAY_PROVIDER",
      "outputs": [
        {
          "internalType": "contract IGatewayProvider",
          "name": "",
          "type": "address"
        }
      ],
      "stateMutability": "view",
      "type": "function"
    },
    {
      "inputs": [],
      "name": "ETH_RESOLVER",
      "outputs": [
        {
          "internalType": "address",
          "name": "",
          "type": "address"
        }
      ],
      "stateMutability": "view",
      "type": "function"
    },
    {
      "inputs": [],
      "name": "ROOT_REGISTRY",
      "outputs": [
        {
          "internalType": "contract IRegistry",
          "name": "",
          "type": "address"
        }
      ],
      "stateMutability": "view",
      "type": "function"
    },
    {
      "inputs": [
        {
          "internalType": "address",
          "name": "resolver",
          "type": "address"
        },
        {
          "internalType": "bytes",
          "name": "name",
          "type": "bytes"
        },
        {
          "internalType": "bytes",
          "name": "data",
          "type": "bytes"
        },
        {
          "internalType": "bool",
          "name": "hasContext",
          "type": "bool"
        },
        {
          "internalType": "bytes",
          "name": "context",
          "type": "bytes"
        },
        {
          "internalType": "string[]",
          "name": "batchGateways",
          "type": "string[]"
        }
      ],
      "name": "callResolver",
      "outputs": [
        {
          "internalType": "bytes",
          "name": "",
          "type": "bytes"
        }
      ],
      "stateMutability": "view",
      "type": "function"
    },
    {
      "inputs": [
        {
          "components": [
            {
              "components": [
                {
                  "internalType": "address",
                  "name": "target",
                  "type": "address"
                },
                {
                  "internalType": "bytes",
                  "name": "call",
                  "type": "bytes"
                },
                {
                  "internalType": "bytes",
                  "name": "data",
                  "type": "bytes"
                },
                {
                  "internalType": "uint256",
                  "name": "flags",
                  "type": "uint256"
                }
              ],
              "internalType": "struct CCIPBatcher.Lookup[]",
              "name": "lookups",
              "type": "tuple[]"
            },
            {
              "internalType": "string[]",
              "name": "gateways",
              "type": "string[]"
            }
          ],
          "internalType": "struct CCIPBatcher.Batch",
          "name": "batch",
          "type": "tuple"
        }
      ],
      "name": "ccipBatch",
      "outputs": [
        {
          "components": [
            {
              "components": [
                {
                  "internalType": "address",
                  "name": "target",
                  "type": "address"
                },
                {
                  "internalType": "bytes",
                  "name": "call",
                  "type": "bytes"
                },
                {
                  "internalType": "bytes",
                  "name": "data",
                  "type": "bytes"
                },
                {
                  "internalType": "uint256",
                  "name": "flags",
                  "type": "uint256"
                }
              ],
              "internalType": "struct CCIPBatcher.Lookup[]",
              "name": "lookups",
              "type": "tuple[]"
            },
            {
              "internalType": "string[]",
              "name": "gateways",
              "type": "string[]"
            }
          ],
          "internalType": "struct CCIPBatcher.Batch",
          "name": "",
          "type": "tuple"
        }
      ],
      "stateMutability": "view",
      "type": "function"
    },
    {
      "inputs": [
        {
          "internalType": "bytes",
          "name": "response",
          "type": "bytes"
        },
        {
          "internalType": "bytes",
          "name": "extraData",
          "type": "bytes"
        }
      ],
      "name": "ccipBatchCallback",
      "outputs": [
        {
          "components": [
            {
              "components": [
                {
                  "internalType": "address",
                  "name": "target",
                  "type": "address"
                },
                {
                  "internalType": "bytes",
                  "name": "call",
                  "type": "bytes"
                },
                {
                  "internalType": "bytes",
                  "name": "data",
                  "type": "bytes"
                },
                {
                  "internalType": "uint256",
                  "name": "flags",
                  "type": "uint256"
                }
              ],
              "internalType": "struct CCIPBatcher.Lookup[]",
              "name": "lookups",
              "type": "tuple[]"
            },
            {
              "internalType": "string[]",
              "name": "gateways",
              "type": "string[]"
            }
          ],
          "internalType": "struct CCIPBatcher.Batch",
          "name": "batch",
          "type": "tuple"
        }
      ],
      "stateMutability": "view",
      "type": "function"
    },
    {
      "inputs": [
        {
          "internalType": "bytes",
          "name": "response",
          "type": "bytes"
        },
        {
          "internalType": "bytes",
          "name": "extraData",
          "type": "bytes"
        }
      ],
      "name": "ccipReadCallback",
      "outputs": [],
      "stateMutability": "view",
      "type": "function"
    },
    {
      "inputs": [
        {
          "internalType": "bytes",
          "name": "name",
          "type": "bytes"
        }
      ],
      "name": "getResolver",
      "outputs": [
        {
          "internalType": "address",
          "name": "",
          "type": "address"
        },
        {
          "internalType": "bool",
          "name": "",
          "type": "bool"
        }
      ],
      "stateMutability": "view",
      "type": "function"
    },
    {
      "inputs": [
        {
          "internalType": "bytes",
          "name": "",
          "type": "bytes"
        }
      ],
      "name": "requiresOffchain",
      "outputs": [
        {
          "internalType": "bool",
          "name": "",
          "type": "bool"
        }
      ],
      "stateMutability": "pure",
      "type": "function"
    },
    {
      "inputs": [
        {
          "internalType": "bytes",
          "name": "name",
          "type": "bytes"
        },
        {
          "internalType": "bytes",
          "name": "data",
          "type": "bytes"
        }
      ],
      "name": "resolve",
      "outputs": [
        {
          "internalType": "bytes",
          "name": "",
          "type": "bytes"
        }
      ],
      "stateMutability": "view",
      "type": "function"
    },
    {
      "inputs": [
        {
          "internalType": "bytes",
          "name": "response",
          "type": "bytes"
        },
        {
          "internalType": "bytes",
          "name": "extraData",
          "type": "bytes"
        }
      ],
      "name": "resolveBatchCallback",
      "outputs": [
        {
          "internalType": "bytes",
          "name": "",
          "type": "bytes"
        }
      ],
      "stateMutability": "pure",
      "type": "function"
    },
    {
      "inputs": [
        {
          "internalType": "bytes",
          "name": "response",
          "type": "bytes"
        },
        {
          "internalType": "bytes",
          "name": "",
          "type": "bytes"
        }
      ],
      "name": "resolveDirectImmediateCallback",
      "outputs": [
        {
          "internalType": "bytes",
          "name": "",
          "type": "bytes"
        }
      ],
      "stateMutability": "pure",
      "type": "function"
    },
    {
      "inputs": [
        {
          "internalType": "bytes4",
          "name": "feature",
          "type": "bytes4"
        }
      ],
      "name": "supportsFeature",
      "outputs": [
        {
          "internalType": "bool",
          "name": "",
          "type": "bool"
        }
      ],
      "stateMutability": "pure",
      "type": "function"
    },
    {
      "inputs": [
        {
          "internalType": "bytes4",
          "name": "interfaceId",
          "type": "bytes4"
        }
      ],
      "name": "supportsInterface",
      "outputs": [
        {
          "internalType": "bool",
          "name": "",
          "type": "bool"
        }
      ],
      "stateMutability": "view",
      "type": "function"
    }
  ],
  "contractName": "ENSV2Resolver",
  "sourceName": "src/resolver/ENSV2Resolver.sol",
  "bytecode": "0x610100604052348015610010575f80fd5b50604051612ace380380612ace83398101604081905261002f91610069565b61c3506080526001600160a01b0391821660a05291811660c0521660e0526100b3565b6001600160a01b0381168114610066575f80fd5b50565b5f805f6060848603121561007b575f80fd5b835161008681610052565b602085015190935061009781610052565b60408501519092506100a881610052565b809150509250925092565b60805160a05160c05160e0516129cc6101025f395f818161023f01528181610e860152610eb801525f81816102180152610df901525f818161016f015261059401525f610f2701526129cc5ff3fe608060405234801561000f575f80fd5b50600436106100e5575f3560e01c80639f28e99d11610088578063d8b55d2711610063578063d8b55d271461023a578063eea330f914610261578063ef46c0b814610293578063f394443a146102a8575f80fd5b80639f28e99d146101e0578063b536af7614610200578063c92cc49a14610213575f80fd5b8063582de3e7116100c3578063582de3e7146101465780636ccb86601461016a5780636d6dd540146101a95780639061b923146101cd575f80fd5b806301ffc9a7146100e957806329476d8a14610111578063491fc4f914610126575b5f80fd5b6100fc6100f7366004611a43565b6102bb565b60405190151581526020015b60405180910390f35b6100fc61011f366004611a9c565b5f92915050565b610139610134366004611adb565b610340565b6040516101089190611b70565b6100fc610154366004611a43565b6001600160e01b0319166312d6c5b760e31b1490565b6101917f000000000000000000000000000000000000000000000000000000000000000081565b6040516001600160a01b039091168152602001610108565b6101bf6101b7366004611adb565b509192909150565b604051610108929190611b82565b6101396101db366004611adb565b6104de565b6101f36101ee366004611dc4565b61060d565b6040516101089190611f84565b6101f361020e366004611adb565b6107ce565b6101917f000000000000000000000000000000000000000000000000000000000000000081565b6101917f000000000000000000000000000000000000000000000000000000000000000081565b61027461026f366004611a9c565b610a1d565b604080516001600160a01b039093168352901515602083015201610108565b6102a66102a136600461204d565b610a36565b005b6101396102b63660046120c5565b610abb565b5f639061b92360e01b6001600160e01b03198316148061030457507fc7e45d73000000000000000000000000000000000000000000000000000000006001600160e01b03198316145b8061031f575063582de3e760e01b6001600160e01b03198316145b8061033a57506301ffc9a760e01b6001600160e01b03198316145b92915050565b60605f61034f85870187611dc4565b5190505f806103608587018761218a565b91509150811561046d575f835167ffffffffffffffff81111561038557610385611bb0565b6040519080825280602002602001820160405280156103b857816020015b60608152602001906001900390816103a35790505b5090505f5b8451811015610441575f8582815181106103d9576103d96121c1565b602002602001015190505f816040015190508480156103fd57506060820151600e16155b1561041957808060200190518101906104169190612229565b90505b8084848151811061042c5761042c6121c1565b602090810291909101015250506001016103bd565b5080604051602001610453919061225b565b6040516020818303038152906040529450505050506104d6565b5f835f81518110610480576104806121c1565b60209081029190910101516040810151606082015191925090600e16156104a957805160208201fd5b82156104c657808060200190518101906104c39190612229565b90505b94506104d69350505050565b5050505b949350505050565b60606106046104ed8686610df2565b86868080601f0160208091040260200160405190810160405280939291908181526020018383808284375f9201919091525050604080516020601f8a0181900481028201810190925288815292508891508790819084018382808284375f9201829052506040805160208101825282815281517f093a86d3000000000000000000000000000000000000000000000000000000008152915192955093506001600160a01b037f000000000000000000000000000000000000000000000000000000000000000016925063093a86d391600480830192879291908290030181865afa1580156105dd573d5f803e3d5ffd5b505050506040513d5f823e601f3d908101601f191682016040526102b6919081019061234b565b50949350505050565b60408051808201909152606080825260208201525f5b8251518110156107c0575f835f01518281518110610643576106436121c1565b6020026020010151905060408160600151165f1461066157506107b8565b60608101516030165f0361070b575f61067c825f0151610ee1565b61068757601061068a565b60205b9050825b85515181101561070857825f01516001600160a01b0316865f015182815181106106ba576106ba6121c1565b60200260200101515f01516001600160a01b0316036107005781865f015182815181106106e9576106e96121c1565b602002602001015160600181815117915081815250505b60010161068e565b50505b5f60208260600151165f1490505f8061072d8315855f01518660200151610f13565b91509150811580156107575750630556f18360e41b61074b8261237d565b6001600160e01b031916145b1561076c5760608401805160011790526107ac565b606084018051604017905282801561078357508051155b61079857816107985760608401805160021790525b80515f036107ac5760608401805160081790525b60409093019290925250505b600101610623565b506107ca82610fa6565b5090565b60408051808201909152606080825260208201525f806107f08688018861242f565b9150915080518251146108165760405163252e18f560e11b815260040160405180910390fd5b61082284860186611dc4565b92505f805b8451518110156109f2575f855f01518281518110610847576108476121c1565b6020026020010151905060408160600151165f036109e95783518310156109dd575f84848151811061087b5761087b6121c1565b60200260200101519050858481518110610897576108976121c1565b6020026020010151156108b45760608201805160441790526109d7565b5f6108c28360400151611191565b90505f815f01516001600160a01b031682606001518484608001516040516024016108ee9291906124e1565b60408051601f198184030181529181526020820180516001600160e01b03166001600160e01b031990941693909317909252905161092c9190612505565b5f60405180830381855afa9150503d805f8114610964576040519150601f19603f3d011682016040523d82523d5f602084013e610969565b606091505b509350905080806109935750630556f18360e41b6109868461237d565b6001600160e01b03191614155b156109d45760608401805160401790528015806109af57508251155b156109c05760608401805160021790525b82515f036109d45760608401805160081790525b50505b60408201525b6109e68361252f565b92505b50600101610827565b5081518114610a145760405163252e18f560e11b815260040160405180910390fd5b6104d284610fa6565b5f80610a298484610df2565b5f915091505b9250929050565b5f81806020019051810190610a4b919061255d565b9050610ab6815f01518260200151858460400151604051602401610a709291906124e1565b60408051601f198184030181529190526020810180516001600160e01b03166001600160e01b0319909316929092179091526060840151608085015160a08601516111d5565b505050565b6060866001600160a01b03163b5f03610b0b57856040517f5fe9a5df000000000000000000000000000000000000000000000000000000008152600401610b029190611b70565b60405180910390fd5b5f7fac9650d800000000000000000000000000000000000000000000000000000000610b368761237d565b6001600160e01b0319161490505f858015610b5d5750610b5d8963477cc53f60e11b611398565b90505f8180610b785750610b788a639061b92360e01b611398565b9050610b8b8a63582de3e760e01b611398565b8015610c0f5750821580610c0f5750808015610c0f575060405163582de3e760e01b81526312d6c5b760e31b60048201526001600160a01b038b169063582de3e790602401602060405180830381865afa158015610beb573d5f803e3d5ffd5b505050506040513d601f19601f82011682018060405250810190610c0f919061262c565b15610c59578015610c3457610c2f8a610c2a848c8c8b61141e565b6114b0565b610c59565b610c598a89636d6dd54060e01b5f60e01b60405180602001604052805f8152506111d5565b60608315610c9357610c79896004808c51610c749190612647565b6114d5565b806020019051810190610c8c919061265a565b9050610cde565b60408051600180825281830190925290816020015b6060815260200190600190039081610ca857905050905088815f81518110610cd257610cd26121c1565b60200260200101819052505b8115610d3b575f5b8151811015610d3957610d14848c848481518110610d0657610d066121c1565b60200260200101518b61141e565b828281518110610d2657610d266121c1565b6020908102919091010152600101610ce6565b505b610de43080639f28e99d610d508f868c611531565b604051602401610d609190611f84565b60408051601f19818403018152918152602080830180516001600160e01b031660e09590951b94909417909352519092507f491fc4f900000000000000000000000000000000000000000000000000000000915f91610dd0918b918a910191151582521515602082015260400190565b6040516020818303038152906040526111d5565b505050509695505050505050565b5f80610e537f000000000000000000000000000000000000000000000000000000000000000085858080601f0160208091040260200160405190810160405280939291908181526020018383808284375f9201829052509250611646915050565b509093509150507f93cdeb708b7545dc668eb9280176169d1c33cfd8ed6f04690a0bcc88a93fc4ae81148015610eb157507f00000000000000000000000000000000000000000000000000000000000000006001600160a01b031615155b15610eda577f000000000000000000000000000000000000000000000000000000000000000091505b5092915050565b5f306001600160a01b03831603610efa57506001919050565b6113885a5f805f808786fa50815a909103109392505050565b5f6060836001600160a01b031685610f4b577f0000000000000000000000000000000000000000000000000000000000000000610f4d565b5a5b84604051610f5b9190612505565b5f604051808303818686fa925050503d805f8114610f94576040519150601f19603f3d011682016040523d82523d5f602084013e610f99565b606091505b5090969095509350505050565b8051515f9067ffffffffffffffff811115610fc357610fc3611bb0565b60405190808252806020026020018201604052801561102057816020015b61100d60405180606001604052805f6001600160a01b0316815260200160608152602001606081525090565b815260200190600190039081610fe15790505b5090505f805b8351518110156110d1575f845f01518281518110611046576110466121c1565b6020026020010151905060408160600151165f036110c8575f61106c8260400151611191565b90506040518060600160405280825f01516001600160a01b031681526020018260200151815260200182604001518152508585806110a99061252f565b9650815181106110bb576110bb6121c1565b6020026020010181905250505b50600101611026565b508015610ab657808252308360200151836040516024016110f29190612704565b60408051601f19818403018152918152602080830180516001600160e01b03167fa780bab60000000000000000000000000000000000000000000000000000000017905290517fb536af76000000000000000000000000000000000000000000000000000000009161116691899101611f84565b60408051601f1981840301815290829052630556f18360e41b8252610b02959493929160040161279e565b6040805160a0810182525f80825260606020830181905292820183905282820152608081019190915261033a6111d0836004808651610c749190612647565b6117cb565b5f806111ea6111e388610ee1565b8888610f13565b91509150811580156112145750630556f18360e41b6112088261237d565b6001600160e01b031916145b156112c2575f61122382611191565b9050876001600160a01b0316815f01516001600160a01b0316036112c057308160200151826040015163ef46c0b860e01b6040518060c001604052808d6001600160a01b0316815260200186606001516001600160e01b0319168152602001866080015181526020018b6001600160e01b03191681526020018a6001600160e01b0319168152602001898152506040516020016111669190612801565b505b5f826112ce57846112d0565b855b90506001600160e01b031981161561138257306001600160a01b03168183866040516024016113009291906124e1565b60408051601f198184030181529181526020820180516001600160e01b03166001600160e01b031990941693909317909252905161133e9190612505565b5f60405180830381855afa9150503d805f8114611376576040519150601f19603f3d011682016040523d82523d5f602084013e61137b565b606091505b5090935091505b821561139057815160208301f35b815160208301fd5b604080516001600160e01b03198316602480830191909152825180830390910181526044909101909152602080820180516001600160e01b03166301ffc9a760e01b17815282515f9392849283928392918391908a617530fa92503d91505f519050828015611408575060208210155b801561141357505f81115b979650505050505050565b6060846114675783836040516024016114389291906124e1565b60408051601f198184030181529190526020810180516001600160e01b0316639061b92360e01b1790526114a7565b83838360405160240161147c9392919061287d565b60408051601f198184030181529190526020810180516001600160e01b031663477cc53f60e11b1790525b95945050505050565b6114d182825f60e01b5f60e01b60405180602001604052805f8152506111d5565b5050565b60608167ffffffffffffffff8111156114f0576114f0611bb0565b6040519080825280601f01601f19166020018201604052801561151a576020820181803683370190505b50905061152a8484835f86611836565b9392505050565b60408051808201909152606080825260208201525f835167ffffffffffffffff81111561156057611560611bb0565b6040519080825280602002602001820160405280156115c357816020015b6115b060405180608001604052805f6001600160a01b0316815260200160608152602001606081526020015f81525090565b81526020019060019003908161157e5790505b5090505f5b8451811015611629575f8282815181106115e4576115e46121c1565b60209081029190910101516001600160a01b03881681528651909150869083908110611612576116126121c1565b6020908102919091018101519101526001016115c8565b506040805180820190915290815260208101929092525092915050565b5f805f805f806116568888611873565b90925090508161167457508794505f93508392508591506117c29050565b61167f898983611646565b929850909650945092506001600160a01b038616156117b3575f6116a389896118a0565b5090505f876001600160a01b031663e4ae7d77836040518263ffffffff1660e01b81526004016116d39190611b70565b602060405180830381865afa1580156116ee573d5f803e3d5ffd5b505050506040513d601f19601f8201168201806040525081019061171291906128bf565b90506001600160a01b0381161561172a578096508894505b6040517f35af62160000000000000000000000000000000000000000000000000000000081526001600160a01b038916906335af62169061176f908590600401611b70565b602060405180830381865afa15801561178a573d5f803e3d5ffd5b505050506040513d601f19601f820116820180604052508101906117ae91906128bf565b975050505b505f9283526020526040909120905b93509350935093565b6040805160a0810182525f8082526060602083018190529282018390528282015260808101919091528180602001905181019061180891906128da565b60808601526001600160e01b0319166060850152604084015260208301526001600160a01b03168152919050565b611849856118448387612983565b61191d565b611857836118448385612983565b61186c82602085010185602088010183611965565b5050505050565b5f805f61188085856119ae565b9250905060ff81161561189857806021858701012092505b509250929050565b60605f806118ae85856119ae565b925090505f60ff821667ffffffffffffffff8111156118cf576118cf611bb0565b6040519080825280601f01601f1916602001820160405280156118f9576020820181803683370190505b5090506119126020820160218888010160ff8516611965565b959194509092505050565b81518111156114d15781516040517f8a3c1cfb000000000000000000000000000000000000000000000000000000008152610b02918391600401918252602082015260400190565b5b601f811115611986578151835260209283019290910190601f1901611966565b8015610ab65790518251600160209390930360031b9290921b5f190180199091169116179052565b5f80835183106119d3578360405163ba4adc2360e01b8152600401610b029190611b70565b8383815181106119e5576119e56121c1565b016020015160f81c91505081810160010181611a05578351811415611a0b565b83518110155b15610a2f578360405163ba4adc2360e01b8152600401610b029190611b70565b6001600160e01b031981168114611a40575f80fd5b50565b5f60208284031215611a53575f80fd5b813561152a81611a2b565b5f8083601f840112611a6e575f80fd5b50813567ffffffffffffffff811115611a85575f80fd5b602083019150836020828501011115610a2f575f80fd5b5f8060208385031215611aad575f80fd5b823567ffffffffffffffff811115611ac3575f80fd5b611acf85828601611a5e565b90969095509350505050565b5f805f8060408587031215611aee575f80fd5b843567ffffffffffffffff80821115611b05575f80fd5b611b1188838901611a5e565b90965094506020870135915080821115611b29575f80fd5b50611b3687828801611a5e565b95989497509550505050565b5f81518084528060208401602086015e5f602082860101526020601f19601f83011685010191505092915050565b602081525f61152a6020830184611b42565b60208152816020820152818360408301375f818301604090810191909152601f909201601f19160101919050565b634e487b7160e01b5f52604160045260245ffd5b6040805190810167ffffffffffffffff81118282101715611be757611be7611bb0565b60405290565b6040516080810167ffffffffffffffff81118282101715611be757611be7611bb0565b60405160c0810167ffffffffffffffff81118282101715611be757611be7611bb0565b604051601f8201601f1916810167ffffffffffffffff81118282101715611c5c57611c5c611bb0565b604052919050565b5f67ffffffffffffffff821115611c7d57611c7d611bb0565b5060051b60200190565b6001600160a01b0381168114611a40575f80fd5b8035611ca681611c87565b919050565b5f67ffffffffffffffff821115611cc457611cc4611bb0565b50601f01601f191660200190565b5f611ce4611cdf84611cab565b611c33565b9050828152838383011115611cf7575f80fd5b828260208301375f602084830101529392505050565b5f82601f830112611d1c575f80fd5b61152a83833560208501611cd2565b5f82601f830112611d3a575f80fd5b81356020611d4a611cdf83611c64565b82815260059290921b84018101918181019086841115611d68575f80fd5b8286015b84811015611db957803567ffffffffffffffff811115611d8a575f80fd5b8701603f81018913611d9a575f80fd5b611dab898683013560408401611cd2565b845250918301918301611d6c565b509695505050505050565b5f6020808385031215611dd5575f80fd5b823567ffffffffffffffff80821115611dec575f80fd5b9084019060408287031215611dff575f80fd5b611e07611bc4565b823582811115611e15575f80fd5b8301601f81018813611e25575f80fd5b8035611e33611cdf82611c64565b81815260059190911b8201860190868101908a831115611e51575f80fd5b8784015b83811015611ef957803587811115611e6b575f80fd5b85016080818e03601f19011215611e80575f80fd5b611e88611bed565b8a820135611e9581611c87565b8152604082013589811115611ea8575f80fd5b611eb68f8d83860101611d0d565b8c83015250606082013589811115611ecc575f80fd5b611eda8f8d83860101611d0d565b6040830152506080919091013560608201528352918801918801611e55565b5084525050508284013582811115611f0f575f80fd5b611f1b88828601611d2b565b948201949094529695505050505050565b5f8282518085526020808601955060208260051b840101602086015f5b84811015611f7757601f19868403018952611f65838351611b42565b98840198925090830190600101611f49565b5090979650505050505050565b5f602080835260608084018551604080858801528282518085526080945060808901915060808160051b8a010187850194505f5b8281101561202257607f198b830301845285516001600160a01b03815116835289810151888b850152611fed89850182611b42565b905086820151848203888601526120048282611b42565b928b0151948b01949094525095890195938901939150600101611fb8565b50968a0151898803601f190160408b01529661203e8189611f2c565b9b9a5050505050505050505050565b5f806040838503121561205e575f80fd5b823567ffffffffffffffff80821115612075575f80fd5b61208186838701611d0d565b93506020850135915080821115612096575f80fd5b506120a385828601611d0d565b9150509250929050565b8015158114611a40575f80fd5b8035611ca6816120ad565b5f805f805f8060c087890312156120da575f80fd5b6120e387611c9b565b9550602087013567ffffffffffffffff808211156120ff575f80fd5b61210b8a838b01611d0d565b96506040890135915080821115612120575f80fd5b61212c8a838b01611d0d565b955061213a60608a016120ba565b9450608089013591508082111561214f575f80fd5b61215b8a838b01611d0d565b935060a0890135915080821115612170575f80fd5b5061217d89828a01611d2b565b9150509295509295509295565b5f806040838503121561219b575f80fd5b82356121a6816120ad565b915060208301356121b6816120ad565b809150509250929050565b634e487b7160e01b5f52603260045260245ffd5b5f6121e2611cdf84611cab565b90508281528383830111156121f5575f80fd5b8282602083015e5f602084830101529392505050565b5f82601f83011261221a575f80fd5b61152a838351602085016121d5565b5f60208284031215612239575f80fd5b815167ffffffffffffffff81111561224f575f80fd5b6104d68482850161220b565b5f60208083016020845280855180835260408601915060408160051b8701019250602087015f5b828110156122b057603f1988860301845261229e858351611b42565b94509285019290850190600101612282565b5092979650505050505050565b5f82601f8301126122cc575f80fd5b815160206122dc611cdf83611c64565b82815260059290921b840181019181810190868411156122fa575f80fd5b8286015b84811015611db957805167ffffffffffffffff81111561231c575f80fd5b8701603f8101891361232c575f80fd5b61233d8986830151604084016121d5565b8452509183019183016122fe565b5f6020828403121561235b575f80fd5b815167ffffffffffffffff811115612371575f80fd5b6104d6848285016122bd565b5f815160208301516001600160e01b0319808216935060048310156123ac5780818460040360031b1b83161693505b505050919050565b5f82601f8301126123c3575f80fd5b813560206123d3611cdf83611c64565b82815260059290921b840181019181810190868411156123f1575f80fd5b8286015b84811015611db957803567ffffffffffffffff811115612413575f80fd5b6124218986838b0101611d0d565b8452509183019183016123f5565b5f8060408385031215612440575f80fd5b823567ffffffffffffffff80821115612457575f80fd5b818501915085601f83011261246a575f80fd5b8135602061247a611cdf83611c64565b82815260059290921b84018101918181019089841115612498575f80fd5b948201945b838610156124bf5785356124b0816120ad565b8252948201949082019061249d565b965050860135925050808211156124d4575f80fd5b506120a3858286016123b4565b604081525f6124f36040830185611b42565b82810360208401526114a78185611b42565b5f82518060208501845e5f920191825250919050565b634e487b7160e01b5f52601160045260245ffd5b5f600182016125405761254061251b565b5060010190565b8051611ca681611c87565b8051611ca681611a2b565b5f6020828403121561256d575f80fd5b815167ffffffffffffffff80821115612584575f80fd5b9083019060c08286031215612597575f80fd5b61259f611c10565b6125a883612547565b81526125b660208401612552565b60208201526040830151828111156125cc575f80fd5b6125d88782860161220b565b6040830152506125ea60608401612552565b60608201526125fb60808401612552565b608082015260a083015182811115612611575f80fd5b61261d8782860161220b565b60a08301525095945050505050565b5f6020828403121561263c575f80fd5b815161152a816120ad565b8181038181111561033a5761033a61251b565b5f602080838503121561266b575f80fd5b825167ffffffffffffffff80821115612682575f80fd5b818501915085601f830112612695575f80fd5b81516126a3611cdf82611c64565b81815260059190911b830184019084810190888311156126c1575f80fd5b8585015b838110156126f7578051858111156126db575f80fd5b6126e98b89838a010161220b565b8452509186019186016126c5565b5098975050505050505050565b5f60208083018184528085518083526040925060408601915060408160051b8701018488015f5b8381101561279057603f19898403018552815160606001600160a01b03825116855288820151818a87015261276282870182611f2c565b9150508782015191508481038886015261277c8183611b42565b96890196945050509086019060010161272b565b509098975050505050505050565b6001600160a01b038616815260a060208201525f6127bf60a0830187611f2c565b82810360408401526127d18187611b42565b90506001600160e01b03198516606084015282810360808401526127f58185611b42565b98975050505050505050565b602081526001600160a01b0382511660208201525f60208301516001600160e01b031980821660408501526040850151915060c0606085015261284760e0850183611b42565b91508060608601511660808501528060808601511660a08501525060a0840151601f198483030160c08501526114a78282611b42565b606081525f61288f6060830186611b42565b82810360208401526128a18186611b42565b905082810360408401526128b58185611b42565b9695505050505050565b5f602082840312156128cf575f80fd5b815161152a81611c87565b5f805f805f60a086880312156128ee575f80fd5b85516128f981611c87565b602087015190955067ffffffffffffffff80821115612916575f80fd5b61292289838a016122bd565b95506040880151915080821115612937575f80fd5b61294389838a0161220b565b94506060880151915061295582611a2b565b608088015191935080821115612969575f80fd5b506129768882890161220b565b9150509295509295909350565b8082018082111561033a5761033a61251b56fea26469706673582212203345acdadafee02bbeef426d06a69dfd84d2b376605bbbf4f684be1dc0c0b39a64736f6c63430008190033",
  "linkReferences": {},
  "deployedLinkReferences": {},
  "immutableReferences": {
    "1090": [
      {
        "length": 32,
        "start": 3879
      }
    ],
    "75992": [
      {
        "length": 32,
        "start": 367
      },
      {
        "length": 32,
        "start": 1428
      }
    ],
    "76193": [
      {
        "length": 32,
        "start": 536
      },
      {
        "length": 32,
        "start": 3577
      }
    ],
    "76196": [
      {
        "length": 32,
        "start": 575
      },
      {
        "length": 32,
        "start": 3718
      },
      {
        "length": 32,
        "start": 3768
      }
    ]
  },
  "inputSourceName": "project/src/resolver/ENSV2Resolver.sol",
  "devdoc": {
    "errors": {
      "DNSDecodingFailed(bytes)": [
        {
          "details": "The DNS-encoded name is malformed.      Error selector: `0xba4adc23`"
        }
      ],
      "InvalidBatchGatewayResponse()": [
        {
          "details": "Error selector: `0x4a5c31ea`"
        }
      ],
      "OffchainLookup(address,string[],bytes,bytes4,bytes)": [
        {
          "details": "https://eips.ethereum.org/EIPS/eip-3668 Error selector: `0x556f1830`"
        }
      ],
      "OffsetOutOfBoundsError(uint256,uint256)": [
        {
          "details": "`offset` was beyond `length`.       Error selector: `0x8a3c1cfb`"
        }
      ],
      "UnreachableName(bytes)": [
        {
          "details": "`name` cannot be resolved.      Error selector: `0x5fe9a5df`",
          "params": {
            "name": "The DNS-encoded ENS name."
          }
        }
      ]
    },
    "kind": "dev",
    "methods": {
      "callResolver(address,bytes,bytes,bool,bytes,string[])": {
        "details": "Reverts `UnreachableName` if resolver is not a contract.      This function never returns normally.      The return type is necessary to define the result of the callback.      Call this function externally or with `ccipRead()` to intercept the response.",
        "params": {
          "batchGateways": "The batch gateway URLs.",
          "context": "The context for `IExtendedDNSResolver`.",
          "data": "The calldata for the resolution.",
          "hasContext": "True if `IExtendedDNSResolver` should be considered.",
          "name": "The DNS-encoded ENS name.",
          "resolver": "The resolver to call."
        }
      },
      "ccipBatch(((address,bytes,bytes,uint256)[],string[]))": {
        "details": "Use `ccipRead()` to call this function with a batch.      The callback response will be `abi.encode(batch)`."
      },
      "ccipBatchCallback(bytes,bytes)": {
        "details": "CCIP-Read callback for `ccipBatch()`.      Updates `batch` using the batch gateway response. Reverts again if not \"done\".",
        "params": {
          "extraData": "The contextual data passed from `ccipBatch()`.",
          "response": "The response from the batch gateway."
        },
        "returns": {
          "batch": "The batch where every lookup is \"done\"."
        }
      },
      "ccipReadCallback(bytes,bytes)": {
        "details": "CCIP-Read callback for `ccipRead()`.The return type of this function is polymorphic depending on the caller.",
        "params": {
          "extraData": "The contextual data passed from `ccipRead()`.",
          "response": "The response from offchain."
        }
      },
      "constructor": {
        "params": {
          "batchGatewayProvider": "The batch gateway provider.",
          "ethResolver": "The override resolver for \"eth\" or null to use ENSv2.",
          "rootRegistry": "The root registry."
        }
      },
      "getResolver(bytes)": {
        "params": {
          "name": "The DNS-encoded name."
        },
        "returns": {
          "_0": "The underlying resolver address.",
          "_1": "`true` if `resolver` is offchain."
        }
      },
      "requiresOffchain(bytes)": {
        "params": {
          "name": "The DNS-encoded name."
        },
        "returns": {
          "_0": "`true` if requires offchain data."
        }
      },
      "resolveBatchCallback(bytes,bytes)": {
        "details": "CCIP-Read callback for `callResolver()` from batch calling a resolver.",
        "params": {
          "extraData": "The abi-encoded properties of the call.",
          "response": "The response data from the batch gateway."
        },
        "returns": {
          "_0": "result The response from the resolver."
        }
      },
      "resolveDirectImmediateCallback(bytes,bytes)": {
        "details": "CCIP-Read callback for `callResolver()` from direct calling an immediate resolver."
      },
      "supportsFeature(bytes4)": {
        "params": {
          "featureId": "The feature identifier."
        },
        "returns": {
          "_0": "`true` if the feature is supported by the contract."
        }
      },
      "supportsInterface(bytes4)": {
        "details": "See {IERC165-supportsInterface}."
      }
    },
    "version": 1
  },
  "evm": {
    "gasEstimates": {
      "creation": {
        "codeDepositCost": "2140000",
        "executionCost": "infinite",
        "totalCost": "infinite"
      },
      "external": {
        "BATCH_GATEWAY_PROVIDER()": "infinite",
        "ETH_RESOLVER()": "infinite",
        "ROOT_REGISTRY()": "infinite",
        "callResolver(address,bytes,bytes,bool,bytes,string[])": "infinite",
        "ccipBatch(((address,bytes,bytes,uint256)[],string[]))": "infinite",
        "ccipBatchCallback(bytes,bytes)": "infinite",
        "ccipReadCallback(bytes,bytes)": "infinite",
        "getResolver(bytes)": "infinite",
        "requiresOffchain(bytes)": "533",
        "resolve(bytes,bytes)": "infinite",
        "resolveBatchCallback(bytes,bytes)": "infinite",
        "resolveDirectImmediateCallback(bytes,bytes)": "infinite",
        "supportsFeature(bytes4)": "396",
        "supportsInterface(bytes4)": "580"
      },
      "internal": {
        "_findResolver(bytes calldata)": "infinite"
      }
    }
  },
  "storageLayout": {
    "storage": [],
    "types": null
  },
  "userdoc": {
    "errors": {
      "InvalidBatchGatewayResponse()": [
        {
          "notice": "The batch gateway supplied an incorrect number of responses."
        }
      ]
    },
    "kind": "user",
    "methods": {
      "BATCH_GATEWAY_PROVIDER()": {
        "notice": "Shared batch gateway provider."
      },
      "ETH_RESOLVER()": {
        "notice": "The ENSv1 resolver for \"eth\"."
      },
      "ROOT_REGISTRY()": {
        "notice": "The ENSv2 root registry used to traverse the registry hierarchy and locate resolvers."
      },
      "callResolver(address,bytes,bytes,bool,bytes,string[])": {
        "notice": "Perform forward resolution. Call this function with `ccipRead()` to intercept the response. Supports extended (`IExtendedDNSResolver` and `IExtendedResolver`) and immediate resolvers. - If extended, the calldata is not `multicall()`, and the resolver supports ENSIP-22 features,   the call is performed directly without the batch gateway. - If extended, the calldata is `multicall()`, and the resolver supports `eth.ens.resolver.extended.multicall` feature,   the call is performed directly without the batch gateway. - Otherwise, the call is performed with the batch gateway.   The batch gateway is only invoked if any call reverts `OffchainLookup`.   If the calldata is `multicall()` it is disassembled, called separately, and reassembled."
      },
      "constructor": {
        "notice": "Initializes the ENSV2Resolver with the root registry and batch gateway provider."
      },
      "getResolver(bytes)": {
        "notice": "Fetch the underlying resolver for `name`.         Callers should enable EIP-3668. * If `offchain`, additional information is necessary to locate `resolver`. * If `resolver` is null, `offchain` is irrelevant."
      },
      "requiresOffchain(bytes)": {
        "notice": "Determine if resolving `name` requires offchain data."
      },
      "supportsFeature(bytes4)": {
        "notice": "Check if a feature is supported."
      }
    },
    "notice": "Resolver that performs resolutions using ENSv2 with override for ENSv1 \"eth\" resolver.",
    "version": 1
  },
  "argsData": "0x0000000000000000000000003a3e15a5d27ff6f05c844313312f2e72096d3ed3000000000000000000000000dd618e84bfdbe3f8c4bf70ad000493977d824ab900000000000000000000000003b5905d7afcace7e2152f58af08841cc44e833c",
  "transaction": {
    "hash": "0x8320082ce0b4d828bec18f173ab2243985898686c6a788bc86e816b11ed66f8e",
    "nonce": "0x1d2f",
    "origin": "0xffffffffff52d316b7bd028358089bc8066b8f80"
  }
}