{
  "address": "0x796fff2e907449be8d5921bcc215b1b76d89d080",
  "abi": [
    {
      "inputs": [
        {
          "internalType": "contract IHCAFactoryBasic",
          "name": "hcaFactory",
          "type": "address"
        },
        {
          "internalType": "contract IRegistryMetadata",
          "name": "metadata",
          "type": "address"
        },
        {
          "internalType": "address",
          "name": "ownerAddress",
          "type": "address"
        },
        {
          "internalType": "uint256",
          "name": "ownerRoles",
          "type": "uint256"
        }
      ],
      "stateMutability": "nonpayable",
      "type": "constructor"
    },
    {
      "inputs": [
        {
          "internalType": "uint64",
          "name": "oldExpiry",
          "type": "uint64"
        },
        {
          "internalType": "uint64",
          "name": "newExpiry",
          "type": "uint64"
        }
      ],
      "name": "CannotReduceExpiry",
      "type": "error"
    },
    {
      "inputs": [
        {
          "internalType": "uint64",
          "name": "expiry",
          "type": "uint64"
        }
      ],
      "name": "CannotSetPastExpiry",
      "type": "error"
    },
    {
      "inputs": [
        {
          "internalType": "uint256",
          "name": "resource",
          "type": "uint256"
        },
        {
          "internalType": "uint256",
          "name": "roleBitmap",
          "type": "uint256"
        },
        {
          "internalType": "address",
          "name": "account",
          "type": "address"
        }
      ],
      "name": "EACCannotGrantRoles",
      "type": "error"
    },
    {
      "inputs": [
        {
          "internalType": "uint256",
          "name": "resource",
          "type": "uint256"
        },
        {
          "internalType": "uint256",
          "name": "roleBitmap",
          "type": "uint256"
        },
        {
          "internalType": "address",
          "name": "account",
          "type": "address"
        }
      ],
      "name": "EACCannotRevokeRoles",
      "type": "error"
    },
    {
      "inputs": [],
      "name": "EACInvalidAccount",
      "type": "error"
    },
    {
      "inputs": [
        {
          "internalType": "uint256",
          "name": "roleBitmap",
          "type": "uint256"
        }
      ],
      "name": "EACInvalidRoleBitmap",
      "type": "error"
    },
    {
      "inputs": [
        {
          "internalType": "uint256",
          "name": "resource",
          "type": "uint256"
        },
        {
          "internalType": "uint256",
          "name": "role",
          "type": "uint256"
        }
      ],
      "name": "EACMaxAssignees",
      "type": "error"
    },
    {
      "inputs": [
        {
          "internalType": "uint256",
          "name": "resource",
          "type": "uint256"
        },
        {
          "internalType": "uint256",
          "name": "role",
          "type": "uint256"
        }
      ],
      "name": "EACMinAssignees",
      "type": "error"
    },
    {
      "inputs": [],
      "name": "EACRootResourceNotAllowed",
      "type": "error"
    },
    {
      "inputs": [
        {
          "internalType": "uint256",
          "name": "resource",
          "type": "uint256"
        },
        {
          "internalType": "uint256",
          "name": "roleBitmap",
          "type": "uint256"
        },
        {
          "internalType": "address",
          "name": "account",
          "type": "address"
        }
      ],
      "name": "EACUnauthorizedAccountRoles",
      "type": "error"
    },
    {
      "inputs": [
        {
          "internalType": "address",
          "name": "sender",
          "type": "address"
        },
        {
          "internalType": "uint256",
          "name": "balance",
          "type": "uint256"
        },
        {
          "internalType": "uint256",
          "name": "needed",
          "type": "uint256"
        },
        {
          "internalType": "uint256",
          "name": "tokenId",
          "type": "uint256"
        }
      ],
      "name": "ERC1155InsufficientBalance",
      "type": "error"
    },
    {
      "inputs": [
        {
          "internalType": "address",
          "name": "approver",
          "type": "address"
        }
      ],
      "name": "ERC1155InvalidApprover",
      "type": "error"
    },
    {
      "inputs": [
        {
          "internalType": "uint256",
          "name": "idsLength",
          "type": "uint256"
        },
        {
          "internalType": "uint256",
          "name": "valuesLength",
          "type": "uint256"
        }
      ],
      "name": "ERC1155InvalidArrayLength",
      "type": "error"
    },
    {
      "inputs": [
        {
          "internalType": "address",
          "name": "operator",
          "type": "address"
        }
      ],
      "name": "ERC1155InvalidOperator",
      "type": "error"
    },
    {
      "inputs": [
        {
          "internalType": "address",
          "name": "receiver",
          "type": "address"
        }
      ],
      "name": "ERC1155InvalidReceiver",
      "type": "error"
    },
    {
      "inputs": [
        {
          "internalType": "address",
          "name": "sender",
          "type": "address"
        }
      ],
      "name": "ERC1155InvalidSender",
      "type": "error"
    },
    {
      "inputs": [
        {
          "internalType": "address",
          "name": "operator",
          "type": "address"
        },
        {
          "internalType": "address",
          "name": "owner",
          "type": "address"
        }
      ],
      "name": "ERC1155MissingApprovalForAll",
      "type": "error"
    },
    {
      "inputs": [
        {
          "internalType": "string",
          "name": "label",
          "type": "string"
        }
      ],
      "name": "LabelAlreadyRegistered",
      "type": "error"
    },
    {
      "inputs": [
        {
          "internalType": "string",
          "name": "label",
          "type": "string"
        }
      ],
      "name": "LabelAlreadyReserved",
      "type": "error"
    },
    {
      "inputs": [
        {
          "internalType": "uint256",
          "name": "tokenId",
          "type": "uint256"
        }
      ],
      "name": "LabelExpired",
      "type": "error"
    },
    {
      "inputs": [],
      "name": "LabelIsEmpty",
      "type": "error"
    },
    {
      "inputs": [
        {
          "internalType": "string",
          "name": "label",
          "type": "string"
        }
      ],
      "name": "LabelIsTooLong",
      "type": "error"
    },
    {
      "inputs": [
        {
          "internalType": "uint256",
          "name": "tokenId",
          "type": "uint256"
        },
        {
          "internalType": "address",
          "name": "from",
          "type": "address"
        }
      ],
      "name": "TransferDisallowed",
      "type": "error"
    },
    {
      "anonymous": false,
      "inputs": [
        {
          "indexed": true,
          "internalType": "address",
          "name": "owner",
          "type": "address"
        },
        {
          "indexed": true,
          "internalType": "address",
          "name": "approved",
          "type": "address"
        },
        {
          "indexed": true,
          "internalType": "uint256",
          "name": "tokenId",
          "type": "uint256"
        }
      ],
      "name": "Approval",
      "type": "event"
    },
    {
      "anonymous": false,
      "inputs": [
        {
          "indexed": true,
          "internalType": "address",
          "name": "account",
          "type": "address"
        },
        {
          "indexed": true,
          "internalType": "address",
          "name": "operator",
          "type": "address"
        },
        {
          "indexed": false,
          "internalType": "bool",
          "name": "approved",
          "type": "bool"
        }
      ],
      "name": "ApprovalForAll",
      "type": "event"
    },
    {
      "anonymous": false,
      "inputs": [
        {
          "indexed": true,
          "internalType": "uint256",
          "name": "resource",
          "type": "uint256"
        },
        {
          "indexed": true,
          "internalType": "address",
          "name": "account",
          "type": "address"
        },
        {
          "indexed": false,
          "internalType": "uint256",
          "name": "oldRoleBitmap",
          "type": "uint256"
        },
        {
          "indexed": false,
          "internalType": "uint256",
          "name": "newRoleBitmap",
          "type": "uint256"
        }
      ],
      "name": "EACRolesChanged",
      "type": "event"
    },
    {
      "anonymous": false,
      "inputs": [
        {
          "indexed": true,
          "internalType": "uint256",
          "name": "tokenId",
          "type": "uint256"
        },
        {
          "indexed": true,
          "internalType": "uint64",
          "name": "newExpiry",
          "type": "uint64"
        },
        {
          "indexed": true,
          "internalType": "address",
          "name": "sender",
          "type": "address"
        }
      ],
      "name": "ExpiryUpdated",
      "type": "event"
    },
    {
      "anonymous": false,
      "inputs": [
        {
          "indexed": true,
          "internalType": "uint256",
          "name": "tokenId",
          "type": "uint256"
        },
        {
          "indexed": true,
          "internalType": "bytes32",
          "name": "labelHash",
          "type": "bytes32"
        },
        {
          "indexed": false,
          "internalType": "string",
          "name": "label",
          "type": "string"
        },
        {
          "indexed": false,
          "internalType": "address",
          "name": "owner",
          "type": "address"
        },
        {
          "indexed": false,
          "internalType": "uint64",
          "name": "expiry",
          "type": "uint64"
        },
        {
          "indexed": true,
          "internalType": "address",
          "name": "sender",
          "type": "address"
        }
      ],
      "name": "LabelRegistered",
      "type": "event"
    },
    {
      "anonymous": false,
      "inputs": [
        {
          "indexed": true,
          "internalType": "uint256",
          "name": "tokenId",
          "type": "uint256"
        },
        {
          "indexed": true,
          "internalType": "bytes32",
          "name": "labelHash",
          "type": "bytes32"
        },
        {
          "indexed": false,
          "internalType": "string",
          "name": "label",
          "type": "string"
        },
        {
          "indexed": false,
          "internalType": "uint64",
          "name": "expiry",
          "type": "uint64"
        },
        {
          "indexed": true,
          "internalType": "address",
          "name": "sender",
          "type": "address"
        }
      ],
      "name": "LabelReserved",
      "type": "event"
    },
    {
      "anonymous": false,
      "inputs": [
        {
          "indexed": true,
          "internalType": "uint256",
          "name": "tokenId",
          "type": "uint256"
        },
        {
          "indexed": true,
          "internalType": "address",
          "name": "sender",
          "type": "address"
        }
      ],
      "name": "LabelUnregistered",
      "type": "event"
    },
    {
      "anonymous": false,
      "inputs": [
        {
          "indexed": true,
          "internalType": "contract IRegistry",
          "name": "parent",
          "type": "address"
        },
        {
          "indexed": false,
          "internalType": "string",
          "name": "label",
          "type": "string"
        },
        {
          "indexed": true,
          "internalType": "address",
          "name": "sender",
          "type": "address"
        }
      ],
      "name": "ParentUpdated",
      "type": "event"
    },
    {
      "anonymous": false,
      "inputs": [
        {
          "indexed": true,
          "internalType": "uint256",
          "name": "tokenId",
          "type": "uint256"
        },
        {
          "indexed": true,
          "internalType": "address",
          "name": "resolver",
          "type": "address"
        },
        {
          "indexed": true,
          "internalType": "address",
          "name": "sender",
          "type": "address"
        }
      ],
      "name": "ResolverUpdated",
      "type": "event"
    },
    {
      "anonymous": false,
      "inputs": [
        {
          "indexed": true,
          "internalType": "uint256",
          "name": "tokenId",
          "type": "uint256"
        },
        {
          "indexed": true,
          "internalType": "contract IRegistry",
          "name": "subregistry",
          "type": "address"
        },
        {
          "indexed": true,
          "internalType": "address",
          "name": "sender",
          "type": "address"
        }
      ],
      "name": "SubregistryUpdated",
      "type": "event"
    },
    {
      "anonymous": false,
      "inputs": [
        {
          "indexed": true,
          "internalType": "uint256",
          "name": "oldTokenId",
          "type": "uint256"
        },
        {
          "indexed": true,
          "internalType": "uint256",
          "name": "newTokenId",
          "type": "uint256"
        }
      ],
      "name": "TokenRegenerated",
      "type": "event"
    },
    {
      "anonymous": false,
      "inputs": [
        {
          "indexed": true,
          "internalType": "uint256",
          "name": "tokenId",
          "type": "uint256"
        },
        {
          "indexed": true,
          "internalType": "uint256",
          "name": "resource",
          "type": "uint256"
        }
      ],
      "name": "TokenResource",
      "type": "event"
    },
    {
      "anonymous": false,
      "inputs": [
        {
          "indexed": true,
          "internalType": "address",
          "name": "operator",
          "type": "address"
        },
        {
          "indexed": true,
          "internalType": "address",
          "name": "from",
          "type": "address"
        },
        {
          "indexed": true,
          "internalType": "address",
          "name": "to",
          "type": "address"
        },
        {
          "indexed": false,
          "internalType": "uint256[]",
          "name": "ids",
          "type": "uint256[]"
        },
        {
          "indexed": false,
          "internalType": "uint256[]",
          "name": "values",
          "type": "uint256[]"
        }
      ],
      "name": "TransferBatch",
      "type": "event"
    },
    {
      "anonymous": false,
      "inputs": [
        {
          "indexed": true,
          "internalType": "address",
          "name": "operator",
          "type": "address"
        },
        {
          "indexed": true,
          "internalType": "address",
          "name": "from",
          "type": "address"
        },
        {
          "indexed": true,
          "internalType": "address",
          "name": "to",
          "type": "address"
        },
        {
          "indexed": false,
          "internalType": "uint256",
          "name": "id",
          "type": "uint256"
        },
        {
          "indexed": false,
          "internalType": "uint256",
          "name": "value",
          "type": "uint256"
        }
      ],
      "name": "TransferSingle",
      "type": "event"
    },
    {
      "anonymous": false,
      "inputs": [
        {
          "indexed": false,
          "internalType": "string",
          "name": "value",
          "type": "string"
        },
        {
          "indexed": true,
          "internalType": "uint256",
          "name": "id",
          "type": "uint256"
        }
      ],
      "name": "URI",
      "type": "event"
    },
    {
      "inputs": [],
      "name": "HCA_FACTORY",
      "outputs": [
        {
          "internalType": "contract IHCAFactoryBasic",
          "name": "",
          "type": "address"
        }
      ],
      "stateMutability": "view",
      "type": "function"
    },
    {
      "inputs": [],
      "name": "METADATA_PROVIDER",
      "outputs": [
        {
          "internalType": "contract IRegistryMetadata",
          "name": "",
          "type": "address"
        }
      ],
      "stateMutability": "view",
      "type": "function"
    },
    {
      "inputs": [],
      "name": "ROOT_RESOURCE",
      "outputs": [
        {
          "internalType": "uint256",
          "name": "",
          "type": "uint256"
        }
      ],
      "stateMutability": "view",
      "type": "function"
    },
    {
      "inputs": [
        {
          "internalType": "address",
          "name": "account",
          "type": "address"
        },
        {
          "internalType": "uint256",
          "name": "id",
          "type": "uint256"
        }
      ],
      "name": "balanceOf",
      "outputs": [
        {
          "internalType": "uint256",
          "name": "",
          "type": "uint256"
        }
      ],
      "stateMutability": "view",
      "type": "function"
    },
    {
      "inputs": [
        {
          "internalType": "address[]",
          "name": "accounts",
          "type": "address[]"
        },
        {
          "internalType": "uint256[]",
          "name": "ids",
          "type": "uint256[]"
        }
      ],
      "name": "balanceOfBatch",
      "outputs": [
        {
          "internalType": "uint256[]",
          "name": "",
          "type": "uint256[]"
        }
      ],
      "stateMutability": "view",
      "type": "function"
    },
    {
      "inputs": [
        {
          "internalType": "uint256",
          "name": "anyId",
          "type": "uint256"
        },
        {
          "internalType": "uint256",
          "name": "roleBitmap",
          "type": "uint256"
        }
      ],
      "name": "getAssigneeCount",
      "outputs": [
        {
          "internalType": "uint256",
          "name": "counts",
          "type": "uint256"
        },
        {
          "internalType": "uint256",
          "name": "mask",
          "type": "uint256"
        }
      ],
      "stateMutability": "view",
      "type": "function"
    },
    {
      "inputs": [
        {
          "internalType": "uint256",
          "name": "anyId",
          "type": "uint256"
        }
      ],
      "name": "getExpiry",
      "outputs": [
        {
          "internalType": "uint64",
          "name": "",
          "type": "uint64"
        }
      ],
      "stateMutability": "view",
      "type": "function"
    },
    {
      "inputs": [],
      "name": "getParent",
      "outputs": [
        {
          "internalType": "contract IRegistry",
          "name": "parent",
          "type": "address"
        },
        {
          "internalType": "string",
          "name": "label",
          "type": "string"
        }
      ],
      "stateMutability": "view",
      "type": "function"
    },
    {
      "inputs": [
        {
          "internalType": "string",
          "name": "label",
          "type": "string"
        }
      ],
      "name": "getResolver",
      "outputs": [
        {
          "internalType": "address",
          "name": "",
          "type": "address"
        }
      ],
      "stateMutability": "view",
      "type": "function"
    },
    {
      "inputs": [
        {
          "internalType": "uint256",
          "name": "anyId",
          "type": "uint256"
        }
      ],
      "name": "getResource",
      "outputs": [
        {
          "internalType": "uint256",
          "name": "",
          "type": "uint256"
        }
      ],
      "stateMutability": "view",
      "type": "function"
    },
    {
      "inputs": [
        {
          "internalType": "uint256",
          "name": "anyId",
          "type": "uint256"
        }
      ],
      "name": "getState",
      "outputs": [
        {
          "components": [
            {
              "internalType": "enum IPermissionedRegistry.Status",
              "name": "status",
              "type": "uint8"
            },
            {
              "internalType": "uint64",
              "name": "expiry",
              "type": "uint64"
            },
            {
              "internalType": "address",
              "name": "latestOwner",
              "type": "address"
            },
            {
              "internalType": "uint256",
              "name": "tokenId",
              "type": "uint256"
            },
            {
              "internalType": "uint256",
              "name": "resource",
              "type": "uint256"
            }
          ],
          "internalType": "struct IPermissionedRegistry.State",
          "name": "state",
          "type": "tuple"
        }
      ],
      "stateMutability": "view",
      "type": "function"
    },
    {
      "inputs": [
        {
          "internalType": "uint256",
          "name": "anyId",
          "type": "uint256"
        }
      ],
      "name": "getStatus",
      "outputs": [
        {
          "internalType": "enum IPermissionedRegistry.Status",
          "name": "",
          "type": "uint8"
        }
      ],
      "stateMutability": "view",
      "type": "function"
    },
    {
      "inputs": [
        {
          "internalType": "string",
          "name": "label",
          "type": "string"
        }
      ],
      "name": "getSubregistry",
      "outputs": [
        {
          "internalType": "contract IRegistry",
          "name": "",
          "type": "address"
        }
      ],
      "stateMutability": "view",
      "type": "function"
    },
    {
      "inputs": [
        {
          "internalType": "uint256",
          "name": "anyId",
          "type": "uint256"
        }
      ],
      "name": "getTokenId",
      "outputs": [
        {
          "internalType": "uint256",
          "name": "",
          "type": "uint256"
        }
      ],
      "stateMutability": "view",
      "type": "function"
    },
    {
      "inputs": [
        {
          "internalType": "uint256",
          "name": "anyId",
          "type": "uint256"
        },
        {
          "internalType": "uint256",
          "name": "roleBitmap",
          "type": "uint256"
        },
        {
          "internalType": "address",
          "name": "account",
          "type": "address"
        }
      ],
      "name": "grantRoles",
      "outputs": [
        {
          "internalType": "bool",
          "name": "",
          "type": "bool"
        }
      ],
      "stateMutability": "nonpayable",
      "type": "function"
    },
    {
      "inputs": [
        {
          "internalType": "uint256",
          "name": "roleBitmap",
          "type": "uint256"
        },
        {
          "internalType": "address",
          "name": "account",
          "type": "address"
        }
      ],
      "name": "grantRootRoles",
      "outputs": [
        {
          "internalType": "bool",
          "name": "",
          "type": "bool"
        }
      ],
      "stateMutability": "nonpayable",
      "type": "function"
    },
    {
      "inputs": [
        {
          "internalType": "uint256",
          "name": "anyId",
          "type": "uint256"
        },
        {
          "internalType": "uint256",
          "name": "roleBitmap",
          "type": "uint256"
        }
      ],
      "name": "hasAssignees",
      "outputs": [
        {
          "internalType": "bool",
          "name": "",
          "type": "bool"
        }
      ],
      "stateMutability": "view",
      "type": "function"
    },
    {
      "inputs": [
        {
          "internalType": "uint256",
          "name": "anyId",
          "type": "uint256"
        },
        {
          "internalType": "uint256",
          "name": "roleBitmap",
          "type": "uint256"
        },
        {
          "internalType": "address",
          "name": "account",
          "type": "address"
        }
      ],
      "name": "hasRoles",
      "outputs": [
        {
          "internalType": "bool",
          "name": "",
          "type": "bool"
        }
      ],
      "stateMutability": "view",
      "type": "function"
    },
    {
      "inputs": [
        {
          "internalType": "uint256",
          "name": "roleBitmap",
          "type": "uint256"
        },
        {
          "internalType": "address",
          "name": "account",
          "type": "address"
        }
      ],
      "name": "hasRootRoles",
      "outputs": [
        {
          "internalType": "bool",
          "name": "",
          "type": "bool"
        }
      ],
      "stateMutability": "view",
      "type": "function"
    },
    {
      "inputs": [
        {
          "internalType": "address",
          "name": "account",
          "type": "address"
        },
        {
          "internalType": "address",
          "name": "operator",
          "type": "address"
        }
      ],
      "name": "isApprovedForAll",
      "outputs": [
        {
          "internalType": "bool",
          "name": "",
          "type": "bool"
        }
      ],
      "stateMutability": "view",
      "type": "function"
    },
    {
      "inputs": [
        {
          "internalType": "uint256",
          "name": "tokenId",
          "type": "uint256"
        }
      ],
      "name": "latestOwnerOf",
      "outputs": [
        {
          "internalType": "address",
          "name": "",
          "type": "address"
        }
      ],
      "stateMutability": "view",
      "type": "function"
    },
    {
      "inputs": [
        {
          "internalType": "uint256",
          "name": "tokenId",
          "type": "uint256"
        }
      ],
      "name": "ownerOf",
      "outputs": [
        {
          "internalType": "address",
          "name": "",
          "type": "address"
        }
      ],
      "stateMutability": "view",
      "type": "function"
    },
    {
      "inputs": [
        {
          "internalType": "string",
          "name": "label",
          "type": "string"
        },
        {
          "internalType": "address",
          "name": "owner",
          "type": "address"
        },
        {
          "internalType": "contract IRegistry",
          "name": "registry",
          "type": "address"
        },
        {
          "internalType": "address",
          "name": "resolver",
          "type": "address"
        },
        {
          "internalType": "uint256",
          "name": "roleBitmap",
          "type": "uint256"
        },
        {
          "internalType": "uint64",
          "name": "expiry",
          "type": "uint64"
        }
      ],
      "name": "register",
      "outputs": [
        {
          "internalType": "uint256",
          "name": "tokenId",
          "type": "uint256"
        }
      ],
      "stateMutability": "nonpayable",
      "type": "function"
    },
    {
      "inputs": [
        {
          "internalType": "uint256",
          "name": "anyId",
          "type": "uint256"
        },
        {
          "internalType": "uint64",
          "name": "newExpiry",
          "type": "uint64"
        }
      ],
      "name": "renew",
      "outputs": [],
      "stateMutability": "nonpayable",
      "type": "function"
    },
    {
      "inputs": [
        {
          "internalType": "uint256",
          "name": "anyId",
          "type": "uint256"
        },
        {
          "internalType": "uint256",
          "name": "roleBitmap",
          "type": "uint256"
        },
        {
          "internalType": "address",
          "name": "account",
          "type": "address"
        }
      ],
      "name": "revokeRoles",
      "outputs": [
        {
          "internalType": "bool",
          "name": "",
          "type": "bool"
        }
      ],
      "stateMutability": "nonpayable",
      "type": "function"
    },
    {
      "inputs": [
        {
          "internalType": "uint256",
          "name": "roleBitmap",
          "type": "uint256"
        },
        {
          "internalType": "address",
          "name": "account",
          "type": "address"
        }
      ],
      "name": "revokeRootRoles",
      "outputs": [
        {
          "internalType": "bool",
          "name": "",
          "type": "bool"
        }
      ],
      "stateMutability": "nonpayable",
      "type": "function"
    },
    {
      "inputs": [
        {
          "internalType": "uint256",
          "name": "anyId",
          "type": "uint256"
        }
      ],
      "name": "roleCount",
      "outputs": [
        {
          "internalType": "uint256",
          "name": "",
          "type": "uint256"
        }
      ],
      "stateMutability": "view",
      "type": "function"
    },
    {
      "inputs": [
        {
          "internalType": "uint256",
          "name": "anyId",
          "type": "uint256"
        },
        {
          "internalType": "address",
          "name": "account",
          "type": "address"
        }
      ],
      "name": "roles",
      "outputs": [
        {
          "internalType": "uint256",
          "name": "",
          "type": "uint256"
        }
      ],
      "stateMutability": "view",
      "type": "function"
    },
    {
      "inputs": [
        {
          "internalType": "address",
          "name": "from",
          "type": "address"
        },
        {
          "internalType": "address",
          "name": "to",
          "type": "address"
        },
        {
          "internalType": "uint256[]",
          "name": "ids",
          "type": "uint256[]"
        },
        {
          "internalType": "uint256[]",
          "name": "values",
          "type": "uint256[]"
        },
        {
          "internalType": "bytes",
          "name": "data",
          "type": "bytes"
        }
      ],
      "name": "safeBatchTransferFrom",
      "outputs": [],
      "stateMutability": "nonpayable",
      "type": "function"
    },
    {
      "inputs": [
        {
          "internalType": "address",
          "name": "from",
          "type": "address"
        },
        {
          "internalType": "address",
          "name": "to",
          "type": "address"
        },
        {
          "internalType": "uint256",
          "name": "id",
          "type": "uint256"
        },
        {
          "internalType": "uint256",
          "name": "value",
          "type": "uint256"
        },
        {
          "internalType": "bytes",
          "name": "data",
          "type": "bytes"
        }
      ],
      "name": "safeTransferFrom",
      "outputs": [],
      "stateMutability": "nonpayable",
      "type": "function"
    },
    {
      "inputs": [
        {
          "internalType": "address",
          "name": "operator",
          "type": "address"
        },
        {
          "internalType": "bool",
          "name": "approved",
          "type": "bool"
        }
      ],
      "name": "setApprovalForAll",
      "outputs": [],
      "stateMutability": "nonpayable",
      "type": "function"
    },
    {
      "inputs": [
        {
          "internalType": "contract IRegistry",
          "name": "parent",
          "type": "address"
        },
        {
          "internalType": "string",
          "name": "label",
          "type": "string"
        }
      ],
      "name": "setParent",
      "outputs": [],
      "stateMutability": "nonpayable",
      "type": "function"
    },
    {
      "inputs": [
        {
          "internalType": "uint256",
          "name": "anyId",
          "type": "uint256"
        },
        {
          "internalType": "address",
          "name": "resolver",
          "type": "address"
        }
      ],
      "name": "setResolver",
      "outputs": [],
      "stateMutability": "nonpayable",
      "type": "function"
    },
    {
      "inputs": [
        {
          "internalType": "uint256",
          "name": "anyId",
          "type": "uint256"
        },
        {
          "internalType": "contract IRegistry",
          "name": "registry",
          "type": "address"
        }
      ],
      "name": "setSubregistry",
      "outputs": [],
      "stateMutability": "nonpayable",
      "type": "function"
    },
    {
      "inputs": [
        {
          "internalType": "bytes4",
          "name": "interfaceId",
          "type": "bytes4"
        }
      ],
      "name": "supportsInterface",
      "outputs": [
        {
          "internalType": "bool",
          "name": "",
          "type": "bool"
        }
      ],
      "stateMutability": "view",
      "type": "function"
    },
    {
      "inputs": [
        {
          "internalType": "uint256",
          "name": "anyId",
          "type": "uint256"
        }
      ],
      "name": "unregister",
      "outputs": [],
      "stateMutability": "nonpayable",
      "type": "function"
    },
    {
      "inputs": [
        {
          "internalType": "uint256",
          "name": "tokenId",
          "type": "uint256"
        }
      ],
      "name": "uri",
      "outputs": [
        {
          "internalType": "string",
          "name": "",
          "type": "string"
        }
      ],
      "stateMutability": "view",
      "type": "function"
    }
  ],
  "contractName": "PermissionedRegistry",
  "sourceName": "src/registry/PermissionedRegistry.sol",
  "bytecode": "0x60c060405234801561000f575f80fd5b506040516145c13803806145c183398101604081905261002e91610c78565b6001600160a01b03808516608052831660a05261004d5f828482610057565b5050505050610eb7565b5f835f0361006657505f610161565b61006f84610169565b6001600160a01b0383166100965760405163761fe2c960e11b815260040160405180910390fd5b5f8581526002602090815260408083206001600160a01b038716845290915290205484811780821461015b575f8781526002602090815260408083206001600160a01b03891684529091529020819055811986166100f6888260016101b5565b841561010957610109888785858b6102e5565b60408051848152602081018490526001600160a01b038816918a917f0d35bf721a39b614de00ca5038e1deb0cb0c69a278645e83405a7226cf80ba3c910160405180910390a360019350505050610161565b5f925050505b949350505050565b7feeeeeeeeeeeeeeeeeeeeeeeeeeeeeeeeeeeeeeeeeeeeeeeeeeeeeeeeeeeeeeee8116156101b257604051630153d96960e51b8152600481018290526024015b60405180910390fd5b50565b5f6101bf836102f5565b90508115610255575f848152600360205260409020546102059082161980195f805160206145a183398151915291909101165f8051602061458183398151915216151590565b1561022d57604051631f22ca6960e31b815260048101859052602481018490526044016101a9565b5f848152600360205260408120805485929061024a908490610cdc565b909155506102df9050565b5f84815260036020526040902054610294901982161980195f805160206145a183398151915291909101165f8051602061458183398151915216151590565b156102bc57604051631f80c19b60e01b815260048101859052602481018490526044016101a9565b5f84815260036020526040812080548592906102d9908490610cef565b90915550505b50505050565b6102ee8561030f565b5050505050565b5f6102ff82610169565b50600181901b17600281901b1790565b80156101b25763ffffffff811681185f9081526006602052604081209061033683836103ff565b5f818152602081905260409020549091506001600160a01b031661035c81836001610422565b8254839060049061037a90640100000000900463ffffffff16610d02565b91906101000a81548163ffffffff021916908363ffffffff1602179055505f6103a983856103ff60201b60201c565b90506103cc8282600160405180602001604052805f81525061048860201b60201c565b604051819084907f4adeae13ec8831392865da923fda1c23d6894f7acb41defa2472480cd4b47d58905f90a35050505050565b80545f9063ffffffff808516851864010000000090920416185b90505b92915050565b6001600160a01b03831661044a57604051626a0d4560e21b81525f60048201526024016101a9565b604080516001808252602082018590528183019081526060820184905260a082019092525f608082018181529192916102ee918791859085906104eb565b6001600160a01b0384166104b157604051632bfa23e760e11b81525f60048201526024016101a9565b604080516001808252602082018690528183019081526060820185905260808201909252906104e35f878484876104eb565b505050505050565b6104f785858585610547565b6001600160a01b038416156102ee575f61050f610657565b905083516001036105395760208481015190840151610532838989858589610665565b50506104e3565b6104e381878787878761078f565b5f6001600160a01b0384161580159061056857506001600160a01b03851615155b905080156105ff575f5b83518110156105fd576105a984828151811061059057610590610d24565b60200260200101516001609c1b8861087660201b60201c565b6105f5578381815181106105bf576105bf610d24565b6020026020010151866040516372c7b6ad60e11b81526004016101a99291909182526001600160a01b0316602082015260400190565b600101610572565b505b61060b858585856108d5565b80156102ee575f5b83518110156104e35761064f61064785838151811061063457610634610d24565b6020026020010151610ade60201b60201c565b87875f610b04565b600101610613565b5f610660610b45565b905090565b6001600160a01b0384163b156104e35760405163f23a6e6160e01b81526001600160a01b0385169063f23a6e61906106a99089908990889088908890600401610d66565b6020604051808303815f875af19250505080156106e3575060408051601f3d908101601f191682019092526106e091810190610daa565b60015b61074a573d808015610710576040519150601f19603f3d011682016040523d82523d5f602084013e610715565b606091505b5080515f0361074257604051632bfa23e760e11b81526001600160a01b03861660048201526024016101a9565b805181602001fd5b6001600160e01b0319811663f23a6e6160e01b1461078657604051632bfa23e760e11b81526001600160a01b03861660048201526024016101a9565b50505050505050565b6001600160a01b0384163b156104e35760405163bc197c8160e01b81526001600160a01b0385169063bc197c81906107d39089908990889088908890600401610e12565b6020604051808303815f875af192505050801561080d575060408051601f3d908101601f1916820190925261080a91810190610daa565b60015b61083a573d808015610710576040519150601f19603f3d011682016040523d82523d5f602084013e610715565b6001600160e01b0319811663bc197c8160e01b1461078657604051632bfa23e760e11b81526001600160a01b03861660048201526024016101a9565b5f61016161088385610ade565b5f9081526002602090815260408083206001600160a01b03871684528252808320547fac33ff75c19e70fe83507db0d683fd3465c996598dc972688b7ace676c89077b90925290912054178416841490565b80518251146109045781518151604051635b05999160e01b8152600481019290925260248201526044016101a9565b5f61090d610657565b90505f5b8351811015610a005760208181028581018201519085019091015180156109f6575f828152602081905260409020546001600160a01b03908116908916811461098c576040516303dee4c560e01b81526001600160a01b038a1660048201525f602482015260448101839052606481018490526084016101a9565b60018211156109ce576040516303dee4c560e01b81526001600160a01b038a1660048201526001602482015260448101839052606481018490526084016101a9565b505f82815260208190526040902080546001600160a01b0319166001600160a01b0389161790555b5050600101610911565b508251600103610a805760208301515f906020840151909150856001600160a01b0316876001600160a01b0316846001600160a01b03167fc3d58168c5ae7397731d063d5bbf3d657854427343f4c083240f7aacaa2d0f628585604051610a71929190918252602082015260400190565b60405180910390a450506102ee565b836001600160a01b0316856001600160a01b0316826001600160a01b03167f4a39dc06d4c0dbc64b70af90fd698a233a518aa5d07e595d983b8c0526c8f7fb8686604051610acf929190610e6f565b60405180910390a45050505050565b5f61041c82610aff8163ffffffff8116185f90815260066020526040902090565b610be2565b5f8481526002602090815260408083206001600160a01b038716845290915290205480156102ee57610b3885828685610bf8565b506104e385828585610057565b6080515f906001600160a01b0316610b5c57503390565b60805160405163110ac5cb60e21b81523360048201525f916001600160a01b03169063442b172c90602401602060405180830381865afa158015610ba2573d5f803e3d5ffd5b505050506040513d601f19601f82011682018060405250810190610bc69190610e9c565b90506001600160a01b038116610bdd573391505090565b919050565b80545f9063ffffffff8085168518911618610419565b5f610c0284610169565b5f8581526002602090815260408083206001600160a01b03871684529091529020548419811680821461015b575f8781526002602090815260408083206001600160a01b03891684529091528120829055868316906100f690899083906101b5565b6001600160a01b03811681146101b2575f80fd5b5f805f8060808587031215610c8b575f80fd5b8451610c9681610c64565b6020860151909450610ca781610c64565b6040860151909350610cb881610c64565b6060959095015193969295505050565b634e487b7160e01b5f52601160045260245ffd5b8082018082111561041c5761041c610cc8565b8181038181111561041c5761041c610cc8565b5f63ffffffff808316818103610d1a57610d1a610cc8565b6001019392505050565b634e487b7160e01b5f52603260045260245ffd5b5f81518084528060208401602086015e5f602082860101526020601f19601f83011685010191505092915050565b6001600160a01b03868116825285166020820152604081018490526060810183905260a0608082018190525f90610d9f90830184610d38565b979650505050505050565b5f60208284031215610dba575f80fd5b81516001600160e01b031981168114610dd1575f80fd5b9392505050565b5f815180845260208085019450602084015f5b83811015610e0757815187529582019590820190600101610deb565b509495945050505050565b6001600160a01b0386811682528516602082015260a0604082018190525f90610e3d90830186610dd8565b8281036060840152610e4f8186610dd8565b90508281036080840152610e638185610d38565b98975050505050505050565b604081525f610e816040830185610dd8565b8281036020840152610e938185610dd8565b95945050505050565b5f60208284031215610eac575f80fd5b8151610dd181610c64565b60805160a05161368d610ef45f395f818161046f015281816118b8015261192601525f81816103a20152818161201b015261207c015261368d5ff3fe608060405234801561000f575f80fd5b5060043610610268575f3560e01c80635357263f11610157578063a02b161e116100d2578063d3bf89b111610088578063e4ae7d771161006e578063e4ae7d7714610608578063e985e9c51461061b578063f242432a14610656575f80fd5b8063d3bf89b1146105e2578063dfa70d8b146105f5575f80fd5b8063bc7b6d62116100b8578063bc7b6d62146105a9578063bd242bcb146105bc578063ce156e82146105cf575f80fd5b8063a02b161e14610583578063a22cb46514610596575f80fd5b80636352211e116101275780637c3005861161010d5780637c3005861461054757806380f760211461055a57806385f3e64314610570575f80fd5b80636352211e146104ea578063781ef8db146104fd575f80fd5b80635357263f146104915780635569f33d146104a45780635adf4724146104b75780635c622a0e146104ca575f80fd5b80632eb2c2d6116101e757806335af6216116101b757806344c9af281161019d57806344c9af281461042a5780634e1273f41461044a578063531b9d6d1461046a575f80fd5b806335af6216146103ef5780633634f91114610402575f80fd5b80632eb2c2d6146103755780632f27fa241461038a578063319c22bb1461039d578063341ec559146103dc575f80fd5b806311b8e00a1161023c57806314ff5ea31161022257806314ff5ea3146103485780631c3fc3eb1461035b5780631e8fca2d14610362575f80fd5b806311b8e00a146102e857806313c72608146102fb575f80fd5b8062fdd58e1461026c57806301ffc9a714610292578063072d5d77146102b55780630e89341c146102c8575b5f80fd5b61027f61027a366004612bc0565b610669565b6040519081526020015b60405180910390f35b6102a56102a0366004612bff565b6106a0565b6040519015158152602001610289565b6102a56102c3366004612c1a565b610745565b6102db6102d6366004612c48565b610770565b6040516102899190612c8d565b6102a56102f6366004612c9f565b61077b565b61032f610309366004612c48565b63ffffffff8116185f9081526006602052604090206001015467ffffffffffffffff1690565b60405167ffffffffffffffff9091168152602001610289565b61027f610356366004612c48565b610795565b61027f5f81565b61027f610370366004612c48565b6107bb565b610388610383366004612e07565b6107e1565b005b61027f610398366004612c48565b61087e565b6103c47f000000000000000000000000000000000000000000000000000000000000000081565b6040516001600160a01b039091168152602001610289565b6103886103ea366004612c1a565b61089c565b6103c46103fd366004612eae565b61093a565b610415610410366004612c9f565b6109d4565b60408051928352602083019190915201610289565b61043d610438366004612c48565b6109f4565b6040516102899190612f4e565b61045d610458366004612fa1565b610ac5565b6040516102899190613097565b6103c47f000000000000000000000000000000000000000000000000000000000000000081565b61038861049f3660046130a9565b610b90565b6103886104b2366004613103565b610c31565b61027f6104c5366004612c1a565b610d19565b6104dd6104d8366004612c48565b610d4b565b604051610289919061312d565b6103c46104f8366004612c48565b610da0565b6102a561050b366004612c1a565b6001600160a01b03165f9081527fac33ff75c19e70fe83507db0d683fd3465c996598dc972688b7ace676c89077b602052604090205481161490565b6102a561055536600461313b565b610e04565b610562610e18565b604051610289929190613171565b61027f61057e366004613192565b610ec1565b610388610591366004612c48565b611370565b6103886105a436600461321b565b61147d565b6103886105b7366004612c1a565b611493565b6103c46105ca366004612c48565b611536565b6102a56105dd366004612c1a565b611552565b6102a56105f036600461313b565b611574565b6102a561060336600461313b565b6115d3565b6103c4610616366004612eae565b6115e7565b6102a561062936600461324b565b6001600160a01b039182165f90815260016020908152604080832093909416825291909152205460ff1690565b610388610664366004613277565b611662565b5f826001600160a01b031661067d83610da0565b6001600160a01b031614610691575f610694565b60015b60ff1690505b92915050565b5f6001600160e01b031982167fafff3a6300000000000000000000000000000000000000000000000000000000148061070257506001600160e01b031982167fb844ab6c00000000000000000000000000000000000000000000000000000000145b8061073657506001600160e01b031982167f51f67f4000000000000000000000000000000000000000000000000000000000145b8061069a575061069a826116f2565b5f808361075a828261075561172f565b61173d565b6107675f8686600161178b565b95945050505050565b606061069a826118b4565b5f61078e610788846107bb565b83611999565b9392505050565b5f61069a826107b68463ffffffff8116185f90815260066020526040902090565b6119b0565b5f61069a826107dc8463ffffffff8116185f90815260066020526040902090565b6119ce565b5f6107ea61172f565b9050806001600160a01b0316866001600160a01b03161415801561083357506001600160a01b038087165f9081526001602090815260408083209385168352929052205460ff16155b156108695760405163711bec9160e11b81526001600160a01b038083166004830152871660248201526044015b60405180910390fd5b61087686868686866119e4565b505050505050565b5f61069a61088b836107bb565b5f9081526003602052604090205490565b5f806108ab8462100000611a49565b80547fffffffff0000000000000000000000000000000000000000ffffffffffffffff16680100000000000000006001600160a01b0387160217815590925090506108f461172f565b6001600160a01b0316836001600160a01b0316837fca9c8d517128edd416adf5719242ca6ff93ce234442d95234da53c0ae8a1054060405160405180910390a450505050565b5f8061099561097d85858080601f0160208091040260200160405190810160405280939291908181526020018383808284375f92019190915250611acc92505050565b63ffffffff8116185f90815260066020526040902090565b600181015490915067ffffffffffffffff164210156109ca5780546801000000000000000090046001600160a01b03166109cc565b5f5b949350505050565b5f806109e86109e2856107bb565b84611ad7565b915091505b9250929050565b6040805160a0810182525f8082526020808301828152838501839052606084018390526080840183905263ffffffff8616861883526006909152928120600181015467ffffffffffffffff1693849052919290610a5185846119b0565b606085018190529050610a6485846119ce565b60808501525f8181526020819052604090819020546001600160a01b0316908501819052610a928382611afa565b85906002811115610aa557610aa5612f1a565b90816002811115610ab857610ab8612f1a565b8152505050505050919050565b60608151835114610af65781518351604051635b05999160e01b815260048101929092526024820152604401610860565b5f835167ffffffffffffffff811115610b1157610b11612cbf565b604051908082528060200260200182016040528015610b3a578160200160208202803683370190505b5090505f5b8451811015610b8857602080820286010151610b6390602080840287010151610669565b828281518110610b7557610b756132db565b6020908102919091010152600101610b3f565b509392505050565b610100610ba55f82610ba061172f565b611b31565b6004805473ffffffffffffffffffffffffffffffffffffffff19166001600160a01b0385161790556005610bd9838261336b565b50610be261172f565b6001600160a01b0316836001600160a01b03167fe49f02c945e0ee4a8d961a371289bd054aa21d9ca1b73250ffd4880eb708cff484604051610c249190612c8d565b60405180910390a3505050565b5f80610c408462010000611a49565b6001810154919350915067ffffffffffffffff9081169084161015610cab5760018101546040517f68c1425a00000000000000000000000000000000000000000000000000000000815267ffffffffffffffff91821660048201529084166024820152604401610860565b60018101805467ffffffffffffffff191667ffffffffffffffff8516179055610cd261172f565b6001600160a01b03168367ffffffffffffffff16837f3260962d42d8f7ae0af25cbfdb2983c214a859cfa2ac6df8ea29b534c267d42960405160405180910390a450505050565b5f61078e610d26846107bb565b5f9081526002602090815260408083206001600160a01b038716845290915290205490565b63ffffffff811681185f908152600660205260408120600181015461078e9067ffffffffffffffff16610d9b610d8186856119b0565b5f908152602081905260409020546001600160a01b031690565b611afa565b63ffffffff811681185f908152600660205260408120610dc083826119b0565b83141580610ddc5750600181015467ffffffffffffffff164210155b610dfc575f838152602081905260409020546001600160a01b031661078e565b5f9392505050565b5f6109cc610e11856107bb565b8484611b90565b600454600580545f926060926001600160a01b03909116918190610e3b906132ef565b80601f0160208091040260200160405190810160405280929190818152602001828054610e67906132ef565b8015610eb25780601f10610e8957610100808354040283529160200191610eb2565b820191905f5260205f20905b815481529060010190602001808311610e9557829003601f168201915b50505050509050915091509091565b5f610ecb87611bd5565b50865160208801205f610ef08263ffffffff8116185f90815260066020526040902090565b9050610efc82826119b0565b5f818152602081905260408120549194506001600160a01b0390911690610f2161172f565b600184015490915067ffffffffffffffff164210610fa6576001600160a01b0381163014610f5557610f555f600183611b31565b6001600160a01b038a16158015610f6b57508615155b15610fa15760405163d1a3b35560e01b81525f6004820152602481018890526001600160a01b0382166044820152606401610860565b61106a565b6001600160a01b03821615610fe9578a6040517fdef545a40000000000000000000000000000000000000000000000000000000081526004016108609190612c8d565b6001600160a01b038a1661102b578a6040517ff60759e00000000000000000000000000000000000000000000000000000000081526004016108609190612c8d565b6001600160a01b0381163014611047576110475f601083611b31565b8567ffffffffffffffff165f0361106a57600183015467ffffffffffffffff1695505b67ffffffffffffffff861642106110b9576040517ff1d446c300000000000000000000000000000000000000000000000000000000815267ffffffffffffffff87166004820152602401610860565b6001600160a01b03821615611151576110d482866001611c4f565b825483905f906110e99063ffffffff1661343b565b91906101000a81548163ffffffff021916908363ffffffff160217905550825f01600481819054906101000a900463ffffffff166111269061343b565b91906101000a81548163ffffffff021916908363ffffffff16021790555061114e85846119b0565b94505b60018301805484546001600160a01b03808d16680100000000000000009081027fffffffff0000000000000000000000000000000000000000ffffffffffffffff9093169290921787558b81169091026001600160e01b031990921667ffffffffffffffff8a1617919091179091558a1661121257806001600160a01b0316845f1b867f734822851860327a80c624af1471efac6bb0ac641852fc6c7bfeeee3202ae6a88e8a60405161120592919061345d565b60405180910390a46112c0565b806001600160a01b0316845f1b867f2fe093918572373e9f1f0368f414dffd0043a74ae8c9fd7b0e390b26a0d20b6e8e8e8b60405161125393929190613488565b60405180910390a46112768a86600160405180602001604052805f815250611cb5565b5f61128186856119ce565b905080867f35190fb7cb1f442974e3c68fa2be9cf56828d0043b1cfcfbd17b4efa8566929660405160405180910390a36112bd81898d5f61178b565b50505b6001600160a01b0389161561131157806001600160a01b0316896001600160a01b0316867fca9c8d517128edd416adf5719242ca6ff93ce234442d95234da53c0ae8a1054060405160405180910390a45b6001600160a01b0388161561136257806001600160a01b0316886001600160a01b0316867f9b6b420ff87c91604d447e507cbeedda5df2fa669a6b6534375e41fd3905a8d560405160405180910390a45b505050509695505050505050565b5f8061137e83611000611a49565b9150915061138a61172f565b6001600160a01b0316827f5293e83951c7b759c1ef192ceed240dc2caa652e29ddbd95cafe1d88e5a9cea860405160405180910390a35f828152602081905260409020546001600160a01b0316801561145a576113e981846001611c4f565b815482905f906113fe9063ffffffff1661343b565b91906101000a81548163ffffffff021916908363ffffffff160217905550815f01600481819054906101000a900463ffffffff1661143b9061343b565b91906101000a81548163ffffffff021916908363ffffffff1602179055505b50600101805467ffffffffffffffff19164267ffffffffffffffff161790555050565b61148f61148861172f565b8383611d10565b5050565b5f806114a3846301000000611a49565b6001810180547fffffffff0000000000000000000000000000000000000000ffffffffffffffff16680100000000000000006001600160a01b0388160217905590925090506114f061172f565b6001600160a01b0316836001600160a01b0316837f9b6b420ff87c91604d447e507cbeedda5df2fa669a6b6534375e41fd3905a8d560405160405180910390a450505050565b5f818152602081905260408120546001600160a01b031661069a565b5f8083611567828261156261172f565b611db6565b6107675f86866001611e17565b5f6109cc611581856107bb565b5f9081526002602090815260408083206001600160a01b03871684528252808320547fac33ff75c19e70fe83507db0d683fd3465c996598dc972688b7ace676c89077b90925290912054178416841490565b5f6109cc6115e0856107bb565b8484611e83565b5f8061162a61097d85858080601f0160208091040260200160405190810160405280939291908181526020018383808284375f92019190915250611acc92505050565b600181015490915067ffffffffffffffff164210156109ca5760018101546801000000000000000090046001600160a01b03166109cc565b5f61166b61172f565b9050806001600160a01b0316866001600160a01b0316141580156116b457506001600160a01b038087165f9081526001602090815260408083209385168352929052205460ff16155b156116e55760405163711bec9160e11b81526001600160a01b03808316600483015287166024820152604401610860565b6108768686868686611ebe565b5f6001600160e01b031982167f8f452d6200000000000000000000000000000000000000000000000000000000148061069a575061069a82611f4a565b5f611738612018565b905090565b5f6117488483612109565b905080198316156117855760405163d1a3b35560e01b815260048101859052602481018490526001600160a01b0383166044820152606401610860565b50505050565b5f835f0361179a57505f6109cc565b6117a3846121f0565b6001600160a01b0383166117e3576040517fec3fc59200000000000000000000000000000000000000000000000000000000815260040160405180910390fd5b5f8581526002602090815260408083206001600160a01b03871684529091529020548481178082146118a8575f8781526002602090815260408083206001600160a01b038916845290915290208190558119861661184388826001612250565b841561185657611856888785858b6123e5565b60408051848152602081018490526001600160a01b038816918a917f0d35bf721a39b614de00ca5038e1deb0cb0c69a278645e83405a7226cf80ba3c910160405180910390a3600193505050506109cc565b505f9695505050505050565b60607f00000000000000000000000000000000000000000000000000000000000000006001600160a01b03166118f757505060408051602081019091525f815290565b6040517f1675f455000000000000000000000000000000000000000000000000000000008152600481018390527f00000000000000000000000000000000000000000000000000000000000000006001600160a01b031690631675f455906024015f60405180830381865afa158015611972573d5f803e3d5ffd5b505050506040513d5f823e601f3d908101601f1916820160405261069a91908101906134c3565b5f806119a584846109d4565b501515949350505050565b80545f9063ffffffff8085168518640100000000909204161861078e565b80545f9063ffffffff808516851891161861078e565b6001600160a01b038416611a0d57604051632bfa23e760e11b81525f6004820152602401610860565b6001600160a01b038516611a3557604051626a0d4560e21b81525f6004820152602401610860565b611a4285858585856123ee565b5050505050565b63ffffffff821682185f908152600660205260408120611a6984826119b0565b600182015490925067ffffffffffffffff164210611ab6576040517fc44e237400000000000000000000000000000000000000000000000000000000815260048101839052602401610860565b6109ed611ac385836119ce565b84610ba061172f565b805160209091012090565b5f80611ae28361244a565b5f948552600360205260409094205484169492505050565b5f67ffffffffffffffff83164210611b1357505f61069a565b6001600160a01b038216611b295750600161069a565b50600261069a565b611b3c838383611574565b611b8b576040517f4b27a13300000000000000000000000000000000000000000000000000000000815260048101849052602481018390526001600160a01b0382166044820152606401610860565b505050565b5f8383611ba0828261075561172f565b85611bbe57604051631850848b60e31b815260040160405180910390fd5b611bcb868686600161178b565b9695505050505050565b80515f90808203611c12576040517fbf9a274000000000000000000000000000000000000000000000000000000000815260040160405180910390fd5b60ff81111561069a57826040517fdab6c73c0000000000000000000000000000000000000000000000000000000081526004016108609190612c8d565b6001600160a01b038316611c7757604051626a0d4560e21b81525f6004820152602401610860565b604080516001808252602082018590528183019081526060820184905260a082019092525f60808201818152919291611a42918791859085906123ee565b6001600160a01b038416611cde57604051632bfa23e760e11b81525f6004820152602401610860565b604080516001808252602082018690528183019081526060820185905260808201909252906108765f878484876123ee565b6001600160a01b038216611d52576040517fced3e1000000000000000000000000000000000000000000000000000000000081525f6004820152602401610860565b6001600160a01b038381165f81815260016020908152604080832094871680845294825291829020805460ff191686151590811790915591519182527f17307eab39ab6107e8899845ad3d59bd9653f200f220920489ca2b5937696c319101610c24565b5f611dc18483612464565b90508019831615611785576040517fa604e31800000000000000000000000000000000000000000000000000000000815260048101859052602481018490526001600160a01b0383166044820152606401610860565b5f611e21846121f0565b5f8581526002602090815260408083206001600160a01b0387168452909152902054841981168082146118a8575f8781526002602090815260408083206001600160a01b03891684529091528120829055868316906118439089908390612250565b5f8383611e93828261156261172f565b85611eb157604051631850848b60e31b815260040160405180910390fd5b611bcb8686866001611e17565b6001600160a01b038416611ee757604051632bfa23e760e11b81525f6004820152602401610860565b6001600160a01b038516611f0f57604051626a0d4560e21b81525f6004820152602401610860565b60408051600180825260208201869052818301908152606082018590526080820190925290611f4187878484876123ee565b50505050505050565b5f6001600160e01b031982167fd9b67a26000000000000000000000000000000000000000000000000000000001480611fac57506001600160e01b031982167f6352211e00000000000000000000000000000000000000000000000000000000145b80611fe057506001600160e01b031982167f0e89341c00000000000000000000000000000000000000000000000000000000145b8061069a57507f01ffc9a7000000000000000000000000000000000000000000000000000000006001600160e01b031983161461069a565b5f7f00000000000000000000000000000000000000000000000000000000000000006001600160a01b031661204c57503390565b6040517f442b172c0000000000000000000000000000000000000000000000000000000081523360048201525f907f00000000000000000000000000000000000000000000000000000000000000006001600160a01b03169063442b172c90602401602060405180830381865afa1580156120c9573d5f803e3d5ffd5b505050506040513d601f19601f820116820180604052508101906120ed9190613538565b90506001600160a01b038116612104573391505090565b919050565b5f8061219d84846001600160a01b03165f8181527fac33ff75c19e70fe83507db0d683fd3465c996598dc972688b7ace676c89077b60209081526040808320549483526002825280832093835292905220547f1111111111111111111111111111111100000000000000000000000000000000911790811660809190911c6f11111111111111111111111111111111161790565b9050836121ab57905061069a565b5f6121cf6104f8866107b68163ffffffff8116185f90815260066020526040902090565b6001600160a01b0316036121e6575f91505061069a565b60801c9392505050565b7feeeeeeeeeeeeeeeeeeeeeeeeeeeeeeeeeeeeeeeeeeeeeeeeeeeeeeeeeeeeeeee81161561224d576040517f2a7b2d2000000000000000000000000000000000000000000000000000000000815260048101829052602401610860565b50565b5f61225a8361244a565b90508115612323575f848152600360205260409020547f888888888888888888888888888888888888888888888888888888888888888890821680197feeeeeeeeeeeeeeeeeeeeeeeeeeeeeeeeeeeeeeeeeeeeeeeeeeeeeeeeeeeeeeef011616156122fb576040517ff91653480000000000000000000000000000000000000000000000000000000081526004810185905260248101849052604401610860565b5f8481526003602052604081208054859290612318908490613553565b909155506117859050565b5f848152600360205260409020547f88888888888888888888888888888888888888888888888888888888888888889019821680197feeeeeeeeeeeeeeeeeeeeeeeeeeeeeeeeeeeeeeeeeeeeeeeeeeeeeeeeeeeeeeef011616156123bd576040517f1f80c19b0000000000000000000000000000000000000000000000000000000081526004810185905260248101849052604401610860565b5f84815260036020526040812080548592906123da908490613566565b909155505050505050565b611a428561253c565b6123fa85858585612620565b6001600160a01b03841615611a42575f61241261172f565b9050835160010361243c576020848101519084015161243583898985858961274d565b5050610876565b61087681878787878761286e565b5f612454826121f0565b50600181901b17600281901b1790565b5f821580159061249e57505f6124936104f8856107b68163ffffffff8116185f90815260066020526040902090565b6001600160a01b0316145b156124aa57505f61069a565b61078e83836001600160a01b03165f8181527fac33ff75c19e70fe83507db0d683fd3465c996598dc972688b7ace676c89077b60209081526040808320549483526002825280832093835292905220547f1111111111111111111111111111111100000000000000000000000000000000911790811660809190911c6f11111111111111111111111111111111161790565b801561224d5763ffffffff811681185f9081526006602052604081209061256383836119b0565b5f818152602081905260409020549091506001600160a01b031661258981836001611c4f565b825483906004906125a790640100000000900463ffffffff1661343b565b91906101000a81548163ffffffff021916908363ffffffff1602179055505f6125d083856119b0565b90506125ed8282600160405180602001604052805f815250611cb5565b604051819084907f4adeae13ec8831392865da923fda1c23d6894f7acb41defa2472480cd4b47d58905f90a35050505050565b5f6001600160a01b0384161580159061264157506001600160a01b03851615155b905080156126fb575f5b83518110156126f95761268c848281518110612669576126696132db565b602002602001015173100000000000000000000000000000000000000088611574565b6126f1578381815181106126a2576126a26132db565b6020026020010151866040517fe58f6d5a0000000000000000000000000000000000000000000000000000000081526004016108609291909182526001600160a01b0316602082015260400190565b60010161264b565b505b61270785858585612955565b8015611a42575f5b83518110156108765761274561273d858381518110612730576127306132db565b60200260200101516107bb565b87875f612b6b565b60010161270f565b6001600160a01b0384163b156108765760405163f23a6e6160e01b81526001600160a01b0385169063f23a6e61906127919089908990889088908890600401613579565b6020604051808303815f875af19250505080156127cb575060408051601f3d908101601f191682019092526127c8918101906135bb565b60015b612832573d8080156127f8576040519150601f19603f3d011682016040523d82523d5f602084013e6127fd565b606091505b5080515f0361282a57604051632bfa23e760e11b81526001600160a01b0386166004820152602401610860565b805181602001fd5b6001600160e01b0319811663f23a6e6160e01b14611f4157604051632bfa23e760e11b81526001600160a01b0386166004820152602401610860565b6001600160a01b0384163b156108765760405163bc197c8160e01b81526001600160a01b0385169063bc197c81906128b290899089908890889088906004016135d6565b6020604051808303815f875af19250505080156128ec575060408051601f3d908101601f191682019092526128e9918101906135bb565b60015b612919573d8080156127f8576040519150601f19603f3d011682016040523d82523d5f602084013e6127fd565b6001600160e01b0319811663bc197c8160e01b14611f4157604051632bfa23e760e11b81526001600160a01b0386166004820152602401610860565b80518251146129845781518151604051635b05999160e01b815260048101929092526024820152604401610860565b5f61298d61172f565b90505f5b8351811015612a8d576020818102858101820151908501909101518015612a83575f828152602081905260409020546001600160a01b039081169089168114612a0c576040516303dee4c560e01b81526001600160a01b038a1660048201525f60248201526044810183905260648101849052608401610860565b6001821115612a4e576040516303dee4c560e01b81526001600160a01b038a166004820152600160248201526044810183905260648101849052608401610860565b505f828152602081905260409020805473ffffffffffffffffffffffffffffffffffffffff19166001600160a01b0389161790555b5050600101612991565b508251600103612b0d5760208301515f906020840151909150856001600160a01b0316876001600160a01b0316846001600160a01b03167fc3d58168c5ae7397731d063d5bbf3d657854427343f4c083240f7aacaa2d0f628585604051612afe929190918252602082015260400190565b60405180910390a45050611a42565b836001600160a01b0316856001600160a01b0316826001600160a01b03167f4a39dc06d4c0dbc64b70af90fd698a233a518aa5d07e595d983b8c0526c8f7fb8686604051612b5c929190613633565b60405180910390a45050505050565b5f8481526002602090815260408083206001600160a01b03871684529091529020548015611a4257612b9f85828685611e17565b506108768582858561178b565b6001600160a01b038116811461224d575f80fd5b5f8060408385031215612bd1575f80fd5b8235612bdc81612bac565b946020939093013593505050565b6001600160e01b03198116811461224d575f80fd5b5f60208284031215612c0f575f80fd5b813561078e81612bea565b5f8060408385031215612c2b575f80fd5b823591506020830135612c3d81612bac565b809150509250929050565b5f60208284031215612c58575f80fd5b5035919050565b5f81518084528060208401602086015e5f602082860101526020601f19601f83011685010191505092915050565b602081525f61078e6020830184612c5f565b5f8060408385031215612cb0575f80fd5b50508035926020909101359150565b634e487b7160e01b5f52604160045260245ffd5b604051601f8201601f1916810167ffffffffffffffff81118282101715612cfc57612cfc612cbf565b604052919050565b5f67ffffffffffffffff821115612d1d57612d1d612cbf565b5060051b60200190565b5f82601f830112612d36575f80fd5b81356020612d4b612d4683612d04565b612cd3565b8083825260208201915060208460051b870101935086841115612d6c575f80fd5b602086015b84811015612d885780358352918301918301612d71565b509695505050505050565b5f67ffffffffffffffff821115612dac57612dac612cbf565b50601f01601f191660200190565b5f82601f830112612dc9575f80fd5b8135612dd7612d4682612d93565b818152846020838601011115612deb575f80fd5b816020850160208301375f918101602001919091529392505050565b5f805f805f60a08688031215612e1b575f80fd5b8535612e2681612bac565b94506020860135612e3681612bac565b9350604086013567ffffffffffffffff80821115612e52575f80fd5b612e5e89838a01612d27565b94506060880135915080821115612e73575f80fd5b612e7f89838a01612d27565b93506080880135915080821115612e94575f80fd5b50612ea188828901612dba565b9150509295509295909350565b5f8060208385031215612ebf575f80fd5b823567ffffffffffffffff80821115612ed6575f80fd5b818501915085601f830112612ee9575f80fd5b813581811115612ef7575f80fd5b866020828501011115612f08575f80fd5b60209290920196919550909350505050565b634e487b7160e01b5f52602160045260245ffd5b60038110612f4a57634e487b7160e01b5f52602160045260245ffd5b9052565b5f60a082019050612f60828451612f2e565b67ffffffffffffffff60208401511660208301526001600160a01b036040840151166040830152606083015160608301526080830151608083015292915050565b5f8060408385031215612fb2575f80fd5b823567ffffffffffffffff80821115612fc9575f80fd5b818501915085601f830112612fdc575f80fd5b81356020612fec612d4683612d04565b82815260059290921b8401810191818101908984111561300a575f80fd5b948201945b8386101561303157853561302281612bac565b8252948201949082019061300f565b96505086013592505080821115613046575f80fd5b5061305385828601612d27565b9150509250929050565b5f815180845260208085019450602084015f5b8381101561308c57815187529582019590820190600101613070565b509495945050505050565b602081525f61078e602083018461305d565b5f80604083850312156130ba575f80fd5b82356130c581612bac565b9150602083013567ffffffffffffffff8111156130e0575f80fd5b61305385828601612dba565b803567ffffffffffffffff81168114612104575f80fd5b5f8060408385031215613114575f80fd5b82359150613124602084016130ec565b90509250929050565b6020810161069a8284612f2e565b5f805f6060848603121561314d575f80fd5b8335925060208401359150604084013561316681612bac565b809150509250925092565b6001600160a01b0383168152604060208201525f6109cc6040830184612c5f565b5f805f805f8060c087890312156131a7575f80fd5b863567ffffffffffffffff8111156131bd575f80fd5b6131c989828a01612dba565b96505060208701356131da81612bac565b945060408701356131ea81612bac565b935060608701356131fa81612bac565b92506080870135915061320f60a088016130ec565b90509295509295509295565b5f806040838503121561322c575f80fd5b823561323781612bac565b915060208301358015158114612c3d575f80fd5b5f806040838503121561325c575f80fd5b823561326781612bac565b91506020830135612c3d81612bac565b5f805f805f60a0868803121561328b575f80fd5b853561329681612bac565b945060208601356132a681612bac565b93506040860135925060608601359150608086013567ffffffffffffffff8111156132cf575f80fd5b612ea188828901612dba565b634e487b7160e01b5f52603260045260245ffd5b600181811c9082168061330357607f821691505b60208210810361332157634e487b7160e01b5f52602260045260245ffd5b50919050565b601f821115611b8b57805f5260205f20601f840160051c8101602085101561334c5750805b601f840160051c820191505b81811015611a42575f8155600101613358565b815167ffffffffffffffff81111561338557613385612cbf565b6133998161339384546132ef565b84613327565b602080601f8311600181146133cc575f84156133b55750858301515b5f19600386901b1c1916600185901b178555610876565b5f85815260208120601f198616915b828110156133fa578886015182559484019460019091019084016133db565b508582101561341757878501515f19600388901b60f8161c191681555b5050505050600190811b01905550565b634e487b7160e01b5f52601160045260245ffd5b5f63ffffffff80831681810361345357613453613427565b6001019392505050565b604081525f61346f6040830185612c5f565b905067ffffffffffffffff831660208301529392505050565b606081525f61349a6060830186612c5f565b90506001600160a01b038416602083015267ffffffffffffffff83166040830152949350505050565b5f602082840312156134d3575f80fd5b815167ffffffffffffffff8111156134e9575f80fd5b8201601f810184136134f9575f80fd5b8051613507612d4682612d93565b81815285602083850101111561351b575f80fd5b8160208401602083015e5f91810160200191909152949350505050565b5f60208284031215613548575f80fd5b815161078e81612bac565b8082018082111561069a5761069a613427565b8181038181111561069a5761069a613427565b5f6001600160a01b03808816835280871660208401525084604083015283606083015260a060808301526135b060a0830184612c5f565b979650505050505050565b5f602082840312156135cb575f80fd5b815161078e81612bea565b5f6001600160a01b03808816835280871660208401525060a0604083015261360160a083018661305d565b8281036060840152613613818661305d565b905082810360808401526136278185612c5f565b98975050505050505050565b604081525f613645604083018561305d565b8281036020840152610767818561305d56fea264697066735822122081da56d560ac594fba9cd10d3029a21c8c61be1e4889dfd660a48e448d25ef7164736f6c634300081900338888888888888888888888888888888888888888888888888888888888888888eeeeeeeeeeeeeeeeeeeeeeeeeeeeeeeeeeeeeeeeeeeeeeeeeeeeeeeeeeeeeeef",
  "linkReferences": {},
  "deployedLinkReferences": {},
  "immutableReferences": {
    "69592": [
      {
        "length": 32,
        "start": 930
      },
      {
        "length": 32,
        "start": 8219
      },
      {
        "length": 32,
        "start": 8316
      }
    ],
    "73374": [
      {
        "length": 32,
        "start": 1135
      },
      {
        "length": 32,
        "start": 6328
      },
      {
        "length": 32,
        "start": 6438
      }
    ]
  },
  "inputSourceName": "project/src/registry/PermissionedRegistry.sol",
  "devdoc": {
    "errors": {
      "CannotReduceExpiry(uint64,uint64)": [
        {
          "details": "Error selector: `0x68c1425a`"
        }
      ],
      "CannotSetPastExpiry(uint64)": [
        {
          "details": "Error selector: `0xf1d446c3`"
        }
      ],
      "EACCannotGrantRoles(uint256,uint256,address)": [
        {
          "details": "Error selector: `0xd1a3b355`"
        }
      ],
      "EACCannotRevokeRoles(uint256,uint256,address)": [
        {
          "details": "Error selector: `0xa604e318`"
        }
      ],
      "EACInvalidAccount()": [
        {
          "details": "Error selector: `0xec3fc592`"
        }
      ],
      "EACInvalidRoleBitmap(uint256)": [
        {
          "details": "Error selector: `0x2a7b2d20`"
        }
      ],
      "EACMaxAssignees(uint256,uint256)": [
        {
          "details": "Error selector: `0xf9165348`"
        }
      ],
      "EACMinAssignees(uint256,uint256)": [
        {
          "details": "Error selector: `0x1f80c19b`"
        }
      ],
      "EACRootResourceNotAllowed()": [
        {
          "details": "Error selector: `0xc2842458`"
        }
      ],
      "EACUnauthorizedAccountRoles(uint256,uint256,address)": [
        {
          "details": "Error selector: `0x4b27a133`"
        }
      ],
      "ERC1155InsufficientBalance(address,uint256,uint256,uint256)": [
        {
          "details": "Indicates an error related to the current `balance` of a `sender`. Used in transfers.",
          "params": {
            "balance": "Current balance for the interacting account.",
            "needed": "Minimum amount required to perform a transfer.",
            "sender": "Address whose tokens are being transferred.",
            "tokenId": "Identifier number of a token."
          }
        }
      ],
      "ERC1155InvalidApprover(address)": [
        {
          "details": "Indicates a failure with the `approver` of a token to be approved. Used in approvals.",
          "params": {
            "approver": "Address initiating an approval operation."
          }
        }
      ],
      "ERC1155InvalidArrayLength(uint256,uint256)": [
        {
          "details": "Indicates an array length mismatch between ids and values in a safeBatchTransferFrom operation. Used in batch transfers.",
          "params": {
            "idsLength": "Length of the array of token identifiers",
            "valuesLength": "Length of the array of token amounts"
          }
        }
      ],
      "ERC1155InvalidOperator(address)": [
        {
          "details": "Indicates a failure with the `operator` to be approved. Used in approvals.",
          "params": {
            "operator": "Address that may be allowed to operate on tokens without being their owner."
          }
        }
      ],
      "ERC1155InvalidReceiver(address)": [
        {
          "details": "Indicates a failure with the token `receiver`. Used in transfers.",
          "params": {
            "receiver": "Address to which tokens are being transferred."
          }
        }
      ],
      "ERC1155InvalidSender(address)": [
        {
          "details": "Indicates a failure with the token `sender`. Used in transfers.",
          "params": {
            "sender": "Address whose tokens are being transferred."
          }
        }
      ],
      "ERC1155MissingApprovalForAll(address,address)": [
        {
          "details": "Indicates a failure with the `operator`’s approval. Used in transfers.",
          "params": {
            "operator": "Address that may be allowed to operate on tokens without being their owner.",
            "owner": "Address of the current owner of a token."
          }
        }
      ],
      "LabelAlreadyRegistered(string)": [
        {
          "details": "Error selector: `0xdef545a4`"
        }
      ],
      "LabelAlreadyReserved(string)": [
        {
          "details": "Error selector: `0xf60759e0`"
        }
      ],
      "LabelExpired(uint256)": [
        {
          "details": "Error selector: `0xc44e2374`"
        }
      ],
      "LabelIsEmpty()": [
        {
          "details": "The label was empty.      Error selector: `0xbf9a2740`"
        }
      ],
      "LabelIsTooLong(string)": [
        {
          "details": "The label was more than 255 bytes.      Error selector: `0xdab6c73c`"
        }
      ],
      "TransferDisallowed(uint256,address)": [
        {
          "details": "Error selector: `0xe58f6d5a`"
        }
      ]
    },
    "events": {
      "Approval(address,address,uint256)": {
        "params": {
          "approved": "The approved address.",
          "owner": "The owner of the token.",
          "tokenId": "The token ID."
        }
      },
      "ApprovalForAll(address,address,bool)": {
        "details": "Emitted when `account` grants or revokes permission to `operator` to transfer their tokens, according to `approved`."
      },
      "EACRolesChanged(uint256,address,uint256,uint256)": {
        "params": {
          "account": "The account that the roles were changed for.",
          "newRoleBitmap": "The new roles for the account.",
          "oldRoleBitmap": "The old roles for the account.",
          "resource": "The resource that the roles were changed within."
        }
      },
      "ExpiryUpdated(uint256,uint64,address)": {
        "params": {
          "newExpiry": "The new expiry of the label.",
          "sender": "The sender of the call to update the expiry.",
          "tokenId": "The token ID of the label."
        }
      },
      "LabelRegistered(uint256,bytes32,string,address,uint64,address)": {
        "params": {
          "expiry": "The expiry of the label.",
          "label": "The label registered.",
          "labelHash": "The label hash registered.",
          "owner": "The owner of the label.",
          "sender": "The sender of the call to register.",
          "tokenId": "The token ID registered."
        }
      },
      "LabelReserved(uint256,bytes32,string,uint64,address)": {
        "params": {
          "expiry": "The expiry of the label.",
          "label": "The label reserved.",
          "labelHash": "The label hash reserved.",
          "sender": "The sender of the call to reserve.",
          "tokenId": "The token ID reserved."
        }
      },
      "LabelUnregistered(uint256,address)": {
        "params": {
          "sender": "The sender of the call to unregister.",
          "tokenId": "The token ID unregistered."
        }
      },
      "ParentUpdated(address,string,address)": {
        "params": {
          "label": "The new label.",
          "parent": "The new parent.",
          "sender": "The sender of the call to update the parent."
        }
      },
      "ResolverUpdated(uint256,address,address)": {
        "params": {
          "resolver": "The new resolver.",
          "sender": "The sender of the call to update the resolver.",
          "tokenId": "The token ID of the label."
        }
      },
      "SubregistryUpdated(uint256,address,address)": {
        "params": {
          "sender": "The sender of the call to update the subregistry.",
          "subregistry": "The new subregistry.",
          "tokenId": "The token ID of the label."
        }
      },
      "TokenRegenerated(uint256,uint256)": {
        "params": {
          "newTokenId": "The new token ID.",
          "oldTokenId": "The old token ID."
        }
      },
      "TokenResource(uint256,uint256)": {
        "params": {
          "resource": "The EAC resource.",
          "tokenId": "The token ID."
        }
      },
      "TransferBatch(address,address,address,uint256[],uint256[])": {
        "details": "Equivalent to multiple {TransferSingle} events, where `operator`, `from` and `to` are the same for all transfers."
      },
      "TransferSingle(address,address,address,uint256,uint256)": {
        "details": "Emitted when `value` amount of tokens of type `id` are transferred from `from` to `to` by `operator`."
      },
      "URI(string,uint256)": {
        "details": "Emitted when the URI for token type `id` changes to `value`, if it is a non-programmatic URI. If an {URI} event was emitted for `id`, the standard https://eips.ethereum.org/EIPS/eip-1155#metadata-extensions[guarantees] that `value` will equal the value returned by {IERC1155MetadataURI-uri}."
      }
    },
    "kind": "dev",
    "methods": {
      "balanceOf(address,uint256)": {
        "params": {
          "account": "The account to get the balance for.",
          "id": "The token ID."
        },
        "returns": {
          "_0": "balance The balance of the token for the account. This will only ever be 1 or 0."
        }
      },
      "balanceOfBatch(address[],uint256[])": {
        "details": "`accounts` and `ids` must have the same length.",
        "params": {
          "accounts": "The accounts to get the balances for.",
          "ids": "The token IDs."
        },
        "returns": {
          "_0": "batchBalances The balances of the tokens for the accounts. These will only ever be 1 or 0."
        }
      },
      "constructor": {
        "params": {
          "hcaFactory": "The HCA factory to use.",
          "metadata": "The metadata provider to use.",
          "ownerAddress": "The address that will receive the specified roles.",
          "ownerRoles": "The roles to grant to `ownerAddress`."
        }
      },
      "getAssigneeCount(uint256,uint256)": {
        "params": {
          "resource": "The resource to check.",
          "roleBitmap": "The roles bitmap to check."
        },
        "returns": {
          "counts": "The number of assignees for each of the roles in the given role bitmap, expressed as a packed array of 4-bit ints.",
          "mask": "The mask for the given role bitmap."
        }
      },
      "getExpiry(uint256)": {
        "params": {
          "anyId": "The labelhash, token ID, or resource."
        },
        "returns": {
          "_0": "The expiry of the label, in seconds."
        }
      },
      "getParent()": {
        "returns": {
          "label": "The canonical subdomain of this registry.",
          "parent": "The canonical parent of this registry."
        }
      },
      "getResolver(string)": {
        "params": {
          "label": "The label to fetch a resolver for."
        },
        "returns": {
          "_0": "resolver The address of a resolver responsible for this label, or `address(0)` if none exists."
        }
      },
      "getResource(uint256)": {
        "params": {
          "anyId": "The labelhash, token ID, or resource."
        },
        "returns": {
          "_0": "The resource."
        }
      },
      "getState(uint256)": {
        "params": {
          "anyId": "The labelhash, token ID, or resource."
        },
        "returns": {
          "state": "The state of the label."
        }
      },
      "getStatus(uint256)": {
        "params": {
          "anyId": "The labelhash, token ID, or resource."
        },
        "returns": {
          "_0": "The status of the label."
        }
      },
      "getSubregistry(string)": {
        "params": {
          "label": "The label to resolve."
        },
        "returns": {
          "_0": "The address of the registry for this label, or `address(0)` if none exists."
        }
      },
      "getTokenId(uint256)": {
        "params": {
          "anyId": "The labelhash, token ID, or resource."
        },
        "returns": {
          "_0": "The token ID."
        }
      },
      "grantRoles(uint256,uint256,address)": {
        "params": {
          "account": "The account to grant roles to.",
          "resource": "The resource to grant roles within.",
          "roleBitmap": "The roles bitmap to grant."
        },
        "returns": {
          "_0": "`true` if the roles were granted, `false` otherwise."
        }
      },
      "grantRootRoles(uint256,address)": {
        "details": "The caller must have all the necessary admin roles for the roles being granted.",
        "params": {
          "account": "The account to grant roles to.",
          "roleBitmap": "The roles bitmap to grant."
        },
        "returns": {
          "_0": "`true` if the roles were granted, `false` otherwise."
        }
      },
      "hasAssignees(uint256,uint256)": {
        "params": {
          "resource": "The resource to check.",
          "roleBitmap": "The roles bitmap to check."
        },
        "returns": {
          "_0": "`true` if any of the roles in the given role bitmap has assignees, `false` otherwise."
        }
      },
      "hasRoles(uint256,uint256,address)": {
        "params": {
          "account": "The account to check.",
          "resource": "The resource to check.",
          "roleBitmap": "The roles bitmap to check."
        },
        "returns": {
          "_0": "`true` if `account` has been granted all the given roles in the given resource or the `ROOT_RESOURCE`, `false` otherwise."
        }
      },
      "hasRootRoles(uint256,address)": {
        "params": {
          "account": "The account to check.",
          "roleBitmap": "The roles bitmap to check."
        },
        "returns": {
          "_0": "`true` if `account` has been granted all the given roles in the `ROOT_RESOURCE`, `false` otherwise."
        }
      },
      "isApprovedForAll(address,address)": {
        "params": {
          "account": "The account to get the approval for.",
          "operator": "The operator to get the approval for."
        },
        "returns": {
          "_0": "approved The approval status."
        }
      },
      "latestOwnerOf(uint256)": {
        "params": {
          "tokenId": "The token ID to query."
        },
        "returns": {
          "_0": "The latest owner address."
        }
      },
      "ownerOf(uint256)": {
        "params": {
          "id": "The token ID."
        },
        "returns": {
          "_0": "The owner of the token."
        }
      },
      "register(string,address,address,address,uint256,uint64)": {
        "details": "If `AVAILABLE`, requires `ROLE_REGISTRAR` on root.         * If `owner` is null (`roleBitmap` must be 0), status becomes `RESERVED` instead of `REGISTERED`.      If `RESERVED`, requires `ROLE_REGISTER_RESERVED` on root.         * If `expiry` is 0, uses current expiry.",
        "params": {
          "expiry": "The expiry of the label, in seconds.",
          "label": "The label to register.",
          "owner": "The address of the owner of the label.",
          "registry": "The registry to set as the label.",
          "resolver": "The resolver to set for the label.",
          "roleBitmap": "The role bitmap to set for the label."
        },
        "returns": {
          "tokenId": "The token ID."
        }
      },
      "renew(uint256,uint64)": {
        "details": "Requires `REGISTERED | RESERVED` and `ROLE_RENEW`.",
        "params": {
          "anyId": "The labelhash, token ID, or resource.",
          "newExpiry": "The new expiry, in seconds."
        }
      },
      "revokeRoles(uint256,uint256,address)": {
        "params": {
          "account": "The account to revoke roles from.",
          "resource": "The resource to revoke roles within.",
          "roleBitmap": "The roles bitmap to revoke."
        },
        "returns": {
          "_0": "`true` if the roles were revoked, `false` otherwise."
        }
      },
      "revokeRootRoles(uint256,address)": {
        "details": "The caller must have all the necessary admin roles for the roles being revoked.",
        "params": {
          "account": "The account to revoke roles from.",
          "roleBitmap": "The roles bitmap to revoke."
        },
        "returns": {
          "_0": "`true` if the roles were revoked, `false` otherwise."
        }
      },
      "roleCount(uint256)": {
        "params": {
          "resource": "The resource to get the role count for."
        },
        "returns": {
          "_0": "count The role count bitmap for the resource."
        }
      },
      "roles(uint256,address)": {
        "params": {
          "account": "The account to get the roles for.",
          "resource": "The resource to get the roles for."
        },
        "returns": {
          "_0": "The roles bitmap for the account in the resource."
        }
      },
      "safeBatchTransferFrom(address,address,uint256[],uint256[],bytes)": {
        "details": "`ids` and `values` must have the same length.If `to` refers to a smart contract, it must implement IERC1155Receiver.onERC1155BatchReceived and return the      acceptance magic value.",
        "params": {
          "data": "Additional data to pass to the receiver.",
          "from": "The address to transfer the tokens from.",
          "ids": "The token IDs.",
          "to": "The address to transfer the tokens to.",
          "values": "The amounts of tokens to transfer."
        }
      },
      "safeTransferFrom(address,address,uint256,uint256,bytes)": {
        "details": "`to` cannot be the zero address.If the caller is not `from`, it must have been approved to spend `from`'s tokens via `setApprovalForAll`.`from` must have a balance of tokens of type `id` of at least `value` amount.If `to` refers to a smart contract, it must implement IERC1155Receiver.onERC1155Received and return the      acceptance magic value.",
        "params": {
          "data": "Additional data to pass to the receiver.",
          "from": "The address to transfer the token from.",
          "id": "The token ID.",
          "to": "The address to transfer the token to.",
          "value": "The amount of tokens to transfer."
        }
      },
      "setApprovalForAll(address,bool)": {
        "params": {
          "approved": "The approval status.",
          "operator": "The operator to set the approval for."
        }
      },
      "setParent(address,string)": {
        "details": "Should emit `ParentUpdated`.",
        "params": {
          "label": "The canonical subdomain of this registry.",
          "parent": "The canonical parent of this registry."
        }
      },
      "setResolver(uint256,address)": {
        "params": {
          "anyId": "The labelhash, token ID, or resource.",
          "resolver": "The new resolver."
        }
      },
      "setSubregistry(uint256,address)": {
        "params": {
          "anyId": "The labelhash, token ID, or resource.",
          "registry": "The new registry."
        }
      },
      "supportsInterface(bytes4)": {
        "details": "Returns true if this contract implements the interface defined by `interfaceId`. See the corresponding https://eips.ethereum.org/EIPS/eip-165#how-interfaces-are-identified[ERC section] to learn more about how these ids are created. This function call must use less than 30 000 gas."
      },
      "unregister(uint256)": {
        "details": "Requires `REGISTERED | RESERVED` and `ROLE_UNREGISTER`.",
        "params": {
          "anyId": "The labelhash, token ID, or resource."
        }
      },
      "uri(uint256)": {
        "params": {
          "id": "The token ID."
        },
        "returns": {
          "_0": "The URI for the token."
        }
      }
    },
    "stateVariables": {
      "_childLabel": {
        "details": "The child label of this registry."
      },
      "_entries": {
        "details": "The entries of this registry."
      },
      "_parentRegistry": {
        "details": "The parent registry of this registry."
      }
    },
    "version": 1
  },
  "evm": {
    "gasEstimates": {
      "creation": {
        "codeDepositCost": "2793000",
        "executionCost": "infinite",
        "totalCost": "infinite"
      },
      "external": {
        "HCA_FACTORY()": "infinite",
        "METADATA_PROVIDER()": "infinite",
        "ROOT_RESOURCE()": "272",
        "balanceOf(address,uint256)": "infinite",
        "balanceOfBatch(address[],uint256[])": "infinite",
        "getAssigneeCount(uint256,uint256)": "5105",
        "getExpiry(uint256)": "2559",
        "getParent()": "infinite",
        "getResolver(string)": "infinite",
        "getResource(uint256)": "2673",
        "getState(uint256)": "infinite",
        "getStatus(uint256)": "infinite",
        "getSubregistry(string)": "infinite",
        "getTokenId(uint256)": "2640",
        "grantRoles(uint256,uint256,address)": "infinite",
        "grantRootRoles(uint256,address)": "infinite",
        "hasAssignees(uint256,uint256)": "infinite",
        "hasRoles(uint256,uint256,address)": "7261",
        "hasRootRoles(uint256,address)": "2664",
        "isApprovedForAll(address,address)": "infinite",
        "latestOwnerOf(uint256)": "2597",
        "ownerOf(uint256)": "infinite",
        "register(string,address,address,address,uint256,uint64)": "infinite",
        "renew(uint256,uint64)": "infinite",
        "revokeRoles(uint256,uint256,address)": "infinite",
        "revokeRootRoles(uint256,address)": "infinite",
        "roleCount(uint256)": "infinite",
        "roles(uint256,address)": "infinite",
        "safeBatchTransferFrom(address,address,uint256[],uint256[],bytes)": "infinite",
        "safeTransferFrom(address,address,uint256,uint256,bytes)": "infinite",
        "setApprovalForAll(address,bool)": "infinite",
        "setParent(address,string)": "infinite",
        "setResolver(uint256,address)": "infinite",
        "setSubregistry(uint256,address)": "infinite",
        "supportsInterface(bytes4)": "infinite",
        "unregister(uint256)": "infinite",
        "uri(uint256)": "infinite"
      },
      "internal": {
        "_checkExpiryAndTokenRoles(uint256,uint256)": "infinite",
        "_constructResource(uint256,struct PermissionedRegistry.Entry storage pointer)": "2168",
        "_constructStatus(uint64,address)": "101",
        "_constructTokenId(uint256,struct PermissionedRegistry.Entry storage pointer)": "2179",
        "_entry(uint256)": "infinite",
        "_getRevokableRoles(uint256,address)": "4559",
        "_getSettableRoles(uint256,address)": "infinite",
        "_isExpired(uint64)": "infinite",
        "_onRolesGranted(uint256,address,uint256,uint256,uint256)": "infinite",
        "_onRolesRevoked(uint256,address,uint256,uint256,uint256)": "infinite",
        "_regenerate(uint256)": "infinite",
        "_update(address,address,uint256[] memory,uint256[] memory)": "infinite"
      }
    }
  },
  "storageLayout": {
    "storage": [
      {
        "astId": 68653,
        "contract": "project/src/registry/PermissionedRegistry.sol:PermissionedRegistry",
        "label": "_owners",
        "offset": 0,
        "slot": "0",
        "type": "t_mapping(t_uint256,t_address)"
      },
      {
        "astId": 68660,
        "contract": "project/src/registry/PermissionedRegistry.sol:PermissionedRegistry",
        "label": "_operatorApprovals",
        "offset": 0,
        "slot": "1",
        "type": "t_mapping(t_address,t_mapping(t_address,t_bool))"
      },
      {
        "astId": 65208,
        "contract": "project/src/registry/PermissionedRegistry.sol:PermissionedRegistry",
        "label": "_roles",
        "offset": 0,
        "slot": "2",
        "type": "t_mapping(t_uint256,t_mapping(t_address,t_uint256))"
      },
      {
        "astId": 65213,
        "contract": "project/src/registry/PermissionedRegistry.sol:PermissionedRegistry",
        "label": "_roleCount",
        "offset": 0,
        "slot": "3",
        "type": "t_mapping(t_uint256,t_uint256)"
      },
      {
        "astId": 73478,
        "contract": "project/src/registry/PermissionedRegistry.sol:PermissionedRegistry",
        "label": "_parentRegistry",
        "offset": 0,
        "slot": "4",
        "type": "t_contract(IRegistry)75609"
      },
      {
        "astId": 73481,
        "contract": "project/src/registry/PermissionedRegistry.sol:PermissionedRegistry",
        "label": "_childLabel",
        "offset": 0,
        "slot": "5",
        "type": "t_string_storage"
      },
      {
        "astId": 73487,
        "contract": "project/src/registry/PermissionedRegistry.sol:PermissionedRegistry",
        "label": "_entries",
        "offset": 0,
        "slot": "6",
        "type": "t_mapping(t_uint256,t_struct(Entry)73474_storage)"
      }
    ],
    "types": {
      "t_address": {
        "encoding": "inplace",
        "label": "address",
        "numberOfBytes": "20"
      },
      "t_bool": {
        "encoding": "inplace",
        "label": "bool",
        "numberOfBytes": "1"
      },
      "t_contract(IRegistry)75609": {
        "encoding": "inplace",
        "label": "contract IRegistry",
        "numberOfBytes": "20"
      },
      "t_mapping(t_address,t_bool)": {
        "encoding": "mapping",
        "key": "t_address",
        "label": "mapping(address => bool)",
        "numberOfBytes": "32",
        "value": "t_bool"
      },
      "t_mapping(t_address,t_mapping(t_address,t_bool))": {
        "encoding": "mapping",
        "key": "t_address",
        "label": "mapping(address => mapping(address => bool))",
        "numberOfBytes": "32",
        "value": "t_mapping(t_address,t_bool)"
      },
      "t_mapping(t_address,t_uint256)": {
        "encoding": "mapping",
        "key": "t_address",
        "label": "mapping(address => uint256)",
        "numberOfBytes": "32",
        "value": "t_uint256"
      },
      "t_mapping(t_uint256,t_address)": {
        "encoding": "mapping",
        "key": "t_uint256",
        "label": "mapping(uint256 => address)",
        "numberOfBytes": "32",
        "value": "t_address"
      },
      "t_mapping(t_uint256,t_mapping(t_address,t_uint256))": {
        "encoding": "mapping",
        "key": "t_uint256",
        "label": "mapping(uint256 => mapping(address => uint256))",
        "numberOfBytes": "32",
        "value": "t_mapping(t_address,t_uint256)"
      },
      "t_mapping(t_uint256,t_struct(Entry)73474_storage)": {
        "encoding": "mapping",
        "key": "t_uint256",
        "label": "mapping(uint256 => struct PermissionedRegistry.Entry)",
        "numberOfBytes": "32",
        "value": "t_struct(Entry)73474_storage"
      },
      "t_mapping(t_uint256,t_uint256)": {
        "encoding": "mapping",
        "key": "t_uint256",
        "label": "mapping(uint256 => uint256)",
        "numberOfBytes": "32",
        "value": "t_uint256"
      },
      "t_string_storage": {
        "encoding": "bytes",
        "label": "string",
        "numberOfBytes": "32"
      },
      "t_struct(Entry)73474_storage": {
        "encoding": "inplace",
        "label": "struct PermissionedRegistry.Entry",
        "members": [
          {
            "astId": 73460,
            "contract": "project/src/registry/PermissionedRegistry.sol:PermissionedRegistry",
            "label": "eacVersionId",
            "offset": 0,
            "slot": "0",
            "type": "t_uint32"
          },
          {
            "astId": 73463,
            "contract": "project/src/registry/PermissionedRegistry.sol:PermissionedRegistry",
            "label": "tokenVersionId",
            "offset": 4,
            "slot": "0",
            "type": "t_uint32"
          },
          {
            "astId": 73467,
            "contract": "project/src/registry/PermissionedRegistry.sol:PermissionedRegistry",
            "label": "subregistry",
            "offset": 8,
            "slot": "0",
            "type": "t_contract(IRegistry)75609"
          },
          {
            "astId": 73470,
            "contract": "project/src/registry/PermissionedRegistry.sol:PermissionedRegistry",
            "label": "expiry",
            "offset": 0,
            "slot": "1",
            "type": "t_uint64"
          },
          {
            "astId": 73473,
            "contract": "project/src/registry/PermissionedRegistry.sol:PermissionedRegistry",
            "label": "resolver",
            "offset": 8,
            "slot": "1",
            "type": "t_address"
          }
        ],
        "numberOfBytes": "64"
      },
      "t_uint256": {
        "encoding": "inplace",
        "label": "uint256",
        "numberOfBytes": "32"
      },
      "t_uint32": {
        "encoding": "inplace",
        "label": "uint32",
        "numberOfBytes": "4"
      },
      "t_uint64": {
        "encoding": "inplace",
        "label": "uint64",
        "numberOfBytes": "8"
      }
    }
  },
  "userdoc": {
    "errors": {
      "CannotReduceExpiry(uint64,uint64)": [
        {
          "notice": "Label expiry cannot be reduced."
        }
      ],
      "CannotSetPastExpiry(uint64)": [
        {
          "notice": "Label expiry cannot be before now."
        }
      ],
      "LabelAlreadyRegistered(string)": [
        {
          "notice": "Label is already registered."
        }
      ],
      "LabelAlreadyReserved(string)": [
        {
          "notice": "Label cannot be reserved again."
        }
      ],
      "LabelExpired(uint256)": [
        {
          "notice": "Label is expired/unregistered."
        }
      ],
      "TransferDisallowed(uint256,address)": [
        {
          "notice": "Transfer is not allowed due to missing transfer admin role."
        }
      ]
    },
    "events": {
      "Approval(address,address,uint256)": {
        "notice": "An approval for all operator was set."
      },
      "EACRolesChanged(uint256,address,uint256,uint256)": {
        "notice": "Emitted when roles are changed."
      },
      "ExpiryUpdated(uint256,uint64,address)": {
        "notice": "Expiry of label was changed."
      },
      "LabelRegistered(uint256,bytes32,string,address,uint64,address)": {
        "notice": "A label was registered."
      },
      "LabelReserved(uint256,bytes32,string,uint64,address)": {
        "notice": "A label was reserved."
      },
      "LabelUnregistered(uint256,address)": {
        "notice": "A label was unregistered."
      },
      "ParentUpdated(address,string,address)": {
        "notice": "Parent was changed."
      },
      "ResolverUpdated(uint256,address,address)": {
        "notice": "Resolver of label was changed."
      },
      "SubregistryUpdated(uint256,address,address)": {
        "notice": "Subregistry of label was changed."
      },
      "TokenRegenerated(uint256,uint256)": {
        "notice": "Token was regenerated with a new token ID.         This occurs when roles are granted or revoked to maintain ERC1155 compliance."
      },
      "TokenResource(uint256,uint256)": {
        "notice": "Associate a token with an EAC resource."
      }
    },
    "kind": "user",
    "methods": {
      "HCA_FACTORY()": {
        "notice": "The HCA factory contract"
      },
      "METADATA_PROVIDER()": {
        "notice": "The metadata provider contract"
      },
      "ROOT_RESOURCE()": {
        "notice": "The `ROOT_RESOURCE`."
      },
      "balanceOf(address,uint256)": {
        "notice": "Returns the balance of a token for an account."
      },
      "balanceOfBatch(address[],uint256[])": {
        "notice": "Returns the balances of a batch of tokens for an account."
      },
      "constructor": {
        "notice": "Initializes the PermissionedRegistry."
      },
      "getAssigneeCount(uint256,uint256)": {
        "notice": "Returns the number of assignees for the roles in the given role bitmap."
      },
      "getExpiry(uint256)": {
        "notice": "Get expiry of label."
      },
      "getParent()": {
        "notice": "Get canonical \"location\" of this registry."
      },
      "getResolver(string)": {
        "notice": "Fetches the resolver responsible for the specified label."
      },
      "getResource(uint256)": {
        "notice": "Get `resource` from `anyId`."
      },
      "getState(uint256)": {
        "notice": "Get the state of a label."
      },
      "getStatus(uint256)": {
        "notice": "Get `Status` from `anyId`."
      },
      "getSubregistry(string)": {
        "notice": "Fetches the registry for a label."
      },
      "getTokenId(uint256)": {
        "notice": "Get `tokenId` from `anyId`."
      },
      "grantRoles(uint256,uint256,address)": {
        "notice": "Grants all roles in the given role bitmap to `account`."
      },
      "grantRootRoles(uint256,address)": {
        "notice": "Grants all roles in the given role bitmap to `account` in the ROOT_RESOURCE."
      },
      "hasAssignees(uint256,uint256)": {
        "notice": "Checks if any of the roles in the given role bitmap has assignees."
      },
      "hasRoles(uint256,uint256,address)": {
        "notice": "Checks if the given account has been granted all the given roles in the given resource or the `ROOT_RESOURCE`."
      },
      "hasRootRoles(uint256,address)": {
        "notice": "Checks if the given account has been granted all the given roles in the `ROOT_RESOURCE`."
      },
      "isApprovedForAll(address,address)": {
        "notice": "Returns the approval for all operator."
      },
      "latestOwnerOf(uint256)": {
        "notice": "Get the latest owner of a token.         If the token was burned, returns null."
      },
      "ownerOf(uint256)": {
        "notice": "Returns the owner of a token."
      },
      "register(string,address,address,address,uint256,uint64)": {
        "notice": "Registers a new label."
      },
      "renew(uint256,uint64)": {
        "notice": "Renew a label."
      },
      "revokeRoles(uint256,uint256,address)": {
        "notice": "Revokes all roles in the given role bitmap from `account`."
      },
      "revokeRootRoles(uint256,address)": {
        "notice": "Revokes all roles in the given role bitmap from `account` in the ROOT_RESOURCE."
      },
      "roleCount(uint256)": {
        "notice": "Returns the role count bitmap for a resource."
      },
      "roles(uint256,address)": {
        "notice": "Returns the roles bitmap for an account in a resource."
      },
      "safeBatchTransferFrom(address,address,uint256[],uint256[],bytes)": {
        "notice": "Transfers multiple tokens from one address to another."
      },
      "safeTransferFrom(address,address,uint256,uint256,bytes)": {
        "notice": "Transfers a single token from one address to another."
      },
      "setApprovalForAll(address,bool)": {
        "notice": "Sets the approval for all operator."
      },
      "setParent(address,string)": {
        "notice": "Change canonical \"location\"."
      },
      "setResolver(uint256,address)": {
        "notice": "Change resolver of label."
      },
      "setSubregistry(uint256,address)": {
        "notice": "Change registry of label."
      },
      "unregister(uint256)": {
        "notice": "Delete a label."
      },
      "uri(uint256)": {
        "notice": "Returns the URI for a token."
      }
    },
    "notice": "A tokenized (ERC1155) registry with resource-scoped access control for subdomain management. Many functions accept an `anyId` parameter that can be a labelhash, tokenId, or resource interchangeably. Internally, `_entry()` zeroes version bits (via `LibLabel.withVersion(anyId, 0)`) to resolve any of these to the canonical storage slot for the name. The registry maintains two independent version counters per name:   - `eacVersionId`: incremented on unregister/re-register. Combined with the labelhash to form     the EAC resource ID. This means a re-registered name gets a fresh permission scope.   - `tokenVersionId`: incremented on unregister and whenever the token is regenerated (burn + mint)     due to role changes. Combined with the labelhash to form the ERC1155 token ID, ensuring     changes to roles create new tokens and prevent frontrunning a transfer with a role revocation. Names are treated as `AVAILABLE` once `block.timestamp >= expiry`. State diagram:                      register()                   +ROLE_REGISTRAR       +------------------->----------------------+       |                                          |       |                renew()                   |    renew()       |              +ROLE_RENEW                 |  +ROLE_RENEW       |               +------+                   |   +------+       |               |      |                   |   |      |       ʌ               ʌ      v                   v   v      |   AVAILABLE --------> RESERVED -------------> REGISTERED >--+       ʌ    register()    v       register()        v       |    w/owner=0     | +ROLE_REGISTER_RESERVED |       | +ROLE_REGISTRAR  |                         |       |                  |                         |       +--------<---------+------------<------------+                     unregister()                  +ROLE_UNREGISTER",
    "version": 1
  },
  "argsData": "0x00000000000000000000000012919bd18e9eb9f004e2faf78709d0319747d761000000000000000000000000f821ffd29058c4fb8e4d43b1a2a050af2c1f1ee0000000000000000000000000ffffffffff52d316b7bd028358089bc8066b8f800000000000000000000000000001011100000000000000000000000000000100",
  "transaction": {
    "hash": "0x80f01297b47ea79646906a206a1bf8182b2b870c18feb9ca96dd8e696ad07eef",
    "nonce": "0x1d38",
    "origin": "0xffffffffff52d316b7bd028358089bc8066b8f80"
  }
}