{
  "address": "0xbbf892aea9bb883b36bab2adc7831a6c63ef1e39",
  "abi": [
    {
      "inputs": [
        {
          "internalType": "contract IPermissionedRegistry",
          "name": "registry",
          "type": "address"
        },
        {
          "internalType": "contract IHCAFactoryBasic",
          "name": "hcaFactory",
          "type": "address"
        },
        {
          "internalType": "address",
          "name": "beneficiary",
          "type": "address"
        },
        {
          "internalType": "uint64",
          "name": "minCommitmentAge",
          "type": "uint64"
        },
        {
          "internalType": "uint64",
          "name": "maxCommitmentAge",
          "type": "uint64"
        },
        {
          "internalType": "uint64",
          "name": "minRegisterDuration",
          "type": "uint64"
        },
        {
          "internalType": "contract IRentPriceOracle",
          "name": "rentPriceOracle_",
          "type": "address"
        }
      ],
      "stateMutability": "nonpayable",
      "type": "constructor"
    },
    {
      "inputs": [
        {
          "internalType": "bytes32",
          "name": "commitment",
          "type": "bytes32"
        },
        {
          "internalType": "uint64",
          "name": "validFrom",
          "type": "uint64"
        },
        {
          "internalType": "uint64",
          "name": "blockTimestamp",
          "type": "uint64"
        }
      ],
      "name": "CommitmentTooNew",
      "type": "error"
    },
    {
      "inputs": [
        {
          "internalType": "bytes32",
          "name": "commitment",
          "type": "bytes32"
        },
        {
          "internalType": "uint64",
          "name": "validTo",
          "type": "uint64"
        },
        {
          "internalType": "uint64",
          "name": "blockTimestamp",
          "type": "uint64"
        }
      ],
      "name": "CommitmentTooOld",
      "type": "error"
    },
    {
      "inputs": [
        {
          "internalType": "uint64",
          "name": "duration",
          "type": "uint64"
        },
        {
          "internalType": "uint64",
          "name": "minDuration",
          "type": "uint64"
        }
      ],
      "name": "DurationTooShort",
      "type": "error"
    },
    {
      "inputs": [
        {
          "internalType": "uint256",
          "name": "resource",
          "type": "uint256"
        },
        {
          "internalType": "uint256",
          "name": "roleBitmap",
          "type": "uint256"
        },
        {
          "internalType": "address",
          "name": "account",
          "type": "address"
        }
      ],
      "name": "EACCannotGrantRoles",
      "type": "error"
    },
    {
      "inputs": [
        {
          "internalType": "uint256",
          "name": "resource",
          "type": "uint256"
        },
        {
          "internalType": "uint256",
          "name": "roleBitmap",
          "type": "uint256"
        },
        {
          "internalType": "address",
          "name": "account",
          "type": "address"
        }
      ],
      "name": "EACCannotRevokeRoles",
      "type": "error"
    },
    {
      "inputs": [],
      "name": "EACInvalidAccount",
      "type": "error"
    },
    {
      "inputs": [
        {
          "internalType": "uint256",
          "name": "roleBitmap",
          "type": "uint256"
        }
      ],
      "name": "EACInvalidRoleBitmap",
      "type": "error"
    },
    {
      "inputs": [
        {
          "internalType": "uint256",
          "name": "resource",
          "type": "uint256"
        },
        {
          "internalType": "uint256",
          "name": "role",
          "type": "uint256"
        }
      ],
      "name": "EACMaxAssignees",
      "type": "error"
    },
    {
      "inputs": [
        {
          "internalType": "uint256",
          "name": "resource",
          "type": "uint256"
        },
        {
          "internalType": "uint256",
          "name": "role",
          "type": "uint256"
        }
      ],
      "name": "EACMinAssignees",
      "type": "error"
    },
    {
      "inputs": [],
      "name": "EACRootResourceNotAllowed",
      "type": "error"
    },
    {
      "inputs": [
        {
          "internalType": "uint256",
          "name": "resource",
          "type": "uint256"
        },
        {
          "internalType": "uint256",
          "name": "roleBitmap",
          "type": "uint256"
        },
        {
          "internalType": "address",
          "name": "account",
          "type": "address"
        }
      ],
      "name": "EACUnauthorizedAccountRoles",
      "type": "error"
    },
    {
      "inputs": [],
      "name": "InvalidOwner",
      "type": "error"
    },
    {
      "inputs": [],
      "name": "MaxCommitmentAgeTooLow",
      "type": "error"
    },
    {
      "inputs": [
        {
          "internalType": "string",
          "name": "label",
          "type": "string"
        }
      ],
      "name": "NameIsAvailable",
      "type": "error"
    },
    {
      "inputs": [
        {
          "internalType": "string",
          "name": "label",
          "type": "string"
        }
      ],
      "name": "NameNotAvailable",
      "type": "error"
    },
    {
      "inputs": [
        {
          "internalType": "string",
          "name": "label",
          "type": "string"
        }
      ],
      "name": "NotValid",
      "type": "error"
    },
    {
      "inputs": [
        {
          "internalType": "contract IERC20",
          "name": "paymentToken",
          "type": "address"
        }
      ],
      "name": "PaymentTokenNotSupported",
      "type": "error"
    },
    {
      "inputs": [
        {
          "internalType": "address",
          "name": "token",
          "type": "address"
        }
      ],
      "name": "SafeERC20FailedOperation",
      "type": "error"
    },
    {
      "inputs": [
        {
          "internalType": "bytes32",
          "name": "commitment",
          "type": "bytes32"
        }
      ],
      "name": "UnexpiredCommitmentExists",
      "type": "error"
    },
    {
      "anonymous": false,
      "inputs": [
        {
          "indexed": false,
          "internalType": "bytes32",
          "name": "commitment",
          "type": "bytes32"
        }
      ],
      "name": "CommitmentMade",
      "type": "event"
    },
    {
      "anonymous": false,
      "inputs": [
        {
          "indexed": true,
          "internalType": "uint256",
          "name": "resource",
          "type": "uint256"
        },
        {
          "indexed": true,
          "internalType": "address",
          "name": "account",
          "type": "address"
        },
        {
          "indexed": false,
          "internalType": "uint256",
          "name": "oldRoleBitmap",
          "type": "uint256"
        },
        {
          "indexed": false,
          "internalType": "uint256",
          "name": "newRoleBitmap",
          "type": "uint256"
        }
      ],
      "name": "EACRolesChanged",
      "type": "event"
    },
    {
      "anonymous": false,
      "inputs": [
        {
          "indexed": true,
          "internalType": "uint256",
          "name": "tokenId",
          "type": "uint256"
        },
        {
          "indexed": false,
          "internalType": "string",
          "name": "label",
          "type": "string"
        },
        {
          "indexed": false,
          "internalType": "address",
          "name": "owner",
          "type": "address"
        },
        {
          "indexed": false,
          "internalType": "contract IRegistry",
          "name": "subregistry",
          "type": "address"
        },
        {
          "indexed": false,
          "internalType": "address",
          "name": "resolver",
          "type": "address"
        },
        {
          "indexed": false,
          "internalType": "uint64",
          "name": "duration",
          "type": "uint64"
        },
        {
          "indexed": false,
          "internalType": "contract IERC20",
          "name": "paymentToken",
          "type": "address"
        },
        {
          "indexed": false,
          "internalType": "bytes32",
          "name": "referrer",
          "type": "bytes32"
        },
        {
          "indexed": false,
          "internalType": "uint256",
          "name": "base",
          "type": "uint256"
        },
        {
          "indexed": false,
          "internalType": "uint256",
          "name": "premium",
          "type": "uint256"
        }
      ],
      "name": "NameRegistered",
      "type": "event"
    },
    {
      "anonymous": false,
      "inputs": [
        {
          "indexed": true,
          "internalType": "uint256",
          "name": "tokenId",
          "type": "uint256"
        },
        {
          "indexed": false,
          "internalType": "string",
          "name": "label",
          "type": "string"
        },
        {
          "indexed": false,
          "internalType": "uint64",
          "name": "duration",
          "type": "uint64"
        },
        {
          "indexed": false,
          "internalType": "uint64",
          "name": "newExpiry",
          "type": "uint64"
        },
        {
          "indexed": false,
          "internalType": "contract IERC20",
          "name": "paymentToken",
          "type": "address"
        },
        {
          "indexed": false,
          "internalType": "bytes32",
          "name": "referrer",
          "type": "bytes32"
        },
        {
          "indexed": false,
          "internalType": "uint256",
          "name": "base",
          "type": "uint256"
        }
      ],
      "name": "NameRenewed",
      "type": "event"
    },
    {
      "anonymous": false,
      "inputs": [
        {
          "indexed": true,
          "internalType": "contract IERC20",
          "name": "paymentToken",
          "type": "address"
        }
      ],
      "name": "PaymentTokenAdded",
      "type": "event"
    },
    {
      "anonymous": false,
      "inputs": [
        {
          "indexed": true,
          "internalType": "contract IERC20",
          "name": "paymentToken",
          "type": "address"
        }
      ],
      "name": "PaymentTokenRemoved",
      "type": "event"
    },
    {
      "anonymous": false,
      "inputs": [
        {
          "indexed": false,
          "internalType": "contract IRentPriceOracle",
          "name": "oracle",
          "type": "address"
        }
      ],
      "name": "RentPriceOracleChanged",
      "type": "event"
    },
    {
      "inputs": [],
      "name": "BENEFICIARY",
      "outputs": [
        {
          "internalType": "address",
          "name": "",
          "type": "address"
        }
      ],
      "stateMutability": "view",
      "type": "function"
    },
    {
      "inputs": [],
      "name": "HCA_FACTORY",
      "outputs": [
        {
          "internalType": "contract IHCAFactoryBasic",
          "name": "",
          "type": "address"
        }
      ],
      "stateMutability": "view",
      "type": "function"
    },
    {
      "inputs": [],
      "name": "MAX_COMMITMENT_AGE",
      "outputs": [
        {
          "internalType": "uint64",
          "name": "",
          "type": "uint64"
        }
      ],
      "stateMutability": "view",
      "type": "function"
    },
    {
      "inputs": [],
      "name": "MIN_COMMITMENT_AGE",
      "outputs": [
        {
          "internalType": "uint64",
          "name": "",
          "type": "uint64"
        }
      ],
      "stateMutability": "view",
      "type": "function"
    },
    {
      "inputs": [],
      "name": "MIN_REGISTER_DURATION",
      "outputs": [
        {
          "internalType": "uint64",
          "name": "",
          "type": "uint64"
        }
      ],
      "stateMutability": "view",
      "type": "function"
    },
    {
      "inputs": [],
      "name": "REGISTRY",
      "outputs": [
        {
          "internalType": "contract IPermissionedRegistry",
          "name": "",
          "type": "address"
        }
      ],
      "stateMutability": "view",
      "type": "function"
    },
    {
      "inputs": [],
      "name": "ROOT_RESOURCE",
      "outputs": [
        {
          "internalType": "uint256",
          "name": "",
          "type": "uint256"
        }
      ],
      "stateMutability": "view",
      "type": "function"
    },
    {
      "inputs": [
        {
          "internalType": "bytes32",
          "name": "commitment",
          "type": "bytes32"
        }
      ],
      "name": "commit",
      "outputs": [],
      "stateMutability": "nonpayable",
      "type": "function"
    },
    {
      "inputs": [
        {
          "internalType": "bytes32",
          "name": "commitment",
          "type": "bytes32"
        }
      ],
      "name": "commitmentAt",
      "outputs": [
        {
          "internalType": "uint64",
          "name": "commitTime",
          "type": "uint64"
        }
      ],
      "stateMutability": "view",
      "type": "function"
    },
    {
      "inputs": [
        {
          "internalType": "uint256",
          "name": "resource",
          "type": "uint256"
        },
        {
          "internalType": "uint256",
          "name": "roleBitmap",
          "type": "uint256"
        }
      ],
      "name": "getAssigneeCount",
      "outputs": [
        {
          "internalType": "uint256",
          "name": "counts",
          "type": "uint256"
        },
        {
          "internalType": "uint256",
          "name": "mask",
          "type": "uint256"
        }
      ],
      "stateMutability": "view",
      "type": "function"
    },
    {
      "inputs": [
        {
          "internalType": "uint256",
          "name": "resource",
          "type": "uint256"
        },
        {
          "internalType": "uint256",
          "name": "roleBitmap",
          "type": "uint256"
        },
        {
          "internalType": "address",
          "name": "account",
          "type": "address"
        }
      ],
      "name": "grantRoles",
      "outputs": [
        {
          "internalType": "bool",
          "name": "",
          "type": "bool"
        }
      ],
      "stateMutability": "nonpayable",
      "type": "function"
    },
    {
      "inputs": [
        {
          "internalType": "uint256",
          "name": "roleBitmap",
          "type": "uint256"
        },
        {
          "internalType": "address",
          "name": "account",
          "type": "address"
        }
      ],
      "name": "grantRootRoles",
      "outputs": [
        {
          "internalType": "bool",
          "name": "",
          "type": "bool"
        }
      ],
      "stateMutability": "nonpayable",
      "type": "function"
    },
    {
      "inputs": [
        {
          "internalType": "uint256",
          "name": "resource",
          "type": "uint256"
        },
        {
          "internalType": "uint256",
          "name": "roleBitmap",
          "type": "uint256"
        }
      ],
      "name": "hasAssignees",
      "outputs": [
        {
          "internalType": "bool",
          "name": "",
          "type": "bool"
        }
      ],
      "stateMutability": "view",
      "type": "function"
    },
    {
      "inputs": [
        {
          "internalType": "uint256",
          "name": "resource",
          "type": "uint256"
        },
        {
          "internalType": "uint256",
          "name": "roleBitmap",
          "type": "uint256"
        },
        {
          "internalType": "address",
          "name": "account",
          "type": "address"
        }
      ],
      "name": "hasRoles",
      "outputs": [
        {
          "internalType": "bool",
          "name": "",
          "type": "bool"
        }
      ],
      "stateMutability": "view",
      "type": "function"
    },
    {
      "inputs": [
        {
          "internalType": "uint256",
          "name": "roleBitmap",
          "type": "uint256"
        },
        {
          "internalType": "address",
          "name": "account",
          "type": "address"
        }
      ],
      "name": "hasRootRoles",
      "outputs": [
        {
          "internalType": "bool",
          "name": "",
          "type": "bool"
        }
      ],
      "stateMutability": "view",
      "type": "function"
    },
    {
      "inputs": [
        {
          "internalType": "string",
          "name": "label",
          "type": "string"
        }
      ],
      "name": "isAvailable",
      "outputs": [
        {
          "internalType": "bool",
          "name": "",
          "type": "bool"
        }
      ],
      "stateMutability": "view",
      "type": "function"
    },
    {
      "inputs": [
        {
          "internalType": "contract IERC20",
          "name": "paymentToken",
          "type": "address"
        }
      ],
      "name": "isPaymentToken",
      "outputs": [
        {
          "internalType": "bool",
          "name": "",
          "type": "bool"
        }
      ],
      "stateMutability": "view",
      "type": "function"
    },
    {
      "inputs": [
        {
          "internalType": "string",
          "name": "label",
          "type": "string"
        }
      ],
      "name": "isValid",
      "outputs": [
        {
          "internalType": "bool",
          "name": "",
          "type": "bool"
        }
      ],
      "stateMutability": "view",
      "type": "function"
    },
    {
      "inputs": [
        {
          "internalType": "string",
          "name": "label",
          "type": "string"
        },
        {
          "internalType": "address",
          "name": "owner",
          "type": "address"
        },
        {
          "internalType": "bytes32",
          "name": "secret",
          "type": "bytes32"
        },
        {
          "internalType": "contract IRegistry",
          "name": "subregistry",
          "type": "address"
        },
        {
          "internalType": "address",
          "name": "resolver",
          "type": "address"
        },
        {
          "internalType": "uint64",
          "name": "duration",
          "type": "uint64"
        },
        {
          "internalType": "bytes32",
          "name": "referrer",
          "type": "bytes32"
        }
      ],
      "name": "makeCommitment",
      "outputs": [
        {
          "internalType": "bytes32",
          "name": "",
          "type": "bytes32"
        }
      ],
      "stateMutability": "pure",
      "type": "function"
    },
    {
      "inputs": [
        {
          "internalType": "string",
          "name": "label",
          "type": "string"
        },
        {
          "internalType": "address",
          "name": "owner",
          "type": "address"
        },
        {
          "internalType": "bytes32",
          "name": "secret",
          "type": "bytes32"
        },
        {
          "internalType": "contract IRegistry",
          "name": "subregistry",
          "type": "address"
        },
        {
          "internalType": "address",
          "name": "resolver",
          "type": "address"
        },
        {
          "internalType": "uint64",
          "name": "duration",
          "type": "uint64"
        },
        {
          "internalType": "contract IERC20",
          "name": "paymentToken",
          "type": "address"
        },
        {
          "internalType": "bytes32",
          "name": "referrer",
          "type": "bytes32"
        }
      ],
      "name": "register",
      "outputs": [
        {
          "internalType": "uint256",
          "name": "tokenId",
          "type": "uint256"
        }
      ],
      "stateMutability": "nonpayable",
      "type": "function"
    },
    {
      "inputs": [
        {
          "internalType": "string",
          "name": "label",
          "type": "string"
        },
        {
          "internalType": "uint64",
          "name": "duration",
          "type": "uint64"
        },
        {
          "internalType": "contract IERC20",
          "name": "paymentToken",
          "type": "address"
        },
        {
          "internalType": "bytes32",
          "name": "referrer",
          "type": "bytes32"
        }
      ],
      "name": "renew",
      "outputs": [],
      "stateMutability": "nonpayable",
      "type": "function"
    },
    {
      "inputs": [
        {
          "internalType": "string",
          "name": "label",
          "type": "string"
        },
        {
          "internalType": "address",
          "name": "owner",
          "type": "address"
        },
        {
          "internalType": "uint64",
          "name": "duration",
          "type": "uint64"
        },
        {
          "internalType": "contract IERC20",
          "name": "paymentToken",
          "type": "address"
        }
      ],
      "name": "rentPrice",
      "outputs": [
        {
          "internalType": "uint256",
          "name": "base",
          "type": "uint256"
        },
        {
          "internalType": "uint256",
          "name": "premium",
          "type": "uint256"
        }
      ],
      "stateMutability": "view",
      "type": "function"
    },
    {
      "inputs": [],
      "name": "rentPriceOracle",
      "outputs": [
        {
          "internalType": "contract IRentPriceOracle",
          "name": "",
          "type": "address"
        }
      ],
      "stateMutability": "view",
      "type": "function"
    },
    {
      "inputs": [
        {
          "internalType": "uint256",
          "name": "resource",
          "type": "uint256"
        },
        {
          "internalType": "uint256",
          "name": "roleBitmap",
          "type": "uint256"
        },
        {
          "internalType": "address",
          "name": "account",
          "type": "address"
        }
      ],
      "name": "revokeRoles",
      "outputs": [
        {
          "internalType": "bool",
          "name": "",
          "type": "bool"
        }
      ],
      "stateMutability": "nonpayable",
      "type": "function"
    },
    {
      "inputs": [
        {
          "internalType": "uint256",
          "name": "roleBitmap",
          "type": "uint256"
        },
        {
          "internalType": "address",
          "name": "account",
          "type": "address"
        }
      ],
      "name": "revokeRootRoles",
      "outputs": [
        {
          "internalType": "bool",
          "name": "",
          "type": "bool"
        }
      ],
      "stateMutability": "nonpayable",
      "type": "function"
    },
    {
      "inputs": [
        {
          "internalType": "uint256",
          "name": "resource",
          "type": "uint256"
        }
      ],
      "name": "roleCount",
      "outputs": [
        {
          "internalType": "uint256",
          "name": "",
          "type": "uint256"
        }
      ],
      "stateMutability": "view",
      "type": "function"
    },
    {
      "inputs": [
        {
          "internalType": "uint256",
          "name": "resource",
          "type": "uint256"
        },
        {
          "internalType": "address",
          "name": "account",
          "type": "address"
        }
      ],
      "name": "roles",
      "outputs": [
        {
          "internalType": "uint256",
          "name": "",
          "type": "uint256"
        }
      ],
      "stateMutability": "view",
      "type": "function"
    },
    {
      "inputs": [
        {
          "internalType": "contract IRentPriceOracle",
          "name": "oracle",
          "type": "address"
        }
      ],
      "name": "setRentPriceOracle",
      "outputs": [],
      "stateMutability": "nonpayable",
      "type": "function"
    },
    {
      "inputs": [
        {
          "internalType": "bytes4",
          "name": "interfaceId",
          "type": "bytes4"
        }
      ],
      "name": "supportsInterface",
      "outputs": [
        {
          "internalType": "bool",
          "name": "",
          "type": "bool"
        }
      ],
      "stateMutability": "view",
      "type": "function"
    }
  ],
  "contractName": "ETHRegistrar",
  "sourceName": "src/registrar/ETHRegistrar.sol",
  "bytecode": "0x610140604052348015610010575f80fd5b5060405161297938038061297983398101604081905261002f91610487565b6001600160a01b0386166080526001600160401b0380851690841611610068576040516307cb550760e31b815260040160405180910390fd5b61009c5f7f1111111111111111111111111111111111111111111111111111111111111111610095610121565b600161012f565b506001600160a01b0387811660a05285811660c0526001600160401b0385811660e05284811661010052831661012052600280546001600160a01b03191691831691821790556040519081527f7b4a92e3fbfec1238b7378e16ebcd9d5e671fec7032dcfd720133643b358b4239060200160405180910390a150505050505050610576565b5f61012a61022a565b905090565b5f835f0361013e57505f610222565b610147846102c7565b6001600160a01b03831661016e5760405163761fe2c960e11b815260040160405180910390fd5b5f858152602081815260408083206001600160a01b038716845290915290205484811780821461021c575f878152602081815260408083206001600160a01b03891684529091529020819055811986166101ca88826001610313565b60408051848152602081018490526001600160a01b038816918a917f0d35bf721a39b614de00ca5038e1deb0cb0c69a278645e83405a7226cf80ba3c910160405180910390a360019350505050610222565b5f925050505b949350505050565b6080515f906001600160a01b031661024157503390565b60805160405163110ac5cb60e21b81523360048201525f916001600160a01b03169063442b172c90602401602060405180830381865afa158015610287573d5f803e3d5ffd5b505050506040513d601f19601f820116820180604052508101906102ab9190610514565b90506001600160a01b0381166102c2573391505090565b919050565b7feeeeeeeeeeeeeeeeeeeeeeeeeeeeeeeeeeeeeeeeeeeeeeeeeeeeeeeeeeeeeeee81161561031057604051630153d96960e51b8152600481018290526024015b60405180910390fd5b50565b5f61031d83610443565b905081156103b3575f848152600160205260409020546103639082161980195f8051602061295983398151915291909101165f8051602061293983398151915216151590565b1561038b57604051631f22ca6960e31b81526004810185905260248101849052604401610307565b5f84815260016020526040812080548592906103a890849061054a565b9091555061043d9050565b5f848152600160205260409020546103f2901982161980195f8051602061295983398151915291909101165f8051602061293983398151915216151590565b1561041a57604051631f80c19b60e01b81526004810185905260248101849052604401610307565b5f8481526001602052604081208054859290610437908490610563565b90915550505b50505050565b5f61044d826102c7565b50600181901b17600281901b1790565b6001600160a01b0381168114610310575f80fd5b80516001600160401b03811681146102c2575f80fd5b5f805f805f805f60e0888a03121561049d575f80fd5b87516104a88161045d565b60208901519097506104b98161045d565b60408901519096506104ca8161045d565b94506104d860608901610471565b93506104e660808901610471565b92506104f460a08901610471565b915060c08801516105048161045d565b8091505092959891949750929550565b5f60208284031215610524575f80fd5b815161052f8161045d565b9392505050565b634e487b7160e01b5f52601160045260245ffd5b8082018082111561055d5761055d610536565b92915050565b8181038181111561055d5761055d610536565b60805160a05160c05160e05161010051610120516123216106185f395f81816104ad01528181610c2a0152610c9d01525f818161044d01528181610f8001526116b001525f81816102c6015261161a01525f818161030c015281816109200152610df101525f81816101f7015281816107950152818161098a01528181610afb0152610e2901525f818161035b0152818161176401526117c501526123215ff3fe608060405234801561000f575f80fd5b50600436106101c6575f3560e01c8063781ef8db116100fe578063a2a11fbe1161009e578063d3bf89b11161006e578063d3bf89b1146104f5578063dfa70d8b14610556578063f14fcbc814610569578063f1dfaefb1461057c575f80fd5b8063a2a11fbe14610495578063a40938bd146104a8578063ce156e82146104cf578063cff3e7c2146104e2575f80fd5b806389d779c3116100d957806389d779c3146104335780638ccb9ea614610448578063930eaddc1461046f578063965306aa14610482575f80fd5b8063781ef8db146103c35780637b39ba161461040d5780637c30058614610420575f80fd5b80632e4f692a1161016957806331643fc91161014457806331643fc91461032e578063319c22bb146103565780633634f9111461037d5780635adf472414610390575f80fd5b80632e4f692a146102c15780632f27fa24146102e85780632f99c6cc14610307575f80fd5b806311b8e00a116101a457806311b8e00a1461024457806316a92535146102575780631c3fc3eb146102995780631e966f07146102ae575f80fd5b806301ffc9a7146101ca57806306433b1b146101f2578063072d5d7714610231575b5f80fd5b6101dd6101d8366004611acc565b61058f565b60405190151581526020015b60405180910390f35b6102197f000000000000000000000000000000000000000000000000000000000000000081565b6040516001600160a01b0390911681526020016101e9565b6101dd61023f366004611b07565b610606565b6101dd610252366004611b35565b610631565b610280610265366004611b55565b60036020525f908152604090205467ffffffffffffffff1681565b60405167ffffffffffffffff90911681526020016101e9565b6102a05f81565b6040519081526020016101e9565b6102a06102bc366004611bc6565b610648565b6102807f000000000000000000000000000000000000000000000000000000000000000081565b6102a06102f6366004611b55565b5f9081526001602052604090205490565b6102197f000000000000000000000000000000000000000000000000000000000000000081565b61034161033c366004611cff565b61068c565b604080519283526020830191909152016101e9565b6102197f000000000000000000000000000000000000000000000000000000000000000081565b61034161038b366004611b35565b61072a565b6102a061039e366004611b07565b5f918252602082815260408084206001600160a01b0393909316845291905290205490565b6101dd6103d1366004611b07565b6001600160a01b03165f9081527fad3228b676f7d3cd4284a5443f17f1962b36e491b30a40b2405849e597ba5fb5602052604090205481161490565b600254610219906001600160a01b031681565b6101dd61042e366004611d70565b61074d565b610446610441366004611da6565b610792565b005b6102807f000000000000000000000000000000000000000000000000000000000000000081565b6101dd61047d366004611e11565b610a3b565b6101dd610490366004611e2c565b610ac0565b6104466104a3366004611e11565b610b84565b6102807f000000000000000000000000000000000000000000000000000000000000000081565b6101dd6104dd366004611b07565b610c05565b6102a06104f0366004611e5e565b610c27565b6101dd610503366004611d70565b5f928352602083815260408085206001600160a01b03939093168552918152818420547fad3228b676f7d3cd4284a5443f17f1962b36e491b30a40b2405849e597ba5fb590915292205490911781161490565b6101dd610564366004611d70565b610f2f565b610446610577366004611b55565b610f6a565b6101dd61058a366004611f0c565b611053565b5f6001600160e01b031982167f290719510000000000000000000000000000000000000000000000000000000014806105f157506001600160e01b031982167f53b53cee00000000000000000000000000000000000000000000000000000000145b806106005750610600826110e4565b92915050565b5f808361061b828261061661114a565b611158565b6106285f86866001611246565b95945050505050565b5f8061063d848461072a565b501515949350505050565b5f8888888888888888604051602001610668989796959493929190611f73565b60405160208183030381529060405280519060200120905098975050505050505050565b6002546040517f31643fc90000000000000000000000000000000000000000000000000000000081525f9182916001600160a01b03909116906331643fc9906106df908990899089908990600401611fce565b6040805180830381865afa1580156106f9573d5f803e3d5ffd5b505050506040513d601f19601f8201168201806040525081019061071d919061202d565b9150915094509492505050565b5f806107358361135a565b5f948552600160205260409094205484169492505050565b5f838361075d828261061661114a565b8561077b57604051631850848b60e31b815260040160405180910390fd5b6107888686866001611246565b9695505050505050565b5f7f00000000000000000000000000000000000000000000000000000000000000006001600160a01b03166344c9af2861080088888080601f0160208091040260200160405190810160405280939291908181526020018383808284375f9201919091525061137492505050565b6040518263ffffffff1660e01b815260040161081e91815260200190565b60a060405180830381865afa158015610839573d5f803e3d5ffd5b505050506040513d601f19601f8201168201806040525081019061085d919061205d565b90505f81516002811115610873576108736120e1565b036108b75785856040517ff7681f140000000000000000000000000000000000000000000000000000000081526004016108ae9291906120f5565b60405180910390fd5b5f8482602001516108c8919061211c565b90505f61090f88888080601f0160208091040260200160405190810160405280939291908181526020018383808284375f920191909152505050506040850151888861068c565b5090506109458561091e61114a565b7f00000000000000000000000000000000000000000000000000000000000000008461137f565b60608301516040517f5569f33d000000000000000000000000000000000000000000000000000000008152600481019190915267ffffffffffffffff831660248201527f00000000000000000000000000000000000000000000000000000000000000006001600160a01b031690635569f33d906044015f604051808303815f87803b1580156109d3575f80fd5b505af11580156109e5573d5f803e3d5ffd5b5050505082606001517fbd0c01e5bf66003280556423db4a8bf79043c146ac57f657c30049dd43316649898989868a8a88604051610a299796959493929190612144565b60405180910390a25050505050505050565b6002546040517f930eaddc0000000000000000000000000000000000000000000000000000000081526001600160a01b0383811660048301525f92169063930eaddc90602401602060405180830381865afa158015610a9c573d5f803e3d5ffd5b505050506040513d601f19601f820116820180604052508101906106009190612197565b805160208201206040517f5c622a0e00000000000000000000000000000000000000000000000000000000815260048101919091525f9081907f00000000000000000000000000000000000000000000000000000000000000006001600160a01b031690635c622a0e90602401602060405180830381865afa158015610b48573d5f803e3d5ffd5b505050506040513d601f19601f82011682018060405250810190610b6c91906121b6565b6002811115610b7d57610b7d6120e1565b1492915050565b6001610b985f82610b9361114a565b611407565b600280547fffffffffffffffffffffffff0000000000000000000000000000000000000000166001600160a01b0384169081179091556040519081527f7b4a92e3fbfec1238b7378e16ebcd9d5e671fec7032dcfd720133643b358b4239060200160405180910390a15050565b5f8083610c1a8282610c1561114a565b6114a8565b6106285f86866001611590565b5f7f000000000000000000000000000000000000000000000000000000000000000067ffffffffffffffff168467ffffffffffffffff161015610cca576040517fa096b84400000000000000000000000000000000000000000000000000000000815267ffffffffffffffff80861660048301527f00000000000000000000000000000000000000000000000000000000000000001660248201526044016108ae565b6001600160a01b038816610d0a576040517f49e27cff00000000000000000000000000000000000000000000000000000000815260040160405180910390fd5b610d488a8a8080601f0160208091040260200160405190810160405280939291908181526020018383808284375f92019190915250610ac092505050565b610d825789896040517f477707e80000000000000000000000000000000000000000000000000000000081526004016108ae9291906120f5565b610d9a610d958b8b8b8b8b8b8b8a610648565b6115f8565b5f80610ddf8c8c8080601f0160208091040260200160405190810160405280939291908181526020018383808284375f920191909152508e92508a915089905061068c565b91509150610e1f85610def61114a565b7f0000000000000000000000000000000000000000000000000000000000000000610e1a85876121cf565b61137f565b6001600160a01b037f0000000000000000000000000000000000000000000000000000000000000000166385f3e6438d8d8d8c8c731110000000000000000000000000000001100000610e728e4261211c565b6040518863ffffffff1660e01b8152600401610e9497969594939291906121e2565b6020604051808303815f875af1158015610eb0573d5f803e3d5ffd5b505050506040513d601f19601f82011682018060405250810190610ed49190612237565b9250827febd3982eafd13b820e3edb2a4abd57a82ce3b8802e0cd45637a5de51383f9fac8d8d8d8c8c8c8c8c8b8b604051610f189a9998979695949392919061224e565b60405180910390a250509998505050505050505050565b5f8383610f3f8282610c1561114a565b85610f5d57604051631850848b60e31b815260040160405180910390fd5b6107888686866001611590565b5f818152600360205260409020544290610faf907f00000000000000000000000000000000000000000000000000000000000000009067ffffffffffffffff1661211c565b67ffffffffffffffff161115610ff4576040517f0a059d71000000000000000000000000000000000000000000000000000000008152600481018290526024016108ae565b5f81815260036020908152604091829020805467ffffffffffffffff19164267ffffffffffffffff1617905590518281527f561eb038a114723afa3c72b445add7b8602de546264da1e7e826af628316dbcb910160405180910390a150565b6002546040517ff1dfaefb0000000000000000000000000000000000000000000000000000000081525f916001600160a01b03169063f1dfaefb9061109e90869086906004016120f5565b602060405180830381865afa1580156110b9573d5f803e3d5ffd5b505050506040513d601f19601f820116820180604052508101906110dd9190612197565b9392505050565b5f6001600160e01b031982167f8f452d6200000000000000000000000000000000000000000000000000000000148061060057507f01ffc9a7000000000000000000000000000000000000000000000000000000006001600160e01b0319831614610600565b5f611153611761565b905090565b5f6111ea84836001600160a01b03165f8181527fad3228b676f7d3cd4284a5443f17f1962b36e491b30a40b2405849e597ba5fb5602090815260408083205494835282825280832093835292905220547f1111111111111111111111111111111100000000000000000000000000000000911790811660809190911c6f11111111111111111111111111111111161790565b90508019831615611240576040517fd1a3b35500000000000000000000000000000000000000000000000000000000815260048101859052602481018490526001600160a01b03831660448201526064016108ae565b50505050565b5f835f0361125557505f611352565b61125e84611852565b6001600160a01b03831661129e576040517fec3fc59200000000000000000000000000000000000000000000000000000000815260040160405180910390fd5b5f858152602081815260408083206001600160a01b038716845290915290205484811780821461134c575f878152602081815260408083206001600160a01b03891684529091529020819055811986166112fa888260016118b2565b60408051848152602081018490526001600160a01b038816918a917f0d35bf721a39b614de00ca5038e1deb0cb0c69a278645e83405a7226cf80ba3c910160405180910390a360019350505050611352565b5f925050505b949350505050565b5f61136482611852565b50600181901b17600281901b1790565b805160209091012090565b604080516001600160a01b0385811660248301528416604482015260648082018490528251808303909101815260849091019091526020810180517bffffffffffffffffffffffffffffffffffffffffffffffffffffffff167f23b872dd00000000000000000000000000000000000000000000000000000000179052611240908590611a47565b5f838152602081815260408083206001600160a01b03851684528252808320547fad3228b676f7d3cd4284a5443f17f1962b36e491b30a40b2405849e597ba5fb59092529091205417821682146114a3576040517f4b27a13300000000000000000000000000000000000000000000000000000000815260048101849052602481018390526001600160a01b03821660448201526064016108ae565b505050565b5f61153a84836001600160a01b03165f8181527fad3228b676f7d3cd4284a5443f17f1962b36e491b30a40b2405849e597ba5fb5602090815260408083205494835282825280832093835292905220547f1111111111111111111111111111111100000000000000000000000000000000911790811660809190911c6f11111111111111111111111111111111161790565b90508019831615611240576040517fa604e31800000000000000000000000000000000000000000000000000000000815260048101859052602481018490526001600160a01b03831660448201526064016108ae565b5f61159a84611852565b5f858152602081815260408083206001600160a01b03871684529091529020548419811680821461134c575f878152602081815260408083206001600160a01b03891684529091528120829055868316906112fa90899083906118b2565b5f81815260036020526040812054429167ffffffffffffffff9091169061163f7f00000000000000000000000000000000000000000000000000000000000000008361211c565b90508067ffffffffffffffff168367ffffffffffffffff1610156116aa576040517f6be614e30000000000000000000000000000000000000000000000000000000081526004810185905267ffffffffffffffff8083166024830152841660448201526064016108ae565b5f6116d57f00000000000000000000000000000000000000000000000000000000000000008461211c565b90508067ffffffffffffffff168467ffffffffffffffff161061173f576040517f0cb9df3f0000000000000000000000000000000000000000000000000000000081526004810186905267ffffffffffffffff8083166024830152851660448201526064016108ae565b5050505f91825250600360205260409020805467ffffffffffffffff19169055565b5f7f00000000000000000000000000000000000000000000000000000000000000006001600160a01b031661179557503390565b6040517f442b172c0000000000000000000000000000000000000000000000000000000081523360048201525f907f00000000000000000000000000000000000000000000000000000000000000006001600160a01b03169063442b172c90602401602060405180830381865afa158015611812573d5f803e3d5ffd5b505050506040513d601f19601f8201168201806040525081019061183691906122bd565b90506001600160a01b03811661184d573391505090565b919050565b7feeeeeeeeeeeeeeeeeeeeeeeeeeeeeeeeeeeeeeeeeeeeeeeeeeeeeeeeeeeeeeee8116156118af576040517f2a7b2d20000000000000000000000000000000000000000000000000000000008152600481018290526024016108ae565b50565b5f6118bc8361135a565b90508115611985575f848152600160205260409020547f888888888888888888888888888888888888888888888888888888888888888890821680197feeeeeeeeeeeeeeeeeeeeeeeeeeeeeeeeeeeeeeeeeeeeeeeeeeeeeeeeeeeeeeef0116161561195d576040517ff916534800000000000000000000000000000000000000000000000000000000815260048101859052602481018490526044016108ae565b5f848152600160205260408120805485929061197a9084906121cf565b909155506112409050565b5f848152600160205260409020547f88888888888888888888888888888888888888888888888888888888888888889019821680197feeeeeeeeeeeeeeeeeeeeeeeeeeeeeeeeeeeeeeeeeeeeeeeeeeeeeeeeeeeeeeef01161615611a1f576040517f1f80c19b00000000000000000000000000000000000000000000000000000000815260048101859052602481018490526044016108ae565b5f8481526001602052604081208054859290611a3c9084906122d8565b909155505050505050565b5f8060205f8451602086015f885af180611a66576040513d5f823e3d81fd5b50505f513d91508115611a7d578060011415611a8a565b6001600160a01b0384163b155b15611240576040517f5274afe70000000000000000000000000000000000000000000000000000000081526001600160a01b03851660048201526024016108ae565b5f60208284031215611adc575f80fd5b81356001600160e01b0319811681146110dd575f80fd5b6001600160a01b03811681146118af575f80fd5b5f8060408385031215611b18575f80fd5b823591506020830135611b2a81611af3565b809150509250929050565b5f8060408385031215611b46575f80fd5b50508035926020909101359150565b5f60208284031215611b65575f80fd5b5035919050565b5f8083601f840112611b7c575f80fd5b50813567ffffffffffffffff811115611b93575f80fd5b602083019150836020828501011115611baa575f80fd5b9250929050565b67ffffffffffffffff811681146118af575f80fd5b5f805f805f805f8060e0898b031215611bdd575f80fd5b883567ffffffffffffffff811115611bf3575f80fd5b611bff8b828c01611b6c565b9099509750506020890135611c1381611af3565b9550604089013594506060890135611c2a81611af3565b93506080890135611c3a81611af3565b925060a0890135611c4a81611bb1565b8092505060c089013590509295985092959890939650565b634e487b7160e01b5f52604160045260245ffd5b5f82601f830112611c85575f80fd5b813567ffffffffffffffff80821115611ca057611ca0611c62565b604051601f8301601f19908116603f01168101908282118183101715611cc857611cc8611c62565b81604052838152866020858801011115611ce0575f80fd5b836020870160208301375f602085830101528094505050505092915050565b5f805f8060808587031215611d12575f80fd5b843567ffffffffffffffff811115611d28575f80fd5b611d3487828801611c76565b9450506020850135611d4581611af3565b92506040850135611d5581611bb1565b91506060850135611d6581611af3565b939692955090935050565b5f805f60608486031215611d82575f80fd5b83359250602084013591506040840135611d9b81611af3565b809150509250925092565b5f805f805f60808688031215611dba575f80fd5b853567ffffffffffffffff811115611dd0575f80fd5b611ddc88828901611b6c565b9096509450506020860135611df081611bb1565b92506040860135611e0081611af3565b949793965091946060013592915050565b5f60208284031215611e21575f80fd5b81356110dd81611af3565b5f60208284031215611e3c575f80fd5b813567ffffffffffffffff811115611e52575f80fd5b61135284828501611c76565b5f805f805f805f805f6101008a8c031215611e77575f80fd5b893567ffffffffffffffff811115611e8d575f80fd5b611e998c828d01611b6c565b909a5098505060208a0135611ead81611af3565b965060408a0135955060608a0135611ec481611af3565b945060808a0135611ed481611af3565b935060a08a0135611ee481611bb1565b925060c08a0135611ef481611af3565b8092505060e08a013590509295985092959850929598565b5f8060208385031215611f1d575f80fd5b823567ffffffffffffffff811115611f33575f80fd5b611f3f85828601611b6c565b90969095509350505050565b81835281816020850137505f828201602090810191909152601f909101601f19169091010190565b60e081525f611f8660e083018a8c611f4b565b6001600160a01b039889166020840152604083019790975250938616606085015291909416608083015267ffffffffffffffff90931660a082015260c0019190915292915050565b608081525f8551806080840152806020880160a085015e5f60a08285018101919091526001600160a01b03968716602085015267ffffffffffffffff959095166040840152929094166060820152601f909101601f1916010192915050565b5f806040838503121561203e575f80fd5b505080516020909101519092909150565b80516003811061184d575f80fd5b5f60a0828403121561206d575f80fd5b60405160a0810181811067ffffffffffffffff8211171561209057612090611c62565b60405261209c8361204f565b815260208301516120ac81611bb1565b602082015260408301516120bf81611af3565b6040820152606083810151908201526080928301519281019290925250919050565b634e487b7160e01b5f52602160045260245ffd5b602081525f611352602083018486611f4b565b634e487b7160e01b5f52601160045260245ffd5b67ffffffffffffffff81811683821601908082111561213d5761213d612108565b5092915050565b60c081525f61215760c08301898b611f4b565b67ffffffffffffffff97881660208401529590961660408201526001600160a01b03939093166060840152608083019190915260a0909101529392505050565b5f602082840312156121a7575f80fd5b815180151581146110dd575f80fd5b5f602082840312156121c6575f80fd5b6110dd8261204f565b8082018082111561060057610600612108565b60c081525f6121f560c08301898b611f4b565b6001600160a01b039788166020840152958716604083015250929094166060830152608082015267ffffffffffffffff90921660a09092019190915292915050565b5f60208284031215612247575f80fd5b5051919050565b5f6101208083526122628184018d8f611f4b565b6001600160a01b039b8c166020850152998b1660408401525050958816606087015267ffffffffffffffff9490941660808601529190951660a084015260c083019490945260e0820193909352610100019190915292915050565b5f602082840312156122cd575f80fd5b81516110dd81611af3565b818103818111156106005761060061210856fea2646970667358221220f7358105dbe81456a780ddb18a094a0b55b355509213720406aea09e59862c2b64736f6c634300081900338888888888888888888888888888888888888888888888888888888888888888eeeeeeeeeeeeeeeeeeeeeeeeeeeeeeeeeeeeeeeeeeeeeeeeeeeeeeeeeeeeeeef",
  "linkReferences": {},
  "deployedLinkReferences": {},
  "immutableReferences": {
    "69592": [
      {
        "length": 32,
        "start": 859
      },
      {
        "length": 32,
        "start": 5988
      },
      {
        "length": 32,
        "start": 6085
      }
    ],
    "71180": [
      {
        "length": 32,
        "start": 503
      },
      {
        "length": 32,
        "start": 1941
      },
      {
        "length": 32,
        "start": 2442
      },
      {
        "length": 32,
        "start": 2811
      },
      {
        "length": 32,
        "start": 3625
      }
    ],
    "71183": [
      {
        "length": 32,
        "start": 780
      },
      {
        "length": 32,
        "start": 2336
      },
      {
        "length": 32,
        "start": 3569
      }
    ],
    "71186": [
      {
        "length": 32,
        "start": 710
      },
      {
        "length": 32,
        "start": 5658
      }
    ],
    "71189": [
      {
        "length": 32,
        "start": 1101
      },
      {
        "length": 32,
        "start": 3968
      },
      {
        "length": 32,
        "start": 5808
      }
    ],
    "71192": [
      {
        "length": 32,
        "start": 1197
      },
      {
        "length": 32,
        "start": 3114
      },
      {
        "length": 32,
        "start": 3229
      }
    ]
  },
  "inputSourceName": "project/src/registrar/ETHRegistrar.sol",
  "devdoc": {
    "errors": {
      "CommitmentTooNew(bytes32,uint64,uint64)": [
        {
          "details": "Error selector: `0x6be614e3`"
        }
      ],
      "CommitmentTooOld(bytes32,uint64,uint64)": [
        {
          "details": "Error selector: `0x0cb9df3f`"
        }
      ],
      "DurationTooShort(uint64,uint64)": [
        {
          "details": "Error selector: `0xa096b844`"
        }
      ],
      "EACCannotGrantRoles(uint256,uint256,address)": [
        {
          "details": "Error selector: `0xd1a3b355`"
        }
      ],
      "EACCannotRevokeRoles(uint256,uint256,address)": [
        {
          "details": "Error selector: `0xa604e318`"
        }
      ],
      "EACInvalidAccount()": [
        {
          "details": "Error selector: `0xec3fc592`"
        }
      ],
      "EACInvalidRoleBitmap(uint256)": [
        {
          "details": "Error selector: `0x2a7b2d20`"
        }
      ],
      "EACMaxAssignees(uint256,uint256)": [
        {
          "details": "Error selector: `0xf9165348`"
        }
      ],
      "EACMinAssignees(uint256,uint256)": [
        {
          "details": "Error selector: `0x1f80c19b`"
        }
      ],
      "EACRootResourceNotAllowed()": [
        {
          "details": "Error selector: `0xc2842458`"
        }
      ],
      "EACUnauthorizedAccountRoles(uint256,uint256,address)": [
        {
          "details": "Error selector: `0x4b27a133`"
        }
      ],
      "InvalidOwner()": [
        {
          "details": "Error selector: `0x49e27cff`"
        }
      ],
      "MaxCommitmentAgeTooLow()": [
        {
          "details": "Error selector: `0x3e5aa838`"
        }
      ],
      "NameIsAvailable(string)": [
        {
          "details": "Error selector: `0xf7681f14`"
        }
      ],
      "NameNotAvailable(string)": [
        {
          "details": "Error selector: `0x477707e8`"
        }
      ],
      "NotValid(string)": [
        {
          "details": "Error selector: `0xdbfa2886`"
        }
      ],
      "PaymentTokenNotSupported(address)": [
        {
          "details": "Error selector: `0x02e2ae9e`"
        }
      ],
      "SafeERC20FailedOperation(address)": [
        {
          "details": "An operation with an ERC-20 token failed."
        }
      ],
      "UnexpiredCommitmentExists(bytes32)": [
        {
          "details": "Error selector: `0x0a059d71`"
        }
      ]
    },
    "events": {
      "CommitmentMade(bytes32)": {
        "params": {
          "commitment": "The commitment hash from `makeCommitment()`."
        }
      },
      "EACRolesChanged(uint256,address,uint256,uint256)": {
        "params": {
          "account": "The account that the roles were changed for.",
          "newRoleBitmap": "The new roles for the account.",
          "oldRoleBitmap": "The old roles for the account.",
          "resource": "The resource that the roles were changed within."
        }
      },
      "NameRegistered(uint256,string,address,address,address,uint64,address,bytes32,uint256,uint256)": {
        "params": {
          "base": "The base price, relative to `paymentToken`.",
          "duration": "The registration duration, in seconds.",
          "label": "The name of the registration.",
          "owner": "The owner address.",
          "paymentToken": "The ERC-20 used for payment.",
          "premium": "The premium price, relative to `paymentToken`.",
          "referrer": "The referrer hash.",
          "resolver": "The initial resolver address.",
          "subregistry": "The initial registry address.",
          "tokenId": "The registry token id."
        }
      },
      "NameRenewed(uint256,string,uint64,uint64,address,bytes32,uint256)": {
        "params": {
          "base": "The base price, relative to `paymentToken`.",
          "duration": "The duration extension, in seconds.",
          "label": "The name of the renewal.",
          "newExpiry": "The new expiry, in seconds.",
          "paymentToken": "The ERC-20 used for payment.",
          "referrer": "The referrer hash.",
          "tokenId": "The registry token id."
        }
      },
      "PaymentTokenAdded(address)": {
        "params": {
          "paymentToken": "The payment token added."
        }
      },
      "PaymentTokenRemoved(address)": {
        "params": {
          "paymentToken": "The payment token removed."
        }
      },
      "RentPriceOracleChanged(address)": {
        "params": {
          "oracle": "The new `IRentPriceOracle` instance."
        }
      }
    },
    "kind": "dev",
    "methods": {
      "commit(bytes32)": {
        "details": "Emits `CommitmentMade` or reverts with `UnexpiredCommitmentExists`.",
        "params": {
          "commitment": "The commitment hash."
        }
      },
      "constructor": {
        "params": {
          "beneficiary": "The address that receives all registration and renewal payments.",
          "hcaFactory": "The HCA factory.",
          "maxCommitmentAge": "The maximum seconds a commitment remains valid; expired commitments are rejected.",
          "minCommitmentAge": "The minimum seconds a commitment must age before registration can proceed.",
          "minRegisterDuration": "The shortest allowed registration duration, in seconds.",
          "registry": "The permissioned registry where .eth names are stored and managed.",
          "rentPriceOracle_": "The initial pricing oracle used for computing registration and renewal costs."
        }
      },
      "getAssigneeCount(uint256,uint256)": {
        "params": {
          "resource": "The resource to check.",
          "roleBitmap": "The roles bitmap to check."
        },
        "returns": {
          "counts": "The number of assignees for each of the roles in the given role bitmap, expressed as a packed array of 4-bit ints.",
          "mask": "The mask for the given role bitmap."
        }
      },
      "grantRoles(uint256,uint256,address)": {
        "details": "The caller must have all the necessary admin roles for the roles being granted.      Cannot be used with ROOT_RESOURCE directly, use grantRootRoles instead.",
        "params": {
          "account": "The account to grant roles to.",
          "resource": "The resource to grant roles within.",
          "roleBitmap": "The roles bitmap to grant."
        },
        "returns": {
          "_0": "`true` if the roles were granted, `false` otherwise."
        }
      },
      "grantRootRoles(uint256,address)": {
        "details": "The caller must have all the necessary admin roles for the roles being granted.",
        "params": {
          "account": "The account to grant roles to.",
          "roleBitmap": "The roles bitmap to grant."
        },
        "returns": {
          "_0": "`true` if the roles were granted, `false` otherwise."
        }
      },
      "hasAssignees(uint256,uint256)": {
        "params": {
          "resource": "The resource to check.",
          "roleBitmap": "The roles bitmap to check."
        },
        "returns": {
          "_0": "`true` if any of the roles in the given role bitmap has assignees, `false` otherwise."
        }
      },
      "hasRoles(uint256,uint256,address)": {
        "params": {
          "account": "The account to check.",
          "resource": "The resource to check.",
          "roleBitmap": "The roles bitmap to check."
        },
        "returns": {
          "_0": "`true` if `account` has been granted all the given roles in the given resource or the `ROOT_RESOURCE`, `false` otherwise."
        }
      },
      "hasRootRoles(uint256,address)": {
        "params": {
          "account": "The account to check.",
          "roleBitmap": "The roles bitmap to check."
        },
        "returns": {
          "_0": "`true` if `account` has been granted all the given roles in the `ROOT_RESOURCE`, `false` otherwise."
        }
      },
      "isAvailable(string)": {
        "details": "Does not check if normalized or valid.",
        "params": {
          "label": "The name to check."
        },
        "returns": {
          "_0": "`true` if the `label` is available."
        }
      },
      "isPaymentToken(address)": {
        "params": {
          "paymentToken": "The ERC-20 to check."
        },
        "returns": {
          "_0": "`true` if `paymentToken` is supported."
        }
      },
      "isValid(string)": {
        "params": {
          "label": "The name."
        },
        "returns": {
          "_0": "`true` if the `label` is valid."
        }
      },
      "makeCommitment(string,address,bytes32,address,address,uint64,bytes32)": {
        "params": {
          "duration": "The registration duration, in seconds.",
          "label": "The name to register.",
          "owner": "The owner address.",
          "referrer": "The referrer hash.",
          "resolver": "The initial resolver address.",
          "secret": "The secret for the registration.",
          "subregistry": "The initial registry address."
        },
        "returns": {
          "_0": "The commitment hash."
        }
      },
      "register(string,address,bytes32,address,address,uint64,address,bytes32)": {
        "details": "Emits `NameRegistered` or reverts with a variety of errors.",
        "params": {
          "duration": "The registration from commitment.",
          "label": "The name from commitment.",
          "owner": "The owner from commitment.",
          "paymentToken": "The ERC-20 to use for payment.",
          "referrer": "The referrer hash.",
          "resolver": "The resolver from commitment.",
          "secret": "The secret from commitment.",
          "subregistry": "The registry from commitment."
        },
        "returns": {
          "tokenId": "The registered token ID."
        }
      },
      "renew(string,uint64,address,bytes32)": {
        "details": "Emits `NameRenewed` or reverts with a variety of errors.",
        "params": {
          "duration": "The registration extension, in seconds.",
          "label": "The name to renew.",
          "paymentToken": "The ERC-20 to use for payment.",
          "referrer": "The referrer hash."
        }
      },
      "rentPrice(string,address,uint64,address)": {
        "details": "Reverts `PaymentTokenNotSupported` or `NotValid`.",
        "params": {
          "duration": "The duration to price, in seconds.",
          "label": "The name.",
          "owner": "The new owner address.",
          "paymentToken": "The ERC-20 to use."
        },
        "returns": {
          "base": "The base price, relative to `paymentToken`.",
          "premium": "The premium price, relative to `paymentToken`."
        }
      },
      "revokeRoles(uint256,uint256,address)": {
        "details": "The caller must have all the necessary admin roles for the roles being revoked.      Cannot be used with ROOT_RESOURCE directly, use revokeRootRoles instead.",
        "params": {
          "account": "The account to revoke roles from.",
          "resource": "The resource to revoke roles within.",
          "roleBitmap": "The roles bitmap to revoke."
        },
        "returns": {
          "_0": "`true` if the roles were revoked, `false` otherwise."
        }
      },
      "revokeRootRoles(uint256,address)": {
        "details": "The caller must have all the necessary admin roles for the roles being revoked.",
        "params": {
          "account": "The account to revoke roles from.",
          "roleBitmap": "The roles bitmap to revoke."
        },
        "returns": {
          "_0": "`true` if the roles were revoked, `false` otherwise."
        }
      },
      "roleCount(uint256)": {
        "params": {
          "resource": "The resource to get the role count for."
        },
        "returns": {
          "_0": "count The role count bitmap for the resource."
        }
      },
      "roles(uint256,address)": {
        "params": {
          "account": "The account to get the roles for.",
          "resource": "The resource to get the roles for."
        },
        "returns": {
          "_0": "The roles bitmap for the account in the resource."
        }
      },
      "setRentPriceOracle(address)": {
        "params": {
          "oracle": "The new `IRentPriceOracle` instance."
        }
      },
      "supportsInterface(bytes4)": {
        "details": "Returns true if this contract implements the interface defined by `interfaceId`. See the corresponding https://eips.ethereum.org/EIPS/eip-165#how-interfaces-are-identified[ERC section] to learn more about how these ids are created. This function call must use less than 30 000 gas."
      }
    },
    "stateVariables": {
      "commitmentAt": {
        "params": {
          "commitment": "The commitment hash."
        },
        "return": "commitTime The commitment time, in seconds.",
        "returns": {
          "commitTime": "The commitment time, in seconds."
        }
      }
    },
    "version": 1
  },
  "evm": {
    "gasEstimates": {
      "creation": {
        "codeDepositCost": "1798600",
        "executionCost": "infinite",
        "totalCost": "infinite"
      },
      "external": {
        "BENEFICIARY()": "infinite",
        "HCA_FACTORY()": "infinite",
        "MAX_COMMITMENT_AGE()": "infinite",
        "MIN_COMMITMENT_AGE()": "infinite",
        "MIN_REGISTER_DURATION()": "infinite",
        "REGISTRY()": "infinite",
        "ROOT_RESOURCE()": "283",
        "commit(bytes32)": "infinite",
        "commitmentAt(bytes32)": "2518",
        "getAssigneeCount(uint256,uint256)": "2725",
        "grantRoles(uint256,uint256,address)": "infinite",
        "grantRootRoles(uint256,address)": "infinite",
        "hasAssignees(uint256,uint256)": "2710",
        "hasRoles(uint256,uint256,address)": "4870",
        "hasRootRoles(uint256,address)": "2609",
        "isAvailable(string)": "infinite",
        "isPaymentToken(address)": "infinite",
        "isValid(string)": "infinite",
        "makeCommitment(string,address,bytes32,address,address,uint64,bytes32)": "infinite",
        "register(string,address,bytes32,address,address,uint64,address,bytes32)": "infinite",
        "renew(string,uint64,address,bytes32)": "infinite",
        "rentPrice(string,address,uint64,address)": "infinite",
        "rentPriceOracle()": "2404",
        "revokeRoles(uint256,uint256,address)": "infinite",
        "revokeRootRoles(uint256,address)": "infinite",
        "roleCount(uint256)": "2503",
        "roles(uint256,address)": "2745",
        "setRentPriceOracle(address)": "infinite",
        "supportsInterface(bytes4)": "infinite"
      },
      "internal": {
        "_consumeCommitment(bytes32)": "infinite"
      }
    }
  },
  "storageLayout": {
    "storage": [
      {
        "astId": 65208,
        "contract": "project/src/registrar/ETHRegistrar.sol:ETHRegistrar",
        "label": "_roles",
        "offset": 0,
        "slot": "0",
        "type": "t_mapping(t_uint256,t_mapping(t_address,t_uint256))"
      },
      {
        "astId": 65213,
        "contract": "project/src/registrar/ETHRegistrar.sol:ETHRegistrar",
        "label": "_roleCount",
        "offset": 0,
        "slot": "1",
        "type": "t_mapping(t_uint256,t_uint256)"
      },
      {
        "astId": 71196,
        "contract": "project/src/registrar/ETHRegistrar.sol:ETHRegistrar",
        "label": "rentPriceOracle",
        "offset": 0,
        "slot": "2",
        "type": "t_contract(IRentPriceOracle)72824"
      },
      {
        "astId": 71201,
        "contract": "project/src/registrar/ETHRegistrar.sol:ETHRegistrar",
        "label": "commitmentAt",
        "offset": 0,
        "slot": "3",
        "type": "t_mapping(t_bytes32,t_uint64)"
      }
    ],
    "types": {
      "t_address": {
        "encoding": "inplace",
        "label": "address",
        "numberOfBytes": "20"
      },
      "t_bytes32": {
        "encoding": "inplace",
        "label": "bytes32",
        "numberOfBytes": "32"
      },
      "t_contract(IRentPriceOracle)72824": {
        "encoding": "inplace",
        "label": "contract IRentPriceOracle",
        "numberOfBytes": "20"
      },
      "t_mapping(t_address,t_uint256)": {
        "encoding": "mapping",
        "key": "t_address",
        "label": "mapping(address => uint256)",
        "numberOfBytes": "32",
        "value": "t_uint256"
      },
      "t_mapping(t_bytes32,t_uint64)": {
        "encoding": "mapping",
        "key": "t_bytes32",
        "label": "mapping(bytes32 => uint64)",
        "numberOfBytes": "32",
        "value": "t_uint64"
      },
      "t_mapping(t_uint256,t_mapping(t_address,t_uint256))": {
        "encoding": "mapping",
        "key": "t_uint256",
        "label": "mapping(uint256 => mapping(address => uint256))",
        "numberOfBytes": "32",
        "value": "t_mapping(t_address,t_uint256)"
      },
      "t_mapping(t_uint256,t_uint256)": {
        "encoding": "mapping",
        "key": "t_uint256",
        "label": "mapping(uint256 => uint256)",
        "numberOfBytes": "32",
        "value": "t_uint256"
      },
      "t_uint256": {
        "encoding": "inplace",
        "label": "uint256",
        "numberOfBytes": "32"
      },
      "t_uint64": {
        "encoding": "inplace",
        "label": "uint64",
        "numberOfBytes": "8"
      }
    }
  },
  "userdoc": {
    "errors": {
      "CommitmentTooNew(bytes32,uint64,uint64)": [
        {
          "notice": "`commitment` cannot be consumed yet."
        }
      ],
      "CommitmentTooOld(bytes32,uint64,uint64)": [
        {
          "notice": "`commitment` has expired."
        }
      ],
      "DurationTooShort(uint64,uint64)": [
        {
          "notice": "`duration` less than `minDuration`."
        }
      ],
      "InvalidOwner()": [
        {
          "notice": "Expected valid owner."
        }
      ],
      "MaxCommitmentAgeTooLow()": [
        {
          "notice": "`maxCommitmentAge` was not greater than `minCommitmentAge`."
        }
      ],
      "NameIsAvailable(string)": [
        {
          "notice": "`label` is AVAILABLE."
        }
      ],
      "NameNotAvailable(string)": [
        {
          "notice": "`label` is not AVAILABLE."
        }
      ],
      "NotValid(string)": [
        {
          "notice": "`label` is not valid."
        }
      ],
      "PaymentTokenNotSupported(address)": [
        {
          "notice": "`paymentToken` is not supported for payment."
        }
      ],
      "UnexpiredCommitmentExists(bytes32)": [
        {
          "notice": "`commitment` is still usable for registration."
        }
      ]
    },
    "events": {
      "CommitmentMade(bytes32)": {
        "notice": "`commitment` was recorded onchain at `block.timestamp`."
      },
      "EACRolesChanged(uint256,address,uint256,uint256)": {
        "notice": "Emitted when roles are changed."
      },
      "NameRegistered(uint256,string,address,address,address,uint64,address,bytes32,uint256,uint256)": {
        "notice": "`{label}.eth` was registered for `duration`."
      },
      "NameRenewed(uint256,string,uint64,uint64,address,bytes32,uint256)": {
        "notice": "`{label}.eth` was extended by `duration`."
      },
      "PaymentTokenAdded(address)": {
        "notice": "`paymentToken` is now supported."
      },
      "PaymentTokenRemoved(address)": {
        "notice": "`paymentToken` is no longer supported."
      },
      "RentPriceOracleChanged(address)": {
        "notice": "Emitted when the rent price oracle is replaced."
      }
    },
    "kind": "user",
    "methods": {
      "BENEFICIARY()": {
        "notice": "Address that receives all registration and renewal payments."
      },
      "HCA_FACTORY()": {
        "notice": "The HCA factory contract"
      },
      "MAX_COMMITMENT_AGE()": {
        "notice": "Maximum seconds a commitment remains valid; expired commitments are rejected."
      },
      "MIN_COMMITMENT_AGE()": {
        "notice": "Minimum seconds a commitment must age before registration can proceed."
      },
      "MIN_REGISTER_DURATION()": {
        "notice": "Shortest allowed registration duration, in seconds."
      },
      "REGISTRY()": {
        "notice": "The permissioned registry where .eth names are stored and managed."
      },
      "ROOT_RESOURCE()": {
        "notice": "The `ROOT_RESOURCE`."
      },
      "commit(bytes32)": {
        "notice": "Registration step #1: record intent to register without revealing any information."
      },
      "commitmentAt(bytes32)": {
        "notice": "Get timestamp of `commitment`."
      },
      "constructor": {
        "notice": "Initializes ETHRegistrar."
      },
      "getAssigneeCount(uint256,uint256)": {
        "notice": "Returns the number of assignees for the roles in the given role bitmap."
      },
      "grantRoles(uint256,uint256,address)": {
        "notice": "Grants all roles in the given role bitmap to `account`."
      },
      "grantRootRoles(uint256,address)": {
        "notice": "Grants all roles in the given role bitmap to `account` in the ROOT_RESOURCE."
      },
      "hasAssignees(uint256,uint256)": {
        "notice": "Checks if any of the roles in the given role bitmap has assignees."
      },
      "hasRoles(uint256,uint256,address)": {
        "notice": "Checks if the given account has been granted all the given roles in the given resource or the `ROOT_RESOURCE`."
      },
      "hasRootRoles(uint256,address)": {
        "notice": "Checks if the given account has been granted all the given roles in the `ROOT_RESOURCE`."
      },
      "isAvailable(string)": {
        "notice": "Check if `label` is available for registration."
      },
      "isPaymentToken(address)": {
        "notice": "Check if `paymentToken` is supported for payment."
      },
      "isValid(string)": {
        "notice": "Check if a `label` is valid."
      },
      "makeCommitment(string,address,bytes32,address,address,uint64,bytes32)": {
        "notice": "Compute hash of registration parameters."
      },
      "register(string,address,bytes32,address,address,uint64,address,bytes32)": {
        "notice": "Registration step #2: reveal committed registration parameters, then register `{label}.eth`."
      },
      "renew(string,uint64,address,bytes32)": {
        "notice": "Renew an existing registration."
      },
      "rentPrice(string,address,uint64,address)": {
        "notice": "Get rent price for `label`."
      },
      "rentPriceOracle()": {
        "notice": "Current pricing oracle used for computing registration and renewal costs."
      },
      "revokeRoles(uint256,uint256,address)": {
        "notice": "Revokes all roles in the given role bitmap from `account`."
      },
      "revokeRootRoles(uint256,address)": {
        "notice": "Revokes all roles in the given role bitmap from `account` in the ROOT_RESOURCE."
      },
      "roleCount(uint256)": {
        "notice": "Returns the role count bitmap for a resource."
      },
      "roles(uint256,address)": {
        "notice": "Returns the roles bitmap for an account in a resource."
      },
      "setRentPriceOracle(address)": {
        "notice": "Change the rent price oracle."
      }
    },
    "notice": "Commit-reveal registrar for .eth names. Registration requires two transactions: first `commit(hash)` to record a commitment, then `register(...)` after the minimum commitment age but before the maximum commitment age has elapsed. The commitment hash binds all registration parameters (label, owner, secret, subregistry, resolver, duration, referrer) to prevent front-running. Delegates actual name storage to an `IPermissionedRegistry`, granting the owner a fixed set of roles (set subregistry, set resolver, and transfer — each with their admin counterpart). Payment is collected via ERC20 `safeTransferFrom` to an immutable beneficiary address. Pricing is delegated to a swappable `IRentPriceOracle`. Renewals pay only the base rate; registrations pay base + premium (for recently expired names).",
    "version": 1
  },
  "argsData": "0x000000000000000000000000796fff2e907449be8d5921bcc215b1b76d89d08000000000000000000000000012919bd18e9eb9f004e2faf78709d0319747d761000000000000000000000000ffffffffff52d316b7bd028358089bc8066b8f8000000000000000000000000000000000000000000000000000000000000000000000000000000000000000000000000000000000000000000000000000015180000000000000000000000000000000000000000000000000000000000024ea000000000000000000000000006e5b8a907ed46a15869b9a19f6961781d6af2270",
  "transaction": {
    "hash": "0xba195f64cce210073587e66cb80c0c16d0dc651e386ab3ba8a5aa0aed874bcd8",
    "nonce": "0x1d51",
    "origin": "0xffffffffff52d316b7bd028358089bc8066b8f80"
  }
}