{
  "address": "0x22cd7e6a89f5bf4510ef22b3dd4ef190d22f95c3",
  "abi": [
    {
      "inputs": [
        {
          "internalType": "contract INameWrapper",
          "name": "nameWrapper",
          "type": "address"
        },
        {
          "internalType": "contract IPermissionedRegistry",
          "name": "ethRegistry",
          "type": "address"
        },
        {
          "internalType": "contract VerifiableFactory",
          "name": "verifiableFactory",
          "type": "address"
        },
        {
          "internalType": "address",
          "name": "wrapperRegistryImpl",
          "type": "address"
        }
      ],
      "stateMutability": "nonpayable",
      "type": "constructor"
    },
    {
      "inputs": [
        {
          "internalType": "uint256",
          "name": "idsLength",
          "type": "uint256"
        },
        {
          "internalType": "uint256",
          "name": "valuesLength",
          "type": "uint256"
        }
      ],
      "name": "ERC1155InvalidArrayLength",
      "type": "error"
    },
    {
      "inputs": [
        {
          "internalType": "uint256",
          "name": "tokenId",
          "type": "uint256"
        }
      ],
      "name": "FrozenTokenApproval",
      "type": "error"
    },
    {
      "inputs": [],
      "name": "InvalidOwner",
      "type": "error"
    },
    {
      "inputs": [
        {
          "internalType": "uint256",
          "name": "tokenId",
          "type": "uint256"
        }
      ],
      "name": "NameDataMismatch",
      "type": "error"
    },
    {
      "inputs": [
        {
          "internalType": "uint256",
          "name": "tokenId",
          "type": "uint256"
        }
      ],
      "name": "NameNotLocked",
      "type": "error"
    },
    {
      "inputs": [
        {
          "internalType": "address",
          "name": "caller",
          "type": "address"
        }
      ],
      "name": "UnauthorizedCaller",
      "type": "error"
    },
    {
      "inputs": [],
      "name": "ETH_REGISTRY",
      "outputs": [
        {
          "internalType": "contract IPermissionedRegistry",
          "name": "",
          "type": "address"
        }
      ],
      "stateMutability": "view",
      "type": "function"
    },
    {
      "inputs": [],
      "name": "NAME_WRAPPER",
      "outputs": [
        {
          "internalType": "contract INameWrapper",
          "name": "",
          "type": "address"
        }
      ],
      "stateMutability": "view",
      "type": "function"
    },
    {
      "inputs": [],
      "name": "VERIFIABLE_FACTORY",
      "outputs": [
        {
          "internalType": "contract VerifiableFactory",
          "name": "",
          "type": "address"
        }
      ],
      "stateMutability": "view",
      "type": "function"
    },
    {
      "inputs": [],
      "name": "WRAPPER_REGISTRY_IMPL",
      "outputs": [
        {
          "internalType": "address",
          "name": "",
          "type": "address"
        }
      ],
      "stateMutability": "view",
      "type": "function"
    },
    {
      "inputs": [
        {
          "internalType": "uint256[]",
          "name": "ids",
          "type": "uint256[]"
        },
        {
          "components": [
            {
              "internalType": "string",
              "name": "label",
              "type": "string"
            },
            {
              "internalType": "address",
              "name": "owner",
              "type": "address"
            },
            {
              "internalType": "contract IRegistry",
              "name": "subregistry",
              "type": "address"
            },
            {
              "internalType": "address",
              "name": "resolver",
              "type": "address"
            }
          ],
          "internalType": "struct LibMigration.Data[]",
          "name": "mds",
          "type": "tuple[]"
        }
      ],
      "name": "finishERC1155Migration",
      "outputs": [],
      "stateMutability": "nonpayable",
      "type": "function"
    },
    {
      "inputs": [],
      "name": "getWrappedName",
      "outputs": [
        {
          "internalType": "bytes",
          "name": "",
          "type": "bytes"
        }
      ],
      "stateMutability": "view",
      "type": "function"
    },
    {
      "inputs": [],
      "name": "getWrappedNode",
      "outputs": [
        {
          "internalType": "bytes32",
          "name": "",
          "type": "bytes32"
        }
      ],
      "stateMutability": "pure",
      "type": "function"
    },
    {
      "inputs": [
        {
          "internalType": "address",
          "name": "",
          "type": "address"
        },
        {
          "internalType": "address",
          "name": "",
          "type": "address"
        },
        {
          "internalType": "uint256[]",
          "name": "ids",
          "type": "uint256[]"
        },
        {
          "internalType": "uint256[]",
          "name": "",
          "type": "uint256[]"
        },
        {
          "internalType": "bytes",
          "name": "data",
          "type": "bytes"
        }
      ],
      "name": "onERC1155BatchReceived",
      "outputs": [
        {
          "internalType": "bytes4",
          "name": "",
          "type": "bytes4"
        }
      ],
      "stateMutability": "nonpayable",
      "type": "function"
    },
    {
      "inputs": [
        {
          "internalType": "address",
          "name": "",
          "type": "address"
        },
        {
          "internalType": "address",
          "name": "",
          "type": "address"
        },
        {
          "internalType": "uint256",
          "name": "id",
          "type": "uint256"
        },
        {
          "internalType": "uint256",
          "name": "",
          "type": "uint256"
        },
        {
          "internalType": "bytes",
          "name": "data",
          "type": "bytes"
        }
      ],
      "name": "onERC1155Received",
      "outputs": [
        {
          "internalType": "bytes4",
          "name": "",
          "type": "bytes4"
        }
      ],
      "stateMutability": "nonpayable",
      "type": "function"
    },
    {
      "inputs": [
        {
          "internalType": "bytes4",
          "name": "interfaceId",
          "type": "bytes4"
        }
      ],
      "name": "supportsInterface",
      "outputs": [
        {
          "internalType": "bool",
          "name": "",
          "type": "bool"
        }
      ],
      "stateMutability": "view",
      "type": "function"
    }
  ],
  "contractName": "LockedMigrationController",
  "sourceName": "src/migration/LockedMigrationController.sol",
  "bytecode": "0x610120604052348015610010575f80fd5b50604051611b47380380611b4783398101604081905261002f916100f0565b83828282806001600160a01b03166080816001600160a01b031681525050806001600160a01b0316633f15457f6040518163ffffffff1660e01b8152600401602060405180830381865afa158015610089573d5f803e3d5ffd5b505050506040513d601f19601f820116820180604052508101906100ad919061014c565b6001600160a01b0390811660a05292831660c05250811660e05293909316610100525061016e92505050565b6001600160a01b03811681146100ed575f80fd5b50565b5f805f8060808587031215610103575f80fd5b845161010e816100d9565b602086015190945061011f816100d9565b6040860151909350610130816100d9565b6060860151909250610141816100d9565b939692955090935050565b5f6020828403121561015c575f80fd5b8151610167816100d9565b9392505050565b60805160a05160c05160e051610100516119576101f05f395f8181610150015281816107990152610e2601525f81816101770152610c2501525f818160ea0152610bf601525f610b7301525f818161012901528181610365015281816103e90152818161059801528181610901015281816109f50152610ae001526119575ff3fe608060405234801561000f575f80fd5b50600436106100b9575f3560e01c80635d05f049116100725780639b224b1d116100585780639b224b1d146101dc578063bc197c81146101f1578063f23a6e611461021d575f80fd5b80635d05f049146101995780636e7a2116146101ae575f80fd5b8063192cf07d116100a2578063192cf07d14610124578063475007081461014b578063547c9d2d14610172575f80fd5b806301ffc9a7146100bd57806318ad9b71146100e5575b5f80fd5b6100d06100cb366004611043565b610230565b60405190151581526020015b60405180910390f35b61010c7f000000000000000000000000000000000000000000000000000000000000000081565b6040516001600160a01b0390911681526020016100dc565b61010c7f000000000000000000000000000000000000000000000000000000000000000081565b61010c7f000000000000000000000000000000000000000000000000000000000000000081565b61010c7f000000000000000000000000000000000000000000000000000000000000000081565b6101ac6101a73660046110b9565b610298565b005b6040517f93cdeb708b7545dc668eb9280176169d1c33cfd8ed6f04690a0bcc88a93fc4ae81526020016100dc565b6101e4610314565b6040516100dc919061114e565b6102046101ff3660046111c0565b6103dd565b6040516001600160e01b031990911681526020016100dc565b61020461022b366004611277565b61058c565b5f6001600160e01b031982167f4e2312e000000000000000000000000000000000000000000000000000000000148061029257507f01ffc9a7000000000000000000000000000000000000000000000000000000006001600160e01b03198316145b92915050565b3330146102bf5760405163d86ad9cf60e01b81523360048201526024015b60405180910390fd5b828114610302576040517f5b05999100000000000000000000000000000000000000000000000000000000815260048101849052602481018290526044016102b6565b61030e84848484610797565b50505050565b6040517f20c38e2b0000000000000000000000000000000000000000000000000000000081527f93cdeb708b7545dc668eb9280176169d1c33cfd8ed6f04690a0bcc88a93fc4ae60048201526060907f00000000000000000000000000000000000000000000000000000000000000006001600160a01b0316906320c38e2b906024015f60405180830381865afa1580156103b1573d5f803e3d5ffd5b505050506040513d5f823e601f3d908101601f191682016040526103d89190810190611383565b905090565b5f336001600160a01b037f0000000000000000000000000000000000000000000000000000000000000000161461045f5760405133602482015261045f9063d86ad9cf60e01b906044015b60408051601f198184030181529190526020810180516001600160e01b03166001600160e01b031990931692909217909152610d51565b828261046c60e089611411565b610477906040611428565b808210156104b1576040805160048152602481019091526020810180516001600160e01b0316635cb045db60e01b1790526104b190610d51565b5f6104be868801886114e9565b604051635d05f04960e01b81529091503090635d05f049906104e8908e908e908690600401611633565b5f604051808303815f87803b1580156104ff575f80fd5b505af1925050508015610510575060015b610552573d80801561053d576040519150601f19603f3d011682016040523d82523d5f602084013e610542565b606091505b5061054c81610d51565b5061057b565b507fbc197c8100000000000000000000000000000000000000000000000000000000935061057d565b505b50505098975050505050505050565b5f336001600160a01b037f000000000000000000000000000000000000000000000000000000000000000016146105db576040513360248201526105db9063d86ad9cf60e01b90604401610428565b828260e080821015610619576040805160048152602481019091526020810180516001600160e01b0316635cb045db60e01b17905261061990610d51565b6040805160018082528183019092525f916020808301908036833750506040805160018082528183019092529293505f929150602082015b6040805160808101825260608082525f60208084018290529383018190529082015282525f1990920191018161065157905050905089825f815181106106995761069961169a565b60209081029190910101526106b0878901896116ae565b815f815181106106c2576106c261169a565b6020908102919091010152604051635d05f04960e01b81523090635d05f049906106f290859085906004016116e8565b5f604051808303815f87803b158015610709575f80fd5b505af192505050801561071a575060015b61075c573d808015610747576040519150601f19603f3d011682016040523d82523d5f602084013e61074c565b606091505b5061075681610d51565b50610787565b507ff23a6e6100000000000000000000000000000000000000000000000000000000945061078a9050565b50505b5050509695505050505050565b7f00000000000000000000000000000000000000000000000000000000000000007f93cdeb708b7545dc668eb9280176169d1c33cfd8ed6f04690a0bcc88a93fc4ae5f5b85811015610d48575f8585838181106107f6576107f661169a565b90506020028101906108089190611735565b61081190611753565b60208101519091506001600160a01b0316610858576040517f49e27cff00000000000000000000000000000000000000000000000000000000815260040160405180910390fd5b5f88888481811061086b5761086b61169a565b84518051602091820120910292909201359250610893905085825f9182526020526040902090565b82146108ce576040517fedec3569000000000000000000000000000000000000000000000000000000008152600481018390526024016102b6565b6040517f0178fe3f000000000000000000000000000000000000000000000000000000008152600481018390525f9081907f00000000000000000000000000000000000000000000000000000000000000006001600160a01b031690630178fe3f90602401606060405180830381865afa15801561094e573d5f803e3d5ffd5b505050506040513d601f19601f82011682018060405250810190610972919061175e565b925092505061098382600116151590565b6109bc576040517f1bfe8f0a000000000000000000000000000000000000000000000000000000008152600481018590526024016102b6565b6040517f081812fc000000000000000000000000000000000000000000000000000000008152600481018590525f906001600160a01b037f0000000000000000000000000000000000000000000000000000000000000000169063081812fc90602401602060405180830381865afa158015610a3a573d5f803e3d5ffd5b505050506040513d601f19601f82011682018060405250810190610a5e91906117bc565b6001600160a01b031614610aa1576040517fa4f07713000000000000000000000000000000000000000000000000000000008152600481018590526024016102b6565b600882165f03610b44576040517f1896f70a000000000000000000000000000000000000000000000000000000008152600481018590525f60248201527f00000000000000000000000000000000000000000000000000000000000000006001600160a01b031690631896f70a906044015f604051808303815f87803b158015610b29575f80fd5b505af1158015610b3b573d5f803e3d5ffd5b50505050610bf3565b6040517f0178b8bf000000000000000000000000000000000000000000000000000000008152600481018590527f00000000000000000000000000000000000000000000000000000000000000006001600160a01b031690630178b8bf90602401602060405180830381865afa158015610bc0573d5f803e3d5ffd5b505050506040513d601f19601f82011682018060405250810190610be491906117bc565b6001600160a01b031660608601525b5f7f00000000000000000000000000000000000000000000000000000000000000006001600160a01b0316635d84121a7f0000000000000000000000000000000000000000000000000000000000000000875f1c888d8b5f01518c60200151610c5b8b610d64565b604051602401610c6f9594939291906117d7565b60408051601f198184030181529181526020820180516001600160e01b03167f9e77193200000000000000000000000000000000000000000000000000000000179052516001600160e01b031960e086901b168152610cd393929190600401611812565b6020604051808303815f875af1158015610cef573d5f803e3d5ffd5b505050506040513d601f19601f82011682018060405250810190610d1391906117bc565b9050610d36865f01518760200151838960600151610d3088610d9c565b87610df4565b505050505050508060010190506107db565b50505050505050565b610d5a81610eb0565b9050805160208201fd5b5f602082168103610d73576001175b60028216610d8257608081901b175b720100000000000000000000000000000001000017919050565b5f62040000821615610dae5762010000175b600882165f03610dbf576301000000175b60028216610dce57608081901b175b600482165f03610def57731000000000000000000000000000000000000000175b919050565b6040517f85f3e6430000000000000000000000000000000000000000000000000000000081525f906001600160a01b037f000000000000000000000000000000000000000000000000000000000000000016906385f3e64390610e65908a908a908a908a908a908990600401611842565b6020604051808303815f875af1158015610e81573d5f803e3d5ffd5b505050506040513d601f19601f82011682018060405250810190610ea59190611895565b979650505050505050565b60605f8251118015610eda575062461bcd60e51b610ecd836118ac565b6001600160e01b03191614155b15610f735762461bcd60e51b7f577261707065644572726f723a3a307800000000000000000000000000000000610f1084610f77565b604051602001610f219291906118df565b60408051601f1981840301815290829052610f3e9160240161114e565b60408051601f198184030181529190526020810180516001600160e01b03166001600160e01b03199093169290921790915291505b5090565b805160609060011b8067ffffffffffffffff811115610f9857610f986112ee565b6040519080825280601f01601f191660200182016040528015610fc2576020820181803683370190505b5091506020838101908301610fd8828285610fe0565b505050919050565b8181015b8083101561030e5783516101005b828510801561100057505f81115b156110365760031901600f82821c16600a81106110205780605701611025565b806030015b905080865350600190940193610ff2565b5050602084019350610fe4565b5f60208284031215611053575f80fd5b81356001600160e01b03198116811461106a575f80fd5b9392505050565b5f8083601f840112611081575f80fd5b50813567ffffffffffffffff811115611098575f80fd5b6020830191508360208260051b85010111156110b2575f80fd5b9250929050565b5f805f80604085870312156110cc575f80fd5b843567ffffffffffffffff808211156110e3575f80fd5b6110ef88838901611071565b90965094506020870135915080821115611107575f80fd5b5061111487828801611071565b95989497509550505050565b5f81518084528060208401602086015e5f602082860101526020601f19601f83011685010191505092915050565b602081525f61106a6020830184611120565b6001600160a01b0381168114611174575f80fd5b50565b8035610def81611160565b5f8083601f840112611192575f80fd5b50813567ffffffffffffffff8111156111a9575f80fd5b6020830191508360208285010111156110b2575f80fd5b5f805f805f805f8060a0898b0312156111d7575f80fd5b88356111e281611160565b975060208901356111f281611160565b9650604089013567ffffffffffffffff8082111561120e575f80fd5b61121a8c838d01611071565b909850965060608b0135915080821115611232575f80fd5b61123e8c838d01611071565b909650945060808b0135915080821115611256575f80fd5b506112638b828c01611182565b999c989b5096995094979396929594505050565b5f805f805f8060a0878903121561128c575f80fd5b863561129781611160565b955060208701356112a781611160565b94506040870135935060608701359250608087013567ffffffffffffffff8111156112d0575f80fd5b6112dc89828a01611182565b979a9699509497509295939492505050565b634e487b7160e01b5f52604160045260245ffd5b6040516080810167ffffffffffffffff81118282101715611325576113256112ee565b60405290565b604051601f8201601f1916810167ffffffffffffffff81118282101715611354576113546112ee565b604052919050565b5f67ffffffffffffffff821115611375576113756112ee565b50601f01601f191660200190565b5f60208284031215611393575f80fd5b815167ffffffffffffffff8111156113a9575f80fd5b8201601f810184136113b9575f80fd5b80516113cc6113c78261135c565b61132b565b8181528560208385010111156113e0575f80fd5b8160208401602083015e5f91810160200191909152949350505050565b634e487b7160e01b5f52601160045260245ffd5b8082028115828204841417610292576102926113fd565b80820180821115610292576102926113fd565b5f6080828403121561144b575f80fd5b611453611302565b9050813567ffffffffffffffff81111561146b575f80fd5b8201601f8101841361147b575f80fd5b8035602061148b6113c78361135c565b828152868284860101111561149e575f80fd5b82828501838301375f81840183015284526114ba858201611177565b818501525050506114cd60408301611177565b60408201526114de60608301611177565b606082015292915050565b5f60208083850312156114fa575f80fd5b823567ffffffffffffffff80821115611511575f80fd5b818501915085601f830112611524575f80fd5b813581811115611536576115366112ee565b8060051b61154585820161132b565b918252838101850191858101908984111561155e575f80fd5b86860192505b838310156115985782358581111561157a575f80fd5b6115888b89838a010161143b565b8352509186019190860190611564565b9998505050505050505050565b5f82825180855260208086019550808260051b8401018186015f5b8481101561162657601f198684030189528151608081518186526115e682870182611120565b838801516001600160a01b03908116888a0152604080860151821690890152606094850151169390960192909252505097830197908301906001016115c0565b5090979650505050505050565b604081528260408201525f7f07ffffffffffffffffffffffffffffffffffffffffffffffffffffffffffffff84111561166a575f80fd5b8360051b80866060850137820182810360609081016020850152611690908201856115a5565b9695505050505050565b634e487b7160e01b5f52603260045260245ffd5b5f602082840312156116be575f80fd5b813567ffffffffffffffff8111156116d4575f80fd5b6116e08482850161143b565b949350505050565b604080825283519082018190525f906020906060840190828701845b8281101561172057815184529284019290840190600101611704565b505050838103602085015261169081866115a5565b5f8235607e19833603018112611749575f80fd5b9190910192915050565b5f610292368361143b565b5f805f60608486031215611770575f80fd5b835161177b81611160565b602085015190935063ffffffff81168114611794575f80fd5b604085015190925067ffffffffffffffff811681146117b1575f80fd5b809150509250925092565b5f602082840312156117cc575f80fd5b815161106a81611160565b8581525f6001600160a01b03808716602084015260a060408401526117ff60a0840187611120565b9416606083015250608001529392505050565b6001600160a01b0384168152826020820152606060408201525f6118396060830184611120565b95945050505050565b60c081525f61185460c0830189611120565b6001600160a01b039788166020840152958716604083015250929094166060830152608082015267ffffffffffffffff90921660a090920191909152919050565b5f602082840312156118a5575f80fd5b5051919050565b5f815160208301516001600160e01b031980821693506004831015610fd85760049290920360031b82901b161692915050565b7fffffffffffffffffffffffffffffffff00000000000000000000000000000000831681525f82518060208501601085015e5f9201601001918252509291505056fea2646970667358221220fb18029685f2daf9a8a36d4e6f4f044d1302efef0be45db76da4ef364095030464736f6c63430008190033",
  "linkReferences": {},
  "deployedLinkReferences": {},
  "immutableReferences": {
    "69686": [
      {
        "length": 32,
        "start": 297
      },
      {
        "length": 32,
        "start": 869
      },
      {
        "length": 32,
        "start": 1001
      },
      {
        "length": 32,
        "start": 1432
      },
      {
        "length": 32,
        "start": 2305
      },
      {
        "length": 32,
        "start": 2549
      },
      {
        "length": 32,
        "start": 2784
      }
    ],
    "69690": [
      {
        "length": 32,
        "start": 2931
      }
    ],
    "70038": [
      {
        "length": 32,
        "start": 336
      },
      {
        "length": 32,
        "start": 1945
      },
      {
        "length": 32,
        "start": 3622
      }
    ],
    "70149": [
      {
        "length": 32,
        "start": 234
      },
      {
        "length": 32,
        "start": 3062
      }
    ],
    "70152": [
      {
        "length": 32,
        "start": 375
      },
      {
        "length": 32,
        "start": 3109
      }
    ]
  },
  "inputSourceName": "project/src/migration/LockedMigrationController.sol",
  "devdoc": {
    "errors": {
      "ERC1155InvalidArrayLength(uint256,uint256)": [
        {
          "details": "Indicates an array length mismatch between ids and values in a safeBatchTransferFrom operation. Used in batch transfers.",
          "params": {
            "idsLength": "Length of the array of token identifiers",
            "valuesLength": "Length of the array of token amounts"
          }
        }
      ],
      "FrozenTokenApproval(uint256)": [
        {
          "details": "Error selector: `0xa4f07713`"
        }
      ],
      "InvalidOwner()": [
        {
          "details": "Error selector: `0x49e27cff`"
        }
      ],
      "NameDataMismatch(uint256)": [
        {
          "details": "Error selector: `0xedec3569`"
        }
      ],
      "NameNotLocked(uint256)": [
        {
          "details": "Error selector: `0x1bfe8f0a`"
        }
      ],
      "UnauthorizedCaller(address)": [
        {
          "details": "Error selector: `0xd86ad9cf`",
          "params": {
            "caller": "The address that attempted the unauthorized operation"
          }
        }
      ]
    },
    "kind": "dev",
    "methods": {
      "constructor": {
        "params": {
          "ethRegistry": "The ENSv2 .eth `PermissionedRegistry` where migrated names are registered.",
          "nameWrapper": "The ENSv1 `NameWrapper` contract.",
          "verifiableFactory": "The shared factory for verifiable deployments.",
          "wrapperRegistryImpl": "The `WrapperRegistry` implementation contract."
        }
      },
      "finishERC1155Migration(uint256[],(string,address,address,address)[])": {
        "details": "Only callable by ourself and invoked by our `IERC1155Receiver` handlers. TODO: gas analysis and optimization NOTE: converting this to an internal call requires catching many reverts",
        "params": {
          "ids": "The NameWrapper token IDs (namehashes) of the names being migrated.",
          "mds": "The migration parameters for each name, indexed in parallel with `ids`."
        }
      },
      "onERC1155BatchReceived(address,address,uint256[],uint256[],bytes)": {
        "details": "Only callable by NameWrapper.      Reverts require `WrappedErrorLib.unwrap()` before processing.",
        "params": {
          "data": "ABI-encoded `LibMigration.Data[]` array containing migration parameters for each name.",
          "ids": "The NameWrapper token IDs (namehashes) of the names being migrated."
        },
        "returns": {
          "_0": "`bytes4(keccak256(\"onERC1155BatchReceived(address,address,uint256[],uint256[],bytes)\"))` if transfer is allowed"
        }
      },
      "onERC1155Received(address,address,uint256,uint256,bytes)": {
        "details": "Only callable by NameWrapper.      Reverts require `WrappedErrorLib.unwrap()` before processing.",
        "params": {
          "data": "ABI-encoded `LibMigration.Data` struct containing migration parameters.",
          "id": "The NameWrapper token ID (namehash) of the name being migrated."
        },
        "returns": {
          "_0": "`bytes4(keccak256(\"onERC1155Received(address,address,uint256,uint256,bytes)\"))` if transfer is allowed"
        }
      },
      "supportsInterface(bytes4)": {
        "details": "Returns true if this contract implements the interface defined by `interfaceId`. See the corresponding https://eips.ethereum.org/EIPS/eip-165#how-interfaces-are-identified[ERC section] to learn more about how these ids are created. This function call must use less than 30 000 gas."
      }
    },
    "version": 1
  },
  "evm": {
    "gasEstimates": {
      "creation": {
        "codeDepositCost": "1297400",
        "executionCost": "infinite",
        "totalCost": "infinite"
      },
      "external": {
        "ETH_REGISTRY()": "infinite",
        "NAME_WRAPPER()": "infinite",
        "VERIFIABLE_FACTORY()": "infinite",
        "WRAPPER_REGISTRY_IMPL()": "infinite",
        "finishERC1155Migration(uint256[],(string,address,address,address)[])": "infinite",
        "getWrappedName()": "infinite",
        "getWrappedNode()": "221",
        "onERC1155BatchReceived(address,address,uint256[],uint256[],bytes)": "infinite",
        "onERC1155Received(address,address,uint256,uint256,bytes)": "infinite",
        "supportsInterface(bytes4)": "435"
      },
      "internal": {
        "_getRegistry()": "infinite",
        "_inject(string memory,address,contract IRegistry,address,uint256,uint64)": "infinite"
      }
    }
  },
  "storageLayout": {
    "storage": [],
    "types": null
  },
  "userdoc": {
    "errors": {
      "FrozenTokenApproval(uint256)": [
        {
          "notice": "NameWrapper token has existing approval and burned `CANNOT_APPROVE`."
        }
      ],
      "InvalidOwner()": [
        {
          "notice": "Expected valid owner."
        }
      ],
      "NameDataMismatch(uint256)": [
        {
          "notice": "NameWrapper or BaseRegistrar token does not match supplied data."
        }
      ],
      "NameNotLocked(uint256)": [
        {
          "notice": "NameWrapper token is unlocked."
        }
      ],
      "UnauthorizedCaller(address)": [
        {
          "notice": "Thrown when a caller is not authorized to perform the requested operation"
        }
      ]
    },
    "kind": "user",
    "methods": {
      "ETH_REGISTRY()": {
        "notice": "The ENSv2 .eth `PermissionedRegistry` where migrated names are registered."
      },
      "NAME_WRAPPER()": {
        "notice": "The ENSv1 `NameWrapper` contract that holds wrapped names as ERC1155 tokens."
      },
      "VERIFIABLE_FACTORY()": {
        "notice": "The shared factory for verifiable deployments."
      },
      "WRAPPER_REGISTRY_IMPL()": {
        "notice": "The `WrapperRegistry` implementation contract."
      },
      "constructor": {
        "notice": "Initializes LockedMigrationController."
      },
      "finishERC1155Migration(uint256[],(string,address,address,address)[])": {
        "notice": "Convert NameWrapper tokens to their equivalent ENSv2 form."
      },
      "getWrappedName()": {
        "notice": "Returns the DNS-encoded name for this registry."
      },
      "getWrappedNode()": {
        "notice": "Returns the DNS-encoded name for \"eth\"."
      },
      "onERC1155BatchReceived(address,address,uint256[],uint256[],bytes)": {
        "notice": "Migrate multiple NameWrapper tokens via `safeBatchTransferFrom()`."
      },
      "onERC1155Received(address,address,uint256,uint256,bytes)": {
        "notice": "Migrate one NameWrapper token via `safeTransferFrom()`."
      }
    },
    "notice": "Migration controller for handling locked .eth names. Assumes premigration has `RESERVED` existing ENSv1 names. Requires `ROLE_REGISTER_RESERVED` on .eth registry to perform migration.",
    "version": 1
  },
  "argsData": "0x000000000000000000000000c7e033b8836e4bd55d069d113f018b98478cb091000000000000000000000000796fff2e907449be8d5921bcc215b1b76d89d0800000000000000000000000009240c5f31d747d60b3d9aed2f57995094342b1ed0000000000000000000000008266dc167c10a03a5a22aa706a08d8422f40559c",
  "transaction": {
    "hash": "0xf7856bd67e83fc341ed52eb3ed770de4be2aa9631ff68b24b7ac5983fccbf85e",
    "nonce": "0x1d4b",
    "origin": "0xffffffffff52d316b7bd028358089bc8066b8f80"
  }
}