{
  "address": "0xee63749b063c08dedee9478504177c27bf9193d7",
  "abi": [
    {
      "inputs": [
        {
          "internalType": "contract IPermissionedRegistry",
          "name": "ethRegistry_",
          "type": "address"
        }
      ],
      "stateMutability": "nonpayable",
      "type": "constructor"
    },
    {
      "inputs": [],
      "name": "ETH_REGISTRY",
      "outputs": [
        {
          "internalType": "contract IPermissionedRegistry",
          "name": "",
          "type": "address"
        }
      ],
      "stateMutability": "view",
      "type": "function"
    },
    {
      "inputs": [
        {
          "internalType": "string",
          "name": "label",
          "type": "string"
        },
        {
          "internalType": "uint64",
          "name": "expiry",
          "type": "uint64"
        },
        {
          "internalType": "contract IRegistry",
          "name": "registry",
          "type": "address"
        },
        {
          "internalType": "address",
          "name": "resolver",
          "type": "address"
        }
      ],
      "name": "preMigrate",
      "outputs": [],
      "stateMutability": "nonpayable",
      "type": "function"
    }
  ],
  "contractName": "MockPremigrator",
  "sourceName": "test/mocks/MockPremigrator.sol",
  "bytecode": "0x60a0604052348015600e575f80fd5b506040516105c13803806105c1833981016040819052602b91603b565b6001600160a01b03166080526066565b5f60208284031215604a575f80fd5b81516001600160a01b0381168114605f575f80fd5b9392505050565b6080516105306100915f395f818160520152818160930152818161018d015261027e01526105305ff3fe608060405234801561000f575f80fd5b5060043610610034575f3560e01c806344b99fb814610038578063475007081461004d575b5f80fd5b61004b61004636600461031d565b610090565b005b6100747f000000000000000000000000000000000000000000000000000000000000000081565b6040516001600160a01b03909116815260200160405180910390f35b5f7f00000000000000000000000000000000000000000000000000000000000000006001600160a01b03166344c9af286100fe88888080601f0160208091040260200160405190810160405280939291908181526020018383808284375f920191909152506102e692505050565b6040518263ffffffff1660e01b815260040161011c91815260200190565b60a060405180830381865afa158015610137573d5f803e3d5ffd5b505050506040513d601f19601f8201168201806040525081019061015b91906103d9565b90505f815160028111156101715761017161046b565b03610214576040516385f3e64360e01b81526001600160a01b037f000000000000000000000000000000000000000000000000000000000000000016906385f3e643906101ce90899089905f908990899083908d9060040161047f565b6020604051808303815f875af11580156101ea573d5f803e3d5ffd5b505050506040513d601f19601f8201168201806040525081019061020e91906104e3565b506102de565b6001815160028111156102295761022961046b565b14801561024d5750806020015167ffffffffffffffff168467ffffffffffffffff16115b156102de576060810151604051635569f33d60e01b8152600481019190915267ffffffffffffffff851660248201527f00000000000000000000000000000000000000000000000000000000000000006001600160a01b031690635569f33d906044015f604051808303815f87803b1580156102c7575f80fd5b505af11580156102d9573d5f803e3d5ffd5b505050505b505050505050565b805160209091012090565b67ffffffffffffffff81168114610306575f80fd5b50565b6001600160a01b0381168114610306575f80fd5b5f805f805f60808688031215610331575f80fd5b853567ffffffffffffffff80821115610348575f80fd5b818801915088601f83011261035b575f80fd5b813581811115610369575f80fd5b89602082850101111561037a575f80fd5b60209283019750955050860135610390816102f1565b925060408601356103a081610309565b915060608601356103b081610309565b809150509295509295909350565b80516103c9816102f1565b919050565b80516103c981610309565b5f60a082840312156103e9575f80fd5b60405160a0810181811067ffffffffffffffff8211171561041857634e487b7160e01b5f52604160045260245ffd5b604052825160038110610429575f80fd5b8152610437602084016103be565b6020820152610448604084016103ce565b604082015260608301516060820152608083015160808201528091505092915050565b634e487b7160e01b5f52602160045260245ffd5b60c081528660c0820152868860e08301375f60e08883018101919091526001600160a01b0396871660208301529486166040820152929094166060830152608082015267ffffffffffffffff90921660a0830152601f909201601f19160101919050565b5f602082840312156104f3575f80fd5b505191905056fea264697066735822122010ca4641762202503f2486a8eea6f556bdde33a13d025dcbcca094799047189864736f6c63430008190033",
  "linkReferences": {},
  "deployedLinkReferences": {},
  "immutableReferences": {
    "701": [
      {
        "length": 32,
        "start": 82
      },
      {
        "length": 32,
        "start": 147
      },
      {
        "length": 32,
        "start": 397
      },
      {
        "length": 32,
        "start": 638
      }
    ]
  },
  "inputSourceName": "project/test/mocks/MockPremigrator.sol",
  "devdoc": {
    "kind": "dev",
    "methods": {
      "constructor": {
        "params": {
          "ethRegistry_": "The ETH registry to use for registration."
        }
      },
      "preMigrate(string,uint64,address,address)": {
        "params": {
          "expiry": "Expiry for the name",
          "label": "Label to reserve or renew",
          "registry": "The registry for the name",
          "resolver": "The resolver for the name"
        }
      }
    },
    "title": "MockPremigrator",
    "version": 1
  },
  "evm": {
    "gasEstimates": {
      "creation": {
        "codeDepositCost": "265600",
        "executionCost": "infinite",
        "totalCost": "infinite"
      },
      "external": {
        "ETH_REGISTRY()": "infinite",
        "preMigrate(string,uint64,address,address)": "infinite"
      }
    }
  },
  "storageLayout": {
    "storage": [],
    "types": null
  },
  "userdoc": {
    "kind": "user",
    "methods": {
      "ETH_REGISTRY()": {
        "notice": "The ETH registry to use for registration."
      },
      "constructor": {
        "notice": "Initializes the MockPremigrator."
      },
      "preMigrate(string,uint64,address,address)": {
        "notice": "Register/renew a name for pre-migration"
      }
    },
    "notice": "Mocks premigration script state for testing on un-pre-migrated deployments.",
    "version": 1
  },
  "argsData": "0x000000000000000000000000796fff2e907449be8d5921bcc215b1b76d89d080",
  "transaction": {
    "hash": "0xb7e2f3e0e5f955cba52d8c693b77bfc181ade81371174dfae1c375f36a9ac987",
    "nonce": "0x1d56",
    "origin": "0xffffffffff52d316b7bd028358089bc8066b8f80"
  }
}