{
  "address": "0xe566a1fbaf30ff7c39828fe99f955fc55544cb9c",
  "abi": [
    {
      "inputs": [
        {
          "internalType": "contract IHCAFactoryBasic",
          "name": "hcaFactory",
          "type": "address"
        }
      ],
      "stateMutability": "nonpayable",
      "type": "constructor"
    },
    {
      "inputs": [
        {
          "internalType": "address",
          "name": "target",
          "type": "address"
        }
      ],
      "name": "AddressEmptyCode",
      "type": "error"
    },
    {
      "inputs": [
        {
          "internalType": "bytes",
          "name": "dns",
          "type": "bytes"
        }
      ],
      "name": "DNSDecodingFailed",
      "type": "error"
    },
    {
      "inputs": [
        {
          "internalType": "uint256",
          "name": "resource",
          "type": "uint256"
        },
        {
          "internalType": "uint256",
          "name": "roleBitmap",
          "type": "uint256"
        },
        {
          "internalType": "address",
          "name": "account",
          "type": "address"
        }
      ],
      "name": "EACCannotGrantRoles",
      "type": "error"
    },
    {
      "inputs": [
        {
          "internalType": "uint256",
          "name": "resource",
          "type": "uint256"
        },
        {
          "internalType": "uint256",
          "name": "roleBitmap",
          "type": "uint256"
        },
        {
          "internalType": "address",
          "name": "account",
          "type": "address"
        }
      ],
      "name": "EACCannotRevokeRoles",
      "type": "error"
    },
    {
      "inputs": [],
      "name": "EACInvalidAccount",
      "type": "error"
    },
    {
      "inputs": [
        {
          "internalType": "uint256",
          "name": "roleBitmap",
          "type": "uint256"
        }
      ],
      "name": "EACInvalidRoleBitmap",
      "type": "error"
    },
    {
      "inputs": [
        {
          "internalType": "uint256",
          "name": "resource",
          "type": "uint256"
        },
        {
          "internalType": "uint256",
          "name": "role",
          "type": "uint256"
        }
      ],
      "name": "EACMaxAssignees",
      "type": "error"
    },
    {
      "inputs": [
        {
          "internalType": "uint256",
          "name": "resource",
          "type": "uint256"
        },
        {
          "internalType": "uint256",
          "name": "role",
          "type": "uint256"
        }
      ],
      "name": "EACMinAssignees",
      "type": "error"
    },
    {
      "inputs": [],
      "name": "EACRootResourceNotAllowed",
      "type": "error"
    },
    {
      "inputs": [
        {
          "internalType": "uint256",
          "name": "resource",
          "type": "uint256"
        },
        {
          "internalType": "uint256",
          "name": "roleBitmap",
          "type": "uint256"
        },
        {
          "internalType": "address",
          "name": "account",
          "type": "address"
        }
      ],
      "name": "EACUnauthorizedAccountRoles",
      "type": "error"
    },
    {
      "inputs": [
        {
          "internalType": "address",
          "name": "implementation",
          "type": "address"
        }
      ],
      "name": "ERC1967InvalidImplementation",
      "type": "error"
    },
    {
      "inputs": [],
      "name": "ERC1967NonPayable",
      "type": "error"
    },
    {
      "inputs": [],
      "name": "FailedCall",
      "type": "error"
    },
    {
      "inputs": [
        {
          "internalType": "uint256",
          "name": "contentType",
          "type": "uint256"
        }
      ],
      "name": "InvalidContentType",
      "type": "error"
    },
    {
      "inputs": [
        {
          "internalType": "bytes",
          "name": "addressBytes",
          "type": "bytes"
        }
      ],
      "name": "InvalidEVMAddress",
      "type": "error"
    },
    {
      "inputs": [],
      "name": "InvalidInitialization",
      "type": "error"
    },
    {
      "inputs": [],
      "name": "InvalidOwner",
      "type": "error"
    },
    {
      "inputs": [],
      "name": "NotInitializing",
      "type": "error"
    },
    {
      "inputs": [],
      "name": "UUPSUnauthorizedCallContext",
      "type": "error"
    },
    {
      "inputs": [
        {
          "internalType": "bytes32",
          "name": "slot",
          "type": "bytes32"
        }
      ],
      "name": "UUPSUnsupportedProxiableUUID",
      "type": "error"
    },
    {
      "inputs": [
        {
          "internalType": "bytes4",
          "name": "selector",
          "type": "bytes4"
        }
      ],
      "name": "UnsupportedResolverProfile",
      "type": "error"
    },
    {
      "anonymous": false,
      "inputs": [
        {
          "indexed": true,
          "internalType": "bytes32",
          "name": "node",
          "type": "bytes32"
        },
        {
          "indexed": true,
          "internalType": "uint256",
          "name": "contentType",
          "type": "uint256"
        }
      ],
      "name": "ABIChanged",
      "type": "event"
    },
    {
      "anonymous": false,
      "inputs": [
        {
          "indexed": true,
          "internalType": "bytes32",
          "name": "node",
          "type": "bytes32"
        },
        {
          "indexed": false,
          "internalType": "address",
          "name": "a",
          "type": "address"
        }
      ],
      "name": "AddrChanged",
      "type": "event"
    },
    {
      "anonymous": false,
      "inputs": [
        {
          "indexed": true,
          "internalType": "bytes32",
          "name": "node",
          "type": "bytes32"
        },
        {
          "indexed": false,
          "internalType": "uint256",
          "name": "coinType",
          "type": "uint256"
        },
        {
          "indexed": false,
          "internalType": "bytes",
          "name": "newAddress",
          "type": "bytes"
        }
      ],
      "name": "AddressChanged",
      "type": "event"
    },
    {
      "anonymous": false,
      "inputs": [
        {
          "indexed": true,
          "internalType": "bytes",
          "name": "indexedFromName",
          "type": "bytes"
        },
        {
          "indexed": true,
          "internalType": "bytes",
          "name": "indexedToName",
          "type": "bytes"
        },
        {
          "indexed": false,
          "internalType": "bytes",
          "name": "fromName",
          "type": "bytes"
        },
        {
          "indexed": false,
          "internalType": "bytes",
          "name": "toName",
          "type": "bytes"
        }
      ],
      "name": "AliasChanged",
      "type": "event"
    },
    {
      "anonymous": false,
      "inputs": [
        {
          "indexed": true,
          "internalType": "bytes32",
          "name": "node",
          "type": "bytes32"
        },
        {
          "indexed": false,
          "internalType": "bytes",
          "name": "hash",
          "type": "bytes"
        }
      ],
      "name": "ContenthashChanged",
      "type": "event"
    },
    {
      "anonymous": false,
      "inputs": [
        {
          "indexed": true,
          "internalType": "uint256",
          "name": "resource",
          "type": "uint256"
        },
        {
          "indexed": true,
          "internalType": "address",
          "name": "account",
          "type": "address"
        },
        {
          "indexed": false,
          "internalType": "uint256",
          "name": "oldRoleBitmap",
          "type": "uint256"
        },
        {
          "indexed": false,
          "internalType": "uint256",
          "name": "newRoleBitmap",
          "type": "uint256"
        }
      ],
      "name": "EACRolesChanged",
      "type": "event"
    },
    {
      "anonymous": false,
      "inputs": [
        {
          "indexed": false,
          "internalType": "uint64",
          "name": "version",
          "type": "uint64"
        }
      ],
      "name": "Initialized",
      "type": "event"
    },
    {
      "anonymous": false,
      "inputs": [
        {
          "indexed": true,
          "internalType": "bytes32",
          "name": "node",
          "type": "bytes32"
        },
        {
          "indexed": true,
          "internalType": "bytes4",
          "name": "interfaceID",
          "type": "bytes4"
        },
        {
          "indexed": false,
          "internalType": "address",
          "name": "implementer",
          "type": "address"
        }
      ],
      "name": "InterfaceChanged",
      "type": "event"
    },
    {
      "anonymous": false,
      "inputs": [
        {
          "indexed": true,
          "internalType": "bytes32",
          "name": "node",
          "type": "bytes32"
        },
        {
          "indexed": false,
          "internalType": "string",
          "name": "name",
          "type": "string"
        }
      ],
      "name": "NameChanged",
      "type": "event"
    },
    {
      "anonymous": false,
      "inputs": [
        {
          "indexed": true,
          "internalType": "uint256",
          "name": "resource",
          "type": "uint256"
        },
        {
          "indexed": false,
          "internalType": "bytes",
          "name": "name",
          "type": "bytes"
        },
        {
          "indexed": true,
          "internalType": "uint256",
          "name": "coinType",
          "type": "uint256"
        }
      ],
      "name": "NamedAddrResource",
      "type": "event"
    },
    {
      "anonymous": false,
      "inputs": [
        {
          "indexed": true,
          "internalType": "uint256",
          "name": "resource",
          "type": "uint256"
        },
        {
          "indexed": false,
          "internalType": "bytes",
          "name": "name",
          "type": "bytes"
        }
      ],
      "name": "NamedResource",
      "type": "event"
    },
    {
      "anonymous": false,
      "inputs": [
        {
          "indexed": true,
          "internalType": "uint256",
          "name": "resource",
          "type": "uint256"
        },
        {
          "indexed": false,
          "internalType": "bytes",
          "name": "name",
          "type": "bytes"
        },
        {
          "indexed": true,
          "internalType": "bytes32",
          "name": "keyHash",
          "type": "bytes32"
        },
        {
          "indexed": false,
          "internalType": "string",
          "name": "key",
          "type": "string"
        }
      ],
      "name": "NamedTextResource",
      "type": "event"
    },
    {
      "anonymous": false,
      "inputs": [
        {
          "indexed": true,
          "internalType": "bytes32",
          "name": "node",
          "type": "bytes32"
        },
        {
          "indexed": false,
          "internalType": "bytes32",
          "name": "x",
          "type": "bytes32"
        },
        {
          "indexed": false,
          "internalType": "bytes32",
          "name": "y",
          "type": "bytes32"
        }
      ],
      "name": "PubkeyChanged",
      "type": "event"
    },
    {
      "anonymous": false,
      "inputs": [
        {
          "indexed": true,
          "internalType": "bytes32",
          "name": "node",
          "type": "bytes32"
        },
        {
          "indexed": true,
          "internalType": "string",
          "name": "indexedKey",
          "type": "string"
        },
        {
          "indexed": false,
          "internalType": "string",
          "name": "key",
          "type": "string"
        },
        {
          "indexed": false,
          "internalType": "string",
          "name": "value",
          "type": "string"
        }
      ],
      "name": "TextChanged",
      "type": "event"
    },
    {
      "anonymous": false,
      "inputs": [
        {
          "indexed": true,
          "internalType": "address",
          "name": "implementation",
          "type": "address"
        }
      ],
      "name": "Upgraded",
      "type": "event"
    },
    {
      "anonymous": false,
      "inputs": [
        {
          "indexed": true,
          "internalType": "bytes32",
          "name": "node",
          "type": "bytes32"
        },
        {
          "indexed": false,
          "internalType": "uint64",
          "name": "newVersion",
          "type": "uint64"
        }
      ],
      "name": "VersionChanged",
      "type": "event"
    },
    {
      "inputs": [
        {
          "internalType": "bytes32",
          "name": "node",
          "type": "bytes32"
        },
        {
          "internalType": "uint256",
          "name": "contentTypes",
          "type": "uint256"
        }
      ],
      "name": "ABI",
      "outputs": [
        {
          "internalType": "uint256",
          "name": "contentType",
          "type": "uint256"
        },
        {
          "internalType": "bytes",
          "name": "data",
          "type": "bytes"
        }
      ],
      "stateMutability": "view",
      "type": "function"
    },
    {
      "inputs": [],
      "name": "HCA_FACTORY",
      "outputs": [
        {
          "internalType": "contract IHCAFactoryBasic",
          "name": "",
          "type": "address"
        }
      ],
      "stateMutability": "view",
      "type": "function"
    },
    {
      "inputs": [],
      "name": "ROOT_RESOURCE",
      "outputs": [
        {
          "internalType": "uint256",
          "name": "",
          "type": "uint256"
        }
      ],
      "stateMutability": "view",
      "type": "function"
    },
    {
      "inputs": [],
      "name": "UPGRADE_INTERFACE_VERSION",
      "outputs": [
        {
          "internalType": "string",
          "name": "",
          "type": "string"
        }
      ],
      "stateMutability": "view",
      "type": "function"
    },
    {
      "inputs": [
        {
          "internalType": "bytes32",
          "name": "node",
          "type": "bytes32"
        }
      ],
      "name": "addr",
      "outputs": [
        {
          "internalType": "address payable",
          "name": "",
          "type": "address"
        }
      ],
      "stateMutability": "view",
      "type": "function"
    },
    {
      "inputs": [
        {
          "internalType": "bytes32",
          "name": "node",
          "type": "bytes32"
        },
        {
          "internalType": "uint256",
          "name": "coinType",
          "type": "uint256"
        }
      ],
      "name": "addr",
      "outputs": [
        {
          "internalType": "bytes",
          "name": "addressBytes",
          "type": "bytes"
        }
      ],
      "stateMutability": "view",
      "type": "function"
    },
    {
      "inputs": [
        {
          "internalType": "bytes32",
          "name": "node",
          "type": "bytes32"
        }
      ],
      "name": "clearRecords",
      "outputs": [],
      "stateMutability": "nonpayable",
      "type": "function"
    },
    {
      "inputs": [
        {
          "internalType": "bytes32",
          "name": "node",
          "type": "bytes32"
        }
      ],
      "name": "contenthash",
      "outputs": [
        {
          "internalType": "bytes",
          "name": "",
          "type": "bytes"
        }
      ],
      "stateMutability": "view",
      "type": "function"
    },
    {
      "inputs": [
        {
          "internalType": "bytes",
          "name": "fromName",
          "type": "bytes"
        }
      ],
      "name": "getAlias",
      "outputs": [
        {
          "internalType": "bytes",
          "name": "toName",
          "type": "bytes"
        }
      ],
      "stateMutability": "view",
      "type": "function"
    },
    {
      "inputs": [
        {
          "internalType": "uint256",
          "name": "resource",
          "type": "uint256"
        },
        {
          "internalType": "uint256",
          "name": "roleBitmap",
          "type": "uint256"
        }
      ],
      "name": "getAssigneeCount",
      "outputs": [
        {
          "internalType": "uint256",
          "name": "counts",
          "type": "uint256"
        },
        {
          "internalType": "uint256",
          "name": "mask",
          "type": "uint256"
        }
      ],
      "stateMutability": "view",
      "type": "function"
    },
    {
      "inputs": [
        {
          "internalType": "bytes",
          "name": "toName",
          "type": "bytes"
        },
        {
          "internalType": "uint256",
          "name": "coinType",
          "type": "uint256"
        },
        {
          "internalType": "address",
          "name": "account",
          "type": "address"
        }
      ],
      "name": "grantAddrRoles",
      "outputs": [
        {
          "internalType": "bool",
          "name": "",
          "type": "bool"
        }
      ],
      "stateMutability": "nonpayable",
      "type": "function"
    },
    {
      "inputs": [
        {
          "internalType": "bytes",
          "name": "toName",
          "type": "bytes"
        },
        {
          "internalType": "uint256",
          "name": "roleBitmap",
          "type": "uint256"
        },
        {
          "internalType": "address",
          "name": "account",
          "type": "address"
        }
      ],
      "name": "grantNameRoles",
      "outputs": [
        {
          "internalType": "bool",
          "name": "",
          "type": "bool"
        }
      ],
      "stateMutability": "nonpayable",
      "type": "function"
    },
    {
      "inputs": [
        {
          "internalType": "uint256",
          "name": "resource",
          "type": "uint256"
        },
        {
          "internalType": "uint256",
          "name": "roleBitmap",
          "type": "uint256"
        },
        {
          "internalType": "address",
          "name": "account",
          "type": "address"
        }
      ],
      "name": "grantRoles",
      "outputs": [
        {
          "internalType": "bool",
          "name": "",
          "type": "bool"
        }
      ],
      "stateMutability": "pure",
      "type": "function"
    },
    {
      "inputs": [
        {
          "internalType": "uint256",
          "name": "roleBitmap",
          "type": "uint256"
        },
        {
          "internalType": "address",
          "name": "account",
          "type": "address"
        }
      ],
      "name": "grantRootRoles",
      "outputs": [
        {
          "internalType": "bool",
          "name": "",
          "type": "bool"
        }
      ],
      "stateMutability": "nonpayable",
      "type": "function"
    },
    {
      "inputs": [
        {
          "internalType": "bytes",
          "name": "toName",
          "type": "bytes"
        },
        {
          "internalType": "string",
          "name": "key",
          "type": "string"
        },
        {
          "internalType": "address",
          "name": "account",
          "type": "address"
        }
      ],
      "name": "grantTextRoles",
      "outputs": [
        {
          "internalType": "bool",
          "name": "",
          "type": "bool"
        }
      ],
      "stateMutability": "nonpayable",
      "type": "function"
    },
    {
      "inputs": [
        {
          "internalType": "bytes32",
          "name": "node",
          "type": "bytes32"
        },
        {
          "internalType": "uint256",
          "name": "coinType",
          "type": "uint256"
        }
      ],
      "name": "hasAddr",
      "outputs": [
        {
          "internalType": "bool",
          "name": "",
          "type": "bool"
        }
      ],
      "stateMutability": "view",
      "type": "function"
    },
    {
      "inputs": [
        {
          "internalType": "uint256",
          "name": "resource",
          "type": "uint256"
        },
        {
          "internalType": "uint256",
          "name": "roleBitmap",
          "type": "uint256"
        }
      ],
      "name": "hasAssignees",
      "outputs": [
        {
          "internalType": "bool",
          "name": "",
          "type": "bool"
        }
      ],
      "stateMutability": "view",
      "type": "function"
    },
    {
      "inputs": [
        {
          "internalType": "uint256",
          "name": "resource",
          "type": "uint256"
        },
        {
          "internalType": "uint256",
          "name": "roleBitmap",
          "type": "uint256"
        },
        {
          "internalType": "address",
          "name": "account",
          "type": "address"
        }
      ],
      "name": "hasRoles",
      "outputs": [
        {
          "internalType": "bool",
          "name": "",
          "type": "bool"
        }
      ],
      "stateMutability": "view",
      "type": "function"
    },
    {
      "inputs": [
        {
          "internalType": "uint256",
          "name": "roleBitmap",
          "type": "uint256"
        },
        {
          "internalType": "address",
          "name": "account",
          "type": "address"
        }
      ],
      "name": "hasRootRoles",
      "outputs": [
        {
          "internalType": "bool",
          "name": "",
          "type": "bool"
        }
      ],
      "stateMutability": "view",
      "type": "function"
    },
    {
      "inputs": [
        {
          "internalType": "address",
          "name": "admin",
          "type": "address"
        },
        {
          "internalType": "uint256",
          "name": "roleBitmap",
          "type": "uint256"
        }
      ],
      "name": "initialize",
      "outputs": [],
      "stateMutability": "nonpayable",
      "type": "function"
    },
    {
      "inputs": [
        {
          "internalType": "bytes32",
          "name": "node",
          "type": "bytes32"
        },
        {
          "internalType": "bytes4",
          "name": "interfaceId",
          "type": "bytes4"
        }
      ],
      "name": "interfaceImplementer",
      "outputs": [
        {
          "internalType": "address",
          "name": "implementer",
          "type": "address"
        }
      ],
      "stateMutability": "view",
      "type": "function"
    },
    {
      "inputs": [
        {
          "internalType": "bytes[]",
          "name": "calls",
          "type": "bytes[]"
        }
      ],
      "name": "multicall",
      "outputs": [
        {
          "internalType": "bytes[]",
          "name": "results",
          "type": "bytes[]"
        }
      ],
      "stateMutability": "nonpayable",
      "type": "function"
    },
    {
      "inputs": [
        {
          "internalType": "bytes32",
          "name": "",
          "type": "bytes32"
        },
        {
          "internalType": "bytes[]",
          "name": "calls",
          "type": "bytes[]"
        }
      ],
      "name": "multicallWithNodeCheck",
      "outputs": [
        {
          "internalType": "bytes[]",
          "name": "",
          "type": "bytes[]"
        }
      ],
      "stateMutability": "nonpayable",
      "type": "function"
    },
    {
      "inputs": [
        {
          "internalType": "bytes32",
          "name": "node",
          "type": "bytes32"
        }
      ],
      "name": "name",
      "outputs": [
        {
          "internalType": "string",
          "name": "",
          "type": "string"
        }
      ],
      "stateMutability": "view",
      "type": "function"
    },
    {
      "inputs": [],
      "name": "proxiableUUID",
      "outputs": [
        {
          "internalType": "bytes32",
          "name": "",
          "type": "bytes32"
        }
      ],
      "stateMutability": "view",
      "type": "function"
    },
    {
      "inputs": [
        {
          "internalType": "bytes32",
          "name": "node",
          "type": "bytes32"
        }
      ],
      "name": "pubkey",
      "outputs": [
        {
          "internalType": "bytes32",
          "name": "x",
          "type": "bytes32"
        },
        {
          "internalType": "bytes32",
          "name": "y",
          "type": "bytes32"
        }
      ],
      "stateMutability": "view",
      "type": "function"
    },
    {
      "inputs": [
        {
          "internalType": "bytes32",
          "name": "node",
          "type": "bytes32"
        }
      ],
      "name": "recordVersions",
      "outputs": [
        {
          "internalType": "uint64",
          "name": "",
          "type": "uint64"
        }
      ],
      "stateMutability": "view",
      "type": "function"
    },
    {
      "inputs": [
        {
          "internalType": "bytes",
          "name": "fromName",
          "type": "bytes"
        },
        {
          "internalType": "bytes",
          "name": "fromData",
          "type": "bytes"
        }
      ],
      "name": "resolve",
      "outputs": [
        {
          "internalType": "bytes",
          "name": "",
          "type": "bytes"
        }
      ],
      "stateMutability": "view",
      "type": "function"
    },
    {
      "inputs": [
        {
          "internalType": "uint256",
          "name": "resource",
          "type": "uint256"
        },
        {
          "internalType": "uint256",
          "name": "roleBitmap",
          "type": "uint256"
        },
        {
          "internalType": "address",
          "name": "account",
          "type": "address"
        }
      ],
      "name": "revokeRoles",
      "outputs": [
        {
          "internalType": "bool",
          "name": "",
          "type": "bool"
        }
      ],
      "stateMutability": "nonpayable",
      "type": "function"
    },
    {
      "inputs": [
        {
          "internalType": "uint256",
          "name": "roleBitmap",
          "type": "uint256"
        },
        {
          "internalType": "address",
          "name": "account",
          "type": "address"
        }
      ],
      "name": "revokeRootRoles",
      "outputs": [
        {
          "internalType": "bool",
          "name": "",
          "type": "bool"
        }
      ],
      "stateMutability": "nonpayable",
      "type": "function"
    },
    {
      "inputs": [
        {
          "internalType": "uint256",
          "name": "resource",
          "type": "uint256"
        }
      ],
      "name": "roleCount",
      "outputs": [
        {
          "internalType": "uint256",
          "name": "",
          "type": "uint256"
        }
      ],
      "stateMutability": "view",
      "type": "function"
    },
    {
      "inputs": [
        {
          "internalType": "uint256",
          "name": "resource",
          "type": "uint256"
        },
        {
          "internalType": "address",
          "name": "account",
          "type": "address"
        }
      ],
      "name": "roles",
      "outputs": [
        {
          "internalType": "uint256",
          "name": "",
          "type": "uint256"
        }
      ],
      "stateMutability": "view",
      "type": "function"
    },
    {
      "inputs": [
        {
          "internalType": "bytes32",
          "name": "node",
          "type": "bytes32"
        },
        {
          "internalType": "uint256",
          "name": "contentType",
          "type": "uint256"
        },
        {
          "internalType": "bytes",
          "name": "data",
          "type": "bytes"
        }
      ],
      "name": "setABI",
      "outputs": [],
      "stateMutability": "nonpayable",
      "type": "function"
    },
    {
      "inputs": [
        {
          "internalType": "bytes32",
          "name": "node",
          "type": "bytes32"
        },
        {
          "internalType": "uint256",
          "name": "coinType",
          "type": "uint256"
        },
        {
          "internalType": "bytes",
          "name": "addressBytes",
          "type": "bytes"
        }
      ],
      "name": "setAddr",
      "outputs": [],
      "stateMutability": "nonpayable",
      "type": "function"
    },
    {
      "inputs": [
        {
          "internalType": "bytes32",
          "name": "node",
          "type": "bytes32"
        },
        {
          "internalType": "address",
          "name": "addr_",
          "type": "address"
        }
      ],
      "name": "setAddr",
      "outputs": [],
      "stateMutability": "nonpayable",
      "type": "function"
    },
    {
      "inputs": [
        {
          "internalType": "bytes",
          "name": "fromName",
          "type": "bytes"
        },
        {
          "internalType": "bytes",
          "name": "toName",
          "type": "bytes"
        }
      ],
      "name": "setAlias",
      "outputs": [],
      "stateMutability": "nonpayable",
      "type": "function"
    },
    {
      "inputs": [
        {
          "internalType": "bytes32",
          "name": "node",
          "type": "bytes32"
        },
        {
          "internalType": "bytes",
          "name": "hash",
          "type": "bytes"
        }
      ],
      "name": "setContenthash",
      "outputs": [],
      "stateMutability": "nonpayable",
      "type": "function"
    },
    {
      "inputs": [
        {
          "internalType": "bytes32",
          "name": "node",
          "type": "bytes32"
        },
        {
          "internalType": "bytes4",
          "name": "interfaceId",
          "type": "bytes4"
        },
        {
          "internalType": "address",
          "name": "implementer",
          "type": "address"
        }
      ],
      "name": "setInterface",
      "outputs": [],
      "stateMutability": "nonpayable",
      "type": "function"
    },
    {
      "inputs": [
        {
          "internalType": "bytes32",
          "name": "node",
          "type": "bytes32"
        },
        {
          "internalType": "string",
          "name": "primary",
          "type": "string"
        }
      ],
      "name": "setName",
      "outputs": [],
      "stateMutability": "nonpayable",
      "type": "function"
    },
    {
      "inputs": [
        {
          "internalType": "bytes32",
          "name": "node",
          "type": "bytes32"
        },
        {
          "internalType": "bytes32",
          "name": "x",
          "type": "bytes32"
        },
        {
          "internalType": "bytes32",
          "name": "y",
          "type": "bytes32"
        }
      ],
      "name": "setPubkey",
      "outputs": [],
      "stateMutability": "nonpayable",
      "type": "function"
    },
    {
      "inputs": [
        {
          "internalType": "bytes32",
          "name": "node",
          "type": "bytes32"
        },
        {
          "internalType": "string",
          "name": "key",
          "type": "string"
        },
        {
          "internalType": "string",
          "name": "value",
          "type": "string"
        }
      ],
      "name": "setText",
      "outputs": [],
      "stateMutability": "nonpayable",
      "type": "function"
    },
    {
      "inputs": [
        {
          "internalType": "bytes4",
          "name": "feature",
          "type": "bytes4"
        }
      ],
      "name": "supportsFeature",
      "outputs": [
        {
          "internalType": "bool",
          "name": "",
          "type": "bool"
        }
      ],
      "stateMutability": "pure",
      "type": "function"
    },
    {
      "inputs": [
        {
          "internalType": "bytes4",
          "name": "interfaceId",
          "type": "bytes4"
        }
      ],
      "name": "supportsInterface",
      "outputs": [
        {
          "internalType": "bool",
          "name": "",
          "type": "bool"
        }
      ],
      "stateMutability": "view",
      "type": "function"
    },
    {
      "inputs": [
        {
          "internalType": "bytes32",
          "name": "node",
          "type": "bytes32"
        },
        {
          "internalType": "string",
          "name": "key",
          "type": "string"
        }
      ],
      "name": "text",
      "outputs": [
        {
          "internalType": "string",
          "name": "",
          "type": "string"
        }
      ],
      "stateMutability": "view",
      "type": "function"
    },
    {
      "inputs": [
        {
          "internalType": "address",
          "name": "newImplementation",
          "type": "address"
        },
        {
          "internalType": "bytes",
          "name": "data",
          "type": "bytes"
        }
      ],
      "name": "upgradeToAndCall",
      "outputs": [],
      "stateMutability": "payable",
      "type": "function"
    }
  ],
  "contractName": "PermissionedResolver",
  "sourceName": "src/resolver/PermissionedResolver.sol",
  "bytecode": "0x60c06040523060a052348015610013575f80fd5b506040516144b33803806144b3833981016040819052610032916100ff565b6001600160a01b03811660805261004761004d565b5061012c565b7ff0c57e16840df040f15088dc2f81fe391c3923bec73e23a9662efc9c229c6a00805468010000000000000000900460ff161561009d5760405163f92ee8a960e01b815260040160405180910390fd5b80546001600160401b03908116146100fc5780546001600160401b0319166001600160401b0390811782556040519081527fc7f505b2f371ae2175ee4913f4499e1f2633a7b5936321eed1cdaeb6115181d29060200160405180910390a15b50565b5f6020828403121561010f575f80fd5b81516001600160a01b0381168114610125575f80fd5b9392505050565b60805160a05161434a6101695f395f8181612a0a01528181612a330152612bc901525f81816104d4015281816133e9015261344a015261434a5ff3fe6080604052600436106102e1575f3560e01c80635adf472411610186578063bc1c58d1116100dc578063d5fa2b0011610087578063e32954eb11610062578063e32954eb146109cc578063e59d895d146109eb578063f1cb7e0614610a0a575f80fd5b8063d5fa2b0014610940578063d700ff331461095f578063dfa70d8b146109ad575f80fd5b8063cd6dc687116100b7578063cd6dc68714610895578063ce156e82146108b4578063d3bf89b1146108d3575f80fd5b8063bc1c58d114610805578063c80ef4e014610824578063c869023314610843575f80fd5b80637c3005861161013c578063ac9650d811610117578063ac9650d814610772578063ad3cb1cc1461079e578063b8aacf7a146107e6575f80fd5b80637c300586146107155780638b95dd71146107345780639061b92314610753575f80fd5b8063691f34311161016c578063691f34311461068157806377372213146106a0578063781ef8db146106bf575f80fd5b80635adf472414610623578063623195b014610662575f80fd5b80632f27fa241161023b5780633634f911116101f157806352d1902d116101cc57806352d1902d1461059a578063582de3e7146105ae57806359d1d43c146105f7575f80fd5b80633634f911146105345780633b3b57de146105685780634f1ef28614610587575f80fd5b8063319c22bb11610221578063319c22bb146104c357806332f111d7146104f65780633603d75814610515575f80fd5b80632f27fa2414610479578063304e6ade146104a4575f80fd5b8063124a319c1161029b5780632203ab56116102765780632203ab561461040e578063291770ae1461043b57806329cd62ea1461045a575f80fd5b8063124a319c146103975780631c3fc3eb146103ce578063216a5c11146103ef575f80fd5b8063072d5d77116102cb578063072d5d771461033857806310f13a8c1461035757806311b8e00a14610378575f80fd5b80623e5291146102e557806301ffc9a714610319575b5f80fd5b3480156102f0575f80fd5b506103046102ff36600461376b565b610a29565b60405190151581526020015b60405180910390f35b348015610324575f80fd5b506103046103333660046137dd565b610b04565b348015610343575f80fd5b506103046103523660046137f6565b610e1f565b348015610362575f80fd5b50610376610371366004613824565b610e47565b005b348015610383575f80fd5b50610304610392366004613898565b610ffd565b3480156103a2575f80fd5b506103b66103b13660046138b8565b611014565b6040516001600160a01b039091168152602001610310565b3480156103d9575f80fd5b506103e15f81565b604051908152602001610310565b3480156103fa575f80fd5b506103046104093660046138e2565b611087565b348015610419575f80fd5b5061042d610428366004613898565b61119e565b60405161031092919061398e565b348015610446575f80fd5b506103766104553660046139a6565b6112b8565b348015610465575f80fd5b50610376610474366004613a0d565b6113a1565b348015610484575f80fd5b506103e1610493366004613a36565b5f9081526001602052604090205490565b3480156104af575f80fd5b506103766104be366004613a4d565b611493565b3480156104ce575f80fd5b506103b67f000000000000000000000000000000000000000000000000000000000000000081565b348015610501575f80fd5b50610304610510366004613898565b611565565b348015610520575f80fd5b5061037661052f366004613a36565b6115b1565b34801561053f575f80fd5b5061055361054e366004613898565b6116b0565b60408051928352602083019190915201610310565b348015610573575f80fd5b506103b6610582366004613a36565b6116d3565b610376610595366004613b53565b6116f1565b3480156105a5575f80fd5b506103e1611710565b3480156105b9575f80fd5b506103046105c83660046137dd565b6001600160e01b0319167f96b62db8000000000000000000000000000000000000000000000000000000001490565b348015610602575f80fd5b50610616610611366004613a4d565b61173e565b6040516103109190613ba0565b34801561062e575f80fd5b506103e161063d3660046137f6565b5f918252602082815260408084206001600160a01b0393909316845291905290205490565b34801561066d575f80fd5b5061037661067c366004613bb2565b61181c565b34801561068c575f80fd5b5061061661069b366004613a36565b61194b565b3480156106ab575f80fd5b506103766106ba366004613a4d565b611a08565b3480156106ca575f80fd5b506103046106d93660046137f6565b6001600160a01b03165f9081527fad3228b676f7d3cd4284a5443f17f1962b36e491b30a40b2405849e597ba5fb5602052604090205481161490565b348015610720575f80fd5b5061030461072f366004613bf5565b611adf565b34801561073f575f80fd5b5061037661074e366004613c2b565b611b13565b34801561075e575f80fd5b5061061661076d3660046139a6565b611c9d565b34801561077d575f80fd5b5061079161078c366004613cb8565b611f92565b6040516103109190613cf7565b3480156107a9575f80fd5b506106166040518060400160405280600581526020017f352e302e3000000000000000000000000000000000000000000000000000000081525081565b3480156107f1575f80fd5b5061030461080036600461376b565b612099565b348015610810575f80fd5b5061061661081f366004613a36565b612145565b34801561082f575f80fd5b5061061661083e366004613d59565b61217c565b34801561084e575f80fd5b5061055361085d366004613a36565b5f908152600460209081526040808320600383528184205467ffffffffffffffff168452909152902060018101546002909101549091565b3480156108a0575f80fd5b506103766108af366004613d8b565b6121c6565b3480156108bf575f80fd5b506103046108ce3660046137f6565b612338565b3480156108de575f80fd5b506103046108ed366004613bf5565b5f928352602083815260408085206001600160a01b03939093168552918152818420547fad3228b676f7d3cd4284a5443f17f1962b36e491b30a40b2405849e597ba5fb590915292205490911781161490565b34801561094b575f80fd5b5061037661095a3660046137f6565b61235a565b34801561096a575f80fd5b50610994610979366004613a36565b5f9081526003602052604090205467ffffffffffffffff1690565b60405167ffffffffffffffff9091168152602001610310565b3480156109b8575f80fd5b506103046109c7366004613bf5565b612396565b3480156109d7575f80fd5b506107916109e6366004613db5565b6123f4565b3480156109f6575f80fd5b50610376610a05366004613df0565b612400565b348015610a15575f80fd5b50610616610a24366004613898565b612507565b5f80610a6986868080601f0160208091040260200160405190810160405280939291908181526020018383808284375f9201829052509250612690915050565b9050610a90610a81825f809182526020526040902090565b6001610a8b6126c1565b6126cf565b5f610aac82610a9e876127a4565b5f9182526020526040902090565b905084817f2fe6caf984256b1a1844b92f52cf88703e829b07ce397a6c7fcf1f779db7a1858989604051610ae1929190613e4a565b60405180910390a3610af78160018660016127b4565b925050505b949350505050565b5f7f2c7442c9000000000000000000000000000000000000000000000000000000006001600160e01b031983161480610b6657507f9061b923000000000000000000000000000000000000000000000000000000006001600160e01b03198316145b80610b9a57507f582de3e7000000000000000000000000000000000000000000000000000000006001600160e01b03198316145b80610bce57507f4fbf0433000000000000000000000000000000000000000000000000000000006001600160e01b03198316145b80610c0257507f2203ab56000000000000000000000000000000000000000000000000000000006001600160e01b03198316145b80610c3657507f3b3b57de000000000000000000000000000000000000000000000000000000006001600160e01b03198316145b80610c6a57507ff1cb7e06000000000000000000000000000000000000000000000000000000006001600160e01b03198316145b80610c9e57507fbc1c58d1000000000000000000000000000000000000000000000000000000006001600160e01b03198316145b80610cd257507f32f111d7000000000000000000000000000000000000000000000000000000006001600160e01b03198316145b80610d0657507f124a319c000000000000000000000000000000000000000000000000000000006001600160e01b03198316145b80610d3a57507f691f3431000000000000000000000000000000000000000000000000000000006001600160e01b03198316145b80610d6e57507fc8690233000000000000000000000000000000000000000000000000000000006001600160e01b03198316145b80610da257507f59d1d43c000000000000000000000000000000000000000000000000000000006001600160e01b03198316145b80610dd657507fd700ff33000000000000000000000000000000000000000000000000000000006001600160e01b03198316145b80610e0a57507fb0f3d367000000000000000000000000000000000000000000000000000000006001600160e01b03198316145b80610e195750610e19826128c4565b92915050565b5f8083610e2f8282610a8b6126c1565b610e3c5f868660016127b4565b92505b505092915050565b84610e8685858080601f0160208091040260200160405190810160405280939291908181526020018383808284375f9201919091525061291192505050565b60105f610e916126c1565b9050610ef9610ea985855f9182526020526040902090565b5f908152602081815260408083206001600160a01b03861684528252808320547fad3228b676f7d3cd4284a5443f17f1962b36e491b30a40b2405849e597ba5fb590925290912054178316831490565b158015610f195750610f17610ea95f855f9182526020526040902090565b155b15610f3b57610f3b610f34855f809182526020526040902090565b8383612929565b8585610f6d8b5f908152600460209081526040808320600383528184205467ffffffffffffffff168452909152902090565b6005018a8a604051610f80929190613e5d565b90815260200160405180910390209182610f9b929190613ee2565b508787604051610fac929190613e5d565b6040518091039020897f448bc014f1536726cf8d54ff3d6481ed3cbc683c2591ca204274009afa09b1a18a8a8a8a604051610fea9493929190613f9c565b60405180910390a3505050505050505050565b5f8061100984846116b0565b501515949350505050565b5f828152600460209081526040808320600383528184205467ffffffffffffffff16845282528083206001600160e01b0319851684526007019091529020546001600160a01b031680610e19575f61106b846116d3565b905061107781846129ca565b15611080578091505b5092915050565b5f806110c787878080601f0160208091040260200160405190810160405280939291908181526020018383808284375f9201829052509250612690915050565b90506110e96110df825f809182526020526040902090565b6010610a8b6126c1565b5f61112c82610a9e88888080601f0160208091040260200160405190810160405280939291908181526020018383808284375f9201919091525061291192505050565b9050858560405161113e929190613e5d565b6040518091039020817fab228e072dd20e63d6891264ea8f6a2459e6852ab494b707970f978ba630859c8a8a8a8a60405161117c9493929190613f9c565b60405180910390a36111928160108660016127b4565b98975050505050505050565b5f828152600460209081526040808320600383528184205467ffffffffffffffff16845290915290206001906060905b5f831180156111dd5750838311155b1561129d5782841615611291575f8381526006820160205260409020805461120490613e6c565b80601f016020809104026020016040519081016040528092919081815260200182805461123090613e6c565b801561127b5780601f106112525761010080835404028352916020019161127b565b820191905f5260205f20905b81548152906001019060200180831161125e57829003601f168201915b505050505091505f8251111561129157506112b1565b600183901b92506111ce565b505060408051602081019091525f80825291505b9250929050565b63100000006112cf5f826112ca6126c1565b612929565b828260025f61131289898080601f0160208091040260200160405190810160405280939291908181526020018383808284375f9201829052509250612690915050565b81526020019081526020015f20918261132c929190613ee2565b50828260405161133d929190613e5d565b60405180910390208585604051611355929190613e5d565b60405180910390207fa8c2ea0876733fd2146051b3e195e5e1d1f85eff08bf169191dce9569281c529878787876040516113929493929190613f9c565b60405180910390a35050505050565b825f611000816113af6126c1565b90506113c7610ea985855f9182526020526040902090565b1580156113e757506113e5610ea95f855f9182526020526040902090565b155b1561140257611402610f34855f809182526020526040902090565b60408051808201825287815260208082018890525f8a815260048252838120600383528482205467ffffffffffffffff1682529091529190912060010190600261144d9291906136d0565b50604080518781526020810187905288917f1d6f5e03d3f63eb58751986629a5439baee5079ff04f345becb66e23eb154e4691015b60405180910390a250505050505050565b825f610100816114a16126c1565b90506114b9610ea985855f9182526020526040902090565b1580156114d957506114d7610ea95f855f9182526020526040902090565b155b156114f4576114f4610f34855f809182526020526040902090565b8585611526895f908152600460209081526040808320600383528184205467ffffffffffffffff168452909152902090565b91611532919083613ee2565b50867fe379c1624ed7e714cc0937528a32359d69d5281337765313dba4e081b72d75788787604051611482929190613e4a565b5f828152600460208181526040808420600383528185205467ffffffffffffffff16855282528084208585529092019052812080548291906115a690613e6c565b905011905092915050565b805f640100000000816115c26126c1565b90506115da610ea985855f9182526020526040902090565b1580156115fa57506115f8610ea95f855f9182526020526040902090565b155b1561161557611615610f34855f809182526020526040902090565b5f858152600360205260408120805482906116399067ffffffffffffffff16613fd6565b91906101000a81548167ffffffffffffffff021916908367ffffffffffffffff16021790559050857fc6621ccb8f3f5a04bb6502154b2caf6adf5983fe76dfef1cfc9c42e3579db444826040516116a0919067ffffffffffffffff91909116815260200190565b60405180910390a2505050505050565b5f806116bb836129e5565b5f948552600160205260409094205484169492505050565b5f6116df82603c612507565b6116e890613ffc565b60601c92915050565b6116f96129ff565b61170282612ab8565b61170c8282612ad6565b5050565b5f611719612bbe565b507f360894a13ba1a3210667c828492db98dca3e2076cc3735a920a3ca505d382bbc90565b5f838152600460209081526040808320600383528184205467ffffffffffffffff1684529091529020606090600501838360405161177d929190613e5d565b9081526020016040518091039020805461179690613e6c565b80601f01602080910402602001604051908101604052809291908181526020018280546117c290613e6c565b801561180d5780601f106117e45761010080835404028352916020019161180d565b820191905f5260205f20905b8154815290600101906020018083116117f057829003601f168201915b505050505090505b9392505050565b835f620100008161182b6126c1565b9050611843610ea985855f9182526020526040902090565b1580156118635750611861610ea95f855f9182526020526040902090565b155b1561187e5761187e610f34855f809182526020526040902090565b61188787612c07565b6118c5576040517f5742bb26000000000000000000000000000000000000000000000000000000008152600481018890526024015b60405180910390fd5b85856118f78a5f908152600460209081526040808320600383528184205467ffffffffffffffff168452909152902090565b5f8a81526006919091016020526040902091611914919083613ee2565b50604051879089907faa121bbeef5f32f5961a2a28966e769023910fc9479059ee3495d4c1a696efe3905f90a35050505050505050565b5f818152600460209081526040808320600383528184205467ffffffffffffffff1684529091529020606090600301805461198590613e6c565b80601f01602080910402602001604051908101604052809291908181526020018280546119b190613e6c565b80156119fc5780601f106119d3576101008083540402835291602001916119fc565b820191905f5260205f20905b8154815290600101906020018083116119df57829003601f168201915b50505050509050919050565b825f630100000081611a186126c1565b9050611a30610ea985855f9182526020526040902090565b158015611a505750611a4e610ea95f855f9182526020526040902090565b155b15611a6b57611a6b610f34855f809182526020526040902090565b8585611a9d895f908152600460209081526040808320600383528184205467ffffffffffffffff168452909152902090565b60030191611aac919083613ee2565b50867fb7d29e911041e8d9b843369e890bcb72c9388692ba48b65ac54e7214c4c348f78787604051611482929190613e4a565b60405163d1a3b35560e01b815260048101849052602481018390526001600160a01b03821660448201525f906064016118bc565b82611b1d836127a4565b60015f611b286126c1565b9050611b40610ea985855f9182526020526040902090565b158015611b605750611b5e610ea95f855f9182526020526040902090565b155b15611b7b57611b7b610f34855f809182526020526040902090565b845115801590611b8d57508451601414155b8015611b9d5750611b9d86612c26565b15611bd657846040517f8d666f600000000000000000000000000000000000000000000000000000000081526004016118bc9190613ba0565b5f878152600460208181526040808420600383528185205467ffffffffffffffff16855282528084208a855290920190529020611c138682614038565b50867f65412581168e88a1e60c6459d7f44ae83ad0832e670826c05a4e2476b57af7528787604051611c4692919061398e565b60405180910390a2603c8603611c9457867f52d7d861f09ab3d26239d492e8968629f95e9e318cf0b73bfddc441522a15fd2611c8187613ffc565b60405160609190911c8152602001611482565b50505050505050565b60605f611cde86868080601f0160208091040260200160405190810160405280939291908181526020018383808284375f9201919091525061217c92505050565b90505f611d388585611d3385515f14611cf75785611d2d565b8a8a8080601f0160208091040260200160405190810160405280939291908181526020018383808284375f920191909152505050505b5f612690565b612c4b565b90507fac9650d800000000000000000000000000000000000000000000000000000000611d64826140f8565b6001600160e01b03191603611ee6578051600319810160048301908152915f91611d97919081016020019060240161412b565b90505f5b8151811015611ebb57818181518110611db657611db6614221565b602002602001015192505f306001600160a01b031684604051611dd99190614235565b5f60405180830381855afa9150503d805f8114611e11576040519150601f19603f3d011682016040523d82523d5f602084013e611e16565b606091505b5091505080515f03611e9457637b1c461b60e01b611e33856140f8565b6040516001600160e01b0319909116602482015260440160408051601f198184030181529190526020810180517bffffffffffffffffffffffffffffffffffffffffffffffffffffffff166001600160e01b03199093169290921790915290505b80838381518110611ea757611ea7614221565b602090810291909101015250600101611d9b565b5080604051602001611ecd9190613cf7565b6040516020818303038152906040529350505050610afc565b5f80306001600160a01b031683604051611f009190614235565b5f60405180830381855afa9150503d805f8114611f38576040519150601f19603f3d011682016040523d82523d5f602084013e611f3d565b606091505b509150915081611f4f57805160208201fd5b80515f03611f8757611f61868861424b565b604051637b1c461b60e01b81526001600160e01b031990911660048201526024016118bc565b9350610afc92505050565b60608167ffffffffffffffff811115611fad57611fad613a95565b604051908082528060200260200182016040528015611fe057816020015b6060815260200190600190039081611fcb5790505b5090505f5b82811015611080575f803086868581811061200257612002614221565b90506020028101906120149190614279565b604051612022929190613e5d565b5f60405180830381855af49150503d805f811461205a576040519150601f19603f3d011682016040523d82523d5f602084013e61205f565b606091505b50915091508161207157805160208201fd5b8084848151811061208457612084614221565b60209081029190910101525050600101611fe5565b5f806120d986868080601f0160208091040260200160405190810160405280939291908181526020018383808284375f9201829052509250612690915050565b90505f6120ef82825f9182526020526040902090565b90506120fe8186610a8b6126c1565b807f737038e72be1d204e2c7336c20bff2169d9dffe11face28c5969af4ecce04f678888604051612130929190613e4a565b60405180910390a2610af781868660016127b4565b5f818152600460209081526040808320600383528184205467ffffffffffffffff1684529091529020606090805461198590613e6c565b60605f5b606061218b84612ce6565b80519095509091505f0361219f57506121c0565b805160208201208281036121b45750506121c0565b84935091506121809050565b50919050565b5f6121cf612e34565b805490915060ff68010000000000000000820416159067ffffffffffffffff165f811580156121fb5750825b90505f8267ffffffffffffffff1660011480156122175750303b155b905081158015612225575080155b1561225c576040517ff92ee8a900000000000000000000000000000000000000000000000000000000815260040160405180910390fd5b845467ffffffffffffffff19166001178555831561229057845468ff00000000000000001916680100000000000000001785555b6001600160a01b0387166122d0576040517f49e27cff00000000000000000000000000000000000000000000000000000000815260040160405180910390fd5b6122d8612e5c565b6122e45f87895f6127b4565b508315611c9457845468ff000000000000000019168555604051600181527fc7f505b2f371ae2175ee4913f4499e1f2633a7b5936321eed1cdaeb6115181d29060200160405180910390a150505050505050565b5f808361234d82826123486126c1565b612e64565b610e3c5f86866001612f4c565b6040516bffffffffffffffffffffffff19606083901b16602082015261170c908390603c90603401604051602081830303815290604052611b13565b5f83836123a682826123486126c1565b856123dd576040517fc284245800000000000000000000000000000000000000000000000000000000815260040160405180910390fd5b6123ea8686866001612f4c565b9695505050505050565b6060610afc8383611f92565b825f621000008161240f6126c1565b9050612427610ea985855f9182526020526040902090565b1580156124475750612445610ea95f855f9182526020526040902090565b155b1561246257612462610f34855f809182526020526040902090565b5f878152600460209081526040808320600383528184205467ffffffffffffffff16845282528083206001600160e01b03198a168085526007909101835292819020805473ffffffffffffffffffffffffffffffffffffffff19166001600160a01b038a16908117909155815190815290518a927f7c69f06bea0bdef565b709e93a147836b0063ba2dd89f02d0b7e8d931e6a6daa928290030190a350505050505050565b5f828152600460208181526040808420600383528185205467ffffffffffffffff16855282528084208585529283019091529091208054606092919061254c90613e6c565b80601f016020809104026020016040519081016040528092919081815260200182805461257890613e6c565b80156125c35780601f1061259a576101008083540402835291602001916125c3565b820191905f5260205f20905b8154815290600101906020018083116125a657829003601f168201915b5050505050915081515f1480156125e757505f6125df84612fb4565b63ffffffff16115b156110805763800000005f9081526004820160205260409020805461260b90613e6c565b80601f016020809104026020016040519081016040528092919081815260200182805461263790613e6c565b80156126825780601f1061265957610100808354040283529160200191612682565b820191905f5260205f20905b81548152906001019060200180831161266557829003601f168201915b505050505091505092915050565b5f61269b8383612fde565b925090508015610e19576118156126b28484612690565b825f9182526020526040902090565b5f6126ca61300b565b905090565b5f61276184836001600160a01b03165f8181527fad3228b676f7d3cd4284a5443f17f1962b36e491b30a40b2405849e597ba5fb5602090815260408083205494835282825280832093835292905220547f1111111111111111111111111111111100000000000000000000000000000000911790811660809190911c6f11111111111111111111111111111111161790565b9050801983161561279e5760405163d1a3b35560e01b815260048101859052602481018490526001600160a01b03831660448201526064016118bc565b50505050565b5f60015f535060015260215f2090565b5f835f036127c357505f610afc565b6127cc84613014565b6001600160a01b03831661280c576040517fec3fc59200000000000000000000000000000000000000000000000000000000815260040160405180910390fd5b5f858152602081815260408083206001600160a01b03871684529091529020548481178082146128ba575f878152602081815260408083206001600160a01b038916845290915290208190558119861661286888826001613074565b60408051848152602081018490526001600160a01b038816918a917f0d35bf721a39b614de00ca5038e1deb0cb0c69a278645e83405a7226cf80ba3c910160405180910390a360019350505050610afc565b5f92505050610afc565b5f6001600160e01b031982167f8f452d62000000000000000000000000000000000000000000000000000000001480610e1957506301ffc9a760e01b6001600160e01b0319831614610e19565b5f60025f5350805160209091012060015260215f2090565b5f838152602081815260408083206001600160a01b03851684528252808320547fad3228b676f7d3cd4284a5443f17f1962b36e491b30a40b2405849e597ba5fb59092529091205417821682146129c5576040517f4b27a13300000000000000000000000000000000000000000000000000000000815260048101849052602481018390526001600160a01b03821660448201526064016118bc565b505050565b5f6129d483613209565b80156118155750611815838361323b565b5f6129ef82613014565b50600181901b17600281901b1790565b306001600160a01b037f0000000000000000000000000000000000000000000000000000000000000000161480612a9857507f00000000000000000000000000000000000000000000000000000000000000006001600160a01b0316612a8c7f360894a13ba1a3210667c828492db98dca3e2076cc3735a920a3ca505d382bbc546001600160a01b031690565b6001600160a01b031614155b15612ab65760405163703e46dd60e11b815260040160405180910390fd5b565b6f1000000000000000000000000000000061170c5f826112ca6126c1565b816001600160a01b03166352d1902d6040518163ffffffff1660e01b8152600401602060405180830381865afa925050508015612b30575060408051601f3d908101601f19168201909252612b2d918101906142bc565b60015b612b5857604051634c9c8ce360e01b81526001600160a01b03831660048201526024016118bc565b7f360894a13ba1a3210667c828492db98dca3e2076cc3735a920a3ca505d382bbc8114612bb4576040517faa1d49a4000000000000000000000000000000000000000000000000000000008152600481018290526024016118bc565b6129c583836132d6565b306001600160a01b037f00000000000000000000000000000000000000000000000000000000000000001614612ab65760405163703e46dd60e11b815260040160405180910390fd5b5f8082118015610e19575081612c1e6001826142d3565b161592915050565b5f6380000000821480610e1957505f612c3e83612fb4565b63ffffffff161192915050565b606083838080601f0160208091040260200160405190810160405280939291908181526020018383808284375f92019190915250929350612cdc92505050565b602081015160e01c63ac9650d88114612ca5575060240152565b602482810151830101805160051b5b8015612cd557612ccc85828401516020850101612c8b565b601f1901612cb4565b5050505050565b6118158282612c8b565b6060805f5b8351811015612e2e5760025f612d018684612690565b81526020019081526020015f208054612d1990613e6c565b80601f0160208091040260200160405190810160405280929190818152602001828054612d4590613e6c565b8015612d905780601f10612d6757610100808354040283529160200191612d90565b820191905f5260205f20905b815481529060010190602001808311612d7357829003601f168201915b505050505092505f83511115612e1b578015612e13578251612db290826142e6565b67ffffffffffffffff811115612dca57612dca613a95565b6040519080825280601f01601f191660200182016040528015612df4576020820181803683370190505b5091508060208501602084015e8251602084018260200184015e612e2e565b829150612e2e565b612e25848261332b565b9150612ceb9050565b50915091565b5f807ff0c57e16840df040f15088dc2f81fe391c3923bec73e23a9662efc9c229c6a00610e19565b612ab66133a8565b5f612ef684836001600160a01b03165f8181527fad3228b676f7d3cd4284a5443f17f1962b36e491b30a40b2405849e597ba5fb5602090815260408083205494835282825280832093835292905220547f1111111111111111111111111111111100000000000000000000000000000000911790811660809190911c6f11111111111111111111111111111111161790565b9050801983161561279e576040517fa604e31800000000000000000000000000000000000000000000000000000000815260048101859052602481018490526001600160a01b03831660448201526064016118bc565b5f612f5684613014565b5f858152602081815260408083206001600160a01b0387168452909152902054841981168082146128ba575f878152602081815260408083206001600160a01b03891684529091528120829055868316906128689089908390613074565b5f603c8203612fc557506001919050565b6380000000918218918210612fda575f610e19565b5090565b5f805f612feb858561332b565b9250905060ff81161561300357806021858701012092505b509250929050565b5f6126ca6133e6565b7feeeeeeeeeeeeeeeeeeeeeeeeeeeeeeeeeeeeeeeeeeeeeeeeeeeeeeeeeeeeeeee811615613071576040517f2a7b2d20000000000000000000000000000000000000000000000000000000008152600481018290526024016118bc565b50565b5f61307e836129e5565b90508115613147575f848152600160205260409020547f888888888888888888888888888888888888888888888888888888888888888890821680197feeeeeeeeeeeeeeeeeeeeeeeeeeeeeeeeeeeeeeeeeeeeeeeeeeeeeeeeeeeeeeef0116161561311f576040517ff916534800000000000000000000000000000000000000000000000000000000815260048101859052602481018490526044016118bc565b5f848152600160205260408120805485929061313c9084906142e6565b9091555061279e9050565b5f848152600160205260409020547f88888888888888888888888888888888888888888888888888888888888888889019821680197feeeeeeeeeeeeeeeeeeeeeeeeeeeeeeeeeeeeeeeeeeeeeeeeeeeeeeeeeeeeeeef011616156131e1576040517f1f80c19b00000000000000000000000000000000000000000000000000000000815260048101859052602481018490526044016118bc565b5f84815260016020526040812080548592906131fe9084906142d3565b909155505050505050565b5f61321b826301ffc9a760e01b61323b565b8015610e195750613234826001600160e01b031961323b565b1592915050565b6040516001600160e01b0319821660248201525f90819060440160408051601f19818403018152919052602080820180517bffffffffffffffffffffffffffffffffffffffffffffffffffffffff166301ffc9a760e01b17815282519293505f9283928392909183918a617530fa92503d91505f5190508280156132c0575060208210155b80156132cb57505f81115b979650505050505050565b6132df826134d7565b6040516001600160a01b038316907fbc7cd75a20ee27fd9adebab32041f755214dbc6bffa90cc0225b39da2e5c2d3b905f90a2805115613323576129c5828261355a565b61170c6135c3565b5f8083518310613350578360405163ba4adc2360e01b81526004016118bc9190613ba0565b83838151811061336257613362614221565b016020015160f81c91505081810160010181613382578351811415613388565b83518110155b156112b1578360405163ba4adc2360e01b81526004016118bc9190613ba0565b6133b06135fb565b612ab6576040517fd7e6bcf800000000000000000000000000000000000000000000000000000000815260040160405180910390fd5b5f7f00000000000000000000000000000000000000000000000000000000000000006001600160a01b031661341a57503390565b6040517f442b172c0000000000000000000000000000000000000000000000000000000081523360048201525f907f00000000000000000000000000000000000000000000000000000000000000006001600160a01b03169063442b172c90602401602060405180830381865afa158015613497573d5f803e3d5ffd5b505050506040513d601f19601f820116820180604052508101906134bb91906142f9565b90506001600160a01b0381166134d2573391505090565b919050565b806001600160a01b03163b5f0361350c57604051634c9c8ce360e01b81526001600160a01b03821660048201526024016118bc565b7f360894a13ba1a3210667c828492db98dca3e2076cc3735a920a3ca505d382bbc805473ffffffffffffffffffffffffffffffffffffffff19166001600160a01b0392909216919091179055565b60605f80846001600160a01b0316846040516135769190614235565b5f60405180830381855af49150503d805f81146135ae576040519150601f19603f3d011682016040523d82523d5f602084013e6135b3565b606091505b5091509150610e3c858383613619565b3415612ab6576040517fb398979f00000000000000000000000000000000000000000000000000000000815260040160405180910390fd5b5f613604612e34565b5468010000000000000000900460ff16919050565b60608261362e576136298261368e565b611815565b815115801561364557506001600160a01b0384163b155b15613687576040517f9996b3150000000000000000000000000000000000000000000000000000000081526001600160a01b03851660048201526024016118bc565b5080611815565b80511561369e5780518082602001fd5b6040517fd6bda27500000000000000000000000000000000000000000000000000000000815260040160405180910390fd5b82600281019282156136fe579160200282015b828111156136fe5782518255916020019190600101906136e3565b50612fda9291505b80821115612fda575f8155600101613706565b5f8083601f840112613729575f80fd5b50813567ffffffffffffffff811115613740575f80fd5b6020830191508360208285010111156112b1575f80fd5b6001600160a01b0381168114613071575f80fd5b5f805f806060858703121561377e575f80fd5b843567ffffffffffffffff811115613794575f80fd5b6137a087828801613719565b9095509350506020850135915060408501356137bb81613757565b939692955090935050565b80356001600160e01b0319811681146134d2575f80fd5b5f602082840312156137ed575f80fd5b611815826137c6565b5f8060408385031215613807575f80fd5b82359150602083013561381981613757565b809150509250929050565b5f805f805f60608688031215613838575f80fd5b85359450602086013567ffffffffffffffff80821115613856575f80fd5b61386289838a01613719565b9096509450604088013591508082111561387a575f80fd5b5061388788828901613719565b969995985093965092949392505050565b5f80604083850312156138a9575f80fd5b50508035926020909101359150565b5f80604083850312156138c9575f80fd5b823591506138d9602084016137c6565b90509250929050565b5f805f805f606086880312156138f6575f80fd5b853567ffffffffffffffff8082111561390d575f80fd5b61391989838a01613719565b90975095506020880135915080821115613931575f80fd5b5061393e88828901613719565b909450925050604086013561395281613757565b809150509295509295909350565b5f81518084528060208401602086015e5f602082860101526020601f19601f83011685010191505092915050565b828152604060208201525f610afc6040830184613960565b5f805f80604085870312156139b9575f80fd5b843567ffffffffffffffff808211156139d0575f80fd5b6139dc88838901613719565b909650945060208701359150808211156139f4575f80fd5b50613a0187828801613719565b95989497509550505050565b5f805f60608486031215613a1f575f80fd5b505081359360208301359350604090920135919050565b5f60208284031215613a46575f80fd5b5035919050565b5f805f60408486031215613a5f575f80fd5b83359250602084013567ffffffffffffffff811115613a7c575f80fd5b613a8886828701613719565b9497909650939450505050565b634e487b7160e01b5f52604160045260245ffd5b604051601f8201601f1916810167ffffffffffffffff81118282101715613ad257613ad2613a95565b604052919050565b5f67ffffffffffffffff821115613af357613af3613a95565b50601f01601f191660200190565b5f82601f830112613b10575f80fd5b8135613b23613b1e82613ada565b613aa9565b818152846020838601011115613b37575f80fd5b816020850160208301375f918101602001919091529392505050565b5f8060408385031215613b64575f80fd5b8235613b6f81613757565b9150602083013567ffffffffffffffff811115613b8a575f80fd5b613b9685828601613b01565b9150509250929050565b602081525f6118156020830184613960565b5f805f8060608587031215613bc5575f80fd5b8435935060208501359250604085013567ffffffffffffffff811115613be9575f80fd5b613a0187828801613719565b5f805f60608486031215613c07575f80fd5b83359250602084013591506040840135613c2081613757565b809150509250925092565b5f805f60608486031215613c3d575f80fd5b8335925060208401359150604084013567ffffffffffffffff811115613c61575f80fd5b613c6d86828701613b01565b9150509250925092565b5f8083601f840112613c87575f80fd5b50813567ffffffffffffffff811115613c9e575f80fd5b6020830191508360208260051b85010111156112b1575f80fd5b5f8060208385031215613cc9575f80fd5b823567ffffffffffffffff811115613cdf575f80fd5b613ceb85828601613c77565b90969095509350505050565b5f60208083016020845280855180835260408601915060408160051b8701019250602087015f5b82811015613d4c57603f19888603018452613d3a858351613960565b94509285019290850190600101613d1e565b5092979650505050505050565b5f60208284031215613d69575f80fd5b813567ffffffffffffffff811115613d7f575f80fd5b610afc84828501613b01565b5f8060408385031215613d9c575f80fd5b8235613da781613757565b946020939093013593505050565b5f805f60408486031215613dc7575f80fd5b83359250602084013567ffffffffffffffff811115613de4575f80fd5b613a8886828701613c77565b5f805f60608486031215613e02575f80fd5b83359250613e12602085016137c6565b91506040840135613c2081613757565b81835281816020850137505f828201602090810191909152601f909101601f19169091010190565b602081525f610afc602083018486613e22565b818382375f9101908152919050565b600181811c90821680613e8057607f821691505b6020821081036121c057634e487b7160e01b5f52602260045260245ffd5b601f8211156129c557805f5260205f20601f840160051c81016020851015613ec35750805b601f840160051c820191505b81811015612cd5575f8155600101613ecf565b67ffffffffffffffff831115613efa57613efa613a95565b613f0e83613f088354613e6c565b83613e9e565b5f601f841160018114613f3f575f8515613f285750838201355b5f19600387901b1c1916600186901b178355612cd5565b5f83815260208120601f198716915b82811015613f6e5786850135825560209485019460019092019101613f4e565b5086821015613f8a575f1960f88860031b161c19848701351681555b505060018560011b0183555050505050565b604081525f613faf604083018688613e22565b82810360208401526132cb818587613e22565b634e487b7160e01b5f52601160045260245ffd5b5f67ffffffffffffffff808316818103613ff257613ff2613fc2565b6001019392505050565b805160208201516bffffffffffffffffffffffff1980821692919060148310156140305780818460140360031b1b83161693505b505050919050565b815167ffffffffffffffff81111561405257614052613a95565b614066816140608454613e6c565b84613e9e565b602080601f831160018114614099575f84156140825750858301515b5f19600386901b1c1916600185901b1785556140f0565b5f85815260208120601f198616915b828110156140c7578886015182559484019460019091019084016140a8565b50858210156140e457878501515f19600388901b60f8161c191681555b505060018460011b0185555b505050505050565b5f815160208301516001600160e01b0319808216935060048310156140305760049290920360031b82901b161692915050565b5f602080838503121561413c575f80fd5b825167ffffffffffffffff80821115614153575f80fd5b818501915085601f830112614166575f80fd5b81518181111561417857614178613a95565b8060051b614187858201613aa9565b91825283810185019185810190898411156141a0575f80fd5b86860192505b83831015614214578251858111156141bc575f80fd5b8601603f81018b136141cc575f80fd5b8781015160406141de613b1e83613ada565b8281528d828486010111156141f1575f80fd5b828285018c83015e5f9281018b01929092525083525091860191908601906141a6565b9998505050505050505050565b634e487b7160e01b5f52603260045260245ffd5b5f82518060208501845e5f920191825250919050565b6001600160e01b03198135818116916004851015610e3f5760049490940360031b84901b1690921692915050565b5f808335601e1984360301811261428e575f80fd5b83018035915067ffffffffffffffff8211156142a8575f80fd5b6020019150368190038213156112b1575f80fd5b5f602082840312156142cc575f80fd5b5051919050565b81810381811115610e1957610e19613fc2565b80820180821115610e1957610e19613fc2565b5f60208284031215614309575f80fd5b81516118158161375756fea26469706673582212206992c567e78ca8b963a542fdd6b8682da38c4762c9b16b1a3f512d5fd2e878f164736f6c63430008190033",
  "linkReferences": {},
  "deployedLinkReferences": {},
  "immutableReferences": {
    "40019": [
      {
        "length": 32,
        "start": 10762
      },
      {
        "length": 32,
        "start": 10803
      },
      {
        "length": 32,
        "start": 11209
      }
    ],
    "69592": [
      {
        "length": 32,
        "start": 1236
      },
      {
        "length": 32,
        "start": 13289
      },
      {
        "length": 32,
        "start": 13386
      }
    ]
  },
  "inputSourceName": "project/src/resolver/PermissionedResolver.sol",
  "devdoc": {
    "errors": {
      "AddressEmptyCode(address)": [
        {
          "details": "There's no code at `target` (it is not a contract)."
        }
      ],
      "DNSDecodingFailed(bytes)": [
        {
          "details": "The DNS-encoded name is malformed.      Error selector: `0xba4adc23`"
        }
      ],
      "EACCannotGrantRoles(uint256,uint256,address)": [
        {
          "details": "Error selector: `0xd1a3b355`"
        }
      ],
      "EACCannotRevokeRoles(uint256,uint256,address)": [
        {
          "details": "Error selector: `0xa604e318`"
        }
      ],
      "EACInvalidAccount()": [
        {
          "details": "Error selector: `0xec3fc592`"
        }
      ],
      "EACInvalidRoleBitmap(uint256)": [
        {
          "details": "Error selector: `0x2a7b2d20`"
        }
      ],
      "EACMaxAssignees(uint256,uint256)": [
        {
          "details": "Error selector: `0xf9165348`"
        }
      ],
      "EACMinAssignees(uint256,uint256)": [
        {
          "details": "Error selector: `0x1f80c19b`"
        }
      ],
      "EACRootResourceNotAllowed()": [
        {
          "details": "Error selector: `0xc2842458`"
        }
      ],
      "EACUnauthorizedAccountRoles(uint256,uint256,address)": [
        {
          "details": "Error selector: `0x4b27a133`"
        }
      ],
      "ERC1967InvalidImplementation(address)": [
        {
          "details": "The `implementation` of the proxy is invalid."
        }
      ],
      "ERC1967NonPayable()": [
        {
          "details": "An upgrade function sees `msg.value > 0` that may be lost."
        }
      ],
      "FailedCall()": [
        {
          "details": "A call to an address target failed. The target may have reverted."
        }
      ],
      "InvalidContentType(uint256)": [
        {
          "details": "Error selector: `0x5742bb26`"
        }
      ],
      "InvalidEVMAddress(bytes)": [
        {
          "details": "Error selector: `0x8d666f60`"
        }
      ],
      "InvalidInitialization()": [
        {
          "details": "The contract is already initialized."
        }
      ],
      "InvalidOwner()": [
        {
          "details": "Error selector: `0x49e27cff`"
        }
      ],
      "NotInitializing()": [
        {
          "details": "The contract is not initializing."
        }
      ],
      "UUPSUnauthorizedCallContext()": [
        {
          "details": "The call is from an unauthorized context."
        }
      ],
      "UUPSUnsupportedProxiableUUID(bytes32)": [
        {
          "details": "The storage `slot` is unsupported as a UUID."
        }
      ],
      "UnsupportedResolverProfile(bytes4)": [
        {
          "details": "Error selector: `0x7b1c461b`"
        }
      ]
    },
    "events": {
      "AliasChanged(bytes,bytes,bytes,bytes)": {
        "params": {
          "fromName": "The source DNS-encoded name.",
          "indexedFromName": "The source DNS-encoded name. (indexed bytes, hashed)",
          "indexedToName": "The destination DNS-encoded name. (indexed bytes, hashed)",
          "toName": "The destination DNS-encoded name."
        }
      },
      "EACRolesChanged(uint256,address,uint256,uint256)": {
        "params": {
          "account": "The account that the roles were changed for.",
          "newRoleBitmap": "The new roles for the account.",
          "oldRoleBitmap": "The old roles for the account.",
          "resource": "The resource that the roles were changed within."
        }
      },
      "Initialized(uint64)": {
        "details": "Triggered when the contract has been initialized or reinitialized."
      },
      "NamedAddrResource(uint256,bytes,uint256)": {
        "params": {
          "coinType": "The coin type.",
          "name": "The name.",
          "resource": "The EAC resource."
        }
      },
      "NamedResource(uint256,bytes)": {
        "params": {
          "name": "The name.",
          "resource": "The EAC resource."
        }
      },
      "NamedTextResource(uint256,bytes,bytes32,string)": {
        "params": {
          "key": "The key.",
          "keyHash": "The hash of the key.",
          "name": "The name.",
          "resource": "The EAC resource."
        }
      },
      "Upgraded(address)": {
        "details": "Emitted when the implementation is upgraded."
      }
    },
    "kind": "dev",
    "methods": {
      "ABI(bytes32,uint256)": {
        "params": {
          "contentTypes": "A bitwise OR of the ABI formats accepted by the caller.",
          "node": "The ENS node to query"
        },
        "returns": {
          "contentType": "The content type of the return value",
          "data": "The ABI data"
        }
      },
      "addr(bytes32)": {
        "params": {
          "node": "The ENS node to query."
        },
        "returns": {
          "_0": "The associated address."
        }
      },
      "clearRecords(bytes32)": {
        "params": {
          "node": "The node to update."
        }
      },
      "constructor": {
        "params": {
          "hcaFactory": "The HCA factory."
        }
      },
      "contenthash(bytes32)": {
        "params": {
          "node": "The ENS node to query."
        },
        "returns": {
          "_0": "The associated contenthash."
        }
      },
      "getAlias(bytes)": {
        "params": {
          "fromName": "The source DNS-encoded name."
        },
        "returns": {
          "toName": "The destination DNS-encoded name or empty if not aliased."
        }
      },
      "getAssigneeCount(uint256,uint256)": {
        "params": {
          "resource": "The resource to check.",
          "roleBitmap": "The roles bitmap to check."
        },
        "returns": {
          "counts": "The number of assignees for each of the roles in the given role bitmap, expressed as a packed array of 4-bit ints.",
          "mask": "The mask for the given role bitmap."
        }
      },
      "grantAddrRoles(bytes,uint256,address)": {
        "params": {
          "account": "The account to grant roles to.",
          "coinType": "The coin type to grant roles for.",
          "toName": "The name to grant roles for."
        },
        "returns": {
          "_0": "success Whether the roles were updated."
        }
      },
      "grantNameRoles(bytes,uint256,address)": {
        "params": {
          "account": "The account to grant roles to.",
          "roleBitmap": "The roles to grant.",
          "toName": "The name to grant roles for."
        },
        "returns": {
          "_0": "success Whether the roles were updated."
        }
      },
      "grantRoles(uint256,uint256,address)": {
        "params": {
          "account": "Ignored.",
          "resource": "Ignored.",
          "roleBitmap": "Ignored."
        },
        "returns": {
          "_0": "success Ignored, always reverts."
        }
      },
      "grantRootRoles(uint256,address)": {
        "details": "The caller must have all the necessary admin roles for the roles being granted.",
        "params": {
          "account": "The account to grant roles to.",
          "roleBitmap": "The roles bitmap to grant."
        },
        "returns": {
          "_0": "`true` if the roles were granted, `false` otherwise."
        }
      },
      "grantTextRoles(bytes,string,address)": {
        "params": {
          "account": "The account to grant roles to.",
          "key": "The text key to grant roles for.",
          "toName": "The name to grant roles for."
        },
        "returns": {
          "_0": "success Whether the roles were updated."
        }
      },
      "hasAddr(bytes32,uint256)": {
        "params": {
          "coinType": "The coin type.",
          "node": "The node to query."
        },
        "returns": {
          "_0": "True if the associated address is not empty."
        }
      },
      "hasAssignees(uint256,uint256)": {
        "params": {
          "resource": "The resource to check.",
          "roleBitmap": "The roles bitmap to check."
        },
        "returns": {
          "_0": "`true` if any of the roles in the given role bitmap has assignees, `false` otherwise."
        }
      },
      "hasRoles(uint256,uint256,address)": {
        "params": {
          "account": "The account to check.",
          "resource": "The resource to check.",
          "roleBitmap": "The roles bitmap to check."
        },
        "returns": {
          "_0": "`true` if `account` has been granted all the given roles in the given resource or the `ROOT_RESOURCE`, `false` otherwise."
        }
      },
      "hasRootRoles(uint256,address)": {
        "params": {
          "account": "The account to check.",
          "roleBitmap": "The roles bitmap to check."
        },
        "returns": {
          "_0": "`true` if `account` has been granted all the given roles in the `ROOT_RESOURCE`, `false` otherwise."
        }
      },
      "initialize(address,uint256)": {
        "params": {
          "admin": "The resolver owner.",
          "roleBitmap": "The roles granted to `admin`."
        }
      },
      "interfaceImplementer(bytes32,bytes4)": {
        "params": {
          "interfaceID": "The EIP 165 interface ID to check for.",
          "node": "The ENS node to query."
        },
        "returns": {
          "implementer": "The address that implements this interface, or 0 if the interface is unsupported."
        }
      },
      "multicall(bytes[])": {
        "details": "Reverts with first error.",
        "params": {
          "calls": "The calls to make."
        },
        "returns": {
          "results": "The results of the calls."
        }
      },
      "multicallWithNodeCheck(bytes32,bytes[])": {
        "details": "The node parameter is accepted for interface compatibility but is not used.      Permission checking is handled by individual function calls within the multicall.",
        "params": {
          "": "{node} Ignored, for interface compatibility.",
          "calls": "The calls to make."
        },
        "returns": {
          "_0": "results The results of the calls."
        }
      },
      "name(bytes32)": {
        "params": {
          "node": "The ENS node to query."
        },
        "returns": {
          "_0": "The associated name."
        }
      },
      "proxiableUUID()": {
        "details": "Implementation of the ERC-1822 {proxiableUUID} function. This returns the storage slot used by the implementation. It is used to validate the implementation's compatibility when performing an upgrade. IMPORTANT: A proxy pointing at a proxiable contract should not be considered proxiable itself, because this risks bricking a proxy that upgrades to it, by delegating to itself until out of gas. Thus it is critical that this function revert if invoked through a proxy. This is guaranteed by the `notDelegated` modifier."
      },
      "pubkey(bytes32)": {
        "params": {
          "node": "The ENS node to query"
        },
        "returns": {
          "x": "The X coordinate of the curve point for the public key.",
          "y": "The Y coordinate of the curve point for the public key."
        }
      },
      "recordVersions(bytes32)": {
        "params": {
          "node": "The node to check."
        },
        "returns": {
          "_0": "version The current version."
        }
      },
      "revokeRoles(uint256,uint256,address)": {
        "details": "The caller must have all the necessary admin roles for the roles being revoked.      Cannot be used with ROOT_RESOURCE directly, use revokeRootRoles instead.",
        "params": {
          "account": "The account to revoke roles from.",
          "resource": "The resource to revoke roles within.",
          "roleBitmap": "The roles bitmap to revoke."
        },
        "returns": {
          "_0": "`true` if the roles were revoked, `false` otherwise."
        }
      },
      "revokeRootRoles(uint256,address)": {
        "details": "The caller must have all the necessary admin roles for the roles being revoked.",
        "params": {
          "account": "The account to revoke roles from.",
          "roleBitmap": "The roles bitmap to revoke."
        },
        "returns": {
          "_0": "`true` if the roles were revoked, `false` otherwise."
        }
      },
      "roleCount(uint256)": {
        "params": {
          "resource": "The resource to get the role count for."
        },
        "returns": {
          "_0": "count The role count bitmap for the resource."
        }
      },
      "roles(uint256,address)": {
        "params": {
          "account": "The account to get the roles for.",
          "resource": "The resource to get the roles for."
        },
        "returns": {
          "_0": "The roles bitmap for the account in the resource."
        }
      },
      "setABI(bytes32,uint256,bytes)": {
        "params": {
          "contentType": "The content type of the ABI.",
          "data": "The ABI data.",
          "node": "The node to update."
        }
      },
      "setAddr(bytes32,address)": {
        "params": {
          "addr_": "The mainnet address.",
          "node": "The node to update."
        }
      },
      "setAddr(bytes32,uint256,bytes)": {
        "params": {
          "addressBytes": "The encoded address.",
          "coinType": "The coin type.",
          "node": "The node to update."
        }
      },
      "setAlias(bytes,bytes)": {
        "params": {
          "fromName": "The source DNS-encoded name.",
          "toName": "The destination DNS-encoded name."
        }
      },
      "setContenthash(bytes32,bytes)": {
        "params": {
          "hash": "The contenthash to set.",
          "node": "The node to update."
        }
      },
      "setInterface(bytes32,bytes4,address)": {
        "params": {
          "implementer": "The address of the contract that implements this interface for this node.",
          "interfaceId": "The EIP-165 interface ID.",
          "node": "The node to update."
        }
      },
      "setName(bytes32,string)": {
        "params": {
          "node": "The node to update.",
          "primary": "The primary name."
        }
      },
      "setPubkey(bytes32,bytes32,bytes32)": {
        "params": {
          "node": "The node to update.",
          "x": "The x coordinate of the public key.",
          "y": "The y coordinate of the public key."
        }
      },
      "setText(bytes32,string,string)": {
        "params": {
          "key": "The text key.",
          "node": "The node to update.",
          "value": "The text value."
        }
      },
      "supportsFeature(bytes4)": {
        "params": {
          "featureId": "The feature identifier."
        },
        "returns": {
          "_0": "`true` if the feature is supported by the contract."
        }
      },
      "supportsInterface(bytes4)": {
        "details": "Returns true if this contract implements the interface defined by `interfaceId`. See the corresponding https://eips.ethereum.org/EIPS/eip-165#how-interfaces-are-identified[ERC section] to learn more about how these ids are created. This function call must use less than 30 000 gas."
      },
      "text(bytes32,string)": {
        "params": {
          "key": "The text data key to query.",
          "node": "The ENS node to query."
        },
        "returns": {
          "_0": "The associated text data."
        }
      },
      "upgradeToAndCall(address,bytes)": {
        "custom:oz-upgrades-unsafe-allow-reachable": "delegatecall",
        "details": "Upgrade the implementation of the proxy to `newImplementation`, and subsequently execute the function call encoded in `data`. Calls {_authorizeUpgrade}. Emits an {Upgraded} event."
      }
    },
    "stateVariables": {
      "_aliases": {
        "details": "Aliases for names."
      },
      "_records": {
        "details": "Records for nodes."
      },
      "_versions": {
        "details": "Versions for nodes."
      }
    },
    "version": 1
  },
  "evm": {
    "gasEstimates": {
      "creation": {
        "codeDepositCost": "3445200",
        "executionCost": "infinite",
        "totalCost": "infinite"
      },
      "external": {
        "ABI(bytes32,uint256)": "infinite",
        "HCA_FACTORY()": "infinite",
        "ROOT_RESOURCE()": "284",
        "UPGRADE_INTERFACE_VERSION()": "infinite",
        "addr(bytes32)": "infinite",
        "addr(bytes32,uint256)": "infinite",
        "clearRecords(bytes32)": "infinite",
        "contenthash(bytes32)": "infinite",
        "getAlias(bytes)": "infinite",
        "getAssigneeCount(uint256,uint256)": "2704",
        "grantAddrRoles(bytes,uint256,address)": "infinite",
        "grantNameRoles(bytes,uint256,address)": "infinite",
        "grantRoles(uint256,uint256,address)": "549",
        "grantRootRoles(uint256,address)": "infinite",
        "grantTextRoles(bytes,string,address)": "infinite",
        "hasAddr(bytes32,uint256)": "5006",
        "hasAssignees(uint256,uint256)": "2777",
        "hasRoles(uint256,uint256,address)": "4937",
        "hasRootRoles(uint256,address)": "2675",
        "initialize(address,uint256)": "infinite",
        "interfaceImplementer(bytes32,bytes4)": "infinite",
        "multicall(bytes[])": "infinite",
        "multicallWithNodeCheck(bytes32,bytes[])": "infinite",
        "name(bytes32)": "infinite",
        "proxiableUUID()": "infinite",
        "pubkey(bytes32)": "6927",
        "recordVersions(bytes32)": "2539",
        "resolve(bytes,bytes)": "infinite",
        "revokeRoles(uint256,uint256,address)": "infinite",
        "revokeRootRoles(uint256,address)": "infinite",
        "roleCount(uint256)": "2504",
        "roles(uint256,address)": "2703",
        "setABI(bytes32,uint256,bytes)": "infinite",
        "setAddr(bytes32,address)": "infinite",
        "setAddr(bytes32,uint256,bytes)": "infinite",
        "setAlias(bytes,bytes)": "infinite",
        "setContenthash(bytes32,bytes)": "infinite",
        "setInterface(bytes32,bytes4,address)": "infinite",
        "setName(bytes32,string)": "infinite",
        "setPubkey(bytes32,bytes32,bytes32)": "infinite",
        "setText(bytes32,string,string)": "infinite",
        "supportsFeature(bytes4)": "462",
        "supportsInterface(bytes4)": "infinite",
        "text(bytes32,string)": "infinite",
        "upgradeToAndCall(address,bytes)": "infinite"
      },
      "internal": {
        "_authorizeUpgrade(address)": "infinite",
        "_contextSuffixLength()": "infinite",
        "_isPowerOf2(uint256)": "140",
        "_msgData()": "infinite",
        "_msgSender()": "infinite",
        "_record(bytes32)": "infinite",
        "_resolveAlias(bytes memory)": "infinite"
      }
    }
  },
  "storageLayout": {
    "storage": [
      {
        "astId": 65208,
        "contract": "project/src/resolver/PermissionedResolver.sol:PermissionedResolver",
        "label": "_roles",
        "offset": 0,
        "slot": "0",
        "type": "t_mapping(t_uint256,t_mapping(t_address,t_uint256))"
      },
      {
        "astId": 65213,
        "contract": "project/src/resolver/PermissionedResolver.sol:PermissionedResolver",
        "label": "_roleCount",
        "offset": 0,
        "slot": "1",
        "type": "t_mapping(t_uint256,t_uint256)"
      },
      {
        "astId": 76394,
        "contract": "project/src/resolver/PermissionedResolver.sol:PermissionedResolver",
        "label": "_aliases",
        "offset": 0,
        "slot": "2",
        "type": "t_mapping(t_bytes32,t_bytes_storage)"
      },
      {
        "astId": 76399,
        "contract": "project/src/resolver/PermissionedResolver.sol:PermissionedResolver",
        "label": "_versions",
        "offset": 0,
        "slot": "3",
        "type": "t_mapping(t_bytes32,t_uint64)"
      },
      {
        "astId": 76407,
        "contract": "project/src/resolver/PermissionedResolver.sol:PermissionedResolver",
        "label": "_records",
        "offset": 0,
        "slot": "4",
        "type": "t_mapping(t_bytes32,t_mapping(t_uint64,t_struct(Record)76389_storage))"
      }
    ],
    "types": {
      "t_address": {
        "encoding": "inplace",
        "label": "address",
        "numberOfBytes": "20"
      },
      "t_array(t_bytes32)2_storage": {
        "base": "t_bytes32",
        "encoding": "inplace",
        "label": "bytes32[2]",
        "numberOfBytes": "64"
      },
      "t_bytes32": {
        "encoding": "inplace",
        "label": "bytes32",
        "numberOfBytes": "32"
      },
      "t_bytes4": {
        "encoding": "inplace",
        "label": "bytes4",
        "numberOfBytes": "4"
      },
      "t_bytes_storage": {
        "encoding": "bytes",
        "label": "bytes",
        "numberOfBytes": "32"
      },
      "t_mapping(t_address,t_uint256)": {
        "encoding": "mapping",
        "key": "t_address",
        "label": "mapping(address => uint256)",
        "numberOfBytes": "32",
        "value": "t_uint256"
      },
      "t_mapping(t_bytes32,t_bytes_storage)": {
        "encoding": "mapping",
        "key": "t_bytes32",
        "label": "mapping(bytes32 => bytes)",
        "numberOfBytes": "32",
        "value": "t_bytes_storage"
      },
      "t_mapping(t_bytes32,t_mapping(t_uint64,t_struct(Record)76389_storage))": {
        "encoding": "mapping",
        "key": "t_bytes32",
        "label": "mapping(bytes32 => mapping(uint64 => struct PermissionedResolver.Record))",
        "numberOfBytes": "32",
        "value": "t_mapping(t_uint64,t_struct(Record)76389_storage)"
      },
      "t_mapping(t_bytes32,t_uint64)": {
        "encoding": "mapping",
        "key": "t_bytes32",
        "label": "mapping(bytes32 => uint64)",
        "numberOfBytes": "32",
        "value": "t_uint64"
      },
      "t_mapping(t_bytes4,t_address)": {
        "encoding": "mapping",
        "key": "t_bytes4",
        "label": "mapping(bytes4 => address)",
        "numberOfBytes": "32",
        "value": "t_address"
      },
      "t_mapping(t_string_memory_ptr,t_string_storage)": {
        "encoding": "mapping",
        "key": "t_string_memory_ptr",
        "label": "mapping(string => string)",
        "numberOfBytes": "32",
        "value": "t_string_storage"
      },
      "t_mapping(t_uint256,t_bytes_storage)": {
        "encoding": "mapping",
        "key": "t_uint256",
        "label": "mapping(uint256 => bytes)",
        "numberOfBytes": "32",
        "value": "t_bytes_storage"
      },
      "t_mapping(t_uint256,t_mapping(t_address,t_uint256))": {
        "encoding": "mapping",
        "key": "t_uint256",
        "label": "mapping(uint256 => mapping(address => uint256))",
        "numberOfBytes": "32",
        "value": "t_mapping(t_address,t_uint256)"
      },
      "t_mapping(t_uint256,t_uint256)": {
        "encoding": "mapping",
        "key": "t_uint256",
        "label": "mapping(uint256 => uint256)",
        "numberOfBytes": "32",
        "value": "t_uint256"
      },
      "t_mapping(t_uint64,t_struct(Record)76389_storage)": {
        "encoding": "mapping",
        "key": "t_uint64",
        "label": "mapping(uint64 => struct PermissionedResolver.Record)",
        "numberOfBytes": "32",
        "value": "t_struct(Record)76389_storage"
      },
      "t_string_memory_ptr": {
        "encoding": "bytes",
        "label": "string",
        "numberOfBytes": "32"
      },
      "t_string_storage": {
        "encoding": "bytes",
        "label": "string",
        "numberOfBytes": "32"
      },
      "t_struct(Record)76389_storage": {
        "encoding": "inplace",
        "label": "struct PermissionedResolver.Record",
        "members": [
          {
            "astId": 76366,
            "contract": "project/src/resolver/PermissionedResolver.sol:PermissionedResolver",
            "label": "contenthash",
            "offset": 0,
            "slot": "0",
            "type": "t_bytes_storage"
          },
          {
            "astId": 76370,
            "contract": "project/src/resolver/PermissionedResolver.sol:PermissionedResolver",
            "label": "pubkey",
            "offset": 0,
            "slot": "1",
            "type": "t_array(t_bytes32)2_storage"
          },
          {
            "astId": 76372,
            "contract": "project/src/resolver/PermissionedResolver.sol:PermissionedResolver",
            "label": "name",
            "offset": 0,
            "slot": "3",
            "type": "t_string_storage"
          },
          {
            "astId": 76376,
            "contract": "project/src/resolver/PermissionedResolver.sol:PermissionedResolver",
            "label": "addresses",
            "offset": 0,
            "slot": "4",
            "type": "t_mapping(t_uint256,t_bytes_storage)"
          },
          {
            "astId": 76380,
            "contract": "project/src/resolver/PermissionedResolver.sol:PermissionedResolver",
            "label": "texts",
            "offset": 0,
            "slot": "5",
            "type": "t_mapping(t_string_memory_ptr,t_string_storage)"
          },
          {
            "astId": 76384,
            "contract": "project/src/resolver/PermissionedResolver.sol:PermissionedResolver",
            "label": "abis",
            "offset": 0,
            "slot": "6",
            "type": "t_mapping(t_uint256,t_bytes_storage)"
          },
          {
            "astId": 76388,
            "contract": "project/src/resolver/PermissionedResolver.sol:PermissionedResolver",
            "label": "interfaces",
            "offset": 0,
            "slot": "7",
            "type": "t_mapping(t_bytes4,t_address)"
          }
        ],
        "numberOfBytes": "256"
      },
      "t_uint256": {
        "encoding": "inplace",
        "label": "uint256",
        "numberOfBytes": "32"
      },
      "t_uint64": {
        "encoding": "inplace",
        "label": "uint64",
        "numberOfBytes": "8"
      }
    }
  },
  "userdoc": {
    "errors": {
      "InvalidContentType(uint256)": [
        {
          "notice": "The coin type is not a power of 2."
        }
      ],
      "InvalidEVMAddress(bytes)": [
        {
          "notice": "The address could not be converted to `address`."
        }
      ],
      "InvalidOwner()": [
        {
          "notice": "Expected valid owner."
        }
      ],
      "UnsupportedResolverProfile(bytes4)": [
        {
          "notice": "The resolver profile cannot be answered."
        }
      ]
    },
    "events": {
      "AliasChanged(bytes,bytes,bytes,bytes)": {
        "notice": "An alias was changed."
      },
      "EACRolesChanged(uint256,address,uint256,uint256)": {
        "notice": "Emitted when roles are changed."
      },
      "NamedAddrResource(uint256,bytes,uint256)": {
        "notice": "Associate an EAC resource with a name and specific `addr(coinType)` record."
      },
      "NamedResource(uint256,bytes)": {
        "notice": "Associate an EAC resource with a name."
      },
      "NamedTextResource(uint256,bytes,bytes32,string)": {
        "notice": "Associate an EAC resource with a name and specific `text(key)` record."
      }
    },
    "kind": "user",
    "methods": {
      "ABI(bytes32,uint256)": {
        "notice": "Returns the ABI associated with an ENS node. Defined in EIP205."
      },
      "HCA_FACTORY()": {
        "notice": "The HCA factory contract"
      },
      "ROOT_RESOURCE()": {
        "notice": "The `ROOT_RESOURCE`."
      },
      "addr(bytes32)": {
        "notice": "Returns the address associated with an ENS node."
      },
      "clearRecords(bytes32)": {
        "notice": "Clear all records for `node`."
      },
      "constructor": {
        "notice": "Creates the PermissionedResolver implementation."
      },
      "contenthash(bytes32)": {
        "notice": "Returns the contenthash associated with an ENS node."
      },
      "getAlias(bytes)": {
        "notice": "Determine which name is queried when `fromName` is resolved."
      },
      "getAssigneeCount(uint256,uint256)": {
        "notice": "Returns the number of assignees for the roles in the given role bitmap."
      },
      "grantAddrRoles(bytes,uint256,address)": {
        "notice": "Grant `setAddr(coinType)` permission to `account` for `toName`.         Use `NameCoder.encode(\"\")` for any name."
      },
      "grantNameRoles(bytes,uint256,address)": {
        "notice": "Grant `roleBitmap` permissions to `account` for `toName`.         Use `NameCoder.encode(\"\")` for any name, which is equivalent to `grantRootRoles()`."
      },
      "grantRoles(uint256,uint256,address)": {
        "notice": "Function is disabled.  Use `grant(Name|Text|Addr)Roles()` instead."
      },
      "grantRootRoles(uint256,address)": {
        "notice": "Grants all roles in the given role bitmap to `account` in the ROOT_RESOURCE."
      },
      "grantTextRoles(bytes,string,address)": {
        "notice": "Grant `setText(key)` permission to `account` for `toName`.         Use `NameCoder.encode(\"\")` for any name."
      },
      "hasAddr(bytes32,uint256)": {
        "notice": "Determine if an addresss is stored for the coin type of the associated ENS node."
      },
      "hasAssignees(uint256,uint256)": {
        "notice": "Checks if any of the roles in the given role bitmap has assignees."
      },
      "hasRoles(uint256,uint256,address)": {
        "notice": "Checks if the given account has been granted all the given roles in the given resource or the `ROOT_RESOURCE`."
      },
      "hasRootRoles(uint256,address)": {
        "notice": "Checks if the given account has been granted all the given roles in the `ROOT_RESOURCE`."
      },
      "initialize(address,uint256)": {
        "notice": "Initialize the contract."
      },
      "interfaceImplementer(bytes32,bytes4)": {
        "notice": "Returns the address of a contract that implements the specified interface for this name. If an implementer has not been set for this interfaceID and name, the resolver will query the contract at `addr()`. If `addr()` is set, a contract exists at that address, and that contract implements EIP165 and returns `true` for the specified interfaceID, its address will be returned."
      },
      "multicall(bytes[])": {
        "notice": "Perform multiple write operations."
      },
      "multicallWithNodeCheck(bytes32,bytes[])": {
        "notice": "Same as `multicall()`."
      },
      "name(bytes32)": {
        "notice": "Returns the name associated with an ENS node, for reverse records. Defined in EIP181."
      },
      "pubkey(bytes32)": {
        "notice": "Returns the SECP256k1 public key associated with an ENS node. Defined in EIP 619."
      },
      "recordVersions(bytes32)": {
        "notice": "Get the current version."
      },
      "revokeRoles(uint256,uint256,address)": {
        "notice": "Revokes all roles in the given role bitmap from `account`."
      },
      "revokeRootRoles(uint256,address)": {
        "notice": "Revokes all roles in the given role bitmap from `account` in the ROOT_RESOURCE."
      },
      "roleCount(uint256)": {
        "notice": "Returns the role count bitmap for a resource."
      },
      "roles(uint256,address)": {
        "notice": "Returns the roles bitmap for an account in a resource."
      },
      "setABI(bytes32,uint256,bytes)": {
        "notice": "Set ABI data of the associated ENS node."
      },
      "setAddr(bytes32,address)": {
        "notice": "Set Ethereum mainnet address of the associated ENS node.         `address(0)` is stored as `new bytes(20)`."
      },
      "setAddr(bytes32,uint256,bytes)": {
        "notice": "Set the address for `coinType` of the associated ENS node.         Reverts `InvalidEVMAddress` if coin type is EVM and not 0 or 20 bytes."
      },
      "setAlias(bytes,bytes)": {
        "notice": "Create an alias from `fromName` to `toName`."
      },
      "setContenthash(bytes32,bytes)": {
        "notice": "Set the contenthash of the associated ENS node."
      },
      "setInterface(bytes32,bytes4,address)": {
        "notice": "Set an interface of the associated ENS node."
      },
      "setName(bytes32,string)": {
        "notice": "Set the name of the associated ENS node."
      },
      "setPubkey(bytes32,bytes32,bytes32)": {
        "notice": "Set the SECP256k1 public key associated with an ENS node."
      },
      "setText(bytes32,string,string)": {
        "notice": "Set the text for `key` of the associated ENS node."
      },
      "supportsFeature(bytes4)": {
        "notice": "Check if a feature is supported."
      },
      "text(bytes32,string)": {
        "notice": "Returns the text data associated with an ENS node and key."
      }
    },
    "notice": "A resolver that supports many profiles, multiple names, internal aliasing, and fine-grained permissions. Supported profiles and standards: - ENSIP-1 / EIP-137: addr() - ENSIP-3 / EIP-181: name() - ENSIP-4 / EIP-205: ABI() - EIP-619: pubkey() - ENSIP-5 / EIP-634: text(key) - ENSIP-7 / EIP-1577: contenthash() - ENSIP-8: interfaceImplementer() - ENSIP-9 / EIP-2304: addr(coinType) - ENSIP-19: addr(default) - ENSIP-24: data(key) --- TODO - IERC7996: supportsFeature() - IVersionableResolver: version() - IHasAddrResolver: hasAddr() Internal Aliasing: * Resolved names find the longest match and rewrite the suffix. * Successful matches recursively check for additional aliasing. * `bytes32 node` in calldata is updated accordingly. * Cycles of length 1 apply once. * Cycles of length 2+ result in OOG. eg. `setAlias(\"a.eth\", \"b.eth\")` * `getAlias(\"a.eth\") => \"b.eth\"` * `getAlias(\"[sub].a.eth\") => \"[sub].b.eth\"` * `getAlias(\"[x.y].a.eth\") => \"[x.y].b.eth\"` * `getAlias(\"abc.eth\") => \"\"` Fine-grained Permissions: `setText(key)` can be restricted to a key using: `part = textPart(<key>)`. `setAddr(coinType)` can be restricted to a coinType using: `part = addrPart(<coinType>)`. Setters with `node` check (4) EAC resources:                                           Parts        Resources      +-----------------------------+------------------------------+               |           Any (*)           |         Specific (1)         |        +--------------+-----------------------------+------------------------------+        |      Any (*) |       resource(0, 0)        |      resource(0, <part>)     |  Names |--------------+-----------------------------+------------------------------+        | Specific (1) |   resource(<namehash>, 0)   | resource(<namehash>, <part>) |        +--------------+-----------------------------+------------------------------+",
    "version": 1
  },
  "argsData": "0x00000000000000000000000012919bd18e9eb9f004e2faf78709d0319747d761",
  "transaction": {
    "hash": "0xd0e3958752fcd040e84a52eedc18c99dee73a71024f94c6aaedf2eaf3407a695",
    "nonce": "0x1d3c",
    "origin": "0xffffffffff52d316b7bd028358089bc8066b8f80"
  }
}