{
  "address": "0xf821ffd29058c4fb8e4d43b1a2a050af2c1f1ee0",
  "abi": [
    {
      "inputs": [
        {
          "internalType": "contract IHCAFactoryBasic",
          "name": "hcaFactory",
          "type": "address"
        }
      ],
      "stateMutability": "nonpayable",
      "type": "constructor"
    },
    {
      "inputs": [
        {
          "internalType": "uint256",
          "name": "resource",
          "type": "uint256"
        },
        {
          "internalType": "uint256",
          "name": "roleBitmap",
          "type": "uint256"
        },
        {
          "internalType": "address",
          "name": "account",
          "type": "address"
        }
      ],
      "name": "EACCannotGrantRoles",
      "type": "error"
    },
    {
      "inputs": [
        {
          "internalType": "uint256",
          "name": "resource",
          "type": "uint256"
        },
        {
          "internalType": "uint256",
          "name": "roleBitmap",
          "type": "uint256"
        },
        {
          "internalType": "address",
          "name": "account",
          "type": "address"
        }
      ],
      "name": "EACCannotRevokeRoles",
      "type": "error"
    },
    {
      "inputs": [],
      "name": "EACInvalidAccount",
      "type": "error"
    },
    {
      "inputs": [
        {
          "internalType": "uint256",
          "name": "roleBitmap",
          "type": "uint256"
        }
      ],
      "name": "EACInvalidRoleBitmap",
      "type": "error"
    },
    {
      "inputs": [
        {
          "internalType": "uint256",
          "name": "resource",
          "type": "uint256"
        },
        {
          "internalType": "uint256",
          "name": "role",
          "type": "uint256"
        }
      ],
      "name": "EACMaxAssignees",
      "type": "error"
    },
    {
      "inputs": [
        {
          "internalType": "uint256",
          "name": "resource",
          "type": "uint256"
        },
        {
          "internalType": "uint256",
          "name": "role",
          "type": "uint256"
        }
      ],
      "name": "EACMinAssignees",
      "type": "error"
    },
    {
      "inputs": [],
      "name": "EACRootResourceNotAllowed",
      "type": "error"
    },
    {
      "inputs": [
        {
          "internalType": "uint256",
          "name": "resource",
          "type": "uint256"
        },
        {
          "internalType": "uint256",
          "name": "roleBitmap",
          "type": "uint256"
        },
        {
          "internalType": "address",
          "name": "account",
          "type": "address"
        }
      ],
      "name": "EACUnauthorizedAccountRoles",
      "type": "error"
    },
    {
      "anonymous": false,
      "inputs": [
        {
          "indexed": true,
          "internalType": "uint256",
          "name": "resource",
          "type": "uint256"
        },
        {
          "indexed": true,
          "internalType": "address",
          "name": "account",
          "type": "address"
        },
        {
          "indexed": false,
          "internalType": "uint256",
          "name": "oldRoleBitmap",
          "type": "uint256"
        },
        {
          "indexed": false,
          "internalType": "uint256",
          "name": "newRoleBitmap",
          "type": "uint256"
        }
      ],
      "name": "EACRolesChanged",
      "type": "event"
    },
    {
      "inputs": [],
      "name": "HCA_FACTORY",
      "outputs": [
        {
          "internalType": "contract IHCAFactoryBasic",
          "name": "",
          "type": "address"
        }
      ],
      "stateMutability": "view",
      "type": "function"
    },
    {
      "inputs": [],
      "name": "ROOT_RESOURCE",
      "outputs": [
        {
          "internalType": "uint256",
          "name": "",
          "type": "uint256"
        }
      ],
      "stateMutability": "view",
      "type": "function"
    },
    {
      "inputs": [
        {
          "internalType": "uint256",
          "name": "resource",
          "type": "uint256"
        },
        {
          "internalType": "uint256",
          "name": "roleBitmap",
          "type": "uint256"
        }
      ],
      "name": "getAssigneeCount",
      "outputs": [
        {
          "internalType": "uint256",
          "name": "counts",
          "type": "uint256"
        },
        {
          "internalType": "uint256",
          "name": "mask",
          "type": "uint256"
        }
      ],
      "stateMutability": "view",
      "type": "function"
    },
    {
      "inputs": [
        {
          "internalType": "uint256",
          "name": "resource",
          "type": "uint256"
        },
        {
          "internalType": "uint256",
          "name": "roleBitmap",
          "type": "uint256"
        },
        {
          "internalType": "address",
          "name": "account",
          "type": "address"
        }
      ],
      "name": "grantRoles",
      "outputs": [
        {
          "internalType": "bool",
          "name": "",
          "type": "bool"
        }
      ],
      "stateMutability": "nonpayable",
      "type": "function"
    },
    {
      "inputs": [
        {
          "internalType": "uint256",
          "name": "roleBitmap",
          "type": "uint256"
        },
        {
          "internalType": "address",
          "name": "account",
          "type": "address"
        }
      ],
      "name": "grantRootRoles",
      "outputs": [
        {
          "internalType": "bool",
          "name": "",
          "type": "bool"
        }
      ],
      "stateMutability": "nonpayable",
      "type": "function"
    },
    {
      "inputs": [
        {
          "internalType": "uint256",
          "name": "resource",
          "type": "uint256"
        },
        {
          "internalType": "uint256",
          "name": "roleBitmap",
          "type": "uint256"
        }
      ],
      "name": "hasAssignees",
      "outputs": [
        {
          "internalType": "bool",
          "name": "",
          "type": "bool"
        }
      ],
      "stateMutability": "view",
      "type": "function"
    },
    {
      "inputs": [
        {
          "internalType": "uint256",
          "name": "resource",
          "type": "uint256"
        },
        {
          "internalType": "uint256",
          "name": "roleBitmap",
          "type": "uint256"
        },
        {
          "internalType": "address",
          "name": "account",
          "type": "address"
        }
      ],
      "name": "hasRoles",
      "outputs": [
        {
          "internalType": "bool",
          "name": "",
          "type": "bool"
        }
      ],
      "stateMutability": "view",
      "type": "function"
    },
    {
      "inputs": [
        {
          "internalType": "uint256",
          "name": "roleBitmap",
          "type": "uint256"
        },
        {
          "internalType": "address",
          "name": "account",
          "type": "address"
        }
      ],
      "name": "hasRootRoles",
      "outputs": [
        {
          "internalType": "bool",
          "name": "",
          "type": "bool"
        }
      ],
      "stateMutability": "view",
      "type": "function"
    },
    {
      "inputs": [
        {
          "internalType": "uint256",
          "name": "resource",
          "type": "uint256"
        },
        {
          "internalType": "uint256",
          "name": "roleBitmap",
          "type": "uint256"
        },
        {
          "internalType": "address",
          "name": "account",
          "type": "address"
        }
      ],
      "name": "revokeRoles",
      "outputs": [
        {
          "internalType": "bool",
          "name": "",
          "type": "bool"
        }
      ],
      "stateMutability": "nonpayable",
      "type": "function"
    },
    {
      "inputs": [
        {
          "internalType": "uint256",
          "name": "roleBitmap",
          "type": "uint256"
        },
        {
          "internalType": "address",
          "name": "account",
          "type": "address"
        }
      ],
      "name": "revokeRootRoles",
      "outputs": [
        {
          "internalType": "bool",
          "name": "",
          "type": "bool"
        }
      ],
      "stateMutability": "nonpayable",
      "type": "function"
    },
    {
      "inputs": [
        {
          "internalType": "uint256",
          "name": "resource",
          "type": "uint256"
        }
      ],
      "name": "roleCount",
      "outputs": [
        {
          "internalType": "uint256",
          "name": "",
          "type": "uint256"
        }
      ],
      "stateMutability": "view",
      "type": "function"
    },
    {
      "inputs": [
        {
          "internalType": "uint256",
          "name": "resource",
          "type": "uint256"
        },
        {
          "internalType": "address",
          "name": "account",
          "type": "address"
        }
      ],
      "name": "roles",
      "outputs": [
        {
          "internalType": "uint256",
          "name": "",
          "type": "uint256"
        }
      ],
      "stateMutability": "view",
      "type": "function"
    },
    {
      "inputs": [
        {
          "internalType": "uint256",
          "name": "tokenId",
          "type": "uint256"
        },
        {
          "internalType": "string",
          "name": "uri",
          "type": "string"
        }
      ],
      "name": "setTokenUri",
      "outputs": [],
      "stateMutability": "nonpayable",
      "type": "function"
    },
    {
      "inputs": [
        {
          "internalType": "bytes4",
          "name": "interfaceId",
          "type": "bytes4"
        }
      ],
      "name": "supportsInterface",
      "outputs": [
        {
          "internalType": "bool",
          "name": "",
          "type": "bool"
        }
      ],
      "stateMutability": "view",
      "type": "function"
    },
    {
      "inputs": [
        {
          "internalType": "uint256",
          "name": "tokenId",
          "type": "uint256"
        }
      ],
      "name": "tokenUri",
      "outputs": [
        {
          "internalType": "string",
          "name": "",
          "type": "string"
        }
      ],
      "stateMutability": "view",
      "type": "function"
    }
  ],
  "contractName": "SimpleRegistryMetadata",
  "sourceName": "src/registry/SimpleRegistryMetadata.sol",
  "bytecode": "0x60a060405234801561000f575f80fd5b506040516114a43803806114a483398101604081905261002e916103c6565b6001600160a01b03811660805261006f5f7f1111111111111111111111111111111111111111111111111111111111111111610068610076565b6001610084565b5050610428565b5f61007f61017f565b905090565b5f835f0361009357505f610177565b61009c8461021c565b6001600160a01b0383166100c35760405163761fe2c960e11b815260040160405180910390fd5b5f858152602081815260408083206001600160a01b0387168452909152902054848117808214610171575f878152602081815260408083206001600160a01b038916845290915290208190558119861661011f88826001610268565b60408051848152602081018490526001600160a01b038816918a917f0d35bf721a39b614de00ca5038e1deb0cb0c69a278645e83405a7226cf80ba3c910160405180910390a360019350505050610177565b5f925050505b949350505050565b6080515f906001600160a01b031661019657503390565b60805160405163110ac5cb60e21b81523360048201525f916001600160a01b03169063442b172c90602401602060405180830381865afa1580156101dc573d5f803e3d5ffd5b505050506040513d601f19601f8201168201806040525081019061020091906103c6565b90506001600160a01b038116610217573391505090565b919050565b7feeeeeeeeeeeeeeeeeeeeeeeeeeeeeeeeeeeeeeeeeeeeeeeeeeeeeeeeeeeeeeee81161561026557604051630153d96960e51b8152600481018290526024015b60405180910390fd5b50565b5f61027283610398565b90508115610308575f848152600160205260409020546102b89082161980195f8051602061148483398151915291909101165f8051602061146483398151915216151590565b156102e057604051631f22ca6960e31b8152600481018590526024810184905260440161025c565b5f84815260016020526040812080548592906102fd9084906103fc565b909155506103929050565b5f84815260016020526040902054610347901982161980195f8051602061148483398151915291909101165f8051602061146483398151915216151590565b1561036f57604051631f80c19b60e01b8152600481018590526024810184905260440161025c565b5f848152600160205260408120805485929061038c908490610415565b90915550505b50505050565b5f6103a28261021c565b50600181901b17600281901b1790565b6001600160a01b0381168114610265575f80fd5b5f602082840312156103d6575f80fd5b81516103e1816103b2565b9392505050565b634e487b7160e01b5f52601160045260245ffd5b8082018082111561040f5761040f6103e8565b92915050565b8181038181111561040f5761040f6103e8565b60805161101661044e5f395f818161019b015281816109d00152610a3101526110165ff3fe608060405234801561000f575f80fd5b50600436106100f0575f3560e01c80633634f911116100935780637c300586116100635780637c3005861461028f578063ce156e82146102a2578063d3bf89b1146102b5578063dfa70d8b14610316575f80fd5b80633634f911146101d557806357f7789e146101fd5780635adf472414610212578063781ef8db14610245575f80fd5b80631675f455116100ce5780631675f455146101425780631c3fc3eb146101625780632f27fa2414610177578063319c22bb14610196575f80fd5b806301ffc9a7146100f4578063072d5d771461011c57806311b8e00a1461012f575b5f80fd5b610107610102366004610cba565b610329565b60405190151581526020015b60405180910390f35b61010761012a366004610cfc565b61036c565b61010761013d366004610d2a565b610397565b610155610150366004610d4a565b6103ae565b6040516101139190610d61565b6101695f81565b604051908152602001610113565b610169610185366004610d4a565b5f9081526001602052604090205490565b6101bd7f000000000000000000000000000000000000000000000000000000000000000081565b6040516001600160a01b039091168152602001610113565b6101e86101e3366004610d2a565b61044d565b60408051928352602083019190915201610113565b61021061020b366004610d96565b610470565b005b610169610220366004610cfc565b5f918252602082815260408084206001600160a01b0393909316845291905290205490565b610107610253366004610cfc565b6001600160a01b03165f9081527fad3228b676f7d3cd4284a5443f17f1962b36e491b30a40b2405849e597ba5fb5602052604090205481161490565b61010761029d366004610e0b565b6104a5565b6101076102b0366004610cfc565b6104ea565b6101076102c3366004610e0b565b5f928352602083815260408085206001600160a01b03939093168552918152818420547fad3228b676f7d3cd4284a5443f17f1962b36e491b30a40b2405849e597ba5fb590915292205490911781161490565b610107610324366004610e0b565b61050c565b5f6001600160e01b031982167f1675f455000000000000000000000000000000000000000000000000000000001480610366575061036682610547565b92915050565b5f8083610381828261037c6105ad565b6105bb565b61038e5f868660016106ae565b95945050505050565b5f806103a3848461044d565b501515949350505050565b5f8181526002602052604090208054606091906103ca90610e41565b80601f01602080910402602001604051908101604052809291908181526020018280546103f690610e41565b80156104415780601f1061041857610100808354040283529160200191610441565b820191905f5260205f20905b81548152906001019060200180831161042457829003601f168201915b50505050509050919050565b5f80610458836107c2565b5f948552600160205260409094205484169492505050565b5f600161048582826104806105ad565b6107dc565b5f85815260026020526040902061049d848683610ed1565b505050505050565b5f83836104b5828261037c6105ad565b856104d357604051631850848b60e31b815260040160405180910390fd5b6104e086868660016106ae565b9695505050505050565b5f80836104ff82826104fa6105ad565b61087d565b61038e5f86866001610965565b5f838361051c82826104fa6105ad565b8561053a57604051631850848b60e31b815260040160405180910390fd5b6104e08686866001610965565b5f6001600160e01b031982167f8f452d6200000000000000000000000000000000000000000000000000000000148061036657507f01ffc9a7000000000000000000000000000000000000000000000000000000006001600160e01b0319831614610366565b5f6105b66109cd565b905090565b5f61064d84836001600160a01b03165f8181527fad3228b676f7d3cd4284a5443f17f1962b36e491b30a40b2405849e597ba5fb5602090815260408083205494835282825280832093835292905220547f1111111111111111111111111111111100000000000000000000000000000000911790811660809190911c6f11111111111111111111111111111111161790565b905080198316156106a8576040517fd1a3b35500000000000000000000000000000000000000000000000000000000815260048101859052602481018490526001600160a01b03831660448201526064015b60405180910390fd5b50505050565b5f835f036106bd57505f6107ba565b6106c684610abe565b6001600160a01b038316610706576040517fec3fc59200000000000000000000000000000000000000000000000000000000815260040160405180910390fd5b5f858152602081815260408083206001600160a01b03871684529091529020548481178082146107b4575f878152602081815260408083206001600160a01b038916845290915290208190558119861661076288826001610b1e565b60408051848152602081018490526001600160a01b038816918a917f0d35bf721a39b614de00ca5038e1deb0cb0c69a278645e83405a7226cf80ba3c910160405180910390a3600193505050506107ba565b5f925050505b949350505050565b5f6107cc82610abe565b50600181901b17600281901b1790565b5f838152602081815260408083206001600160a01b03851684528252808320547fad3228b676f7d3cd4284a5443f17f1962b36e491b30a40b2405849e597ba5fb5909252909120541782168214610878576040517f4b27a13300000000000000000000000000000000000000000000000000000000815260048101849052602481018390526001600160a01b038216604482015260640161069f565b505050565b5f61090f84836001600160a01b03165f8181527fad3228b676f7d3cd4284a5443f17f1962b36e491b30a40b2405849e597ba5fb5602090815260408083205494835282825280832093835292905220547f1111111111111111111111111111111100000000000000000000000000000000911790811660809190911c6f11111111111111111111111111111111161790565b905080198316156106a8576040517fa604e31800000000000000000000000000000000000000000000000000000000815260048101859052602481018490526001600160a01b038316604482015260640161069f565b5f61096f84610abe565b5f858152602081815260408083206001600160a01b0387168452909152902054841981168082146107b4575f878152602081815260408083206001600160a01b03891684529091528120829055868316906107629089908390610b1e565b5f7f00000000000000000000000000000000000000000000000000000000000000006001600160a01b0316610a0157503390565b6040517f442b172c0000000000000000000000000000000000000000000000000000000081523360048201525f907f00000000000000000000000000000000000000000000000000000000000000006001600160a01b03169063442b172c90602401602060405180830381865afa158015610a7e573d5f803e3d5ffd5b505050506040513d601f19601f82011682018060405250810190610aa29190610f8b565b90506001600160a01b038116610ab9573391505090565b919050565b7feeeeeeeeeeeeeeeeeeeeeeeeeeeeeeeeeeeeeeeeeeeeeeeeeeeeeeeeeeeeeeee811615610b1b576040517f2a7b2d200000000000000000000000000000000000000000000000000000000081526004810182905260240161069f565b50565b5f610b28836107c2565b90508115610bf1575f848152600160205260409020547f888888888888888888888888888888888888888888888888888888888888888890821680197feeeeeeeeeeeeeeeeeeeeeeeeeeeeeeeeeeeeeeeeeeeeeeeeeeeeeeeeeeeeeeef01161615610bc9576040517ff9165348000000000000000000000000000000000000000000000000000000008152600481018590526024810184905260440161069f565b5f8481526001602052604081208054859290610be6908490610fba565b909155506106a89050565b5f848152600160205260409020547f88888888888888888888888888888888888888888888888888888888888888889019821680197feeeeeeeeeeeeeeeeeeeeeeeeeeeeeeeeeeeeeeeeeeeeeeeeeeeeeeeeeeeeeeef01161615610c8b576040517f1f80c19b000000000000000000000000000000000000000000000000000000008152600481018590526024810184905260440161069f565b5f8481526001602052604081208054859290610ca8908490610fcd565b909155505050505050565b5050505050565b5f60208284031215610cca575f80fd5b81356001600160e01b031981168114610ce1575f80fd5b9392505050565b6001600160a01b0381168114610b1b575f80fd5b5f8060408385031215610d0d575f80fd5b823591506020830135610d1f81610ce8565b809150509250929050565b5f8060408385031215610d3b575f80fd5b50508035926020909101359150565b5f60208284031215610d5a575f80fd5b5035919050565b602081525f82518060208401528060208501604085015e5f604082850101526040601f19601f83011684010191505092915050565b5f805f60408486031215610da8575f80fd5b83359250602084013567ffffffffffffffff80821115610dc6575f80fd5b818601915086601f830112610dd9575f80fd5b813581811115610de7575f80fd5b876020828501011115610df8575f80fd5b6020830194508093505050509250925092565b5f805f60608486031215610e1d575f80fd5b83359250602084013591506040840135610e3681610ce8565b809150509250925092565b600181811c90821680610e5557607f821691505b602082108103610e7357634e487b7160e01b5f52602260045260245ffd5b50919050565b634e487b7160e01b5f52604160045260245ffd5b601f82111561087857805f5260205f20601f840160051c81016020851015610eb25750805b601f840160051c820191505b81811015610cb3575f8155600101610ebe565b67ffffffffffffffff831115610ee957610ee9610e79565b610efd83610ef78354610e41565b83610e8d565b5f601f841160018114610f2e575f8515610f175750838201355b5f19600387901b1c1916600186901b178355610cb3565b5f83815260208120601f198716915b82811015610f5d5786850135825560209485019460019092019101610f3d565b5086821015610f79575f1960f88860031b161c19848701351681555b505060018560011b0183555050505050565b5f60208284031215610f9b575f80fd5b8151610ce181610ce8565b634e487b7160e01b5f52601160045260245ffd5b8082018082111561036657610366610fa6565b8181038181111561036657610366610fa656fea26469706673582212206a58a4af535c271ac236036342ba0203e8af48a2bbb3bf534a4f672a10815be664736f6c634300081900338888888888888888888888888888888888888888888888888888888888888888eeeeeeeeeeeeeeeeeeeeeeeeeeeeeeeeeeeeeeeeeeeeeeeeeeeeeeeeeeeeeeef",
  "linkReferences": {},
  "deployedLinkReferences": {},
  "immutableReferences": {
    "69592": [
      {
        "length": 32,
        "start": 411
      },
      {
        "length": 32,
        "start": 2512
      },
      {
        "length": 32,
        "start": 2609
      }
    ]
  },
  "inputSourceName": "project/src/registry/SimpleRegistryMetadata.sol",
  "devdoc": {
    "errors": {
      "EACCannotGrantRoles(uint256,uint256,address)": [
        {
          "details": "Error selector: `0xd1a3b355`"
        }
      ],
      "EACCannotRevokeRoles(uint256,uint256,address)": [
        {
          "details": "Error selector: `0xa604e318`"
        }
      ],
      "EACInvalidAccount()": [
        {
          "details": "Error selector: `0xec3fc592`"
        }
      ],
      "EACInvalidRoleBitmap(uint256)": [
        {
          "details": "Error selector: `0x2a7b2d20`"
        }
      ],
      "EACMaxAssignees(uint256,uint256)": [
        {
          "details": "Error selector: `0xf9165348`"
        }
      ],
      "EACMinAssignees(uint256,uint256)": [
        {
          "details": "Error selector: `0x1f80c19b`"
        }
      ],
      "EACRootResourceNotAllowed()": [
        {
          "details": "Error selector: `0xc2842458`"
        }
      ],
      "EACUnauthorizedAccountRoles(uint256,uint256,address)": [
        {
          "details": "Error selector: `0x4b27a133`"
        }
      ]
    },
    "events": {
      "EACRolesChanged(uint256,address,uint256,uint256)": {
        "params": {
          "account": "The account that the roles were changed for.",
          "newRoleBitmap": "The new roles for the account.",
          "oldRoleBitmap": "The old roles for the account.",
          "resource": "The resource that the roles were changed within."
        }
      }
    },
    "kind": "dev",
    "methods": {
      "constructor": {
        "params": {
          "hcaFactory": "The HCA factory."
        }
      },
      "getAssigneeCount(uint256,uint256)": {
        "params": {
          "resource": "The resource to check.",
          "roleBitmap": "The roles bitmap to check."
        },
        "returns": {
          "counts": "The number of assignees for each of the roles in the given role bitmap, expressed as a packed array of 4-bit ints.",
          "mask": "The mask for the given role bitmap."
        }
      },
      "grantRoles(uint256,uint256,address)": {
        "details": "The caller must have all the necessary admin roles for the roles being granted.      Cannot be used with ROOT_RESOURCE directly, use grantRootRoles instead.",
        "params": {
          "account": "The account to grant roles to.",
          "resource": "The resource to grant roles within.",
          "roleBitmap": "The roles bitmap to grant."
        },
        "returns": {
          "_0": "`true` if the roles were granted, `false` otherwise."
        }
      },
      "grantRootRoles(uint256,address)": {
        "details": "The caller must have all the necessary admin roles for the roles being granted.",
        "params": {
          "account": "The account to grant roles to.",
          "roleBitmap": "The roles bitmap to grant."
        },
        "returns": {
          "_0": "`true` if the roles were granted, `false` otherwise."
        }
      },
      "hasAssignees(uint256,uint256)": {
        "params": {
          "resource": "The resource to check.",
          "roleBitmap": "The roles bitmap to check."
        },
        "returns": {
          "_0": "`true` if any of the roles in the given role bitmap has assignees, `false` otherwise."
        }
      },
      "hasRoles(uint256,uint256,address)": {
        "params": {
          "account": "The account to check.",
          "resource": "The resource to check.",
          "roleBitmap": "The roles bitmap to check."
        },
        "returns": {
          "_0": "`true` if `account` has been granted all the given roles in the given resource or the `ROOT_RESOURCE`, `false` otherwise."
        }
      },
      "hasRootRoles(uint256,address)": {
        "params": {
          "account": "The account to check.",
          "roleBitmap": "The roles bitmap to check."
        },
        "returns": {
          "_0": "`true` if `account` has been granted all the given roles in the `ROOT_RESOURCE`, `false` otherwise."
        }
      },
      "revokeRoles(uint256,uint256,address)": {
        "details": "The caller must have all the necessary admin roles for the roles being revoked.      Cannot be used with ROOT_RESOURCE directly, use revokeRootRoles instead.",
        "params": {
          "account": "The account to revoke roles from.",
          "resource": "The resource to revoke roles within.",
          "roleBitmap": "The roles bitmap to revoke."
        },
        "returns": {
          "_0": "`true` if the roles were revoked, `false` otherwise."
        }
      },
      "revokeRootRoles(uint256,address)": {
        "details": "The caller must have all the necessary admin roles for the roles being revoked.",
        "params": {
          "account": "The account to revoke roles from.",
          "roleBitmap": "The roles bitmap to revoke."
        },
        "returns": {
          "_0": "`true` if the roles were revoked, `false` otherwise."
        }
      },
      "roleCount(uint256)": {
        "params": {
          "resource": "The resource to get the role count for."
        },
        "returns": {
          "_0": "count The role count bitmap for the resource."
        }
      },
      "roles(uint256,address)": {
        "params": {
          "account": "The account to get the roles for.",
          "resource": "The resource to get the roles for."
        },
        "returns": {
          "_0": "The roles bitmap for the account in the resource."
        }
      },
      "setTokenUri(uint256,string)": {
        "details": "Restricted to accounts holding the metadata update role on the root resource.",
        "params": {
          "tokenId": "The token identifier whose URI is being set.",
          "uri": "The new metadata URI for the token."
        }
      },
      "supportsInterface(bytes4)": {
        "details": "Returns true if this contract implements the interface defined by `interfaceId`. See the corresponding https://eips.ethereum.org/EIPS/eip-165#how-interfaces-are-identified[ERC section] to learn more about how these ids are created. This function call must use less than 30 000 gas."
      },
      "tokenUri(uint256)": {
        "params": {
          "tokenId": "The token identifier to look up."
        },
        "returns": {
          "_0": "The stored URI for `tokenId`, or an empty string if none has been set."
        }
      }
    },
    "stateVariables": {
      "_ROLE_UPDATE_METADATA": {
        "details": "Role bit allowing an account to update individual token URIs."
      },
      "_ROLE_UPDATE_METADATA_ADMIN": {
        "details": "Admin-tier counterpart of the metadata update role, shifted into the upper half of the bitmap."
      },
      "_tokenUris": {
        "details": "Per-token mapping from token ID to its metadata URI."
      }
    },
    "version": 1
  },
  "evm": {
    "gasEstimates": {
      "creation": {
        "codeDepositCost": "823600",
        "executionCost": "infinite",
        "totalCost": "infinite"
      },
      "external": {
        "HCA_FACTORY()": "infinite",
        "ROOT_RESOURCE()": "238",
        "getAssigneeCount(uint256,uint256)": "2659",
        "grantRoles(uint256,uint256,address)": "infinite",
        "grantRootRoles(uint256,address)": "infinite",
        "hasAssignees(uint256,uint256)": "2732",
        "hasRoles(uint256,uint256,address)": "4892",
        "hasRootRoles(uint256,address)": "2652",
        "revokeRoles(uint256,uint256,address)": "infinite",
        "revokeRootRoles(uint256,address)": "infinite",
        "roleCount(uint256)": "2502",
        "roles(uint256,address)": "2701",
        "setTokenUri(uint256,string)": "infinite",
        "supportsInterface(bytes4)": "infinite",
        "tokenUri(uint256)": "infinite"
      }
    }
  },
  "storageLayout": {
    "storage": [
      {
        "astId": 65208,
        "contract": "project/src/registry/SimpleRegistryMetadata.sol:SimpleRegistryMetadata",
        "label": "_roles",
        "offset": 0,
        "slot": "0",
        "type": "t_mapping(t_uint256,t_mapping(t_address,t_uint256))"
      },
      {
        "astId": 65213,
        "contract": "project/src/registry/SimpleRegistryMetadata.sol:SimpleRegistryMetadata",
        "label": "_roleCount",
        "offset": 0,
        "slot": "1",
        "type": "t_mapping(t_uint256,t_uint256)"
      },
      {
        "astId": 74990,
        "contract": "project/src/registry/SimpleRegistryMetadata.sol:SimpleRegistryMetadata",
        "label": "_tokenUris",
        "offset": 0,
        "slot": "2",
        "type": "t_mapping(t_uint256,t_string_storage)"
      }
    ],
    "types": {
      "t_address": {
        "encoding": "inplace",
        "label": "address",
        "numberOfBytes": "20"
      },
      "t_mapping(t_address,t_uint256)": {
        "encoding": "mapping",
        "key": "t_address",
        "label": "mapping(address => uint256)",
        "numberOfBytes": "32",
        "value": "t_uint256"
      },
      "t_mapping(t_uint256,t_mapping(t_address,t_uint256))": {
        "encoding": "mapping",
        "key": "t_uint256",
        "label": "mapping(uint256 => mapping(address => uint256))",
        "numberOfBytes": "32",
        "value": "t_mapping(t_address,t_uint256)"
      },
      "t_mapping(t_uint256,t_string_storage)": {
        "encoding": "mapping",
        "key": "t_uint256",
        "label": "mapping(uint256 => string)",
        "numberOfBytes": "32",
        "value": "t_string_storage"
      },
      "t_mapping(t_uint256,t_uint256)": {
        "encoding": "mapping",
        "key": "t_uint256",
        "label": "mapping(uint256 => uint256)",
        "numberOfBytes": "32",
        "value": "t_uint256"
      },
      "t_string_storage": {
        "encoding": "bytes",
        "label": "string",
        "numberOfBytes": "32"
      },
      "t_uint256": {
        "encoding": "inplace",
        "label": "uint256",
        "numberOfBytes": "32"
      }
    }
  },
  "userdoc": {
    "events": {
      "EACRolesChanged(uint256,address,uint256,uint256)": {
        "notice": "Emitted when roles are changed."
      }
    },
    "kind": "user",
    "methods": {
      "HCA_FACTORY()": {
        "notice": "The HCA factory contract"
      },
      "ROOT_RESOURCE()": {
        "notice": "The `ROOT_RESOURCE`."
      },
      "constructor": {
        "notice": "Initializes SimpleRegistryMetadata, granting all roles to the caller."
      },
      "getAssigneeCount(uint256,uint256)": {
        "notice": "Returns the number of assignees for the roles in the given role bitmap."
      },
      "grantRoles(uint256,uint256,address)": {
        "notice": "Grants all roles in the given role bitmap to `account`."
      },
      "grantRootRoles(uint256,address)": {
        "notice": "Grants all roles in the given role bitmap to `account` in the ROOT_RESOURCE."
      },
      "hasAssignees(uint256,uint256)": {
        "notice": "Checks if any of the roles in the given role bitmap has assignees."
      },
      "hasRoles(uint256,uint256,address)": {
        "notice": "Checks if the given account has been granted all the given roles in the given resource or the `ROOT_RESOURCE`."
      },
      "hasRootRoles(uint256,address)": {
        "notice": "Checks if the given account has been granted all the given roles in the `ROOT_RESOURCE`."
      },
      "revokeRoles(uint256,uint256,address)": {
        "notice": "Revokes all roles in the given role bitmap from `account`."
      },
      "revokeRootRoles(uint256,address)": {
        "notice": "Revokes all roles in the given role bitmap from `account` in the ROOT_RESOURCE."
      },
      "roleCount(uint256)": {
        "notice": "Returns the role count bitmap for a resource."
      },
      "roles(uint256,address)": {
        "notice": "Returns the roles bitmap for an account in a resource."
      },
      "setTokenUri(uint256,string)": {
        "notice": "Sets the metadata URI for a specific token."
      },
      "tokenUri(uint256)": {
        "notice": "Returns the metadata URI for the given token."
      }
    },
    "notice": "`IRegistryMetadata` implementation that stores a distinct URI per token ID. URIs can be         set by accounts holding the metadata update role in the root resource.",
    "version": 1
  },
  "argsData": "0x00000000000000000000000012919bd18e9eb9f004e2faf78709d0319747d761",
  "transaction": {
    "hash": "0x9985d0e5bb10a59b7d7020587609c5620e3e6c401d7e7a00418512ebcd757d9a",
    "nonce": "0x1d2d",
    "origin": "0xffffffffff52d316b7bd028358089bc8066b8f80"
  }
}