{
  "address": "0x6e5b8a907ed46a15869b9a19f6961781d6af2270",
  "abi": [
    {
      "inputs": [
        {
          "internalType": "address",
          "name": "owner_",
          "type": "address"
        },
        {
          "internalType": "contract IPermissionedRegistry",
          "name": "registry",
          "type": "address"
        },
        {
          "internalType": "uint256[]",
          "name": "baseRatePerCp",
          "type": "uint256[]"
        },
        {
          "components": [
            {
              "internalType": "uint64",
              "name": "t",
              "type": "uint64"
            },
            {
              "internalType": "uint128",
              "name": "value",
              "type": "uint128"
            }
          ],
          "internalType": "struct DiscountPoint[]",
          "name": "discountPoints",
          "type": "tuple[]"
        },
        {
          "internalType": "uint256",
          "name": "premiumPriceInitial_",
          "type": "uint256"
        },
        {
          "internalType": "uint64",
          "name": "premiumHalvingPeriod_",
          "type": "uint64"
        },
        {
          "internalType": "uint64",
          "name": "premiumPeriod_",
          "type": "uint64"
        },
        {
          "components": [
            {
              "internalType": "contract IERC20",
              "name": "token",
              "type": "address"
            },
            {
              "internalType": "uint128",
              "name": "numer",
              "type": "uint128"
            },
            {
              "internalType": "uint128",
              "name": "denom",
              "type": "uint128"
            }
          ],
          "internalType": "struct PaymentRatio[]",
          "name": "paymentRatios",
          "type": "tuple[]"
        }
      ],
      "stateMutability": "nonpayable",
      "type": "constructor"
    },
    {
      "inputs": [],
      "name": "InvalidDiscountPoint",
      "type": "error"
    },
    {
      "inputs": [],
      "name": "InvalidRatio",
      "type": "error"
    },
    {
      "inputs": [
        {
          "internalType": "string",
          "name": "label",
          "type": "string"
        }
      ],
      "name": "NotValid",
      "type": "error"
    },
    {
      "inputs": [
        {
          "internalType": "address",
          "name": "owner",
          "type": "address"
        }
      ],
      "name": "OwnableInvalidOwner",
      "type": "error"
    },
    {
      "inputs": [
        {
          "internalType": "address",
          "name": "account",
          "type": "address"
        }
      ],
      "name": "OwnableUnauthorizedAccount",
      "type": "error"
    },
    {
      "inputs": [
        {
          "internalType": "contract IERC20",
          "name": "paymentToken",
          "type": "address"
        }
      ],
      "name": "PaymentTokenNotSupported",
      "type": "error"
    },
    {
      "anonymous": false,
      "inputs": [
        {
          "indexed": false,
          "internalType": "uint256[]",
          "name": "ratePerCp",
          "type": "uint256[]"
        }
      ],
      "name": "BaseRatesChanged",
      "type": "event"
    },
    {
      "anonymous": false,
      "inputs": [
        {
          "components": [
            {
              "internalType": "uint64",
              "name": "t",
              "type": "uint64"
            },
            {
              "internalType": "uint128",
              "name": "value",
              "type": "uint128"
            }
          ],
          "indexed": false,
          "internalType": "struct DiscountPoint[]",
          "name": "points",
          "type": "tuple[]"
        }
      ],
      "name": "DiscountPointsChanged",
      "type": "event"
    },
    {
      "anonymous": false,
      "inputs": [
        {
          "indexed": true,
          "internalType": "address",
          "name": "previousOwner",
          "type": "address"
        },
        {
          "indexed": true,
          "internalType": "address",
          "name": "newOwner",
          "type": "address"
        }
      ],
      "name": "OwnershipTransferred",
      "type": "event"
    },
    {
      "anonymous": false,
      "inputs": [
        {
          "indexed": true,
          "internalType": "contract IERC20",
          "name": "paymentToken",
          "type": "address"
        }
      ],
      "name": "PaymentTokenAdded",
      "type": "event"
    },
    {
      "anonymous": false,
      "inputs": [
        {
          "indexed": true,
          "internalType": "contract IERC20",
          "name": "paymentToken",
          "type": "address"
        }
      ],
      "name": "PaymentTokenRemoved",
      "type": "event"
    },
    {
      "anonymous": false,
      "inputs": [
        {
          "indexed": true,
          "internalType": "uint256",
          "name": "initialPrice",
          "type": "uint256"
        },
        {
          "indexed": true,
          "internalType": "uint64",
          "name": "halvingPeriod",
          "type": "uint64"
        },
        {
          "indexed": true,
          "internalType": "uint64",
          "name": "period",
          "type": "uint64"
        }
      ],
      "name": "PremiumPricingChanged",
      "type": "event"
    },
    {
      "inputs": [],
      "name": "REGISTRY",
      "outputs": [
        {
          "internalType": "contract IPermissionedRegistry",
          "name": "",
          "type": "address"
        }
      ],
      "stateMutability": "view",
      "type": "function"
    },
    {
      "inputs": [
        {
          "internalType": "string",
          "name": "label",
          "type": "string"
        }
      ],
      "name": "baseRate",
      "outputs": [
        {
          "internalType": "uint256",
          "name": "",
          "type": "uint256"
        }
      ],
      "stateMutability": "view",
      "type": "function"
    },
    {
      "inputs": [],
      "name": "getBaseRates",
      "outputs": [
        {
          "internalType": "uint256[]",
          "name": "",
          "type": "uint256[]"
        }
      ],
      "stateMutability": "view",
      "type": "function"
    },
    {
      "inputs": [],
      "name": "getDiscountPoints",
      "outputs": [
        {
          "components": [
            {
              "internalType": "uint64",
              "name": "t",
              "type": "uint64"
            },
            {
              "internalType": "uint128",
              "name": "value",
              "type": "uint128"
            }
          ],
          "internalType": "struct DiscountPoint[]",
          "name": "",
          "type": "tuple[]"
        }
      ],
      "stateMutability": "view",
      "type": "function"
    },
    {
      "inputs": [
        {
          "internalType": "uint64",
          "name": "duration",
          "type": "uint64"
        }
      ],
      "name": "integratedDiscount",
      "outputs": [
        {
          "internalType": "uint256",
          "name": "",
          "type": "uint256"
        }
      ],
      "stateMutability": "view",
      "type": "function"
    },
    {
      "inputs": [
        {
          "internalType": "contract IERC20",
          "name": "paymentToken",
          "type": "address"
        }
      ],
      "name": "isPaymentToken",
      "outputs": [
        {
          "internalType": "bool",
          "name": "",
          "type": "bool"
        }
      ],
      "stateMutability": "view",
      "type": "function"
    },
    {
      "inputs": [
        {
          "internalType": "string",
          "name": "label",
          "type": "string"
        }
      ],
      "name": "isValid",
      "outputs": [
        {
          "internalType": "bool",
          "name": "",
          "type": "bool"
        }
      ],
      "stateMutability": "view",
      "type": "function"
    },
    {
      "inputs": [],
      "name": "owner",
      "outputs": [
        {
          "internalType": "address",
          "name": "",
          "type": "address"
        }
      ],
      "stateMutability": "view",
      "type": "function"
    },
    {
      "inputs": [],
      "name": "premiumHalvingPeriod",
      "outputs": [
        {
          "internalType": "uint64",
          "name": "",
          "type": "uint64"
        }
      ],
      "stateMutability": "view",
      "type": "function"
    },
    {
      "inputs": [],
      "name": "premiumPeriod",
      "outputs": [
        {
          "internalType": "uint64",
          "name": "",
          "type": "uint64"
        }
      ],
      "stateMutability": "view",
      "type": "function"
    },
    {
      "inputs": [
        {
          "internalType": "uint64",
          "name": "expiry",
          "type": "uint64"
        }
      ],
      "name": "premiumPrice",
      "outputs": [
        {
          "internalType": "uint256",
          "name": "",
          "type": "uint256"
        }
      ],
      "stateMutability": "view",
      "type": "function"
    },
    {
      "inputs": [
        {
          "internalType": "uint64",
          "name": "duration",
          "type": "uint64"
        }
      ],
      "name": "premiumPriceAfter",
      "outputs": [
        {
          "internalType": "uint256",
          "name": "",
          "type": "uint256"
        }
      ],
      "stateMutability": "view",
      "type": "function"
    },
    {
      "inputs": [],
      "name": "premiumPriceInitial",
      "outputs": [
        {
          "internalType": "uint256",
          "name": "",
          "type": "uint256"
        }
      ],
      "stateMutability": "view",
      "type": "function"
    },
    {
      "inputs": [],
      "name": "renounceOwnership",
      "outputs": [],
      "stateMutability": "nonpayable",
      "type": "function"
    },
    {
      "inputs": [
        {
          "internalType": "string",
          "name": "label",
          "type": "string"
        },
        {
          "internalType": "address",
          "name": "owner",
          "type": "address"
        },
        {
          "internalType": "uint64",
          "name": "duration",
          "type": "uint64"
        },
        {
          "internalType": "contract IERC20",
          "name": "paymentToken",
          "type": "address"
        }
      ],
      "name": "rentPrice",
      "outputs": [
        {
          "internalType": "uint256",
          "name": "base",
          "type": "uint256"
        },
        {
          "internalType": "uint256",
          "name": "premium",
          "type": "uint256"
        }
      ],
      "stateMutability": "view",
      "type": "function"
    },
    {
      "inputs": [
        {
          "internalType": "bytes4",
          "name": "interfaceId",
          "type": "bytes4"
        }
      ],
      "name": "supportsInterface",
      "outputs": [
        {
          "internalType": "bool",
          "name": "",
          "type": "bool"
        }
      ],
      "stateMutability": "view",
      "type": "function"
    },
    {
      "inputs": [
        {
          "internalType": "address",
          "name": "newOwner",
          "type": "address"
        }
      ],
      "name": "transferOwnership",
      "outputs": [],
      "stateMutability": "nonpayable",
      "type": "function"
    },
    {
      "inputs": [
        {
          "internalType": "uint256[]",
          "name": "ratePerCp",
          "type": "uint256[]"
        }
      ],
      "name": "updateBaseRates",
      "outputs": [],
      "stateMutability": "nonpayable",
      "type": "function"
    },
    {
      "inputs": [
        {
          "components": [
            {
              "internalType": "uint64",
              "name": "t",
              "type": "uint64"
            },
            {
              "internalType": "uint128",
              "name": "value",
              "type": "uint128"
            }
          ],
          "internalType": "struct DiscountPoint[]",
          "name": "points",
          "type": "tuple[]"
        }
      ],
      "name": "updateDiscountPoints",
      "outputs": [],
      "stateMutability": "nonpayable",
      "type": "function"
    },
    {
      "inputs": [
        {
          "internalType": "contract IERC20",
          "name": "paymentToken",
          "type": "address"
        },
        {
          "internalType": "uint128",
          "name": "numer",
          "type": "uint128"
        },
        {
          "internalType": "uint128",
          "name": "denom",
          "type": "uint128"
        }
      ],
      "name": "updatePaymentToken",
      "outputs": [],
      "stateMutability": "nonpayable",
      "type": "function"
    },
    {
      "inputs": [
        {
          "internalType": "uint256",
          "name": "initialPrice",
          "type": "uint256"
        },
        {
          "internalType": "uint64",
          "name": "halvingPeriod",
          "type": "uint64"
        },
        {
          "internalType": "uint64",
          "name": "period",
          "type": "uint64"
        }
      ],
      "name": "updatePremiumPricing",
      "outputs": [],
      "stateMutability": "nonpayable",
      "type": "function"
    }
  ],
  "contractName": "StandardRentPriceOracle",
  "sourceName": "src/registrar/StandardRentPriceOracle.sol",
  "bytecode": "0x60a060405234801561000f575f80fd5b5060405161260d38038061260d83398101604081905261002e916106b6565b876001600160a01b03811661005c57604051631e4fbdf760e01b81525f600482015260240160405180910390fd5b6100658161022c565b506001600160a01b0387166080528551610086906003906020890190610382565b507f720888fe1107546b2cd641e55b788489e2575285198e24f277617ec68cce45da866040516100b69190610783565b60405180910390a16100c78561027b565b6001849055600280546001600160401b038581166001600160801b03199092168217680100000000000000009186169182021790925560405186907f76063ba99a8ef2fe71724961baa4b438b36de8774f85a465bb975a97bfb4afb7905f90a45f5b815181101561021e575f828281518110610145576101456107c6565b6020026020010151905080602001516001600160801b03165f1480610175575060408101516001600160801b0316155b156101935760405163648564d360e01b815260040160405180910390fd5b6040805180820182526020808401516001600160801b03908116835284840151811682840190815285516001600160a01b039081165f9081526005909452858420945191518316600160801b0291909216179092558351925192909116917fa317c10673baf4f03b3c1041bd5ddbb537d0333a86fec3607c75f9dbb630f48f9190a250600101610129565b50505050505050505061083a565b5f80546001600160a01b038381166001600160a01b0319831681178455604051919092169283917f8be0079c531659141344cd1fd0a4f28419497f9722a3daafe3b4186f6b6457e09190a35050565b61028660045f6103cb565b5f5b8151811015610347578181815181106102a3576102a36107c6565b60200260200101515f01516001600160401b03165f036102d6576040516368df45df60e11b815260040160405180910390fd5b60048282815181106102ea576102ea6107c6565b6020908102919091018101518254600181810185555f9485529383902082519101805492909301516001600160801b031668010000000000000000026001600160c01b03199092166001600160401b039091161717905501610288565b507f8731c1d12557df178b5595bd6ee91f3488dd3896670f1dd0ad4c3baa0972fbb18160405161037791906107da565b60405180910390a150565b828054828255905f5260205f209081019282156103bb579160200282015b828111156103bb5782518255916020019190600101906103a0565b506103c79291506103e9565b5090565b5080545f8255905f5260205f20908101906103e691906103fd565b50565b5b808211156103c7575f81556001016103ea565b5b808211156103c75780546001600160c01b03191681556001016103fe565b6001600160a01b03811681146103e6575f80fd5b805161043b8161041c565b919050565b634e487b7160e01b5f52604160045260245ffd5b604080519081016001600160401b038111828210171561047657610476610440565b60405290565b604051606081016001600160401b038111828210171561047657610476610440565b604051601f8201601f191681016001600160401b03811182821017156104c6576104c6610440565b604052919050565b5f6001600160401b038211156104e6576104e6610440565b5060051b60200190565b5f82601f8301126104ff575f80fd5b8151602061051461050f836104ce565b61049e565b8083825260208201915060208460051b870101935086841115610535575f80fd5b602086015b84811015610551578051835291830191830161053a565b509695505050505050565b80516001600160401b038116811461043b575f80fd5b80516001600160801b038116811461043b575f80fd5b5f82601f830112610597575f80fd5b815160206105a761050f836104ce565b82815260069290921b840181019181810190868411156105c5575f80fd5b8286015b8481101561055157604081890312156105e0575f80fd5b6105e8610454565b6105f18261055c565b81526105fe858301610572565b818601528352918301916040016105c9565b5f82601f83011261061f575f80fd5b8151602061062f61050f836104ce565b8281526060928302850182019282820191908785111561064d575f80fd5b8387015b858110156106a95781818a031215610667575f80fd5b61066f61047c565b815161067a8161041c565b8152610687828701610572565b868201526040610698818401610572565b908201528452928401928101610651565b5090979650505050505050565b5f805f805f805f80610100898b0312156106ce575f80fd5b6106d789610430565b97506106e560208a01610430565b60408a01519097506001600160401b0380821115610701575f80fd5b61070d8c838d016104f0565b975060608b0151915080821115610722575f80fd5b61072e8c838d01610588565b965060808b0151955061074360a08c0161055c565b945061075160c08c0161055c565b935060e08b0151915080821115610766575f80fd5b506107738b828c01610610565b9150509295985092959890939650565b602080825282518282018190525f9190848201906040850190845b818110156107ba5783518352928401929184019160010161079e565b50909695505050505050565b634e487b7160e01b5f52603260045260245ffd5b602080825282518282018190525f919060409081850190868401855b8281101561082d57815180516001600160401b031685528601516001600160801b03168685015292840192908501906001016107f6565b5091979650505050505050565b608051611db46108595f395f818161019f01526105820152611db45ff3fe608060405234801561000f575f80fd5b506004361061016e575f3560e01c80639b6b81af116100d2578063c50f093b11610088578063f1dfaefb11610063578063f1dfaefb14610363578063f2fde38b14610376578063fc4b28c114610389575f80fd5b8063c50f093b14610320578063dff521a814610335578063ecbdec8114610348575f80fd5b8063a2b24848116100b8578063a2b24848146102cd578063a7e0db5e146102fa578063a7eff43b1461030d575f80fd5b80639b6b81af146102b1578063a25a7b1f146102c4575f80fd5b8063715018a611610127578063930eaddc1161010d578063930eaddc1461024357806395b4da4a1461027d5780639822dea21461029e575f80fd5b8063715018a61461022b5780638da5cb5b14610233575f80fd5b8063089a729311610157578063089a7293146101d957806331643fc9146101ee57806339ac7a2a14610216575f80fd5b806301ffc9a71461017257806306433b1b1461019a575b5f80fd5b6101856101803660046116a7565b61039c565b60405190151581526020015b60405180910390f35b6101c17f000000000000000000000000000000000000000000000000000000000000000081565b6040516001600160a01b039091168152602001610191565b6101ec6101e73660046116e6565b610434565b005b6102016101fc36600461181b565b61049a565b60408051928352602083019190915201610191565b61021e61074f565b604051610191919061188c565b6101ec6107ca565b5f546001600160a01b03166101c1565b6101856102513660046118ed565b6001600160a01b03165f90815260056020526040902054600160801b90046001600160801b0316151590565b61029061028b366004611908565b6107dd565b604051908152602001610191565b6102906102ac366004611942565b61085b565b6102906102bf366004611942565b61088c565b61029060015481565b6002546102e19067ffffffffffffffff1681565b60405167ffffffffffffffff9091168152602001610191565b610290610308366004611942565b610901565b6101ec61031b36600461195d565b610a61565b610328610ae2565b604051610191919061199c565b6101ec6103433660046119fa565b610b38565b6002546102e190600160401b900467ffffffffffffffff1681565b610185610371366004611a3c565b610c94565b6101ec6103843660046118ed565b610cdc565b6101ec610397366004611a96565b610d32565b5f7fffffffff0000000000000000000000000000000000000000000000000000000082167f53b53cee00000000000000000000000000000000000000000000000000000000148061042e57507f01ffc9a7000000000000000000000000000000000000000000000000000000007fffffffff000000000000000000000000000000000000000000000000000000008316145b92915050565b61043c610d84565b6104968282808060200260200160405190810160405280939291908181526020015f905b8282101561048c5761047d60408302860136819003810190611af3565b81526020019060010190610460565b5050505050610dc9565b5050565b6001600160a01b0381165f9081526005602090815260408083208151808301909252546001600160801b038082168352600160801b9091041691810182905282918203610523576040517f02e2ae9e0000000000000000000000000000000000000000000000000000000081526001600160a01b03851660048201526024015b60405180910390fd5b5f8567ffffffffffffffff16610538896107dd565b6105429190611b62565b9050805f0361057f57876040517fdbfa288600000000000000000000000000000000000000000000000000000000815260040161051a9190611b79565b5f7f00000000000000000000000000000000000000000000000000000000000000006001600160a01b03166344c9af286105be8b805160209091012090565b6040518263ffffffff1660e01b81526004016105dc91815260200190565b60a060405180830381865afa1580156105f7573d5f803e3d5ffd5b505050506040513d601f19601f8201168201806040525081019061061b9190611bae565b90505f42826020015167ffffffffffffffff1611610639575f610649565b4282602001516106499190611c37565b905061068f8361065883610901565b6106656103088c86611c5f565b61066f9190611c80565b61068a67ffffffffffffffff8c166001600160801b03611b62565b610efe565b6106999084611c80565b92505f6001600160a01b038a16158015906106ca575082604001516001600160a01b03168a6001600160a01b031614155b156106df576106dc836020015161085b565b90505b61070381865f01516001600160801b031687602001516001600160801b0316610efe565b9550856107356107138387611c93565b875f01516001600160801b031688602001516001600160801b03166001610fae565b61073f9190611c80565b9650505050505094509492505050565b60606004805480602002602001604051908101604052809291908181526020015f905b828210156107c1575f848152602090819020604080518082019091529084015467ffffffffffffffff81168252600160401b90046001600160801b031681830152825260019092019101610772565b50505050905090565b6107d2610d84565b6107db5f610ff0565b565b80515f908015806107ee575060ff81115b156107fb57505f92915050565b6003545f81900361080f57505f9392505050565b5f61081985611057565b90506003600183831161082c578261082e565b835b6108389190611c80565b8154811061084857610848611ca6565b905f5260205f2001549350505050919050565b5f4267ffffffffffffffff8084169082161015610878575f610885565b6108856102bf8483611c37565b9392505050565b6002545f9067ffffffffffffffff600160401b9091048116908316106108b357505f919050565b6001546002546108d8919067ffffffffffffffff80821691600160401b9004166111e4565b6001546002546108f7919067ffffffffffffffff9081169086166111e4565b61042e9190611c80565b6004545f9080820361091557505f92915050565b5f805f5b83811015610a17575f6004828154811061093557610935611ca6565b5f9182526020918290206040805180820190915291015467ffffffffffffffff808216808452600160401b9092046001600160801b031693830193909352909250908816116109b55760208101516109a0906001600160801b031667ffffffffffffffff8916611b62565b6109aa9085611c93565b979650505050505050565b80516109c19088611c37565b965080602001516001600160801b0316815f015167ffffffffffffffff166109e99190611b62565b6109f39085611c93565b8151909450610a0c9067ffffffffffffffff1684611c93565b925050600101610919565b5080600181610a308567ffffffffffffffff8a16611b62565b610a3a9190611c93565b610a449190611c80565b610a4e9190611cce565b610a589083611c93565b95945050505050565b610a69610d84565b60018390556002805467ffffffffffffffff8481167fffffffffffffffffffffffffffffffff000000000000000000000000000000009092168217600160401b9185169182021790925560405185907f76063ba99a8ef2fe71724961baa4b438b36de8774f85a465bb975a97bfb4afb7905f90a4505050565b60606003805480602002602001604051908101604052809291908181526020018280548015610b2e57602002820191905f5260205f20905b815481526020019060010190808311610b1a575b5050505050905090565b610b40610d84565b6001600160a01b0383165f90815260056020526040812054600160801b90046001600160801b0316151590506001600160801b03821615610c4757826001600160801b03165f03610bbd576040517f648564d300000000000000000000000000000000000000000000000000000000815260040160405180910390fd5b6040805180820182526001600160801b03808616825284811660208084019182526001600160a01b0389165f908152600590915293909320915192518116600160801b02921691909117905580610c42576040516001600160a01b038516907fa317c10673baf4f03b3c1041bd5ddbb537d0333a86fec3607c75f9dbb630f48f905f90a25b610c8e565b8015610c8e576001600160a01b0384165f81815260056020526040808220829055517f85a3e72f8dd6db3794f93109c3c5f5b79d6112f6979431c45f98b26134b42af29190a25b50505050565b5f80610cd484848080601f0160208091040260200160405190810160405280939291908181526020018383808284375f920191909152506107dd92505050565b119392505050565b610ce4610d84565b6001600160a01b038116610d26576040517f1e4fbdf70000000000000000000000000000000000000000000000000000000081525f600482015260240161051a565b610d2f81610ff0565b50565b610d3a610d84565b610d46600383836115f8565b507f720888fe1107546b2cd641e55b788489e2575285198e24f277617ec68cce45da8282604051610d78929190611ce1565b60405180910390a15050565b5f546001600160a01b031633146107db576040517f118cdaa700000000000000000000000000000000000000000000000000000000815233600482015260240161051a565b610dd460045f611641565b5f5b8151811015610ec357818181518110610df157610df1611ca6565b60200260200101515f015167ffffffffffffffff165f03610e3e576040517fd1be8bbe00000000000000000000000000000000000000000000000000000000815260040160405180910390fd5b6004828281518110610e5257610e52611ca6565b6020908102919091018101518254600181810185555f9485529383902082519101805492909301516001600160801b0316600160401b027fffffffffffffffff00000000000000000000000000000000000000000000000090921667ffffffffffffffff9091161717905501610dd6565b507f8731c1d12557df178b5595bd6ee91f3488dd3896670f1dd0ad4c3baa0972fbb181604051610ef3919061188c565b60405180910390a150565b5f805f610f0b868661127f565b91509150815f03610f2f57838181610f2557610f25611cba565b0492505050610885565b818411610f4657610f46600385150260111861129b565b5f848688095f868103871696879004966002600389028118808a02820302808a02820302808a02820302808a02820302808a02820302808a02909103029181900381900460010185841190960395909502919093039390930492909217029150509392505050565b5f610fdb610fbb836112ac565b8015610fd657505f8480610fd157610fd1611cba565b868809115b151590565b610fe6868686610efe565b610a589190611c93565b5f80546001600160a01b038381167fffffffffffffffffffffffff0000000000000000000000000000000000000000831681178455604051919092169283917f8be0079c531659141344cd1fd0a4f28419497f9722a3daafe3b4186f6b6457e09190a35050565b80515f90819081905b808210156111db575f85838151811061107b5761107b611ca6565b01602001516001600160f81b03191690507f80000000000000000000000000000000000000000000000000000000000000008110156110c6576110bf600184611c93565b92506111c8565b7fe0000000000000000000000000000000000000000000000000000000000000006001600160f81b031982161015611103576110bf600284611c93565b7ff0000000000000000000000000000000000000000000000000000000000000006001600160f81b031982161015611140576110bf600384611c93565b7ff8000000000000000000000000000000000000000000000000000000000000006001600160f81b03198216101561117d576110bf600484611c93565b7ffc000000000000000000000000000000000000000000000000000000000000006001600160f81b0319821610156111ba576110bf600584611c93565b6111c5600684611c93565b92505b50826111d381611d31565b935050611060565b50909392505050565b5f8315806111f0575082155b156111fc57505f610885565b815f0361120a575082610885565b5f8361121e670de0b6b3a764000085611b62565b6112289190611cce565b90505f61123d670de0b6b3a764000083611cce565b90505f611252670de0b6b3a764000083611b62565b61125c9084611c80565b90506109aa87831c61127a670de0b6b3a7640000601085901b611cce565b6112d8565b5f805f1983850993909202808410938190039390930393915050565b634e487b715f52806020526024601cfd5b5f60028260038111156112c1576112c1611d49565b6112cb9190611d5d565b60ff166001149050919050565b5f600182161561130a57670de0b6b3a76400006112fd670de0ad151d09418085611b62565b6113079190611cce565b92505b600282161561133b57670de0b6b3a764000061132e670de0a3769959680085611b62565b6113389190611cce565b92505b600482161561136c57670de0b6b3a764000061135f670de09039a5fa510085611b62565b6113699190611cce565b92505b600882161561139d57670de0b6b3a7640000611390670de069c00f3e120085611b62565b61139a9190611cce565b92505b60108216156113ce57670de0b6b3a76400006113c1670de01cce21c9440085611b62565b6113cb9190611cce565b92505b60208216156113ff57670de0b6b3a76400006113f2670ddf82ef46ce100085611b62565b6113fc9190611cce565b92505b604082161561143057670de0b6b3a7640000611423670dde4f458f8e8d8085611b62565b61142d9190611cce565b92505b608082161561146157670de0b6b3a7640000611454670ddbe84213d5f08085611b62565b61145e9190611cce565b92505b61010082161561149357670de0b6b3a7640000611486670dd71b7aa6df5b8085611b62565b6114909190611cce565b92505b6102008216156114c557670de0b6b3a76400006114b8670dcd86e7f28cde0085611b62565b6114c29190611cce565b92505b6104008216156114f757670de0b6b3a76400006114ea670dba71a3084ad68085611b62565b6114f49190611cce565b92505b61080082161561152957670de0b6b3a764000061151c670d94961b13dbde8085611b62565b6115269190611cce565b92505b61100082161561155b57670de0b6b3a764000061154e670d4a171c35c9838085611b62565b6115589190611cce565b92505b61200082161561158d57670de0b6b3a7640000611580670cb9da519ccfb70085611b62565b61158a9190611cce565b92505b6140008216156115bf57670de0b6b3a76400006115b2670bab76d59c18d68085611b62565b6115bc9190611cce565b92505b6180008216156115f157670de0b6b3a76400006115e46709d025defee4df8085611b62565b6115ee9190611cce565b92505b5090919050565b828054828255905f5260205f20908101928215611631579160200282015b82811115611631578235825591602001919060010190611616565b5061163d92915061165c565b5090565b5080545f8255905f5260205f2090810190610d2f9190611670565b5b8082111561163d575f815560010161165d565b5b8082111561163d5780547fffffffffffffffff000000000000000000000000000000000000000000000000168155600101611671565b5f602082840312156116b7575f80fd5b81357fffffffff0000000000000000000000000000000000000000000000000000000081168114610885575f80fd5b5f80602083850312156116f7575f80fd5b823567ffffffffffffffff8082111561170e575f80fd5b818501915085601f830112611721575f80fd5b81358181111561172f575f80fd5b8660208260061b8501011115611743575f80fd5b60209290920196919550909350505050565b634e487b7160e01b5f52604160045260245ffd5b5f82601f830112611778575f80fd5b813567ffffffffffffffff8082111561179357611793611755565b604051601f8301601f19908116603f011681019082821181831017156117bb576117bb611755565b816040528381528660208588010111156117d3575f80fd5b836020870160208301375f602085830101528094505050505092915050565b6001600160a01b0381168114610d2f575f80fd5b67ffffffffffffffff81168114610d2f575f80fd5b5f805f806080858703121561182e575f80fd5b843567ffffffffffffffff811115611844575f80fd5b61185087828801611769565b9450506020850135611861816117f2565b9250604085013561187181611806565b91506060850135611881816117f2565b939692955090935050565b602080825282518282018190525f919060409081850190868401855b828110156118e0578151805167ffffffffffffffff1685528601516001600160801b03168685015292840192908501906001016118a8565b5091979650505050505050565b5f602082840312156118fd575f80fd5b8135610885816117f2565b5f60208284031215611918575f80fd5b813567ffffffffffffffff81111561192e575f80fd5b61193a84828501611769565b949350505050565b5f60208284031215611952575f80fd5b813561088581611806565b5f805f6060848603121561196f575f80fd5b83359250602084013561198181611806565b9150604084013561199181611806565b809150509250925092565b602080825282518282018190525f9190848201906040850190845b818110156119d3578351835292840192918401916001016119b7565b50909695505050505050565b80356001600160801b03811681146119f5575f80fd5b919050565b5f805f60608486031215611a0c575f80fd5b8335611a17816117f2565b9250611a25602085016119df565b9150611a33604085016119df565b90509250925092565b5f8060208385031215611a4d575f80fd5b823567ffffffffffffffff80821115611a64575f80fd5b818501915085601f830112611a77575f80fd5b813581811115611a85575f80fd5b866020828501011115611743575f80fd5b5f8060208385031215611aa7575f80fd5b823567ffffffffffffffff80821115611abe575f80fd5b818501915085601f830112611ad1575f80fd5b813581811115611adf575f80fd5b8660208260051b8501011115611743575f80fd5b5f60408284031215611b03575f80fd5b6040516040810181811067ffffffffffffffff82111715611b2657611b26611755565b6040528235611b3481611806565b8152611b42602084016119df565b60208201529392505050565b634e487b7160e01b5f52601160045260245ffd5b808202811582820484141761042e5761042e611b4e565b602081525f82518060208401528060208501604085015e5f604082850101526040601f19601f83011684010191505092915050565b5f60a08284031215611bbe575f80fd5b60405160a0810181811067ffffffffffffffff82111715611be157611be1611755565b604052825160038110611bf2575f80fd5b81526020830151611c0281611806565b60208201526040830151611c15816117f2565b6040820152606083810151908201526080928301519281019290925250919050565b67ffffffffffffffff828116828216039080821115611c5857611c58611b4e565b5092915050565b67ffffffffffffffff818116838216019080821115611c5857611c58611b4e565b8181038181111561042e5761042e611b4e565b8082018082111561042e5761042e611b4e565b634e487b7160e01b5f52603260045260245ffd5b634e487b7160e01b5f52601260045260245ffd5b5f82611cdc57611cdc611cba565b500490565b602081528160208201525f7f07ffffffffffffffffffffffffffffffffffffffffffffffffffffffffffffff831115611d18575f80fd5b8260051b80856040850137919091016040019392505050565b5f60018201611d4257611d42611b4e565b5060010190565b634e487b7160e01b5f52602160045260245ffd5b5f60ff831680611d6f57611d6f611cba565b8060ff8416069150509291505056fea2646970667358221220f2b8f5ffdcb9cdeea01c752814d11298c8cc409c6a424e468db3230748d2488164736f6c63430008190033",
  "linkReferences": {},
  "deployedLinkReferences": {},
  "immutableReferences": {
    "71793": [
      {
        "length": 32,
        "start": 415
      },
      {
        "length": 32,
        "start": 1410
      }
    ]
  },
  "inputSourceName": "project/src/registrar/StandardRentPriceOracle.sol",
  "devdoc": {
    "errors": {
      "InvalidDiscountPoint()": [
        {
          "details": "Error selector: `0xd1be8bbe`"
        }
      ],
      "InvalidRatio()": [
        {
          "details": "Error selector: `0x648564d3`"
        }
      ],
      "NotValid(string)": [
        {
          "details": "Error selector: `0xdbfa2886`"
        }
      ],
      "OwnableInvalidOwner(address)": [
        {
          "details": "The owner is not a valid owner account. (eg. `address(0)`)"
        }
      ],
      "OwnableUnauthorizedAccount(address)": [
        {
          "details": "The caller account is not authorized to perform an operation."
        }
      ],
      "PaymentTokenNotSupported(address)": [
        {
          "details": "Error selector: `0x02e2ae9e`"
        }
      ]
    },
    "events": {
      "BaseRatesChanged(uint256[])": {
        "params": {
          "ratePerCp": "The new base rates."
        }
      },
      "DiscountPointsChanged((uint64,uint128)[])": {
        "params": {
          "points": "The new discount points."
        }
      },
      "PaymentTokenAdded(address)": {
        "params": {
          "paymentToken": "The payment token added."
        }
      },
      "PaymentTokenRemoved(address)": {
        "params": {
          "paymentToken": "The payment token removed."
        }
      },
      "PremiumPricingChanged(uint256,uint64,uint64)": {
        "params": {
          "halvingPeriod": "The new halving period.",
          "initialPrice": "The new initial price.",
          "period": "The new period."
        }
      }
    },
    "kind": "dev",
    "methods": {
      "baseRate(string)": {
        "params": {
          "label": "The name to price."
        },
        "returns": {
          "_0": "The base rate or 0 if not valid, in base units."
        }
      },
      "constructor": {
        "params": {
          "baseRatePerCp": "The initial base rates, in base units per second.",
          "discountPoints": "The initial discount points.",
          "owner_": "The owner of the contract.",
          "paymentRatios": "The initial payment ratios, mapping payment token to its numerator/denominator ratio.",
          "premiumHalvingPeriod_": "The initial premium halving period, in seconds.",
          "premiumPeriod_": "The initial premium period, in seconds.",
          "premiumPriceInitial_": "The initial price, in base units.",
          "registry": "The permissioned registry."
        }
      },
      "integratedDiscount(uint64)": {
        "details": "Use `integratedDiscount(t) / t` to compute average discount.",
        "params": {
          "duration": "The time since now, in seconds."
        },
        "returns": {
          "_0": "Integral of discount function over `[0, duration)`."
        }
      },
      "isPaymentToken(address)": {
        "params": {
          "paymentToken": "The ERC-20 to check."
        },
        "returns": {
          "_0": "`true` if `paymentToken` is supported."
        }
      },
      "isValid(string)": {
        "params": {
          "label": "The name."
        },
        "returns": {
          "_0": "`true` if the `label` is valid."
        }
      },
      "owner()": {
        "details": "Returns the address of the current owner."
      },
      "premiumPrice(uint64)": {
        "params": {
          "expiry": "The expiry time, in seconds."
        },
        "returns": {
          "_0": "The premium price, in base units."
        }
      },
      "premiumPriceAfter(uint64)": {
        "details": "Defined over `[0, premiumPeriod)`.",
        "params": {
          "duration": "The time after expiration, in seconds."
        },
        "returns": {
          "_0": "The premium price, in base units."
        }
      },
      "renounceOwnership()": {
        "details": "Leaves the contract without owner. It will not be possible to call `onlyOwner` functions. Can only be called by the current owner. NOTE: Renouncing ownership will leave the contract without an owner, thereby disabling any functionality that is only available to the owner."
      },
      "rentPrice(string,address,uint64,address)": {
        "details": "Reverts `PaymentTokenNotSupported` or `NotValid`.",
        "params": {
          "duration": "The duration to price, in seconds.",
          "label": "The name.",
          "owner": "The new owner address.",
          "paymentToken": "The ERC-20 to use."
        },
        "returns": {
          "base": "The base price, relative to `paymentToken`.",
          "premium": "The premium price, relative to `paymentToken`."
        }
      },
      "supportsInterface(bytes4)": {
        "details": "See {IERC165-supportsInterface}."
      },
      "transferOwnership(address)": {
        "details": "Transfers ownership of the contract to a new account (`newOwner`). Can only be called by the current owner."
      },
      "updateBaseRates(uint256[])": {
        "details": "- `ratePerCp[i]` corresponds to `i+1` codepoints. - Larger lengths are priced by `ratePerCp[-1]`. - Use rate of `0` to disable a specific length. - Use empty array to disable all registrations. - Emits `BaseRatesChanged`.",
        "params": {
          "ratePerCp": "The base rates, in base units per second."
        }
      },
      "updateDiscountPoints((uint64,uint128)[])": {
        "details": "Notes: - Each point is (∆t, intervalDiscount). - Discounts are relative to `type(uint128).max`. - Given an average discount, solve for the corresponding interval:   * Assume: 1yr at 0% discount   * Solve: 2yr * 5% == 1yr * 0% + 1yr * x => x = 10.00%   * Point: (1yr, 10%) == (1 years, type(uint128).max / 10) - Final discount is derived from the weighted average over the intervals. - Use empty array to disable. - Emits `DiscountPointsChanged`.",
        "params": {
          "points": "The new discount points."
        }
      },
      "updatePaymentToken(address,uint128,uint128)": {
        "details": "Notes: - Use `denom = 0` to remove. - Emits `PaymentTokenAdded` if now supported. - Emits `PaymentTokenRemoved` if no longer supported. - Reverts if invalid exchange rate.",
        "params": {
          "denom": "The denominator of the exchange rate.",
          "numer": "The numerator of the exchange rate.",
          "paymentToken": "The payment token."
        }
      },
      "updatePremiumPricing(uint256,uint64,uint64)": {
        "details": "Notes: - Use `initialPrice = 0` to disable. - Use `premiumPriceAfter(0)` to get exact starting price. - `premiumPriceAfter(halvingPeriod) ~= premiumPriceAfter(0) / 2`. - `premiumPriceAfter(halvingPeriod * x) ~= premiumPriceAfter(0) / 2^x`. - `premiumPriceAfter(period) = 0`. - Emits `PremiumPricingChanged`.",
        "params": {
          "halvingPeriod": "Duration until the price is reduced in half.",
          "initialPrice": "The initial price, in base units.",
          "period": "Number of seconds until the price is reduced to 0."
        }
      }
    },
    "stateVariables": {
      "_baseRatePerCp": {
        "details": "Per-second base rates indexed by codepoint count; `_baseRatePerCp[i]` prices labels with `i+1` codepoints."
      },
      "_discountPoints": {
        "details": "Ordered segments of the piecewise-linear duration discount function."
      },
      "_paymentRatios": {
        "details": "Exchange rates for each accepted payment token, mapping token address to its numerator/denominator ratio."
      }
    },
    "version": 1
  },
  "evm": {
    "gasEstimates": {
      "creation": {
        "codeDepositCost": "1520800",
        "executionCost": "infinite",
        "totalCost": "infinite"
      },
      "external": {
        "REGISTRY()": "infinite",
        "baseRate(string)": "infinite",
        "getBaseRates()": "infinite",
        "getDiscountPoints()": "infinite",
        "integratedDiscount(uint64)": "infinite",
        "isPaymentToken(address)": "2609",
        "isValid(string)": "infinite",
        "owner()": "2397",
        "premiumHalvingPeriod()": "2357",
        "premiumPeriod()": "2418",
        "premiumPrice(uint64)": "infinite",
        "premiumPriceAfter(uint64)": "infinite",
        "premiumPriceInitial()": "2362",
        "renounceOwnership()": "infinite",
        "rentPrice(string,address,uint64,address)": "infinite",
        "supportsInterface(bytes4)": "413",
        "transferOwnership(address)": "infinite",
        "updateBaseRates(uint256[])": "infinite",
        "updateDiscountPoints((uint64,uint128)[])": "infinite",
        "updatePaymentToken(address,uint128,uint128)": "infinite",
        "updatePremiumPricing(uint256,uint64,uint64)": "infinite"
      },
      "internal": {
        "_setDiscountPoints(struct DiscountPoint memory[] memory)": "infinite"
      }
    }
  },
  "storageLayout": {
    "storage": [
      {
        "astId": 45307,
        "contract": "project/src/registrar/StandardRentPriceOracle.sol:StandardRentPriceOracle",
        "label": "_owner",
        "offset": 0,
        "slot": "0",
        "type": "t_address"
      },
      {
        "astId": 71796,
        "contract": "project/src/registrar/StandardRentPriceOracle.sol:StandardRentPriceOracle",
        "label": "premiumPriceInitial",
        "offset": 0,
        "slot": "1",
        "type": "t_uint256"
      },
      {
        "astId": 71799,
        "contract": "project/src/registrar/StandardRentPriceOracle.sol:StandardRentPriceOracle",
        "label": "premiumHalvingPeriod",
        "offset": 0,
        "slot": "2",
        "type": "t_uint64"
      },
      {
        "astId": 71802,
        "contract": "project/src/registrar/StandardRentPriceOracle.sol:StandardRentPriceOracle",
        "label": "premiumPeriod",
        "offset": 8,
        "slot": "2",
        "type": "t_uint64"
      },
      {
        "astId": 71806,
        "contract": "project/src/registrar/StandardRentPriceOracle.sol:StandardRentPriceOracle",
        "label": "_baseRatePerCp",
        "offset": 0,
        "slot": "3",
        "type": "t_array(t_uint256)dyn_storage"
      },
      {
        "astId": 71811,
        "contract": "project/src/registrar/StandardRentPriceOracle.sol:StandardRentPriceOracle",
        "label": "_discountPoints",
        "offset": 0,
        "slot": "4",
        "type": "t_array(t_struct(DiscountPoint)71767_storage)dyn_storage"
      },
      {
        "astId": 71818,
        "contract": "project/src/registrar/StandardRentPriceOracle.sol:StandardRentPriceOracle",
        "label": "_paymentRatios",
        "offset": 0,
        "slot": "5",
        "type": "t_mapping(t_contract(IERC20)48742,t_struct(Ratio)71789_storage)"
      }
    ],
    "types": {
      "t_address": {
        "encoding": "inplace",
        "label": "address",
        "numberOfBytes": "20"
      },
      "t_array(t_struct(DiscountPoint)71767_storage)dyn_storage": {
        "base": "t_struct(DiscountPoint)71767_storage",
        "encoding": "dynamic_array",
        "label": "struct DiscountPoint[]",
        "numberOfBytes": "32"
      },
      "t_array(t_uint256)dyn_storage": {
        "base": "t_uint256",
        "encoding": "dynamic_array",
        "label": "uint256[]",
        "numberOfBytes": "32"
      },
      "t_contract(IERC20)48742": {
        "encoding": "inplace",
        "label": "contract IERC20",
        "numberOfBytes": "20"
      },
      "t_mapping(t_contract(IERC20)48742,t_struct(Ratio)71789_storage)": {
        "encoding": "mapping",
        "key": "t_contract(IERC20)48742",
        "label": "mapping(contract IERC20 => struct StandardRentPriceOracle.Ratio)",
        "numberOfBytes": "32",
        "value": "t_struct(Ratio)71789_storage"
      },
      "t_struct(DiscountPoint)71767_storage": {
        "encoding": "inplace",
        "label": "struct DiscountPoint",
        "members": [
          {
            "astId": 71764,
            "contract": "project/src/registrar/StandardRentPriceOracle.sol:StandardRentPriceOracle",
            "label": "t",
            "offset": 0,
            "slot": "0",
            "type": "t_uint64"
          },
          {
            "astId": 71766,
            "contract": "project/src/registrar/StandardRentPriceOracle.sol:StandardRentPriceOracle",
            "label": "value",
            "offset": 8,
            "slot": "0",
            "type": "t_uint128"
          }
        ],
        "numberOfBytes": "32"
      },
      "t_struct(Ratio)71789_storage": {
        "encoding": "inplace",
        "label": "struct StandardRentPriceOracle.Ratio",
        "members": [
          {
            "astId": 71786,
            "contract": "project/src/registrar/StandardRentPriceOracle.sol:StandardRentPriceOracle",
            "label": "numer",
            "offset": 0,
            "slot": "0",
            "type": "t_uint128"
          },
          {
            "astId": 71788,
            "contract": "project/src/registrar/StandardRentPriceOracle.sol:StandardRentPriceOracle",
            "label": "denom",
            "offset": 16,
            "slot": "0",
            "type": "t_uint128"
          }
        ],
        "numberOfBytes": "32"
      },
      "t_uint128": {
        "encoding": "inplace",
        "label": "uint128",
        "numberOfBytes": "16"
      },
      "t_uint256": {
        "encoding": "inplace",
        "label": "uint256",
        "numberOfBytes": "32"
      },
      "t_uint64": {
        "encoding": "inplace",
        "label": "uint64",
        "numberOfBytes": "8"
      }
    }
  },
  "userdoc": {
    "errors": {
      "InvalidDiscountPoint()": [
        {
          "notice": "Invalid discount point."
        }
      ],
      "InvalidRatio()": [
        {
          "notice": "Invalid payment token exchange rate."
        }
      ],
      "NotValid(string)": [
        {
          "notice": "`label` is not valid."
        }
      ],
      "PaymentTokenNotSupported(address)": [
        {
          "notice": "`paymentToken` is not supported for payment."
        }
      ]
    },
    "events": {
      "BaseRatesChanged(uint256[])": {
        "notice": "Base rates were changed."
      },
      "DiscountPointsChanged((uint64,uint128)[])": {
        "notice": "Discount points were changed."
      },
      "PaymentTokenAdded(address)": {
        "notice": "`paymentToken` is now supported."
      },
      "PaymentTokenRemoved(address)": {
        "notice": "`paymentToken` is no longer supported."
      },
      "PremiumPricingChanged(uint256,uint64,uint64)": {
        "notice": "Premium pricing was changed."
      }
    },
    "kind": "user",
    "methods": {
      "REGISTRY()": {
        "notice": "The permissioned registry used to look up name state (expiry, latest owner) for premium and discount calculations."
      },
      "baseRate(string)": {
        "notice": "Get base rate to register or renew `label` for 1 second."
      },
      "constructor": {
        "notice": "Initializes StandardRentPriceOracle."
      },
      "getBaseRates()": {
        "notice": "Returns all base rates, in base units per second."
      },
      "getDiscountPoints()": {
        "notice": "Returns all discount function points."
      },
      "integratedDiscount(uint64)": {
        "notice": "Compute integral of discount function for `duration`."
      },
      "isPaymentToken(address)": {
        "notice": "Check if `paymentToken` is supported for payment."
      },
      "isValid(string)": {
        "notice": "Does not check if normalized."
      },
      "premiumHalvingPeriod()": {
        "notice": "Number of seconds for the premium to halve in value."
      },
      "premiumPeriod()": {
        "notice": "Total duration of the premium window; the premium reaches zero at this offset from expiry."
      },
      "premiumPrice(uint64)": {
        "notice": "Get premium price for an expiry relative to now."
      },
      "premiumPriceAfter(uint64)": {
        "notice": "Get premium price for a duration after expiry."
      },
      "premiumPriceInitial()": {
        "notice": "Starting value of the exponential decay premium for recently expired names, in base pricing units."
      },
      "rentPrice(string,address,uint64,address)": {
        "notice": "Get rent price for `label`."
      },
      "updateBaseRates(uint256[])": {
        "notice": "Update base rates per codepoint."
      },
      "updateDiscountPoints((uint64,uint128)[])": {
        "notice": "Update the discount function."
      },
      "updatePaymentToken(address,uint128,uint128)": {
        "notice": "Update `paymentToken` support and/or exchange rate."
      },
      "updatePremiumPricing(uint256,uint64,uint64)": {
        "notice": "Update premium pricing function."
      }
    },
    "notice": "Configurable rent pricing oracle with three components: 1. Base rate: per-second cost indexed by label codepoint count. Shorter names cost more.    Rates are stored in an array where index `i` corresponds to `i+1` codepoints; labels    longer than the array use the last entry. 2. Duration discount: piecewise-linear function defined by discount points. Each point    specifies an interval duration and its discount rate. The integral over the registration    period determines the effective discount. Rewards longer registrations. 3. Expiry premium: exponential decay from an initial premium with a configurable halving    period, reaching zero at the end of the premium period. Only charged to new owners of    recently expired names; prior owners and renewals are exempt. Payment tokens have configurable exchange rates (numerator/denominator ratios). Final prices are converted via `Math.mulDiv` with ceiling rounding to prevent underpayment.",
    "version": 1
  },
  "argsData": "0x000000000000000000000000ffffffffff52d316b7bd028358089bc8066b8f80000000000000000000000000796fff2e907449be8d5921bcc215b1b76d89d080000000000000000000000000000000000000000000000000000000000000010000000000000000000000000000000000000000000000000000000000000001c00000000000000000000000000000000000000000000000056bc75e2d63100000000000000000000000000000000000000000000000000000000000000001518000000000000000000000000000000000000000000000000000000000001baf800000000000000000000000000000000000000000000000000000000000000360000000000000000000000000000000000000000000000000000000000000000500000000000000000000000000000000000000000000000000000000000000000000000000000000000000000000000000000000000000000000000000000000000000000000000000000000000000000000000000000000000000000135743900000000000000000000000000000000000000000000000000000000004d5d0f0000000000000000000000000000000000000000000000000000000000026ae900000000000000000000000000000000000000000000000000000000000000060000000000000000000000000000000000000000000000000000000001e187e000000000000000000000000000000000000000000000000000000000000000000000000000000000000000000000000000000000000000000000000001e187e000000000000000000000000000000000000000000000000000000000000000000000000000000000000000000000000000000000000000000000000001e187e000000000000000000000000000000000000000000000000000000000000000000000000000000000000000000000000000000000000000000000000001e187e000000000000000000000000000000000000000000000000000000000000000000000000000000000000000000000000000000000000000000000000001e187e000000000000000000000000000000000000000000000000000000000000000000000000000000000000000000000000000000000000000000000000001e187e000000000000000000000000000000000000000000000000000000000000000000000000000000000000000000000000000000000000000000000000000000002000000000000000000000000302edecc2b8d1f3f4625b8a825a42f9adc102e65000000000000000000000000000000000000000000000000000000000000000100000000000000000000000000000000000000000000000000000000000f4240000000000000000000000000a01e0eb02d0e92f1302e677d7ce7955b35c390d400000000000000000000000000000000000000000000000000000000000f42400000000000000000000000000000000000000000000000000000000000000001",
  "transaction": {
    "hash": "0xc53ad5a1de7d15e2ff78c9e9888cf5be88e7705a6b41584db32238abd5898a97",
    "nonce": "0x1d43",
    "origin": "0xffffffffff52d316b7bd028358089bc8066b8f80"
  }
}