{
  "address": "0x4dc74fef4fc6b5a810a1554d431f06c8d8b7451c",
  "abi": [
    {
      "inputs": [
        {
          "internalType": "contract IRegistry",
          "name": "root",
          "type": "address"
        },
        {
          "internalType": "contract IGatewayProvider",
          "name": "batchGatewayProvider",
          "type": "address"
        }
      ],
      "stateMutability": "nonpayable",
      "type": "constructor"
    },
    {
      "inputs": [
        {
          "internalType": "bytes",
          "name": "dns",
          "type": "bytes"
        }
      ],
      "name": "DNSDecodingFailed",
      "type": "error"
    },
    {
      "inputs": [
        {
          "internalType": "string",
          "name": "ens",
          "type": "string"
        }
      ],
      "name": "DNSEncodingFailed",
      "type": "error"
    },
    {
      "inputs": [],
      "name": "EmptyAddress",
      "type": "error"
    },
    {
      "inputs": [
        {
          "internalType": "uint16",
          "name": "status",
          "type": "uint16"
        },
        {
          "internalType": "string",
          "name": "message",
          "type": "string"
        }
      ],
      "name": "HttpError",
      "type": "error"
    },
    {
      "inputs": [],
      "name": "InvalidBatchGatewayResponse",
      "type": "error"
    },
    {
      "inputs": [],
      "name": "LabelIsEmpty",
      "type": "error"
    },
    {
      "inputs": [
        {
          "internalType": "string",
          "name": "label",
          "type": "string"
        }
      ],
      "name": "LabelIsTooLong",
      "type": "error"
    },
    {
      "inputs": [
        {
          "internalType": "address",
          "name": "sender",
          "type": "address"
        },
        {
          "internalType": "string[]",
          "name": "urls",
          "type": "string[]"
        },
        {
          "internalType": "bytes",
          "name": "callData",
          "type": "bytes"
        },
        {
          "internalType": "bytes4",
          "name": "callbackFunction",
          "type": "bytes4"
        },
        {
          "internalType": "bytes",
          "name": "extraData",
          "type": "bytes"
        }
      ],
      "name": "OffchainLookup",
      "type": "error"
    },
    {
      "inputs": [
        {
          "internalType": "uint256",
          "name": "offset",
          "type": "uint256"
        },
        {
          "internalType": "uint256",
          "name": "length",
          "type": "uint256"
        }
      ],
      "name": "OffsetOutOfBoundsError",
      "type": "error"
    },
    {
      "inputs": [
        {
          "internalType": "bytes",
          "name": "errorData",
          "type": "bytes"
        }
      ],
      "name": "ResolverError",
      "type": "error"
    },
    {
      "inputs": [
        {
          "internalType": "bytes",
          "name": "name",
          "type": "bytes"
        },
        {
          "internalType": "address",
          "name": "resolver",
          "type": "address"
        }
      ],
      "name": "ResolverNotContract",
      "type": "error"
    },
    {
      "inputs": [
        {
          "internalType": "bytes",
          "name": "name",
          "type": "bytes"
        }
      ],
      "name": "ResolverNotFound",
      "type": "error"
    },
    {
      "inputs": [
        {
          "internalType": "string",
          "name": "primary",
          "type": "string"
        },
        {
          "internalType": "bytes",
          "name": "primaryAddress",
          "type": "bytes"
        }
      ],
      "name": "ReverseAddressMismatch",
      "type": "error"
    },
    {
      "inputs": [
        {
          "internalType": "bytes4",
          "name": "selector",
          "type": "bytes4"
        }
      ],
      "name": "UnsupportedResolverProfile",
      "type": "error"
    },
    {
      "inputs": [],
      "name": "ROOT_REGISTRY",
      "outputs": [
        {
          "internalType": "contract IRegistry",
          "name": "",
          "type": "address"
        }
      ],
      "stateMutability": "view",
      "type": "function"
    },
    {
      "inputs": [],
      "name": "batchGatewayProvider",
      "outputs": [
        {
          "internalType": "contract IGatewayProvider",
          "name": "",
          "type": "address"
        }
      ],
      "stateMutability": "view",
      "type": "function"
    },
    {
      "inputs": [
        {
          "components": [
            {
              "components": [
                {
                  "internalType": "address",
                  "name": "target",
                  "type": "address"
                },
                {
                  "internalType": "bytes",
                  "name": "call",
                  "type": "bytes"
                },
                {
                  "internalType": "bytes",
                  "name": "data",
                  "type": "bytes"
                },
                {
                  "internalType": "uint256",
                  "name": "flags",
                  "type": "uint256"
                }
              ],
              "internalType": "struct CCIPBatcher.Lookup[]",
              "name": "lookups",
              "type": "tuple[]"
            },
            {
              "internalType": "string[]",
              "name": "gateways",
              "type": "string[]"
            }
          ],
          "internalType": "struct CCIPBatcher.Batch",
          "name": "batch",
          "type": "tuple"
        }
      ],
      "name": "ccipBatch",
      "outputs": [
        {
          "components": [
            {
              "components": [
                {
                  "internalType": "address",
                  "name": "target",
                  "type": "address"
                },
                {
                  "internalType": "bytes",
                  "name": "call",
                  "type": "bytes"
                },
                {
                  "internalType": "bytes",
                  "name": "data",
                  "type": "bytes"
                },
                {
                  "internalType": "uint256",
                  "name": "flags",
                  "type": "uint256"
                }
              ],
              "internalType": "struct CCIPBatcher.Lookup[]",
              "name": "lookups",
              "type": "tuple[]"
            },
            {
              "internalType": "string[]",
              "name": "gateways",
              "type": "string[]"
            }
          ],
          "internalType": "struct CCIPBatcher.Batch",
          "name": "",
          "type": "tuple"
        }
      ],
      "stateMutability": "view",
      "type": "function"
    },
    {
      "inputs": [
        {
          "internalType": "bytes",
          "name": "response",
          "type": "bytes"
        },
        {
          "internalType": "bytes",
          "name": "extraData",
          "type": "bytes"
        }
      ],
      "name": "ccipBatchCallback",
      "outputs": [
        {
          "components": [
            {
              "components": [
                {
                  "internalType": "address",
                  "name": "target",
                  "type": "address"
                },
                {
                  "internalType": "bytes",
                  "name": "call",
                  "type": "bytes"
                },
                {
                  "internalType": "bytes",
                  "name": "data",
                  "type": "bytes"
                },
                {
                  "internalType": "uint256",
                  "name": "flags",
                  "type": "uint256"
                }
              ],
              "internalType": "struct CCIPBatcher.Lookup[]",
              "name": "lookups",
              "type": "tuple[]"
            },
            {
              "internalType": "string[]",
              "name": "gateways",
              "type": "string[]"
            }
          ],
          "internalType": "struct CCIPBatcher.Batch",
          "name": "batch",
          "type": "tuple"
        }
      ],
      "stateMutability": "view",
      "type": "function"
    },
    {
      "inputs": [
        {
          "internalType": "bytes",
          "name": "response",
          "type": "bytes"
        },
        {
          "internalType": "bytes",
          "name": "extraData",
          "type": "bytes"
        }
      ],
      "name": "ccipReadCallback",
      "outputs": [],
      "stateMutability": "view",
      "type": "function"
    },
    {
      "inputs": [
        {
          "internalType": "contract IRegistry",
          "name": "registry",
          "type": "address"
        }
      ],
      "name": "findCanonicalName",
      "outputs": [
        {
          "internalType": "bytes",
          "name": "",
          "type": "bytes"
        }
      ],
      "stateMutability": "view",
      "type": "function"
    },
    {
      "inputs": [
        {
          "internalType": "bytes",
          "name": "name",
          "type": "bytes"
        }
      ],
      "name": "findCanonicalRegistry",
      "outputs": [
        {
          "internalType": "contract IRegistry",
          "name": "",
          "type": "address"
        }
      ],
      "stateMutability": "view",
      "type": "function"
    },
    {
      "inputs": [
        {
          "internalType": "bytes",
          "name": "name",
          "type": "bytes"
        }
      ],
      "name": "findExactRegistry",
      "outputs": [
        {
          "internalType": "contract IRegistry",
          "name": "",
          "type": "address"
        }
      ],
      "stateMutability": "view",
      "type": "function"
    },
    {
      "inputs": [
        {
          "internalType": "bytes",
          "name": "name",
          "type": "bytes"
        }
      ],
      "name": "findRegistries",
      "outputs": [
        {
          "internalType": "contract IRegistry[]",
          "name": "",
          "type": "address[]"
        }
      ],
      "stateMutability": "view",
      "type": "function"
    },
    {
      "inputs": [
        {
          "internalType": "bytes",
          "name": "name",
          "type": "bytes"
        }
      ],
      "name": "findResolver",
      "outputs": [
        {
          "internalType": "address",
          "name": "resolver",
          "type": "address"
        },
        {
          "internalType": "bytes32",
          "name": "node",
          "type": "bytes32"
        },
        {
          "internalType": "uint256",
          "name": "offset",
          "type": "uint256"
        }
      ],
      "stateMutability": "view",
      "type": "function"
    },
    {
      "inputs": [
        {
          "internalType": "bytes",
          "name": "name",
          "type": "bytes"
        }
      ],
      "name": "requireResolver",
      "outputs": [
        {
          "components": [
            {
              "internalType": "bytes",
              "name": "name",
              "type": "bytes"
            },
            {
              "internalType": "uint256",
              "name": "offset",
              "type": "uint256"
            },
            {
              "internalType": "bytes32",
              "name": "node",
              "type": "bytes32"
            },
            {
              "internalType": "address",
              "name": "resolver",
              "type": "address"
            },
            {
              "internalType": "bool",
              "name": "extended",
              "type": "bool"
            }
          ],
          "internalType": "struct AbstractUniversalResolver.ResolverInfo",
          "name": "info",
          "type": "tuple"
        }
      ],
      "stateMutability": "view",
      "type": "function"
    },
    {
      "inputs": [
        {
          "internalType": "bytes",
          "name": "name",
          "type": "bytes"
        },
        {
          "internalType": "bytes",
          "name": "data",
          "type": "bytes"
        }
      ],
      "name": "resolve",
      "outputs": [
        {
          "internalType": "bytes",
          "name": "",
          "type": "bytes"
        },
        {
          "internalType": "address",
          "name": "",
          "type": "address"
        }
      ],
      "stateMutability": "view",
      "type": "function"
    },
    {
      "inputs": [
        {
          "internalType": "bytes",
          "name": "response",
          "type": "bytes"
        },
        {
          "internalType": "bytes",
          "name": "extraData",
          "type": "bytes"
        }
      ],
      "name": "resolveBatchCallback",
      "outputs": [],
      "stateMutability": "view",
      "type": "function"
    },
    {
      "inputs": [
        {
          "internalType": "bytes",
          "name": "response",
          "type": "bytes"
        },
        {
          "internalType": "bytes",
          "name": "extraData",
          "type": "bytes"
        }
      ],
      "name": "resolveCallback",
      "outputs": [
        {
          "internalType": "bytes",
          "name": "",
          "type": "bytes"
        },
        {
          "internalType": "address",
          "name": "",
          "type": "address"
        }
      ],
      "stateMutability": "pure",
      "type": "function"
    },
    {
      "inputs": [
        {
          "internalType": "bytes",
          "name": "response",
          "type": "bytes"
        },
        {
          "internalType": "bytes",
          "name": "extraData",
          "type": "bytes"
        }
      ],
      "name": "resolveDirectCallback",
      "outputs": [],
      "stateMutability": "view",
      "type": "function"
    },
    {
      "inputs": [
        {
          "internalType": "bytes",
          "name": "response",
          "type": "bytes"
        },
        {
          "internalType": "bytes",
          "name": "",
          "type": "bytes"
        }
      ],
      "name": "resolveDirectCallbackError",
      "outputs": [],
      "stateMutability": "pure",
      "type": "function"
    },
    {
      "inputs": [
        {
          "internalType": "bytes",
          "name": "name",
          "type": "bytes"
        },
        {
          "internalType": "bytes",
          "name": "data",
          "type": "bytes"
        },
        {
          "internalType": "string[]",
          "name": "gateways",
          "type": "string[]"
        }
      ],
      "name": "resolveWithGateways",
      "outputs": [
        {
          "internalType": "bytes",
          "name": "result",
          "type": "bytes"
        },
        {
          "internalType": "address",
          "name": "resolver",
          "type": "address"
        }
      ],
      "stateMutability": "view",
      "type": "function"
    },
    {
      "inputs": [
        {
          "internalType": "address",
          "name": "resolver",
          "type": "address"
        },
        {
          "internalType": "bytes",
          "name": "name",
          "type": "bytes"
        },
        {
          "internalType": "bytes",
          "name": "data",
          "type": "bytes"
        },
        {
          "internalType": "string[]",
          "name": "gateways",
          "type": "string[]"
        }
      ],
      "name": "resolveWithResolver",
      "outputs": [
        {
          "internalType": "bytes",
          "name": "",
          "type": "bytes"
        }
      ],
      "stateMutability": "view",
      "type": "function"
    },
    {
      "inputs": [
        {
          "internalType": "bytes",
          "name": "lookupAddress",
          "type": "bytes"
        },
        {
          "internalType": "uint256",
          "name": "coinType",
          "type": "uint256"
        }
      ],
      "name": "reverse",
      "outputs": [
        {
          "internalType": "string",
          "name": "",
          "type": "string"
        },
        {
          "internalType": "address",
          "name": "",
          "type": "address"
        },
        {
          "internalType": "address",
          "name": "",
          "type": "address"
        }
      ],
      "stateMutability": "view",
      "type": "function"
    },
    {
      "inputs": [
        {
          "internalType": "bytes",
          "name": "response",
          "type": "bytes"
        },
        {
          "internalType": "bytes",
          "name": "extraData",
          "type": "bytes"
        }
      ],
      "name": "reverseAddressCallback",
      "outputs": [
        {
          "internalType": "string",
          "name": "primary",
          "type": "string"
        },
        {
          "internalType": "address",
          "name": "resolver",
          "type": "address"
        },
        {
          "internalType": "address",
          "name": "reverseResolver",
          "type": "address"
        }
      ],
      "stateMutability": "pure",
      "type": "function"
    },
    {
      "inputs": [
        {
          "internalType": "bytes",
          "name": "response",
          "type": "bytes"
        },
        {
          "internalType": "bytes",
          "name": "extraData",
          "type": "bytes"
        }
      ],
      "name": "reverseNameCallback",
      "outputs": [
        {
          "internalType": "string",
          "name": "primary",
          "type": "string"
        },
        {
          "internalType": "address",
          "name": "",
          "type": "address"
        },
        {
          "internalType": "address",
          "name": "",
          "type": "address"
        }
      ],
      "stateMutability": "view",
      "type": "function"
    },
    {
      "inputs": [
        {
          "internalType": "bytes",
          "name": "lookupAddress",
          "type": "bytes"
        },
        {
          "internalType": "uint256",
          "name": "coinType",
          "type": "uint256"
        },
        {
          "internalType": "string[]",
          "name": "gateways",
          "type": "string[]"
        }
      ],
      "name": "reverseWithGateways",
      "outputs": [
        {
          "internalType": "string",
          "name": "primary",
          "type": "string"
        },
        {
          "internalType": "address",
          "name": "resolver",
          "type": "address"
        },
        {
          "internalType": "address",
          "name": "reverseResolver",
          "type": "address"
        }
      ],
      "stateMutability": "view",
      "type": "function"
    },
    {
      "inputs": [
        {
          "internalType": "bytes4",
          "name": "interfaceId",
          "type": "bytes4"
        }
      ],
      "name": "supportsInterface",
      "outputs": [
        {
          "internalType": "bool",
          "name": "",
          "type": "bool"
        }
      ],
      "stateMutability": "view",
      "type": "function"
    }
  ],
  "contractName": "UniversalResolverV2",
  "sourceName": "src/universalResolver/UniversalResolverV2.sol",
  "bytecode": "0x60e060405234801561000f575f80fd5b506040516143fb3803806143fb83398101604081905261002e91610062565b61c3506080526001600160a01b0390811660a0521660c05261009a565b6001600160a01b038116811461005f575f80fd5b50565b5f8060408385031215610073575f80fd5b825161007e8161004b565b602084015190925061008f8161004b565b809150509250929050565b60805160a05160c0516143066100f55f395f81816103b5015281816104a301528181610afe01528181610f3f01528181610f79015261149101525f81816101b501528181610a680152610b2f01525f611e9101526143065ff3fe608060405234801561000f575f80fd5b5060043610610184575f3560e01c806394fbfa87116100dd578063b536af7611610088578063c92cc49a11610063578063c92cc49a146103b0578063ef46c0b8146103d7578063f272e2af146103ea575f80fd5b8063b536af761461036a578063b7d6ca641461037d578063c285238a14610390575f80fd5b8063a1cbcbaf116100b8578063a1cbcbaf1461030c578063b363cc7314610344578063b4a8580114610357575f80fd5b806394fbfa87146102c65780639f28e99d146102d9578063a1472844146102f9575f80fd5b80634a3e39941161013d5780635d78a217116101185780635d78a2171461027f57806383a64339146102925780639061b923146102a5575f80fd5b80634a3e39941461022a57806355391bb81461024a578063575de7501461025d575f80fd5b80633c6cbda81161016d5780633c6cbda8146101ef5780634878c6dd14610204578063491fc4f914610217575f80fd5b806301ffc9a71461018857806302cf2578146101b0575b5f80fd5b61019b610196366004612e82565b61040a565b60405190151581526020015b60405180910390f35b6101d77f000000000000000000000000000000000000000000000000000000000000000081565b6040516001600160a01b0390911681526020016101a7565b6102026101fd366004612edb565b610459565b005b6101d7610212366004612f42565b61049d565b610202610225366004612edb565b610504565b61023d610238366004613160565b610744565b6040516101a7919061322c565b61020261025836600461323e565b610878565b61027061026b366004612edb565b6108fb565b6040516101a7939291906132a2565b61027061028d3660046132d4565b610a5c565b61023d6102a036600461331c565b610af7565b6102b86102b3366004612edb565b610b23565b6040516101a7929190613337565b6102706102d4366004612edb565b610bbc565b6102ec6102e7366004613361565b610cc4565b6040516101a79190613521565b6102b86103073660046135ea565b610e85565b61031f61031a366004613677565b610f37565b604080516001600160a01b0390941684526020840192909252908201526060016101a7565b6101d7610352366004612f42565b610f73565b6102b8610365366004612edb565b610fd3565b6102ec610378366004612edb565b611029565b61027061038b3660046136a9565b611283565b6103a361039e366004613677565b6113a9565b6040516101a79190613717565b6101d77f000000000000000000000000000000000000000000000000000000000000000081565b6102026103e5366004613771565b611405565b6103fd6103f8366004612f42565b61148a565b6040516101a791906137d1565b5f7f6cd2d09b000000000000000000000000000000000000000000000000000000006001600160e01b03198316148061045357506301ffc9a760e01b6001600160e01b03198316145b92915050565b61049784848080601f0160208091040260200160405190810160405280939291908181526020018383808284375f920191909152506114eb92505050565b50505050565b5f6104fd7f000000000000000000000000000000000000000000000000000000000000000084848080601f0160208091040260200160405190810160405280939291908181526020018383808284375f920182905250925061154a915050565b9392505050565b5f61051184860186613361565b5190505f8080806105248688018861382a565b935093509350935060608315610634575f865167ffffffffffffffff81111561054f5761054f612f95565b60405190808252806020026020018201604052801561058257816020015b606081526020019060019003908161056d5790505b5090505f5b875181101561060b575f8882815181106105a3576105a361388f565b602002602001015190505f816040015190508880156105c757506060820151600e16155b156105e357808060200190518101906105e091906138f0565b90505b808484815181106105f6576105f661388f565b60209081029190910101525050600101610587565b508060405160200161061d9190613922565b6040516020818303038152906040529150506106e9565b5f865f815181106106475761064761388f565b602002602001015190508060400151915060048160600151165f1461066e57815160208301fd5b60608101516002161561068957610684826114eb565b6106ca565b81515f036106ca57806020015161069f90613984565b604051637b1c461b60e01b81526001600160e01b031990911660048201526024015b60405180910390fd5b85156106e757818060200190518101906106e491906138f0565b91505b505b610738308483856040516024016107019291906139b7565b60408051601f198184030181529190526020810180516001600160e01b03166001600160e01b031990931692909217909152611610565b50505050505050505050565b6040805160a08101825260608082525f60208301819052928201839052818101839052608082019290925286868080601f0160208091040260200160405190810160405280939291908181526020018383808284375f92019190915250505090825250604080516020601f89018190048102820181019092528781526107e39189908990819084018382808284375f9201829052509250611635915050565b60408201526001600160a01b038816606082015261080081611666565b61086d8186868080601f0160208091040260200160405190810160405280939291908181526020018383808284375f9201919091525050604080516001600160a01b038f16602082015289935063b4a8580160e01b9250015b60405160208183030381529060405261172e565b509695505050505050565b5f808080610888858701876139e4565b935093509350935086515f036108bd57604051637b1c461b60e01b81526001600160e01b0319841660048201526024016106c1565b83156108da57868060200190518101906108d791906138f0565b96505b6108f2308389846040516024016107019291906139b7565b50505050505050565b60605f808061090c85870187613a9a565b905061091a87890189613677565b935083515f03610943576060015160408051602081019091525f80825290945092509050610a52565b5f61095061039e86611a9a565b9050610a4f81603c8460200151146109ce5782604001518460200151604051602401610986929190918252602082015260400190565b60408051601f198184030181529190526020810180516001600160e01b03167ff1cb7e0600000000000000000000000000000000000000000000000000000000179052610a29565b82604001516040516024016109e591815260200190565b60408051601f198184030181529190526020810180516001600160e01b03167f3b3b57de000000000000000000000000000000000000000000000000000000001790525b84604001516394fbfa8760e01b868a876060015160405160200161085993929190613b23565b50505b9450945094915050565b60605f80610ae88686867f00000000000000000000000000000000000000000000000000000000000000006001600160a01b031663093a86d36040518163ffffffff1660e01b81526004015f60405180830381865afa158015610ac1573d5f803e3d5ffd5b505050506040513d5f823e601f3d908101601f1916820160405261038b9190810190613bdc565b92509250925093509350939050565b60606104537f000000000000000000000000000000000000000000000000000000000000000083611c58565b60605f610baf868686867f00000000000000000000000000000000000000000000000000000000000000006001600160a01b031663093a86d36040518163ffffffff1660e01b81526004015f60405180830381865afa158015610b88573d5f803e3d5ffd5b505050506040513d5f823e601f3d908101601f191682016040526103079190810190613bdc565b9150915094509492505050565b60605f80610bf26040518060800160405280606081526020015f8152602001606081526020015f6001600160a01b031681525090565b610bfe85870187613c0e565b60208301519196509450909150606090603b1901610c5c575f610c23898b018b61331c565b6040516bffffffffffffffffffffffff19606083901b166020820152909150603401604051602081830303815290604052915050610c6b565b610c68888a018a613677565b90505b8151610c779082611e27565b610cb15784816040517fef9c03ce0000000000000000000000000000000000000000000000000000000081526004016106c19291906139b7565b8160600151925050509450945094915050565b60408051808201909152606080825260208201525f5b825151811015610e77575f835f01518281518110610cfa57610cfa61388f565b6020026020010151905060408160600151165f14610d185750610e6f565b60608101516030165f03610dc2575f610d33825f0151611e4b565b610d3e576010610d41565b60205b9050825b855151811015610dbf57825f01516001600160a01b0316865f01518281518110610d7157610d7161388f565b60200260200101515f01516001600160a01b031603610db75781865f01518281518110610da057610da061388f565b602002602001015160600181815117915081815250505b600101610d45565b50505b5f60208260600151165f1490505f80610de48315855f01518660200151611e7d565b9150915081158015610e0e5750630556f18360e41b610e0282613984565b6001600160e01b031916145b15610e23576060840180516001179052610e63565b6060840180516040179052828015610e3a57508051155b610e4f5781610e4f5760608401805160021790525b80515f03610e635760608401805160081790525b60409093019290925250505b600101610cda565b50610e8182611f10565b5090565b60605f80610ec788888080601f0160208091040260200160405190810160405280939291908181526020018383808284375f920191909152506113a992505050565b9050610f2c8187878080601f0160208091040260200160405190810160405280939291908181526020018383808284375f920191909152505050506060840151604080516001600160a01b039092166020830152889163b4a8580160e01b9101610859565b509550959350505050565b5f805f610f657f0000000000000000000000000000000000000000000000000000000000000000855f6120fb565b919790965090945092505050565b5f6104fd7f000000000000000000000000000000000000000000000000000000000000000084848080601f0160208091040260200160405190810160405280939291908181526020018383808284375f9201919091525061226792505050565b60605f8585610fe48587018761331c565b82828080601f0160208091040260200160405190810160405280939291908181526020018383808284375f92019190915250929c939b50929950505050505050505050565b60408051808201909152606080825260208201525f8061104b86880188613c81565b9150915080518251146110715760405163252e18f560e11b815260040160405180910390fd5b61107d84860186613361565b92505f805b84515181101561124d575f855f015182815181106110a2576110a261388f565b6020026020010151905060408160600151165f03611244578351831015611238575f8484815181106110d6576110d661388f565b602002602001015190508584815181106110f2576110f261388f565b60200260200101511561110f576060820180516044179052611232565b5f61111d83604001516122b7565b90505f815f01516001600160a01b031682606001518484608001516040516024016111499291906139b7565b60408051601f198184030181529181526020820180516001600160e01b03166001600160e01b03199094169390931790925290516111879190613d4a565b5f60405180830381855afa9150503d805f81146111bf576040519150601f19603f3d011682016040523d82523d5f602084013e6111c4565b606091505b509350905080806111ee5750630556f18360e41b6111e184613984565b6001600160e01b03191614155b1561122f57606084018051604017905280158061120a57508251155b1561121b5760608401805160021790525b82515f0361122f5760608401805160081790525b50505b60408201525b61124183613d69565b92505b50600101611082565b508151811461126f5760405163252e18f560e11b815260040160405180910390fd5b61127884611f10565b505050949350505050565b60605f805f6112d361039e6112ce8a8a8080601f0160208091040260200160405190810160405280939291908181526020018383808284375f920191909152508c92506122fb915050565b611a9a565b905061139e8182604001516040516024016112f091815260200190565b60405160208183030381529060405263691f343160e01b6020820180516001600160e01b0383818316178352505050508763575de75060e01b60405180608001604052808e8e8080601f0160208091040260200160405190810160405280939291908181526020018383808284375f9201919091525050509082525060208082018e905260408083018e905260608a8101516001600160a01b03169301929092529051610859929101613d81565b509450945094915050565b6040805160a08101825260608082525f60208301819052928201839052810182905260808101919091526113dc82610f37565b602084015260408301526001600160a01b0316606082015281815261140081611666565b919050565b5f8180602001905181019061141a9190613da9565b9050611485815f0151826020015185846040015160405160240161143f9291906139b7565b60408051601f198184030181529190526020810180516001600160e01b03166001600160e01b0319909316929092179091526060840151608085015160a0860151612440565b505050565b60606104fd7f000000000000000000000000000000000000000000000000000000000000000084848080601f0160208091040260200160405190810160405280939291908181526020018383808284375f9201829052509250612603915050565b637b1c461b60e01b6114fc82613984565b6001600160e01b0319160361151357805160208201fd5b806040517f95c0c7520000000000000000000000000000000000000000000000000000000081526004016106c1919061322c565b50565b5f805f61155785856126b2565b90925090508161156b5785925050506104fd565b5f61157787878461154a565b90506001600160a01b03811615611606575f61159387876126df565b50604051631ad7b10b60e11b81529091506001600160a01b038316906335af6216906115c390849060040161322c565b602060405180830381865afa1580156115de573d5f803e3d5ffd5b505050506040513d601f19601f820116820180604052508101906116029190613e78565b9450505b5050509392505050565b61163182825f60e01b5f60e01b60405180602001604052805f815250612440565b5050565b5f61164083836126b2565b925090508015610453576104fd6116578484611635565b825f9182526020526040902090565b60608101516001600160a01b0316611694578051604051630ee413fd60e31b81526106c1919060040161322c565b6116a98160600151639061b92360e01b61275c565b156116b8576001608082015250565b6020810151156116de578051604051630ee413fd60e31b81526106c1919060040161322c565b80606001516001600160a01b03163b5f0361154757805160608201516040517f1e9535f20000000000000000000000000000000000000000000000000000000081526106c1929190600401613337565b5f7fac9650d80000000000000000000000000000000000000000000000000000000061175986613984565b6001600160e01b03191614905061177b866060015163582de3e760e01b61275c565b801561182257508015806118225750856080015180156118225750606086015160405163582de3e760e01b81527f96b62db80000000000000000000000000000000000000000000000000000000060048201526001600160a01b039091169063582de3e790602401602060405180830381865afa1580156117fe573d5f803e3d5ffd5b505050506040513d601f19601f820116820180604052508101906118229190613e93565b156118f8576118f88660600151876080015161183e578661187d565b8751604051611852919089906024016139b7565b60408051601f198184030181529190526020810180516001600160e01b0316639061b92360e01b1790525b60808901517f55391bb800000000000000000000000000000000000000000000000000000000907f3c6cbda800000000000000000000000000000000000000000000000000000000906118cf8b613984565b89896040516020016118e49493929190613eae565b604051602081830303815290604052612440565b60608115611932576119188660048089516119139190613eec565b6127e2565b80602001905181019061192b9190613eff565b905061197d565b60408051600180825281830190925290816020015b606081526020019060019003908161194757905050905085815f815181106119715761197161388f565b60200260200101819052505b866080015115611a14575f5b8151811015611a1257875f01518282815181106119a8576119a861388f565b60200260200101516040516024016119c19291906139b7565b60408051601f198184030181529190526020810180516001600160e01b0316639061b92360e01b17905282518390839081106119ff576119ff61388f565b6020908102919091010152600101611989565b505b6108f230306001600160a01b0316639f28e99d611a368b60600151868b612837565b604051602401611a469190613521565b604051602081830303815290604052915060e01b6020820180516001600160e01b03838183161783525050505063491fc4f960e01b5f60e01b8b60800151878a8a6040516020016118e49493929190613fa9565b80516060905f819003611ac257505060408051808201909152600181525f6020820152919050565b8060020167ffffffffffffffff811115611ade57611ade612f95565b6040519080825280601f01601f191660200182016040528015611b08576020820181803683370190505b509150611b1c60218301602085018361294c565b5f805f5b83811015611bd957858181518110611b3a57611b3a61388f565b01602001516001600160f81b031916601760f91b03611bd1578281039150815f1480611b66575060ff82115b15611b865785604051639a4c3e3b60e01b81526004016106c1919061322c565b8160f81b858481518110611b9c57611b9c61388f565b60200101907effffffffffffffffffffffffffffffffffffffffffffffffffffffffffffff191690815f1a9053508060010192505b600101611b20565b505080820382821480611bec575060ff81115b15611c0c5784604051639a4c3e3b60e01b81526004016106c1919061322c565b8060f81b848381518110611c2257611c2261388f565b60200101907effffffffffffffffffffffffffffffffffffffffffffffffffffffffffffff191690815f1a905350505050919050565b60606001600160a01b038216611c7c575060408051602081019091525f8152610453565b826001600160a01b0316826001600160a01b031603611cbe57805f604051602001611ca8929190613fdb565b6040516020818303038152906040529050610453565b5f80836001600160a01b03166380f760216040518163ffffffff1660e01b81526004015f60405180830381865afa158015611cfb573d5f803e3d5ffd5b505050506040513d5f823e601f3d908101601f19168201604052611d229190810190614002565b90925090506001600160a01b038216611d4d5760405180602001604052805f81525092505050610453565b604051631ad7b10b60e11b81525f906001600160a01b038416906335af621690611d7b90859060040161322c565b602060405180830381865afa158015611d96573d5f803e3d5ffd5b505050506040513d601f19601f82011682018060405250810190611dba9190613e78565b9050846001600160a01b0316816001600160a01b031614611dee5760405180602001604052805f8152509350505050610453565b83611df883612995565b83604051602001611e0b93929190614046565b6040516020818303038152906040529350829450505050611c7c565b5f815183511480156104fd5750508051602091820120825192909101919091201490565b5f306001600160a01b03831603611e6457506001919050565b6113885a5f805f808786fa50815a909103109392505050565b5f6060836001600160a01b031685611eb5577f0000000000000000000000000000000000000000000000000000000000000000611eb7565b5a5b84604051611ec59190613d4a565b5f604051808303818686fa925050503d805f8114611efe576040519150601f19603f3d011682016040523d82523d5f602084013e611f03565b606091505b5090969095509350505050565b8051515f9067ffffffffffffffff811115611f2d57611f2d612f95565b604051908082528060200260200182016040528015611f8a57816020015b611f7760405180606001604052805f6001600160a01b0316815260200160608152602001606081525090565b815260200190600190039081611f4b5790505b5090505f805b83515181101561203b575f845f01518281518110611fb057611fb061388f565b6020026020010151905060408160600151165f03612032575f611fd682604001516122b7565b90506040518060600160405280825f01516001600160a01b0316815260200182602001518152602001826040015181525085858061201390613d69565b9650815181106120255761202561388f565b6020026020010181905250505b50600101611f90565b508015611485578082523083602001518360405160240161205c919061406e565b60408051601f19818403018152918152602080830180516001600160e01b03167fa780bab60000000000000000000000000000000000000000000000000000000017905290517fb536af7600000000000000000000000000000000000000000000000000000000916120d091899101613521565b60408051601f1981840301815290829052630556f18360e41b82526106c19594939291600401614108565b5f805f805f8061210b88886126b2565b90925090508161212957508794505f935083925085915061225e9050565b6121348989836120fb565b929850909650945092506001600160a01b0386161561224f575f61215889896126df565b5090505f876001600160a01b031663e4ae7d77836040518263ffffffff1660e01b8152600401612188919061322c565b602060405180830381865afa1580156121a3573d5f803e3d5ffd5b505050506040513d601f19601f820116820180604052508101906121c79190613e78565b90506001600160a01b038116156121df578096508894505b604051631ad7b10b60e11b81526001600160a01b038916906335af62169061220b90859060040161322c565b602060405180830381865afa158015612226573d5f803e3d5ffd5b505050506040513d601f19601f8201168201806040525081019061224a9190613e78565b975050505b505f9283526020526040909120905b93509350935093565b5f8061227484845f61154a565b90506001600160a01b038116158015906122a357508251602084012061229a8583611c58565b80519060200120145b6122ad575f6122af565b805b949350505050565b6040805160a0810182525f8082526060602083018190529282018390528282015260808101919091526104536122f68360048086516119139190613eec565b612a0f565b606082515f03612337576040517f7138356f00000000000000000000000000000000000000000000000000000000815260040160405180910390fd5b61234083612a7a565b601760f91b603c84146123a3576380000000841461236857612363846001612ae3565b6123da565b6040518060400160405280600781526020017f64656661756c74000000000000000000000000000000000000000000000000008152506123da565b6040518060400160405280600481526020017f61646472000000000000000000000000000000000000000000000000000000008152505b601760f91b6040518060400160405280600781526020017f726576657273650000000000000000000000000000000000000000000000000081525060405160200161242995949392919061416b565b604051602081830303815290604052905092915050565b5f8061245561244e88611e4b565b8888611e7d565b915091508115801561247f5750630556f18360e41b61247382613984565b6001600160e01b031916145b1561252d575f61248e826122b7565b9050876001600160a01b0316815f01516001600160a01b03160361252b57308160200151826040015163ef46c0b860e01b6040518060c001604052808d6001600160a01b0316815260200186606001516001600160e01b0319168152602001866080015181526020018b6001600160e01b03191681526020018a6001600160e01b0319168152602001898152506040516020016120d091906141a5565b505b5f82612539578461253b565b855b90506001600160e01b03198116156125ed57306001600160a01b031681838660405160240161256b9291906139b7565b60408051601f198184030181529181526020820180516001600160e01b03166001600160e01b03199094169390931790925290516125a99190613d4a565b5f60405180830381855afa9150503d805f81146125e1576040519150601f19603f3d011682016040523d82523d5f602084013e6125e6565b606091505b5090935091505b82156125fb57815160208301f35b815160208301fd5b606061260f8383612bb5565b61261a906001614221565b67ffffffffffffffff81111561263257612632612f95565b60405190808252806020026020018201604052801561265b578160200160208202803683370190505b50905083816001835161266e9190613eec565b8151811061267e5761267e61388f565b60200260200101906001600160a01b031690816001600160a01b0316815250506126aa8383835f612be6565b509392505050565b5f805f6126bf8585612d01565b9250905060ff8116156126d757806021858701012092505b509250929050565b60605f806126ed8585612d01565b925090505f60ff821667ffffffffffffffff81111561270e5761270e612f95565b6040519080825280601f01601f191660200182016040528015612738576020820181803683370190505b5090506127516020820160218888010160ff851661294c565b959194509092505050565b604080516001600160e01b03198316602480830191909152825180830390910181526044909101909152602080820180516001600160e01b03166301ffc9a760e01b17815282515f9392849283928392918391908a617530fa92503d91505f5190508280156127cc575060208210155b80156127d757505f81115b979650505050505050565b60608167ffffffffffffffff8111156127fd576127fd612f95565b6040519080825280601f01601f191660200182016040528015612827576020820181803683370190505b5090506104fd8484835f86612d85565b60408051808201909152606080825260208201525f835167ffffffffffffffff81111561286657612866612f95565b6040519080825280602002602001820160405280156128c957816020015b6128b660405180608001604052805f6001600160a01b0316815260200160608152602001606081526020015f81525090565b8152602001906001900390816128845790505b5090505f5b845181101561292f575f8282815181106128ea576128ea61388f565b60209081029190910101516001600160a01b038816815286519091508690839081106129185761291861388f565b6020908102919091018101519101526001016128ce565b506040805180820190915290815260208101929092525092915050565b5b601f81111561296d578151835260209283019290910190601f190161294d565b80156114855790518251600160209390930360031b9290921b5f190180199091169116179052565b80515f908082036129d2576040517fbf9a274000000000000000000000000000000000000000000000000000000000815260040160405180910390fd5b60ff81111561045357826040517fdab6c73c0000000000000000000000000000000000000000000000000000000081526004016106c1919061322c565b6040805160a0810182525f80825260606020830181905292820183905282820152608081019190915281806020019051810190612a4c9190614234565b60808601526001600160e01b0319166060850152604084015260208301526001600160a01b03168152919050565b805160609060011b8067ffffffffffffffff811115612a9b57612a9b612f95565b6040519080825280601f01601f191660200182016040528015612ac5576020820181803683370190505b5091506020838101908301612adb828285612dc2565b505050919050565b6060825f60805b60088110612b1b576001811b831015612b0e57612b078183614221565b9150612b13565b91821c915b60011c612aea565b50838015612b295750601082105b15612b3c57612b39600482614221565b90505b5f612b4c600283901c6040613eec565b90508067ffffffffffffffff811115612b6757612b67612f95565b6040519080825280601f01601f191660200182016040528015612b91576020820181803683370190505b5093505f86831b5f52602085019050612bab5f8284612dc2565b5050505092915050565b5f805b612bc28484612d01565b9350905060ff811615612bdf57612bd882613d69565b9150612bb8565b5092915050565b5f805f612bf387876126df565b9150915081515f03612c2f578460018651612c0e9190613eec565b81518110612c1e57612c1e61388f565b6020026020010151925050506122af565b612c45878287612c40886001614221565b612be6565b92506001600160a01b03831615612cf757604051631ad7b10b60e11b81526001600160a01b038416906335af621690612c8290859060040161322c565b602060405180830381865afa158015612c9d573d5f803e3d5ffd5b505050506040513d601f19601f82011682018060405250810190612cc19190613e78565b925082858581518110612cd657612cd661388f565b60200260200101906001600160a01b031690816001600160a01b0316815250505b5050949350505050565b5f8083518310612d26578360405163ba4adc2360e01b81526004016106c1919061322c565b838381518110612d3857612d3861388f565b016020015160f81c91505081810160010181612d58578351811415612d5e565b83518110155b15612d7e578360405163ba4adc2360e01b81526004016106c1919061322c565b9250929050565b612d9885612d938387614221565b612e25565b612da683612d938385614221565b612dbb8260208501018560208801018361294c565b5050505050565b8181015b808310156104975783516101005b8285108015612de257505f81115b15612e185760031901600f82821c16600a8110612e025780605701612e07565b806030015b905080865350600190940193612dd4565b5050602084019350612dc6565b81518111156116315781516040517f8a3c1cfb0000000000000000000000000000000000000000000000000000000081526106c1918391600401918252602082015260400190565b6001600160e01b031981168114611547575f80fd5b5f60208284031215612e92575f80fd5b81356122ad81612e6d565b5f8083601f840112612ead575f80fd5b50813567ffffffffffffffff811115612ec4575f80fd5b602083019150836020828501011115612d7e575f80fd5b5f805f8060408587031215612eee575f80fd5b843567ffffffffffffffff80821115612f05575f80fd5b612f1188838901612e9d565b90965094506020870135915080821115612f29575f80fd5b50612f3687828801612e9d565b95989497509550505050565b5f8060208385031215612f53575f80fd5b823567ffffffffffffffff811115612f69575f80fd5b612f7585828601612e9d565b90969095509350505050565b6001600160a01b0381168114611547575f80fd5b634e487b7160e01b5f52604160045260245ffd5b6040805190810167ffffffffffffffff81118282101715612fcc57612fcc612f95565b60405290565b6040516080810167ffffffffffffffff81118282101715612fcc57612fcc612f95565b60405160c0810167ffffffffffffffff81118282101715612fcc57612fcc612f95565b604051601f8201601f1916810167ffffffffffffffff8111828210171561304157613041612f95565b604052919050565b5f67ffffffffffffffff82111561306257613062612f95565b5060051b60200190565b5f67ffffffffffffffff82111561308557613085612f95565b50601f01601f191660200190565b5f82601f8301126130a2575f80fd5b81356130b56130b08261306c565b613018565b8181528460208386010111156130c9575f80fd5b816020850160208301375f918101602001919091529392505050565b5f82601f8301126130f4575f80fd5b813560206131046130b083613049565b82815260059290921b84018101918181019086841115613122575f80fd5b8286015b8481101561086d57803567ffffffffffffffff811115613144575f80fd5b6131528986838b0101613093565b845250918301918301613126565b5f805f805f8060808789031215613175575f80fd5b863561318081612f81565b9550602087013567ffffffffffffffff8082111561319c575f80fd5b6131a88a838b01612e9d565b909750955060408901359150808211156131c0575f80fd5b6131cc8a838b01612e9d565b909550935060608901359150808211156131e4575f80fd5b506131f189828a016130e5565b9150509295509295509295565b5f81518084528060208401602086015e5f602082860101526020601f19601f83011685010191505092915050565b602081525f6104fd60208301846131fe565b5f805f60408486031215613250575f80fd5b833567ffffffffffffffff80821115613267575f80fd5b61327387838801613093565b94506020860135915080821115613288575f80fd5b5061329586828701612e9d565b9497909650939450505050565b606081525f6132b460608301866131fe565b6001600160a01b0394851660208401529290931660409091015292915050565b5f805f604084860312156132e6575f80fd5b833567ffffffffffffffff8111156132fc575f80fd5b61330886828701612e9d565b909790965060209590950135949350505050565b5f6020828403121561332c575f80fd5b81356122ad81612f81565b604081525f61334960408301856131fe565b90506001600160a01b03831660208301529392505050565b5f6020808385031215613372575f80fd5b823567ffffffffffffffff80821115613389575f80fd5b908401906040828703121561339c575f80fd5b6133a4612fa9565b8235828111156133b2575f80fd5b8301601f810188136133c2575f80fd5b80356133d06130b082613049565b81815260059190911b8201860190868101908a8311156133ee575f80fd5b8784015b8381101561349657803587811115613408575f80fd5b85016080818e03601f1901121561341d575f80fd5b613425612fd2565b8a82013561343281612f81565b8152604082013589811115613445575f80fd5b6134538f8d83860101613093565b8c83015250606082013589811115613469575f80fd5b6134778f8d83860101613093565b60408301525060809190910135606082015283529188019188016133f2565b50845250505082840135828111156134ac575f80fd5b6134b8888286016130e5565b948201949094529695505050505050565b5f8282518085526020808601955060208260051b840101602086015f5b8481101561351457601f198684030189526135028383516131fe565b988401989250908301906001016134e6565b5090979650505050505050565b5f602080835260608084018551604080858801528282518085526080945060808901915060808160051b8a010187850194505f5b828110156135bf57607f198b830301845285516001600160a01b03815116835289810151888b85015261358a898501826131fe565b905086820151848203888601526135a182826131fe565b928b0151948b01949094525095890195938901939150600101613555565b50968a0151898803601f190160408b0152966135db81896134c9565b9b9a5050505050505050505050565b5f805f805f606086880312156135fe575f80fd5b853567ffffffffffffffff80821115613615575f80fd5b61362189838a01612e9d565b90975095506020880135915080821115613639575f80fd5b61364589838a01612e9d565b9095509350604088013591508082111561365d575f80fd5b5061366a888289016130e5565b9150509295509295909350565b5f60208284031215613687575f80fd5b813567ffffffffffffffff81111561369d575f80fd5b6122af84828501613093565b5f805f80606085870312156136bc575f80fd5b843567ffffffffffffffff808211156136d3575f80fd5b6136df88838901612e9d565b90965094506020870135935060408701359150808211156136fe575f80fd5b5061370b878288016130e5565b91505092959194509250565b602081525f825160a0602084015261373260c08401826131fe565b905060208401516040840152604084015160608401526001600160a01b0360608501511660808401526080840151151560a08401528091505092915050565b5f8060408385031215613782575f80fd5b823567ffffffffffffffff80821115613799575f80fd5b6137a586838701613093565b935060208501359150808211156137ba575f80fd5b506137c785828601613093565b9150509250929050565b602080825282518282018190525f9190848201906040850190845b818110156138115783516001600160a01b0316835292840192918401916001016137ec565b50909695505050505050565b8015158114611547575f80fd5b5f805f806080858703121561383d575f80fd5b84356138488161381d565b935060208501356138588161381d565b9250604085013561386881612e6d565b9150606085013567ffffffffffffffff811115613883575f80fd5b61370b87828801613093565b634e487b7160e01b5f52603260045260245ffd5b5f82601f8301126138b2575f80fd5b81516138c06130b08261306c565b8181528460208386010111156138d4575f80fd5b8160208501602083015e5f918101602001919091529392505050565b5f60208284031215613900575f80fd5b815167ffffffffffffffff811115613916575f80fd5b6122af848285016138a3565b5f60208083016020845280855180835260408601915060408160051b8701019250602087015f5b8281101561397757603f198886030184526139658583516131fe565b94509285019290850190600101613949565b5092979650505050505050565b5f815160208301516001600160e01b031980821693506004831015612adb5760049290920360031b82901b161692915050565b604081525f6139c960408301856131fe565b82810360208401526139db81856131fe565b95945050505050565b5f805f80608085870312156139f7575f80fd5b8435613a028161381d565b9350602085013561385881612e6d565b5f60808284031215613a22575f80fd5b613a2a612fd2565b9050813567ffffffffffffffff80821115613a43575f80fd5b613a4f85838601613093565b8352602084013560208401526040840135915080821115613a6e575f80fd5b50613a7b848285016130e5565b6040830152506060820135613a8f81612f81565b606082015292915050565b5f60208284031215613aaa575f80fd5b813567ffffffffffffffff811115613ac0575f80fd5b6122af84828501613a12565b5f815160808452613ae060808501826131fe565b90506020830151602085015260408301518482036040860152613b0382826134c9565b9150506001600160a01b0360608401511660608501528091505092915050565b606081525f613b356060830186613acc565b8281036020840152613b4781866131fe565b9150506001600160a01b0383166040830152949350505050565b5f82601f830112613b70575f80fd5b81516020613b806130b083613049565b82815260059290921b84018101918181019086841115613b9e575f80fd5b8286015b8481101561086d57805167ffffffffffffffff811115613bc0575f80fd5b613bce8986838b01016138a3565b845250918301918301613ba2565b5f60208284031215613bec575f80fd5b815167ffffffffffffffff811115613c02575f80fd5b6122af84828501613b61565b5f805f60608486031215613c20575f80fd5b833567ffffffffffffffff80821115613c37575f80fd5b613c4387838801613a12565b94506020860135915080821115613c58575f80fd5b50613c6586828701613093565b9250506040840135613c7681612f81565b809150509250925092565b5f8060408385031215613c92575f80fd5b823567ffffffffffffffff80821115613ca9575f80fd5b818501915085601f830112613cbc575f80fd5b81356020613ccc6130b083613049565b82815260059290921b84018101918181019089841115613cea575f80fd5b948201945b83861015613d11578535613d028161381d565b82529482019490820190613cef565b96505086013592505080821115613d26575f80fd5b506137c7858286016130e5565b5f81518060208401855e5f93019283525090919050565b5f6104fd8284613d33565b634e487b7160e01b5f52601160045260245ffd5b5f60018201613d7a57613d7a613d55565b5060010190565b602081525f6104fd6020830184613acc565b805161140081612f81565b805161140081612e6d565b5f60208284031215613db9575f80fd5b815167ffffffffffffffff80821115613dd0575f80fd5b9083019060c08286031215613de3575f80fd5b613deb612ff5565b613df483613d93565b8152613e0260208401613d9e565b6020820152604083015182811115613e18575f80fd5b613e24878286016138a3565b604083015250613e3660608401613d9e565b6060820152613e4760808401613d9e565b608082015260a083015182811115613e5d575f80fd5b613e69878286016138a3565b60a08301525095945050505050565b5f60208284031215613e88575f80fd5b81516122ad81612f81565b5f60208284031215613ea3575f80fd5b81516122ad8161381d565b84151581525f6001600160e01b0319808616602084015280851660408401525060806060830152613ee260808301846131fe565b9695505050505050565b8181038181111561045357610453613d55565b5f6020808385031215613f10575f80fd5b825167ffffffffffffffff80821115613f27575f80fd5b818501915085601f830112613f3a575f80fd5b8151613f486130b082613049565b81815260059190911b83018401908481019088831115613f66575f80fd5b8585015b83811015613f9c57805185811115613f80575f80fd5b613f8e8b89838a01016138a3565b845250918601918601613f6a565b5098975050505050505050565b841515815283151560208201526001600160e01b031983166040820152608060608201525f613ee260808301846131fe565b5f613fe68285613d33565b60f89390931b6001600160f81b03191683525050600101919050565b5f8060408385031215614013575f80fd5b825161401e81612f81565b602084015190925067ffffffffffffffff81111561403a575f80fd5b6137c7858286016138a3565b5f6140518286613d33565b6001600160f81b03198560f81b168152613ee26001820185613d33565b5f60208083018184528085518083526040925060408601915060408160051b8701018488015f5b838110156140fa57603f19898403018552815160606001600160a01b03825116855288820151818a8701526140cc828701826134c9565b915050878201519150848103888601526140e681836131fe565b968901969450505090860190600101614095565b509098975050505050505050565b6001600160a01b038616815260a060208201525f61412960a08301876134c9565b828103604084015261413b81876131fe565b90506001600160e01b031985166060840152828103608084015261415f81856131fe565b98975050505050505050565b5f6141768288613d33565b6001600160f81b031980881682526141916001830188613d33565b9086168152905061415f6001820185613d33565b602081526001600160a01b0382511660208201525f60208301516001600160e01b031980821660408501526040850151915060c060608501526141eb60e08501836131fe565b91508060608601511660808501528060808601511660a08501525060a0840151601f198483030160c08501526139db82826131fe565b8082018082111561045357610453613d55565b5f805f805f60a08688031215614248575f80fd5b855161425381612f81565b602087015190955067ffffffffffffffff80821115614270575f80fd5b61427c89838a01613b61565b95506040880151915080821115614291575f80fd5b61429d89838a016138a3565b9450606088015191506142af82612e6d565b6080880151919350808211156142c3575f80fd5b5061366a888289016138a356fea26469706673582212201ca500e5a27a94d7b74a862f0d909adbd595f7c62311af9797923d242b7d596164736f6c63430008190033",
  "linkReferences": {},
  "deployedLinkReferences": {},
  "immutableReferences": {
    "1090": [
      {
        "length": 32,
        "start": 7825
      }
    ],
    "17651": [
      {
        "length": 32,
        "start": 437
      },
      {
        "length": 32,
        "start": 2664
      },
      {
        "length": 32,
        "start": 2863
      }
    ],
    "79213": [
      {
        "length": 32,
        "start": 949
      },
      {
        "length": 32,
        "start": 1187
      },
      {
        "length": 32,
        "start": 2814
      },
      {
        "length": 32,
        "start": 3903
      },
      {
        "length": 32,
        "start": 3961
      },
      {
        "length": 32,
        "start": 5265
      }
    ]
  },
  "inputSourceName": "project/src/universalResolver/UniversalResolverV2.sol",
  "devdoc": {
    "errors": {
      "DNSDecodingFailed(bytes)": [
        {
          "details": "The DNS-encoded name is malformed.      Error selector: `0xba4adc23`"
        }
      ],
      "DNSEncodingFailed(string)": [
        {
          "details": "A label of the ENS name has an invalid size.      Error selector: `0x9a4c3e3b`"
        }
      ],
      "EmptyAddress()": [
        {
          "details": "The supplied address was `0x`.      Error selector: `0x7138356f`"
        }
      ],
      "HttpError(uint16,string)": [
        {
          "details": "Error selector: `0x01800152`"
        }
      ],
      "InvalidBatchGatewayResponse()": [
        {
          "details": "Error selector: `0x4a5c31ea`"
        }
      ],
      "LabelIsEmpty()": [
        {
          "details": "The label was empty.      Error selector: `0xbf9a2740`"
        }
      ],
      "LabelIsTooLong(string)": [
        {
          "details": "The label was more than 255 bytes.      Error selector: `0xdab6c73c`"
        }
      ],
      "OffchainLookup(address,string[],bytes,bytes4,bytes)": [
        {
          "details": "https://eips.ethereum.org/EIPS/eip-3668 Error selector: `0x556f1830`"
        }
      ],
      "OffsetOutOfBoundsError(uint256,uint256)": [
        {
          "details": "`offset` was beyond `length`.       Error selector: `0x8a3c1cfb`"
        }
      ],
      "ResolverError(bytes)": [
        {
          "details": "Error selector: `0x95c0c752`"
        }
      ],
      "ResolverNotContract(bytes,address)": [
        {
          "details": "Error selector: `0x1e9535f2`"
        }
      ],
      "ResolverNotFound(bytes)": [
        {
          "details": "Error selector: `0x77209fe8`"
        }
      ],
      "ReverseAddressMismatch(string,bytes)": [
        {
          "details": "Error selector: `0xef9c03ce`"
        }
      ],
      "UnsupportedResolverProfile(bytes4)": [
        {
          "details": "Error selector: `0x7b1c461b`"
        }
      ]
    },
    "kind": "dev",
    "methods": {
      "ccipBatch(((address,bytes,bytes,uint256)[],string[]))": {
        "details": "Use `ccipRead()` to call this function with a batch.      The callback response will be `abi.encode(batch)`."
      },
      "ccipBatchCallback(bytes,bytes)": {
        "details": "CCIP-Read callback for `ccipBatch()`.      Updates `batch` using the batch gateway response. Reverts again if not \"done\".",
        "params": {
          "extraData": "The contextual data passed from `ccipBatch()`.",
          "response": "The response from the batch gateway."
        },
        "returns": {
          "batch": "The batch where every lookup is \"done\"."
        }
      },
      "ccipReadCallback(bytes,bytes)": {
        "details": "CCIP-Read callback for `ccipRead()`.The return type of this function is polymorphic depending on the caller.",
        "params": {
          "extraData": "The contextual data passed from `ccipRead()`.",
          "response": "The response from offchain."
        }
      },
      "constructor": {
        "params": {
          "batchGatewayProvider": "The batch gateway provider.",
          "root": "The root registry."
        }
      },
      "findCanonicalName(address)": {
        "params": {
          "registry": "The registry to name."
        },
        "returns": {
          "_0": "The DNS-encoded name or empty if not canonical."
        }
      },
      "findCanonicalRegistry(bytes)": {
        "params": {
          "name": "The DNS-encoded name."
        },
        "returns": {
          "_0": "The canonical registry or null if not canonical."
        }
      },
      "findExactRegistry(bytes)": {
        "params": {
          "name": "The DNS-encoded name."
        },
        "returns": {
          "_0": "The canonical registry or null if not found."
        }
      },
      "findRegistries(bytes)": {
        "params": {
          "name": "The DNS-encoded name."
        },
        "returns": {
          "_0": "Array of registries in label-order."
        }
      },
      "findResolver(bytes)": {
        "params": {
          "name": "The name to search."
        },
        "returns": {
          "node": "The namehash of `name`.",
          "offset": "The offset into `name` corresponding to `resolver`.",
          "resolver": "The found resolver, or null if not found."
        }
      },
      "requireResolver(bytes)": {
        "details": "Returns a valid resolver for `name` or reverts.",
        "params": {
          "name": "The name to search."
        },
        "returns": {
          "info": "The resolver information."
        }
      },
      "resolveBatchCallback(bytes,bytes)": {
        "details": "CCIP-Read callback for `_callResolver()` from calling the batch gateway successfully."
      },
      "resolveCallback(bytes,bytes)": {
        "details": "CCIP-Read callback for `resolveWithGateways()`.",
        "params": {
          "extraData": "The contextual data passed from `resolveWith*()`.",
          "response": "The response from the resolver."
        }
      },
      "resolveDirectCallback(bytes,bytes)": {
        "details": "CCIP-Read callback for `_callResolver()` from calling the resolver successfully."
      },
      "resolveDirectCallbackError(bytes,bytes)": {
        "details": "CCIP-Read callback for `_callResolver()` from calling the resolver unsuccessfully."
      },
      "resolveWithGateways(bytes,bytes,string[])": {
        "details": "This function executes over multiple steps.",
        "params": {
          "data": "The ABI-encoded resolver calldata.",
          "gateways": "The list of batch gateway URLs to use.",
          "name": "The DNS-encoded name to resolve."
        },
        "returns": {
          "resolver": "The resolver that was used to resolve the name.",
          "result": "The ABI-encoded response for the calldata."
        }
      },
      "reverseAddressCallback(bytes,bytes)": {
        "details": "CCIP-Read callback for `reverseNameCallback()`.      Reverts `ReverseAddressMismatch`.",
        "params": {
          "extraData": "The contextual data passed from `reverseNameCallback()`.",
          "response": "The abi-encoded `addr()` response from the forward resolver."
        }
      },
      "reverseNameCallback(bytes,bytes)": {
        "details": "CCIP-Read callback for `reverseWithGateways()`.",
        "params": {
          "extraData": "The contextual data passed from `reverseWithGateways()`.",
          "response": "The abi-encoded `name()` response from the reverse resolver."
        }
      },
      "reverseWithGateways(bytes,uint256,string[])": {
        "details": "This function executes over multiple steps.",
        "params": {
          "coinType": "The coin type.",
          "gateways": "The list of batch gateway URLs to use.",
          "lookupAddress": "The input address."
        },
        "returns": {
          "primary": "The resolved primary name.",
          "resolver": "The resolver address for primary name.",
          "reverseResolver": "The resolver address for the reverse name."
        }
      },
      "supportsInterface(bytes4)": {
        "details": "See {IERC165-supportsInterface}."
      }
    },
    "version": 1
  },
  "evm": {
    "gasEstimates": {
      "creation": {
        "codeDepositCost": "3431600",
        "executionCost": "infinite",
        "totalCost": "infinite"
      },
      "external": {
        "ROOT_REGISTRY()": "infinite",
        "batchGatewayProvider()": "infinite",
        "ccipBatch(((address,bytes,bytes,uint256)[],string[]))": "infinite",
        "ccipBatchCallback(bytes,bytes)": "infinite",
        "ccipReadCallback(bytes,bytes)": "infinite",
        "findCanonicalName(address)": "infinite",
        "findCanonicalRegistry(bytes)": "infinite",
        "findExactRegistry(bytes)": "infinite",
        "findRegistries(bytes)": "infinite",
        "findResolver(bytes)": "infinite",
        "requireResolver(bytes)": "infinite",
        "resolve(bytes,bytes)": "infinite",
        "resolveBatchCallback(bytes,bytes)": "infinite",
        "resolveCallback(bytes,bytes)": "infinite",
        "resolveDirectCallback(bytes,bytes)": "infinite",
        "resolveDirectCallbackError(bytes,bytes)": "infinite",
        "resolveWithGateways(bytes,bytes,string[])": "infinite",
        "resolveWithResolver(address,bytes,bytes,string[])": "infinite",
        "reverse(bytes,uint256)": "infinite",
        "reverseAddressCallback(bytes,bytes)": "infinite",
        "reverseNameCallback(bytes,bytes)": "infinite",
        "reverseWithGateways(bytes,uint256,string[])": "infinite",
        "supportsInterface(bytes4)": "499"
      }
    }
  },
  "storageLayout": {
    "storage": [],
    "types": null
  },
  "userdoc": {
    "errors": {
      "HttpError(uint16,string)": [
        {
          "notice": "An HTTP error occurred on a resolving gateway."
        }
      ],
      "InvalidBatchGatewayResponse()": [
        {
          "notice": "The batch gateway supplied an incorrect number of responses."
        }
      ],
      "ResolverError(bytes)": [
        {
          "notice": "The resolver returned an error."
        }
      ],
      "ResolverNotContract(bytes,address)": [
        {
          "notice": "The resolver is not a contract."
        }
      ],
      "ResolverNotFound(bytes)": [
        {
          "notice": "A resolver could not be found for the supplied name."
        }
      ],
      "ReverseAddressMismatch(string,bytes)": [
        {
          "notice": "The resolved address from reverse resolution does not match the supplied address."
        }
      ],
      "UnsupportedResolverProfile(bytes4)": [
        {
          "notice": "The resolver did not respond."
        }
      ]
    },
    "kind": "user",
    "methods": {
      "ROOT_REGISTRY()": {
        "notice": "The ENSv2 root registry."
      },
      "constructor": {
        "notice": "Initializes the UniversalResolverV2 with the root registry and batch gateway provider."
      },
      "findCanonicalName(address)": {
        "notice": "Construct the canonical name for `registry`."
      },
      "findCanonicalRegistry(bytes)": {
        "notice": "Find the canonical registry for `name`."
      },
      "findExactRegistry(bytes)": {
        "notice": "Find the exact registry for `name`."
      },
      "findRegistries(bytes)": {
        "notice": "Find all registries in the ancestry of `name`. * `findRegistries(\"\") = [<root>]` * `findRegistries(\"eth\") = [<eth>, <root>]` * `findRegistries(\"nick.eth\") = [<nick>, <eth>, <root>]` * `findRegistries(\"sub.nick.eth\") = [null, <nick>, <eth>, <root>]`"
      },
      "findResolver(bytes)": {
        "notice": "Find the resolver address for `name`.         Does not perform any validity checks on the resolver."
      },
      "resolve(bytes,bytes)": {
        "notice": "Same as `resolveWithGateways()` but uses default batch gateways."
      },
      "resolveWithGateways(bytes,bytes,string[])": {
        "notice": "Performs ENS forward resolution for the supplied name and data.         Caller should enable EIP-3668."
      },
      "resolveWithResolver(address,bytes,bytes,string[])": {
        "notice": "Same as `resolveWithGateways()` but uses the supplied resolver."
      },
      "reverse(bytes,uint256)": {
        "notice": "Same as `reverseWithGateways()` but uses default batch gateways."
      },
      "reverseWithGateways(bytes,uint256,string[])": {
        "notice": "Performs ENS reverse resolution for the supplied address and coin type.         Caller should enable EIP-3668."
      }
    },
    "notice": "ENS Universal Resolver that traverses the namechain registry hierarchy to locate         resolvers and registries for any DNS-encoded name.",
    "version": 1
  },
  "argsData": "0x0000000000000000000000003a3e15a5d27ff6f05c844313312f2e72096d3ed3000000000000000000000000dd618e84bfdbe3f8c4bf70ad000493977d824ab9",
  "transaction": {
    "hash": "0x635040117f7b2e6f98635787e2077e23401d473a6dc5ceed4b12fc06e62c9bac",
    "nonce": "0x1d4d",
    "origin": "0xffffffffff52d316b7bd028358089bc8066b8f80"
  }
}