{
  "address": "0x76ae358d9ad91651b78463ae609dadc9e7ce4402",
  "abi": [
    {
      "inputs": [
        {
          "internalType": "contract INameWrapper",
          "name": "nameWrapper",
          "type": "address"
        },
        {
          "internalType": "contract IPermissionedRegistry",
          "name": "ethRegistry",
          "type": "address"
        }
      ],
      "stateMutability": "nonpayable",
      "type": "constructor"
    },
    {
      "inputs": [
        {
          "internalType": "uint256",
          "name": "idsLength",
          "type": "uint256"
        },
        {
          "internalType": "uint256",
          "name": "valuesLength",
          "type": "uint256"
        }
      ],
      "name": "ERC1155InvalidArrayLength",
      "type": "error"
    },
    {
      "inputs": [],
      "name": "InvalidData",
      "type": "error"
    },
    {
      "inputs": [],
      "name": "InvalidOwner",
      "type": "error"
    },
    {
      "inputs": [
        {
          "internalType": "uint256",
          "name": "tokenId",
          "type": "uint256"
        }
      ],
      "name": "NameDataMismatch",
      "type": "error"
    },
    {
      "inputs": [
        {
          "internalType": "uint256",
          "name": "tokenId",
          "type": "uint256"
        }
      ],
      "name": "NameIsLocked",
      "type": "error"
    },
    {
      "inputs": [
        {
          "internalType": "address",
          "name": "caller",
          "type": "address"
        }
      ],
      "name": "UnauthorizedCaller",
      "type": "error"
    },
    {
      "inputs": [],
      "name": "ETH_REGISTRY",
      "outputs": [
        {
          "internalType": "contract IPermissionedRegistry",
          "name": "",
          "type": "address"
        }
      ],
      "stateMutability": "view",
      "type": "function"
    },
    {
      "inputs": [],
      "name": "NAME_WRAPPER",
      "outputs": [
        {
          "internalType": "contract INameWrapper",
          "name": "",
          "type": "address"
        }
      ],
      "stateMutability": "view",
      "type": "function"
    },
    {
      "inputs": [
        {
          "internalType": "uint256[]",
          "name": "ids",
          "type": "uint256[]"
        },
        {
          "components": [
            {
              "internalType": "string",
              "name": "label",
              "type": "string"
            },
            {
              "internalType": "address",
              "name": "owner",
              "type": "address"
            },
            {
              "internalType": "contract IRegistry",
              "name": "subregistry",
              "type": "address"
            },
            {
              "internalType": "address",
              "name": "resolver",
              "type": "address"
            }
          ],
          "internalType": "struct LibMigration.Data[]",
          "name": "mds",
          "type": "tuple[]"
        }
      ],
      "name": "finishERC1155Migration",
      "outputs": [],
      "stateMutability": "nonpayable",
      "type": "function"
    },
    {
      "inputs": [
        {
          "internalType": "address",
          "name": "",
          "type": "address"
        },
        {
          "internalType": "address",
          "name": "",
          "type": "address"
        },
        {
          "internalType": "uint256[]",
          "name": "ids",
          "type": "uint256[]"
        },
        {
          "internalType": "uint256[]",
          "name": "",
          "type": "uint256[]"
        },
        {
          "internalType": "bytes",
          "name": "data",
          "type": "bytes"
        }
      ],
      "name": "onERC1155BatchReceived",
      "outputs": [
        {
          "internalType": "bytes4",
          "name": "",
          "type": "bytes4"
        }
      ],
      "stateMutability": "nonpayable",
      "type": "function"
    },
    {
      "inputs": [
        {
          "internalType": "address",
          "name": "",
          "type": "address"
        },
        {
          "internalType": "address",
          "name": "",
          "type": "address"
        },
        {
          "internalType": "uint256",
          "name": "id",
          "type": "uint256"
        },
        {
          "internalType": "uint256",
          "name": "",
          "type": "uint256"
        },
        {
          "internalType": "bytes",
          "name": "data",
          "type": "bytes"
        }
      ],
      "name": "onERC1155Received",
      "outputs": [
        {
          "internalType": "bytes4",
          "name": "",
          "type": "bytes4"
        }
      ],
      "stateMutability": "nonpayable",
      "type": "function"
    },
    {
      "inputs": [
        {
          "internalType": "address",
          "name": "",
          "type": "address"
        },
        {
          "internalType": "address",
          "name": "",
          "type": "address"
        },
        {
          "internalType": "uint256",
          "name": "tokenId",
          "type": "uint256"
        },
        {
          "internalType": "bytes",
          "name": "data",
          "type": "bytes"
        }
      ],
      "name": "onERC721Received",
      "outputs": [
        {
          "internalType": "bytes4",
          "name": "",
          "type": "bytes4"
        }
      ],
      "stateMutability": "nonpayable",
      "type": "function"
    },
    {
      "inputs": [
        {
          "internalType": "bytes4",
          "name": "interfaceId",
          "type": "bytes4"
        }
      ],
      "name": "supportsInterface",
      "outputs": [
        {
          "internalType": "bool",
          "name": "",
          "type": "bool"
        }
      ],
      "stateMutability": "view",
      "type": "function"
    }
  ],
  "contractName": "UnlockedMigrationController",
  "sourceName": "src/migration/UnlockedMigrationController.sol",
  "bytecode": "0x610100604052348015610010575f80fd5b5060405161184b38038061184b83398101604081905261002f9161014a565b81806001600160a01b03166080816001600160a01b031681525050806001600160a01b0316633f15457f6040518163ffffffff1660e01b8152600401602060405180830381865afa158015610086573d5f803e3d5ffd5b505050506040513d601f19601f820116820180604052508101906100aa9190610182565b6001600160a01b0390811660a05282811660c05260408051632b20e39760e01b815290519185169250632b20e3979160048083019260209291908290030181865afa1580156100fb573d5f803e3d5ffd5b505050506040513d601f19601f8201168201806040525081019061011f9190610182565b6001600160a01b031660e052506101a49050565b6001600160a01b0381168114610147575f80fd5b50565b5f806040838503121561015b575f80fd5b825161016681610133565b602084015190925061017781610133565b809150509250929050565b5f60208284031215610192575f80fd5b815161019d81610133565b9392505050565b60805160a05160c05160e05161164b6102005f395f81816101a9015261028101525f818161011601526108ce01525f6102e801525f818160d701528181610435015281816105e40152818161098d0152610b2c015261164b5ff3fe608060405234801561000f575f80fd5b506004361061007a575f3560e01c8063475007081161005857806347500708146101115780635d05f04914610138578063bc197c811461014d578063f23a6e6114610160575f80fd5b806301ffc9a71461007e578063150b7a02146100a6578063192cf07d146100d2575b5f80fd5b61009161008c366004610d7b565b610173565b60405190151581526020015b60405180910390f35b6100b96100b4366004610e15565b61019d565b6040516001600160e01b0319909116815260200161009d565b6100f97f000000000000000000000000000000000000000000000000000000000000000081565b6040516001600160a01b03909116815260200161009d565b6100f97f000000000000000000000000000000000000000000000000000000000000000081565b61014b610146366004610ec4565b6103b2565b005b6100b961015b366004610f2b565b610429565b6100b961016e366004610fe2565b6105d8565b5f6001600160e01b03198216630a85bd0160e11b14806101975750610197826107e3565b92915050565b5f336001600160a01b037f000000000000000000000000000000000000000000000000000000000000000016146101ee5760405163d86ad9cf60e01b81523360048201526024015b60405180910390fd5b60e082101561021057604051635cb045db60e01b815260040160405180910390fd5b5f61021d83850185611193565b80518051602090910120909150851461024c5760405163edec356960e01b8152600481018690526024016101e5565b6040517f28ed4f6c000000000000000000000000000000000000000000000000000000008152600481018690523060248201527f00000000000000000000000000000000000000000000000000000000000000006001600160a01b0316906328ed4f6c906044015f604051808303815f87803b1580156102ca575f80fd5b505af11580156102dc573d5f803e3d5ffd5b50506001600160a01b037f0000000000000000000000000000000000000000000000000000000000000000169150631896f70a90506103447f93cdeb708b7545dc668eb9280176169d1c33cfd8ed6f04690a0bcc88a93fc4ae885f9182526020526040902090565b6040516001600160e01b031960e084901b16815260048101919091525f60248201526044015f604051808303815f87803b158015610380575f80fd5b505af1158015610392573d5f803e3d5ffd5b5050505061039f81610849565b50630a85bd0160e11b9695505050505050565b3330146103d45760405163d86ad9cf60e01b81523360048201526024016101e5565b828114610417576040517f5b05999100000000000000000000000000000000000000000000000000000000815260048101849052602481018290526044016101e5565b61042384848484610964565b50505050565b5f336001600160a01b037f000000000000000000000000000000000000000000000000000000000000000016146104ab576040513360248201526104ab9063d86ad9cf60e01b906044015b60408051601f198184030181529190526020810180516001600160e01b03166001600160e01b031990931692909217909152610bd5565b82826104b860e0896111e1565b6104c39060406111f8565b808210156104fd576040805160048152602481019091526020810180516001600160e01b0316635cb045db60e01b1790526104fd90610bd5565b5f61050a8688018861120b565b604051635d05f04960e01b81529091503090635d05f04990610534908e908e908690600401611383565b5f604051808303815f87803b15801561054b575f80fd5b505af192505050801561055c575060015b61059e573d808015610589576040519150601f19603f3d011682016040523d82523d5f602084013e61058e565b606091505b5061059881610bd5565b506105c7565b507fbc197c810000000000000000000000000000000000000000000000000000000093506105c9565b505b50505098975050505050505050565b5f336001600160a01b037f00000000000000000000000000000000000000000000000000000000000000001614610627576040513360248201526106279063d86ad9cf60e01b90604401610474565b828260e080821015610665576040805160048152602481019091526020810180516001600160e01b0316635cb045db60e01b17905261066590610bd5565b6040805160018082528183019092525f916020808301908036833750506040805160018082528183019092529293505f929150602082015b6040805160808101825260608082525f60208084018290529383018190529082015282525f1990920191018161069d57905050905089825f815181106106e5576106e56113ea565b60209081029190910101526106fc87890189611193565b815f8151811061070e5761070e6113ea565b6020908102919091010152604051635d05f04960e01b81523090635d05f0499061073e90859085906004016113fe565b5f604051808303815f87803b158015610755575f80fd5b505af1925050508015610766575060015b6107a8573d808015610793576040519150601f19603f3d011682016040523d82523d5f602084013e610798565b606091505b506107a281610bd5565b506107d3565b507ff23a6e610000000000000000000000000000000000000000000000000000000094506107d69050565b50505b5050509695505050505050565b5f6001600160e01b031982167f4e2312e000000000000000000000000000000000000000000000000000000000148061019757507f01ffc9a7000000000000000000000000000000000000000000000000000000006001600160e01b0319831614610197565b60208101516001600160a01b031661088d576040517f49e27cff00000000000000000000000000000000000000000000000000000000815260040160405180910390fd5b80516020820151604080840151606085015191517f85f3e6430000000000000000000000000000000000000000000000000000000081526001600160a01b037f000000000000000000000000000000000000000000000000000000000000000016946385f3e643946109209491939092909190731110000000000000000000000000000001100000905f9060040161144b565b6020604051808303815f875af115801561093c573d5f803e3d5ffd5b505050506040513d601f19601f82011682018060405250810190610960919061149e565b5050565b5f5b83811015610bce575f858583818110610981576109816113ea565b9050602002013590505f7f00000000000000000000000000000000000000000000000000000000000000006001600160a01b0316630178fe3f836040518263ffffffff1660e01b81526004016109d991815260200190565b606060405180830381865afa1580156109f4573d5f803e3d5ffd5b505050506040513d601f19601f82011682018060405250810190610a1891906114b5565b509150506001811615610a5a576040517fe7c290e2000000000000000000000000000000000000000000000000000000008152600481018390526024016101e5565b5f858585818110610a6d57610a6d6113ea565b9050602002810190610a7f9190611513565b610a899080611531565b604051610a97929190611574565b6040519081900390209050610ad57f93cdeb708b7545dc668eb9280176169d1c33cfd8ed6f04690a0bcc88a93fc4ae825f9182526020526040902090565b8314610af75760405163edec356960e01b8152600481018490526024016101e5565b6040517f1896f70a000000000000000000000000000000000000000000000000000000008152600481018490525f60248201527f00000000000000000000000000000000000000000000000000000000000000006001600160a01b031690631896f70a906044015f604051808303815f87803b158015610b75575f80fd5b505af1158015610b87573d5f803e3d5ffd5b50505050610bc0868686818110610ba057610ba06113ea565b9050602002810190610bb29190611513565b610bbb90611583565b610849565b505050806001019050610966565b5050505050565b610bde81610be8565b9050805160208201fd5b60605f8251118015610c12575062461bcd60e51b610c058361158e565b6001600160e01b03191614155b15610cab5762461bcd60e51b7f577261707065644572726f723a3a307800000000000000000000000000000000610c4884610caf565b604051602001610c599291906115c1565b60408051601f1981840301815290829052610c7691602401611603565b60408051601f198184030181529190526020810180516001600160e01b03166001600160e01b03199093169290921790915291505b5090565b805160609060011b8067ffffffffffffffff811115610cd057610cd0611059565b6040519080825280601f01601f191660200182016040528015610cfa576020820181803683370190505b5091506020838101908301610d10828285610d18565b505050919050565b8181015b808310156104235783516101005b8285108015610d3857505f81115b15610d6e5760031901600f82821c16600a8110610d585780605701610d5d565b806030015b905080865350600190940193610d2a565b5050602084019350610d1c565b5f60208284031215610d8b575f80fd5b81356001600160e01b031981168114610da2575f80fd5b9392505050565b6001600160a01b0381168114610dbd575f80fd5b50565b8035610dcb81610da9565b919050565b5f8083601f840112610de0575f80fd5b50813567ffffffffffffffff811115610df7575f80fd5b602083019150836020828501011115610e0e575f80fd5b9250929050565b5f805f805f60808688031215610e29575f80fd5b8535610e3481610da9565b94506020860135610e4481610da9565b935060408601359250606086013567ffffffffffffffff811115610e66575f80fd5b610e7288828901610dd0565b969995985093965092949392505050565b5f8083601f840112610e93575f80fd5b50813567ffffffffffffffff811115610eaa575f80fd5b6020830191508360208260051b8501011115610e0e575f80fd5b5f805f8060408587031215610ed7575f80fd5b843567ffffffffffffffff80821115610eee575f80fd5b610efa88838901610e83565b90965094506020870135915080821115610f12575f80fd5b50610f1f87828801610e83565b95989497509550505050565b5f805f805f805f8060a0898b031215610f42575f80fd5b8835610f4d81610da9565b97506020890135610f5d81610da9565b9650604089013567ffffffffffffffff80821115610f79575f80fd5b610f858c838d01610e83565b909850965060608b0135915080821115610f9d575f80fd5b610fa98c838d01610e83565b909650945060808b0135915080821115610fc1575f80fd5b50610fce8b828c01610dd0565b999c989b5096995094979396929594505050565b5f805f805f8060a08789031215610ff7575f80fd5b863561100281610da9565b9550602087013561101281610da9565b94506040870135935060608701359250608087013567ffffffffffffffff81111561103b575f80fd5b61104789828a01610dd0565b979a9699509497509295939492505050565b634e487b7160e01b5f52604160045260245ffd5b6040516080810167ffffffffffffffff8111828210171561109057611090611059565b60405290565b604051601f8201601f1916810167ffffffffffffffff811182821017156110bf576110bf611059565b604052919050565b5f608082840312156110d7575f80fd5b6110df61106d565b9050813567ffffffffffffffff808211156110f8575f80fd5b818401915084601f83011261110b575f80fd5b813560208282111561111f5761111f611059565b611131601f8301601f19168201611096565b92508183528681838601011115611146575f80fd5b81818501828501375f818385010152828552611163818701610dc0565b818601525050505061117760408301610dc0565b604082015261118860608301610dc0565b606082015292915050565b5f602082840312156111a3575f80fd5b813567ffffffffffffffff8111156111b9575f80fd5b6111c5848285016110c7565b949350505050565b634e487b7160e01b5f52601160045260245ffd5b8082028115828204841417610197576101976111cd565b80820180821115610197576101976111cd565b5f602080838503121561121c575f80fd5b823567ffffffffffffffff80821115611233575f80fd5b818501915085601f830112611246575f80fd5b81358181111561125857611258611059565b8060051b611267858201611096565b9182528381018501918581019089841115611280575f80fd5b86860192505b838310156112ba5782358581111561129c575f80fd5b6112aa8b89838a01016110c7565b8352509186019190860190611286565b9998505050505050505050565b5f81518084528060208401602086015e5f602082860101526020601f19601f83011685010191505092915050565b5f82825180855260208086019550808260051b8401018186015f5b8481101561137657601f19868403018952815160808151818652611336828701826112c7565b838801516001600160a01b03908116888a015260408086015182169089015260609485015116939096019290925250509783019790830190600101611310565b5090979650505050505050565b604081528260408201525f7f07ffffffffffffffffffffffffffffffffffffffffffffffffffffffffffffff8411156113ba575f80fd5b8360051b808660608501378201828103606090810160208501526113e0908201856112f5565b9695505050505050565b634e487b7160e01b5f52603260045260245ffd5b604080825283519082018190525f906020906060840190828701845b828110156114365781518452928401929084019060010161141a565b50505083810360208501526113e081866112f5565b60c081525f61145d60c08301896112c7565b6001600160a01b039788166020840152958716604083015250929094166060830152608082015267ffffffffffffffff90921660a090920191909152919050565b5f602082840312156114ae575f80fd5b5051919050565b5f805f606084860312156114c7575f80fd5b83516114d281610da9565b602085015190935063ffffffff811681146114eb575f80fd5b604085015190925067ffffffffffffffff81168114611508575f80fd5b809150509250925092565b5f8235607e19833603018112611527575f80fd5b9190910192915050565b5f808335601e19843603018112611546575f80fd5b83018035915067ffffffffffffffff821115611560575f80fd5b602001915036819003821315610e0e575f80fd5b818382375f9101908152919050565b5f61019736836110c7565b5f815160208301516001600160e01b031980821693506004831015610d105760049290920360031b82901b161692915050565b7fffffffffffffffffffffffffffffffff00000000000000000000000000000000831681525f82518060208501601085015e5f92016010019182525092915050565b602081525f610da260208301846112c756fea2646970667358221220e0fef4276bd3b37d34932a817b7f29a5be220036243208e05df0a30001476e9764736f6c63430008190033",
  "linkReferences": {},
  "deployedLinkReferences": {},
  "immutableReferences": {
    "69686": [
      {
        "length": 32,
        "start": 215
      },
      {
        "length": 32,
        "start": 1077
      },
      {
        "length": 32,
        "start": 1508
      },
      {
        "length": 32,
        "start": 2445
      },
      {
        "length": 32,
        "start": 2860
      }
    ],
    "69690": [
      {
        "length": 32,
        "start": 744
      }
    ],
    "70631": [
      {
        "length": 32,
        "start": 278
      },
      {
        "length": 32,
        "start": 2254
      }
    ],
    "70635": [
      {
        "length": 32,
        "start": 425
      },
      {
        "length": 32,
        "start": 641
      }
    ]
  },
  "inputSourceName": "project/src/migration/UnlockedMigrationController.sol",
  "devdoc": {
    "errors": {
      "ERC1155InvalidArrayLength(uint256,uint256)": [
        {
          "details": "Indicates an array length mismatch between ids and values in a safeBatchTransferFrom operation. Used in batch transfers.",
          "params": {
            "idsLength": "Length of the array of token identifiers",
            "valuesLength": "Length of the array of token amounts"
          }
        }
      ],
      "InvalidData()": [
        {
          "details": "Error selector: `0x5cb045db`"
        }
      ],
      "InvalidOwner()": [
        {
          "details": "Error selector: `0x49e27cff`"
        }
      ],
      "NameDataMismatch(uint256)": [
        {
          "details": "Error selector: `0xedec3569`"
        }
      ],
      "NameIsLocked(uint256)": [
        {
          "details": "Error selector: `0xe7c290e2`"
        }
      ],
      "UnauthorizedCaller(address)": [
        {
          "details": "Error selector: `0xd86ad9cf`",
          "params": {
            "caller": "The address that attempted the unauthorized operation"
          }
        }
      ]
    },
    "kind": "dev",
    "methods": {
      "constructor": {
        "params": {
          "ethRegistry": "The ENSv2 .eth `PermissionedRegistry` where migrated names are registered.",
          "nameWrapper": "The ENSv1 `NameWrapper` contract."
        }
      },
      "finishERC1155Migration(uint256[],(string,address,address,address)[])": {
        "details": "Only callable by ourself and invoked by our `IERC1155Receiver` handlers. TODO: gas analysis and optimization NOTE: converting this to an internal call requires catching many reverts",
        "params": {
          "ids": "The NameWrapper token IDs (namehashes) of the names being migrated.",
          "mds": "The migration parameters for each name, indexed in parallel with `ids`."
        }
      },
      "onERC1155BatchReceived(address,address,uint256[],uint256[],bytes)": {
        "details": "Only callable by NameWrapper.      Reverts require `WrappedErrorLib.unwrap()` before processing.",
        "params": {
          "data": "ABI-encoded `LibMigration.Data[]` array containing migration parameters for each name.",
          "ids": "The NameWrapper token IDs (namehashes) of the names being migrated."
        },
        "returns": {
          "_0": "`bytes4(keccak256(\"onERC1155BatchReceived(address,address,uint256[],uint256[],bytes)\"))` if transfer is allowed"
        }
      },
      "onERC1155Received(address,address,uint256,uint256,bytes)": {
        "details": "Only callable by NameWrapper.      Reverts require `WrappedErrorLib.unwrap()` before processing.",
        "params": {
          "data": "ABI-encoded `LibMigration.Data` struct containing migration parameters.",
          "id": "The NameWrapper token ID (namehash) of the name being migrated."
        },
        "returns": {
          "_0": "`bytes4(keccak256(\"onERC1155Received(address,address,uint256,uint256,bytes)\"))` if transfer is allowed"
        }
      },
      "onERC721Received(address,address,uint256,bytes)": {
        "params": {
          "": "{from} Ignored.",
          "data": "ABI-encoded `LibMigration.Data` struct containing migration parameters.",
          "tokenId": "The BaseRegistrar token ID (labelhash) of the name being migrated."
        },
        "returns": {
          "_0": "The selector of the `onERC721Received` function."
        }
      },
      "supportsInterface(bytes4)": {
        "details": "Returns true if this contract implements the interface defined by `interfaceId`. See the corresponding https://eips.ethereum.org/EIPS/eip-165#how-interfaces-are-identified[ERC section] to learn more about how these ids are created. This function call must use less than 30 000 gas."
      }
    },
    "stateVariables": {
      "_REGISTRAR_V1": {
        "details": "The ENSv1 `BaseRegistrar` contract."
      }
    },
    "title": "UnlockedMigrationController",
    "version": 1
  },
  "evm": {
    "gasEstimates": {
      "creation": {
        "codeDepositCost": "1141400",
        "executionCost": "infinite",
        "totalCost": "infinite"
      },
      "external": {
        "ETH_REGISTRY()": "infinite",
        "NAME_WRAPPER()": "infinite",
        "finishERC1155Migration(uint256[],(string,address,address,address)[])": "infinite",
        "onERC1155BatchReceived(address,address,uint256[],uint256[],bytes)": "infinite",
        "onERC1155Received(address,address,uint256,uint256,bytes)": "infinite",
        "onERC721Received(address,address,uint256,bytes)": "infinite",
        "supportsInterface(bytes4)": "infinite"
      },
      "internal": {
        "_inject(struct LibMigration.Data memory)": "infinite",
        "_migrateWrapped(uint256[] calldata,struct LibMigration.Data calldata[] calldata)": "infinite"
      }
    }
  },
  "storageLayout": {
    "storage": [],
    "types": null
  },
  "userdoc": {
    "errors": {
      "InvalidData()": [
        {
          "notice": "The encoded data is invalid."
        }
      ],
      "InvalidOwner()": [
        {
          "notice": "Expected valid owner."
        }
      ],
      "NameDataMismatch(uint256)": [
        {
          "notice": "NameWrapper or BaseRegistrar token does not match supplied data."
        }
      ],
      "NameIsLocked(uint256)": [
        {
          "notice": "NameWrapper token is locked."
        }
      ],
      "UnauthorizedCaller(address)": [
        {
          "notice": "Thrown when a caller is not authorized to perform the requested operation"
        }
      ]
    },
    "kind": "user",
    "methods": {
      "ETH_REGISTRY()": {
        "notice": "The ENSv2 .eth `PermissionedRegistry` where migrated names are registered."
      },
      "NAME_WRAPPER()": {
        "notice": "The ENSv1 `NameWrapper` contract that holds wrapped names as ERC1155 tokens."
      },
      "constructor": {
        "notice": "Initializes UnlockedMigrationController."
      },
      "finishERC1155Migration(uint256[],(string,address,address,address)[])": {
        "notice": "Convert NameWrapper tokens to their equivalent ENSv2 form."
      },
      "onERC1155BatchReceived(address,address,uint256[],uint256[],bytes)": {
        "notice": "Migrate multiple NameWrapper tokens via `safeBatchTransferFrom()`."
      },
      "onERC1155Received(address,address,uint256,uint256,bytes)": {
        "notice": "Migrate one NameWrapper token via `safeTransferFrom()`."
      },
      "onERC721Received(address,address,uint256,bytes)": {
        "notice": "Receives an unwrapped .eth name via ERC721 `safeTransferFrom` from the `BaseRegistrar`.         Decodes a single `LibMigration.Data` from `data` and registers the equivalent name in ENSv2."
      }
    },
    "notice": "Migration controller for handling unwrapped and unlocked .eth names. Assumes premigration has `RESERVED` existing ENSv1 names. Requires `ROLE_REGISTER_RESERVED` on .eth registry to perform migration. Supports (2) token sources: 1. NameWrapper (ERC-1155) but unlocked only.    Reverts with `NameIsWrapped` if `_isLocked()` => use LockedMigrationController instead. 2. BaseRegistrar (ERC-721) Unlike locked migration, no subregistry is deployed and no fuse-to-role translation is performed.  The name is registered in the .eth registry with the roles and subregistry specified in the caller-provided `LibMigration.Data`.",
    "version": 1
  },
  "argsData": "0x000000000000000000000000c7e033b8836e4bd55d069d113f018b98478cb091000000000000000000000000796fff2e907449be8d5921bcc215b1b76d89d080",
  "transaction": {
    "hash": "0x62d9931baa08c4dc25d9739795ab5a9a9d7e539410483eeed3fec964c1e59bcd",
    "nonce": "0x1d44",
    "origin": "0xffffffffff52d316b7bd028358089bc8066b8f80"
  }
}