{
  "address": "0xea93aff7375e8176053ab6ab36b57cab53cbf702",
  "abi": [
    {
      "inputs": [
        {
          "internalType": "contract IHCAFactoryBasic",
          "name": "hcaFactory",
          "type": "address"
        },
        {
          "internalType": "contract IRegistryMetadata",
          "name": "metadataProvider",
          "type": "address"
        }
      ],
      "stateMutability": "nonpayable",
      "type": "constructor"
    },
    {
      "inputs": [
        {
          "internalType": "address",
          "name": "target",
          "type": "address"
        }
      ],
      "name": "AddressEmptyCode",
      "type": "error"
    },
    {
      "inputs": [
        {
          "internalType": "uint64",
          "name": "oldExpiry",
          "type": "uint64"
        },
        {
          "internalType": "uint64",
          "name": "newExpiry",
          "type": "uint64"
        }
      ],
      "name": "CannotReduceExpiry",
      "type": "error"
    },
    {
      "inputs": [
        {
          "internalType": "uint64",
          "name": "expiry",
          "type": "uint64"
        }
      ],
      "name": "CannotSetPastExpiry",
      "type": "error"
    },
    {
      "inputs": [
        {
          "internalType": "uint256",
          "name": "resource",
          "type": "uint256"
        },
        {
          "internalType": "uint256",
          "name": "roleBitmap",
          "type": "uint256"
        },
        {
          "internalType": "address",
          "name": "account",
          "type": "address"
        }
      ],
      "name": "EACCannotGrantRoles",
      "type": "error"
    },
    {
      "inputs": [
        {
          "internalType": "uint256",
          "name": "resource",
          "type": "uint256"
        },
        {
          "internalType": "uint256",
          "name": "roleBitmap",
          "type": "uint256"
        },
        {
          "internalType": "address",
          "name": "account",
          "type": "address"
        }
      ],
      "name": "EACCannotRevokeRoles",
      "type": "error"
    },
    {
      "inputs": [],
      "name": "EACInvalidAccount",
      "type": "error"
    },
    {
      "inputs": [
        {
          "internalType": "uint256",
          "name": "roleBitmap",
          "type": "uint256"
        }
      ],
      "name": "EACInvalidRoleBitmap",
      "type": "error"
    },
    {
      "inputs": [
        {
          "internalType": "uint256",
          "name": "resource",
          "type": "uint256"
        },
        {
          "internalType": "uint256",
          "name": "role",
          "type": "uint256"
        }
      ],
      "name": "EACMaxAssignees",
      "type": "error"
    },
    {
      "inputs": [
        {
          "internalType": "uint256",
          "name": "resource",
          "type": "uint256"
        },
        {
          "internalType": "uint256",
          "name": "role",
          "type": "uint256"
        }
      ],
      "name": "EACMinAssignees",
      "type": "error"
    },
    {
      "inputs": [],
      "name": "EACRootResourceNotAllowed",
      "type": "error"
    },
    {
      "inputs": [
        {
          "internalType": "uint256",
          "name": "resource",
          "type": "uint256"
        },
        {
          "internalType": "uint256",
          "name": "roleBitmap",
          "type": "uint256"
        },
        {
          "internalType": "address",
          "name": "account",
          "type": "address"
        }
      ],
      "name": "EACUnauthorizedAccountRoles",
      "type": "error"
    },
    {
      "inputs": [
        {
          "internalType": "address",
          "name": "sender",
          "type": "address"
        },
        {
          "internalType": "uint256",
          "name": "balance",
          "type": "uint256"
        },
        {
          "internalType": "uint256",
          "name": "needed",
          "type": "uint256"
        },
        {
          "internalType": "uint256",
          "name": "tokenId",
          "type": "uint256"
        }
      ],
      "name": "ERC1155InsufficientBalance",
      "type": "error"
    },
    {
      "inputs": [
        {
          "internalType": "address",
          "name": "approver",
          "type": "address"
        }
      ],
      "name": "ERC1155InvalidApprover",
      "type": "error"
    },
    {
      "inputs": [
        {
          "internalType": "uint256",
          "name": "idsLength",
          "type": "uint256"
        },
        {
          "internalType": "uint256",
          "name": "valuesLength",
          "type": "uint256"
        }
      ],
      "name": "ERC1155InvalidArrayLength",
      "type": "error"
    },
    {
      "inputs": [
        {
          "internalType": "address",
          "name": "operator",
          "type": "address"
        }
      ],
      "name": "ERC1155InvalidOperator",
      "type": "error"
    },
    {
      "inputs": [
        {
          "internalType": "address",
          "name": "receiver",
          "type": "address"
        }
      ],
      "name": "ERC1155InvalidReceiver",
      "type": "error"
    },
    {
      "inputs": [
        {
          "internalType": "address",
          "name": "sender",
          "type": "address"
        }
      ],
      "name": "ERC1155InvalidSender",
      "type": "error"
    },
    {
      "inputs": [
        {
          "internalType": "address",
          "name": "operator",
          "type": "address"
        },
        {
          "internalType": "address",
          "name": "owner",
          "type": "address"
        }
      ],
      "name": "ERC1155MissingApprovalForAll",
      "type": "error"
    },
    {
      "inputs": [
        {
          "internalType": "address",
          "name": "implementation",
          "type": "address"
        }
      ],
      "name": "ERC1967InvalidImplementation",
      "type": "error"
    },
    {
      "inputs": [],
      "name": "ERC1967NonPayable",
      "type": "error"
    },
    {
      "inputs": [],
      "name": "FailedCall",
      "type": "error"
    },
    {
      "inputs": [],
      "name": "InvalidInitialization",
      "type": "error"
    },
    {
      "inputs": [],
      "name": "InvalidOwner",
      "type": "error"
    },
    {
      "inputs": [
        {
          "internalType": "string",
          "name": "label",
          "type": "string"
        }
      ],
      "name": "LabelAlreadyRegistered",
      "type": "error"
    },
    {
      "inputs": [
        {
          "internalType": "string",
          "name": "label",
          "type": "string"
        }
      ],
      "name": "LabelAlreadyReserved",
      "type": "error"
    },
    {
      "inputs": [
        {
          "internalType": "uint256",
          "name": "tokenId",
          "type": "uint256"
        }
      ],
      "name": "LabelExpired",
      "type": "error"
    },
    {
      "inputs": [],
      "name": "LabelIsEmpty",
      "type": "error"
    },
    {
      "inputs": [
        {
          "internalType": "string",
          "name": "label",
          "type": "string"
        }
      ],
      "name": "LabelIsTooLong",
      "type": "error"
    },
    {
      "inputs": [],
      "name": "NotInitializing",
      "type": "error"
    },
    {
      "inputs": [
        {
          "internalType": "uint256",
          "name": "tokenId",
          "type": "uint256"
        },
        {
          "internalType": "address",
          "name": "from",
          "type": "address"
        }
      ],
      "name": "TransferDisallowed",
      "type": "error"
    },
    {
      "inputs": [],
      "name": "UUPSUnauthorizedCallContext",
      "type": "error"
    },
    {
      "inputs": [
        {
          "internalType": "bytes32",
          "name": "slot",
          "type": "bytes32"
        }
      ],
      "name": "UUPSUnsupportedProxiableUUID",
      "type": "error"
    },
    {
      "anonymous": false,
      "inputs": [
        {
          "indexed": true,
          "internalType": "address",
          "name": "owner",
          "type": "address"
        },
        {
          "indexed": true,
          "internalType": "address",
          "name": "approved",
          "type": "address"
        },
        {
          "indexed": true,
          "internalType": "uint256",
          "name": "tokenId",
          "type": "uint256"
        }
      ],
      "name": "Approval",
      "type": "event"
    },
    {
      "anonymous": false,
      "inputs": [
        {
          "indexed": true,
          "internalType": "address",
          "name": "account",
          "type": "address"
        },
        {
          "indexed": true,
          "internalType": "address",
          "name": "operator",
          "type": "address"
        },
        {
          "indexed": false,
          "internalType": "bool",
          "name": "approved",
          "type": "bool"
        }
      ],
      "name": "ApprovalForAll",
      "type": "event"
    },
    {
      "anonymous": false,
      "inputs": [
        {
          "indexed": true,
          "internalType": "uint256",
          "name": "resource",
          "type": "uint256"
        },
        {
          "indexed": true,
          "internalType": "address",
          "name": "account",
          "type": "address"
        },
        {
          "indexed": false,
          "internalType": "uint256",
          "name": "oldRoleBitmap",
          "type": "uint256"
        },
        {
          "indexed": false,
          "internalType": "uint256",
          "name": "newRoleBitmap",
          "type": "uint256"
        }
      ],
      "name": "EACRolesChanged",
      "type": "event"
    },
    {
      "anonymous": false,
      "inputs": [
        {
          "indexed": true,
          "internalType": "uint256",
          "name": "tokenId",
          "type": "uint256"
        },
        {
          "indexed": true,
          "internalType": "uint64",
          "name": "newExpiry",
          "type": "uint64"
        },
        {
          "indexed": true,
          "internalType": "address",
          "name": "sender",
          "type": "address"
        }
      ],
      "name": "ExpiryUpdated",
      "type": "event"
    },
    {
      "anonymous": false,
      "inputs": [
        {
          "indexed": false,
          "internalType": "uint64",
          "name": "version",
          "type": "uint64"
        }
      ],
      "name": "Initialized",
      "type": "event"
    },
    {
      "anonymous": false,
      "inputs": [
        {
          "indexed": true,
          "internalType": "uint256",
          "name": "tokenId",
          "type": "uint256"
        },
        {
          "indexed": true,
          "internalType": "bytes32",
          "name": "labelHash",
          "type": "bytes32"
        },
        {
          "indexed": false,
          "internalType": "string",
          "name": "label",
          "type": "string"
        },
        {
          "indexed": false,
          "internalType": "address",
          "name": "owner",
          "type": "address"
        },
        {
          "indexed": false,
          "internalType": "uint64",
          "name": "expiry",
          "type": "uint64"
        },
        {
          "indexed": true,
          "internalType": "address",
          "name": "sender",
          "type": "address"
        }
      ],
      "name": "LabelRegistered",
      "type": "event"
    },
    {
      "anonymous": false,
      "inputs": [
        {
          "indexed": true,
          "internalType": "uint256",
          "name": "tokenId",
          "type": "uint256"
        },
        {
          "indexed": true,
          "internalType": "bytes32",
          "name": "labelHash",
          "type": "bytes32"
        },
        {
          "indexed": false,
          "internalType": "string",
          "name": "label",
          "type": "string"
        },
        {
          "indexed": false,
          "internalType": "uint64",
          "name": "expiry",
          "type": "uint64"
        },
        {
          "indexed": true,
          "internalType": "address",
          "name": "sender",
          "type": "address"
        }
      ],
      "name": "LabelReserved",
      "type": "event"
    },
    {
      "anonymous": false,
      "inputs": [
        {
          "indexed": true,
          "internalType": "uint256",
          "name": "tokenId",
          "type": "uint256"
        },
        {
          "indexed": true,
          "internalType": "address",
          "name": "sender",
          "type": "address"
        }
      ],
      "name": "LabelUnregistered",
      "type": "event"
    },
    {
      "anonymous": false,
      "inputs": [
        {
          "indexed": true,
          "internalType": "contract IRegistry",
          "name": "parent",
          "type": "address"
        },
        {
          "indexed": false,
          "internalType": "string",
          "name": "label",
          "type": "string"
        },
        {
          "indexed": true,
          "internalType": "address",
          "name": "sender",
          "type": "address"
        }
      ],
      "name": "ParentUpdated",
      "type": "event"
    },
    {
      "anonymous": false,
      "inputs": [
        {
          "indexed": true,
          "internalType": "uint256",
          "name": "tokenId",
          "type": "uint256"
        },
        {
          "indexed": true,
          "internalType": "address",
          "name": "resolver",
          "type": "address"
        },
        {
          "indexed": true,
          "internalType": "address",
          "name": "sender",
          "type": "address"
        }
      ],
      "name": "ResolverUpdated",
      "type": "event"
    },
    {
      "anonymous": false,
      "inputs": [
        {
          "indexed": true,
          "internalType": "uint256",
          "name": "tokenId",
          "type": "uint256"
        },
        {
          "indexed": true,
          "internalType": "contract IRegistry",
          "name": "subregistry",
          "type": "address"
        },
        {
          "indexed": true,
          "internalType": "address",
          "name": "sender",
          "type": "address"
        }
      ],
      "name": "SubregistryUpdated",
      "type": "event"
    },
    {
      "anonymous": false,
      "inputs": [
        {
          "indexed": true,
          "internalType": "uint256",
          "name": "oldTokenId",
          "type": "uint256"
        },
        {
          "indexed": true,
          "internalType": "uint256",
          "name": "newTokenId",
          "type": "uint256"
        }
      ],
      "name": "TokenRegenerated",
      "type": "event"
    },
    {
      "anonymous": false,
      "inputs": [
        {
          "indexed": true,
          "internalType": "uint256",
          "name": "tokenId",
          "type": "uint256"
        },
        {
          "indexed": true,
          "internalType": "uint256",
          "name": "resource",
          "type": "uint256"
        }
      ],
      "name": "TokenResource",
      "type": "event"
    },
    {
      "anonymous": false,
      "inputs": [
        {
          "indexed": true,
          "internalType": "address",
          "name": "operator",
          "type": "address"
        },
        {
          "indexed": true,
          "internalType": "address",
          "name": "from",
          "type": "address"
        },
        {
          "indexed": true,
          "internalType": "address",
          "name": "to",
          "type": "address"
        },
        {
          "indexed": false,
          "internalType": "uint256[]",
          "name": "ids",
          "type": "uint256[]"
        },
        {
          "indexed": false,
          "internalType": "uint256[]",
          "name": "values",
          "type": "uint256[]"
        }
      ],
      "name": "TransferBatch",
      "type": "event"
    },
    {
      "anonymous": false,
      "inputs": [
        {
          "indexed": true,
          "internalType": "address",
          "name": "operator",
          "type": "address"
        },
        {
          "indexed": true,
          "internalType": "address",
          "name": "from",
          "type": "address"
        },
        {
          "indexed": true,
          "internalType": "address",
          "name": "to",
          "type": "address"
        },
        {
          "indexed": false,
          "internalType": "uint256",
          "name": "id",
          "type": "uint256"
        },
        {
          "indexed": false,
          "internalType": "uint256",
          "name": "value",
          "type": "uint256"
        }
      ],
      "name": "TransferSingle",
      "type": "event"
    },
    {
      "anonymous": false,
      "inputs": [
        {
          "indexed": false,
          "internalType": "string",
          "name": "value",
          "type": "string"
        },
        {
          "indexed": true,
          "internalType": "uint256",
          "name": "id",
          "type": "uint256"
        }
      ],
      "name": "URI",
      "type": "event"
    },
    {
      "anonymous": false,
      "inputs": [
        {
          "indexed": true,
          "internalType": "address",
          "name": "implementation",
          "type": "address"
        }
      ],
      "name": "Upgraded",
      "type": "event"
    },
    {
      "inputs": [],
      "name": "HCA_FACTORY",
      "outputs": [
        {
          "internalType": "contract IHCAFactoryBasic",
          "name": "",
          "type": "address"
        }
      ],
      "stateMutability": "view",
      "type": "function"
    },
    {
      "inputs": [],
      "name": "METADATA_PROVIDER",
      "outputs": [
        {
          "internalType": "contract IRegistryMetadata",
          "name": "",
          "type": "address"
        }
      ],
      "stateMutability": "view",
      "type": "function"
    },
    {
      "inputs": [],
      "name": "ROOT_RESOURCE",
      "outputs": [
        {
          "internalType": "uint256",
          "name": "",
          "type": "uint256"
        }
      ],
      "stateMutability": "view",
      "type": "function"
    },
    {
      "inputs": [],
      "name": "UPGRADE_INTERFACE_VERSION",
      "outputs": [
        {
          "internalType": "string",
          "name": "",
          "type": "string"
        }
      ],
      "stateMutability": "view",
      "type": "function"
    },
    {
      "inputs": [
        {
          "internalType": "address",
          "name": "account",
          "type": "address"
        },
        {
          "internalType": "uint256",
          "name": "id",
          "type": "uint256"
        }
      ],
      "name": "balanceOf",
      "outputs": [
        {
          "internalType": "uint256",
          "name": "",
          "type": "uint256"
        }
      ],
      "stateMutability": "view",
      "type": "function"
    },
    {
      "inputs": [
        {
          "internalType": "address[]",
          "name": "accounts",
          "type": "address[]"
        },
        {
          "internalType": "uint256[]",
          "name": "ids",
          "type": "uint256[]"
        }
      ],
      "name": "balanceOfBatch",
      "outputs": [
        {
          "internalType": "uint256[]",
          "name": "",
          "type": "uint256[]"
        }
      ],
      "stateMutability": "view",
      "type": "function"
    },
    {
      "inputs": [
        {
          "internalType": "uint256",
          "name": "anyId",
          "type": "uint256"
        },
        {
          "internalType": "uint256",
          "name": "roleBitmap",
          "type": "uint256"
        }
      ],
      "name": "getAssigneeCount",
      "outputs": [
        {
          "internalType": "uint256",
          "name": "counts",
          "type": "uint256"
        },
        {
          "internalType": "uint256",
          "name": "mask",
          "type": "uint256"
        }
      ],
      "stateMutability": "view",
      "type": "function"
    },
    {
      "inputs": [
        {
          "internalType": "uint256",
          "name": "anyId",
          "type": "uint256"
        }
      ],
      "name": "getExpiry",
      "outputs": [
        {
          "internalType": "uint64",
          "name": "",
          "type": "uint64"
        }
      ],
      "stateMutability": "view",
      "type": "function"
    },
    {
      "inputs": [],
      "name": "getParent",
      "outputs": [
        {
          "internalType": "contract IRegistry",
          "name": "parent",
          "type": "address"
        },
        {
          "internalType": "string",
          "name": "label",
          "type": "string"
        }
      ],
      "stateMutability": "view",
      "type": "function"
    },
    {
      "inputs": [
        {
          "internalType": "string",
          "name": "label",
          "type": "string"
        }
      ],
      "name": "getResolver",
      "outputs": [
        {
          "internalType": "address",
          "name": "",
          "type": "address"
        }
      ],
      "stateMutability": "view",
      "type": "function"
    },
    {
      "inputs": [
        {
          "internalType": "uint256",
          "name": "anyId",
          "type": "uint256"
        }
      ],
      "name": "getResource",
      "outputs": [
        {
          "internalType": "uint256",
          "name": "",
          "type": "uint256"
        }
      ],
      "stateMutability": "view",
      "type": "function"
    },
    {
      "inputs": [
        {
          "internalType": "uint256",
          "name": "anyId",
          "type": "uint256"
        }
      ],
      "name": "getState",
      "outputs": [
        {
          "components": [
            {
              "internalType": "enum IPermissionedRegistry.Status",
              "name": "status",
              "type": "uint8"
            },
            {
              "internalType": "uint64",
              "name": "expiry",
              "type": "uint64"
            },
            {
              "internalType": "address",
              "name": "latestOwner",
              "type": "address"
            },
            {
              "internalType": "uint256",
              "name": "tokenId",
              "type": "uint256"
            },
            {
              "internalType": "uint256",
              "name": "resource",
              "type": "uint256"
            }
          ],
          "internalType": "struct IPermissionedRegistry.State",
          "name": "state",
          "type": "tuple"
        }
      ],
      "stateMutability": "view",
      "type": "function"
    },
    {
      "inputs": [
        {
          "internalType": "uint256",
          "name": "anyId",
          "type": "uint256"
        }
      ],
      "name": "getStatus",
      "outputs": [
        {
          "internalType": "enum IPermissionedRegistry.Status",
          "name": "",
          "type": "uint8"
        }
      ],
      "stateMutability": "view",
      "type": "function"
    },
    {
      "inputs": [
        {
          "internalType": "string",
          "name": "label",
          "type": "string"
        }
      ],
      "name": "getSubregistry",
      "outputs": [
        {
          "internalType": "contract IRegistry",
          "name": "",
          "type": "address"
        }
      ],
      "stateMutability": "view",
      "type": "function"
    },
    {
      "inputs": [
        {
          "internalType": "uint256",
          "name": "anyId",
          "type": "uint256"
        }
      ],
      "name": "getTokenId",
      "outputs": [
        {
          "internalType": "uint256",
          "name": "",
          "type": "uint256"
        }
      ],
      "stateMutability": "view",
      "type": "function"
    },
    {
      "inputs": [
        {
          "internalType": "uint256",
          "name": "anyId",
          "type": "uint256"
        },
        {
          "internalType": "uint256",
          "name": "roleBitmap",
          "type": "uint256"
        },
        {
          "internalType": "address",
          "name": "account",
          "type": "address"
        }
      ],
      "name": "grantRoles",
      "outputs": [
        {
          "internalType": "bool",
          "name": "",
          "type": "bool"
        }
      ],
      "stateMutability": "nonpayable",
      "type": "function"
    },
    {
      "inputs": [
        {
          "internalType": "uint256",
          "name": "roleBitmap",
          "type": "uint256"
        },
        {
          "internalType": "address",
          "name": "account",
          "type": "address"
        }
      ],
      "name": "grantRootRoles",
      "outputs": [
        {
          "internalType": "bool",
          "name": "",
          "type": "bool"
        }
      ],
      "stateMutability": "nonpayable",
      "type": "function"
    },
    {
      "inputs": [
        {
          "internalType": "uint256",
          "name": "anyId",
          "type": "uint256"
        },
        {
          "internalType": "uint256",
          "name": "roleBitmap",
          "type": "uint256"
        }
      ],
      "name": "hasAssignees",
      "outputs": [
        {
          "internalType": "bool",
          "name": "",
          "type": "bool"
        }
      ],
      "stateMutability": "view",
      "type": "function"
    },
    {
      "inputs": [
        {
          "internalType": "uint256",
          "name": "anyId",
          "type": "uint256"
        },
        {
          "internalType": "uint256",
          "name": "roleBitmap",
          "type": "uint256"
        },
        {
          "internalType": "address",
          "name": "account",
          "type": "address"
        }
      ],
      "name": "hasRoles",
      "outputs": [
        {
          "internalType": "bool",
          "name": "",
          "type": "bool"
        }
      ],
      "stateMutability": "view",
      "type": "function"
    },
    {
      "inputs": [
        {
          "internalType": "uint256",
          "name": "roleBitmap",
          "type": "uint256"
        },
        {
          "internalType": "address",
          "name": "account",
          "type": "address"
        }
      ],
      "name": "hasRootRoles",
      "outputs": [
        {
          "internalType": "bool",
          "name": "",
          "type": "bool"
        }
      ],
      "stateMutability": "view",
      "type": "function"
    },
    {
      "inputs": [
        {
          "internalType": "address",
          "name": "admin",
          "type": "address"
        },
        {
          "internalType": "uint256",
          "name": "roleBitmap",
          "type": "uint256"
        }
      ],
      "name": "initialize",
      "outputs": [],
      "stateMutability": "nonpayable",
      "type": "function"
    },
    {
      "inputs": [
        {
          "internalType": "address",
          "name": "account",
          "type": "address"
        },
        {
          "internalType": "address",
          "name": "operator",
          "type": "address"
        }
      ],
      "name": "isApprovedForAll",
      "outputs": [
        {
          "internalType": "bool",
          "name": "",
          "type": "bool"
        }
      ],
      "stateMutability": "view",
      "type": "function"
    },
    {
      "inputs": [
        {
          "internalType": "uint256",
          "name": "tokenId",
          "type": "uint256"
        }
      ],
      "name": "latestOwnerOf",
      "outputs": [
        {
          "internalType": "address",
          "name": "",
          "type": "address"
        }
      ],
      "stateMutability": "view",
      "type": "function"
    },
    {
      "inputs": [
        {
          "internalType": "uint256",
          "name": "tokenId",
          "type": "uint256"
        }
      ],
      "name": "ownerOf",
      "outputs": [
        {
          "internalType": "address",
          "name": "",
          "type": "address"
        }
      ],
      "stateMutability": "view",
      "type": "function"
    },
    {
      "inputs": [],
      "name": "proxiableUUID",
      "outputs": [
        {
          "internalType": "bytes32",
          "name": "",
          "type": "bytes32"
        }
      ],
      "stateMutability": "view",
      "type": "function"
    },
    {
      "inputs": [
        {
          "internalType": "string",
          "name": "label",
          "type": "string"
        },
        {
          "internalType": "address",
          "name": "owner",
          "type": "address"
        },
        {
          "internalType": "contract IRegistry",
          "name": "registry",
          "type": "address"
        },
        {
          "internalType": "address",
          "name": "resolver",
          "type": "address"
        },
        {
          "internalType": "uint256",
          "name": "roleBitmap",
          "type": "uint256"
        },
        {
          "internalType": "uint64",
          "name": "expiry",
          "type": "uint64"
        }
      ],
      "name": "register",
      "outputs": [
        {
          "internalType": "uint256",
          "name": "tokenId",
          "type": "uint256"
        }
      ],
      "stateMutability": "nonpayable",
      "type": "function"
    },
    {
      "inputs": [
        {
          "internalType": "uint256",
          "name": "anyId",
          "type": "uint256"
        },
        {
          "internalType": "uint64",
          "name": "newExpiry",
          "type": "uint64"
        }
      ],
      "name": "renew",
      "outputs": [],
      "stateMutability": "nonpayable",
      "type": "function"
    },
    {
      "inputs": [
        {
          "internalType": "uint256",
          "name": "anyId",
          "type": "uint256"
        },
        {
          "internalType": "uint256",
          "name": "roleBitmap",
          "type": "uint256"
        },
        {
          "internalType": "address",
          "name": "account",
          "type": "address"
        }
      ],
      "name": "revokeRoles",
      "outputs": [
        {
          "internalType": "bool",
          "name": "",
          "type": "bool"
        }
      ],
      "stateMutability": "nonpayable",
      "type": "function"
    },
    {
      "inputs": [
        {
          "internalType": "uint256",
          "name": "roleBitmap",
          "type": "uint256"
        },
        {
          "internalType": "address",
          "name": "account",
          "type": "address"
        }
      ],
      "name": "revokeRootRoles",
      "outputs": [
        {
          "internalType": "bool",
          "name": "",
          "type": "bool"
        }
      ],
      "stateMutability": "nonpayable",
      "type": "function"
    },
    {
      "inputs": [
        {
          "internalType": "uint256",
          "name": "anyId",
          "type": "uint256"
        }
      ],
      "name": "roleCount",
      "outputs": [
        {
          "internalType": "uint256",
          "name": "",
          "type": "uint256"
        }
      ],
      "stateMutability": "view",
      "type": "function"
    },
    {
      "inputs": [
        {
          "internalType": "uint256",
          "name": "anyId",
          "type": "uint256"
        },
        {
          "internalType": "address",
          "name": "account",
          "type": "address"
        }
      ],
      "name": "roles",
      "outputs": [
        {
          "internalType": "uint256",
          "name": "",
          "type": "uint256"
        }
      ],
      "stateMutability": "view",
      "type": "function"
    },
    {
      "inputs": [
        {
          "internalType": "address",
          "name": "from",
          "type": "address"
        },
        {
          "internalType": "address",
          "name": "to",
          "type": "address"
        },
        {
          "internalType": "uint256[]",
          "name": "ids",
          "type": "uint256[]"
        },
        {
          "internalType": "uint256[]",
          "name": "values",
          "type": "uint256[]"
        },
        {
          "internalType": "bytes",
          "name": "data",
          "type": "bytes"
        }
      ],
      "name": "safeBatchTransferFrom",
      "outputs": [],
      "stateMutability": "nonpayable",
      "type": "function"
    },
    {
      "inputs": [
        {
          "internalType": "address",
          "name": "from",
          "type": "address"
        },
        {
          "internalType": "address",
          "name": "to",
          "type": "address"
        },
        {
          "internalType": "uint256",
          "name": "id",
          "type": "uint256"
        },
        {
          "internalType": "uint256",
          "name": "value",
          "type": "uint256"
        },
        {
          "internalType": "bytes",
          "name": "data",
          "type": "bytes"
        }
      ],
      "name": "safeTransferFrom",
      "outputs": [],
      "stateMutability": "nonpayable",
      "type": "function"
    },
    {
      "inputs": [
        {
          "internalType": "address",
          "name": "operator",
          "type": "address"
        },
        {
          "internalType": "bool",
          "name": "approved",
          "type": "bool"
        }
      ],
      "name": "setApprovalForAll",
      "outputs": [],
      "stateMutability": "nonpayable",
      "type": "function"
    },
    {
      "inputs": [
        {
          "internalType": "contract IRegistry",
          "name": "parent",
          "type": "address"
        },
        {
          "internalType": "string",
          "name": "label",
          "type": "string"
        }
      ],
      "name": "setParent",
      "outputs": [],
      "stateMutability": "nonpayable",
      "type": "function"
    },
    {
      "inputs": [
        {
          "internalType": "uint256",
          "name": "anyId",
          "type": "uint256"
        },
        {
          "internalType": "address",
          "name": "resolver",
          "type": "address"
        }
      ],
      "name": "setResolver",
      "outputs": [],
      "stateMutability": "nonpayable",
      "type": "function"
    },
    {
      "inputs": [
        {
          "internalType": "uint256",
          "name": "anyId",
          "type": "uint256"
        },
        {
          "internalType": "contract IRegistry",
          "name": "registry",
          "type": "address"
        }
      ],
      "name": "setSubregistry",
      "outputs": [],
      "stateMutability": "nonpayable",
      "type": "function"
    },
    {
      "inputs": [
        {
          "internalType": "bytes4",
          "name": "interfaceId",
          "type": "bytes4"
        }
      ],
      "name": "supportsInterface",
      "outputs": [
        {
          "internalType": "bool",
          "name": "",
          "type": "bool"
        }
      ],
      "stateMutability": "view",
      "type": "function"
    },
    {
      "inputs": [
        {
          "internalType": "uint256",
          "name": "anyId",
          "type": "uint256"
        }
      ],
      "name": "unregister",
      "outputs": [],
      "stateMutability": "nonpayable",
      "type": "function"
    },
    {
      "inputs": [
        {
          "internalType": "address",
          "name": "newImplementation",
          "type": "address"
        },
        {
          "internalType": "bytes",
          "name": "data",
          "type": "bytes"
        }
      ],
      "name": "upgradeToAndCall",
      "outputs": [],
      "stateMutability": "payable",
      "type": "function"
    },
    {
      "inputs": [
        {
          "internalType": "uint256",
          "name": "tokenId",
          "type": "uint256"
        }
      ],
      "name": "uri",
      "outputs": [
        {
          "internalType": "string",
          "name": "",
          "type": "string"
        }
      ],
      "stateMutability": "view",
      "type": "function"
    }
  ],
  "contractName": "UserRegistry",
  "sourceName": "src/registry/UserRegistry.sol",
  "bytecode": "0x60e06040523060c052348015610013575f80fd5b50604051614f7c380380614f7c83398101604081905261003291610d52565b6001600160a01b03808316608052811660a05281815f806100558180808061006f565b505050505061006861018160201b60201c565b5050610f72565b5f835f0361007e57505f610179565b6100878461021e565b6001600160a01b0383166100ae5760405163761fe2c960e11b815260040160405180910390fd5b5f8581526002602090815260408083206001600160a01b0387168452909152902054848117808214610173575f8781526002602090815260408083206001600160a01b038916845290915290208190558119861661010e88826001610267565b841561012157610121888785858b610397565b60408051848152602081018490526001600160a01b038816918a917f0d35bf721a39b614de00ca5038e1deb0cb0c69a278645e83405a7226cf80ba3c910160405180910390a360019350505050610179565b5f925050505b949350505050565b5f61018a6103a7565b805490915068010000000000000000900460ff16156101bc5760405163f92ee8a960e01b815260040160405180910390fd5b80546001600160401b039081161461021b5780546001600160401b0319166001600160401b0390811782556040519081527fc7f505b2f371ae2175ee4913f4499e1f2633a7b5936321eed1cdaeb6115181d29060200160405180910390a15b50565b7feeeeeeeeeeeeeeeeeeeeeeeeeeeeeeeeeeeeeeeeeeeeeeeeeeeeeeeeeeeeeeee81161561021b57604051630153d96960e51b8152600481018290526024015b60405180910390fd5b5f610271836103d1565b90508115610307575f848152600360205260409020546102b79082161980195f80516020614f5c83398151915291909101165f80516020614f3c83398151915216151590565b156102df57604051631f22ca6960e31b8152600481018590526024810184905260440161025e565b5f84815260036020526040812080548592906102fc908490610d9e565b909155506103919050565b5f84815260036020526040902054610346901982161980195f80516020614f5c83398151915291909101165f80516020614f3c83398151915216151590565b1561036e57604051631f80c19b60e01b8152600481018590526024810184905260440161025e565b5f848152600360205260408120805485929061038b908490610db1565b90915550505b50505050565b6103a0856103eb565b5050505050565b5f807ff0c57e16840df040f15088dc2f81fe391c3923bec73e23a9662efc9c229c6a005b92915050565b5f6103db8261021e565b50600181901b17600281901b1790565b801561021b5763ffffffff811681185f9081526006602052604081209061041283836104db565b5f818152602081905260409020549091506001600160a01b0316610438818360016104fc565b8254839060049061045690640100000000900463ffffffff16610dc4565b91906101000a81548163ffffffff021916908363ffffffff1602179055505f61048583856104db60201b60201c565b90506104a88282600160405180602001604052805f81525061056260201b60201c565b604051819084907f4adeae13ec8831392865da923fda1c23d6894f7acb41defa2472480cd4b47d58905f90a35050505050565b80545f9063ffffffff808516851864010000000090920416185b9392505050565b6001600160a01b03831661052457604051626a0d4560e21b81525f600482015260240161025e565b604080516001808252602082018590528183019081526060820184905260a082019092525f608082018181529192916103a0918791859085906105c5565b6001600160a01b03841661058b57604051632bfa23e760e11b81525f600482015260240161025e565b604080516001808252602082018690528183019081526060820185905260808201909252906105bd5f878484876105c5565b505050505050565b6105d185858585610621565b6001600160a01b038416156103a0575f6105e9610731565b90508351600103610613576020848101519084015161060c83898985858961073f565b50506105bd565b6105bd818787878787610869565b5f6001600160a01b0384161580159061064257506001600160a01b03851615155b905080156106d9575f5b83518110156106d75761068384828151811061066a5761066a610de6565b60200260200101516001609c1b8861095060201b60201c565b6106cf5783818151811061069957610699610de6565b6020026020010151866040516372c7b6ad60e11b815260040161025e9291909182526001600160a01b0316602082015260400190565b60010161064c565b505b6106e5858585856109af565b80156103a0575f5b83518110156105bd5761072961072185838151811061070e5761070e610de6565b6020026020010151610bb860201b60201c565b87875f610bde565b6001016106ed565b5f61073a610c1f565b905090565b6001600160a01b0384163b156105bd5760405163f23a6e6160e01b81526001600160a01b0385169063f23a6e61906107839089908990889088908890600401610e28565b6020604051808303815f875af19250505080156107bd575060408051601f3d908101601f191682019092526107ba91810190610e6c565b60015b610824573d8080156107ea576040519150601f19603f3d011682016040523d82523d5f602084013e6107ef565b606091505b5080515f0361081c57604051632bfa23e760e11b81526001600160a01b038616600482015260240161025e565b805181602001fd5b6001600160e01b0319811663f23a6e6160e01b1461086057604051632bfa23e760e11b81526001600160a01b038616600482015260240161025e565b50505050505050565b6001600160a01b0384163b156105bd5760405163bc197c8160e01b81526001600160a01b0385169063bc197c81906108ad9089908990889088908890600401610ecd565b6020604051808303815f875af19250505080156108e7575060408051601f3d908101601f191682019092526108e491810190610e6c565b60015b610914573d8080156107ea576040519150601f19603f3d011682016040523d82523d5f602084013e6107ef565b6001600160e01b0319811663bc197c8160e01b1461086057604051632bfa23e760e11b81526001600160a01b038616600482015260240161025e565b5f61017961095d85610bb8565b5f9081526002602090815260408083206001600160a01b03871684528252808320547fac33ff75c19e70fe83507db0d683fd3465c996598dc972688b7ace676c89077b90925290912054178416841490565b80518251146109de5781518151604051635b05999160e01b81526004810192909252602482015260440161025e565b5f6109e7610731565b90505f5b8351811015610ada576020818102858101820151908501909101518015610ad0575f828152602081905260409020546001600160a01b039081169089168114610a66576040516303dee4c560e01b81526001600160a01b038a1660048201525f6024820152604481018390526064810184905260840161025e565b6001821115610aa8576040516303dee4c560e01b81526001600160a01b038a16600482015260016024820152604481018390526064810184905260840161025e565b505f82815260208190526040902080546001600160a01b0319166001600160a01b0389161790555b50506001016109eb565b508251600103610b5a5760208301515f906020840151909150856001600160a01b0316876001600160a01b0316846001600160a01b03167fc3d58168c5ae7397731d063d5bbf3d657854427343f4c083240f7aacaa2d0f628585604051610b4b929190918252602082015260400190565b60405180910390a450506103a0565b836001600160a01b0316856001600160a01b0316826001600160a01b03167f4a39dc06d4c0dbc64b70af90fd698a233a518aa5d07e595d983b8c0526c8f7fb8686604051610ba9929190610f2a565b60405180910390a45050505050565b5f6103cb82610bd98163ffffffff8116185f90815260066020526040902090565b610cbc565b5f8481526002602090815260408083206001600160a01b038716845290915290205480156103a057610c1285828685610cd2565b506105bd8582858561006f565b6080515f906001600160a01b0316610c3657503390565b60805160405163110ac5cb60e21b81523360048201525f916001600160a01b03169063442b172c90602401602060405180830381865afa158015610c7c573d5f803e3d5ffd5b505050506040513d601f19601f82011682018060405250810190610ca09190610f57565b90506001600160a01b038116610cb7573391505090565b919050565b80545f9063ffffffff80851685189116186104f5565b5f610cdc8461021e565b5f8581526002602090815260408083206001600160a01b038716845290915290205484198116808214610173575f8781526002602090815260408083206001600160a01b038916845290915281208290558683169061010e9089908390610267565b6001600160a01b038116811461021b575f80fd5b5f8060408385031215610d63575f80fd5b8251610d6e81610d3e565b6020840151909250610d7f81610d3e565b809150509250929050565b634e487b7160e01b5f52601160045260245ffd5b808201808211156103cb576103cb610d8a565b818103818111156103cb576103cb610d8a565b5f63ffffffff808316818103610ddc57610ddc610d8a565b6001019392505050565b634e487b7160e01b5f52603260045260245ffd5b5f81518084528060208401602086015e5f602082860101526020601f19601f83011685010191505092915050565b6001600160a01b03868116825285166020820152604081018490526060810183905260a0608082018190525f90610e6190830184610dfa565b979650505050505050565b5f60208284031215610e7c575f80fd5b81516001600160e01b0319811681146104f5575f80fd5b5f815180845260208085019450602084015f5b83811015610ec257815187529582019590820190600101610ea6565b509495945050505050565b6001600160a01b0386811682528516602082015260a0604082018190525f90610ef890830186610e93565b8281036060840152610f0a8186610e93565b90508281036080840152610f1e8185610dfa565b98975050505050505050565b604081525f610f3c6040830185610e93565b8281036020840152610f4e8185610e93565b95945050505050565b5f60208284031215610f67575f80fd5b81516104f581610d3e565b60805160a05160c051613f76610fc65f395f8181611f6901528181611f92015261212d01525f81816105bb01528181611ce50152611d5301525f818161047f015281816125de015261263f0152613f765ff3fe6080604052600436106102b5575f3560e01c80635357263f11610170578063a22cb465116100d1578063ce156e8211610087578063e4ae7d7711610062578063e4ae7d771461087b578063e985e9c51461089a578063f242432a146108e1575f80fd5b8063ce156e821461081e578063d3bf89b11461083d578063dfa70d8b1461085c575f80fd5b8063bc7b6d62116100b7578063bc7b6d62146107c1578063bd242bcb146107e0578063cd6dc687146107ff575f80fd5b8063a22cb4651461075a578063ad3cb1cc14610779575f80fd5b8063781ef8db1161012657806380f760211161010c57806380f76021146106fa57806385f3e6431461071c578063a02b161e1461073b575f80fd5b8063781ef8db146106855780637c300586146106db575f80fd5b80635adf4724116101565780635adf47241461061b5780635c622a0e1461063a5780636352211e14610666575f80fd5b80635357263f146105dd5780635569f33d146105fc575f80fd5b80632f27fa241161021a57806344c9af28116101d05780634f1ef286116101b65780634f1ef2861461058357806352d1902d14610596578063531b9d6d146105aa575f80fd5b806344c9af281461052b5780634e1273f414610557575f80fd5b8063341ec55911610200578063341ec559146104b957806335af6216146104d85780633634f911146104f7575f80fd5b80632f27fa241461044f578063319c22bb1461046e575f80fd5b806313c726081161026f5780631c3fc3eb116102555780631c3fc3eb146103fc5780631e8fca2d1461040f5780632eb2c2d61461042e575f80fd5b806313c726081461038457806314ff5ea3146103dd575f80fd5b8063072d5d771161029f578063072d5d771461031a5780630e89341c1461033957806311b8e00a14610365575f80fd5b8062fdd58e146102b957806301ffc9a7146102eb575b5f80fd5b3480156102c4575f80fd5b506102d86102d336600461347c565b610900565b6040519081526020015b60405180910390f35b3480156102f6575f80fd5b5061030a6103053660046134bb565b610937565b60405190151581526020016102e2565b348015610325575f80fd5b5061030a6103343660046134d6565b610974565b348015610344575f80fd5b50610358610353366004613504565b61099f565b6040516102e29190613549565b348015610370575f80fd5b5061030a61037f36600461355b565b6109aa565b34801561038f575f80fd5b506103c461039e366004613504565b63ffffffff8116185f9081526006602052604090206001015467ffffffffffffffff1690565b60405167ffffffffffffffff90911681526020016102e2565b3480156103e8575f80fd5b506102d86103f7366004613504565b6109c4565b348015610407575f80fd5b506102d85f81565b34801561041a575f80fd5b506102d8610429366004613504565b6109ea565b348015610439575f80fd5b5061044d6104483660046136c3565b610a10565b005b34801561045a575f80fd5b506102d8610469366004613504565b610aad565b348015610479575f80fd5b506104a17f000000000000000000000000000000000000000000000000000000000000000081565b6040516001600160a01b0390911681526020016102e2565b3480156104c4575f80fd5b5061044d6104d33660046134d6565b610acb565b3480156104e3575f80fd5b506104a16104f236600461376a565b610b64565b348015610502575f80fd5b5061051661051136600461355b565b610bf9565b604080519283526020830191909152016102e2565b348015610536575f80fd5b5061054a610545366004613504565b610c19565b6040516102e2919061380a565b348015610562575f80fd5b5061057661057136600461385d565b610cea565b6040516102e29190613953565b61044d610591366004613965565b610db5565b3480156105a1575f80fd5b506102d8610dd4565b3480156105b5575f80fd5b506104a17f000000000000000000000000000000000000000000000000000000000000000081565b3480156105e8575f80fd5b5061044d6105f7366004613965565b610e02565b348015610607575f80fd5b5061044d6106163660046139bf565b610ea3565b348015610626575f80fd5b506102d86106353660046134d6565b610f8b565b348015610645575f80fd5b50610659610654366004613504565b610fbd565b6040516102e291906139e9565b348015610671575f80fd5b506104a1610680366004613504565b611012565b348015610690575f80fd5b5061030a61069f3660046134d6565b6001600160a01b03165f9081527fac33ff75c19e70fe83507db0d683fd3465c996598dc972688b7ace676c89077b602052604090205481161490565b3480156106e6575f80fd5b5061030a6106f53660046139f7565b61107b565b348015610705575f80fd5b5061070e61108f565b6040516102e2929190613a2d565b348015610727575f80fd5b506102d8610736366004613a4e565b611138565b348015610746575f80fd5b5061044d610755366004613504565b6115e2565b348015610765575f80fd5b5061044d610774366004613ad7565b6116ef565b348015610784575f80fd5b506103586040518060400160405280600581526020017f352e302e3000000000000000000000000000000000000000000000000000000081525081565b3480156107cc575f80fd5b5061044d6107db3660046134d6565b611701565b3480156107eb575f80fd5b506104a16107fa366004613504565b61179f565b34801561080a575f80fd5b5061044d61081936600461347c565b6117bb565b348015610829575f80fd5b5061030a6108383660046134d6565b61191c565b348015610848575f80fd5b5061030a6108573660046139f7565b61193e565b348015610867575f80fd5b5061030a6108763660046139f7565b61199d565b348015610886575f80fd5b506104a161089536600461376a565b6119b1565b3480156108a5575f80fd5b5061030a6108b4366004613b07565b6001600160a01b039182165f90815260016020908152604080832093909416825291909152205460ff1690565b3480156108ec575f80fd5b5061044d6108fb366004613b33565b611a27565b5f826001600160a01b031661091483611012565b6001600160a01b031614610928575f61092b565b60015b60ff1690505b92915050565b5f6001600160e01b031982167fb0f3d367000000000000000000000000000000000000000000000000000000001480610931575061093182611ab7565b5f80836109898282610984611b5c565b611b6a565b6109965f86866001611bb8565b95945050505050565b606061093182611ce1565b5f6109bd6109b7846109ea565b83611dc6565b9392505050565b5f610931826109e58463ffffffff8116185f90815260066020526040902090565b611ddd565b5f61093182610a0b8463ffffffff8116185f90815260066020526040902090565b611dfb565b5f610a19611b5c565b9050806001600160a01b0316866001600160a01b031614158015610a6257506001600160a01b038087165f9081526001602090815260408083209385168352929052205460ff16155b15610a985760405163711bec9160e11b81526001600160a01b038083166004830152871660248201526044015b60405180910390fd5b610aa58686868686611e11565b505050505050565b5f610931610aba836109ea565b5f9081526003602052604090205490565b5f80610ada8462100000611e76565b80547fffffffff0000000000000000000000000000000000000000ffffffffffffffff16600160401b6001600160a01b038716021781559092509050610b1e611b5c565b6001600160a01b0316836001600160a01b0316837fca9c8d517128edd416adf5719242ca6ff93ce234442d95234da53c0ae8a1054060405160405180910390a450505050565b5f80610bbf610ba785858080601f0160208091040260200160405190810160405280939291908181526020018383808284375f92019190915250611ef992505050565b63ffffffff8116185f90815260066020526040902090565b600181015490915067ffffffffffffffff16421015610bef578054600160401b90046001600160a01b0316610bf1565b5f5b949350505050565b5f80610c0d610c07856109ea565b84611f04565b915091505b9250929050565b6040805160a0810182525f8082526020808301828152838501839052606084018390526080840183905263ffffffff8616861883526006909152928120600181015467ffffffffffffffff1693849052919290610c768584611ddd565b606085018190529050610c898584611dfb565b60808501525f8181526020819052604090819020546001600160a01b0316908501819052610cb78382611f27565b85906002811115610cca57610cca6137d6565b90816002811115610cdd57610cdd6137d6565b8152505050505050919050565b60608151835114610d1b5781518351604051635b05999160e01b815260048101929092526024820152604401610a8f565b5f835167ffffffffffffffff811115610d3657610d3661357b565b604051908082528060200260200182016040528015610d5f578160200160208202803683370190505b5090505f5b8451811015610dad57602080820286010151610d8890602080840287010151610900565b828281518110610d9a57610d9a613b97565b6020908102919091010152600101610d64565b509392505050565b610dbd611f5e565b610dc682612017565b610dd08282612035565b5050565b5f610ddd612122565b507f360894a13ba1a3210667c828492db98dca3e2076cc3735a920a3ca505d382bbc90565b610100610e175f82610e12611b5c565b61216b565b6004805473ffffffffffffffffffffffffffffffffffffffff19166001600160a01b0385161790556005610e4b8382613c27565b50610e54611b5c565b6001600160a01b0316836001600160a01b03167fe49f02c945e0ee4a8d961a371289bd054aa21d9ca1b73250ffd4880eb708cff484604051610e969190613549565b60405180910390a3505050565b5f80610eb28462010000611e76565b6001810154919350915067ffffffffffffffff9081169084161015610f1d5760018101546040517f68c1425a00000000000000000000000000000000000000000000000000000000815267ffffffffffffffff91821660048201529084166024820152604401610a8f565b60018101805467ffffffffffffffff191667ffffffffffffffff8516179055610f44611b5c565b6001600160a01b03168367ffffffffffffffff16837f3260962d42d8f7ae0af25cbfdb2983c214a859cfa2ac6df8ea29b534c267d42960405160405180910390a450505050565b5f6109bd610f98846109ea565b5f9081526002602090815260408083206001600160a01b038716845290915290205490565b63ffffffff811681185f90815260066020526040812060018101546109bd9067ffffffffffffffff1661100d610ff38685611ddd565b5f908152602081905260409020546001600160a01b031690565b611f27565b63ffffffff811681185f9081526006602052604081206110328382611ddd565b8314158061104e5750600181015467ffffffffffffffff164210155b611073575f838152602081905260409020546001600160a01b03166109bd565b6109bd565b5f9392505050565b5f610bf1611088856109ea565b84846121c5565b600454600580545f926060926001600160a01b039091169181906110b290613bab565b80601f01602080910402602001604051908101604052809291908181526020018280546110de90613bab565b80156111295780601f1061110057610100808354040283529160200191611129565b820191905f5260205f20905b81548152906001019060200180831161110c57829003601f168201915b50505050509050915091509091565b5f6111428761220a565b50865160208801205f6111678263ffffffff8116185f90815260066020526040902090565b90506111738282611ddd565b5f818152602081905260408120549194506001600160a01b0390911690611198611b5c565b600184015490915067ffffffffffffffff16421061121d576001600160a01b03811630146111cc576111cc5f60018361216b565b6001600160a01b038a161580156111e257508615155b156112185760405163d1a3b35560e01b81525f6004820152602481018890526001600160a01b0382166044820152606401610a8f565b6112e1565b6001600160a01b03821615611260578a6040517fdef545a4000000000000000000000000000000000000000000000000000000008152600401610a8f9190613549565b6001600160a01b038a166112a2578a6040517ff60759e0000000000000000000000000000000000000000000000000000000008152600401610a8f9190613549565b6001600160a01b03811630146112be576112be5f60108361216b565b8567ffffffffffffffff165f036112e157600183015467ffffffffffffffff1695505b67ffffffffffffffff86164210611330576040517ff1d446c300000000000000000000000000000000000000000000000000000000815267ffffffffffffffff87166004820152602401610a8f565b6001600160a01b038216156113c85761134b82866001612284565b825483905f906113609063ffffffff16613cf7565b91906101000a81548163ffffffff021916908363ffffffff160217905550825f01600481819054906101000a900463ffffffff1661139d90613cf7565b91906101000a81548163ffffffff021916908363ffffffff1602179055506113c58584611ddd565b94505b60018301805484546001600160a01b03808d16600160401b9081027fffffffff0000000000000000000000000000000000000000ffffffffffffffff9093169290921787558b81169091026001600160e01b031990921667ffffffffffffffff8a1617919091179091558a1661148457806001600160a01b0316845f1b867f734822851860327a80c624af1471efac6bb0ac641852fc6c7bfeeee3202ae6a88e8a604051611477929190613d19565b60405180910390a4611532565b806001600160a01b0316845f1b867f2fe093918572373e9f1f0368f414dffd0043a74ae8c9fd7b0e390b26a0d20b6e8e8e8b6040516114c593929190613d44565b60405180910390a46114e88a86600160405180602001604052805f8152506122ea565b5f6114f38685611dfb565b905080867f35190fb7cb1f442974e3c68fa2be9cf56828d0043b1cfcfbd17b4efa8566929660405160405180910390a361152f81898d5f611bb8565b50505b6001600160a01b0389161561158357806001600160a01b0316896001600160a01b0316867fca9c8d517128edd416adf5719242ca6ff93ce234442d95234da53c0ae8a1054060405160405180910390a45b6001600160a01b038816156115d457806001600160a01b0316886001600160a01b0316867f9b6b420ff87c91604d447e507cbeedda5df2fa669a6b6534375e41fd3905a8d560405160405180910390a45b505050509695505050505050565b5f806115f083611000611e76565b915091506115fc611b5c565b6001600160a01b0316827f5293e83951c7b759c1ef192ceed240dc2caa652e29ddbd95cafe1d88e5a9cea860405160405180910390a35f828152602081905260409020546001600160a01b031680156116cc5761165b81846001612284565b815482905f906116709063ffffffff16613cf7565b91906101000a81548163ffffffff021916908363ffffffff160217905550815f01600481819054906101000a900463ffffffff166116ad90613cf7565b91906101000a81548163ffffffff021916908363ffffffff1602179055505b50600101805467ffffffffffffffff19164267ffffffffffffffff161790555050565b610dd06116fa611b5c565b8383612345565b5f80611711846301000000611e76565b6001810180547fffffffff0000000000000000000000000000000000000000ffffffffffffffff16600160401b6001600160a01b038816021790559092509050611759611b5c565b6001600160a01b0316836001600160a01b0316837f9b6b420ff87c91604d447e507cbeedda5df2fa669a6b6534375e41fd3905a8d560405160405180910390a450505050565b5f818152602081905260408120546001600160a01b0316610931565b5f6117c46123eb565b805490915060ff600160401b820416159067ffffffffffffffff165f811580156117eb5750825b90505f8267ffffffffffffffff1660011480156118075750303b155b905081158015611815575080155b1561184c576040517ff92ee8a900000000000000000000000000000000000000000000000000000000815260040160405180910390fd5b845467ffffffffffffffff19166001178555831561187b57845468ff00000000000000001916600160401b1785555b6001600160a01b0387166118bb576040517f49e27cff00000000000000000000000000000000000000000000000000000000815260040160405180910390fd5b6118c75f87895f611bb8565b50831561191357845468ff000000000000000019168555604051600181527fc7f505b2f371ae2175ee4913f4499e1f2633a7b5936321eed1cdaeb6115181d29060200160405180910390a15b50505050505050565b5f8083611931828261192c611b5c565b612413565b6109965f86866001612474565b5f610bf161194b856109ea565b5f9081526002602090815260408083206001600160a01b03871684528252808320547fac33ff75c19e70fe83507db0d683fd3465c996598dc972688b7ace676c89077b90925290912054178416841490565b5f610bf16119aa856109ea565b84846124e0565b5f806119f4610ba785858080601f0160208091040260200160405190810160405280939291908181526020018383808284375f92019190915250611ef992505050565b600181015490915067ffffffffffffffff16421015610bef576001810154600160401b90046001600160a01b0316610bf1565b5f611a30611b5c565b9050806001600160a01b0316866001600160a01b031614158015611a7957506001600160a01b038087165f9081526001602090815260408083209385168352929052205460ff16155b15611aaa5760405163711bec9160e11b81526001600160a01b03808316600483015287166024820152604401610a8f565b610aa5868686868661251b565b5f6001600160e01b031982167fafff3a63000000000000000000000000000000000000000000000000000000001480611b1957506001600160e01b031982167fb844ab6c00000000000000000000000000000000000000000000000000000000145b80611b4d57506001600160e01b031982167f51f67f4000000000000000000000000000000000000000000000000000000000145b8061093157506109318261259e565b5f611b656125db565b905090565b5f611b7584836126cc565b90508019831615611bb25760405163d1a3b35560e01b815260048101859052602481018490526001600160a01b0383166044820152606401610a8f565b50505050565b5f835f03611bc757505f610bf1565b611bd0846127b3565b6001600160a01b038316611c10576040517fec3fc59200000000000000000000000000000000000000000000000000000000815260040160405180910390fd5b5f8581526002602090815260408083206001600160a01b0387168452909152902054848117808214611cd5575f8781526002602090815260408083206001600160a01b0389168452909152902081905581198616611c7088826001612813565b8415611c8357611c83888785858b6129a8565b60408051848152602081018490526001600160a01b038816918a917f0d35bf721a39b614de00ca5038e1deb0cb0c69a278645e83405a7226cf80ba3c910160405180910390a360019350505050610bf1565b505f9695505050505050565b60607f00000000000000000000000000000000000000000000000000000000000000006001600160a01b0316611d2457505060408051602081019091525f815290565b6040517f1675f455000000000000000000000000000000000000000000000000000000008152600481018390527f00000000000000000000000000000000000000000000000000000000000000006001600160a01b031690631675f455906024015f60405180830381865afa158015611d9f573d5f803e3d5ffd5b505050506040513d5f823e601f3d908101601f191682016040526109319190810190613d7f565b5f80611dd28484610bf9565b501515949350505050565b80545f9063ffffffff808516851864010000000090920416186109bd565b80545f9063ffffffff80851685189116186109bd565b6001600160a01b038416611e3a57604051632bfa23e760e11b81525f6004820152602401610a8f565b6001600160a01b038516611e6257604051626a0d4560e21b81525f6004820152602401610a8f565b611e6f85858585856129b1565b5050505050565b63ffffffff821682185f908152600660205260408120611e968482611ddd565b600182015490925067ffffffffffffffff164210611ee3576040517fc44e237400000000000000000000000000000000000000000000000000000000815260048101839052602401610a8f565b610c12611ef08583611dfb565b84610e12611b5c565b805160209091012090565b5f80611f0f83612a0d565b5f948552600360205260409094205484169492505050565b5f67ffffffffffffffff83164210611f4057505f610931565b6001600160a01b038216611f5657506001610931565b506002610931565b306001600160a01b037f0000000000000000000000000000000000000000000000000000000000000000161480611ff757507f00000000000000000000000000000000000000000000000000000000000000006001600160a01b0316611feb7f360894a13ba1a3210667c828492db98dca3e2076cc3735a920a3ca505d382bbc546001600160a01b031690565b6001600160a01b031614155b156120155760405163703e46dd60e11b815260040160405180910390fd5b565b6f10000000000000000000000000000000610dd05f82610e12611b5c565b816001600160a01b03166352d1902d6040518163ffffffff1660e01b8152600401602060405180830381865afa92505050801561208f575060408051601f3d908101601f1916820190925261208c91810190613df4565b60015b6120b757604051634c9c8ce360e01b81526001600160a01b0383166004820152602401610a8f565b7f360894a13ba1a3210667c828492db98dca3e2076cc3735a920a3ca505d382bbc8114612113576040517faa1d49a400000000000000000000000000000000000000000000000000000000815260048101829052602401610a8f565b61211d8383612a27565b505050565b306001600160a01b037f000000000000000000000000000000000000000000000000000000000000000016146120155760405163703e46dd60e11b815260040160405180910390fd5b61217683838361193e565b61211d576040517f4b27a13300000000000000000000000000000000000000000000000000000000815260048101849052602481018390526001600160a01b0382166044820152606401610a8f565b5f83836121d58282610984611b5c565b856121f357604051631850848b60e31b815260040160405180910390fd5b6122008686866001611bb8565b9695505050505050565b80515f90808203612247576040517fbf9a274000000000000000000000000000000000000000000000000000000000815260040160405180910390fd5b60ff81111561093157826040517fdab6c73c000000000000000000000000000000000000000000000000000000008152600401610a8f9190613549565b6001600160a01b0383166122ac57604051626a0d4560e21b81525f6004820152602401610a8f565b604080516001808252602082018590528183019081526060820184905260a082019092525f60808201818152919291611e6f918791859085906129b1565b6001600160a01b03841661231357604051632bfa23e760e11b81525f6004820152602401610a8f565b60408051600180825260208201869052818301908152606082018590526080820190925290610aa55f878484876129b1565b6001600160a01b038216612387576040517fced3e1000000000000000000000000000000000000000000000000000000000081525f6004820152602401610a8f565b6001600160a01b038381165f81815260016020908152604080832094871680845294825291829020805460ff191686151590811790915591519182527f17307eab39ab6107e8899845ad3d59bd9653f200f220920489ca2b5937696c319101610e96565b5f807ff0c57e16840df040f15088dc2f81fe391c3923bec73e23a9662efc9c229c6a00610931565b5f61241e8483612a7c565b90508019831615611bb2576040517fa604e31800000000000000000000000000000000000000000000000000000000815260048101859052602481018490526001600160a01b0383166044820152606401610a8f565b5f61247e846127b3565b5f8581526002602090815260408083206001600160a01b038716845290915290205484198116808214611cd5575f8781526002602090815260408083206001600160a01b0389168452909152812082905586831690611c709089908390612813565b5f83836124f0828261192c611b5c565b8561250e57604051631850848b60e31b815260040160405180910390fd5b6122008686866001612474565b6001600160a01b03841661254457604051632bfa23e760e11b81525f6004820152602401610a8f565b6001600160a01b03851661256c57604051626a0d4560e21b81525f6004820152602401610a8f565b6040805160018082526020820186905281830190815260608201859052608082019092529061191387878484876129b1565b5f6001600160e01b031982167f8f452d62000000000000000000000000000000000000000000000000000000001480610931575061093182612b54565b5f7f00000000000000000000000000000000000000000000000000000000000000006001600160a01b031661260f57503390565b6040517f442b172c0000000000000000000000000000000000000000000000000000000081523360048201525f907f00000000000000000000000000000000000000000000000000000000000000006001600160a01b03169063442b172c90602401602060405180830381865afa15801561268c573d5f803e3d5ffd5b505050506040513d601f19601f820116820180604052508101906126b09190613e0b565b90506001600160a01b0381166126c7573391505090565b919050565b5f8061276084846001600160a01b03165f8181527fac33ff75c19e70fe83507db0d683fd3465c996598dc972688b7ace676c89077b60209081526040808320549483526002825280832093835292905220547f1111111111111111111111111111111100000000000000000000000000000000911790811660809190911c6f11111111111111111111111111111111161790565b90508361276e579050610931565b5f612792610680866109e58163ffffffff8116185f90815260066020526040902090565b6001600160a01b0316036127a9575f915050610931565b60801c9392505050565b7feeeeeeeeeeeeeeeeeeeeeeeeeeeeeeeeeeeeeeeeeeeeeeeeeeeeeeeeeeeeeeee811615612810576040517f2a7b2d2000000000000000000000000000000000000000000000000000000000815260048101829052602401610a8f565b50565b5f61281d83612a0d565b905081156128e6575f848152600360205260409020547f888888888888888888888888888888888888888888888888888888888888888890821680197feeeeeeeeeeeeeeeeeeeeeeeeeeeeeeeeeeeeeeeeeeeeeeeeeeeeeeeeeeeeeeef011616156128be576040517ff91653480000000000000000000000000000000000000000000000000000000081526004810185905260248101849052604401610a8f565b5f84815260036020526040812080548592906128db908490613e26565b90915550611bb29050565b5f848152600360205260409020547f88888888888888888888888888888888888888888888888888888888888888889019821680197feeeeeeeeeeeeeeeeeeeeeeeeeeeeeeeeeeeeeeeeeeeeeeeeeeeeeeeeeeeeeeef01161615612980576040517f1f80c19b0000000000000000000000000000000000000000000000000000000081526004810185905260248101849052604401610a8f565b5f848152600360205260408120805485929061299d908490613e39565b909155505050505050565b611e6f85612c22565b6129bd85858585612d06565b6001600160a01b03841615611e6f575f6129d5611b5c565b905083516001036129ff57602084810151908401516129f8838989858589612e33565b5050610aa5565b610aa5818787878787612f54565b5f612a17826127b3565b50600181901b17600281901b1790565b612a308261303b565b6040516001600160a01b038316907fbc7cd75a20ee27fd9adebab32041f755214dbc6bffa90cc0225b39da2e5c2d3b905f90a2805115612a745761211d82826130be565b610dd0613127565b5f8215801590612ab657505f612aab610680856109e58163ffffffff8116185f90815260066020526040902090565b6001600160a01b0316145b15612ac257505f610931565b6109bd83836001600160a01b03165f8181527fac33ff75c19e70fe83507db0d683fd3465c996598dc972688b7ace676c89077b60209081526040808320549483526002825280832093835292905220547f1111111111111111111111111111111100000000000000000000000000000000911790811660809190911c6f11111111111111111111111111111111161790565b5f6001600160e01b031982167fd9b67a26000000000000000000000000000000000000000000000000000000001480612bb657506001600160e01b031982167f6352211e00000000000000000000000000000000000000000000000000000000145b80612bea57506001600160e01b031982167f0e89341c00000000000000000000000000000000000000000000000000000000145b8061093157507f01ffc9a7000000000000000000000000000000000000000000000000000000006001600160e01b0319831614610931565b80156128105763ffffffff811681185f90815260066020526040812090612c498383611ddd565b5f818152602081905260409020549091506001600160a01b0316612c6f81836001612284565b82548390600490612c8d90640100000000900463ffffffff16613cf7565b91906101000a81548163ffffffff021916908363ffffffff1602179055505f612cb68385611ddd565b9050612cd38282600160405180602001604052805f8152506122ea565b604051819084907f4adeae13ec8831392865da923fda1c23d6894f7acb41defa2472480cd4b47d58905f90a35050505050565b5f6001600160a01b03841615801590612d2757506001600160a01b03851615155b90508015612de1575f5b8351811015612ddf57612d72848281518110612d4f57612d4f613b97565b60200260200101517310000000000000000000000000000000000000008861193e565b612dd757838181518110612d8857612d88613b97565b6020026020010151866040517fe58f6d5a000000000000000000000000000000000000000000000000000000008152600401610a8f9291909182526001600160a01b0316602082015260400190565b600101612d31565b505b612ded8585858561315f565b8015611e6f575f5b8351811015610aa557612e2b612e23858381518110612e1657612e16613b97565b60200260200101516109ea565b87875f613375565b600101612df5565b6001600160a01b0384163b15610aa55760405163f23a6e6160e01b81526001600160a01b0385169063f23a6e6190612e779089908990889088908890600401613e4c565b6020604051808303815f875af1925050508015612eb1575060408051601f3d908101601f19168201909252612eae91810190613e8e565b60015b612f18573d808015612ede576040519150601f19603f3d011682016040523d82523d5f602084013e612ee3565b606091505b5080515f03612f1057604051632bfa23e760e11b81526001600160a01b0386166004820152602401610a8f565b805181602001fd5b6001600160e01b0319811663f23a6e6160e01b1461191357604051632bfa23e760e11b81526001600160a01b0386166004820152602401610a8f565b6001600160a01b0384163b15610aa55760405163bc197c8160e01b81526001600160a01b0385169063bc197c8190612f989089908990889088908890600401613ea9565b6020604051808303815f875af1925050508015612fd2575060408051601f3d908101601f19168201909252612fcf91810190613e8e565b60015b612fff573d808015612ede576040519150601f19603f3d011682016040523d82523d5f602084013e612ee3565b6001600160e01b0319811663bc197c8160e01b1461191357604051632bfa23e760e11b81526001600160a01b0386166004820152602401610a8f565b806001600160a01b03163b5f0361307057604051634c9c8ce360e01b81526001600160a01b0382166004820152602401610a8f565b7f360894a13ba1a3210667c828492db98dca3e2076cc3735a920a3ca505d382bbc805473ffffffffffffffffffffffffffffffffffffffff19166001600160a01b0392909216919091179055565b60605f80846001600160a01b0316846040516130da9190613f06565b5f60405180830381855af49150503d805f8114613112576040519150601f19603f3d011682016040523d82523d5f602084013e613117565b606091505b50915091506109968583836133b6565b3415612015576040517fb398979f00000000000000000000000000000000000000000000000000000000815260040160405180910390fd5b805182511461318e5781518151604051635b05999160e01b815260048101929092526024820152604401610a8f565b5f613197611b5c565b90505f5b835181101561329757602081810285810182015190850190910151801561328d575f828152602081905260409020546001600160a01b039081169089168114613216576040516303dee4c560e01b81526001600160a01b038a1660048201525f60248201526044810183905260648101849052608401610a8f565b6001821115613258576040516303dee4c560e01b81526001600160a01b038a166004820152600160248201526044810183905260648101849052608401610a8f565b505f828152602081905260409020805473ffffffffffffffffffffffffffffffffffffffff19166001600160a01b0389161790555b505060010161319b565b5082516001036133175760208301515f906020840151909150856001600160a01b0316876001600160a01b0316846001600160a01b03167fc3d58168c5ae7397731d063d5bbf3d657854427343f4c083240f7aacaa2d0f628585604051613308929190918252602082015260400190565b60405180910390a45050611e6f565b836001600160a01b0316856001600160a01b0316826001600160a01b03167f4a39dc06d4c0dbc64b70af90fd698a233a518aa5d07e595d983b8c0526c8f7fb8686604051613366929190613f1c565b60405180910390a45050505050565b5f8481526002602090815260408083206001600160a01b03871684529091529020548015611e6f576133a985828685612474565b50610aa585828585611bb8565b6060826133c65761106e82613426565b81511580156133dd57506001600160a01b0384163b155b1561341f576040517f9996b3150000000000000000000000000000000000000000000000000000000081526001600160a01b0385166004820152602401610a8f565b50806109bd565b8051156134365780518082602001fd5b6040517fd6bda27500000000000000000000000000000000000000000000000000000000815260040160405180910390fd5b6001600160a01b0381168114612810575f80fd5b5f806040838503121561348d575f80fd5b823561349881613468565b946020939093013593505050565b6001600160e01b031981168114612810575f80fd5b5f602082840312156134cb575f80fd5b81356109bd816134a6565b5f80604083850312156134e7575f80fd5b8235915060208301356134f981613468565b809150509250929050565b5f60208284031215613514575f80fd5b5035919050565b5f81518084528060208401602086015e5f602082860101526020601f19601f83011685010191505092915050565b602081525f6109bd602083018461351b565b5f806040838503121561356c575f80fd5b50508035926020909101359150565b634e487b7160e01b5f52604160045260245ffd5b604051601f8201601f1916810167ffffffffffffffff811182821017156135b8576135b861357b565b604052919050565b5f67ffffffffffffffff8211156135d9576135d961357b565b5060051b60200190565b5f82601f8301126135f2575f80fd5b81356020613607613602836135c0565b61358f565b8083825260208201915060208460051b870101935086841115613628575f80fd5b602086015b84811015613644578035835291830191830161362d565b509695505050505050565b5f67ffffffffffffffff8211156136685761366861357b565b50601f01601f191660200190565b5f82601f830112613685575f80fd5b81356136936136028261364f565b8181528460208386010111156136a7575f80fd5b816020850160208301375f918101602001919091529392505050565b5f805f805f60a086880312156136d7575f80fd5b85356136e281613468565b945060208601356136f281613468565b9350604086013567ffffffffffffffff8082111561370e575f80fd5b61371a89838a016135e3565b9450606088013591508082111561372f575f80fd5b61373b89838a016135e3565b93506080880135915080821115613750575f80fd5b5061375d88828901613676565b9150509295509295909350565b5f806020838503121561377b575f80fd5b823567ffffffffffffffff80821115613792575f80fd5b818501915085601f8301126137a5575f80fd5b8135818111156137b3575f80fd5b8660208285010111156137c4575f80fd5b60209290920196919550909350505050565b634e487b7160e01b5f52602160045260245ffd5b6003811061380657634e487b7160e01b5f52602160045260245ffd5b9052565b5f60a08201905061381c8284516137ea565b67ffffffffffffffff60208401511660208301526001600160a01b036040840151166040830152606083015160608301526080830151608083015292915050565b5f806040838503121561386e575f80fd5b823567ffffffffffffffff80821115613885575f80fd5b818501915085601f830112613898575f80fd5b813560206138a8613602836135c0565b82815260059290921b840181019181810190898411156138c6575f80fd5b948201945b838610156138ed5785356138de81613468565b825294820194908201906138cb565b96505086013592505080821115613902575f80fd5b5061390f858286016135e3565b9150509250929050565b5f815180845260208085019450602084015f5b838110156139485781518752958201959082019060010161392c565b509495945050505050565b602081525f6109bd6020830184613919565b5f8060408385031215613976575f80fd5b823561398181613468565b9150602083013567ffffffffffffffff81111561399c575f80fd5b61390f85828601613676565b803567ffffffffffffffff811681146126c7575f80fd5b5f80604083850312156139d0575f80fd5b823591506139e0602084016139a8565b90509250929050565b6020810161093182846137ea565b5f805f60608486031215613a09575f80fd5b83359250602084013591506040840135613a2281613468565b809150509250925092565b6001600160a01b0383168152604060208201525f610bf1604083018461351b565b5f805f805f8060c08789031215613a63575f80fd5b863567ffffffffffffffff811115613a79575f80fd5b613a8589828a01613676565b9650506020870135613a9681613468565b94506040870135613aa681613468565b93506060870135613ab681613468565b925060808701359150613acb60a088016139a8565b90509295509295509295565b5f8060408385031215613ae8575f80fd5b8235613af381613468565b9150602083013580151581146134f9575f80fd5b5f8060408385031215613b18575f80fd5b8235613b2381613468565b915060208301356134f981613468565b5f805f805f60a08688031215613b47575f80fd5b8535613b5281613468565b94506020860135613b6281613468565b93506040860135925060608601359150608086013567ffffffffffffffff811115613b8b575f80fd5b61375d88828901613676565b634e487b7160e01b5f52603260045260245ffd5b600181811c90821680613bbf57607f821691505b602082108103613bdd57634e487b7160e01b5f52602260045260245ffd5b50919050565b601f82111561211d57805f5260205f20601f840160051c81016020851015613c085750805b601f840160051c820191505b81811015611e6f575f8155600101613c14565b815167ffffffffffffffff811115613c4157613c4161357b565b613c5581613c4f8454613bab565b84613be3565b602080601f831160018114613c88575f8415613c715750858301515b5f19600386901b1c1916600185901b178555610aa5565b5f85815260208120601f198616915b82811015613cb657888601518255948401946001909101908401613c97565b5085821015613cd357878501515f19600388901b60f8161c191681555b5050505050600190811b01905550565b634e487b7160e01b5f52601160045260245ffd5b5f63ffffffff808316818103613d0f57613d0f613ce3565b6001019392505050565b604081525f613d2b604083018561351b565b905067ffffffffffffffff831660208301529392505050565b606081525f613d56606083018661351b565b90506001600160a01b038416602083015267ffffffffffffffff83166040830152949350505050565b5f60208284031215613d8f575f80fd5b815167ffffffffffffffff811115613da5575f80fd5b8201601f81018413613db5575f80fd5b8051613dc36136028261364f565b818152856020838501011115613dd7575f80fd5b8160208401602083015e5f91810160200191909152949350505050565b5f60208284031215613e04575f80fd5b5051919050565b5f60208284031215613e1b575f80fd5b81516109bd81613468565b8082018082111561093157610931613ce3565b8181038181111561093157610931613ce3565b5f6001600160a01b03808816835280871660208401525084604083015283606083015260a06080830152613e8360a083018461351b565b979650505050505050565b5f60208284031215613e9e575f80fd5b81516109bd816134a6565b5f6001600160a01b03808816835280871660208401525060a06040830152613ed460a0830186613919565b8281036060840152613ee68186613919565b90508281036080840152613efa818561351b565b98975050505050505050565b5f82518060208501845e5f920191825250919050565b604081525f613f2e6040830185613919565b8281036020840152610996818561391956fea26469706673582212209460792797300dbcb3fb812b1a909524cf10e2a0a89d4b8cd0640dfeb7002bc664736f6c634300081900338888888888888888888888888888888888888888888888888888888888888888eeeeeeeeeeeeeeeeeeeeeeeeeeeeeeeeeeeeeeeeeeeeeeeeeeeeeeeeeeeeeeef",
  "linkReferences": {},
  "deployedLinkReferences": {},
  "immutableReferences": {
    "40019": [
      {
        "length": 32,
        "start": 8041
      },
      {
        "length": 32,
        "start": 8082
      },
      {
        "length": 32,
        "start": 8493
      }
    ],
    "69592": [
      {
        "length": 32,
        "start": 1151
      },
      {
        "length": 32,
        "start": 9694
      },
      {
        "length": 32,
        "start": 9791
      }
    ],
    "73374": [
      {
        "length": 32,
        "start": 1467
      },
      {
        "length": 32,
        "start": 7397
      },
      {
        "length": 32,
        "start": 7507
      }
    ]
  },
  "inputSourceName": "project/src/registry/UserRegistry.sol",
  "devdoc": {
    "errors": {
      "AddressEmptyCode(address)": [
        {
          "details": "There's no code at `target` (it is not a contract)."
        }
      ],
      "CannotReduceExpiry(uint64,uint64)": [
        {
          "details": "Error selector: `0x68c1425a`"
        }
      ],
      "CannotSetPastExpiry(uint64)": [
        {
          "details": "Error selector: `0xf1d446c3`"
        }
      ],
      "EACCannotGrantRoles(uint256,uint256,address)": [
        {
          "details": "Error selector: `0xd1a3b355`"
        }
      ],
      "EACCannotRevokeRoles(uint256,uint256,address)": [
        {
          "details": "Error selector: `0xa604e318`"
        }
      ],
      "EACInvalidAccount()": [
        {
          "details": "Error selector: `0xec3fc592`"
        }
      ],
      "EACInvalidRoleBitmap(uint256)": [
        {
          "details": "Error selector: `0x2a7b2d20`"
        }
      ],
      "EACMaxAssignees(uint256,uint256)": [
        {
          "details": "Error selector: `0xf9165348`"
        }
      ],
      "EACMinAssignees(uint256,uint256)": [
        {
          "details": "Error selector: `0x1f80c19b`"
        }
      ],
      "EACRootResourceNotAllowed()": [
        {
          "details": "Error selector: `0xc2842458`"
        }
      ],
      "EACUnauthorizedAccountRoles(uint256,uint256,address)": [
        {
          "details": "Error selector: `0x4b27a133`"
        }
      ],
      "ERC1155InsufficientBalance(address,uint256,uint256,uint256)": [
        {
          "details": "Indicates an error related to the current `balance` of a `sender`. Used in transfers.",
          "params": {
            "balance": "Current balance for the interacting account.",
            "needed": "Minimum amount required to perform a transfer.",
            "sender": "Address whose tokens are being transferred.",
            "tokenId": "Identifier number of a token."
          }
        }
      ],
      "ERC1155InvalidApprover(address)": [
        {
          "details": "Indicates a failure with the `approver` of a token to be approved. Used in approvals.",
          "params": {
            "approver": "Address initiating an approval operation."
          }
        }
      ],
      "ERC1155InvalidArrayLength(uint256,uint256)": [
        {
          "details": "Indicates an array length mismatch between ids and values in a safeBatchTransferFrom operation. Used in batch transfers.",
          "params": {
            "idsLength": "Length of the array of token identifiers",
            "valuesLength": "Length of the array of token amounts"
          }
        }
      ],
      "ERC1155InvalidOperator(address)": [
        {
          "details": "Indicates a failure with the `operator` to be approved. Used in approvals.",
          "params": {
            "operator": "Address that may be allowed to operate on tokens without being their owner."
          }
        }
      ],
      "ERC1155InvalidReceiver(address)": [
        {
          "details": "Indicates a failure with the token `receiver`. Used in transfers.",
          "params": {
            "receiver": "Address to which tokens are being transferred."
          }
        }
      ],
      "ERC1155InvalidSender(address)": [
        {
          "details": "Indicates a failure with the token `sender`. Used in transfers.",
          "params": {
            "sender": "Address whose tokens are being transferred."
          }
        }
      ],
      "ERC1155MissingApprovalForAll(address,address)": [
        {
          "details": "Indicates a failure with the `operator`’s approval. Used in transfers.",
          "params": {
            "operator": "Address that may be allowed to operate on tokens without being their owner.",
            "owner": "Address of the current owner of a token."
          }
        }
      ],
      "ERC1967InvalidImplementation(address)": [
        {
          "details": "The `implementation` of the proxy is invalid."
        }
      ],
      "ERC1967NonPayable()": [
        {
          "details": "An upgrade function sees `msg.value > 0` that may be lost."
        }
      ],
      "FailedCall()": [
        {
          "details": "A call to an address target failed. The target may have reverted."
        }
      ],
      "InvalidInitialization()": [
        {
          "details": "The contract is already initialized."
        }
      ],
      "InvalidOwner()": [
        {
          "details": "Error selector: `0x49e27cff`"
        }
      ],
      "LabelAlreadyRegistered(string)": [
        {
          "details": "Error selector: `0xdef545a4`"
        }
      ],
      "LabelAlreadyReserved(string)": [
        {
          "details": "Error selector: `0xf60759e0`"
        }
      ],
      "LabelExpired(uint256)": [
        {
          "details": "Error selector: `0xc44e2374`"
        }
      ],
      "LabelIsEmpty()": [
        {
          "details": "The label was empty.      Error selector: `0xbf9a2740`"
        }
      ],
      "LabelIsTooLong(string)": [
        {
          "details": "The label was more than 255 bytes.      Error selector: `0xdab6c73c`"
        }
      ],
      "NotInitializing()": [
        {
          "details": "The contract is not initializing."
        }
      ],
      "TransferDisallowed(uint256,address)": [
        {
          "details": "Error selector: `0xe58f6d5a`"
        }
      ],
      "UUPSUnauthorizedCallContext()": [
        {
          "details": "The call is from an unauthorized context."
        }
      ],
      "UUPSUnsupportedProxiableUUID(bytes32)": [
        {
          "details": "The storage `slot` is unsupported as a UUID."
        }
      ]
    },
    "events": {
      "Approval(address,address,uint256)": {
        "params": {
          "approved": "The approved address.",
          "owner": "The owner of the token.",
          "tokenId": "The token ID."
        }
      },
      "ApprovalForAll(address,address,bool)": {
        "details": "Emitted when `account` grants or revokes permission to `operator` to transfer their tokens, according to `approved`."
      },
      "EACRolesChanged(uint256,address,uint256,uint256)": {
        "params": {
          "account": "The account that the roles were changed for.",
          "newRoleBitmap": "The new roles for the account.",
          "oldRoleBitmap": "The old roles for the account.",
          "resource": "The resource that the roles were changed within."
        }
      },
      "ExpiryUpdated(uint256,uint64,address)": {
        "params": {
          "newExpiry": "The new expiry of the label.",
          "sender": "The sender of the call to update the expiry.",
          "tokenId": "The token ID of the label."
        }
      },
      "Initialized(uint64)": {
        "details": "Triggered when the contract has been initialized or reinitialized."
      },
      "LabelRegistered(uint256,bytes32,string,address,uint64,address)": {
        "params": {
          "expiry": "The expiry of the label.",
          "label": "The label registered.",
          "labelHash": "The label hash registered.",
          "owner": "The owner of the label.",
          "sender": "The sender of the call to register.",
          "tokenId": "The token ID registered."
        }
      },
      "LabelReserved(uint256,bytes32,string,uint64,address)": {
        "params": {
          "expiry": "The expiry of the label.",
          "label": "The label reserved.",
          "labelHash": "The label hash reserved.",
          "sender": "The sender of the call to reserve.",
          "tokenId": "The token ID reserved."
        }
      },
      "LabelUnregistered(uint256,address)": {
        "params": {
          "sender": "The sender of the call to unregister.",
          "tokenId": "The token ID unregistered."
        }
      },
      "ParentUpdated(address,string,address)": {
        "params": {
          "label": "The new label.",
          "parent": "The new parent.",
          "sender": "The sender of the call to update the parent."
        }
      },
      "ResolverUpdated(uint256,address,address)": {
        "params": {
          "resolver": "The new resolver.",
          "sender": "The sender of the call to update the resolver.",
          "tokenId": "The token ID of the label."
        }
      },
      "SubregistryUpdated(uint256,address,address)": {
        "params": {
          "sender": "The sender of the call to update the subregistry.",
          "subregistry": "The new subregistry.",
          "tokenId": "The token ID of the label."
        }
      },
      "TokenRegenerated(uint256,uint256)": {
        "params": {
          "newTokenId": "The new token ID.",
          "oldTokenId": "The old token ID."
        }
      },
      "TokenResource(uint256,uint256)": {
        "params": {
          "resource": "The EAC resource.",
          "tokenId": "The token ID."
        }
      },
      "TransferBatch(address,address,address,uint256[],uint256[])": {
        "details": "Equivalent to multiple {TransferSingle} events, where `operator`, `from` and `to` are the same for all transfers."
      },
      "TransferSingle(address,address,address,uint256,uint256)": {
        "details": "Emitted when `value` amount of tokens of type `id` are transferred from `from` to `to` by `operator`."
      },
      "URI(string,uint256)": {
        "details": "Emitted when the URI for token type `id` changes to `value`, if it is a non-programmatic URI. If an {URI} event was emitted for `id`, the standard https://eips.ethereum.org/EIPS/eip-1155#metadata-extensions[guarantees] that `value` will equal the value returned by {IERC1155MetadataURI-uri}."
      },
      "Upgraded(address)": {
        "details": "Emitted when the implementation is upgraded."
      }
    },
    "kind": "dev",
    "methods": {
      "balanceOf(address,uint256)": {
        "params": {
          "account": "The account to get the balance for.",
          "id": "The token ID."
        },
        "returns": {
          "_0": "balance The balance of the token for the account. This will only ever be 1 or 0."
        }
      },
      "balanceOfBatch(address[],uint256[])": {
        "details": "`accounts` and `ids` must have the same length.",
        "params": {
          "accounts": "The accounts to get the balances for.",
          "ids": "The token IDs."
        },
        "returns": {
          "_0": "batchBalances The balances of the tokens for the accounts. These will only ever be 1 or 0."
        }
      },
      "constructor": {
        "params": {
          "hcaFactory": "The HCA factory.",
          "metadataProvider": "The metadata provider."
        }
      },
      "getAssigneeCount(uint256,uint256)": {
        "params": {
          "resource": "The resource to check.",
          "roleBitmap": "The roles bitmap to check."
        },
        "returns": {
          "counts": "The number of assignees for each of the roles in the given role bitmap, expressed as a packed array of 4-bit ints.",
          "mask": "The mask for the given role bitmap."
        }
      },
      "getExpiry(uint256)": {
        "params": {
          "anyId": "The labelhash, token ID, or resource."
        },
        "returns": {
          "_0": "The expiry of the label, in seconds."
        }
      },
      "getParent()": {
        "returns": {
          "label": "The canonical subdomain of this registry.",
          "parent": "The canonical parent of this registry."
        }
      },
      "getResolver(string)": {
        "params": {
          "label": "The label to fetch a resolver for."
        },
        "returns": {
          "_0": "resolver The address of a resolver responsible for this label, or `address(0)` if none exists."
        }
      },
      "getResource(uint256)": {
        "params": {
          "anyId": "The labelhash, token ID, or resource."
        },
        "returns": {
          "_0": "The resource."
        }
      },
      "getState(uint256)": {
        "params": {
          "anyId": "The labelhash, token ID, or resource."
        },
        "returns": {
          "state": "The state of the label."
        }
      },
      "getStatus(uint256)": {
        "params": {
          "anyId": "The labelhash, token ID, or resource."
        },
        "returns": {
          "_0": "The status of the label."
        }
      },
      "getSubregistry(string)": {
        "params": {
          "label": "The label to resolve."
        },
        "returns": {
          "_0": "The address of the registry for this label, or `address(0)` if none exists."
        }
      },
      "getTokenId(uint256)": {
        "params": {
          "anyId": "The labelhash, token ID, or resource."
        },
        "returns": {
          "_0": "The token ID."
        }
      },
      "grantRoles(uint256,uint256,address)": {
        "params": {
          "account": "The account to grant roles to.",
          "resource": "The resource to grant roles within.",
          "roleBitmap": "The roles bitmap to grant."
        },
        "returns": {
          "_0": "`true` if the roles were granted, `false` otherwise."
        }
      },
      "grantRootRoles(uint256,address)": {
        "details": "The caller must have all the necessary admin roles for the roles being granted.",
        "params": {
          "account": "The account to grant roles to.",
          "roleBitmap": "The roles bitmap to grant."
        },
        "returns": {
          "_0": "`true` if the roles were granted, `false` otherwise."
        }
      },
      "hasAssignees(uint256,uint256)": {
        "params": {
          "resource": "The resource to check.",
          "roleBitmap": "The roles bitmap to check."
        },
        "returns": {
          "_0": "`true` if any of the roles in the given role bitmap has assignees, `false` otherwise."
        }
      },
      "hasRoles(uint256,uint256,address)": {
        "params": {
          "account": "The account to check.",
          "resource": "The resource to check.",
          "roleBitmap": "The roles bitmap to check."
        },
        "returns": {
          "_0": "`true` if `account` has been granted all the given roles in the given resource or the `ROOT_RESOURCE`, `false` otherwise."
        }
      },
      "hasRootRoles(uint256,address)": {
        "params": {
          "account": "The account to check.",
          "roleBitmap": "The roles bitmap to check."
        },
        "returns": {
          "_0": "`true` if `account` has been granted all the given roles in the `ROOT_RESOURCE`, `false` otherwise."
        }
      },
      "initialize(address,uint256)": {
        "details": "Grants the supplied role bitmap to `admin` on the root resource. Reverts if `admin`      is the zero address.",
        "params": {
          "admin": "The address that will receive the specified roles.",
          "roleBitmap": "The role bitmap to grant to `admin`."
        }
      },
      "isApprovedForAll(address,address)": {
        "params": {
          "account": "The account to get the approval for.",
          "operator": "The operator to get the approval for."
        },
        "returns": {
          "_0": "approved The approval status."
        }
      },
      "latestOwnerOf(uint256)": {
        "params": {
          "tokenId": "The token ID to query."
        },
        "returns": {
          "_0": "The latest owner address."
        }
      },
      "ownerOf(uint256)": {
        "params": {
          "id": "The token ID."
        },
        "returns": {
          "_0": "The owner of the token."
        }
      },
      "proxiableUUID()": {
        "details": "Implementation of the ERC-1822 {proxiableUUID} function. This returns the storage slot used by the implementation. It is used to validate the implementation's compatibility when performing an upgrade. IMPORTANT: A proxy pointing at a proxiable contract should not be considered proxiable itself, because this risks bricking a proxy that upgrades to it, by delegating to itself until out of gas. Thus it is critical that this function revert if invoked through a proxy. This is guaranteed by the `notDelegated` modifier."
      },
      "register(string,address,address,address,uint256,uint64)": {
        "details": "If `AVAILABLE`, requires `ROLE_REGISTRAR` on root.         * If `owner` is null (`roleBitmap` must be 0), status becomes `RESERVED` instead of `REGISTERED`.      If `RESERVED`, requires `ROLE_REGISTER_RESERVED` on root.         * If `expiry` is 0, uses current expiry.",
        "params": {
          "expiry": "The expiry of the label, in seconds.",
          "label": "The label to register.",
          "owner": "The address of the owner of the label.",
          "registry": "The registry to set as the label.",
          "resolver": "The resolver to set for the label.",
          "roleBitmap": "The role bitmap to set for the label."
        },
        "returns": {
          "tokenId": "The token ID."
        }
      },
      "renew(uint256,uint64)": {
        "details": "Requires `REGISTERED | RESERVED` and `ROLE_RENEW`.",
        "params": {
          "anyId": "The labelhash, token ID, or resource.",
          "newExpiry": "The new expiry, in seconds."
        }
      },
      "revokeRoles(uint256,uint256,address)": {
        "params": {
          "account": "The account to revoke roles from.",
          "resource": "The resource to revoke roles within.",
          "roleBitmap": "The roles bitmap to revoke."
        },
        "returns": {
          "_0": "`true` if the roles were revoked, `false` otherwise."
        }
      },
      "revokeRootRoles(uint256,address)": {
        "details": "The caller must have all the necessary admin roles for the roles being revoked.",
        "params": {
          "account": "The account to revoke roles from.",
          "roleBitmap": "The roles bitmap to revoke."
        },
        "returns": {
          "_0": "`true` if the roles were revoked, `false` otherwise."
        }
      },
      "roleCount(uint256)": {
        "params": {
          "resource": "The resource to get the role count for."
        },
        "returns": {
          "_0": "count The role count bitmap for the resource."
        }
      },
      "roles(uint256,address)": {
        "params": {
          "account": "The account to get the roles for.",
          "resource": "The resource to get the roles for."
        },
        "returns": {
          "_0": "The roles bitmap for the account in the resource."
        }
      },
      "safeBatchTransferFrom(address,address,uint256[],uint256[],bytes)": {
        "details": "`ids` and `values` must have the same length.If `to` refers to a smart contract, it must implement IERC1155Receiver.onERC1155BatchReceived and return the      acceptance magic value.",
        "params": {
          "data": "Additional data to pass to the receiver.",
          "from": "The address to transfer the tokens from.",
          "ids": "The token IDs.",
          "to": "The address to transfer the tokens to.",
          "values": "The amounts of tokens to transfer."
        }
      },
      "safeTransferFrom(address,address,uint256,uint256,bytes)": {
        "details": "`to` cannot be the zero address.If the caller is not `from`, it must have been approved to spend `from`'s tokens via `setApprovalForAll`.`from` must have a balance of tokens of type `id` of at least `value` amount.If `to` refers to a smart contract, it must implement IERC1155Receiver.onERC1155Received and return the      acceptance magic value.",
        "params": {
          "data": "Additional data to pass to the receiver.",
          "from": "The address to transfer the token from.",
          "id": "The token ID.",
          "to": "The address to transfer the token to.",
          "value": "The amount of tokens to transfer."
        }
      },
      "setApprovalForAll(address,bool)": {
        "params": {
          "approved": "The approval status.",
          "operator": "The operator to set the approval for."
        }
      },
      "setParent(address,string)": {
        "details": "Should emit `ParentUpdated`.",
        "params": {
          "label": "The canonical subdomain of this registry.",
          "parent": "The canonical parent of this registry."
        }
      },
      "setResolver(uint256,address)": {
        "params": {
          "anyId": "The labelhash, token ID, or resource.",
          "resolver": "The new resolver."
        }
      },
      "setSubregistry(uint256,address)": {
        "params": {
          "anyId": "The labelhash, token ID, or resource.",
          "registry": "The new registry."
        }
      },
      "supportsInterface(bytes4)": {
        "details": "Returns true if this contract implements the interface defined by `interfaceId`. See the corresponding https://eips.ethereum.org/EIPS/eip-165#how-interfaces-are-identified[ERC section] to learn more about how these ids are created. This function call must use less than 30 000 gas."
      },
      "unregister(uint256)": {
        "details": "Requires `REGISTERED | RESERVED` and `ROLE_UNREGISTER`.",
        "params": {
          "anyId": "The labelhash, token ID, or resource."
        }
      },
      "upgradeToAndCall(address,bytes)": {
        "custom:oz-upgrades-unsafe-allow-reachable": "delegatecall",
        "details": "Upgrade the implementation of the proxy to `newImplementation`, and subsequently execute the function call encoded in `data`. Calls {_authorizeUpgrade}. Emits an {Upgraded} event."
      },
      "uri(uint256)": {
        "params": {
          "id": "The token ID."
        },
        "returns": {
          "_0": "The URI for the token."
        }
      }
    },
    "title": "UserRegistry",
    "version": 1
  },
  "evm": {
    "gasEstimates": {
      "creation": {
        "codeDepositCost": "3249200",
        "executionCost": "infinite",
        "totalCost": "infinite"
      },
      "external": {
        "HCA_FACTORY()": "infinite",
        "METADATA_PROVIDER()": "infinite",
        "ROOT_RESOURCE()": "250",
        "UPGRADE_INTERFACE_VERSION()": "infinite",
        "balanceOf(address,uint256)": "infinite",
        "balanceOfBatch(address[],uint256[])": "infinite",
        "getAssigneeCount(uint256,uint256)": "5127",
        "getExpiry(uint256)": "2537",
        "getParent()": "infinite",
        "getResolver(string)": "infinite",
        "getResource(uint256)": "2651",
        "getState(uint256)": "infinite",
        "getStatus(uint256)": "infinite",
        "getSubregistry(string)": "infinite",
        "getTokenId(uint256)": "2663",
        "grantRoles(uint256,uint256,address)": "infinite",
        "grantRootRoles(uint256,address)": "infinite",
        "hasAssignees(uint256,uint256)": "infinite",
        "hasRoles(uint256,uint256,address)": "7283",
        "hasRootRoles(uint256,address)": "2642",
        "initialize(address,uint256)": "infinite",
        "isApprovedForAll(address,address)": "infinite",
        "latestOwnerOf(uint256)": "2597",
        "ownerOf(uint256)": "infinite",
        "proxiableUUID()": "infinite",
        "register(string,address,address,address,uint256,uint64)": "infinite",
        "renew(uint256,uint64)": "infinite",
        "revokeRoles(uint256,uint256,address)": "infinite",
        "revokeRootRoles(uint256,address)": "infinite",
        "roleCount(uint256)": "infinite",
        "roles(uint256,address)": "infinite",
        "safeBatchTransferFrom(address,address,uint256[],uint256[],bytes)": "infinite",
        "safeTransferFrom(address,address,uint256,uint256,bytes)": "infinite",
        "setApprovalForAll(address,bool)": "infinite",
        "setParent(address,string)": "infinite",
        "setResolver(uint256,address)": "infinite",
        "setSubregistry(uint256,address)": "infinite",
        "supportsInterface(bytes4)": "infinite",
        "unregister(uint256)": "infinite",
        "upgradeToAndCall(address,bytes)": "infinite",
        "uri(uint256)": "infinite"
      },
      "internal": {
        "_authorizeUpgrade(address)": "infinite"
      }
    }
  },
  "storageLayout": {
    "storage": [
      {
        "astId": 68653,
        "contract": "project/src/registry/UserRegistry.sol:UserRegistry",
        "label": "_owners",
        "offset": 0,
        "slot": "0",
        "type": "t_mapping(t_uint256,t_address)"
      },
      {
        "astId": 68660,
        "contract": "project/src/registry/UserRegistry.sol:UserRegistry",
        "label": "_operatorApprovals",
        "offset": 0,
        "slot": "1",
        "type": "t_mapping(t_address,t_mapping(t_address,t_bool))"
      },
      {
        "astId": 65208,
        "contract": "project/src/registry/UserRegistry.sol:UserRegistry",
        "label": "_roles",
        "offset": 0,
        "slot": "2",
        "type": "t_mapping(t_uint256,t_mapping(t_address,t_uint256))"
      },
      {
        "astId": 65213,
        "contract": "project/src/registry/UserRegistry.sol:UserRegistry",
        "label": "_roleCount",
        "offset": 0,
        "slot": "3",
        "type": "t_mapping(t_uint256,t_uint256)"
      },
      {
        "astId": 73478,
        "contract": "project/src/registry/UserRegistry.sol:UserRegistry",
        "label": "_parentRegistry",
        "offset": 0,
        "slot": "4",
        "type": "t_contract(IRegistry)75609"
      },
      {
        "astId": 73481,
        "contract": "project/src/registry/UserRegistry.sol:UserRegistry",
        "label": "_childLabel",
        "offset": 0,
        "slot": "5",
        "type": "t_string_storage"
      },
      {
        "astId": 73487,
        "contract": "project/src/registry/UserRegistry.sol:UserRegistry",
        "label": "_entries",
        "offset": 0,
        "slot": "6",
        "type": "t_mapping(t_uint256,t_struct(Entry)73474_storage)"
      }
    ],
    "types": {
      "t_address": {
        "encoding": "inplace",
        "label": "address",
        "numberOfBytes": "20"
      },
      "t_bool": {
        "encoding": "inplace",
        "label": "bool",
        "numberOfBytes": "1"
      },
      "t_contract(IRegistry)75609": {
        "encoding": "inplace",
        "label": "contract IRegistry",
        "numberOfBytes": "20"
      },
      "t_mapping(t_address,t_bool)": {
        "encoding": "mapping",
        "key": "t_address",
        "label": "mapping(address => bool)",
        "numberOfBytes": "32",
        "value": "t_bool"
      },
      "t_mapping(t_address,t_mapping(t_address,t_bool))": {
        "encoding": "mapping",
        "key": "t_address",
        "label": "mapping(address => mapping(address => bool))",
        "numberOfBytes": "32",
        "value": "t_mapping(t_address,t_bool)"
      },
      "t_mapping(t_address,t_uint256)": {
        "encoding": "mapping",
        "key": "t_address",
        "label": "mapping(address => uint256)",
        "numberOfBytes": "32",
        "value": "t_uint256"
      },
      "t_mapping(t_uint256,t_address)": {
        "encoding": "mapping",
        "key": "t_uint256",
        "label": "mapping(uint256 => address)",
        "numberOfBytes": "32",
        "value": "t_address"
      },
      "t_mapping(t_uint256,t_mapping(t_address,t_uint256))": {
        "encoding": "mapping",
        "key": "t_uint256",
        "label": "mapping(uint256 => mapping(address => uint256))",
        "numberOfBytes": "32",
        "value": "t_mapping(t_address,t_uint256)"
      },
      "t_mapping(t_uint256,t_struct(Entry)73474_storage)": {
        "encoding": "mapping",
        "key": "t_uint256",
        "label": "mapping(uint256 => struct PermissionedRegistry.Entry)",
        "numberOfBytes": "32",
        "value": "t_struct(Entry)73474_storage"
      },
      "t_mapping(t_uint256,t_uint256)": {
        "encoding": "mapping",
        "key": "t_uint256",
        "label": "mapping(uint256 => uint256)",
        "numberOfBytes": "32",
        "value": "t_uint256"
      },
      "t_string_storage": {
        "encoding": "bytes",
        "label": "string",
        "numberOfBytes": "32"
      },
      "t_struct(Entry)73474_storage": {
        "encoding": "inplace",
        "label": "struct PermissionedRegistry.Entry",
        "members": [
          {
            "astId": 73460,
            "contract": "project/src/registry/UserRegistry.sol:UserRegistry",
            "label": "eacVersionId",
            "offset": 0,
            "slot": "0",
            "type": "t_uint32"
          },
          {
            "astId": 73463,
            "contract": "project/src/registry/UserRegistry.sol:UserRegistry",
            "label": "tokenVersionId",
            "offset": 4,
            "slot": "0",
            "type": "t_uint32"
          },
          {
            "astId": 73467,
            "contract": "project/src/registry/UserRegistry.sol:UserRegistry",
            "label": "subregistry",
            "offset": 8,
            "slot": "0",
            "type": "t_contract(IRegistry)75609"
          },
          {
            "astId": 73470,
            "contract": "project/src/registry/UserRegistry.sol:UserRegistry",
            "label": "expiry",
            "offset": 0,
            "slot": "1",
            "type": "t_uint64"
          },
          {
            "astId": 73473,
            "contract": "project/src/registry/UserRegistry.sol:UserRegistry",
            "label": "resolver",
            "offset": 8,
            "slot": "1",
            "type": "t_address"
          }
        ],
        "numberOfBytes": "64"
      },
      "t_uint256": {
        "encoding": "inplace",
        "label": "uint256",
        "numberOfBytes": "32"
      },
      "t_uint32": {
        "encoding": "inplace",
        "label": "uint32",
        "numberOfBytes": "4"
      },
      "t_uint64": {
        "encoding": "inplace",
        "label": "uint64",
        "numberOfBytes": "8"
      }
    }
  },
  "userdoc": {
    "errors": {
      "CannotReduceExpiry(uint64,uint64)": [
        {
          "notice": "Label expiry cannot be reduced."
        }
      ],
      "CannotSetPastExpiry(uint64)": [
        {
          "notice": "Label expiry cannot be before now."
        }
      ],
      "InvalidOwner()": [
        {
          "notice": "Expected valid owner."
        }
      ],
      "LabelAlreadyRegistered(string)": [
        {
          "notice": "Label is already registered."
        }
      ],
      "LabelAlreadyReserved(string)": [
        {
          "notice": "Label cannot be reserved again."
        }
      ],
      "LabelExpired(uint256)": [
        {
          "notice": "Label is expired/unregistered."
        }
      ],
      "TransferDisallowed(uint256,address)": [
        {
          "notice": "Transfer is not allowed due to missing transfer admin role."
        }
      ]
    },
    "events": {
      "Approval(address,address,uint256)": {
        "notice": "An approval for all operator was set."
      },
      "EACRolesChanged(uint256,address,uint256,uint256)": {
        "notice": "Emitted when roles are changed."
      },
      "ExpiryUpdated(uint256,uint64,address)": {
        "notice": "Expiry of label was changed."
      },
      "LabelRegistered(uint256,bytes32,string,address,uint64,address)": {
        "notice": "A label was registered."
      },
      "LabelReserved(uint256,bytes32,string,uint64,address)": {
        "notice": "A label was reserved."
      },
      "LabelUnregistered(uint256,address)": {
        "notice": "A label was unregistered."
      },
      "ParentUpdated(address,string,address)": {
        "notice": "Parent was changed."
      },
      "ResolverUpdated(uint256,address,address)": {
        "notice": "Resolver of label was changed."
      },
      "SubregistryUpdated(uint256,address,address)": {
        "notice": "Subregistry of label was changed."
      },
      "TokenRegenerated(uint256,uint256)": {
        "notice": "Token was regenerated with a new token ID.         This occurs when roles are granted or revoked to maintain ERC1155 compliance."
      },
      "TokenResource(uint256,uint256)": {
        "notice": "Associate a token with an EAC resource."
      }
    },
    "kind": "user",
    "methods": {
      "HCA_FACTORY()": {
        "notice": "The HCA factory contract"
      },
      "METADATA_PROVIDER()": {
        "notice": "The metadata provider contract"
      },
      "ROOT_RESOURCE()": {
        "notice": "The `ROOT_RESOURCE`."
      },
      "balanceOf(address,uint256)": {
        "notice": "Returns the balance of a token for an account."
      },
      "balanceOfBatch(address[],uint256[])": {
        "notice": "Returns the balances of a batch of tokens for an account."
      },
      "constructor": {
        "notice": "Creates the UserRegistry implementation."
      },
      "getAssigneeCount(uint256,uint256)": {
        "notice": "Returns the number of assignees for the roles in the given role bitmap."
      },
      "getExpiry(uint256)": {
        "notice": "Get expiry of label."
      },
      "getParent()": {
        "notice": "Get canonical \"location\" of this registry."
      },
      "getResolver(string)": {
        "notice": "Fetches the resolver responsible for the specified label."
      },
      "getResource(uint256)": {
        "notice": "Get `resource` from `anyId`."
      },
      "getState(uint256)": {
        "notice": "Get the state of a label."
      },
      "getStatus(uint256)": {
        "notice": "Get `Status` from `anyId`."
      },
      "getSubregistry(string)": {
        "notice": "Fetches the registry for a label."
      },
      "getTokenId(uint256)": {
        "notice": "Get `tokenId` from `anyId`."
      },
      "grantRoles(uint256,uint256,address)": {
        "notice": "Grants all roles in the given role bitmap to `account`."
      },
      "grantRootRoles(uint256,address)": {
        "notice": "Grants all roles in the given role bitmap to `account` in the ROOT_RESOURCE."
      },
      "hasAssignees(uint256,uint256)": {
        "notice": "Checks if any of the roles in the given role bitmap has assignees."
      },
      "hasRoles(uint256,uint256,address)": {
        "notice": "Checks if the given account has been granted all the given roles in the given resource or the `ROOT_RESOURCE`."
      },
      "hasRootRoles(uint256,address)": {
        "notice": "Checks if the given account has been granted all the given roles in the `ROOT_RESOURCE`."
      },
      "initialize(address,uint256)": {
        "notice": "Initializes a proxy instance of `UserRegistry`."
      },
      "isApprovedForAll(address,address)": {
        "notice": "Returns the approval for all operator."
      },
      "latestOwnerOf(uint256)": {
        "notice": "Get the latest owner of a token.         If the token was burned, returns null."
      },
      "ownerOf(uint256)": {
        "notice": "Returns the owner of a token."
      },
      "register(string,address,address,address,uint256,uint64)": {
        "notice": "Registers a new label."
      },
      "renew(uint256,uint64)": {
        "notice": "Renew a label."
      },
      "revokeRoles(uint256,uint256,address)": {
        "notice": "Revokes all roles in the given role bitmap from `account`."
      },
      "revokeRootRoles(uint256,address)": {
        "notice": "Revokes all roles in the given role bitmap from `account` in the ROOT_RESOURCE."
      },
      "roleCount(uint256)": {
        "notice": "Returns the role count bitmap for a resource."
      },
      "roles(uint256,address)": {
        "notice": "Returns the roles bitmap for an account in a resource."
      },
      "safeBatchTransferFrom(address,address,uint256[],uint256[],bytes)": {
        "notice": "Transfers multiple tokens from one address to another."
      },
      "safeTransferFrom(address,address,uint256,uint256,bytes)": {
        "notice": "Transfers a single token from one address to another."
      },
      "setApprovalForAll(address,bool)": {
        "notice": "Sets the approval for all operator."
      },
      "setParent(address,string)": {
        "notice": "Change canonical \"location\"."
      },
      "setResolver(uint256,address)": {
        "notice": "Change resolver of label."
      },
      "setSubregistry(uint256,address)": {
        "notice": "Change registry of label."
      },
      "unregister(uint256)": {
        "notice": "Delete a label."
      },
      "uri(uint256)": {
        "notice": "Returns the URI for a token."
      }
    },
    "notice": "UUPS-upgradeable `PermissionedRegistry` designed to be deployed as a proxy via         `VerifiableFactory` for user-owned subdomain registries. The constructor disables         initializers on the implementation contract; proxies call `initialize()` to set up the         admin and initial roles. Upgrade authorization requires the upgrade role in the root resource.",
    "version": 1
  },
  "argsData": "0x00000000000000000000000012919bd18e9eb9f004e2faf78709d0319747d761000000000000000000000000f821ffd29058c4fb8e4d43b1a2a050af2c1f1ee0",
  "transaction": {
    "hash": "0xaa1f65668c9032f15af00fcc86b777e6f45f0e5d7b8d603b9ce96aec0d237a05",
    "nonce": "0x1d3e",
    "origin": "0xffffffffff52d316b7bd028358089bc8066b8f80"
  }
}