{
  "address": "0x8266dc167c10a03a5a22aa706a08d8422f40559c",
  "abi": [
    {
      "inputs": [
        {
          "internalType": "contract INameWrapper",
          "name": "nameWrapper",
          "type": "address"
        },
        {
          "internalType": "contract VerifiableFactory",
          "name": "verifiableFactory",
          "type": "address"
        },
        {
          "internalType": "address",
          "name": "ensV1Resolver",
          "type": "address"
        },
        {
          "internalType": "contract IHCAFactoryBasic",
          "name": "hcaFactory",
          "type": "address"
        },
        {
          "internalType": "contract IRegistryMetadata",
          "name": "metadataProvider",
          "type": "address"
        }
      ],
      "stateMutability": "nonpayable",
      "type": "constructor"
    },
    {
      "inputs": [
        {
          "internalType": "address",
          "name": "target",
          "type": "address"
        }
      ],
      "name": "AddressEmptyCode",
      "type": "error"
    },
    {
      "inputs": [
        {
          "internalType": "uint64",
          "name": "oldExpiry",
          "type": "uint64"
        },
        {
          "internalType": "uint64",
          "name": "newExpiry",
          "type": "uint64"
        }
      ],
      "name": "CannotReduceExpiry",
      "type": "error"
    },
    {
      "inputs": [
        {
          "internalType": "uint64",
          "name": "expiry",
          "type": "uint64"
        }
      ],
      "name": "CannotSetPastExpiry",
      "type": "error"
    },
    {
      "inputs": [
        {
          "internalType": "uint256",
          "name": "resource",
          "type": "uint256"
        },
        {
          "internalType": "uint256",
          "name": "roleBitmap",
          "type": "uint256"
        },
        {
          "internalType": "address",
          "name": "account",
          "type": "address"
        }
      ],
      "name": "EACCannotGrantRoles",
      "type": "error"
    },
    {
      "inputs": [
        {
          "internalType": "uint256",
          "name": "resource",
          "type": "uint256"
        },
        {
          "internalType": "uint256",
          "name": "roleBitmap",
          "type": "uint256"
        },
        {
          "internalType": "address",
          "name": "account",
          "type": "address"
        }
      ],
      "name": "EACCannotRevokeRoles",
      "type": "error"
    },
    {
      "inputs": [],
      "name": "EACInvalidAccount",
      "type": "error"
    },
    {
      "inputs": [
        {
          "internalType": "uint256",
          "name": "roleBitmap",
          "type": "uint256"
        }
      ],
      "name": "EACInvalidRoleBitmap",
      "type": "error"
    },
    {
      "inputs": [
        {
          "internalType": "uint256",
          "name": "resource",
          "type": "uint256"
        },
        {
          "internalType": "uint256",
          "name": "role",
          "type": "uint256"
        }
      ],
      "name": "EACMaxAssignees",
      "type": "error"
    },
    {
      "inputs": [
        {
          "internalType": "uint256",
          "name": "resource",
          "type": "uint256"
        },
        {
          "internalType": "uint256",
          "name": "role",
          "type": "uint256"
        }
      ],
      "name": "EACMinAssignees",
      "type": "error"
    },
    {
      "inputs": [],
      "name": "EACRootResourceNotAllowed",
      "type": "error"
    },
    {
      "inputs": [
        {
          "internalType": "uint256",
          "name": "resource",
          "type": "uint256"
        },
        {
          "internalType": "uint256",
          "name": "roleBitmap",
          "type": "uint256"
        },
        {
          "internalType": "address",
          "name": "account",
          "type": "address"
        }
      ],
      "name": "EACUnauthorizedAccountRoles",
      "type": "error"
    },
    {
      "inputs": [
        {
          "internalType": "address",
          "name": "sender",
          "type": "address"
        },
        {
          "internalType": "uint256",
          "name": "balance",
          "type": "uint256"
        },
        {
          "internalType": "uint256",
          "name": "needed",
          "type": "uint256"
        },
        {
          "internalType": "uint256",
          "name": "tokenId",
          "type": "uint256"
        }
      ],
      "name": "ERC1155InsufficientBalance",
      "type": "error"
    },
    {
      "inputs": [
        {
          "internalType": "address",
          "name": "approver",
          "type": "address"
        }
      ],
      "name": "ERC1155InvalidApprover",
      "type": "error"
    },
    {
      "inputs": [
        {
          "internalType": "uint256",
          "name": "idsLength",
          "type": "uint256"
        },
        {
          "internalType": "uint256",
          "name": "valuesLength",
          "type": "uint256"
        }
      ],
      "name": "ERC1155InvalidArrayLength",
      "type": "error"
    },
    {
      "inputs": [
        {
          "internalType": "address",
          "name": "operator",
          "type": "address"
        }
      ],
      "name": "ERC1155InvalidOperator",
      "type": "error"
    },
    {
      "inputs": [
        {
          "internalType": "address",
          "name": "receiver",
          "type": "address"
        }
      ],
      "name": "ERC1155InvalidReceiver",
      "type": "error"
    },
    {
      "inputs": [
        {
          "internalType": "address",
          "name": "sender",
          "type": "address"
        }
      ],
      "name": "ERC1155InvalidSender",
      "type": "error"
    },
    {
      "inputs": [
        {
          "internalType": "address",
          "name": "operator",
          "type": "address"
        },
        {
          "internalType": "address",
          "name": "owner",
          "type": "address"
        }
      ],
      "name": "ERC1155MissingApprovalForAll",
      "type": "error"
    },
    {
      "inputs": [
        {
          "internalType": "address",
          "name": "implementation",
          "type": "address"
        }
      ],
      "name": "ERC1967InvalidImplementation",
      "type": "error"
    },
    {
      "inputs": [],
      "name": "ERC1967NonPayable",
      "type": "error"
    },
    {
      "inputs": [],
      "name": "FailedCall",
      "type": "error"
    },
    {
      "inputs": [
        {
          "internalType": "uint256",
          "name": "tokenId",
          "type": "uint256"
        }
      ],
      "name": "FrozenTokenApproval",
      "type": "error"
    },
    {
      "inputs": [],
      "name": "InvalidInitialization",
      "type": "error"
    },
    {
      "inputs": [],
      "name": "InvalidOwner",
      "type": "error"
    },
    {
      "inputs": [
        {
          "internalType": "string",
          "name": "label",
          "type": "string"
        }
      ],
      "name": "LabelAlreadyRegistered",
      "type": "error"
    },
    {
      "inputs": [
        {
          "internalType": "string",
          "name": "label",
          "type": "string"
        }
      ],
      "name": "LabelAlreadyReserved",
      "type": "error"
    },
    {
      "inputs": [
        {
          "internalType": "uint256",
          "name": "tokenId",
          "type": "uint256"
        }
      ],
      "name": "LabelExpired",
      "type": "error"
    },
    {
      "inputs": [],
      "name": "LabelIsEmpty",
      "type": "error"
    },
    {
      "inputs": [
        {
          "internalType": "string",
          "name": "label",
          "type": "string"
        }
      ],
      "name": "LabelIsTooLong",
      "type": "error"
    },
    {
      "inputs": [
        {
          "internalType": "uint256",
          "name": "tokenId",
          "type": "uint256"
        }
      ],
      "name": "NameDataMismatch",
      "type": "error"
    },
    {
      "inputs": [
        {
          "internalType": "uint256",
          "name": "tokenId",
          "type": "uint256"
        }
      ],
      "name": "NameNotLocked",
      "type": "error"
    },
    {
      "inputs": [],
      "name": "NameRequiresMigration",
      "type": "error"
    },
    {
      "inputs": [],
      "name": "NotInitializing",
      "type": "error"
    },
    {
      "inputs": [
        {
          "internalType": "uint256",
          "name": "tokenId",
          "type": "uint256"
        },
        {
          "internalType": "address",
          "name": "from",
          "type": "address"
        }
      ],
      "name": "TransferDisallowed",
      "type": "error"
    },
    {
      "inputs": [],
      "name": "UUPSUnauthorizedCallContext",
      "type": "error"
    },
    {
      "inputs": [
        {
          "internalType": "bytes32",
          "name": "slot",
          "type": "bytes32"
        }
      ],
      "name": "UUPSUnsupportedProxiableUUID",
      "type": "error"
    },
    {
      "inputs": [
        {
          "internalType": "address",
          "name": "caller",
          "type": "address"
        }
      ],
      "name": "UnauthorizedCaller",
      "type": "error"
    },
    {
      "anonymous": false,
      "inputs": [
        {
          "indexed": true,
          "internalType": "address",
          "name": "owner",
          "type": "address"
        },
        {
          "indexed": true,
          "internalType": "address",
          "name": "approved",
          "type": "address"
        },
        {
          "indexed": true,
          "internalType": "uint256",
          "name": "tokenId",
          "type": "uint256"
        }
      ],
      "name": "Approval",
      "type": "event"
    },
    {
      "anonymous": false,
      "inputs": [
        {
          "indexed": true,
          "internalType": "address",
          "name": "account",
          "type": "address"
        },
        {
          "indexed": true,
          "internalType": "address",
          "name": "operator",
          "type": "address"
        },
        {
          "indexed": false,
          "internalType": "bool",
          "name": "approved",
          "type": "bool"
        }
      ],
      "name": "ApprovalForAll",
      "type": "event"
    },
    {
      "anonymous": false,
      "inputs": [
        {
          "indexed": true,
          "internalType": "uint256",
          "name": "resource",
          "type": "uint256"
        },
        {
          "indexed": true,
          "internalType": "address",
          "name": "account",
          "type": "address"
        },
        {
          "indexed": false,
          "internalType": "uint256",
          "name": "oldRoleBitmap",
          "type": "uint256"
        },
        {
          "indexed": false,
          "internalType": "uint256",
          "name": "newRoleBitmap",
          "type": "uint256"
        }
      ],
      "name": "EACRolesChanged",
      "type": "event"
    },
    {
      "anonymous": false,
      "inputs": [
        {
          "indexed": true,
          "internalType": "uint256",
          "name": "tokenId",
          "type": "uint256"
        },
        {
          "indexed": true,
          "internalType": "uint64",
          "name": "newExpiry",
          "type": "uint64"
        },
        {
          "indexed": true,
          "internalType": "address",
          "name": "sender",
          "type": "address"
        }
      ],
      "name": "ExpiryUpdated",
      "type": "event"
    },
    {
      "anonymous": false,
      "inputs": [
        {
          "indexed": false,
          "internalType": "uint64",
          "name": "version",
          "type": "uint64"
        }
      ],
      "name": "Initialized",
      "type": "event"
    },
    {
      "anonymous": false,
      "inputs": [
        {
          "indexed": true,
          "internalType": "uint256",
          "name": "tokenId",
          "type": "uint256"
        },
        {
          "indexed": true,
          "internalType": "bytes32",
          "name": "labelHash",
          "type": "bytes32"
        },
        {
          "indexed": false,
          "internalType": "string",
          "name": "label",
          "type": "string"
        },
        {
          "indexed": false,
          "internalType": "address",
          "name": "owner",
          "type": "address"
        },
        {
          "indexed": false,
          "internalType": "uint64",
          "name": "expiry",
          "type": "uint64"
        },
        {
          "indexed": true,
          "internalType": "address",
          "name": "sender",
          "type": "address"
        }
      ],
      "name": "LabelRegistered",
      "type": "event"
    },
    {
      "anonymous": false,
      "inputs": [
        {
          "indexed": true,
          "internalType": "uint256",
          "name": "tokenId",
          "type": "uint256"
        },
        {
          "indexed": true,
          "internalType": "bytes32",
          "name": "labelHash",
          "type": "bytes32"
        },
        {
          "indexed": false,
          "internalType": "string",
          "name": "label",
          "type": "string"
        },
        {
          "indexed": false,
          "internalType": "uint64",
          "name": "expiry",
          "type": "uint64"
        },
        {
          "indexed": true,
          "internalType": "address",
          "name": "sender",
          "type": "address"
        }
      ],
      "name": "LabelReserved",
      "type": "event"
    },
    {
      "anonymous": false,
      "inputs": [
        {
          "indexed": true,
          "internalType": "uint256",
          "name": "tokenId",
          "type": "uint256"
        },
        {
          "indexed": true,
          "internalType": "address",
          "name": "sender",
          "type": "address"
        }
      ],
      "name": "LabelUnregistered",
      "type": "event"
    },
    {
      "anonymous": false,
      "inputs": [
        {
          "indexed": true,
          "internalType": "contract IRegistry",
          "name": "parent",
          "type": "address"
        },
        {
          "indexed": false,
          "internalType": "string",
          "name": "label",
          "type": "string"
        },
        {
          "indexed": true,
          "internalType": "address",
          "name": "sender",
          "type": "address"
        }
      ],
      "name": "ParentUpdated",
      "type": "event"
    },
    {
      "anonymous": false,
      "inputs": [
        {
          "indexed": true,
          "internalType": "uint256",
          "name": "tokenId",
          "type": "uint256"
        },
        {
          "indexed": true,
          "internalType": "address",
          "name": "resolver",
          "type": "address"
        },
        {
          "indexed": true,
          "internalType": "address",
          "name": "sender",
          "type": "address"
        }
      ],
      "name": "ResolverUpdated",
      "type": "event"
    },
    {
      "anonymous": false,
      "inputs": [
        {
          "indexed": true,
          "internalType": "uint256",
          "name": "tokenId",
          "type": "uint256"
        },
        {
          "indexed": true,
          "internalType": "contract IRegistry",
          "name": "subregistry",
          "type": "address"
        },
        {
          "indexed": true,
          "internalType": "address",
          "name": "sender",
          "type": "address"
        }
      ],
      "name": "SubregistryUpdated",
      "type": "event"
    },
    {
      "anonymous": false,
      "inputs": [
        {
          "indexed": true,
          "internalType": "uint256",
          "name": "oldTokenId",
          "type": "uint256"
        },
        {
          "indexed": true,
          "internalType": "uint256",
          "name": "newTokenId",
          "type": "uint256"
        }
      ],
      "name": "TokenRegenerated",
      "type": "event"
    },
    {
      "anonymous": false,
      "inputs": [
        {
          "indexed": true,
          "internalType": "uint256",
          "name": "tokenId",
          "type": "uint256"
        },
        {
          "indexed": true,
          "internalType": "uint256",
          "name": "resource",
          "type": "uint256"
        }
      ],
      "name": "TokenResource",
      "type": "event"
    },
    {
      "anonymous": false,
      "inputs": [
        {
          "indexed": true,
          "internalType": "address",
          "name": "operator",
          "type": "address"
        },
        {
          "indexed": true,
          "internalType": "address",
          "name": "from",
          "type": "address"
        },
        {
          "indexed": true,
          "internalType": "address",
          "name": "to",
          "type": "address"
        },
        {
          "indexed": false,
          "internalType": "uint256[]",
          "name": "ids",
          "type": "uint256[]"
        },
        {
          "indexed": false,
          "internalType": "uint256[]",
          "name": "values",
          "type": "uint256[]"
        }
      ],
      "name": "TransferBatch",
      "type": "event"
    },
    {
      "anonymous": false,
      "inputs": [
        {
          "indexed": true,
          "internalType": "address",
          "name": "operator",
          "type": "address"
        },
        {
          "indexed": true,
          "internalType": "address",
          "name": "from",
          "type": "address"
        },
        {
          "indexed": true,
          "internalType": "address",
          "name": "to",
          "type": "address"
        },
        {
          "indexed": false,
          "internalType": "uint256",
          "name": "id",
          "type": "uint256"
        },
        {
          "indexed": false,
          "internalType": "uint256",
          "name": "value",
          "type": "uint256"
        }
      ],
      "name": "TransferSingle",
      "type": "event"
    },
    {
      "anonymous": false,
      "inputs": [
        {
          "indexed": false,
          "internalType": "string",
          "name": "value",
          "type": "string"
        },
        {
          "indexed": true,
          "internalType": "uint256",
          "name": "id",
          "type": "uint256"
        }
      ],
      "name": "URI",
      "type": "event"
    },
    {
      "anonymous": false,
      "inputs": [
        {
          "indexed": true,
          "internalType": "address",
          "name": "implementation",
          "type": "address"
        }
      ],
      "name": "Upgraded",
      "type": "event"
    },
    {
      "inputs": [],
      "name": "HCA_FACTORY",
      "outputs": [
        {
          "internalType": "contract IHCAFactoryBasic",
          "name": "",
          "type": "address"
        }
      ],
      "stateMutability": "view",
      "type": "function"
    },
    {
      "inputs": [],
      "name": "METADATA_PROVIDER",
      "outputs": [
        {
          "internalType": "contract IRegistryMetadata",
          "name": "",
          "type": "address"
        }
      ],
      "stateMutability": "view",
      "type": "function"
    },
    {
      "inputs": [],
      "name": "NAME_WRAPPER",
      "outputs": [
        {
          "internalType": "contract INameWrapper",
          "name": "",
          "type": "address"
        }
      ],
      "stateMutability": "view",
      "type": "function"
    },
    {
      "inputs": [],
      "name": "ROOT_RESOURCE",
      "outputs": [
        {
          "internalType": "uint256",
          "name": "",
          "type": "uint256"
        }
      ],
      "stateMutability": "view",
      "type": "function"
    },
    {
      "inputs": [],
      "name": "UPGRADE_INTERFACE_VERSION",
      "outputs": [
        {
          "internalType": "string",
          "name": "",
          "type": "string"
        }
      ],
      "stateMutability": "view",
      "type": "function"
    },
    {
      "inputs": [],
      "name": "V1_RESOLVER",
      "outputs": [
        {
          "internalType": "address",
          "name": "",
          "type": "address"
        }
      ],
      "stateMutability": "view",
      "type": "function"
    },
    {
      "inputs": [],
      "name": "VERIFIABLE_FACTORY",
      "outputs": [
        {
          "internalType": "contract VerifiableFactory",
          "name": "",
          "type": "address"
        }
      ],
      "stateMutability": "view",
      "type": "function"
    },
    {
      "inputs": [],
      "name": "WRAPPER_REGISTRY_IMPL",
      "outputs": [
        {
          "internalType": "address",
          "name": "",
          "type": "address"
        }
      ],
      "stateMutability": "view",
      "type": "function"
    },
    {
      "inputs": [
        {
          "internalType": "address",
          "name": "account",
          "type": "address"
        },
        {
          "internalType": "uint256",
          "name": "id",
          "type": "uint256"
        }
      ],
      "name": "balanceOf",
      "outputs": [
        {
          "internalType": "uint256",
          "name": "",
          "type": "uint256"
        }
      ],
      "stateMutability": "view",
      "type": "function"
    },
    {
      "inputs": [
        {
          "internalType": "address[]",
          "name": "accounts",
          "type": "address[]"
        },
        {
          "internalType": "uint256[]",
          "name": "ids",
          "type": "uint256[]"
        }
      ],
      "name": "balanceOfBatch",
      "outputs": [
        {
          "internalType": "uint256[]",
          "name": "",
          "type": "uint256[]"
        }
      ],
      "stateMutability": "view",
      "type": "function"
    },
    {
      "inputs": [
        {
          "internalType": "uint256[]",
          "name": "ids",
          "type": "uint256[]"
        },
        {
          "components": [
            {
              "internalType": "string",
              "name": "label",
              "type": "string"
            },
            {
              "internalType": "address",
              "name": "owner",
              "type": "address"
            },
            {
              "internalType": "contract IRegistry",
              "name": "subregistry",
              "type": "address"
            },
            {
              "internalType": "address",
              "name": "resolver",
              "type": "address"
            }
          ],
          "internalType": "struct LibMigration.Data[]",
          "name": "mds",
          "type": "tuple[]"
        }
      ],
      "name": "finishERC1155Migration",
      "outputs": [],
      "stateMutability": "nonpayable",
      "type": "function"
    },
    {
      "inputs": [
        {
          "internalType": "uint256",
          "name": "anyId",
          "type": "uint256"
        },
        {
          "internalType": "uint256",
          "name": "roleBitmap",
          "type": "uint256"
        }
      ],
      "name": "getAssigneeCount",
      "outputs": [
        {
          "internalType": "uint256",
          "name": "counts",
          "type": "uint256"
        },
        {
          "internalType": "uint256",
          "name": "mask",
          "type": "uint256"
        }
      ],
      "stateMutability": "view",
      "type": "function"
    },
    {
      "inputs": [
        {
          "internalType": "uint256",
          "name": "anyId",
          "type": "uint256"
        }
      ],
      "name": "getExpiry",
      "outputs": [
        {
          "internalType": "uint64",
          "name": "",
          "type": "uint64"
        }
      ],
      "stateMutability": "view",
      "type": "function"
    },
    {
      "inputs": [],
      "name": "getParent",
      "outputs": [
        {
          "internalType": "contract IRegistry",
          "name": "parent",
          "type": "address"
        },
        {
          "internalType": "string",
          "name": "label",
          "type": "string"
        }
      ],
      "stateMutability": "view",
      "type": "function"
    },
    {
      "inputs": [
        {
          "internalType": "string",
          "name": "label",
          "type": "string"
        }
      ],
      "name": "getResolver",
      "outputs": [
        {
          "internalType": "address",
          "name": "",
          "type": "address"
        }
      ],
      "stateMutability": "view",
      "type": "function"
    },
    {
      "inputs": [
        {
          "internalType": "uint256",
          "name": "anyId",
          "type": "uint256"
        }
      ],
      "name": "getResource",
      "outputs": [
        {
          "internalType": "uint256",
          "name": "",
          "type": "uint256"
        }
      ],
      "stateMutability": "view",
      "type": "function"
    },
    {
      "inputs": [
        {
          "internalType": "uint256",
          "name": "anyId",
          "type": "uint256"
        }
      ],
      "name": "getState",
      "outputs": [
        {
          "components": [
            {
              "internalType": "enum IPermissionedRegistry.Status",
              "name": "status",
              "type": "uint8"
            },
            {
              "internalType": "uint64",
              "name": "expiry",
              "type": "uint64"
            },
            {
              "internalType": "address",
              "name": "latestOwner",
              "type": "address"
            },
            {
              "internalType": "uint256",
              "name": "tokenId",
              "type": "uint256"
            },
            {
              "internalType": "uint256",
              "name": "resource",
              "type": "uint256"
            }
          ],
          "internalType": "struct IPermissionedRegistry.State",
          "name": "state",
          "type": "tuple"
        }
      ],
      "stateMutability": "view",
      "type": "function"
    },
    {
      "inputs": [
        {
          "internalType": "uint256",
          "name": "anyId",
          "type": "uint256"
        }
      ],
      "name": "getStatus",
      "outputs": [
        {
          "internalType": "enum IPermissionedRegistry.Status",
          "name": "",
          "type": "uint8"
        }
      ],
      "stateMutability": "view",
      "type": "function"
    },
    {
      "inputs": [
        {
          "internalType": "string",
          "name": "label",
          "type": "string"
        }
      ],
      "name": "getSubregistry",
      "outputs": [
        {
          "internalType": "contract IRegistry",
          "name": "",
          "type": "address"
        }
      ],
      "stateMutability": "view",
      "type": "function"
    },
    {
      "inputs": [
        {
          "internalType": "uint256",
          "name": "anyId",
          "type": "uint256"
        }
      ],
      "name": "getTokenId",
      "outputs": [
        {
          "internalType": "uint256",
          "name": "",
          "type": "uint256"
        }
      ],
      "stateMutability": "view",
      "type": "function"
    },
    {
      "inputs": [],
      "name": "getWrappedName",
      "outputs": [
        {
          "internalType": "bytes",
          "name": "",
          "type": "bytes"
        }
      ],
      "stateMutability": "view",
      "type": "function"
    },
    {
      "inputs": [],
      "name": "getWrappedNode",
      "outputs": [
        {
          "internalType": "bytes32",
          "name": "",
          "type": "bytes32"
        }
      ],
      "stateMutability": "view",
      "type": "function"
    },
    {
      "inputs": [
        {
          "internalType": "uint256",
          "name": "anyId",
          "type": "uint256"
        },
        {
          "internalType": "uint256",
          "name": "roleBitmap",
          "type": "uint256"
        },
        {
          "internalType": "address",
          "name": "account",
          "type": "address"
        }
      ],
      "name": "grantRoles",
      "outputs": [
        {
          "internalType": "bool",
          "name": "",
          "type": "bool"
        }
      ],
      "stateMutability": "nonpayable",
      "type": "function"
    },
    {
      "inputs": [
        {
          "internalType": "uint256",
          "name": "roleBitmap",
          "type": "uint256"
        },
        {
          "internalType": "address",
          "name": "account",
          "type": "address"
        }
      ],
      "name": "grantRootRoles",
      "outputs": [
        {
          "internalType": "bool",
          "name": "",
          "type": "bool"
        }
      ],
      "stateMutability": "nonpayable",
      "type": "function"
    },
    {
      "inputs": [
        {
          "internalType": "uint256",
          "name": "anyId",
          "type": "uint256"
        },
        {
          "internalType": "uint256",
          "name": "roleBitmap",
          "type": "uint256"
        }
      ],
      "name": "hasAssignees",
      "outputs": [
        {
          "internalType": "bool",
          "name": "",
          "type": "bool"
        }
      ],
      "stateMutability": "view",
      "type": "function"
    },
    {
      "inputs": [
        {
          "internalType": "uint256",
          "name": "anyId",
          "type": "uint256"
        },
        {
          "internalType": "uint256",
          "name": "roleBitmap",
          "type": "uint256"
        },
        {
          "internalType": "address",
          "name": "account",
          "type": "address"
        }
      ],
      "name": "hasRoles",
      "outputs": [
        {
          "internalType": "bool",
          "name": "",
          "type": "bool"
        }
      ],
      "stateMutability": "view",
      "type": "function"
    },
    {
      "inputs": [
        {
          "internalType": "uint256",
          "name": "roleBitmap",
          "type": "uint256"
        },
        {
          "internalType": "address",
          "name": "account",
          "type": "address"
        }
      ],
      "name": "hasRootRoles",
      "outputs": [
        {
          "internalType": "bool",
          "name": "",
          "type": "bool"
        }
      ],
      "stateMutability": "view",
      "type": "function"
    },
    {
      "inputs": [
        {
          "internalType": "bytes32",
          "name": "node",
          "type": "bytes32"
        },
        {
          "internalType": "contract IRegistry",
          "name": "parentRegistry",
          "type": "address"
        },
        {
          "internalType": "string",
          "name": "childLabel",
          "type": "string"
        },
        {
          "internalType": "address",
          "name": "admin",
          "type": "address"
        },
        {
          "internalType": "uint256",
          "name": "roleBitmap",
          "type": "uint256"
        }
      ],
      "name": "initialize",
      "outputs": [],
      "stateMutability": "nonpayable",
      "type": "function"
    },
    {
      "inputs": [
        {
          "internalType": "address",
          "name": "account",
          "type": "address"
        },
        {
          "internalType": "address",
          "name": "operator",
          "type": "address"
        }
      ],
      "name": "isApprovedForAll",
      "outputs": [
        {
          "internalType": "bool",
          "name": "",
          "type": "bool"
        }
      ],
      "stateMutability": "view",
      "type": "function"
    },
    {
      "inputs": [
        {
          "internalType": "uint256",
          "name": "tokenId",
          "type": "uint256"
        }
      ],
      "name": "latestOwnerOf",
      "outputs": [
        {
          "internalType": "address",
          "name": "",
          "type": "address"
        }
      ],
      "stateMutability": "view",
      "type": "function"
    },
    {
      "inputs": [
        {
          "internalType": "address",
          "name": "",
          "type": "address"
        },
        {
          "internalType": "address",
          "name": "",
          "type": "address"
        },
        {
          "internalType": "uint256[]",
          "name": "ids",
          "type": "uint256[]"
        },
        {
          "internalType": "uint256[]",
          "name": "",
          "type": "uint256[]"
        },
        {
          "internalType": "bytes",
          "name": "data",
          "type": "bytes"
        }
      ],
      "name": "onERC1155BatchReceived",
      "outputs": [
        {
          "internalType": "bytes4",
          "name": "",
          "type": "bytes4"
        }
      ],
      "stateMutability": "nonpayable",
      "type": "function"
    },
    {
      "inputs": [
        {
          "internalType": "address",
          "name": "",
          "type": "address"
        },
        {
          "internalType": "address",
          "name": "",
          "type": "address"
        },
        {
          "internalType": "uint256",
          "name": "id",
          "type": "uint256"
        },
        {
          "internalType": "uint256",
          "name": "",
          "type": "uint256"
        },
        {
          "internalType": "bytes",
          "name": "data",
          "type": "bytes"
        }
      ],
      "name": "onERC1155Received",
      "outputs": [
        {
          "internalType": "bytes4",
          "name": "",
          "type": "bytes4"
        }
      ],
      "stateMutability": "nonpayable",
      "type": "function"
    },
    {
      "inputs": [
        {
          "internalType": "uint256",
          "name": "tokenId",
          "type": "uint256"
        }
      ],
      "name": "ownerOf",
      "outputs": [
        {
          "internalType": "address",
          "name": "",
          "type": "address"
        }
      ],
      "stateMutability": "view",
      "type": "function"
    },
    {
      "inputs": [],
      "name": "proxiableUUID",
      "outputs": [
        {
          "internalType": "bytes32",
          "name": "",
          "type": "bytes32"
        }
      ],
      "stateMutability": "view",
      "type": "function"
    },
    {
      "inputs": [
        {
          "internalType": "string",
          "name": "label",
          "type": "string"
        },
        {
          "internalType": "address",
          "name": "owner",
          "type": "address"
        },
        {
          "internalType": "contract IRegistry",
          "name": "registry",
          "type": "address"
        },
        {
          "internalType": "address",
          "name": "resolver",
          "type": "address"
        },
        {
          "internalType": "uint256",
          "name": "roleBitmap",
          "type": "uint256"
        },
        {
          "internalType": "uint64",
          "name": "expiry",
          "type": "uint64"
        }
      ],
      "name": "register",
      "outputs": [
        {
          "internalType": "uint256",
          "name": "tokenId",
          "type": "uint256"
        }
      ],
      "stateMutability": "nonpayable",
      "type": "function"
    },
    {
      "inputs": [
        {
          "internalType": "uint256",
          "name": "anyId",
          "type": "uint256"
        },
        {
          "internalType": "uint64",
          "name": "newExpiry",
          "type": "uint64"
        }
      ],
      "name": "renew",
      "outputs": [],
      "stateMutability": "nonpayable",
      "type": "function"
    },
    {
      "inputs": [
        {
          "internalType": "uint256",
          "name": "anyId",
          "type": "uint256"
        },
        {
          "internalType": "uint256",
          "name": "roleBitmap",
          "type": "uint256"
        },
        {
          "internalType": "address",
          "name": "account",
          "type": "address"
        }
      ],
      "name": "revokeRoles",
      "outputs": [
        {
          "internalType": "bool",
          "name": "",
          "type": "bool"
        }
      ],
      "stateMutability": "nonpayable",
      "type": "function"
    },
    {
      "inputs": [
        {
          "internalType": "uint256",
          "name": "roleBitmap",
          "type": "uint256"
        },
        {
          "internalType": "address",
          "name": "account",
          "type": "address"
        }
      ],
      "name": "revokeRootRoles",
      "outputs": [
        {
          "internalType": "bool",
          "name": "",
          "type": "bool"
        }
      ],
      "stateMutability": "nonpayable",
      "type": "function"
    },
    {
      "inputs": [
        {
          "internalType": "uint256",
          "name": "anyId",
          "type": "uint256"
        }
      ],
      "name": "roleCount",
      "outputs": [
        {
          "internalType": "uint256",
          "name": "",
          "type": "uint256"
        }
      ],
      "stateMutability": "view",
      "type": "function"
    },
    {
      "inputs": [
        {
          "internalType": "uint256",
          "name": "anyId",
          "type": "uint256"
        },
        {
          "internalType": "address",
          "name": "account",
          "type": "address"
        }
      ],
      "name": "roles",
      "outputs": [
        {
          "internalType": "uint256",
          "name": "",
          "type": "uint256"
        }
      ],
      "stateMutability": "view",
      "type": "function"
    },
    {
      "inputs": [
        {
          "internalType": "address",
          "name": "from",
          "type": "address"
        },
        {
          "internalType": "address",
          "name": "to",
          "type": "address"
        },
        {
          "internalType": "uint256[]",
          "name": "ids",
          "type": "uint256[]"
        },
        {
          "internalType": "uint256[]",
          "name": "values",
          "type": "uint256[]"
        },
        {
          "internalType": "bytes",
          "name": "data",
          "type": "bytes"
        }
      ],
      "name": "safeBatchTransferFrom",
      "outputs": [],
      "stateMutability": "nonpayable",
      "type": "function"
    },
    {
      "inputs": [
        {
          "internalType": "address",
          "name": "from",
          "type": "address"
        },
        {
          "internalType": "address",
          "name": "to",
          "type": "address"
        },
        {
          "internalType": "uint256",
          "name": "id",
          "type": "uint256"
        },
        {
          "internalType": "uint256",
          "name": "value",
          "type": "uint256"
        },
        {
          "internalType": "bytes",
          "name": "data",
          "type": "bytes"
        }
      ],
      "name": "safeTransferFrom",
      "outputs": [],
      "stateMutability": "nonpayable",
      "type": "function"
    },
    {
      "inputs": [
        {
          "internalType": "address",
          "name": "operator",
          "type": "address"
        },
        {
          "internalType": "bool",
          "name": "approved",
          "type": "bool"
        }
      ],
      "name": "setApprovalForAll",
      "outputs": [],
      "stateMutability": "nonpayable",
      "type": "function"
    },
    {
      "inputs": [
        {
          "internalType": "contract IRegistry",
          "name": "parent",
          "type": "address"
        },
        {
          "internalType": "string",
          "name": "label",
          "type": "string"
        }
      ],
      "name": "setParent",
      "outputs": [],
      "stateMutability": "nonpayable",
      "type": "function"
    },
    {
      "inputs": [
        {
          "internalType": "uint256",
          "name": "anyId",
          "type": "uint256"
        },
        {
          "internalType": "address",
          "name": "resolver",
          "type": "address"
        }
      ],
      "name": "setResolver",
      "outputs": [],
      "stateMutability": "nonpayable",
      "type": "function"
    },
    {
      "inputs": [
        {
          "internalType": "uint256",
          "name": "anyId",
          "type": "uint256"
        },
        {
          "internalType": "contract IRegistry",
          "name": "registry",
          "type": "address"
        }
      ],
      "name": "setSubregistry",
      "outputs": [],
      "stateMutability": "nonpayable",
      "type": "function"
    },
    {
      "inputs": [
        {
          "internalType": "bytes4",
          "name": "interfaceId",
          "type": "bytes4"
        }
      ],
      "name": "supportsInterface",
      "outputs": [
        {
          "internalType": "bool",
          "name": "",
          "type": "bool"
        }
      ],
      "stateMutability": "view",
      "type": "function"
    },
    {
      "inputs": [
        {
          "internalType": "uint256",
          "name": "anyId",
          "type": "uint256"
        }
      ],
      "name": "unregister",
      "outputs": [],
      "stateMutability": "nonpayable",
      "type": "function"
    },
    {
      "inputs": [
        {
          "internalType": "address",
          "name": "newImplementation",
          "type": "address"
        },
        {
          "internalType": "bytes",
          "name": "data",
          "type": "bytes"
        }
      ],
      "name": "upgradeToAndCall",
      "outputs": [],
      "stateMutability": "payable",
      "type": "function"
    },
    {
      "inputs": [
        {
          "internalType": "uint256",
          "name": "tokenId",
          "type": "uint256"
        }
      ],
      "name": "uri",
      "outputs": [
        {
          "internalType": "string",
          "name": "",
          "type": "string"
        }
      ],
      "stateMutability": "view",
      "type": "function"
    }
  ],
  "contractName": "WrapperRegistry",
  "sourceName": "src/registry/WrapperRegistry.sol",
  "bytecode": "0x6101806040523061014052348015610015575f80fd5b506040516167cd3803806167cd83398101604081905261003491610df2565b6001600160a01b03808316608052811660a0528484308285855f8061005b8180808061010f565b5050505050806001600160a01b031660c0816001600160a01b031681525050806001600160a01b0316633f15457f6040518163ffffffff1660e01b8152600401602060405180830381865afa1580156100b6573d5f803e3d5ffd5b505050506040513d601f19601f820116820180604052508101906100da9190610e63565b6001600160a01b0390811660e052928316610100525081166101205284166101605250610105610221565b505050505061104b565b5f835f0361011e57505f610219565b610127846102be565b6001600160a01b03831661014e5760405163761fe2c960e11b815260040160405180910390fd5b5f8581526002602090815260408083206001600160a01b0387168452909152902054848117808214610213575f8781526002602090815260408083206001600160a01b03891684529091529020819055811986166101ae88826001610307565b84156101c1576101c1888785858b610437565b60408051848152602081018490526001600160a01b038816918a917f0d35bf721a39b614de00ca5038e1deb0cb0c69a278645e83405a7226cf80ba3c910160405180910390a360019350505050610219565b5f925050505b949350505050565b5f61022a610447565b805490915068010000000000000000900460ff161561025c5760405163f92ee8a960e01b815260040160405180910390fd5b80546001600160401b03908116146102bb5780546001600160401b0319166001600160401b0390811782556040519081527fc7f505b2f371ae2175ee4913f4499e1f2633a7b5936321eed1cdaeb6115181d29060200160405180910390a15b50565b7feeeeeeeeeeeeeeeeeeeeeeeeeeeeeeeeeeeeeeeeeeeeeeeeeeeeeeeeeeeeeeee8116156102bb57604051630153d96960e51b8152600481018290526024015b60405180910390fd5b5f61031183610471565b905081156103a7575f848152600360205260409020546103579082161980195f805160206167ad83398151915291909101165f8051602061678d83398151915216151590565b1561037f57604051631f22ca6960e31b815260048101859052602481018490526044016102fe565b5f848152600360205260408120805485929061039c908490610e92565b909155506104319050565b5f848152600360205260409020546103e6901982161980195f805160206167ad83398151915291909101165f8051602061678d83398151915216151590565b1561040e57604051631f80c19b60e01b815260048101859052602481018490526044016102fe565b5f848152600360205260408120805485929061042b908490610ea5565b90915550505b50505050565b6104408561048b565b5050505050565b5f807ff0c57e16840df040f15088dc2f81fe391c3923bec73e23a9662efc9c229c6a005b92915050565b5f61047b826102be565b50600181901b17600281901b1790565b80156102bb5763ffffffff811681185f908152600660205260408120906104b2838361057b565b5f818152602081905260409020549091506001600160a01b03166104d88183600161059c565b825483906004906104f690640100000000900463ffffffff16610eb8565b91906101000a81548163ffffffff021916908363ffffffff1602179055505f610525838561057b60201b60201c565b90506105488282600160405180602001604052805f81525061060260201b60201c565b604051819084907f4adeae13ec8831392865da923fda1c23d6894f7acb41defa2472480cd4b47d58905f90a35050505050565b80545f9063ffffffff808516851864010000000090920416185b9392505050565b6001600160a01b0383166105c457604051626a0d4560e21b81525f60048201526024016102fe565b604080516001808252602082018590528183019081526060820184905260a082019092525f6080820181815291929161044091879185908590610665565b6001600160a01b03841661062b57604051632bfa23e760e11b81525f60048201526024016102fe565b6040805160018082526020820186905281830190815260608201859052608082019092529061065d5f87848487610665565b505050505050565b610671858585856106c1565b6001600160a01b03841615610440575f6106896107d1565b905083516001036106b357602084810151908401516106ac8389898585896107df565b505061065d565b61065d818787878787610909565b5f6001600160a01b038416158015906106e257506001600160a01b03851615155b90508015610779575f5b83518110156107775761072384828151811061070a5761070a610eda565b60200260200101516001609c1b886109f060201b60201c565b61076f5783818151811061073957610739610eda565b6020026020010151866040516372c7b6ad60e11b81526004016102fe9291909182526001600160a01b0316602082015260400190565b6001016106ec565b505b61078585858585610a4f565b8015610440575f5b835181101561065d576107c96107c18583815181106107ae576107ae610eda565b6020026020010151610c5860201b60201c565b87875f610c7e565b60010161078d565b5f6107da610cbf565b905090565b6001600160a01b0384163b1561065d5760405163f23a6e6160e01b81526001600160a01b0385169063f23a6e61906108239089908990889088908890600401610f1c565b6020604051808303815f875af192505050801561085d575060408051601f3d908101601f1916820190925261085a91810190610f60565b60015b6108c4573d80801561088a576040519150601f19603f3d011682016040523d82523d5f602084013e61088f565b606091505b5080515f036108bc57604051632bfa23e760e11b81526001600160a01b03861660048201526024016102fe565b805181602001fd5b6001600160e01b0319811663f23a6e6160e01b1461090057604051632bfa23e760e11b81526001600160a01b03861660048201526024016102fe565b50505050505050565b6001600160a01b0384163b1561065d5760405163bc197c8160e01b81526001600160a01b0385169063bc197c819061094d9089908990889088908890600401610fc1565b6020604051808303815f875af1925050508015610987575060408051601f3d908101601f1916820190925261098491810190610f60565b60015b6109b4573d80801561088a576040519150601f19603f3d011682016040523d82523d5f602084013e61088f565b6001600160e01b0319811663bc197c8160e01b1461090057604051632bfa23e760e11b81526001600160a01b03861660048201526024016102fe565b5f6102196109fd85610c58565b5f9081526002602090815260408083206001600160a01b03871684528252808320547fac33ff75c19e70fe83507db0d683fd3465c996598dc972688b7ace676c89077b90925290912054178416841490565b8051825114610a7e5781518151604051635b05999160e01b8152600481019290925260248201526044016102fe565b5f610a876107d1565b90505f5b8351811015610b7a576020818102858101820151908501909101518015610b70575f828152602081905260409020546001600160a01b039081169089168114610b06576040516303dee4c560e01b81526001600160a01b038a1660048201525f602482015260448101839052606481018490526084016102fe565b6001821115610b48576040516303dee4c560e01b81526001600160a01b038a1660048201526001602482015260448101839052606481018490526084016102fe565b505f82815260208190526040902080546001600160a01b0319166001600160a01b0389161790555b5050600101610a8b565b508251600103610bfa5760208301515f906020840151909150856001600160a01b0316876001600160a01b0316846001600160a01b03167fc3d58168c5ae7397731d063d5bbf3d657854427343f4c083240f7aacaa2d0f628585604051610beb929190918252602082015260400190565b60405180910390a45050610440565b836001600160a01b0316856001600160a01b0316826001600160a01b03167f4a39dc06d4c0dbc64b70af90fd698a233a518aa5d07e595d983b8c0526c8f7fb8686604051610c4992919061101e565b60405180910390a45050505050565b5f61046b82610c798163ffffffff8116185f90815260066020526040902090565b610d5c565b5f8481526002602090815260408083206001600160a01b0387168452909152902054801561044057610cb285828685610d72565b5061065d8582858561010f565b6080515f906001600160a01b0316610cd657503390565b60805160405163110ac5cb60e21b81523360048201525f916001600160a01b03169063442b172c90602401602060405180830381865afa158015610d1c573d5f803e3d5ffd5b505050506040513d601f19601f82011682018060405250810190610d409190610e63565b90506001600160a01b038116610d57573391505090565b919050565b80545f9063ffffffff8085168518911618610595565b5f610d7c846102be565b5f8581526002602090815260408083206001600160a01b038716845290915290205484198116808214610213575f8781526002602090815260408083206001600160a01b03891684529091528120829055868316906101ae9089908390610307565b6001600160a01b03811681146102bb575f80fd5b5f805f805f60a08688031215610e06575f80fd5b8551610e1181610dde565b6020870151909550610e2281610dde565b6040870151909450610e3381610dde565b6060870151909350610e4481610dde565b6080870151909250610e5581610dde565b809150509295509295909350565b5f60208284031215610e73575f80fd5b815161059581610dde565b634e487b7160e01b5f52601160045260245ffd5b8082018082111561046b5761046b610e7e565b8181038181111561046b5761046b610e7e565b5f63ffffffff808316818103610ed057610ed0610e7e565b6001019392505050565b634e487b7160e01b5f52603260045260245ffd5b5f81518084528060208401602086015e5f602082860101526020601f19601f83011685010191505092915050565b6001600160a01b03868116825285166020820152604081018490526060810183905260a0608082018190525f90610f5590830184610eee565b979650505050505050565b5f60208284031215610f70575f80fd5b81516001600160e01b031981168114610595575f80fd5b5f815180845260208085019450602084015f5b83811015610fb657815187529582019590820190600101610f9a565b509495945050505050565b6001600160a01b0386811682528516602082015260a0604082018190525f90610fec90830186610f87565b8281036060840152610ffe8186610f87565b905082810360808401526110128185610eee565b98975050505050505050565b604081525f6110306040830185610f87565b82810360208401526110428185610f87565b95945050505050565b60805160a05160c05160e051610100516101205161014051610160516156776111165f395f818161063101526119d601525f81816120bc015281816120e5015261228001525f8181610709015261275001525f8181610470015261272101525f61269e01525f81816104bb015281816116ad01528181611a070152818161242c015281816125200152818161260b015281816129010152612e4701525f81816106b701528181611e380152611ea601525f8181610560015281816132cc015261332d01526156775ff3fe608060405260043610610318575f3560e01c80635569f33d1161019c578063a02b161e116100e7578063ce156e8211610092578063e4ae7d771161006d578063e4ae7d7714610a29578063e985e9c514610a48578063f23a6e6114610a8f578063f242432a14610aae575f80fd5b8063ce156e82146109cc578063d3bf89b1146109eb578063dfa70d8b14610a0a575f80fd5b8063bc197c81116100c2578063bc197c8114610956578063bc7b6d621461098e578063bd242bcb146109ad575f80fd5b8063a02b161e146108d0578063a22cb465146108ef578063ad3cb1cc1461090e575f80fd5b8063781ef8db1161014757806385f3e6431161012257806385f3e6431461087e5780639b224b1d1461089d5780639e771932146108b1575f80fd5b8063781ef8db146107e75780637c3005861461083d57806380f760211461085c575f80fd5b80635d05f049116101775780635d05f049146107955780636352211e146107b45780636e7a2116146107d3575f80fd5b80635569f33d1461072b5780635adf47241461074a5780635c622a0e14610769575f80fd5b80632f27fa24116102675780634b30228c1161021257806352d1902d116101ed57806352d1902d14610692578063531b9d6d146106a65780635357263f146106d9578063547c9d2d146106f8575f80fd5b80634b30228c146106205780634e1273f4146106535780634f1ef2861461067f575f80fd5b806335af62161161024257806335af6216146105a15780633634f911146105c057806344c9af28146105f4575f80fd5b80632f27fa2414610530578063319c22bb1461054f578063341ec55914610582575f80fd5b806314ff5ea3116102c75780631c3fc3eb116102a25780631c3fc3eb146104dd5780631e8fca2d146104f05780632eb2c2d61461050f575f80fd5b806314ff5ea31461044057806318ad9b711461045f578063192cf07d146104aa575f80fd5b80630e89341c116102f75780630e89341c1461039c57806311b8e00a146103c857806313c72608146103e7575f80fd5b8062fdd58e1461031c57806301ffc9a71461034e578063072d5d771461037d575b5f80fd5b348015610327575f80fd5b5061033b61033636600461448d565b610acd565b6040519081526020015b60405180910390f35b348015610359575f80fd5b5061036d6103683660046144cc565b610b04565b6040519015158152602001610345565b348015610388575f80fd5b5061036d6103973660046144e7565b610b75565b3480156103a7575f80fd5b506103bb6103b6366004614515565b610ba0565b604051610345919061455a565b3480156103d3575f80fd5b5061036d6103e236600461456c565b610bab565b3480156103f2575f80fd5b50610427610401366004614515565b63ffffffff8116185f9081526006602052604090206001015467ffffffffffffffff1690565b60405167ffffffffffffffff9091168152602001610345565b34801561044b575f80fd5b5061033b61045a366004614515565b610bc5565b34801561046a575f80fd5b506104927f000000000000000000000000000000000000000000000000000000000000000081565b6040516001600160a01b039091168152602001610345565b3480156104b5575f80fd5b506104927f000000000000000000000000000000000000000000000000000000000000000081565b3480156104e8575f80fd5b5061033b5f81565b3480156104fb575f80fd5b5061033b61050a366004614515565b610beb565b34801561051a575f80fd5b5061052e6105293660046146d4565b610c11565b005b34801561053b575f80fd5b5061033b61054a366004614515565b610cae565b34801561055a575f80fd5b506104927f000000000000000000000000000000000000000000000000000000000000000081565b34801561058d575f80fd5b5061052e61059c3660046144e7565b610ccc565b3480156105ac575f80fd5b506104926105bb3660046147b9565b610d65565b3480156105cb575f80fd5b506105df6105da36600461456c565b610dfa565b60408051928352602083019190915201610345565b3480156105ff575f80fd5b5061061361060e366004614515565b610e1a565b604051610345919061482c565b34801561062b575f80fd5b506104927f000000000000000000000000000000000000000000000000000000000000000081565b34801561065e575f80fd5b5061067261066d36600461487f565b610eeb565b6040516103459190614975565b61052e61068d366004614987565b610fb6565b34801561069d575f80fd5b5061033b610fd5565b3480156106b1575f80fd5b506104927f000000000000000000000000000000000000000000000000000000000000000081565b3480156106e4575f80fd5b5061052e6106f3366004614987565b611003565b348015610703575f80fd5b506104927f000000000000000000000000000000000000000000000000000000000000000081565b348015610736575f80fd5b5061052e6107453660046149df565b6110a4565b348015610755575f80fd5b5061033b6107643660046144e7565b61118c565b348015610774575f80fd5b50610788610783366004614515565b6111be565b6040516103459190614a02565b3480156107a0575f80fd5b5061052e6107af366004614a51565b611213565b3480156107bf575f80fd5b506104926107ce366004614515565b611271565b3480156107de575f80fd5b5060075461033b565b3480156107f2575f80fd5b5061036d6108013660046144e7565b6001600160a01b03165f9081527fac33ff75c19e70fe83507db0d683fd3465c996598dc972688b7ace676c89077b602052604090205481161490565b348015610848575f80fd5b5061036d610857366004614ab8565b6112da565b348015610867575f80fd5b506108706112ee565b604051610345929190614aee565b348015610889575f80fd5b5061033b610898366004614b0f565b611397565b3480156108a8575f80fd5b506103bb6113f1565b3480156108bc575f80fd5b5061052e6108cb366004614b9c565b611400565b3480156108db575f80fd5b5061052e6108ea366004614515565b611582565b3480156108fa575f80fd5b5061052e610909366004614c13565b61168f565b348015610919575f80fd5b506103bb6040518060400160405280600581526020017f352e302e3000000000000000000000000000000000000000000000000000000081525081565b348015610961575f80fd5b50610975610970366004614c43565b6116a1565b6040516001600160e01b03199091168152602001610345565b348015610999575f80fd5b5061052e6109a83660046144e7565b611837565b3480156109b8575f80fd5b506104926109c7366004614515565b6118d5565b3480156109d7575f80fd5b5061036d6109e63660046144e7565b6118f1565b3480156109f6575f80fd5b5061036d610a05366004614ab8565b611913565b348015610a15575f80fd5b5061036d610a24366004614ab8565b611972565b348015610a34575f80fd5b50610492610a433660046147b9565b611986565b348015610a53575f80fd5b5061036d610a62366004614cfa565b6001600160a01b039182165f90815260016020908152604080832093909416825291909152205460ff1690565b348015610a9a575f80fd5b50610975610aa9366004614d26565b6119fb565b348015610ab9575f80fd5b5061052e610ac8366004614d9d565b611bed565b5f826001600160a01b0316610ae183611271565b6001600160a01b031614610af5575f610af8565b60015b60ff1690505b92915050565b5f7f6b2f7339000000000000000000000000000000000000000000000000000000006001600160e01b031983161480610b6657507fb0f3d367000000000000000000000000000000000000000000000000000000006001600160e01b03198316145b80610afe5750610afe82611c7d565b5f8083610b8a8282610b85611cba565b611cc3565b610b975f86866001611d0b565b95945050505050565b6060610afe82611e34565b5f610bbe610bb884610beb565b83611f19565b9392505050565b5f610afe82610be68463ffffffff8116185f90815260066020526040902090565b611f30565b5f610afe82610c0c8463ffffffff8116185f90815260066020526040902090565b611f4e565b5f610c1a611cba565b9050806001600160a01b0316866001600160a01b031614158015610c6357506001600160a01b038087165f9081526001602090815260408083209385168352929052205460ff16155b15610c995760405163711bec9160e11b81526001600160a01b038083166004830152871660248201526044015b60405180910390fd5b610ca68686868686611f64565b505050505050565b5f610afe610cbb83610beb565b5f9081526003602052604090205490565b5f80610cdb8462100000611fc9565b80547fffffffff0000000000000000000000000000000000000000ffffffffffffffff16600160401b6001600160a01b038716021781559092509050610d1f611cba565b6001600160a01b0316836001600160a01b0316837fca9c8d517128edd416adf5719242ca6ff93ce234442d95234da53c0ae8a1054060405160405180910390a450505050565b5f80610dc0610da885858080601f0160208091040260200160405190810160405280939291908181526020018383808284375f9201919091525061204c92505050565b63ffffffff8116185f90815260066020526040902090565b600181015490915067ffffffffffffffff16421015610df0578054600160401b90046001600160a01b0316610df2565b5f5b949350505050565b5f80610e0e610e0885610beb565b84612057565b915091505b9250929050565b6040805160a0810182525f8082526020808301828152838501839052606084018390526080840183905263ffffffff8616861883526006909152928120600181015467ffffffffffffffff1693849052919290610e778584611f30565b606085018190529050610e8a8584611f4e565b60808501525f8181526020819052604090819020546001600160a01b0316908501819052610eb8838261207a565b85906002811115610ecb57610ecb6147f8565b90816002811115610ede57610ede6147f8565b8152505050505050919050565b60608151835114610f1c5781518351604051635b05999160e01b815260048101929092526024820152604401610c90565b5f835167ffffffffffffffff811115610f3757610f3761458c565b604051908082528060200260200182016040528015610f60578160200160208202803683370190505b5090505f5b8451811015610fae57602080820286010151610f8990602080840287010151610acd565b828281518110610f9b57610f9b614e01565b6020908102919091010152600101610f65565b509392505050565b610fbe6120b1565b610fc78261216a565b610fd18282612188565b5050565b5f610fde612275565b507f360894a13ba1a3210667c828492db98dca3e2076cc3735a920a3ca505d382bbc90565b6101006110185f82611013611cba565b6122be565b6004805473ffffffffffffffffffffffffffffffffffffffff19166001600160a01b038516179055600561104c8382614e91565b50611055611cba565b6001600160a01b0316836001600160a01b03167fe49f02c945e0ee4a8d961a371289bd054aa21d9ca1b73250ffd4880eb708cff484604051611097919061455a565b60405180910390a3505050565b5f806110b38462010000611fc9565b6001810154919350915067ffffffffffffffff908116908416101561111e5760018101546040517f68c1425a00000000000000000000000000000000000000000000000000000000815267ffffffffffffffff91821660048201529084166024820152604401610c90565b60018101805467ffffffffffffffff191667ffffffffffffffff8516179055611145611cba565b6001600160a01b03168367ffffffffffffffff16837f3260962d42d8f7ae0af25cbfdb2983c214a859cfa2ac6df8ea29b534c267d42960405160405180910390a450505050565b5f610bbe61119984610beb565b5f9081526002602090815260408083206001600160a01b038716845290915290205490565b63ffffffff811681185f9081526006602052604081206001810154610bbe9067ffffffffffffffff1661120e6111f48685611f30565b5f908152602081905260409020546001600160a01b031690565b61207a565b3330146112355760405163d86ad9cf60e01b8152336004820152602401610c90565b82811461125f57604051635b05999160e01b81526004810184905260248101829052604401610c90565b61126b84848484612318565b50505050565b63ffffffff811681185f9081526006602052604081206112918382611f30565b831415806112ad5750600181015467ffffffffffffffff164210155b6112d2575f838152602081905260409020546001600160a01b0316610bbe565b610bbe565b5f9392505050565b5f610df26112e785610beb565b848461287c565b600454600580545f926060926001600160a01b0390911691819061131190614e15565b80601f016020809104026020016040519081016040528092919081815260200182805461133d90614e15565b80156113885780601f1061135f57610100808354040283529160200191611388565b820191905f5260205f20905b81548152906001019060200180831161136b57829003601f168201915b50505050509050915091509091565b5f6113a1876128c1565b156113d8576040517f408fa1b800000000000000000000000000000000000000000000000000000000815260040160405180910390fd5b6113e6878787878787612999565b979650505050505050565b60606113fb612e43565b905090565b5f611409612edc565b805490915060ff600160401b820416159067ffffffffffffffff165f811580156114305750825b90505f8267ffffffffffffffff16600114801561144c5750303b155b90508115801561145a575080155b15611491576040517ff92ee8a900000000000000000000000000000000000000000000000000000000815260040160405180910390fd5b845467ffffffffffffffff1916600117855583156114c057845468ff00000000000000001916600160401b1785555b60078b90556004805473ffffffffffffffffffffffffffffffffffffffff19166001600160a01b038c1617905560056114fa898b83614f4d565b506115295f7f100000000000000000000000000000001000000000000000000000000000000088178982611d0b565b50831561157557845468ff000000000000000019168555604051600181527fc7f505b2f371ae2175ee4913f4499e1f2633a7b5936321eed1cdaeb6115181d29060200160405180910390a15b5050505050505050505050565b5f8061159083611000611fc9565b9150915061159c611cba565b6001600160a01b0316827f5293e83951c7b759c1ef192ceed240dc2caa652e29ddbd95cafe1d88e5a9cea860405160405180910390a35f828152602081905260409020546001600160a01b0316801561166c576115fb81846001612f04565b815482905f906116109063ffffffff1661501b565b91906101000a81548163ffffffff021916908363ffffffff160217905550815f01600481819054906101000a900463ffffffff1661164d9061501b565b91906101000a81548163ffffffff021916908363ffffffff1602179055505b50600101805467ffffffffffffffff19164267ffffffffffffffff161790555050565b610fd161169a611cba565b8383612f6a565b5f336001600160a01b037f00000000000000000000000000000000000000000000000000000000000000001614611723576040513360248201526117239063d86ad9cf60e01b906044015b60408051601f198184030181529190526020810180516001600160e01b03166001600160e01b031990931692909217909152613010565b828261173060e08961503d565b61173b906040615054565b80821015611775576040805160048152602481019091526020810180516001600160e01b0316635cb045db60e01b17905261177590613010565b5f61178286880188615103565b604051635d05f04960e01b81529091503090635d05f049906117ac908e908e90869060040161523b565b5f604051808303815f87803b1580156117c3575f80fd5b505af19250505080156117d4575060015b611816573d808015611801576040519150601f19603f3d011682016040523d82523d5f602084013e611806565b606091505b5061181081613010565b50611826565b5063bc197c8160e01b9350611828565b505b50505098975050505050505050565b5f80611847846301000000611fc9565b6001810180547fffffffff0000000000000000000000000000000000000000ffffffffffffffff16600160401b6001600160a01b03881602179055909250905061188f611cba565b6001600160a01b0316836001600160a01b0316837f9b6b420ff87c91604d447e507cbeedda5df2fa669a6b6534375e41fd3905a8d560405160405180910390a450505050565b5f818152602081905260408120546001600160a01b0316610afe565b5f80836119068282611901611cba565b613023565b610b975f86866001613084565b5f610df261192085610beb565b5f9081526002602090815260408083206001600160a01b03871684528252808320547fac33ff75c19e70fe83507db0d683fd3465c996598dc972688b7ace676c89077b90925290912054178416841490565b5f610df261197f85610beb565b84846130f0565b5f6119c583838080601f0160208091040260200160405190810160405280939291908181526020018383808284375f920191909152506128c192505050565b6119d3576112cd838361312b565b507f000000000000000000000000000000000000000000000000000000000000000092915050565b5f336001600160a01b037f00000000000000000000000000000000000000000000000000000000000000001614611a4a57604051336024820152611a4a9063d86ad9cf60e01b906044016116ec565b828260e080821015611a88576040805160048152602481019091526020810180516001600160e01b0316635cb045db60e01b179052611a8890613010565b6040805160018082528183019092525f916020808301908036833750506040805160018082528183019092529293505f929150602082015b6040805160808101825260608082525f60208084018290529383018190529082015282525f19909201910181611ac057905050905089825f81518110611b0857611b08614e01565b6020908102919091010152611b1f87890189615298565b815f81518110611b3157611b31614e01565b6020908102919091010152604051635d05f04960e01b81523090635d05f04990611b6190859085906004016152ca565b5f604051808303815f87803b158015611b78575f80fd5b505af1925050508015611b89575060015b611bcb573d808015611bb6576040519150601f19603f3d011682016040523d82523d5f602084013e611bbb565b606091505b50611bc581613010565b50611bdd565b5063f23a6e6160e01b9450611be09050565b50505b5050509695505050505050565b5f611bf6611cba565b9050806001600160a01b0316866001600160a01b031614158015611c3f57506001600160a01b038087165f9081526001602090815260408083209385168352929052205460ff16155b15611c705760405163711bec9160e11b81526001600160a01b03808316600483015287166024820152604401610c90565b610ca686868686866131a1565b5f6001600160e01b031982167f4e2312e0000000000000000000000000000000000000000000000000000000001480610afe5750610afe82613224565b5f6113fb6132c9565b5f611cce84836133ba565b9050801983161561126b5760405163d1a3b35560e01b815260048101859052602481018490526001600160a01b0383166044820152606401610c90565b5f835f03611d1a57505f610df2565b611d23846134a1565b6001600160a01b038316611d63576040517fec3fc59200000000000000000000000000000000000000000000000000000000815260040160405180910390fd5b5f8581526002602090815260408083206001600160a01b0387168452909152902054848117808214611e28575f8781526002602090815260408083206001600160a01b0389168452909152902081905581198616611dc388826001613501565b8415611dd657611dd6888785858b613696565b60408051848152602081018490526001600160a01b038816918a917f0d35bf721a39b614de00ca5038e1deb0cb0c69a278645e83405a7226cf80ba3c910160405180910390a360019350505050610df2565b505f9695505050505050565b60607f00000000000000000000000000000000000000000000000000000000000000006001600160a01b0316611e7757505060408051602081019091525f815290565b6040517f1675f455000000000000000000000000000000000000000000000000000000008152600481018390527f00000000000000000000000000000000000000000000000000000000000000006001600160a01b031690631675f455906024015f60405180830381865afa158015611ef2573d5f803e3d5ffd5b505050506040513d5f823e601f3d908101601f19168201604052610afe9190810190615324565b5f80611f258484610dfa565b501515949350505050565b80545f9063ffffffff80851685186401000000009092041618610bbe565b80545f9063ffffffff8085168518911618610bbe565b6001600160a01b038416611f8d57604051632bfa23e760e11b81525f6004820152602401610c90565b6001600160a01b038516611fb557604051626a0d4560e21b81525f6004820152602401610c90565b611fc2858585858561369f565b5050505050565b63ffffffff821682185f908152600660205260408120611fe98482611f30565b600182015490925067ffffffffffffffff164210612036576040517fc44e237400000000000000000000000000000000000000000000000000000000815260048101839052602401610c90565b610e136120438583611f4e565b84611013611cba565b805160209091012090565b5f80612062836136fb565b5f948552600360205260409094205484169492505050565b5f67ffffffffffffffff8316421061209357505f610afe565b6001600160a01b0382166120a957506001610afe565b506002610afe565b306001600160a01b037f000000000000000000000000000000000000000000000000000000000000000016148061214a57507f00000000000000000000000000000000000000000000000000000000000000006001600160a01b031661213e7f360894a13ba1a3210667c828492db98dca3e2076cc3735a920a3ca505d382bbc546001600160a01b031690565b6001600160a01b031614155b156121685760405163703e46dd60e11b815260040160405180910390fd5b565b6f10000000000000000000000000000000610fd15f82611013611cba565b816001600160a01b03166352d1902d6040518163ffffffff1660e01b8152600401602060405180830381865afa9250505080156121e2575060408051601f3d908101601f191682019092526121df91810190615369565b60015b61220a57604051634c9c8ce360e01b81526001600160a01b0383166004820152602401610c90565b7f360894a13ba1a3210667c828492db98dca3e2076cc3735a920a3ca505d382bbc8114612266576040517faa1d49a400000000000000000000000000000000000000000000000000000000815260048101829052602401610c90565b6122708383613715565b505050565b306001600160a01b037f000000000000000000000000000000000000000000000000000000000000000016146121685760405163703e46dd60e11b815260040160405180910390fd5b6122c9838383611913565b612270576040517f4b27a13300000000000000000000000000000000000000000000000000000000815260048101849052602481018390526001600160a01b0382166044820152606401610c90565b60075430905f5b85811015612873575f85858381811061233a5761233a614e01565b905060200281019061234c9190615380565b6123559061539e565b60208101519091506001600160a01b031661239c576040517f49e27cff00000000000000000000000000000000000000000000000000000000815260040160405180910390fd5b5f8888848181106123af576123af614e01565b845180516020918201209102929092013592506123d7905085825f9182526020526040902090565b8214612412576040517fedec356900000000000000000000000000000000000000000000000000000000815260048101839052602401610c90565b604051630178fe3f60e01b8152600481018390525f9081907f00000000000000000000000000000000000000000000000000000000000000006001600160a01b031690630178fe3f90602401606060405180830381865afa158015612479573d5f803e3d5ffd5b505050506040513d601f19601f8201168201806040525081019061249d91906153a9565b92509250506124ae82600116151590565b6124e7576040517f1bfe8f0a00000000000000000000000000000000000000000000000000000000815260048101859052602401610c90565b6040517f081812fc000000000000000000000000000000000000000000000000000000008152600481018590525f906001600160a01b037f0000000000000000000000000000000000000000000000000000000000000000169063081812fc90602401602060405180830381865afa158015612565573d5f803e3d5ffd5b505050506040513d601f19601f8201168201806040525081019061258991906153f0565b6001600160a01b0316146125cc576040517fa4f0771300000000000000000000000000000000000000000000000000000000815260048101859052602401610c90565b600882165f0361266f576040517f1896f70a000000000000000000000000000000000000000000000000000000008152600481018590525f60248201527f00000000000000000000000000000000000000000000000000000000000000006001600160a01b031690631896f70a906044015f604051808303815f87803b158015612654575f80fd5b505af1158015612666573d5f803e3d5ffd5b5050505061271e565b6040517f0178b8bf000000000000000000000000000000000000000000000000000000008152600481018590527f00000000000000000000000000000000000000000000000000000000000000006001600160a01b031690630178b8bf90602401602060405180830381865afa1580156126eb573d5f803e3d5ffd5b505050506040513d601f19601f8201168201806040525081019061270f91906153f0565b6001600160a01b031660608601525b5f7f00000000000000000000000000000000000000000000000000000000000000006001600160a01b0316635d84121a7f0000000000000000000000000000000000000000000000000000000000000000875f1c888d8b5f01518c602001516127868b61376a565b60405160240161279a95949392919061540b565b60408051601f198184030181529181526020820180516001600160e01b03167f9e77193200000000000000000000000000000000000000000000000000000000179052516001600160e01b031960e086901b1681526127fe93929190600401615446565b6020604051808303815f875af115801561281a573d5f803e3d5ffd5b505050506040513d601f19601f8201168201806040525081019061283e91906153f0565b9050612861865f0151876020015183896060015161285b886137a2565b876137e9565b5050505050505080600101905061231f565b50505050505050565b5f838361288c8282610b85611cba565b856128aa57604051631850848b60e31b815260040160405180910390fd5b6128b78686866001611d0b565b9695505050505050565b5f806128e46128cf60075490565b845160208601205f9182526020526040902090565b604051630178fe3f60e01b8152600481018290529091505f9081907f00000000000000000000000000000000000000000000000000000000000000006001600160a01b031690630178fe3f90602401606060405180830381865afa15801561294e573d5f803e3d5ffd5b505050506040513d601f19601f8201168201806040525081019061297291906153a9565b5090925090506001600160a01b0382163014801590610b9757506001161515949350505050565b5f6129a3876137f8565b50865160208801205f6129c88263ffffffff8116185f90815260066020526040902090565b90506129d48282611f30565b5f818152602081905260408120549194506001600160a01b03909116906129f9611cba565b600184015490915067ffffffffffffffff164210612a7e576001600160a01b0381163014612a2d57612a2d5f6001836122be565b6001600160a01b038a16158015612a4357508615155b15612a795760405163d1a3b35560e01b81525f6004820152602481018890526001600160a01b0382166044820152606401610c90565b612b42565b6001600160a01b03821615612ac1578a6040517fdef545a4000000000000000000000000000000000000000000000000000000008152600401610c90919061455a565b6001600160a01b038a16612b03578a6040517ff60759e0000000000000000000000000000000000000000000000000000000008152600401610c90919061455a565b6001600160a01b0381163014612b1f57612b1f5f6010836122be565b8567ffffffffffffffff165f03612b4257600183015467ffffffffffffffff1695505b67ffffffffffffffff86164210612b91576040517ff1d446c300000000000000000000000000000000000000000000000000000000815267ffffffffffffffff87166004820152602401610c90565b6001600160a01b03821615612c2957612bac82866001612f04565b825483905f90612bc19063ffffffff1661501b565b91906101000a81548163ffffffff021916908363ffffffff160217905550825f01600481819054906101000a900463ffffffff16612bfe9061501b565b91906101000a81548163ffffffff021916908363ffffffff160217905550612c268584611f30565b94505b60018301805484546001600160a01b03808d16600160401b9081027fffffffff0000000000000000000000000000000000000000ffffffffffffffff9093169290921787558b81169091026001600160e01b031990921667ffffffffffffffff8a1617919091179091558a16612ce557806001600160a01b0316845f1b867f734822851860327a80c624af1471efac6bb0ac641852fc6c7bfeeee3202ae6a88e8a604051612cd892919061546d565b60405180910390a4612d93565b806001600160a01b0316845f1b867f2fe093918572373e9f1f0368f414dffd0043a74ae8c9fd7b0e390b26a0d20b6e8e8e8b604051612d2693929190615498565b60405180910390a4612d498a86600160405180602001604052805f815250613872565b5f612d548685611f4e565b905080867f35190fb7cb1f442974e3c68fa2be9cf56828d0043b1cfcfbd17b4efa8566929660405160405180910390a3612d9081898d5f611d0b565b50505b6001600160a01b03891615612de457806001600160a01b0316896001600160a01b0316867fca9c8d517128edd416adf5719242ca6ff93ce234442d95234da53c0ae8a1054060405160405180910390a45b6001600160a01b03881615612e3557806001600160a01b0316886001600160a01b0316867f9b6b420ff87c91604d447e507cbeedda5df2fa669a6b6534375e41fd3905a8d560405160405180910390a45b505050509695505050505050565b60607f00000000000000000000000000000000000000000000000000000000000000006001600160a01b03166320c38e2b612e7d60075490565b6040518263ffffffff1660e01b8152600401612e9b91815260200190565b5f60405180830381865afa158015612eb5573d5f803e3d5ffd5b505050506040513d5f823e601f3d908101601f191682016040526113fb9190810190615324565b5f807ff0c57e16840df040f15088dc2f81fe391c3923bec73e23a9662efc9c229c6a00610afe565b6001600160a01b038316612f2c57604051626a0d4560e21b81525f6004820152602401610c90565b604080516001808252602082018590528183019081526060820184905260a082019092525f60808201818152919291611fc29187918590859061369f565b6001600160a01b038216612fac576040517fced3e1000000000000000000000000000000000000000000000000000000000081525f6004820152602401610c90565b6001600160a01b038381165f81815260016020908152604080832094871680845294825291829020805460ff191686151590811790915591519182527f17307eab39ab6107e8899845ad3d59bd9653f200f220920489ca2b5937696c319101611097565b613019816138cd565b9050805160208201fd5b5f61302e8483613994565b9050801983161561126b576040517fa604e31800000000000000000000000000000000000000000000000000000000815260048101859052602481018490526001600160a01b0383166044820152606401610c90565b5f61308e846134a1565b5f8581526002602090815260408083206001600160a01b038716845290915290205484198116808214611e28575f8781526002602090815260408083206001600160a01b0389168452909152812082905586831690611dc39089908390613501565b5f83836131008282611901611cba565b8561311e57604051631850848b60e31b815260040160405180910390fd5b6128b78686866001613084565b5f8061316e610da885858080601f0160208091040260200160405190810160405280939291908181526020018383808284375f9201919091525061204c92505050565b600181015490915067ffffffffffffffff16421015610df0576001810154600160401b90046001600160a01b0316610df2565b6001600160a01b0384166131ca57604051632bfa23e760e11b81525f6004820152602401610c90565b6001600160a01b0385166131f257604051626a0d4560e21b81525f6004820152602401610c90565b60408051600180825260208201869052818301908152606082018590526080820190925290612873878784848761369f565b5f6001600160e01b031982167fafff3a6300000000000000000000000000000000000000000000000000000000148061328657506001600160e01b031982167fb844ab6c00000000000000000000000000000000000000000000000000000000145b806132ba57506001600160e01b031982167f51f67f4000000000000000000000000000000000000000000000000000000000145b80610afe5750610afe82613a6c565b5f7f00000000000000000000000000000000000000000000000000000000000000006001600160a01b03166132fd57503390565b6040517f442b172c0000000000000000000000000000000000000000000000000000000081523360048201525f907f00000000000000000000000000000000000000000000000000000000000000006001600160a01b03169063442b172c90602401602060405180830381865afa15801561337a573d5f803e3d5ffd5b505050506040513d601f19601f8201168201806040525081019061339e91906153f0565b90506001600160a01b0381166133b5573391505090565b919050565b5f8061344e84846001600160a01b03165f8181527fac33ff75c19e70fe83507db0d683fd3465c996598dc972688b7ace676c89077b60209081526040808320549483526002825280832093835292905220547f1111111111111111111111111111111100000000000000000000000000000000911790811660809190911c6f11111111111111111111111111111111161790565b90508361345c579050610afe565b5f6134806107ce86610be68163ffffffff8116185f90815260066020526040902090565b6001600160a01b031603613497575f915050610afe565b60801c9392505050565b7feeeeeeeeeeeeeeeeeeeeeeeeeeeeeeeeeeeeeeeeeeeeeeeeeeeeeeeeeeeeeeee8116156134fe576040517f2a7b2d2000000000000000000000000000000000000000000000000000000000815260048101829052602401610c90565b50565b5f61350b836136fb565b905081156135d4575f848152600360205260409020547f888888888888888888888888888888888888888888888888888888888888888890821680197feeeeeeeeeeeeeeeeeeeeeeeeeeeeeeeeeeeeeeeeeeeeeeeeeeeeeeeeeeeeeeef011616156135ac576040517ff91653480000000000000000000000000000000000000000000000000000000081526004810185905260248101849052604401610c90565b5f84815260036020526040812080548592906135c9908490615054565b9091555061126b9050565b5f848152600360205260409020547f88888888888888888888888888888888888888888888888888888888888888889019821680197feeeeeeeeeeeeeeeeeeeeeeeeeeeeeeeeeeeeeeeeeeeeeeeeeeeeeeeeeeeeeeef0116161561366e576040517f1f80c19b0000000000000000000000000000000000000000000000000000000081526004810185905260248101849052604401610c90565b5f848152600360205260408120805485929061368b9084906154d3565b909155505050505050565b611fc285613aa9565b6136ab85858585613b8d565b6001600160a01b03841615611fc2575f6136c3611cba565b905083516001036136ed57602084810151908401516136e6838989858589613caa565b5050610ca6565b610ca6818787878787613dcb565b5f613705826134a1565b50600181901b17600281901b1790565b61371e82613eb2565b6040516001600160a01b038316907fbc7cd75a20ee27fd9adebab32041f755214dbc6bffa90cc0225b39da2e5c2d3b905f90a2805115613762576122708282613f35565b610fd1613f9e565b5f602082168103613779576001175b6002821661378857608081901b175b720100000000000000000000000000000001000017919050565b5f620400008216156137b45762010000175b600882165f036137c5576301000000175b600282166137d457608081901b175b600482165f036133b5576001609c1b17919050565b5f6113e6878787878787612999565b80515f90808203613835576040517fbf9a274000000000000000000000000000000000000000000000000000000000815260040160405180910390fd5b60ff811115610afe57826040517fdab6c73c000000000000000000000000000000000000000000000000000000008152600401610c90919061455a565b6001600160a01b03841661389b57604051632bfa23e760e11b81525f6004820152602401610c90565b60408051600180825260208201869052818301908152606082018590526080820190925290610ca65f8784848761369f565b60605f82511180156138f7575062461bcd60e51b6138ea836154e6565b6001600160e01b03191614155b156139905762461bcd60e51b7f577261707065644572726f723a3a30780000000000000000000000000000000061392d84613fd6565b60405160200161393e929190615530565b60408051601f198184030181529082905261395b9160240161455a565b60408051601f198184030181529190526020810180516001600160e01b03166001600160e01b03199093169290921790915291505b5090565b5f82158015906139ce57505f6139c36107ce85610be68163ffffffff8116185f90815260066020526040902090565b6001600160a01b0316145b156139da57505f610afe565b610bbe83836001600160a01b03165f8181527fac33ff75c19e70fe83507db0d683fd3465c996598dc972688b7ace676c89077b60209081526040808320549483526002825280832093835292905220547f1111111111111111111111111111111100000000000000000000000000000000911790811660809190911c6f11111111111111111111111111111111161790565b5f6001600160e01b031982167f8f452d62000000000000000000000000000000000000000000000000000000001480610afe5750610afe8261403f565b80156134fe5763ffffffff811681185f90815260066020526040812090613ad08383611f30565b5f818152602081905260409020549091506001600160a01b0316613af681836001612f04565b82548390600490613b1490640100000000900463ffffffff1661501b565b91906101000a81548163ffffffff021916908363ffffffff1602179055505f613b3d8385611f30565b9050613b5a8282600160405180602001604052805f815250613872565b604051819084907f4adeae13ec8831392865da923fda1c23d6894f7acb41defa2472480cd4b47d58905f90a35050505050565b5f6001600160a01b03841615801590613bae57506001600160a01b03851615155b90508015613c58575f5b8351811015613c5657613be9848281518110613bd657613bd6614e01565b60200260200101516001609c1b88611913565b613c4e57838181518110613bff57613bff614e01565b6020026020010151866040517fe58f6d5a000000000000000000000000000000000000000000000000000000008152600401610c909291909182526001600160a01b0316602082015260400190565b600101613bb8565b505b613c648585858561410d565b8015611fc2575f5b8351811015610ca657613ca2613c9a858381518110613c8d57613c8d614e01565b6020026020010151610beb565b87875f614323565b600101613c6c565b6001600160a01b0384163b15610ca65760405163f23a6e6160e01b81526001600160a01b0385169063f23a6e6190613cee9089908990889088908890600401615563565b6020604051808303815f875af1925050508015613d28575060408051601f3d908101601f19168201909252613d259181019061559a565b60015b613d8f573d808015613d55576040519150601f19603f3d011682016040523d82523d5f602084013e613d5a565b606091505b5080515f03613d8757604051632bfa23e760e11b81526001600160a01b0386166004820152602401610c90565b805181602001fd5b6001600160e01b0319811663f23a6e6160e01b1461287357604051632bfa23e760e11b81526001600160a01b0386166004820152602401610c90565b6001600160a01b0384163b15610ca65760405163bc197c8160e01b81526001600160a01b0385169063bc197c8190613e0f90899089908890889088906004016155b5565b6020604051808303815f875af1925050508015613e49575060408051601f3d908101601f19168201909252613e469181019061559a565b60015b613e76573d808015613d55576040519150601f19603f3d011682016040523d82523d5f602084013e613d5a565b6001600160e01b0319811663bc197c8160e01b1461287357604051632bfa23e760e11b81526001600160a01b0386166004820152602401610c90565b806001600160a01b03163b5f03613ee757604051634c9c8ce360e01b81526001600160a01b0382166004820152602401610c90565b7f360894a13ba1a3210667c828492db98dca3e2076cc3735a920a3ca505d382bbc805473ffffffffffffffffffffffffffffffffffffffff19166001600160a01b0392909216919091179055565b60605f80846001600160a01b031684604051613f519190615612565b5f60405180830381855af49150503d805f8114613f89576040519150601f19603f3d011682016040523d82523d5f602084013e613f8e565b606091505b5091509150610b97858383614364565b3415612168576040517fb398979f00000000000000000000000000000000000000000000000000000000815260040160405180910390fd5b805160609060011b8067ffffffffffffffff811115613ff757613ff761458c565b6040519080825280601f01601f191660200182016040528015614021576020820181803683370190505b50915060208381019083016140378282856143d4565b505050919050565b5f6001600160e01b031982167fd9b67a260000000000000000000000000000000000000000000000000000000014806140a157506001600160e01b031982167f6352211e00000000000000000000000000000000000000000000000000000000145b806140d557506001600160e01b031982167f0e89341c00000000000000000000000000000000000000000000000000000000145b80610afe57507f01ffc9a7000000000000000000000000000000000000000000000000000000006001600160e01b0319831614610afe565b805182511461413c5781518151604051635b05999160e01b815260048101929092526024820152604401610c90565b5f614145611cba565b90505f5b835181101561424557602081810285810182015190850190910151801561423b575f828152602081905260409020546001600160a01b0390811690891681146141c4576040516303dee4c560e01b81526001600160a01b038a1660048201525f60248201526044810183905260648101849052608401610c90565b6001821115614206576040516303dee4c560e01b81526001600160a01b038a166004820152600160248201526044810183905260648101849052608401610c90565b505f828152602081905260409020805473ffffffffffffffffffffffffffffffffffffffff19166001600160a01b0389161790555b5050600101614149565b5082516001036142c55760208301515f906020840151909150856001600160a01b0316876001600160a01b0316846001600160a01b03167fc3d58168c5ae7397731d063d5bbf3d657854427343f4c083240f7aacaa2d0f6285856040516142b6929190918252602082015260400190565b60405180910390a45050611fc2565b836001600160a01b0316856001600160a01b0316826001600160a01b03167f4a39dc06d4c0dbc64b70af90fd698a233a518aa5d07e595d983b8c0526c8f7fb868660405161431492919061561d565b60405180910390a45050505050565b5f8481526002602090815260408083206001600160a01b03871684529091529020548015611fc25761435785828685613084565b50610ca685828585611d0b565b606082614374576112cd82614437565b815115801561438b57506001600160a01b0384163b155b156143cd576040517f9996b3150000000000000000000000000000000000000000000000000000000081526001600160a01b0385166004820152602401610c90565b5080610bbe565b8181015b8083101561126b5783516101005b82851080156143f457505f81115b1561442a5760031901600f82821c16600a81106144145780605701614419565b806030015b9050808653506001909401936143e6565b50506020840193506143d8565b8051156144475780518082602001fd5b6040517fd6bda27500000000000000000000000000000000000000000000000000000000815260040160405180910390fd5b6001600160a01b03811681146134fe575f80fd5b5f806040838503121561449e575f80fd5b82356144a981614479565b946020939093013593505050565b6001600160e01b0319811681146134fe575f80fd5b5f602082840312156144dc575f80fd5b8135610bbe816144b7565b5f80604083850312156144f8575f80fd5b82359150602083013561450a81614479565b809150509250929050565b5f60208284031215614525575f80fd5b5035919050565b5f81518084528060208401602086015e5f602082860101526020601f19601f83011685010191505092915050565b602081525f610bbe602083018461452c565b5f806040838503121561457d575f80fd5b50508035926020909101359150565b634e487b7160e01b5f52604160045260245ffd5b604051601f8201601f1916810167ffffffffffffffff811182821017156145c9576145c961458c565b604052919050565b5f67ffffffffffffffff8211156145ea576145ea61458c565b5060051b60200190565b5f82601f830112614603575f80fd5b81356020614618614613836145d1565b6145a0565b8083825260208201915060208460051b870101935086841115614639575f80fd5b602086015b84811015614655578035835291830191830161463e565b509695505050505050565b5f67ffffffffffffffff8211156146795761467961458c565b50601f01601f191660200190565b5f82601f830112614696575f80fd5b81356146a461461382614660565b8181528460208386010111156146b8575f80fd5b816020850160208301375f918101602001919091529392505050565b5f805f805f60a086880312156146e8575f80fd5b85356146f381614479565b9450602086013561470381614479565b9350604086013567ffffffffffffffff8082111561471f575f80fd5b61472b89838a016145f4565b94506060880135915080821115614740575f80fd5b61474c89838a016145f4565b93506080880135915080821115614761575f80fd5b5061476e88828901614687565b9150509295509295909350565b5f8083601f84011261478b575f80fd5b50813567ffffffffffffffff8111156147a2575f80fd5b602083019150836020828501011115610e13575f80fd5b5f80602083850312156147ca575f80fd5b823567ffffffffffffffff8111156147e0575f80fd5b6147ec8582860161477b565b90969095509350505050565b634e487b7160e01b5f52602160045260245ffd5b6003811061482857634e487b7160e01b5f52602160045260245ffd5b9052565b5f60a08201905061483e82845161480c565b67ffffffffffffffff60208401511660208301526001600160a01b036040840151166040830152606083015160608301526080830151608083015292915050565b5f8060408385031215614890575f80fd5b823567ffffffffffffffff808211156148a7575f80fd5b818501915085601f8301126148ba575f80fd5b813560206148ca614613836145d1565b82815260059290921b840181019181810190898411156148e8575f80fd5b948201945b8386101561490f57853561490081614479565b825294820194908201906148ed565b96505086013592505080821115614924575f80fd5b50614931858286016145f4565b9150509250929050565b5f815180845260208085019450602084015f5b8381101561496a5781518752958201959082019060010161494e565b509495945050505050565b602081525f610bbe602083018461493b565b5f8060408385031215614998575f80fd5b82356149a381614479565b9150602083013567ffffffffffffffff8111156149be575f80fd5b61493185828601614687565b67ffffffffffffffff811681146134fe575f80fd5b5f80604083850312156149f0575f80fd5b82359150602083013561450a816149ca565b60208101610afe828461480c565b5f8083601f840112614a20575f80fd5b50813567ffffffffffffffff811115614a37575f80fd5b6020830191508360208260051b8501011115610e13575f80fd5b5f805f8060408587031215614a64575f80fd5b843567ffffffffffffffff80821115614a7b575f80fd5b614a8788838901614a10565b90965094506020870135915080821115614a9f575f80fd5b50614aac87828801614a10565b95989497509550505050565b5f805f60608486031215614aca575f80fd5b83359250602084013591506040840135614ae381614479565b809150509250925092565b6001600160a01b0383168152604060208201525f610df2604083018461452c565b5f805f805f8060c08789031215614b24575f80fd5b863567ffffffffffffffff811115614b3a575f80fd5b614b4689828a01614687565b9650506020870135614b5781614479565b94506040870135614b6781614479565b93506060870135614b7781614479565b92506080870135915060a0870135614b8e816149ca565b809150509295509295509295565b5f805f805f8060a08789031215614bb1575f80fd5b863595506020870135614bc381614479565b9450604087013567ffffffffffffffff811115614bde575f80fd5b614bea89828a0161477b565b9095509350506060870135614bfe81614479565b80925050608087013590509295509295509295565b5f8060408385031215614c24575f80fd5b8235614c2f81614479565b91506020830135801515811461450a575f80fd5b5f805f805f805f8060a0898b031215614c5a575f80fd5b8835614c6581614479565b97506020890135614c7581614479565b9650604089013567ffffffffffffffff80821115614c91575f80fd5b614c9d8c838d01614a10565b909850965060608b0135915080821115614cb5575f80fd5b614cc18c838d01614a10565b909650945060808b0135915080821115614cd9575f80fd5b50614ce68b828c0161477b565b999c989b5096995094979396929594505050565b5f8060408385031215614d0b575f80fd5b8235614d1681614479565b9150602083013561450a81614479565b5f805f805f8060a08789031215614d3b575f80fd5b8635614d4681614479565b95506020870135614d5681614479565b94506040870135935060608701359250608087013567ffffffffffffffff811115614d7f575f80fd5b614d8b89828a0161477b565b979a9699509497509295939492505050565b5f805f805f60a08688031215614db1575f80fd5b8535614dbc81614479565b94506020860135614dcc81614479565b93506040860135925060608601359150608086013567ffffffffffffffff811115614df5575f80fd5b61476e88828901614687565b634e487b7160e01b5f52603260045260245ffd5b600181811c90821680614e2957607f821691505b602082108103614e4757634e487b7160e01b5f52602260045260245ffd5b50919050565b601f82111561227057805f5260205f20601f840160051c81016020851015614e725750805b601f840160051c820191505b81811015611fc2575f8155600101614e7e565b815167ffffffffffffffff811115614eab57614eab61458c565b614ebf81614eb98454614e15565b84614e4d565b602080601f831160018114614ef2575f8415614edb5750858301515b5f19600386901b1c1916600185901b178555610ca6565b5f85815260208120601f198616915b82811015614f2057888601518255948401946001909101908401614f01565b5085821015614f3d57878501515f19600388901b60f8161c191681555b5050505050600190811b01905550565b67ffffffffffffffff831115614f6557614f6561458c565b614f7983614f738354614e15565b83614e4d565b5f601f841160018114614faa575f8515614f935750838201355b5f19600387901b1c1916600186901b178355611fc2565b5f83815260208120601f198716915b82811015614fd95786850135825560209485019460019092019101614fb9565b5086821015614ff5575f1960f88860031b161c19848701351681555b505060018560011b0183555050505050565b634e487b7160e01b5f52601160045260245ffd5b5f63ffffffff80831681810361503357615033615007565b6001019392505050565b8082028115828204841417610afe57610afe615007565b80820180821115610afe57610afe615007565b5f60808284031215615077575f80fd5b6040516080810167ffffffffffffffff828210818311171561509b5761509b61458c565b8160405282935084359150808211156150b2575f80fd5b506150bf85828601614687565b82525060208301356150d081614479565b602082015260408301356150e381614479565b604082015260608301356150f681614479565b6060919091015292915050565b5f6020808385031215615114575f80fd5b823567ffffffffffffffff8082111561512b575f80fd5b818501915085601f83011261513e575f80fd5b813561514c614613826145d1565b81815260059190911b8301840190848101908883111561516a575f80fd5b8585015b838110156151a057803585811115615184575f80fd5b6151928b89838a0101615067565b84525091860191860161516e565b5098975050505050505050565b5f82825180855260208086019550808260051b8401018186015f5b8481101561522e57601f198684030189528151608081518186526151ee8287018261452c565b838801516001600160a01b03908116888a0152604080860151821690890152606094850151169390960192909252505097830197908301906001016151c8565b5090979650505050505050565b604081528260408201525f7f07ffffffffffffffffffffffffffffffffffffffffffffffffffffffffffffff841115615272575f80fd5b8360051b808660608501378201828103606090810160208501526128b7908201856151ad565b5f602082840312156152a8575f80fd5b813567ffffffffffffffff8111156152be575f80fd5b610df284828501615067565b604081525f6152dc604083018561493b565b8281036020840152610b9781856151ad565b5f6152fb61461384614660565b905082815283838301111561530e575f80fd5b8282602083015e5f602084830101529392505050565b5f60208284031215615334575f80fd5b815167ffffffffffffffff81111561534a575f80fd5b8201601f8101841361535a575f80fd5b610df2848251602084016152ee565b5f60208284031215615379575f80fd5b5051919050565b5f8235607e19833603018112615394575f80fd5b9190910192915050565b5f610afe3683615067565b5f805f606084860312156153bb575f80fd5b83516153c681614479565b602085015190935063ffffffff811681146153df575f80fd5b6040850151909250614ae3816149ca565b5f60208284031215615400575f80fd5b8151610bbe81614479565b8581525f6001600160a01b03808716602084015260a0604084015261543360a084018761452c565b9416606083015250608001529392505050565b6001600160a01b0384168152826020820152606060408201525f610b97606083018461452c565b604081525f61547f604083018561452c565b905067ffffffffffffffff831660208301529392505050565b606081525f6154aa606083018661452c565b90506001600160a01b038416602083015267ffffffffffffffff83166040830152949350505050565b81810381811115610afe57610afe615007565b5f815160208301516001600160e01b0319808216935060048310156140375760049290920360031b82901b161692915050565b5f81518060208401855e5f93019283525090919050565b7fffffffffffffffffffffffffffffffff00000000000000000000000000000000831681525f610df26010830184615519565b5f6001600160a01b03808816835280871660208401525084604083015283606083015260a060808301526113e660a083018461452c565b5f602082840312156155aa575f80fd5b8151610bbe816144b7565b5f6001600160a01b03808816835280871660208401525060a060408301526155e060a083018661493b565b82810360608401526155f2818661493b565b90508281036080840152615606818561452c565b98975050505050505050565b5f610bbe8284615519565b604081525f61562f604083018561493b565b8281036020840152610b97818561493b56fea2646970667358221220b8c859968cb3d5888df3fe25186a9d7f79dfd374cb1093d417b870fbd0ab091464736f6c634300081900338888888888888888888888888888888888888888888888888888888888888888eeeeeeeeeeeeeeeeeeeeeeeeeeeeeeeeeeeeeeeeeeeeeeeeeeeeeeeeeeeeeeef",
  "linkReferences": {},
  "deployedLinkReferences": {},
  "immutableReferences": {
    "40019": [
      {
        "length": 32,
        "start": 8380
      },
      {
        "length": 32,
        "start": 8421
      },
      {
        "length": 32,
        "start": 8832
      }
    ],
    "69592": [
      {
        "length": 32,
        "start": 1376
      },
      {
        "length": 32,
        "start": 13004
      },
      {
        "length": 32,
        "start": 13101
      }
    ],
    "69686": [
      {
        "length": 32,
        "start": 1211
      },
      {
        "length": 32,
        "start": 5805
      },
      {
        "length": 32,
        "start": 6663
      },
      {
        "length": 32,
        "start": 9260
      },
      {
        "length": 32,
        "start": 9504
      },
      {
        "length": 32,
        "start": 9739
      },
      {
        "length": 32,
        "start": 10497
      },
      {
        "length": 32,
        "start": 11847
      }
    ],
    "69690": [
      {
        "length": 32,
        "start": 9886
      }
    ],
    "70149": [
      {
        "length": 32,
        "start": 1136
      },
      {
        "length": 32,
        "start": 10017
      }
    ],
    "70152": [
      {
        "length": 32,
        "start": 1801
      },
      {
        "length": 32,
        "start": 10064
      }
    ],
    "73374": [
      {
        "length": 32,
        "start": 1719
      },
      {
        "length": 32,
        "start": 7736
      },
      {
        "length": 32,
        "start": 7846
      }
    ],
    "75224": [
      {
        "length": 32,
        "start": 1585
      },
      {
        "length": 32,
        "start": 6614
      }
    ]
  },
  "inputSourceName": "project/src/registry/WrapperRegistry.sol",
  "devdoc": {
    "errors": {
      "AddressEmptyCode(address)": [
        {
          "details": "There's no code at `target` (it is not a contract)."
        }
      ],
      "CannotReduceExpiry(uint64,uint64)": [
        {
          "details": "Error selector: `0x68c1425a`"
        }
      ],
      "CannotSetPastExpiry(uint64)": [
        {
          "details": "Error selector: `0xf1d446c3`"
        }
      ],
      "EACCannotGrantRoles(uint256,uint256,address)": [
        {
          "details": "Error selector: `0xd1a3b355`"
        }
      ],
      "EACCannotRevokeRoles(uint256,uint256,address)": [
        {
          "details": "Error selector: `0xa604e318`"
        }
      ],
      "EACInvalidAccount()": [
        {
          "details": "Error selector: `0xec3fc592`"
        }
      ],
      "EACInvalidRoleBitmap(uint256)": [
        {
          "details": "Error selector: `0x2a7b2d20`"
        }
      ],
      "EACMaxAssignees(uint256,uint256)": [
        {
          "details": "Error selector: `0xf9165348`"
        }
      ],
      "EACMinAssignees(uint256,uint256)": [
        {
          "details": "Error selector: `0x1f80c19b`"
        }
      ],
      "EACRootResourceNotAllowed()": [
        {
          "details": "Error selector: `0xc2842458`"
        }
      ],
      "EACUnauthorizedAccountRoles(uint256,uint256,address)": [
        {
          "details": "Error selector: `0x4b27a133`"
        }
      ],
      "ERC1155InsufficientBalance(address,uint256,uint256,uint256)": [
        {
          "details": "Indicates an error related to the current `balance` of a `sender`. Used in transfers.",
          "params": {
            "balance": "Current balance for the interacting account.",
            "needed": "Minimum amount required to perform a transfer.",
            "sender": "Address whose tokens are being transferred.",
            "tokenId": "Identifier number of a token."
          }
        }
      ],
      "ERC1155InvalidApprover(address)": [
        {
          "details": "Indicates a failure with the `approver` of a token to be approved. Used in approvals.",
          "params": {
            "approver": "Address initiating an approval operation."
          }
        }
      ],
      "ERC1155InvalidArrayLength(uint256,uint256)": [
        {
          "details": "Indicates an array length mismatch between ids and values in a safeBatchTransferFrom operation. Used in batch transfers.",
          "params": {
            "idsLength": "Length of the array of token identifiers",
            "valuesLength": "Length of the array of token amounts"
          }
        }
      ],
      "ERC1155InvalidOperator(address)": [
        {
          "details": "Indicates a failure with the `operator` to be approved. Used in approvals.",
          "params": {
            "operator": "Address that may be allowed to operate on tokens without being their owner."
          }
        }
      ],
      "ERC1155InvalidReceiver(address)": [
        {
          "details": "Indicates a failure with the token `receiver`. Used in transfers.",
          "params": {
            "receiver": "Address to which tokens are being transferred."
          }
        }
      ],
      "ERC1155InvalidSender(address)": [
        {
          "details": "Indicates a failure with the token `sender`. Used in transfers.",
          "params": {
            "sender": "Address whose tokens are being transferred."
          }
        }
      ],
      "ERC1155MissingApprovalForAll(address,address)": [
        {
          "details": "Indicates a failure with the `operator`’s approval. Used in transfers.",
          "params": {
            "operator": "Address that may be allowed to operate on tokens without being their owner.",
            "owner": "Address of the current owner of a token."
          }
        }
      ],
      "ERC1967InvalidImplementation(address)": [
        {
          "details": "The `implementation` of the proxy is invalid."
        }
      ],
      "ERC1967NonPayable()": [
        {
          "details": "An upgrade function sees `msg.value > 0` that may be lost."
        }
      ],
      "FailedCall()": [
        {
          "details": "A call to an address target failed. The target may have reverted."
        }
      ],
      "FrozenTokenApproval(uint256)": [
        {
          "details": "Error selector: `0xa4f07713`"
        }
      ],
      "InvalidInitialization()": [
        {
          "details": "The contract is already initialized."
        }
      ],
      "InvalidOwner()": [
        {
          "details": "Error selector: `0x49e27cff`"
        }
      ],
      "LabelAlreadyRegistered(string)": [
        {
          "details": "Error selector: `0xdef545a4`"
        }
      ],
      "LabelAlreadyReserved(string)": [
        {
          "details": "Error selector: `0xf60759e0`"
        }
      ],
      "LabelExpired(uint256)": [
        {
          "details": "Error selector: `0xc44e2374`"
        }
      ],
      "LabelIsEmpty()": [
        {
          "details": "The label was empty.      Error selector: `0xbf9a2740`"
        }
      ],
      "LabelIsTooLong(string)": [
        {
          "details": "The label was more than 255 bytes.      Error selector: `0xdab6c73c`"
        }
      ],
      "NameDataMismatch(uint256)": [
        {
          "details": "Error selector: `0xedec3569`"
        }
      ],
      "NameNotLocked(uint256)": [
        {
          "details": "Error selector: `0x1bfe8f0a`"
        }
      ],
      "NameRequiresMigration()": [
        {
          "details": "Error selector: `0x408fa1b8`"
        }
      ],
      "NotInitializing()": [
        {
          "details": "The contract is not initializing."
        }
      ],
      "TransferDisallowed(uint256,address)": [
        {
          "details": "Error selector: `0xe58f6d5a`"
        }
      ],
      "UUPSUnauthorizedCallContext()": [
        {
          "details": "The call is from an unauthorized context."
        }
      ],
      "UUPSUnsupportedProxiableUUID(bytes32)": [
        {
          "details": "The storage `slot` is unsupported as a UUID."
        }
      ],
      "UnauthorizedCaller(address)": [
        {
          "details": "Error selector: `0xd86ad9cf`",
          "params": {
            "caller": "The address that attempted the unauthorized operation"
          }
        }
      ]
    },
    "events": {
      "Approval(address,address,uint256)": {
        "params": {
          "approved": "The approved address.",
          "owner": "The owner of the token.",
          "tokenId": "The token ID."
        }
      },
      "ApprovalForAll(address,address,bool)": {
        "details": "Emitted when `account` grants or revokes permission to `operator` to transfer their tokens, according to `approved`."
      },
      "EACRolesChanged(uint256,address,uint256,uint256)": {
        "params": {
          "account": "The account that the roles were changed for.",
          "newRoleBitmap": "The new roles for the account.",
          "oldRoleBitmap": "The old roles for the account.",
          "resource": "The resource that the roles were changed within."
        }
      },
      "ExpiryUpdated(uint256,uint64,address)": {
        "params": {
          "newExpiry": "The new expiry of the label.",
          "sender": "The sender of the call to update the expiry.",
          "tokenId": "The token ID of the label."
        }
      },
      "Initialized(uint64)": {
        "details": "Triggered when the contract has been initialized or reinitialized."
      },
      "LabelRegistered(uint256,bytes32,string,address,uint64,address)": {
        "params": {
          "expiry": "The expiry of the label.",
          "label": "The label registered.",
          "labelHash": "The label hash registered.",
          "owner": "The owner of the label.",
          "sender": "The sender of the call to register.",
          "tokenId": "The token ID registered."
        }
      },
      "LabelReserved(uint256,bytes32,string,uint64,address)": {
        "params": {
          "expiry": "The expiry of the label.",
          "label": "The label reserved.",
          "labelHash": "The label hash reserved.",
          "sender": "The sender of the call to reserve.",
          "tokenId": "The token ID reserved."
        }
      },
      "LabelUnregistered(uint256,address)": {
        "params": {
          "sender": "The sender of the call to unregister.",
          "tokenId": "The token ID unregistered."
        }
      },
      "ParentUpdated(address,string,address)": {
        "params": {
          "label": "The new label.",
          "parent": "The new parent.",
          "sender": "The sender of the call to update the parent."
        }
      },
      "ResolverUpdated(uint256,address,address)": {
        "params": {
          "resolver": "The new resolver.",
          "sender": "The sender of the call to update the resolver.",
          "tokenId": "The token ID of the label."
        }
      },
      "SubregistryUpdated(uint256,address,address)": {
        "params": {
          "sender": "The sender of the call to update the subregistry.",
          "subregistry": "The new subregistry.",
          "tokenId": "The token ID of the label."
        }
      },
      "TokenRegenerated(uint256,uint256)": {
        "params": {
          "newTokenId": "The new token ID.",
          "oldTokenId": "The old token ID."
        }
      },
      "TokenResource(uint256,uint256)": {
        "params": {
          "resource": "The EAC resource.",
          "tokenId": "The token ID."
        }
      },
      "TransferBatch(address,address,address,uint256[],uint256[])": {
        "details": "Equivalent to multiple {TransferSingle} events, where `operator`, `from` and `to` are the same for all transfers."
      },
      "TransferSingle(address,address,address,uint256,uint256)": {
        "details": "Emitted when `value` amount of tokens of type `id` are transferred from `from` to `to` by `operator`."
      },
      "URI(string,uint256)": {
        "details": "Emitted when the URI for token type `id` changes to `value`, if it is a non-programmatic URI. If an {URI} event was emitted for `id`, the standard https://eips.ethereum.org/EIPS/eip-1155#metadata-extensions[guarantees] that `value` will equal the value returned by {IERC1155MetadataURI-uri}."
      },
      "Upgraded(address)": {
        "details": "Emitted when the implementation is upgraded."
      }
    },
    "kind": "dev",
    "methods": {
      "balanceOf(address,uint256)": {
        "params": {
          "account": "The account to get the balance for.",
          "id": "The token ID."
        },
        "returns": {
          "_0": "balance The balance of the token for the account. This will only ever be 1 or 0."
        }
      },
      "balanceOfBatch(address[],uint256[])": {
        "details": "`accounts` and `ids` must have the same length.",
        "params": {
          "accounts": "The accounts to get the balances for.",
          "ids": "The token IDs."
        },
        "returns": {
          "_0": "batchBalances The balances of the tokens for the accounts. These will only ever be 1 or 0."
        }
      },
      "constructor": {
        "params": {
          "ensV1Resolver": "The ENSv1 resolver.",
          "hcaFactory": "The HCA factory.",
          "metadataProvider": "The metadata provider.",
          "nameWrapper": "The ENSv1 NameWrapper.",
          "verifiableFactory": "The VerifiableFactory."
        }
      },
      "finishERC1155Migration(uint256[],(string,address,address,address)[])": {
        "details": "Only callable by ourself and invoked by our `IERC1155Receiver` handlers. TODO: gas analysis and optimization NOTE: converting this to an internal call requires catching many reverts",
        "params": {
          "ids": "The NameWrapper token IDs (namehashes) of the names being migrated.",
          "mds": "The migration parameters for each name, indexed in parallel with `ids`."
        }
      },
      "getAssigneeCount(uint256,uint256)": {
        "params": {
          "resource": "The resource to check.",
          "roleBitmap": "The roles bitmap to check."
        },
        "returns": {
          "counts": "The number of assignees for each of the roles in the given role bitmap, expressed as a packed array of 4-bit ints.",
          "mask": "The mask for the given role bitmap."
        }
      },
      "getExpiry(uint256)": {
        "params": {
          "anyId": "The labelhash, token ID, or resource."
        },
        "returns": {
          "_0": "The expiry of the label, in seconds."
        }
      },
      "getParent()": {
        "returns": {
          "label": "The canonical subdomain of this registry.",
          "parent": "The canonical parent of this registry."
        }
      },
      "getResolver(string)": {
        "details": "Return `V1_RESOLVER` upon visiting migratable children.",
        "params": {
          "label": "The label to fetch a resolver for."
        },
        "returns": {
          "_0": "resolver The address of a resolver responsible for this label, or `address(0)` if none exists."
        }
      },
      "getResource(uint256)": {
        "params": {
          "anyId": "The labelhash, token ID, or resource."
        },
        "returns": {
          "_0": "The resource."
        }
      },
      "getState(uint256)": {
        "params": {
          "anyId": "The labelhash, token ID, or resource."
        },
        "returns": {
          "state": "The state of the label."
        }
      },
      "getStatus(uint256)": {
        "params": {
          "anyId": "The labelhash, token ID, or resource."
        },
        "returns": {
          "_0": "The status of the label."
        }
      },
      "getSubregistry(string)": {
        "params": {
          "label": "The label to resolve."
        },
        "returns": {
          "_0": "The address of the registry for this label, or `address(0)` if none exists."
        }
      },
      "getTokenId(uint256)": {
        "params": {
          "anyId": "The labelhash, token ID, or resource."
        },
        "returns": {
          "_0": "The token ID."
        }
      },
      "grantRoles(uint256,uint256,address)": {
        "params": {
          "account": "The account to grant roles to.",
          "resource": "The resource to grant roles within.",
          "roleBitmap": "The roles bitmap to grant."
        },
        "returns": {
          "_0": "`true` if the roles were granted, `false` otherwise."
        }
      },
      "grantRootRoles(uint256,address)": {
        "details": "The caller must have all the necessary admin roles for the roles being granted.",
        "params": {
          "account": "The account to grant roles to.",
          "roleBitmap": "The roles bitmap to grant."
        },
        "returns": {
          "_0": "`true` if the roles were granted, `false` otherwise."
        }
      },
      "hasAssignees(uint256,uint256)": {
        "params": {
          "resource": "The resource to check.",
          "roleBitmap": "The roles bitmap to check."
        },
        "returns": {
          "_0": "`true` if any of the roles in the given role bitmap has assignees, `false` otherwise."
        }
      },
      "hasRoles(uint256,uint256,address)": {
        "params": {
          "account": "The account to check.",
          "resource": "The resource to check.",
          "roleBitmap": "The roles bitmap to check."
        },
        "returns": {
          "_0": "`true` if `account` has been granted all the given roles in the given resource or the `ROOT_RESOURCE`, `false` otherwise."
        }
      },
      "hasRootRoles(uint256,address)": {
        "params": {
          "account": "The account to check.",
          "roleBitmap": "The roles bitmap to check."
        },
        "returns": {
          "_0": "`true` if `account` has been granted all the given roles in the `ROOT_RESOURCE`, `false` otherwise."
        }
      },
      "initialize(bytes32,address,string,address,uint256)": {
        "params": {
          "admin": "Address that will control this registry.",
          "childLabel": "The subdomain for this registry.",
          "node": "Namehash of this registry.",
          "parentRegistry": "The parent of this registry.",
          "roleBitmap": "The roles assigned to `admin`."
        }
      },
      "isApprovedForAll(address,address)": {
        "params": {
          "account": "The account to get the approval for.",
          "operator": "The operator to get the approval for."
        },
        "returns": {
          "_0": "approved The approval status."
        }
      },
      "latestOwnerOf(uint256)": {
        "params": {
          "tokenId": "The token ID to query."
        },
        "returns": {
          "_0": "The latest owner address."
        }
      },
      "onERC1155BatchReceived(address,address,uint256[],uint256[],bytes)": {
        "details": "Only callable by NameWrapper.      Reverts require `WrappedErrorLib.unwrap()` before processing.",
        "params": {
          "data": "ABI-encoded `LibMigration.Data[]` array containing migration parameters for each name.",
          "ids": "The NameWrapper token IDs (namehashes) of the names being migrated."
        },
        "returns": {
          "_0": "`bytes4(keccak256(\"onERC1155BatchReceived(address,address,uint256[],uint256[],bytes)\"))` if transfer is allowed"
        }
      },
      "onERC1155Received(address,address,uint256,uint256,bytes)": {
        "details": "Only callable by NameWrapper.      Reverts require `WrappedErrorLib.unwrap()` before processing.",
        "params": {
          "data": "ABI-encoded `LibMigration.Data` struct containing migration parameters.",
          "id": "The NameWrapper token ID (namehash) of the name being migrated."
        },
        "returns": {
          "_0": "`bytes4(keccak256(\"onERC1155Received(address,address,uint256,uint256,bytes)\"))` if transfer is allowed"
        }
      },
      "ownerOf(uint256)": {
        "params": {
          "id": "The token ID."
        },
        "returns": {
          "_0": "The owner of the token."
        }
      },
      "proxiableUUID()": {
        "details": "Implementation of the ERC-1822 {proxiableUUID} function. This returns the storage slot used by the implementation. It is used to validate the implementation's compatibility when performing an upgrade. IMPORTANT: A proxy pointing at a proxiable contract should not be considered proxiable itself, because this risks bricking a proxy that upgrades to it, by delegating to itself until out of gas. Thus it is critical that this function revert if invoked through a proxy. This is guaranteed by the `notDelegated` modifier."
      },
      "register(string,address,address,address,uint256,uint64)": {
        "details": "Blocks registration of emancipated children.",
        "params": {
          "expiry": "The expiry of the label, in seconds.",
          "label": "The label to register.",
          "owner": "The address of the owner of the label.",
          "registry": "The registry to set as the label.",
          "resolver": "The resolver to set for the label.",
          "roleBitmap": "The role bitmap to set for the label."
        },
        "returns": {
          "tokenId": "The token ID."
        }
      },
      "renew(uint256,uint64)": {
        "details": "Requires `REGISTERED | RESERVED` and `ROLE_RENEW`.",
        "params": {
          "anyId": "The labelhash, token ID, or resource.",
          "newExpiry": "The new expiry, in seconds."
        }
      },
      "revokeRoles(uint256,uint256,address)": {
        "params": {
          "account": "The account to revoke roles from.",
          "resource": "The resource to revoke roles within.",
          "roleBitmap": "The roles bitmap to revoke."
        },
        "returns": {
          "_0": "`true` if the roles were revoked, `false` otherwise."
        }
      },
      "revokeRootRoles(uint256,address)": {
        "details": "The caller must have all the necessary admin roles for the roles being revoked.",
        "params": {
          "account": "The account to revoke roles from.",
          "roleBitmap": "The roles bitmap to revoke."
        },
        "returns": {
          "_0": "`true` if the roles were revoked, `false` otherwise."
        }
      },
      "roleCount(uint256)": {
        "params": {
          "resource": "The resource to get the role count for."
        },
        "returns": {
          "_0": "count The role count bitmap for the resource."
        }
      },
      "roles(uint256,address)": {
        "params": {
          "account": "The account to get the roles for.",
          "resource": "The resource to get the roles for."
        },
        "returns": {
          "_0": "The roles bitmap for the account in the resource."
        }
      },
      "safeBatchTransferFrom(address,address,uint256[],uint256[],bytes)": {
        "details": "`ids` and `values` must have the same length.If `to` refers to a smart contract, it must implement IERC1155Receiver.onERC1155BatchReceived and return the      acceptance magic value.",
        "params": {
          "data": "Additional data to pass to the receiver.",
          "from": "The address to transfer the tokens from.",
          "ids": "The token IDs.",
          "to": "The address to transfer the tokens to.",
          "values": "The amounts of tokens to transfer."
        }
      },
      "safeTransferFrom(address,address,uint256,uint256,bytes)": {
        "details": "`to` cannot be the zero address.If the caller is not `from`, it must have been approved to spend `from`'s tokens via `setApprovalForAll`.`from` must have a balance of tokens of type `id` of at least `value` amount.If `to` refers to a smart contract, it must implement IERC1155Receiver.onERC1155Received and return the      acceptance magic value.",
        "params": {
          "data": "Additional data to pass to the receiver.",
          "from": "The address to transfer the token from.",
          "id": "The token ID.",
          "to": "The address to transfer the token to.",
          "value": "The amount of tokens to transfer."
        }
      },
      "setApprovalForAll(address,bool)": {
        "params": {
          "approved": "The approval status.",
          "operator": "The operator to set the approval for."
        }
      },
      "setParent(address,string)": {
        "details": "Should emit `ParentUpdated`.",
        "params": {
          "label": "The canonical subdomain of this registry.",
          "parent": "The canonical parent of this registry."
        }
      },
      "setResolver(uint256,address)": {
        "params": {
          "anyId": "The labelhash, token ID, or resource.",
          "resolver": "The new resolver."
        }
      },
      "setSubregistry(uint256,address)": {
        "params": {
          "anyId": "The labelhash, token ID, or resource.",
          "registry": "The new registry."
        }
      },
      "supportsInterface(bytes4)": {
        "details": "Returns true if this contract implements the interface defined by `interfaceId`. See the corresponding https://eips.ethereum.org/EIPS/eip-165#how-interfaces-are-identified[ERC section] to learn more about how these ids are created. This function call must use less than 30 000 gas."
      },
      "unregister(uint256)": {
        "details": "Requires `REGISTERED | RESERVED` and `ROLE_UNREGISTER`.",
        "params": {
          "anyId": "The labelhash, token ID, or resource."
        }
      },
      "upgradeToAndCall(address,bytes)": {
        "custom:oz-upgrades-unsafe-allow-reachable": "delegatecall",
        "details": "Upgrade the implementation of the proxy to `newImplementation`, and subsequently execute the function call encoded in `data`. Calls {_authorizeUpgrade}. Emits an {Upgraded} event."
      },
      "uri(uint256)": {
        "params": {
          "id": "The token ID."
        },
        "returns": {
          "_0": "The URI for the token."
        }
      }
    },
    "stateVariables": {
      "_node": {
        "details": "The namehash of this registry."
      }
    },
    "version": 1
  },
  "evm": {
    "gasEstimates": {
      "creation": {
        "codeDepositCost": "4427000",
        "executionCost": "infinite",
        "totalCost": "infinite"
      },
      "external": {
        "HCA_FACTORY()": "infinite",
        "METADATA_PROVIDER()": "infinite",
        "NAME_WRAPPER()": "infinite",
        "ROOT_RESOURCE()": "250",
        "UPGRADE_INTERFACE_VERSION()": "infinite",
        "V1_RESOLVER()": "infinite",
        "VERIFIABLE_FACTORY()": "infinite",
        "WRAPPER_REGISTRY_IMPL()": "infinite",
        "balanceOf(address,uint256)": "infinite",
        "balanceOfBatch(address[],uint256[])": "infinite",
        "finishERC1155Migration(uint256[],(string,address,address,address)[])": "infinite",
        "getAssigneeCount(uint256,uint256)": "5105",
        "getExpiry(uint256)": "2581",
        "getParent()": "infinite",
        "getResolver(string)": "infinite",
        "getResource(uint256)": "2651",
        "getState(uint256)": "infinite",
        "getStatus(uint256)": "infinite",
        "getSubregistry(string)": "infinite",
        "getTokenId(uint256)": "2641",
        "getWrappedName()": "infinite",
        "getWrappedNode()": "2392",
        "grantRoles(uint256,uint256,address)": "infinite",
        "grantRootRoles(uint256,address)": "infinite",
        "hasAssignees(uint256,uint256)": "infinite",
        "hasRoles(uint256,uint256,address)": "7283",
        "hasRootRoles(uint256,address)": "2642",
        "initialize(bytes32,address,string,address,uint256)": "infinite",
        "isApprovedForAll(address,address)": "infinite",
        "latestOwnerOf(uint256)": "2619",
        "onERC1155BatchReceived(address,address,uint256[],uint256[],bytes)": "infinite",
        "onERC1155Received(address,address,uint256,uint256,bytes)": "infinite",
        "ownerOf(uint256)": "infinite",
        "proxiableUUID()": "infinite",
        "register(string,address,address,address,uint256,uint64)": "infinite",
        "renew(uint256,uint64)": "infinite",
        "revokeRoles(uint256,uint256,address)": "infinite",
        "revokeRootRoles(uint256,address)": "infinite",
        "roleCount(uint256)": "infinite",
        "roles(uint256,address)": "infinite",
        "safeBatchTransferFrom(address,address,uint256[],uint256[],bytes)": "infinite",
        "safeTransferFrom(address,address,uint256,uint256,bytes)": "infinite",
        "setApprovalForAll(address,bool)": "infinite",
        "setParent(address,string)": "infinite",
        "setResolver(uint256,address)": "infinite",
        "setSubregistry(uint256,address)": "infinite",
        "supportsInterface(bytes4)": "infinite",
        "unregister(uint256)": "infinite",
        "upgradeToAndCall(address,bytes)": "infinite",
        "uri(uint256)": "infinite"
      },
      "internal": {
        "_authorizeUpgrade(address)": "infinite",
        "_getRegistry()": "infinite",
        "_inject(string memory,address,contract IRegistry,address,uint256,uint64)": "infinite"
      }
    }
  },
  "storageLayout": {
    "storage": [
      {
        "astId": 68653,
        "contract": "project/src/registry/WrapperRegistry.sol:WrapperRegistry",
        "label": "_owners",
        "offset": 0,
        "slot": "0",
        "type": "t_mapping(t_uint256,t_address)"
      },
      {
        "astId": 68660,
        "contract": "project/src/registry/WrapperRegistry.sol:WrapperRegistry",
        "label": "_operatorApprovals",
        "offset": 0,
        "slot": "1",
        "type": "t_mapping(t_address,t_mapping(t_address,t_bool))"
      },
      {
        "astId": 65208,
        "contract": "project/src/registry/WrapperRegistry.sol:WrapperRegistry",
        "label": "_roles",
        "offset": 0,
        "slot": "2",
        "type": "t_mapping(t_uint256,t_mapping(t_address,t_uint256))"
      },
      {
        "astId": 65213,
        "contract": "project/src/registry/WrapperRegistry.sol:WrapperRegistry",
        "label": "_roleCount",
        "offset": 0,
        "slot": "3",
        "type": "t_mapping(t_uint256,t_uint256)"
      },
      {
        "astId": 73478,
        "contract": "project/src/registry/WrapperRegistry.sol:WrapperRegistry",
        "label": "_parentRegistry",
        "offset": 0,
        "slot": "4",
        "type": "t_contract(IRegistry)75609"
      },
      {
        "astId": 73481,
        "contract": "project/src/registry/WrapperRegistry.sol:WrapperRegistry",
        "label": "_childLabel",
        "offset": 0,
        "slot": "5",
        "type": "t_string_storage"
      },
      {
        "astId": 73487,
        "contract": "project/src/registry/WrapperRegistry.sol:WrapperRegistry",
        "label": "_entries",
        "offset": 0,
        "slot": "6",
        "type": "t_mapping(t_uint256,t_struct(Entry)73474_storage)"
      },
      {
        "astId": 75227,
        "contract": "project/src/registry/WrapperRegistry.sol:WrapperRegistry",
        "label": "_node",
        "offset": 0,
        "slot": "7",
        "type": "t_bytes32"
      }
    ],
    "types": {
      "t_address": {
        "encoding": "inplace",
        "label": "address",
        "numberOfBytes": "20"
      },
      "t_bool": {
        "encoding": "inplace",
        "label": "bool",
        "numberOfBytes": "1"
      },
      "t_bytes32": {
        "encoding": "inplace",
        "label": "bytes32",
        "numberOfBytes": "32"
      },
      "t_contract(IRegistry)75609": {
        "encoding": "inplace",
        "label": "contract IRegistry",
        "numberOfBytes": "20"
      },
      "t_mapping(t_address,t_bool)": {
        "encoding": "mapping",
        "key": "t_address",
        "label": "mapping(address => bool)",
        "numberOfBytes": "32",
        "value": "t_bool"
      },
      "t_mapping(t_address,t_mapping(t_address,t_bool))": {
        "encoding": "mapping",
        "key": "t_address",
        "label": "mapping(address => mapping(address => bool))",
        "numberOfBytes": "32",
        "value": "t_mapping(t_address,t_bool)"
      },
      "t_mapping(t_address,t_uint256)": {
        "encoding": "mapping",
        "key": "t_address",
        "label": "mapping(address => uint256)",
        "numberOfBytes": "32",
        "value": "t_uint256"
      },
      "t_mapping(t_uint256,t_address)": {
        "encoding": "mapping",
        "key": "t_uint256",
        "label": "mapping(uint256 => address)",
        "numberOfBytes": "32",
        "value": "t_address"
      },
      "t_mapping(t_uint256,t_mapping(t_address,t_uint256))": {
        "encoding": "mapping",
        "key": "t_uint256",
        "label": "mapping(uint256 => mapping(address => uint256))",
        "numberOfBytes": "32",
        "value": "t_mapping(t_address,t_uint256)"
      },
      "t_mapping(t_uint256,t_struct(Entry)73474_storage)": {
        "encoding": "mapping",
        "key": "t_uint256",
        "label": "mapping(uint256 => struct PermissionedRegistry.Entry)",
        "numberOfBytes": "32",
        "value": "t_struct(Entry)73474_storage"
      },
      "t_mapping(t_uint256,t_uint256)": {
        "encoding": "mapping",
        "key": "t_uint256",
        "label": "mapping(uint256 => uint256)",
        "numberOfBytes": "32",
        "value": "t_uint256"
      },
      "t_string_storage": {
        "encoding": "bytes",
        "label": "string",
        "numberOfBytes": "32"
      },
      "t_struct(Entry)73474_storage": {
        "encoding": "inplace",
        "label": "struct PermissionedRegistry.Entry",
        "members": [
          {
            "astId": 73460,
            "contract": "project/src/registry/WrapperRegistry.sol:WrapperRegistry",
            "label": "eacVersionId",
            "offset": 0,
            "slot": "0",
            "type": "t_uint32"
          },
          {
            "astId": 73463,
            "contract": "project/src/registry/WrapperRegistry.sol:WrapperRegistry",
            "label": "tokenVersionId",
            "offset": 4,
            "slot": "0",
            "type": "t_uint32"
          },
          {
            "astId": 73467,
            "contract": "project/src/registry/WrapperRegistry.sol:WrapperRegistry",
            "label": "subregistry",
            "offset": 8,
            "slot": "0",
            "type": "t_contract(IRegistry)75609"
          },
          {
            "astId": 73470,
            "contract": "project/src/registry/WrapperRegistry.sol:WrapperRegistry",
            "label": "expiry",
            "offset": 0,
            "slot": "1",
            "type": "t_uint64"
          },
          {
            "astId": 73473,
            "contract": "project/src/registry/WrapperRegistry.sol:WrapperRegistry",
            "label": "resolver",
            "offset": 8,
            "slot": "1",
            "type": "t_address"
          }
        ],
        "numberOfBytes": "64"
      },
      "t_uint256": {
        "encoding": "inplace",
        "label": "uint256",
        "numberOfBytes": "32"
      },
      "t_uint32": {
        "encoding": "inplace",
        "label": "uint32",
        "numberOfBytes": "4"
      },
      "t_uint64": {
        "encoding": "inplace",
        "label": "uint64",
        "numberOfBytes": "8"
      }
    }
  },
  "userdoc": {
    "errors": {
      "CannotReduceExpiry(uint64,uint64)": [
        {
          "notice": "Label expiry cannot be reduced."
        }
      ],
      "CannotSetPastExpiry(uint64)": [
        {
          "notice": "Label expiry cannot be before now."
        }
      ],
      "FrozenTokenApproval(uint256)": [
        {
          "notice": "NameWrapper token has existing approval and burned `CANNOT_APPROVE`."
        }
      ],
      "InvalidOwner()": [
        {
          "notice": "Expected valid owner."
        }
      ],
      "LabelAlreadyRegistered(string)": [
        {
          "notice": "Label is already registered."
        }
      ],
      "LabelAlreadyReserved(string)": [
        {
          "notice": "Label cannot be reserved again."
        }
      ],
      "LabelExpired(uint256)": [
        {
          "notice": "Label is expired/unregistered."
        }
      ],
      "NameDataMismatch(uint256)": [
        {
          "notice": "NameWrapper or BaseRegistrar token does not match supplied data."
        }
      ],
      "NameNotLocked(uint256)": [
        {
          "notice": "NameWrapper token is unlocked."
        }
      ],
      "NameRequiresMigration()": [
        {
          "notice": "Name cannot be registered because unmigrated NameWrapper token exists."
        }
      ],
      "TransferDisallowed(uint256,address)": [
        {
          "notice": "Transfer is not allowed due to missing transfer admin role."
        }
      ],
      "UnauthorizedCaller(address)": [
        {
          "notice": "Thrown when a caller is not authorized to perform the requested operation"
        }
      ]
    },
    "events": {
      "Approval(address,address,uint256)": {
        "notice": "An approval for all operator was set."
      },
      "EACRolesChanged(uint256,address,uint256,uint256)": {
        "notice": "Emitted when roles are changed."
      },
      "ExpiryUpdated(uint256,uint64,address)": {
        "notice": "Expiry of label was changed."
      },
      "LabelRegistered(uint256,bytes32,string,address,uint64,address)": {
        "notice": "A label was registered."
      },
      "LabelReserved(uint256,bytes32,string,uint64,address)": {
        "notice": "A label was reserved."
      },
      "LabelUnregistered(uint256,address)": {
        "notice": "A label was unregistered."
      },
      "ParentUpdated(address,string,address)": {
        "notice": "Parent was changed."
      },
      "ResolverUpdated(uint256,address,address)": {
        "notice": "Resolver of label was changed."
      },
      "SubregistryUpdated(uint256,address,address)": {
        "notice": "Subregistry of label was changed."
      },
      "TokenRegenerated(uint256,uint256)": {
        "notice": "Token was regenerated with a new token ID.         This occurs when roles are granted or revoked to maintain ERC1155 compliance."
      },
      "TokenResource(uint256,uint256)": {
        "notice": "Associate a token with an EAC resource."
      }
    },
    "kind": "user",
    "methods": {
      "HCA_FACTORY()": {
        "notice": "The HCA factory contract"
      },
      "METADATA_PROVIDER()": {
        "notice": "The metadata provider contract"
      },
      "NAME_WRAPPER()": {
        "notice": "The ENSv1 `NameWrapper` contract that holds wrapped names as ERC1155 tokens."
      },
      "ROOT_RESOURCE()": {
        "notice": "The `ROOT_RESOURCE`."
      },
      "V1_RESOLVER()": {
        "notice": "Fallback resolver for ENSv1 resolution."
      },
      "VERIFIABLE_FACTORY()": {
        "notice": "The shared factory for verifiable deployments."
      },
      "WRAPPER_REGISTRY_IMPL()": {
        "notice": "The `WrapperRegistry` implementation contract."
      },
      "balanceOf(address,uint256)": {
        "notice": "Returns the balance of a token for an account."
      },
      "balanceOfBatch(address[],uint256[])": {
        "notice": "Returns the balances of a batch of tokens for an account."
      },
      "constructor": {
        "notice": "Creates the WrapperRegistry implementation."
      },
      "finishERC1155Migration(uint256[],(string,address,address,address)[])": {
        "notice": "Convert NameWrapper tokens to their equivalent ENSv2 form."
      },
      "getAssigneeCount(uint256,uint256)": {
        "notice": "Returns the number of assignees for the roles in the given role bitmap."
      },
      "getExpiry(uint256)": {
        "notice": "Get expiry of label."
      },
      "getParent()": {
        "notice": "Get canonical \"location\" of this registry."
      },
      "getResolver(string)": {
        "notice": "Fetches the resolver responsible for the specified label."
      },
      "getResource(uint256)": {
        "notice": "Get `resource` from `anyId`."
      },
      "getState(uint256)": {
        "notice": "Get the state of a label."
      },
      "getStatus(uint256)": {
        "notice": "Get `Status` from `anyId`."
      },
      "getSubregistry(string)": {
        "notice": "Fetches the registry for a label."
      },
      "getTokenId(uint256)": {
        "notice": "Get `tokenId` from `anyId`."
      },
      "getWrappedName()": {
        "notice": "Returns the DNS-encoded name for this registry."
      },
      "getWrappedNode()": {
        "notice": "Returns the NameWrapper node (namehash)."
      },
      "grantRoles(uint256,uint256,address)": {
        "notice": "Grants all roles in the given role bitmap to `account`."
      },
      "grantRootRoles(uint256,address)": {
        "notice": "Grants all roles in the given role bitmap to `account` in the ROOT_RESOURCE."
      },
      "hasAssignees(uint256,uint256)": {
        "notice": "Checks if any of the roles in the given role bitmap has assignees."
      },
      "hasRoles(uint256,uint256,address)": {
        "notice": "Checks if the given account has been granted all the given roles in the given resource or the `ROOT_RESOURCE`."
      },
      "hasRootRoles(uint256,address)": {
        "notice": "Checks if the given account has been granted all the given roles in the `ROOT_RESOURCE`."
      },
      "initialize(bytes32,address,string,address,uint256)": {
        "notice": "Initializes WrapperRegistry."
      },
      "isApprovedForAll(address,address)": {
        "notice": "Returns the approval for all operator."
      },
      "latestOwnerOf(uint256)": {
        "notice": "Get the latest owner of a token.         If the token was burned, returns null."
      },
      "onERC1155BatchReceived(address,address,uint256[],uint256[],bytes)": {
        "notice": "Migrate multiple NameWrapper tokens via `safeBatchTransferFrom()`."
      },
      "onERC1155Received(address,address,uint256,uint256,bytes)": {
        "notice": "Migrate one NameWrapper token via `safeTransferFrom()`."
      },
      "ownerOf(uint256)": {
        "notice": "Returns the owner of a token."
      },
      "register(string,address,address,address,uint256,uint64)": {
        "notice": "Registers a new label."
      },
      "renew(uint256,uint64)": {
        "notice": "Renew a label."
      },
      "revokeRoles(uint256,uint256,address)": {
        "notice": "Revokes all roles in the given role bitmap from `account`."
      },
      "revokeRootRoles(uint256,address)": {
        "notice": "Revokes all roles in the given role bitmap from `account` in the ROOT_RESOURCE."
      },
      "roleCount(uint256)": {
        "notice": "Returns the role count bitmap for a resource."
      },
      "roles(uint256,address)": {
        "notice": "Returns the roles bitmap for an account in a resource."
      },
      "safeBatchTransferFrom(address,address,uint256[],uint256[],bytes)": {
        "notice": "Transfers multiple tokens from one address to another."
      },
      "safeTransferFrom(address,address,uint256,uint256,bytes)": {
        "notice": "Transfers a single token from one address to another."
      },
      "setApprovalForAll(address,bool)": {
        "notice": "Sets the approval for all operator."
      },
      "setParent(address,string)": {
        "notice": "Change canonical \"location\"."
      },
      "setResolver(uint256,address)": {
        "notice": "Change resolver of label."
      },
      "setSubregistry(uint256,address)": {
        "notice": "Change registry of label."
      },
      "unregister(uint256)": {
        "notice": "Delete a label."
      },
      "uri(uint256)": {
        "notice": "Returns the URI for a token."
      }
    },
    "notice": "UUPS-upgradeable registry that wraps an ENSv1 NameWrapper, supporting migration of         wrapped names into the namechain registry system.",
    "version": 1
  },
  "argsData": "0x000000000000000000000000c7e033b8836e4bd55d069d113f018b98478cb0910000000000000000000000009240c5f31d747d60b3d9aed2f57995094342b1ed00000000000000000000000008af79c8a0ecdedee7a1c9ddb039378b7c30b89b00000000000000000000000012919bd18e9eb9f004e2faf78709d0319747d761000000000000000000000000f821ffd29058c4fb8e4d43b1a2a050af2c1f1ee0",
  "transaction": {
    "hash": "0xe1eca418f792dbb063eacb8adc12d29660022659dab0e9a4711f9e8238b1581e",
    "nonce": "0x1d48",
    "origin": "0xffffffffff52d316b7bd028358089bc8066b8f80"
  }
}