{
  "address": "0x6f6585e6a0b709a37927b1c0d9a5e75dcd4a8ac1",
  "abi": [
    {
      "inputs": [
        {
          "internalType": "bytes",
          "name": "",
          "type": "bytes"
        },
        {
          "internalType": "bytes",
          "name": "",
          "type": "bytes"
        }
      ],
      "name": "verify",
      "outputs": [
        {
          "internalType": "bool",
          "name": "",
          "type": "bool"
        }
      ],
      "stateMutability": "pure",
      "type": "function"
    }
  ],
  "contractName": "DummyDigest",
  "sourceName": "contracts/dnssec-oracle/digests/DummyDigest.sol",
  "bytecode": "0x6080604052348015600f57600080fd5b5061014c8061001f6000396000f3fe608060405234801561001057600080fd5b506004361061002b5760003560e01c8063f7e83aee14610030575b600080fd5b61004861003e3660046100a5565b6001949350505050565b604051901515815260200160405180910390f35b60008083601f84011261006e57600080fd5b50813567ffffffffffffffff81111561008657600080fd5b60208301915083602082850101111561009e57600080fd5b9250929050565b600080600080604085870312156100bb57600080fd5b843567ffffffffffffffff8111156100d257600080fd5b6100de8782880161005c565b909550935050602085013567ffffffffffffffff8111156100fe57600080fd5b61010a8782880161005c565b9598949750955050505056fea264697066735822122008133ca41afe005f9f218ec69e4bccdcfdb57f602b8a18831507b8a7850f9d6964736f6c634300081a0033",
  "linkReferences": {},
  "deployedLinkReferences": {},
  "immutableReferences": {},
  "inputSourceName": "project/contracts/dnssec-oracle/digests/DummyDigest.sol",
  "devdoc": {
    "details": "Implements a dummy DNSSEC digest that approves all hashes, for testing.",
    "kind": "dev",
    "methods": {},
    "version": 1
  },
  "evm": {
    "gasEstimates": {
      "creation": {
        "codeDepositCost": "66400",
        "executionCost": "117",
        "totalCost": "66517"
      },
      "external": {
        "verify(bytes,bytes)": "infinite"
      }
    }
  },
  "storageLayout": {
    "storage": [],
    "types": null
  },
  "userdoc": {
    "kind": "user",
    "methods": {},
    "version": 1
  },
  "argsData": "0x",
  "transaction": {
    "hash": "0x333a1d8b6f4acb4f0b2eccad6bc25e44644ebad74b6892828a6588c07544e8d2",
    "nonce": "0x171f",
    "origin": "0xffffffffff52d316b7bd028358089bc8066b8f80"
  }
}