{
  "address": "0xfcea5a66c7774782d02ce64d07259c8024267ba9",
  "abi": [
    {
      "inputs": [
        {
          "internalType": "bytes",
          "name": "addr",
          "type": "bytes"
        }
      ],
      "name": "InvalidAddressFormat",
      "type": "error"
    },
    {
      "inputs": [],
      "name": "NotImplemented",
      "type": "error"
    },
    {
      "inputs": [
        {
          "internalType": "uint256",
          "name": "offset",
          "type": "uint256"
        },
        {
          "internalType": "uint256",
          "name": "length",
          "type": "uint256"
        }
      ],
      "name": "OffsetOutOfBoundsError",
      "type": "error"
    },
    {
      "inputs": [
        {
          "internalType": "bytes",
          "name": "",
          "type": "bytes"
        },
        {
          "internalType": "bytes",
          "name": "data",
          "type": "bytes"
        },
        {
          "internalType": "bytes",
          "name": "context",
          "type": "bytes"
        }
      ],
      "name": "resolve",
      "outputs": [
        {
          "internalType": "bytes",
          "name": "",
          "type": "bytes"
        }
      ],
      "stateMutability": "pure",
      "type": "function"
    },
    {
      "inputs": [
        {
          "internalType": "bytes4",
          "name": "interfaceId",
          "type": "bytes4"
        }
      ],
      "name": "supportsInterface",
      "outputs": [
        {
          "internalType": "bool",
          "name": "",
          "type": "bool"
        }
      ],
      "stateMutability": "view",
      "type": "function"
    }
  ],
  "contractName": "ExtendedDNSResolver",
  "sourceName": "contracts/resolvers/profiles/ExtendedDNSResolver.sol",
  "bytecode": "0x6080604052348015600f57600080fd5b506119508061001f6000396000f3fe608060405234801561001057600080fd5b50600436106100365760003560e01c806301ffc9a71461003b5780638ef98a7e146100a5575b600080fd5b610090610049366004611398565b7fffffffff00000000000000000000000000000000000000000000000000000000167f8ef98a7e000000000000000000000000000000000000000000000000000000001490565b60405190151581526020015b60405180910390f35b6100b86100b3366004611423565b6100c5565b60405161009c91906114ed565b606060006100d3858761153e565b90507fc4c4a822000000000000000000000000000000000000000000000000000000007fffffffff00000000000000000000000000000000000000000000000000000000821601610130576101288484610216565b91505061020c565b7f0e3481fa000000000000000000000000000000000000000000000000000000007fffffffff00000000000000000000000000000000000000000000000000000000821601610185576101288686868661033c565b7fa62e2bc4000000000000000000000000000000000000000000000000000000007fffffffff000000000000000000000000000000000000000000000000000000008216016101da57610128868686866104e1565b6040517fd623472500000000000000000000000000000000000000000000000000000000815260040160405180910390fd5b9695505050505050565b6060600061028e84848080601f0160208091040260200160405190810160405280939291908181526020018383808284376000920191909152505060408051808201909152600681527f615b36305d3d00000000000000000000000000000000000000000000000000006020820152915061057c9050565b905080516000036102a0579050610336565b6000806102ba6002845185610e579092919063ffffffff16565b915091508061030057826040517f3de780240000000000000000000000000000000000000000000000000000000081526004016102f791906114ed565b60405180910390fd5b6040805173ffffffffffffffffffffffffffffffffffffffff841660208201520160405160208183030381529060405293505050505b92915050565b6060600061034d85600481896115a4565b81019061035a91906115ce565b9150506060816380000000166000146103e1576103da85858080601f0160208091040260200160405190810160405280939291908181526020018383808284376000920191909152506103b692505050637fffffff8516610e92565b6040516020016103c691906115f0565b60405160208183030381529060405261057c565b9050610439565b61043685858080601f0160208091040260200160405190810160405280939291908181526020018383808284376000920191909152506104269250869150610e929050565b6040516020016103c6919061165c565b90505b805160000361044b5791506104d99050565b6000806104656002845185610e579092919063ffffffff16565b91509150806104a257826040517f3de780240000000000000000000000000000000000000000000000000000000081526004016102f791906114ed565b6040805173ffffffffffffffffffffffffffffffffffffffff84166020820152016040516020818303038152906040529450505050505b949350505050565b606060006104f285600481896115a4565b8101906104ff91906116f7565b915050600061054e85858080601f016020809104026020016040519081016040528093929190818152602001838380828437600092019190915250506040516103c692508691506020016117f7565b90508060405160200161056191906114ed565b60405160208183030381529060405292505050949350505050565b8151606090600090815b81811015610e3e57826105cc5784516105a790879083908890600090610f51565b156105c35784516105b8908261185e565b905060039250610586565b60019250610586565b600183036106d7575b818110156106d2578581815181106105ef576105ef611871565b01602001517fff00000000000000000000000000000000000000000000000000000000000000167f3d0000000000000000000000000000000000000000000000000000000000000003610652576006925061064b60018261185e565b9050610586565b85818151811061066457610664611871565b01602001517fff00000000000000000000000000000000000000000000000000000000000000167f5b00000000000000000000000000000000000000000000000000000000000000036106c0576002925061064b60018261185e565b806106ca816118a0565b9150506105d5565b610586565b600283036107d4575b818110156106d2578581815181106106fa576106fa611871565b01602001517fff00000000000000000000000000000000000000000000000000000000000000167f5d00000000000000000000000000000000000000000000000000000000000000036107c2576006925061075660018261185e565b905085818151811061076a5761076a611871565b01602001517fff00000000000000000000000000000000000000000000000000000000000000167f3d00000000000000000000000000000000000000000000000000000000000000036106d25761064b60018261185e565b806107cc816118a0565b9150506106e0565b60038303610853578581815181106107ee576107ee611871565b01602001517fff00000000000000000000000000000000000000000000000000000000000000167f27000000000000000000000000000000000000000000000000000000000000000361084a576004925061064b60018261185e565b60059250610586565b60048303610a8957806000805b84841015610a815780156109075788848151811061088057610880611871565b01602001517fff0000000000000000000000000000000000000000000000000000000000000016896108b2848661185e565b815181106108c2576108c2611871565b60200101907effffffffffffffffffffffffffffffffffffffffffffffffffffffffffffff1916908160001a9053506108fc60018361185e565b915060009050610a76565b88848151811061091957610919611871565b01602001517fff00000000000000000000000000000000000000000000000000000000000000167f5c000000000000000000000000000000000000000000000000000000000000000361096e57506001610a76565b88848151811061098057610980611871565b01602001517fff00000000000000000000000000000000000000000000000000000000000000167f2700000000000000000000000000000000000000000000000000000000000000036109e5576109d8898484610f74565b9650505050505050610336565b8884815181106109f7576109f7611871565b01602001517fff000000000000000000000000000000000000000000000000000000000000001689610a29848661185e565b81518110610a3957610a39611871565b60200101907effffffffffffffffffffffffffffffffffffffffffffffffffffffffffffff1916908160001a905350610a7360018361185e565b91505b600190930192610860565b505050610586565b60058303610b3457805b82821015610b2657868281518110610aad57610aad611871565b01602001517fff00000000000000000000000000000000000000000000000000000000000000167f200000000000000000000000000000000000000000000000000000000000000003610b1b57610b1081610b0881856118d8565b899190610f74565b945050505050610336565b600190910190610a93565b610b1081610b0881866118d8565b60068303610bb357858181518110610b4e57610b4e611871565b01602001517fff00000000000000000000000000000000000000000000000000000000000000167f270000000000000000000000000000000000000000000000000000000000000003610baa576007925061064b60018261185e565b60089250610586565b60078303610d3a5760005b82821015610d34578015610bd457506000610d22565b868281518110610be657610be6611871565b01602001517fff00000000000000000000000000000000000000000000000000000000000000167f5c0000000000000000000000000000000000000000000000000000000000000003610c3b57506001610d22565b868281518110610c4d57610c4d611871565b01602001517fff00000000000000000000000000000000000000000000000000000000000000167f270000000000000000000000000000000000000000000000000000000000000003610d2257610ca560018361185e565b91505b868281518110610cba57610cba611871565b01602001517fff00000000000000000000000000000000000000000000000000000000000000167f200000000000000000000000000000000000000000000000000000000000000003610d1957610d1260018361185e565b9150610ca8565b60009350610d34565b81610d2c816118a0565b925050610bbe565b50610586565b60088314610d4a57610d4a6118eb565b818110156106d257858181518110610d6457610d64611871565b01602001517fff00000000000000000000000000000000000000000000000000000000000000167f200000000000000000000000000000000000000000000000000000000000000003610e2c575b858181518110610dc457610dc4611871565b01602001517fff00000000000000000000000000000000000000000000000000000000000000167f200000000000000000000000000000000000000000000000000000000000000003610e2357610e1c60018261185e565b9050610db2565b60009250610586565b80610e36816118a0565b915050610d4a565b5050604080516020810190915260008152949350505050565b60008082610e6685602861185e565b14610e7657506000905080610e8a565b6000610e83868686610fd1565b9093509150505b935093915050565b60606000610e9f83611049565b600101905060008167ffffffffffffffff811115610ebf57610ebf6116c8565b6040519080825280601f01601f191660200182016040528015610ee9576020820181803683370190505b5090508181016020015b7fffffffffffffffffffffffffffffffffffffffffffffffffffffffffffffffff017f3031323334353637383961626364656600000000000000000000000000000000600a86061a8153600a8504945084610ef3575b509392505050565b6000610f5e84848461112b565b610f6987878561112b565b149695505050505050565b60608167ffffffffffffffff811115610f8f57610f8f6116c8565b6040519080825280601f01601f191660200182016040528015610fb9576020820181803683370190505b509050610fca84848360008661114a565b9392505050565b60008083831015610fe757506000905080610e8a565b6000610ff385856118d8565b905060408111806110045750855184115b15611016575060009150819050610e8a565b85850160200161102881600084611182565b92506001820160011c6020036000518160031b1c9450505050935093915050565b6000807a184f03e93ff9f4daa797ed6e38ed64bf6a1f0100000000000000008310611092577a184f03e93ff9f4daa797ed6e38ed64bf6a1f010000000000000000830492506040015b6d04ee2d6d415b85acef810000000083106110be576d04ee2d6d415b85acef8100000000830492506020015b662386f26fc1000083106110dc57662386f26fc10000830492506010015b6305f5e10083106110f4576305f5e100830492506008015b612710831061110857612710830492506004015b6064831061111a576064830492506002015b600a83106103365760010192915050565b60006111408461113b848661185e565b6112c6565b5091016020012090565b6111588561113b838761185e565b6111668361113b838561185e565b61117b82602085010185602088010183611312565b5050505050565b600061123c565b811a6000602f8211603a831016156111c457507fffffffffffffffffffffffffffffffffffffffffffffffffffffffffffffffd08101610336565b604782106040831116156111fb57507fffffffffffffffffffffffffffffffffffffffffffffffffffffffffffffffc98101610336565b6067821060608311161561123257507fffffffffffffffffffffffffffffffffffffffffffffffffffffffffffffffa98101610336565b5061010092915050565b506001838201828216156112785761125660008651611189565b80855360018601955060018501945060ff81111561127657600092508195505b505b80851015610f4957845161128d600182611189565b611298600083611189565b60041b17905060ff8111156112b1576000925050610f49565b80855350600285019450600184019350611278565b815181111561130e5781516040517f8a3c1cfb0000000000000000000000000000000000000000000000000000000081526102f7918391600401918252602082015260400190565b5050565b5b601f8111156113515781518352602092830192909101907fffffffffffffffffffffffffffffffffffffffffffffffffffffffffffffffe001611313565b801561139357815183516001602084900360031b1b7fffffffffffffffffffffffffffffffffffffffffffffffffffffffffffffffff01801990921691161783525b505050565b6000602082840312156113aa57600080fd5b81357fffffffff0000000000000000000000000000000000000000000000000000000081168114610fca57600080fd5b60008083601f8401126113ec57600080fd5b50813567ffffffffffffffff81111561140457600080fd5b60208301915083602082850101111561141c57600080fd5b9250929050565b6000806000806000806060878903121561143c57600080fd5b863567ffffffffffffffff81111561145357600080fd5b61145f89828a016113da565b909750955050602087013567ffffffffffffffff81111561147f57600080fd5b61148b89828a016113da565b909550935050604087013567ffffffffffffffff8111156114ab57600080fd5b6114b789828a016113da565b979a9699509497509295939492505050565b60005b838110156114e45781810151838201526020016114cc565b50506000910152565b602081526000825180602084015261150c8160408501602087016114c9565b601f017fffffffffffffffffffffffffffffffffffffffffffffffffffffffffffffffe0169190910160400192915050565b80357fffffffff00000000000000000000000000000000000000000000000000000000811690600484101561159d577fffffffff00000000000000000000000000000000000000000000000000000000808560040360031b1b82161691505b5092915050565b600080858511156115b457600080fd5b838611156115c157600080fd5b5050820193919092039150565b600080604083850312156115e157600080fd5b50508035926020909101359150565b7f615b6500000000000000000000000000000000000000000000000000000000008152600082516116288160038501602087016114c9565b7f5d3d0000000000000000000000000000000000000000000000000000000000006003939091019283015250600501919050565b7f615b0000000000000000000000000000000000000000000000000000000000008152600082516116948160028501602087016114c9565b7f5d3d0000000000000000000000000000000000000000000000000000000000006002939091019283015250600401919050565b7f4e487b7100000000000000000000000000000000000000000000000000000000600052604160045260246000fd5b6000806040838503121561170a57600080fd5b82359150602083013567ffffffffffffffff81111561172857600080fd5b8301601f8101851361173957600080fd5b803567ffffffffffffffff811115611753576117536116c8565b6040517fffffffffffffffffffffffffffffffffffffffffffffffffffffffffffffffe0603f7fffffffffffffffffffffffffffffffffffffffffffffffffffffffffffffffe0601f8501160116810181811067ffffffffffffffff821117156117bf576117bf6116c8565b6040528181528282016020018710156117d757600080fd5b816020840160208301376000602083830101528093505050509250929050565b7f745b0000000000000000000000000000000000000000000000000000000000008152600082516116948160028501602087016114c9565b7f4e487b7100000000000000000000000000000000000000000000000000000000600052601160045260246000fd5b808201808211156103365761033661182f565b7f4e487b7100000000000000000000000000000000000000000000000000000000600052603260045260246000fd5b60007fffffffffffffffffffffffffffffffffffffffffffffffffffffffffffffffff82036118d1576118d161182f565b5060010190565b818103818111156103365761033661182f565b7f4e487b7100000000000000000000000000000000000000000000000000000000600052600160045260246000fdfea2646970667358221220f664b6ea7184527e6c4933872d5e71649ef493a880308a8f664728343d0bf74564736f6c634300081a0033",
  "linkReferences": {},
  "deployedLinkReferences": {},
  "immutableReferences": {},
  "inputSourceName": "project/contracts/resolvers/profiles/ExtendedDNSResolver.sol",
  "devdoc": {
    "details": "Resolves names on ENS by interpreting record data stored in a DNS TXT record.      This resolver implements the IExtendedDNSResolver interface, meaning that when      a DNS name specifies it as the resolver via a TXT record, this resolver's      resolve() method is invoked, and is passed any additional information from that      text record. This resolver implements a simple text parser allowing a variety      of records to be specified in text, which will then be used to resolve the name      in ENS.      To use this, set a TXT record on your DNS name in the following format:          ENS1 <address or name of ExtendedDNSResolver> <record data>      For example:          ENS1 2.dnsname.ens.eth a[60]=0x1234...      The record data consists of a series of key=value pairs, separated by spaces. Keys      may have an optional argument in square brackets, and values may be either unquoted       - in which case they may not contain spaces - or single-quoted. Single quotes in      a quoted value may be backslash-escaped.                                       ┌────────┐                                       │ ┌───┐  │        ┌──────────────────────────────┴─┤\" \"│◄─┴────────────────────────────────────────┐        │                                └───┘                                           │        │  ┌───┐    ┌───┐    ┌───┐    ┌───┐    ┌───┐    ┌───┐    ┌────────────┐    ┌───┐ │      ^─┴─►│key├─┬─►│\"[\"├───►│arg├───►│\"]\"├─┬─►│\"=\"├─┬─►│\"'\"├───►│quoted_value├───►│\"'\"├─┼─$           └───┘ │  └───┘    └───┘    └───┘ │  └───┘ │  └───┘    └────────────┘    └───┘ │                 └──────────────────────────┘        │          ┌──────────────┐         │                                                     └─────────►│unquoted_value├─────────┘                                                                └──────────────┘      Record types:       - a[<coinType>] - Specifies how an `addr()` request should be resolved for the specified         `coinType`. Ethereum has `coinType` 60. The value must be 0x-prefixed hexadecimal, and will         be returned unmodified; this means that non-EVM addresses will need to be translated         into binary format and then encoded in hex.         Examples:          - a[60]=0xFe89cc7aBB2C4183683ab71653C4cdc9B02D44b7          - a[0]=0x00149010587f8364b964fcaa70687216b53bd2cbd798       - a[e<chainId>] - Specifies how an `addr()` request should be resolved for the specified         `chainId`. The value must be 0x-prefixed hexadecimal. When encoding an address for an         EVM-based cryptocurrency that uses a chainId instead of a coinType, this syntax *must*         be used in place of the coin type - eg, Optimism is `a[e10]`, not `a[2147483658]`.         A list of supported cryptocurrencies for both syntaxes can be found here:           https://github.com/ensdomains/address-encoder/blob/master/docs/supported-cryptocurrencies.md         Example:          - a[e10]=0xFe89cc7aBB2C4183683ab71653C4cdc9B02D44b7       - t[<key>] - Specifies how a `text()` request should be resolved for the specified `key`.         Examples:          - t[com.twitter]=nicksdjohnson          - t[url]='https://ens.domains/'          - t[note]='I\\'m great'",
    "errors": {
      "OffsetOutOfBoundsError(uint256,uint256)": [
        {
          "details": "`offset` was beyond `length`.       Error selector: `0x8a3c1cfb`"
        }
      ]
    },
    "kind": "dev",
    "methods": {
      "supportsInterface(bytes4)": {
        "details": "Returns true if this contract implements the interface defined by `interfaceId`. See the corresponding https://eips.ethereum.org/EIPS/eip-165#how-interfaces-are-identified[EIP section] to learn more about how these ids are created. This function call must use less than 30 000 gas."
      }
    },
    "version": 1
  },
  "evm": {
    "gasEstimates": {
      "creation": {
        "codeDepositCost": "1296000",
        "executionCost": "1349",
        "totalCost": "1297349"
      },
      "external": {
        "resolve(bytes,bytes,bytes)": "infinite",
        "supportsInterface(bytes4)": "288"
      },
      "internal": {
        "_findValue(bytes memory,bytes memory)": "infinite",
        "_resolveAddr(bytes calldata)": "infinite",
        "_resolveAddress(bytes calldata,bytes calldata)": "infinite",
        "_resolveText(bytes calldata,bytes calldata)": "infinite"
      }
    }
  },
  "storageLayout": {
    "storage": [],
    "types": null
  },
  "userdoc": {
    "kind": "user",
    "methods": {},
    "version": 1
  },
  "argsData": "0x",
  "transaction": {
    "nonce": "0x17d2",
    "hash": "0x801bca2fd7b3251db96090fab98717a9f03f86e201d44a80e6cb31ced07d700d",
    "origin": "0xffffffffff52d316b7bd028358089bc8066b8f80"
  }
}