{
  "address": "0xcd91d0cefa6dfa6009ab2338c30491a5886d16f9",
  "abi": [
    {
      "inputs": [
        {
          "internalType": "address",
          "name": "_owner",
          "type": "address"
        },
        {
          "internalType": "uint256",
          "name": "coinType",
          "type": "uint256"
        },
        {
          "internalType": "contract IStandaloneReverseRegistrar",
          "name": "_defaultRegistrar",
          "type": "address"
        },
        {
          "internalType": "address",
          "name": "_chainRegistrar",
          "type": "address"
        },
        {
          "internalType": "contract IGatewayVerifier",
          "name": "verifier",
          "type": "address"
        },
        {
          "internalType": "string[]",
          "name": "gateways",
          "type": "string[]"
        }
      ],
      "stateMutability": "nonpayable",
      "type": "constructor"
    },
    {
      "inputs": [
        {
          "internalType": "bytes",
          "name": "dns",
          "type": "bytes"
        }
      ],
      "name": "DNSDecodingFailed",
      "type": "error"
    },
    {
      "inputs": [
        {
          "internalType": "address",
          "name": "from",
          "type": "address"
        },
        {
          "internalType": "string[]",
          "name": "urls",
          "type": "string[]"
        },
        {
          "internalType": "bytes",
          "name": "request",
          "type": "bytes"
        },
        {
          "internalType": "bytes4",
          "name": "callback",
          "type": "bytes4"
        },
        {
          "internalType": "bytes",
          "name": "carry",
          "type": "bytes"
        }
      ],
      "name": "OffchainLookup",
      "type": "error"
    },
    {
      "inputs": [
        {
          "internalType": "address",
          "name": "owner",
          "type": "address"
        }
      ],
      "name": "OwnableInvalidOwner",
      "type": "error"
    },
    {
      "inputs": [
        {
          "internalType": "address",
          "name": "account",
          "type": "address"
        }
      ],
      "name": "OwnableUnauthorizedAccount",
      "type": "error"
    },
    {
      "inputs": [],
      "name": "RequestOverflow",
      "type": "error"
    },
    {
      "inputs": [
        {
          "internalType": "uint256",
          "name": "max",
          "type": "uint256"
        }
      ],
      "name": "TooManyProofs",
      "type": "error"
    },
    {
      "inputs": [
        {
          "internalType": "bytes",
          "name": "name",
          "type": "bytes"
        }
      ],
      "name": "UnreachableName",
      "type": "error"
    },
    {
      "inputs": [
        {
          "internalType": "bytes4",
          "name": "selector",
          "type": "bytes4"
        }
      ],
      "name": "UnsupportedResolverProfile",
      "type": "error"
    },
    {
      "anonymous": false,
      "inputs": [
        {
          "indexed": false,
          "internalType": "string[]",
          "name": "urls",
          "type": "string[]"
        }
      ],
      "name": "GatewayURLsChanged",
      "type": "event"
    },
    {
      "anonymous": false,
      "inputs": [
        {
          "indexed": false,
          "internalType": "address",
          "name": "verifier",
          "type": "address"
        }
      ],
      "name": "GatewayVerifierChanged",
      "type": "event"
    },
    {
      "anonymous": false,
      "inputs": [
        {
          "indexed": true,
          "internalType": "address",
          "name": "previousOwner",
          "type": "address"
        },
        {
          "indexed": true,
          "internalType": "address",
          "name": "newOwner",
          "type": "address"
        }
      ],
      "name": "OwnershipTransferred",
      "type": "event"
    },
    {
      "anonymous": false,
      "inputs": [
        {
          "indexed": false,
          "internalType": "bytes",
          "name": "name",
          "type": "bytes"
        },
        {
          "indexed": false,
          "internalType": "address",
          "name": "verifier",
          "type": "address"
        }
      ],
      "name": "VerifierChanged",
      "type": "event"
    },
    {
      "inputs": [],
      "name": "chainId",
      "outputs": [
        {
          "internalType": "uint32",
          "name": "",
          "type": "uint32"
        }
      ],
      "stateMutability": "view",
      "type": "function"
    },
    {
      "inputs": [],
      "name": "chainRegistrar",
      "outputs": [
        {
          "internalType": "address",
          "name": "",
          "type": "address"
        }
      ],
      "stateMutability": "view",
      "type": "function"
    },
    {
      "inputs": [],
      "name": "coinType",
      "outputs": [
        {
          "internalType": "uint256",
          "name": "",
          "type": "uint256"
        }
      ],
      "stateMutability": "view",
      "type": "function"
    },
    {
      "inputs": [],
      "name": "defaultRegistrar",
      "outputs": [
        {
          "internalType": "contract IStandaloneReverseRegistrar",
          "name": "",
          "type": "address"
        }
      ],
      "stateMutability": "view",
      "type": "function"
    },
    {
      "inputs": [
        {
          "internalType": "bytes",
          "name": "response",
          "type": "bytes"
        },
        {
          "internalType": "bytes",
          "name": "carry",
          "type": "bytes"
        }
      ],
      "name": "fetchCallback",
      "outputs": [],
      "stateMutability": "view",
      "type": "function"
    },
    {
      "inputs": [
        {
          "internalType": "uint256",
          "name": "",
          "type": "uint256"
        }
      ],
      "name": "gatewayURLs",
      "outputs": [
        {
          "internalType": "string",
          "name": "",
          "type": "string"
        }
      ],
      "stateMutability": "view",
      "type": "function"
    },
    {
      "inputs": [],
      "name": "gatewayVerifier",
      "outputs": [
        {
          "internalType": "contract IGatewayVerifier",
          "name": "",
          "type": "address"
        }
      ],
      "stateMutability": "view",
      "type": "function"
    },
    {
      "inputs": [],
      "name": "owner",
      "outputs": [
        {
          "internalType": "address",
          "name": "",
          "type": "address"
        }
      ],
      "stateMutability": "view",
      "type": "function"
    },
    {
      "inputs": [],
      "name": "renounceOwnership",
      "outputs": [],
      "stateMutability": "nonpayable",
      "type": "function"
    },
    {
      "inputs": [
        {
          "internalType": "bytes",
          "name": "name",
          "type": "bytes"
        },
        {
          "internalType": "bytes",
          "name": "data",
          "type": "bytes"
        }
      ],
      "name": "resolve",
      "outputs": [
        {
          "internalType": "bytes",
          "name": "result",
          "type": "bytes"
        }
      ],
      "stateMutability": "view",
      "type": "function"
    },
    {
      "inputs": [
        {
          "internalType": "bytes[]",
          "name": "values",
          "type": "bytes[]"
        },
        {
          "internalType": "uint8",
          "name": "",
          "type": "uint8"
        },
        {
          "internalType": "bytes",
          "name": "extraData",
          "type": "bytes"
        }
      ],
      "name": "resolveNameCallback",
      "outputs": [
        {
          "internalType": "bytes",
          "name": "result",
          "type": "bytes"
        }
      ],
      "stateMutability": "view",
      "type": "function"
    },
    {
      "inputs": [
        {
          "internalType": "address[]",
          "name": "addrs",
          "type": "address[]"
        }
      ],
      "name": "resolveNames",
      "outputs": [
        {
          "internalType": "string[]",
          "name": "",
          "type": "string[]"
        }
      ],
      "stateMutability": "view",
      "type": "function"
    },
    {
      "inputs": [
        {
          "internalType": "bytes[]",
          "name": "values",
          "type": "bytes[]"
        },
        {
          "internalType": "uint8",
          "name": "",
          "type": "uint8"
        },
        {
          "internalType": "bytes",
          "name": "extraData",
          "type": "bytes"
        }
      ],
      "name": "resolveNamesCallback",
      "outputs": [
        {
          "internalType": "string[]",
          "name": "names",
          "type": "string[]"
        }
      ],
      "stateMutability": "view",
      "type": "function"
    },
    {
      "inputs": [
        {
          "internalType": "string[]",
          "name": "gateways",
          "type": "string[]"
        }
      ],
      "name": "setGatewayURLs",
      "outputs": [],
      "stateMutability": "nonpayable",
      "type": "function"
    },
    {
      "inputs": [
        {
          "internalType": "address",
          "name": "verifier",
          "type": "address"
        }
      ],
      "name": "setGatewayVerifier",
      "outputs": [],
      "stateMutability": "nonpayable",
      "type": "function"
    },
    {
      "inputs": [
        {
          "internalType": "bytes4",
          "name": "",
          "type": "bytes4"
        }
      ],
      "name": "supportsFeature",
      "outputs": [
        {
          "internalType": "bool",
          "name": "",
          "type": "bool"
        }
      ],
      "stateMutability": "pure",
      "type": "function"
    },
    {
      "inputs": [
        {
          "internalType": "bytes4",
          "name": "interfaceId",
          "type": "bytes4"
        }
      ],
      "name": "supportsInterface",
      "outputs": [
        {
          "internalType": "bool",
          "name": "",
          "type": "bool"
        }
      ],
      "stateMutability": "view",
      "type": "function"
    },
    {
      "inputs": [
        {
          "internalType": "address",
          "name": "newOwner",
          "type": "address"
        }
      ],
      "name": "transferOwnership",
      "outputs": [],
      "stateMutability": "nonpayable",
      "type": "function"
    },
    {
      "inputs": [
        {
          "internalType": "bytes",
          "name": "name",
          "type": "bytes"
        }
      ],
      "name": "verifierMetadata",
      "outputs": [
        {
          "internalType": "address",
          "name": "verifier",
          "type": "address"
        },
        {
          "internalType": "string[]",
          "name": "gateways",
          "type": "string[]"
        }
      ],
      "stateMutability": "view",
      "type": "function"
    }
  ],
  "contractName": "ChainReverseResolver",
  "sourceName": "contracts/reverseResolver/ChainReverseResolver.sol",
  "bytecode": "0x60e060405234801561001057600080fd5b50604051613ad3380380613ad383398101604081905261002f91610228565b60808590526001600160a01b0380841660a0528690811661006a57604051631e4fbdf760e01b81526000600482015260240160405180910390fd5b610073816100b8565b506001600160a01b0384811660c052600180546001600160a01b03191691841691909117905580516100ac906002906020840190610108565b50505050505050610511565b600080546001600160a01b038381166001600160a01b0319831681178455604051919092169283917f8be0079c531659141344cd1fd0a4f28419497f9722a3daafe3b4186f6b6457e09190a35050565b82805482825590600052602060002090810192821561014e579160200282015b8281111561014e578251829061013e9082610453565b5091602001919060010190610128565b5061015a92915061015e565b5090565b8082111561015a576000610172828261017b565b5060010161015e565b508054610187906103ca565b6000825580601f10610197575050565b601f0160209004906000526020600020908101906101b591906101b8565b50565b5b8082111561015a57600081556001016101b9565b6001600160a01b03811681146101b557600080fd5b634e487b7160e01b600052604160045260246000fd5b604051601f8201601f191681016001600160401b0381118282101715610220576102206101e2565b604052919050565b60008060008060008060c0878903121561024157600080fd5b865161024c816101cd565b602088015160408901519197509550610264816101cd565b6060880151909450610275816101cd565b6080880151909350610286816101cd565b60a08801519092506001600160401b038111156102a257600080fd5b8701601f810189136102b357600080fd5b80516001600160401b038111156102cc576102cc6101e2565b8060051b6102dc602082016101f8565b9182526020818401810192908101908c8411156102f857600080fd5b6020850192505b838310156103b85782516001600160401b0381111561031d57600080fd5b8501603f81018e1361032e57600080fd5b60208101516001600160401b0381111561034a5761034a6101e2565b61035d601f8201601f19166020016101f8565b8181528f6020808486010101111561037457600080fd5b60005b828110156103975780840160400151602083830181019190915201610377565b506000602083830101528085525050506020820191506020830192506102ff565b80955050505050509295509295509295565b600181811c908216806103de57607f821691505b6020821081036103fe57634e487b7160e01b600052602260045260246000fd5b50919050565b601f82111561044e57806000526020600020601f840160051c8101602085101561042b5750805b601f840160051c820191505b8181101561044b5760008155600101610437565b50505b505050565b81516001600160401b0381111561046c5761046c6101e2565b6104808161047a84546103ca565b84610404565b6020601f8211600181146104b4576000831561049c5750848201515b600019600385901b1c1916600184901b17845561044b565b600084815260208120601f198516915b828110156104e457878501518255602094850194600190920191016104c4565b50848210156105025786840151600019600387901b60f8161c191681555b50505050600190811b01905550565b60805160a05160c05161353f610594600039600081816102f6015281816104e3015261063801526000818161018301528181610a4301528181610be501528181610f6e01526116660152600081816101e40152818161086c0152818161089201528181610a1601528181610b8701528181610cae0152611221015261353f6000f3fe608060405234801561001057600080fd5b50600436106101515760003560e01c80638da5cb5b116100cd578063e31844fe11610081578063e948128011610066578063e94812801461033e578063ed57d29414610351578063f2fde38b1461037257600080fd5b8063e31844fe14610318578063e38f71381461032b57600080fd5b80639061b923116100b25780639061b923146102c15780639a8a0592146102d4578063b16eab65146102f157600080fd5b80638da5cb5b146102905780638e5ea8df146102ae57600080fd5b806347ab2a21116101245780635b4f069a116101095780635b4f069a146102485780636407acc714610268578063715018a61461028857600080fd5b806347ab2a2114610214578063582de3e71461023457600080fd5b806301ffc9a7146101565780630d02e00f1461017e5780631d7d85b2146101ca5780631fe93ea8146101df575b600080fd5b610169610164366004612464565b610385565b60405190151581526020015b60405180910390f35b6101a57f000000000000000000000000000000000000000000000000000000000000000081565b60405173ffffffffffffffffffffffffffffffffffffffff9091168152602001610175565b6101dd6101d83660046124a1565b6103e1565b005b6102067f000000000000000000000000000000000000000000000000000000000000000081565b604051908152602001610175565b610227610222366004612689565b610463565b60405161017591906127ee565b610169610242366004612464565b50600090565b6001546101a59073ffffffffffffffffffffffffffffffffffffffff1681565b61027b610276366004612689565b6105a1565b604051610175919061287b565b6101dd61075b565b60005473ffffffffffffffffffffffffffffffffffffffff166101a5565b6101dd6102bc36600461288e565b61076f565b6102276102cf366004612959565b6107ba565b6102dc610ca7565b60405163ffffffff9091168152602001610175565b6101a57f000000000000000000000000000000000000000000000000000000000000000081565b6101dd610326366004612959565b610cd7565b61027b6103393660046129b2565b610f1c565b61022761034c366004612a51565b611153565b61036461035f366004612a6a565b6111ff565b604051610175929190612a9f565b6101dd6103803660046124a1565b611348565b60007fffffffff0000000000000000000000000000000000000000000000000000000082167fed57d2940000000000000000000000000000000000000000000000000000000014806103db57506103db826113ac565b92915050565b6103e96114db565b600180547fffffffffffffffffffffffff00000000000000000000000000000000000000001673ffffffffffffffffffffffffffffffffffffffff83169081179091556040519081527f6c4103197a18c1f386676f6e3684ccb255d1babd88559817b05c2682453deca0906020015b60405180910390a150565b606060008560008151811061047a5761047a612ace565b60200260200101519050805160000361057657600061049b848601866124a1565b6040517f4ec3bd2300000000000000000000000000000000000000000000000000000000815273ffffffffffffffffffffffffffffffffffffffff80831660048301529192507f000000000000000000000000000000000000000000000000000000000000000090911690634ec3bd2390602401600060405180830381865afa15801561052c573d6000803e3d6000fd5b505050506040513d6000823e601f3d9081017fffffffffffffffffffffffffffffffffffffffffffffffffffffffffffffffe01682016040526105729190810190612b4d565b9150505b8060405160200161058791906127ee565b604051602081830303815290604052915050949350505050565b606060006105b1838501856129b2565b9050805167ffffffffffffffff8111156105cd576105cd6124be565b60405190808252806020026020018201604052801561060057816020015b60608152602001906001900390816105eb5790505b50915060005b815181101561075157600087828151811061062357610623612ace565b60200260200101519050805160000361072a577f000000000000000000000000000000000000000000000000000000000000000073ffffffffffffffffffffffffffffffffffffffff16634ec3bd2384848151811061068457610684612ace565b60200260200101516040518263ffffffff1660e01b81526004016106c4919073ffffffffffffffffffffffffffffffffffffffff91909116815260200190565b600060405180830381865afa1580156106e1573d6000803e3d6000fd5b505050506040513d6000823e601f3d9081017fffffffffffffffffffffffffffffffffffffffffffffffffffffffffffffffe01682016040526107279190810190612b4d565b90505b8084838151811061073d5761073d612ace565b602090810291909101015250600101610606565b5050949350505050565b6107636114db565b61076d600061152e565b565b6107776114db565b805161078a90600290602084019061237f565b507f91e1766c20958bc6fcd98acb2f87a586ae0d20a19f1e495c5dac2a5c5f6c9da281604051610458919061287b565b606060006107c88385612b82565b90507f96e0cbcf000000000000000000000000000000000000000000000000000000007fffffffff0000000000000000000000000000000000000000000000000000000082160161094a5760008061085588888080601f0160208091040260200160405190810160405280939291908181526020018383808284376000920191909152506115a392505050565b91509150815160141415806108c3575063800000007f0000000000000000000000000000000000000000000000000000000000000000146108b8577f000000000000000000000000000000000000000000000000000000000000000081146108c1565b6108c181611629565b155b156109075787876040517f5fe9a5df0000000000000000000000000000000000000000000000000000000081526004016108fe929190612c31565b60405180910390fd5b600061091283612c45565b60601c905061092081611650565b60405160200161093091906127ee565b604051602081830303815290604052945050505050610c9f565b7fc4c4a822000000000000000000000000000000000000000000000000000000007fffffffff00000000000000000000000000000000000000000000000000000000821601610a9d5760006109d487878080601f016020809104026020016040519081016040528093929190818152602001838380828437600092018290525092506117f2915050565b50905080610a125786866040517f5fe9a5df0000000000000000000000000000000000000000000000000000000081526004016108fe929190612c31565b603c7f000000000000000000000000000000000000000000000000000000000000000014610a41576000610a63565b7f00000000000000000000000000000000000000000000000000000000000000005b6040805173ffffffffffffffffffffffffffffffffffffffff90921660208301520160405160208183030381529060405292505050610c9f565b7f0e3481fa000000000000000000000000000000000000000000000000000000007fffffffff00000000000000000000000000000000000000000000000000000000821601610c49576000610b2787878080601f016020809104026020016040519081016040528093929190818152602001838380828437600092018290525092506117f2915050565b50905080610b655786866040517f5fe9a5df0000000000000000000000000000000000000000000000000000000081526004016108fe929190612c31565b6000610b748560048189612cb1565b810190610b819190612cdb565b915050807f000000000000000000000000000000000000000000000000000000000000000014610bbf57604080516000815260208101909152610c20565b6040517fffffffffffffffffffffffffffffffffffffffff0000000000000000000000007f000000000000000000000000000000000000000000000000000000000000000060601b1660208201526034016040516020818303038152906040525b604051602001610c3091906127ee565b6040516020818303038152906040529350505050610c9f565b6040517f7b1c461b0000000000000000000000000000000000000000000000000000000081527fffffffff00000000000000000000000000000000000000000000000000000000821660048201526024016108fe565b949350505050565b6000610cd27f00000000000000000000000000000000000000000000000000000000000000006119c3565b905090565b601f831615610d2457600084848080601f01602080910402602001604051908101604052809392919081815260200183838082843760009201919091525050825192935050602083019050fd5b6000610d3282840184612d70565b8051602082015160408084015190517fe3d1666e000000000000000000000000000000000000000000000000000000008152939450600093849373ffffffffffffffffffffffffffffffffffffffff169263e3d1666e92610d99928c908c90600401612e70565b600060405180830381865afa158015610db6573d6000803e3d6000fd5b505050506040513d6000823e601f3d9081017fffffffffffffffffffffffffffffffffffffffffffffffffffffffffffffffe0168201604052610dfc9190810190612ec0565b915091506000803073ffffffffffffffffffffffffffffffffffffffff16856060015185858860800151604051602401610e3893929190612f89565b604080517fffffffffffffffffffffffffffffffffffffffffffffffffffffffffffffffe08184030181529181526020820180517bffffffffffffffffffffffffffffffffffffffffffffffffffffffff167fffffffff00000000000000000000000000000000000000000000000000000000909416939093179092529051610ec1919061301f565b600060405180830381855afa9150503d8060008114610efc576040519150601f19603f3d011682016040523d82523d6000602084013e610f01565b606091505b50915091508115610f1457805160208201f35b805160208201fd5b606060ff82511115610f5a576040517fec031c1f00000000000000000000000000000000000000000000000000000000815260040160405180910390fd5b6000610f6683516119ef565b9050610f92817f0000000000000000000000000000000000000000000000000000000000000000611a10565b5060005b8351811015610ffa57610fe6610fe1610fdc868481518110610fba57610fba612ace565b6020026020010151610fd6600087611a3890919063ffffffff16565b90611a59565b611a88565b611aa2565b50610ff18282611abc565b50600101610f96565b5060015460405161114d9173ffffffffffffffffffffffffffffffffffffffff169083907f6407acc7000000000000000000000000000000000000000000000000000000009061104e90889060200161303b565b604080517fffffffffffffffffffffffffffffffffffffffffffffffffffffffffffffffe08184030181526002805460208181028601810190945280855291939290919060009084015b828210156111445783829060005260206000200180546110b790613094565b80601f01602080910402602001604051908101604052809291908181526020018280546110e390613094565b80156111305780601f1061110557610100808354040283529160200191611130565b820191906000526020600020905b81548152906001019060200180831161111357829003601f168201915b505050505081526020019060010190611098565b50505050611ae0565b50919050565b6002818154811061116357600080fd5b90600052602060002001600091509050805461117e90613094565b80601f01602080910402602001604051908101604052809291908181526020018280546111aa90613094565b80156111f75780601f106111cc576101008083540402835291602001916111f7565b820191906000526020600020905b8154815290600101906020018083116111da57829003601f168201915b505050505081565b6000606060008061120f856115a3565b915091508151601414801561124357507f000000000000000000000000000000000000000000000000000000000000000081145b1561134157600154600280546040805160208084028201810190925282815273ffffffffffffffffffffffffffffffffffffffff9094169391839160009084015b828210156113305783829060005260206000200180546112a390613094565b80601f01602080910402602001604051908101604052809291908181526020018280546112cf90613094565b801561131c5780601f106112f15761010080835404028352916020019161131c565b820191906000526020600020905b8154815290600101906020018083116112ff57829003601f168201915b505050505081526020019060010190611284565b505050509050935093505050915091565b5050915091565b6113506114db565b73ffffffffffffffffffffffffffffffffffffffff81166113a0576040517f1e4fbdf7000000000000000000000000000000000000000000000000000000008152600060048201526024016108fe565b6113a98161152e565b50565b60007fffffffff0000000000000000000000000000000000000000000000000000000082167f9061b92300000000000000000000000000000000000000000000000000000000148061143f57507fffffffff0000000000000000000000000000000000000000000000000000000082167f6beeaa0d00000000000000000000000000000000000000000000000000000000145b8061148b57507fffffffff0000000000000000000000000000000000000000000000000000000082167f582de3e700000000000000000000000000000000000000000000000000000000145b806103db57507f01ffc9a7000000000000000000000000000000000000000000000000000000007fffffffff000000000000000000000000000000000000000000000000000000008316146103db565b60005473ffffffffffffffffffffffffffffffffffffffff16331461076d576040517f118cdaa70000000000000000000000000000000000000000000000000000000081523360048201526024016108fe565b6000805473ffffffffffffffffffffffffffffffffffffffff8381167fffffffffffffffffffffffff0000000000000000000000000000000000000000831681178455604051919092169283917f8be0079c531659141344cd1fd0a4f28419497f9722a3daafe3b4186f6b6457e09190a35050565b60606000806115b3846000611d8c565b91505060006115c485600184611dbb565b90945090508015806115d557508351155b156115f85760006040518060200160405280600081525090935093505050915091565b61160285836117f2565b93509050806113415760006040518060200160405280600081525090935093505050915091565b600063800000008214806103db57506000611643836119c3565b63ffffffff161192915050565b6060600061165e60016119ef565b905061168a817f0000000000000000000000000000000000000000000000000000000000000000611a10565b506116a0610fe1610fdc85610fd6856000611a38565b506116ac816000611abc565b506001546040805173ffffffffffffffffffffffffffffffffffffffff868116602083015261114d93169184917f47ab2a21000000000000000000000000000000000000000000000000000000009101604080517fffffffffffffffffffffffffffffffffffffffffffffffffffffffffffffffe08184030181526002805460208181028601810190945280855291939290919060009084015b8282101561114457838290600052602060002001805461176590613094565b80601f016020809104026020016040519081016040528092919081815260200182805461179190613094565b80156117de5780601f106117b3576101008083540402835291602001916117de565b820191906000526020600020905b8154815290600101906020018083116117c157829003601f168201915b505050505081526020019060010190611746565b6000806000806118028686611d8c565b60408051808201909152600481527f616464720000000000000000000000000000000000000000000000000000000060209091015290925090507f1a1ebb7848707a05591e7f7176db930a822cb7ceab700d19f68c7f26724dafb6820161186c57603c925061191c565b60408051808201909152600781527f64656661756c74000000000000000000000000000000000000000000000000006020909101527f301183f75670b4a9a2edb381b1d7533ad1e4387f1c77824f5fd582d2a43998d882016118d4576380000000925061191c565b816118e7576000809350935050506119bc565b6000806118ff886118f9896001613110565b85611e62565b91509150806119185760008095509550505050506119bc565b5092505b6119268682611d8c565b60408051808201909152600781527f7265766572736500000000000000000000000000000000000000000000000000602090910152955091507fdec08c9dbbdd0890e300eb5062089b2d4b1c40e3673bbccb5423f7b37dcf9a9c8214611994576000809350935050506119bc565b61199e8686611d8c565b50915081156119b5576000809350935050506119bc565b6001935050505b9250929050565b6000603c82036119d557506001919050565b63800000009182189182106119eb5760006103db565b5090565b6040805160208101909152606081526103db82611a0a611eda565b90611f22565b604080516020810190915260608152611a31611a2c8484611a59565b611f87565b9392505050565b604080516020810190915260608152611a31611a548484611fa1565b61206a565b604080516020810190915260608152611a318373ffffffffffffffffffffffffffffffffffffffff8416611fa1565b6040805160208101909152606081526103db826048611f22565b6040805160208101909152606081526103db82603d611f22565b604080516020810190915260608152611a31611adb8460ff8516611fa1565b612084565b60008573ffffffffffffffffffffffffffffffffffffffff166387c484fe6040518163ffffffff1660e01b8152600401600060405180830381865afa158015611b2d573d6000803e3d6000fd5b505050506040513d6000823e601f3d9081017fffffffffffffffffffffffffffffffffffffffffffffffffffffffffffffffe0168201604052611b739190810190612b4d565b90508151600003611c12578573ffffffffffffffffffffffffffffffffffffffff1663b50f2fbc6040518163ffffffff1660e01b8152600401600060405180830381865afa158015611bc9573d6000803e3d6000fd5b505050506040513d6000823e601f3d9081017fffffffffffffffffffffffffffffffffffffffffffffffffffffffffffffffe0168201604052611c0f9190810190613123565b91505b30828287604051602401611c279291906131cf565b604080517fffffffffffffffffffffffffffffffffffffffffffffffffffffffffffffffe0818403018152918152602080830180517bffffffffffffffffffffffffffffffffffffffffffffffffffffffff167f31c1980f00000000000000000000000000000000000000000000000000000000179052815160a08101835273ffffffffffffffffffffffffffffffffffffffff8c1681528082018790528083018b90527fffffffff000000000000000000000000000000000000000000000000000000008a1660608201526080810189905291517fe31844fe0000000000000000000000000000000000000000000000000000000092611d2a929091016131f4565b604080517fffffffffffffffffffffffffffffffffffffffffffffffffffffffffffffffe0818403018152908290527f556f18300000000000000000000000000000000000000000000000000000000082526108fe95949392916004016132d3565b6000806000611d9b858561209e565b9250905060ff811615611db357806021858701012092505b509250929050565b6060600083831015611dde57505060408051602081019091526000808252611e5a565b6000611dea858561335c565b90506001611df88282613110565b901c67ffffffffffffffff811115611e1257611e126124be565b6040519080825280601f01601f191660200182016040528015611e3c576020820181803683370190505b50925060208587018101908401611e5482828561214e565b93505050505b935093915050565b60008083831015611e7857506000905080611e5a565b6000611e84858561335c565b90506040811180611e955750855184115b15611ea7575060009150819050611e5a565b858501602001611eb98160008461214e565b92506001820160011c6020036000518160031b1c9450505050935093915050565b60408051602081018252606081528151612000808252612020820190935290916000919060208201818036833750506000825250604080516020810190915290815292915050565b604080516020810190915260608152825180516120008110611f70576040517fec031c1f00000000000000000000000000000000000000000000000000000000815260040160405180910390fd5b600181018252838160208401015350929392505050565b6040805160208101909152606081526103db826032611f22565b60408051602081019091526060815281600003611fca57611fc3836000611f22565b90506103db565b6000611fd58361229a565b60f8600382901b169390931b929050611fef81602061336f565b9050612006611fff826000613388565b8590611f22565b50835180516120009061201d9060ff851690613110565b1115612055576040517fec031c1f00000000000000000000000000000000000000000000000000000000815260040160405180910390fd5b80516020818301019490945292019091525090565b6040805160208101909152606081526103db826046611f22565b6040805160208101909152606081526103db826033611f22565b600080835183106120dd57836040517fba4adc230000000000000000000000000000000000000000000000000000000081526004016108fe91906127ee565b8383815181106120ef576120ef612ace565b016020015160f81c9150508181016001018161210f578351811415612115565b83518110155b156119bc57836040517fba4adc230000000000000000000000000000000000000000000000000000000081526004016108fe91906127ee565b6000612208565b811a6000602f8211603a8310161561219057507fffffffffffffffffffffffffffffffffffffffffffffffffffffffffffffffd081016103db565b604782106040831116156121c757507fffffffffffffffffffffffffffffffffffffffffffffffffffffffffffffffc981016103db565b606782106060831116156121fe57507fffffffffffffffffffffffffffffffffffffffffffffffffffffffffffffffa981016103db565b5061010092915050565b506001838201828216156122445761222260008651612155565b80855360018601955060018501945060ff81111561224257600092508195505b505b80851015612292578451612259600182612155565b612264600083612155565b60041b17905060ff81111561227d576000925050612292565b80855350600285019450600184019350612244565b509392505050565b60007001000000000000000000000000000000008210156122c05760809190911b906010175b78010000000000000000000000000000000000000000000000008210156122ec5760409190911b906008175b7c010000000000000000000000000000000000000000000000000000000082101561231c5760209190911b906004175b7e0100000000000000000000000000000000000000000000000000000000000082101561234e5760109190911b906002175b7f010000000000000000000000000000000000000000000000000000000000000082101561237a576001175b919050565b8280548282559060005260206000209081019282156123c5579160200282015b828111156123c557825182906123b590826133f0565b509160200191906001019061239f565b506119eb9291505b808211156119eb5760006123e182826123ea565b506001016123cd565b5080546123f690613094565b6000825580601f10612406575050565b601f0160209004906000526020600020908101906113a991905b808211156119eb5760008155600101612420565b80357fffffffff000000000000000000000000000000000000000000000000000000008116811461237a57600080fd5b60006020828403121561247657600080fd5b611a3182612434565b73ffffffffffffffffffffffffffffffffffffffff811681146113a957600080fd5b6000602082840312156124b357600080fd5b8135611a318161247f565b7f4e487b7100000000000000000000000000000000000000000000000000000000600052604160045260246000fd5b60405160a0810167ffffffffffffffff81118282101715612510576125106124be565b60405290565b604051601f82017fffffffffffffffffffffffffffffffffffffffffffffffffffffffffffffffe016810167ffffffffffffffff8111828210171561255d5761255d6124be565b604052919050565b600067ffffffffffffffff82111561257f5761257f6124be565b5060051b60200190565b600067ffffffffffffffff8211156125a3576125a36124be565b50601f017fffffffffffffffffffffffffffffffffffffffffffffffffffffffffffffffe01660200190565b60006125e26125dd84612589565b612516565b90508281528383830111156125f657600080fd5b828260208301376000602084830101529392505050565b600082601f83011261261e57600080fd5b611a31838335602085016125cf565b60ff811681146113a957600080fd5b803561237a8161262d565b60008083601f84011261265957600080fd5b50813567ffffffffffffffff81111561267157600080fd5b6020830191508360208285010111156119bc57600080fd5b6000806000806060858703121561269f57600080fd5b843567ffffffffffffffff8111156126b657600080fd5b8501601f810187136126c757600080fd5b80356126d56125dd82612565565b8082825260208201915060208360051b8501019250898311156126f757600080fd5b602084015b8381101561273957803567ffffffffffffffff81111561271b57600080fd5b61272a8c60208389010161260d565b845250602092830192016126fc565b50965061274c925050506020860161263c565b9250604085013567ffffffffffffffff81111561276857600080fd5b61277487828801612647565b95989497509550505050565b60005b8381101561279b578181015183820152602001612783565b50506000910152565b600081518084526127bc816020860160208601612780565b601f017fffffffffffffffffffffffffffffffffffffffffffffffffffffffffffffffe0169290920160200192915050565b602081526000611a3160208301846127a4565b600082825180855260208501945060208160051b8301016020850160005b8381101561286f577fffffffffffffffffffffffffffffffffffffffffffffffffffffffffffffffe08584030188526128598383516127a4565b602098890198909350919091019060010161281f565b50909695505050505050565b602081526000611a316020830184612801565b6000602082840312156128a057600080fd5b813567ffffffffffffffff8111156128b757600080fd5b8201601f810184136128c857600080fd5b80356128d66125dd82612565565b8082825260208201915060208360051b8501019250868311156128f857600080fd5b602084015b8381101561294e57803567ffffffffffffffff81111561291c57600080fd5b8501603f8101891361292d57600080fd5b61293f896020830135604084016125cf565b845250602092830192016128fd565b509695505050505050565b6000806000806040858703121561296f57600080fd5b843567ffffffffffffffff81111561298657600080fd5b61299287828801612647565b909550935050602085013567ffffffffffffffff81111561276857600080fd5b6000602082840312156129c457600080fd5b813567ffffffffffffffff8111156129db57600080fd5b8201601f810184136129ec57600080fd5b80356129fa6125dd82612565565b8082825260208201915060208360051b850101925086831115612a1c57600080fd5b6020840193505b82841015612a47578335612a368161247f565b825260209384019390910190612a23565b9695505050505050565b600060208284031215612a6357600080fd5b5035919050565b600060208284031215612a7c57600080fd5b813567ffffffffffffffff811115612a9357600080fd5b610c9f8482850161260d565b73ffffffffffffffffffffffffffffffffffffffff83168152604060208201526000610c9f6040830184612801565b7f4e487b7100000000000000000000000000000000000000000000000000000000600052603260045260246000fd5b600082601f830112612b0e57600080fd5b8151602083016000612b226125dd84612589565b9050828152858383011115612b3657600080fd5b612b44836020830184612780565b95945050505050565b600060208284031215612b5f57600080fd5b815167ffffffffffffffff811115612b7657600080fd5b610c9f84828501612afd565b80357fffffffff000000000000000000000000000000000000000000000000000000008116906004841015612be1577fffffffff00000000000000000000000000000000000000000000000000000000808560040360031b1b82161691505b5092915050565b8183528181602085013750600060208284010152600060207fffffffffffffffffffffffffffffffffffffffffffffffffffffffffffffffe0601f840116840101905092915050565b602081526000610c9f602083018486612be8565b805160208201517fffffffffffffffffffffffffffffffffffffffff000000000000000000000000811691906014821015612caa577fffffffffffffffffffffffffffffffffffffffff000000000000000000000000808360140360031b1b82161692505b5050919050565b60008085851115612cc157600080fd5b83861115612cce57600080fd5b5050820193919092039150565b60008060408385031215612cee57600080fd5b50508035926020909101359150565b803561237a8161247f565b600060208284031215612d1a57600080fd5b6040516020810167ffffffffffffffff81118282101715612d3d57612d3d6124be565b604052905080823567ffffffffffffffff811115612d5a57600080fd5b612d668582860161260d565b8252505092915050565b600060208284031215612d8257600080fd5b813567ffffffffffffffff811115612d9957600080fd5b820160a08185031215612dab57600080fd5b612db36124ed565b612dbc82612cfd565b8152602082013567ffffffffffffffff811115612dd857600080fd5b612de48682850161260d565b602083015250604082013567ffffffffffffffff811115612e0457600080fd5b612e1086828501612d08565b604083015250612e2260608301612434565b6060820152608082013567ffffffffffffffff811115612e4157600080fd5b612e4d8682850161260d565b608083015250949350505050565b6000815160208452610c9f60208501826127a4565b606081526000612e8360608301876127a4565b8281036020840152612e958187612e5b565b90508281036040840152612eaa818587612be8565b979650505050505050565b805161237a8161262d565b60008060408385031215612ed357600080fd5b825167ffffffffffffffff811115612eea57600080fd5b8301601f81018513612efb57600080fd5b8051612f096125dd82612565565b8082825260208201915060208360051b850101925087831115612f2b57600080fd5b602084015b83811015612f6d57805167ffffffffffffffff811115612f4f57600080fd5b612f5e8a602083890101612afd565b84525060209283019201612f30565b509450612f809250505060208401612eb5565b90509250929050565b6000606082016060835280865180835260808501915060808160051b86010192506020880160005b82811015613000577fffffffffffffffffffffffffffffffffffffffffffffffffffffffffffffff80878603018452612feb8583516127a4565b94506020938401939190910190600101612fb1565b5050505060ff851660208401528281036040840152612a4781856127a4565b60008251613031818460208701612780565b9190910192915050565b602080825282518282018190526000918401906040840190835b8181101561308957835173ffffffffffffffffffffffffffffffffffffffff16835260209384019390920191600101613055565b509095945050505050565b600181811c908216806130a857607f821691505b60208210810361114d577f4e487b7100000000000000000000000000000000000000000000000000000000600052602260045260246000fd5b7f4e487b7100000000000000000000000000000000000000000000000000000000600052601160045260246000fd5b808201808211156103db576103db6130e1565b60006020828403121561313557600080fd5b815167ffffffffffffffff81111561314c57600080fd5b8201601f8101841361315d57600080fd5b805161316b6125dd82612565565b8082825260208201915060208360051b85010192508683111561318d57600080fd5b602084015b8381101561294e57805167ffffffffffffffff8111156131b157600080fd5b6131c089602083890101612afd565b84525060209283019201613192565b6040815260006131e260408301856127a4565b8281036020840152612b448185612e5b565b6020815273ffffffffffffffffffffffffffffffffffffffff82511660208201526000602083015160a0604084015261323060c08401826127a4565b905060408401517fffffffffffffffffffffffffffffffffffffffffffffffffffffffffffffffe084830301606085015261326b8282612e5b565b9150507fffffffff00000000000000000000000000000000000000000000000000000000606085015116608084015260808401517fffffffffffffffffffffffffffffffffffffffffffffffffffffffffffffffe08483030160a0850152612b4482826127a4565b73ffffffffffffffffffffffffffffffffffffffff8616815260a06020820152600061330260a0830187612801565b828103604084015261331481876127a4565b90507fffffffff0000000000000000000000000000000000000000000000000000000085166060840152828103608084015261335081856127a4565b98975050505050505050565b818103818111156103db576103db6130e1565b60ff82811682821603908111156103db576103db6130e1565b60ff81811683821601908111156103db576103db6130e1565b601f8211156133eb57806000526020600020601f840160051c810160208510156133c85750805b601f840160051c820191505b818110156133e857600081556001016133d4565b50505b505050565b815167ffffffffffffffff81111561340a5761340a6124be565b61341e816134188454613094565b846133a1565b6020601f821160018114613470576000831561343a5750848201515b7fffffffffffffffffffffffffffffffffffffffffffffffffffffffffffffffff600385901b1c1916600184901b1784556133e8565b6000848152602081207fffffffffffffffffffffffffffffffffffffffffffffffffffffffffffffffe08516915b828110156134be578785015182556020948501946001909201910161349e565b50848210156134fa57868401517fffffffffffffffffffffffffffffffffffffffffffffffffffffffffffffffff600387901b60f8161c191681555b50505050600190811b0190555056fea2646970667358221220942a06aa5a11cf92729cbd1d2f34844f3af8e7f1e63cce85ad0c8182002b11fb64736f6c634300081a0033",
  "linkReferences": {},
  "deployedLinkReferences": {},
  "immutableReferences": {
    "26875": [
      {
        "length": 32,
        "start": 484
      },
      {
        "length": 32,
        "start": 2156
      },
      {
        "length": 32,
        "start": 2194
      },
      {
        "length": 32,
        "start": 2582
      },
      {
        "length": 32,
        "start": 2951
      },
      {
        "length": 32,
        "start": 3246
      },
      {
        "length": 32,
        "start": 4641
      }
    ],
    "26878": [
      {
        "length": 32,
        "start": 387
      },
      {
        "length": 32,
        "start": 2627
      },
      {
        "length": 32,
        "start": 3045
      },
      {
        "length": 32,
        "start": 3950
      },
      {
        "length": 32,
        "start": 5734
      }
    ],
    "27183": [
      {
        "length": 32,
        "start": 758
      },
      {
        "length": 32,
        "start": 1251
      },
      {
        "length": 32,
        "start": 1592
      }
    ]
  },
  "inputSourceName": "project/contracts/reverseResolver/ChainReverseResolver.sol",
  "devdoc": {
    "errors": {
      "DNSDecodingFailed(bytes)": [
        {
          "details": "The DNS-encoded name is malformed.      Error selector: `0xba4adc23`"
        }
      ],
      "OwnableInvalidOwner(address)": [
        {
          "details": "The owner is not a valid owner account. (eg. `address(0)`)"
        }
      ],
      "OwnableUnauthorizedAccount(address)": [
        {
          "details": "The caller account is not authorized to perform an operation."
        }
      ],
      "UnreachableName(bytes)": [
        {
          "details": "Error selector: `0x5fe9a5df`"
        }
      ],
      "UnsupportedResolverProfile(bytes4)": [
        {
          "details": "Error selector: `0x7b1c461b`"
        }
      ]
    },
    "events": {
      "VerifierChanged(bytes,address)": {
        "params": {
          "name": "The DNS-encoded name.",
          "verifier": "The new verifier contract."
        }
      }
    },
    "kind": "dev",
    "methods": {
      "owner()": {
        "details": "Returns the address of the current owner."
      },
      "renounceOwnership()": {
        "details": "Leaves the contract without owner. It will not be possible to call `onlyOwner` functions. Can only be called by the current owner. NOTE: Renouncing ownership will leave the contract without an owner, thereby disabling any functionality that is only available to the owner."
      },
      "resolve(bytes,bytes)": {
        "details": "This function may execute over multiple steps.",
        "params": {
          "data": "The resolution data, as specified in ENSIP-10.",
          "name": "The reverse name to resolve, in normalised and DNS-encoded form."
        },
        "returns": {
          "result": "The encoded response for the requested profile."
        }
      },
      "resolveNameCallback(bytes[],uint8,bytes)": {
        "details": "CCIP-Read callback for `_resolveName()`.",
        "params": {
          "extraData": "The contextual data passed from `_resolveName()`.",
          "values": "The outputs for `GatewayRequest` (1 name)."
        },
        "returns": {
          "result": "The abi-encoded name for the given address."
        }
      },
      "resolveNames(address[])": {
        "details": "Reverts with a variety of errors. - reverts `RequestOverflow` if too many addresses. - Gateway request may fail if too many proofs. - Gateway response may run out of gas.",
        "params": {
          "addrs": "The addresses to resolve."
        },
        "returns": {
          "_0": "The resolved names."
        }
      },
      "resolveNamesCallback(bytes[],uint8,bytes)": {
        "details": "CCIP-Read callback for `_resolveNames()`.      Recursive if there are still addresses to resolve.",
        "params": {
          "extraData": "The contextual data passed from `_resolveNames()`.",
          "values": "The outputs for `GatewayRequest` (N names)."
        },
        "returns": {
          "names": "The resolved names."
        }
      },
      "setGatewayURLs(string[])": {
        "params": {
          "gateways": "The new gateway URLs."
        }
      },
      "setGatewayVerifier(address)": {
        "params": {
          "verifier": "The new verifier contract."
        }
      },
      "supportsFeature(bytes4)": {
        "params": {
          "featureId": "The feature identifier."
        },
        "returns": {
          "_0": "`true` if the feature is supported by the contract."
        }
      },
      "supportsInterface(bytes4)": {
        "details": "See {IERC165-supportsInterface}."
      },
      "transferOwnership(address)": {
        "details": "Transfers ownership of the contract to a new account (`newOwner`). Can only be called by the current owner."
      },
      "verifierMetadata(bytes)": {
        "params": {
          "name": "The DNS-encoded name."
        },
        "returns": {
          "gateways": "The gateways used by the verifier.",
          "verifier": "The verifier contract."
        }
      }
    },
    "title": "Chain Reverse Resolver",
    "version": 1
  },
  "evm": {
    "gasEstimates": {
      "creation": {
        "codeDepositCost": "2726200",
        "executionCost": "infinite",
        "totalCost": "infinite"
      },
      "external": {
        "chainId()": "infinite",
        "chainRegistrar()": "infinite",
        "coinType()": "infinite",
        "defaultRegistrar()": "infinite",
        "fetchCallback(bytes,bytes)": "infinite",
        "gatewayURLs(uint256)": "infinite",
        "gatewayVerifier()": "2358",
        "owner()": "2353",
        "renounceOwnership()": "infinite",
        "resolve(bytes,bytes)": "infinite",
        "resolveNameCallback(bytes[],uint8,bytes)": "infinite",
        "resolveNames(address[])": "infinite",
        "resolveNamesCallback(bytes[],uint8,bytes)": "infinite",
        "setGatewayURLs(string[])": "infinite",
        "setGatewayVerifier(address)": "27800",
        "supportsFeature(bytes4)": "406",
        "supportsInterface(bytes4)": "infinite",
        "transferOwnership(address)": "infinite",
        "verifierMetadata(bytes)": "infinite"
      },
      "internal": {
        "_resolveName(address)": "infinite"
      }
    }
  },
  "storageLayout": {
    "storage": [
      {
        "astId": 4777,
        "contract": "project/contracts/reverseResolver/ChainReverseResolver.sol:ChainReverseResolver",
        "label": "_owner",
        "offset": 0,
        "slot": "0",
        "type": "t_address"
      },
      {
        "astId": 27187,
        "contract": "project/contracts/reverseResolver/ChainReverseResolver.sol:ChainReverseResolver",
        "label": "gatewayVerifier",
        "offset": 0,
        "slot": "1",
        "type": "t_contract(IGatewayVerifier)11479"
      },
      {
        "astId": 27191,
        "contract": "project/contracts/reverseResolver/ChainReverseResolver.sol:ChainReverseResolver",
        "label": "gatewayURLs",
        "offset": 0,
        "slot": "2",
        "type": "t_array(t_string_storage)dyn_storage"
      }
    ],
    "types": {
      "t_address": {
        "encoding": "inplace",
        "label": "address",
        "numberOfBytes": "20"
      },
      "t_array(t_string_storage)dyn_storage": {
        "base": "t_string_storage",
        "encoding": "dynamic_array",
        "label": "string[]",
        "numberOfBytes": "32"
      },
      "t_contract(IGatewayVerifier)11479": {
        "encoding": "inplace",
        "label": "contract IGatewayVerifier",
        "numberOfBytes": "20"
      },
      "t_string_storage": {
        "encoding": "bytes",
        "label": "string",
        "numberOfBytes": "32"
      }
    }
  },
  "userdoc": {
    "errors": {
      "UnreachableName(bytes)": [
        {
          "notice": "`name` is not a valid DNS-encoded ENSIP-19 reverse name or namespace."
        }
      ],
      "UnsupportedResolverProfile(bytes4)": [
        {
          "notice": "`resolve()` was called with a profile other than `name()` or `addr(*)`."
        }
      ]
    },
    "events": {
      "GatewayURLsChanged(string[])": {
        "notice": "Emitted when the gateway URLs are changed."
      },
      "GatewayVerifierChanged(address)": {
        "notice": "Emitted when the gateway verifier is changed."
      },
      "VerifierChanged(bytes,address)": {
        "notice": "The verifier contract has changed.         Use `0x00` for any name."
      }
    },
    "kind": "user",
    "methods": {
      "chainId()": {
        "notice": "The EVM Chain ID derived from `coinType()`."
      },
      "chainRegistrar()": {
        "notice": "The reverse registrar address on the corresponding chain.         The address returned by `addr(coinType)` for the resolver."
      },
      "coinType()": {
        "notice": "The coin type for the resolver."
      },
      "defaultRegistrar()": {
        "notice": "The reverse registrar contract for \"default.reverse\"."
      },
      "gatewayURLs(uint256)": {
        "notice": "Gateway URLs for the verifier contract."
      },
      "gatewayVerifier()": {
        "notice": "The verifier contract for the L2 chain."
      },
      "resolve(bytes,bytes)": {
        "notice": "Resolves the following profiles according to ENSIP-10:         - `name()` if `name` is an ENSIP-19 reverse name of an EVM address for `coinType`.         - `addr(*) = registrar` if `name` is an ENSIP-19 reverse namespace for `coinType`.         Caller should enable EIP-3668."
      },
      "resolveNames(address[])": {
        "notice": "Resolve multiple EVM addresses to names.         Caller should enable EIP-3668."
      },
      "setGatewayURLs(string[])": {
        "notice": "Set gateway URLs."
      },
      "setGatewayVerifier(address)": {
        "notice": "Set the verifier contract."
      },
      "supportsFeature(bytes4)": {
        "notice": "Check if a feature is supported."
      },
      "verifierMetadata(bytes)": {
        "notice": "Get information about the verification process.         Use ERC-165 to determine the verifier type."
      }
    },
    "notice": "Reverses an EVM address using the first non-null response from the following sources: 1. `L2ReverseRegistrar` on L2 chain via Unruggable Gateway 2. `IStandaloneReverseRegistrar` for \"default.reverse\"",
    "version": 1
  },
  "argsData": "0x000000000000000000000000343431e9ceb7c19cc8d3ea0ee231bff82b5849100000000000000000000000000000000000000000000000000000000080aa37dc000000000000000000000000348bb9f8c6947c34c74cb0263a954e23a125555300000000000000000000000000000beef055f7934784d6d81b6bc86665630dba0000000000000000000000009fc09f6683ea8e8ad0fae3317e39e5758246970700000000000000000000000000000000000000000000000000000000000000c00000000000000000000000000000000000000000000000000000000000000002000000000000000000000000000000000000000000000000000000000000004000000000000000000000000000000000000000000000000000000000000000a0000000000000000000000000000000000000000000000000000000000000003f68747470733a2f2f6c622e647270632e6f72672f676174657761792f756e7275676761626c653f6e6574776f726b3d6f7074696d69736d2d7365706f6c696100000000000000000000000000000000000000000000000000000000000000002068747470733a2f2f6f7074696d69736d2d7365706f6c69612e333636382e696f",
  "transaction": {
    "hash": "0x11db56bfb0a7bd4be6b91c73b1ae94ba8905cd89a03d96497aeea085ba96428c",
    "nonce": "0x17d9",
    "origin": "0xffffffffff52d316b7bd028358089bc8066b8f80"
  }
}