{
  "address": "0x640294a2b2d87e7f522db3e3e3e876764bce170d",
  "abi": [
    {
      "inputs": [
        {
          "internalType": "contract ENS",
          "name": "_ens",
          "type": "address"
        },
        {
          "internalType": "contract INameWrapper",
          "name": "wrapperAddress",
          "type": "address"
        },
        {
          "internalType": "address",
          "name": "_trustedETHController",
          "type": "address"
        },
        {
          "internalType": "address",
          "name": "_trustedReverseRegistrar",
          "type": "address"
        }
      ],
      "stateMutability": "nonpayable",
      "type": "constructor"
    },
    {
      "inputs": [
        {
          "internalType": "bytes",
          "name": "addressBytes",
          "type": "bytes"
        }
      ],
      "name": "InvalidEVMAddress",
      "type": "error"
    },
    {
      "inputs": [
        {
          "internalType": "uint256",
          "name": "offset",
          "type": "uint256"
        },
        {
          "internalType": "uint256",
          "name": "length",
          "type": "uint256"
        }
      ],
      "name": "OffsetOutOfBoundsError",
      "type": "error"
    },
    {
      "anonymous": false,
      "inputs": [
        {
          "indexed": true,
          "internalType": "bytes32",
          "name": "node",
          "type": "bytes32"
        },
        {
          "indexed": true,
          "internalType": "uint256",
          "name": "contentType",
          "type": "uint256"
        }
      ],
      "name": "ABIChanged",
      "type": "event"
    },
    {
      "anonymous": false,
      "inputs": [
        {
          "indexed": true,
          "internalType": "bytes32",
          "name": "node",
          "type": "bytes32"
        },
        {
          "indexed": false,
          "internalType": "address",
          "name": "a",
          "type": "address"
        }
      ],
      "name": "AddrChanged",
      "type": "event"
    },
    {
      "anonymous": false,
      "inputs": [
        {
          "indexed": true,
          "internalType": "bytes32",
          "name": "node",
          "type": "bytes32"
        },
        {
          "indexed": false,
          "internalType": "uint256",
          "name": "coinType",
          "type": "uint256"
        },
        {
          "indexed": false,
          "internalType": "bytes",
          "name": "newAddress",
          "type": "bytes"
        }
      ],
      "name": "AddressChanged",
      "type": "event"
    },
    {
      "anonymous": false,
      "inputs": [
        {
          "indexed": true,
          "internalType": "address",
          "name": "owner",
          "type": "address"
        },
        {
          "indexed": true,
          "internalType": "address",
          "name": "operator",
          "type": "address"
        },
        {
          "indexed": false,
          "internalType": "bool",
          "name": "approved",
          "type": "bool"
        }
      ],
      "name": "ApprovalForAll",
      "type": "event"
    },
    {
      "anonymous": false,
      "inputs": [
        {
          "indexed": false,
          "internalType": "address",
          "name": "owner",
          "type": "address"
        },
        {
          "indexed": true,
          "internalType": "bytes32",
          "name": "node",
          "type": "bytes32"
        },
        {
          "indexed": true,
          "internalType": "address",
          "name": "delegate",
          "type": "address"
        },
        {
          "indexed": true,
          "internalType": "bool",
          "name": "approved",
          "type": "bool"
        }
      ],
      "name": "Approved",
      "type": "event"
    },
    {
      "anonymous": false,
      "inputs": [
        {
          "indexed": true,
          "internalType": "bytes32",
          "name": "node",
          "type": "bytes32"
        },
        {
          "indexed": false,
          "internalType": "bytes",
          "name": "hash",
          "type": "bytes"
        }
      ],
      "name": "ContenthashChanged",
      "type": "event"
    },
    {
      "anonymous": false,
      "inputs": [
        {
          "indexed": true,
          "internalType": "bytes32",
          "name": "node",
          "type": "bytes32"
        },
        {
          "indexed": false,
          "internalType": "bytes",
          "name": "name",
          "type": "bytes"
        },
        {
          "indexed": false,
          "internalType": "uint16",
          "name": "resource",
          "type": "uint16"
        },
        {
          "indexed": false,
          "internalType": "bytes",
          "name": "record",
          "type": "bytes"
        }
      ],
      "name": "DNSRecordChanged",
      "type": "event"
    },
    {
      "anonymous": false,
      "inputs": [
        {
          "indexed": true,
          "internalType": "bytes32",
          "name": "node",
          "type": "bytes32"
        },
        {
          "indexed": false,
          "internalType": "bytes",
          "name": "name",
          "type": "bytes"
        },
        {
          "indexed": false,
          "internalType": "uint16",
          "name": "resource",
          "type": "uint16"
        }
      ],
      "name": "DNSRecordDeleted",
      "type": "event"
    },
    {
      "anonymous": false,
      "inputs": [
        {
          "indexed": true,
          "internalType": "bytes32",
          "name": "node",
          "type": "bytes32"
        },
        {
          "indexed": false,
          "internalType": "bytes",
          "name": "lastzonehash",
          "type": "bytes"
        },
        {
          "indexed": false,
          "internalType": "bytes",
          "name": "zonehash",
          "type": "bytes"
        }
      ],
      "name": "DNSZonehashChanged",
      "type": "event"
    },
    {
      "anonymous": false,
      "inputs": [
        {
          "indexed": true,
          "internalType": "bytes32",
          "name": "node",
          "type": "bytes32"
        },
        {
          "indexed": true,
          "internalType": "string",
          "name": "indexedKey",
          "type": "string"
        },
        {
          "indexed": false,
          "internalType": "string",
          "name": "key",
          "type": "string"
        },
        {
          "indexed": true,
          "internalType": "bytes",
          "name": "indexedData",
          "type": "bytes"
        }
      ],
      "name": "DataChanged",
      "type": "event"
    },
    {
      "anonymous": false,
      "inputs": [
        {
          "indexed": true,
          "internalType": "bytes32",
          "name": "node",
          "type": "bytes32"
        },
        {
          "indexed": true,
          "internalType": "bytes4",
          "name": "interfaceID",
          "type": "bytes4"
        },
        {
          "indexed": false,
          "internalType": "address",
          "name": "implementer",
          "type": "address"
        }
      ],
      "name": "InterfaceChanged",
      "type": "event"
    },
    {
      "anonymous": false,
      "inputs": [
        {
          "indexed": true,
          "internalType": "bytes32",
          "name": "node",
          "type": "bytes32"
        },
        {
          "indexed": false,
          "internalType": "string",
          "name": "name",
          "type": "string"
        }
      ],
      "name": "NameChanged",
      "type": "event"
    },
    {
      "anonymous": false,
      "inputs": [
        {
          "indexed": true,
          "internalType": "bytes32",
          "name": "node",
          "type": "bytes32"
        },
        {
          "indexed": false,
          "internalType": "bytes32",
          "name": "x",
          "type": "bytes32"
        },
        {
          "indexed": false,
          "internalType": "bytes32",
          "name": "y",
          "type": "bytes32"
        }
      ],
      "name": "PubkeyChanged",
      "type": "event"
    },
    {
      "anonymous": false,
      "inputs": [
        {
          "indexed": true,
          "internalType": "bytes32",
          "name": "node",
          "type": "bytes32"
        },
        {
          "indexed": true,
          "internalType": "string",
          "name": "indexedKey",
          "type": "string"
        },
        {
          "indexed": false,
          "internalType": "string",
          "name": "key",
          "type": "string"
        },
        {
          "indexed": false,
          "internalType": "string",
          "name": "value",
          "type": "string"
        }
      ],
      "name": "TextChanged",
      "type": "event"
    },
    {
      "anonymous": false,
      "inputs": [
        {
          "indexed": true,
          "internalType": "bytes32",
          "name": "node",
          "type": "bytes32"
        },
        {
          "indexed": false,
          "internalType": "uint64",
          "name": "newVersion",
          "type": "uint64"
        }
      ],
      "name": "VersionChanged",
      "type": "event"
    },
    {
      "inputs": [
        {
          "internalType": "bytes32",
          "name": "node",
          "type": "bytes32"
        },
        {
          "internalType": "uint256",
          "name": "contentTypes",
          "type": "uint256"
        }
      ],
      "name": "ABI",
      "outputs": [
        {
          "internalType": "uint256",
          "name": "",
          "type": "uint256"
        },
        {
          "internalType": "bytes",
          "name": "",
          "type": "bytes"
        }
      ],
      "stateMutability": "view",
      "type": "function"
    },
    {
      "inputs": [
        {
          "internalType": "bytes32",
          "name": "node",
          "type": "bytes32"
        }
      ],
      "name": "addr",
      "outputs": [
        {
          "internalType": "address payable",
          "name": "",
          "type": "address"
        }
      ],
      "stateMutability": "view",
      "type": "function"
    },
    {
      "inputs": [
        {
          "internalType": "bytes32",
          "name": "node",
          "type": "bytes32"
        },
        {
          "internalType": "uint256",
          "name": "coinType",
          "type": "uint256"
        }
      ],
      "name": "addr",
      "outputs": [
        {
          "internalType": "bytes",
          "name": "addressBytes",
          "type": "bytes"
        }
      ],
      "stateMutability": "view",
      "type": "function"
    },
    {
      "inputs": [
        {
          "internalType": "bytes32",
          "name": "node",
          "type": "bytes32"
        },
        {
          "internalType": "address",
          "name": "delegate",
          "type": "address"
        },
        {
          "internalType": "bool",
          "name": "approved",
          "type": "bool"
        }
      ],
      "name": "approve",
      "outputs": [],
      "stateMutability": "nonpayable",
      "type": "function"
    },
    {
      "inputs": [
        {
          "internalType": "bytes32",
          "name": "node",
          "type": "bytes32"
        }
      ],
      "name": "clearRecords",
      "outputs": [],
      "stateMutability": "nonpayable",
      "type": "function"
    },
    {
      "inputs": [
        {
          "internalType": "bytes32",
          "name": "node",
          "type": "bytes32"
        }
      ],
      "name": "contenthash",
      "outputs": [
        {
          "internalType": "bytes",
          "name": "",
          "type": "bytes"
        }
      ],
      "stateMutability": "view",
      "type": "function"
    },
    {
      "inputs": [
        {
          "internalType": "bytes32",
          "name": "node",
          "type": "bytes32"
        },
        {
          "internalType": "string",
          "name": "key",
          "type": "string"
        }
      ],
      "name": "data",
      "outputs": [
        {
          "internalType": "bytes",
          "name": "",
          "type": "bytes"
        }
      ],
      "stateMutability": "view",
      "type": "function"
    },
    {
      "inputs": [
        {
          "internalType": "bytes32",
          "name": "node",
          "type": "bytes32"
        },
        {
          "internalType": "bytes32",
          "name": "name",
          "type": "bytes32"
        },
        {
          "internalType": "uint16",
          "name": "resource",
          "type": "uint16"
        }
      ],
      "name": "dnsRecord",
      "outputs": [
        {
          "internalType": "bytes",
          "name": "",
          "type": "bytes"
        }
      ],
      "stateMutability": "view",
      "type": "function"
    },
    {
      "inputs": [
        {
          "internalType": "bytes32",
          "name": "node",
          "type": "bytes32"
        },
        {
          "internalType": "uint256",
          "name": "coinType",
          "type": "uint256"
        }
      ],
      "name": "hasAddr",
      "outputs": [
        {
          "internalType": "bool",
          "name": "",
          "type": "bool"
        }
      ],
      "stateMutability": "view",
      "type": "function"
    },
    {
      "inputs": [
        {
          "internalType": "bytes32",
          "name": "node",
          "type": "bytes32"
        },
        {
          "internalType": "bytes32",
          "name": "name",
          "type": "bytes32"
        }
      ],
      "name": "hasDNSRecords",
      "outputs": [
        {
          "internalType": "bool",
          "name": "",
          "type": "bool"
        }
      ],
      "stateMutability": "view",
      "type": "function"
    },
    {
      "inputs": [
        {
          "internalType": "bytes32",
          "name": "node",
          "type": "bytes32"
        },
        {
          "internalType": "bytes4",
          "name": "interfaceID",
          "type": "bytes4"
        }
      ],
      "name": "interfaceImplementer",
      "outputs": [
        {
          "internalType": "address",
          "name": "",
          "type": "address"
        }
      ],
      "stateMutability": "view",
      "type": "function"
    },
    {
      "inputs": [
        {
          "internalType": "address",
          "name": "owner",
          "type": "address"
        },
        {
          "internalType": "bytes32",
          "name": "node",
          "type": "bytes32"
        },
        {
          "internalType": "address",
          "name": "delegate",
          "type": "address"
        }
      ],
      "name": "isApprovedFor",
      "outputs": [
        {
          "internalType": "bool",
          "name": "",
          "type": "bool"
        }
      ],
      "stateMutability": "view",
      "type": "function"
    },
    {
      "inputs": [
        {
          "internalType": "address",
          "name": "account",
          "type": "address"
        },
        {
          "internalType": "address",
          "name": "operator",
          "type": "address"
        }
      ],
      "name": "isApprovedForAll",
      "outputs": [
        {
          "internalType": "bool",
          "name": "",
          "type": "bool"
        }
      ],
      "stateMutability": "view",
      "type": "function"
    },
    {
      "inputs": [
        {
          "internalType": "bytes[]",
          "name": "data",
          "type": "bytes[]"
        }
      ],
      "name": "multicall",
      "outputs": [
        {
          "internalType": "bytes[]",
          "name": "results",
          "type": "bytes[]"
        }
      ],
      "stateMutability": "nonpayable",
      "type": "function"
    },
    {
      "inputs": [
        {
          "internalType": "bytes32",
          "name": "nodehash",
          "type": "bytes32"
        },
        {
          "internalType": "bytes[]",
          "name": "data",
          "type": "bytes[]"
        }
      ],
      "name": "multicallWithNodeCheck",
      "outputs": [
        {
          "internalType": "bytes[]",
          "name": "results",
          "type": "bytes[]"
        }
      ],
      "stateMutability": "nonpayable",
      "type": "function"
    },
    {
      "inputs": [
        {
          "internalType": "bytes32",
          "name": "node",
          "type": "bytes32"
        }
      ],
      "name": "name",
      "outputs": [
        {
          "internalType": "string",
          "name": "",
          "type": "string"
        }
      ],
      "stateMutability": "view",
      "type": "function"
    },
    {
      "inputs": [
        {
          "internalType": "bytes32",
          "name": "node",
          "type": "bytes32"
        }
      ],
      "name": "pubkey",
      "outputs": [
        {
          "internalType": "bytes32",
          "name": "x",
          "type": "bytes32"
        },
        {
          "internalType": "bytes32",
          "name": "y",
          "type": "bytes32"
        }
      ],
      "stateMutability": "view",
      "type": "function"
    },
    {
      "inputs": [
        {
          "internalType": "bytes32",
          "name": "",
          "type": "bytes32"
        }
      ],
      "name": "recordVersions",
      "outputs": [
        {
          "internalType": "uint64",
          "name": "",
          "type": "uint64"
        }
      ],
      "stateMutability": "view",
      "type": "function"
    },
    {
      "inputs": [
        {
          "internalType": "bytes32",
          "name": "node",
          "type": "bytes32"
        },
        {
          "internalType": "uint256",
          "name": "contentType",
          "type": "uint256"
        },
        {
          "internalType": "bytes",
          "name": "data",
          "type": "bytes"
        }
      ],
      "name": "setABI",
      "outputs": [],
      "stateMutability": "nonpayable",
      "type": "function"
    },
    {
      "inputs": [
        {
          "internalType": "bytes32",
          "name": "node",
          "type": "bytes32"
        },
        {
          "internalType": "uint256",
          "name": "coinType",
          "type": "uint256"
        },
        {
          "internalType": "bytes",
          "name": "addressBytes",
          "type": "bytes"
        }
      ],
      "name": "setAddr",
      "outputs": [],
      "stateMutability": "nonpayable",
      "type": "function"
    },
    {
      "inputs": [
        {
          "internalType": "bytes32",
          "name": "node",
          "type": "bytes32"
        },
        {
          "internalType": "address",
          "name": "_addr",
          "type": "address"
        }
      ],
      "name": "setAddr",
      "outputs": [],
      "stateMutability": "nonpayable",
      "type": "function"
    },
    {
      "inputs": [
        {
          "internalType": "address",
          "name": "operator",
          "type": "address"
        },
        {
          "internalType": "bool",
          "name": "approved",
          "type": "bool"
        }
      ],
      "name": "setApprovalForAll",
      "outputs": [],
      "stateMutability": "nonpayable",
      "type": "function"
    },
    {
      "inputs": [
        {
          "internalType": "bytes32",
          "name": "node",
          "type": "bytes32"
        },
        {
          "internalType": "bytes",
          "name": "hash",
          "type": "bytes"
        }
      ],
      "name": "setContenthash",
      "outputs": [],
      "stateMutability": "nonpayable",
      "type": "function"
    },
    {
      "inputs": [
        {
          "internalType": "bytes32",
          "name": "node",
          "type": "bytes32"
        },
        {
          "internalType": "bytes",
          "name": "data",
          "type": "bytes"
        }
      ],
      "name": "setDNSRecords",
      "outputs": [],
      "stateMutability": "nonpayable",
      "type": "function"
    },
    {
      "inputs": [
        {
          "internalType": "bytes32",
          "name": "node",
          "type": "bytes32"
        },
        {
          "internalType": "string",
          "name": "key",
          "type": "string"
        },
        {
          "internalType": "bytes",
          "name": "value",
          "type": "bytes"
        }
      ],
      "name": "setData",
      "outputs": [],
      "stateMutability": "nonpayable",
      "type": "function"
    },
    {
      "inputs": [
        {
          "internalType": "bytes32",
          "name": "node",
          "type": "bytes32"
        },
        {
          "internalType": "bytes4",
          "name": "interfaceID",
          "type": "bytes4"
        },
        {
          "internalType": "address",
          "name": "implementer",
          "type": "address"
        }
      ],
      "name": "setInterface",
      "outputs": [],
      "stateMutability": "nonpayable",
      "type": "function"
    },
    {
      "inputs": [
        {
          "internalType": "bytes32",
          "name": "node",
          "type": "bytes32"
        },
        {
          "internalType": "string",
          "name": "newName",
          "type": "string"
        }
      ],
      "name": "setName",
      "outputs": [],
      "stateMutability": "nonpayable",
      "type": "function"
    },
    {
      "inputs": [
        {
          "internalType": "bytes32",
          "name": "node",
          "type": "bytes32"
        },
        {
          "internalType": "bytes32",
          "name": "x",
          "type": "bytes32"
        },
        {
          "internalType": "bytes32",
          "name": "y",
          "type": "bytes32"
        }
      ],
      "name": "setPubkey",
      "outputs": [],
      "stateMutability": "nonpayable",
      "type": "function"
    },
    {
      "inputs": [
        {
          "internalType": "bytes32",
          "name": "node",
          "type": "bytes32"
        },
        {
          "internalType": "string",
          "name": "key",
          "type": "string"
        },
        {
          "internalType": "string",
          "name": "value",
          "type": "string"
        }
      ],
      "name": "setText",
      "outputs": [],
      "stateMutability": "nonpayable",
      "type": "function"
    },
    {
      "inputs": [
        {
          "internalType": "bytes32",
          "name": "node",
          "type": "bytes32"
        },
        {
          "internalType": "bytes",
          "name": "hash",
          "type": "bytes"
        }
      ],
      "name": "setZonehash",
      "outputs": [],
      "stateMutability": "nonpayable",
      "type": "function"
    },
    {
      "inputs": [
        {
          "internalType": "bytes4",
          "name": "interfaceID",
          "type": "bytes4"
        }
      ],
      "name": "supportsInterface",
      "outputs": [
        {
          "internalType": "bool",
          "name": "",
          "type": "bool"
        }
      ],
      "stateMutability": "view",
      "type": "function"
    },
    {
      "inputs": [
        {
          "internalType": "bytes32",
          "name": "node",
          "type": "bytes32"
        },
        {
          "internalType": "string",
          "name": "key",
          "type": "string"
        }
      ],
      "name": "text",
      "outputs": [
        {
          "internalType": "string",
          "name": "",
          "type": "string"
        }
      ],
      "stateMutability": "view",
      "type": "function"
    },
    {
      "inputs": [
        {
          "internalType": "bytes32",
          "name": "node",
          "type": "bytes32"
        }
      ],
      "name": "zonehash",
      "outputs": [
        {
          "internalType": "bytes",
          "name": "",
          "type": "bytes"
        }
      ],
      "stateMutability": "view",
      "type": "function"
    }
  ],
  "contractName": "PublicResolver",
  "sourceName": "contracts/resolvers/PublicResolver.sol",
  "bytecode": "0x61010060405234801561001157600080fd5b50604051613d54380380613d548339810160408190526100309161016d565b6040516302571be360e01b81527f91d1777781884d03a6757a803996e38de2a42967fb37eeaca72729271025a9e26004820152849033906000906001600160a01b038416906302571be390602401602060405180830381865afa15801561009b573d6000803e3d6000fd5b505050506040513d601f19601f820116820180604052508101906100bf91906101cc565b604051630f41a04d60e11b81526001600160a01b03848116600483015291925090821690631e83409a906024016020604051808303816000875af115801561010b573d6000803e3d6000fd5b505050506040513d601f19601f8201168201806040525081019061012f91906101f0565b5050506001600160a01b039485166080525091831660a052821660c0521660e052610209565b6001600160a01b038116811461016a57600080fd5b50565b6000806000806080858703121561018357600080fd5b845161018e81610155565b602086015190945061019f81610155565b60408601519093506101b081610155565b60608601519092506101c181610155565b939692955090935050565b6000602082840312156101de57600080fd5b81516101e981610155565b9392505050565b60006020828403121561020257600080fd5b5051919050565b60805160a05160c05160e051613b0b6102496000396000611d8c01526000611d4d015260008181611e710152611ef101526000611ded0152613b0b6000f3fe608060405234801561001057600080fd5b506004361061020b5760003560e01c8063773722131161012a578063c8690233116100bd578063e32954eb1161008c578063e985e9c511610071578063e985e9c51461059b578063ecbfada3146105e4578063f1cb7e06146105f757600080fd5b8063e32954eb14610575578063e59d895d1461058857600080fd5b8063c8690233146104b3578063ce3decdc1461050c578063d5fa2b001461051f578063d700ff331461053257600080fd5b8063a8fa5682116100f9578063a8fa56821461041c578063a9784b3e1461042f578063ac9650d814610480578063bc1c58d1146104a057600080fd5b806377372213146103d05780638b95dd71146103e3578063a22cb465146103f6578063a4b91a011461040957600080fd5b80633603d758116101a257806359d1d43c1161017157806359d1d43c146103775780635c98042b14610397578063623195b0146103aa578063691f3431146103bd57600080fd5b80633603d758146102f25780633b3b57de146103055780634cbf6ba4146103185780634eb9c45e1461036457600080fd5b80632203ab56116101de5780632203ab561461029857806329cd62ea146102b9578063304e6ade146102cc57806332f111d7146102df57600080fd5b806301ffc9a7146102105780630af179d71461023857806310f13a8c1461024d578063124a319c14610260575b600080fd5b61022361021e366004612d71565b61060a565b60405190151581526020015b60405180910390f35b61024b610246366004612dce565b61061b565b005b61024b61025b366004612e1a565b610825565b61027361026e366004612e99565b6108f2565b60405173ffffffffffffffffffffffffffffffffffffffff909116815260200161022f565b6102ab6102a6366004612ec5565b610c89565b60405161022f929190612f55565b61024b6102c7366004612f6e565b610dce565b61024b6102da366004612dce565b610e69565b6102236102ed366004612ec5565b610ee5565b61024b610300366004612f9a565b610f31565b610273610313366004612f9a565b610fd4565b610223610326366004612ec5565b6000828152602081815260408083205467ffffffffffffffff1683526007825280832094835293815283822092825291909152205461ffff16151590565b61024b610372366004612e1a565b610ff3565b61038a610385366004612dce565b611148565b60405161022f9190612fb3565b61038a6103a5366004612f9a565b611229565b61024b6103b8366004612fc6565b6112e8565b61038a6103cb366004612f9a565b611385565b61024b6103de366004612dce565b6113bf565b61024b6103f1366004613048565b61143b565b61024b610404366004613183565b61157a565b61024b6104173660046131af565b6116b6565b61038a61042a3660046131ed565b6117d5565b61022361043d36600461322d565b73ffffffffffffffffffffffffffffffffffffffff9283166000908152600d60209081526040808320948352938152838220929094168152925290205460ff1690565b61049361048e3660046132a9565b611823565b60405161022f91906132eb565b61038a6104ae366004612f9a565b611831565b6104f76104c1366004612f9a565b6000818152602081815260408083205467ffffffffffffffff168352600a82528083209383529290522080546001909101549091565b6040805192835260208301919091520161022f565b61024b61051a366004612dce565b61186b565b61024b61052d36600461336e565b6119ae565b61055c610540366004612f9a565b60006020819052908152604090205467ffffffffffffffff1681565b60405167ffffffffffffffff909116815260200161022f565b61049361058336600461339e565b611a15565b61024b6105963660046133dd565b611a2a565b6102236105a9366004613412565b73ffffffffffffffffffffffffffffffffffffffff9182166000908152600c6020908152604080832093909416825291909152205460ff1690565b61038a6105f2366004612dce565b611b0e565b61038a610605366004612ec5565b611b4e565b600061061582611cdd565b92915050565b8261062581611d33565b61062e57600080fd5b600084815260208181526040808320548151601f870184900484028101840190925285825283926060928392859267ffffffffffffffff9091169183916106949183918d908d9081908401838280828437600092019190915250929392505061200f9050565b90505b805151602082015110156107be578661ffff166000036106fc57806040015196506106c181612070565b9450846040516020016106d49190613440565b6040516020818303038152906040528051906020012092506106f581612091565b93506107b0565b600061070782612070565b9050816040015161ffff168861ffff1614158061072b575061072986826120ad565b155b156107ae576107878c878a8e8e8080601f016020809104026020016040519081016040528093929190818152602001838380828437600092019190915250505060208801518d915061077e90829061348b565b8b51158a6120d2565b8160400151975081602001519650809550858051906020012093506107ab82612091565b94505b505b6107b98161233f565b610697565b50835115610819576108198a85888c8c8080601f0160208091040260200160405190810160405280939291908181526020018383808284376000920191909152508c925061081091508290508f61348b565b895115886120d2565b50505050505050505050565b8461082f81611d33565b61083857600080fd5b6000868152602081815260408083205467ffffffffffffffff168352600b825280832089845290915290819020905184918491610878908990899061349e565b90815260200160405180910390209182610893929190613548565b5084846040516108a492919061349e565b6040518091039020867f448bc014f1536726cf8d54ff3d6481ed3cbc683c2591ca204274009afa09b1a1878787876040516108e294939291906136ab565b60405180910390a3505050505050565b6000828152602081815260408083205467ffffffffffffffff1683526008825280832085845282528083207fffffffff000000000000000000000000000000000000000000000000000000008516845290915281205473ffffffffffffffffffffffffffffffffffffffff16801561096b579050610615565b600061097685610fd4565b905073ffffffffffffffffffffffffffffffffffffffff811661099e57600092505050610615565b6040517f01ffc9a7000000000000000000000000000000000000000000000000000000006024820152600090819073ffffffffffffffffffffffffffffffffffffffff841690604401604080517fffffffffffffffffffffffffffffffffffffffffffffffffffffffffffffffe08184030181529181526020820180517bffffffffffffffffffffffffffffffffffffffffffffffffffffffff167f01ffc9a70000000000000000000000000000000000000000000000000000000017905251610a689190613440565b600060405180830381855afa9150503d8060008114610aa3576040519150601f19603f3d011682016040523d82523d6000602084013e610aa8565b606091505b5091509150811580610abb575060208151105b80610afd575080601f81518110610ad457610ad46136dd565b01602001517fff0000000000000000000000000000000000000000000000000000000000000016155b15610b0f576000945050505050610615565b6040517fffffffff000000000000000000000000000000000000000000000000000000008716602482015273ffffffffffffffffffffffffffffffffffffffff841690604401604080517fffffffffffffffffffffffffffffffffffffffffffffffffffffffffffffffe08184030181529181526020820180517bffffffffffffffffffffffffffffffffffffffffffffffffffffffff167f01ffc9a70000000000000000000000000000000000000000000000000000000017905251610bd69190613440565b600060405180830381855afa9150503d8060008114610c11576040519150601f19603f3d011682016040523d82523d6000602084013e610c16565b606091505b509092509050811580610c2a575060208151105b80610c6c575080601f81518110610c4357610c436136dd565b01602001517fff0000000000000000000000000000000000000000000000000000000000000016155b15610c7e576000945050505050610615565b509095945050505050565b6000828152602081815260408083205467ffffffffffffffff168352600180835281842086855290925282206060915b600081118015610cc95750848111155b15610dae5780851615801590610cf7575060008181526020839052604081208054610cf3906134ae565b9050115b15610da65780826000838152602001908152602001600020808054610d1b906134ae565b80601f0160208091040260200160405190810160405280929190818152602001828054610d47906134ae565b8015610d945780601f10610d6957610100808354040283529160200191610d94565b820191906000526020600020905b815481529060010190602001808311610d7757829003601f168201915b50505050509050935093505050610dc7565b60011b610cb9565b5060006040518060200160405280600081525092509250505b9250929050565b82610dd881611d33565b610de157600080fd5b604080518082018252848152602080820185815260008881528083528481205467ffffffffffffffff168152600a835284812089825283528490209251835551600190920191909155815185815290810184905285917f1d6f5e03d3f63eb58751986629a5439baee5079ff04f345becb66e23eb154e4691015b60405180910390a250505050565b82610e7381611d33565b610e7c57600080fd5b6000848152602081815260408083205467ffffffffffffffff168352600382528083208784529091529020610eb2838583613548565b50837fe379c1624ed7e714cc0937528a32359d69d5281337765313dba4e081b72d75788484604051610e5b92919061370c565b6000828152602081815260408083205467ffffffffffffffff16835260028252808320858452825280832084845290915281208054829190610f26906134ae565b905011905092915050565b80610f3b81611d33565b610f4457600080fd5b6000828152602081905260408120805467ffffffffffffffff1691610f6883613720565b82546101009290920a67ffffffffffffffff818102199093169183160217909155600084815260208181526040918290205491519190921681528492507fc6621ccb8f3f5a04bb6502154b2caf6adf5983fe76dfef1cfc9c42e3579db444910160405180910390a25050565b6000610fe182603c611b4e565b610fea9061374d565b60601c92915050565b84610ffd81611d33565b61100657600080fd5b6000868152602081815260408083205467ffffffffffffffff1683526004825280832089845290915290819020905184918491611046908990899061349e565b90815260200160405180910390209182611061929190613548565b506110d68686868080601f01602080910402602001604051908101604052809392919081815260200183838082843760009201919091525050604080516020601f8a018190048102820181019092528881529250889150879081908401838280828437600092019190915250611a1092505050565b82826040516110e692919061349e565b604051809103902085856040516110fe92919061349e565b6040518091039020877f3b7ea3580e046bf897ca24f2f45fcf5491dafba8d1b3dd17ca92aa0e82b4dd21888860405161113892919061370c565b60405180910390a4505050505050565b6000838152602081815260408083205467ffffffffffffffff168352600b825280832086845290915290819020905160609190611188908590859061349e565b908152602001604051809103902080546111a1906134ae565b80601f01602080910402602001604051908101604052809291908181526020018280546111cd906134ae565b801561121a5780601f106111ef5761010080835404028352916020019161121a565b820191906000526020600020905b8154815290600101906020018083116111fd57829003601f168201915b505050505090505b9392505050565b6000818152602081815260408083205467ffffffffffffffff168352600582528083208484529091529020805460609190611263906134ae565b80601f016020809104026020016040519081016040528092919081815260200182805461128f906134ae565b80156112dc5780601f106112b1576101008083540402835291602001916112dc565b820191906000526020600020905b8154815290600101906020018083116112bf57829003601f168201915b50505050509050919050565b836112f281611d33565b6112fb57600080fd5b8361130760018261348b565b161561131257600080fd5b6000858152602081815260408083205467ffffffffffffffff1683526001825280832088845282528083208784529091529020611350838583613548565b50604051849086907faa121bbeef5f32f5961a2a28966e769023910fc9479059ee3495d4c1a696efe390600090a35050505050565b6000818152602081815260408083205467ffffffffffffffff168352600982528083208484529091529020805460609190611263906134ae565b826113c981611d33565b6113d257600080fd5b6000848152602081815260408083205467ffffffffffffffff168352600982528083208784529091529020611408838583613548565b50837fb7d29e911041e8d9b843369e890bcb72c9388692ba48b65ac54e7214c4c348f78484604051610e5b92919061370c565b8261144581611d33565b61144e57600080fd5b81511580159061146057508151601414155b8015611470575061147083612427565b156114b257816040517f8d666f600000000000000000000000000000000000000000000000000000000081526004016114a99190612fb3565b60405180910390fd5b837f65412581168e88a1e60c6459d7f44ae83ad0832e670826c05a4e2476b57af75284846040516114e4929190612f55565b60405180910390a2603c830361153657837f52d7d861f09ab3d26239d492e8968629f95e9e318cf0b73bfddc441522a15fd261151f8461374d565b60405160609190911c815260200160405180910390a25b6000848152602081815260408083205467ffffffffffffffff168352600282528083208784528252808320868452909152902061157383826137b9565b5050505050565b73ffffffffffffffffffffffffffffffffffffffff8216330361161f576040517f08c379a000000000000000000000000000000000000000000000000000000000815260206004820152602960248201527f455243313135353a2073657474696e6720617070726f76616c2073746174757360448201527f20666f722073656c66000000000000000000000000000000000000000000000060648201526084016114a9565b336000818152600c6020908152604080832073ffffffffffffffffffffffffffffffffffffffff87168085529083529281902080547fffffffffffffffffffffffffffffffffffffffffffffffffffffffffffffff001686151590811790915590519081529192917f17307eab39ab6107e8899845ad3d59bd9653f200f220920489ca2b5937696c31910160405180910390a35050565b73ffffffffffffffffffffffffffffffffffffffff82163303611735576040517f08c379a000000000000000000000000000000000000000000000000000000000815260206004820181905260248201527f53657474696e672064656c65676174652073746174757320666f722073656c6660448201526064016114a9565b336000818152600d60209081526040808320878452825280832073ffffffffffffffffffffffffffffffffffffffff87168085529083529281902080547fffffffffffffffffffffffffffffffffffffffffffffffffffffffffffffff001686151590811790915590519384529286917ff0ddb3b04746704017f9aa8bd728fcc2c1d11675041205350018915f5e4750a0910160405180910390a4505050565b6000838152602081815260408083205467ffffffffffffffff168352600682528083208684528252808320858452825280832061ffff8516845290915290208054606091906111a1906134ae565b60606112226000848461244e565b6000818152602081815260408083205467ffffffffffffffff168352600382528083208484529091529020805460609190611263906134ae565b8261187581611d33565b61187e57600080fd5b6000848152602081815260408083205467ffffffffffffffff1680845260058352818420888552909252822080549192916118b8906134ae565b80601f01602080910402602001604051908101604052809291908181526020018280546118e4906134ae565b80156119315780601f1061190657610100808354040283529160200191611931565b820191906000526020600020905b81548152906001019060200180831161191457829003601f168201915b5050505067ffffffffffffffff841660009081526005602090815260408083208b845290915290209192506119699050858783613548565b50857f8f15ed4b723ef428f250961da8315675b507046737e19319fc1a4d81bfe87f8582878760405161199e939291906138d2565b60405180910390a2505050505050565b816119b881611d33565b6119c157600080fd5b6040517fffffffffffffffffffffffffffffffffffffffff000000000000000000000000606084901b166020820152611a10908490603c9060340160405160208183030381529060405261143b565b505050565b6060611a2284848461244e565b949350505050565b82611a3481611d33565b611a3d57600080fd5b6000848152602081815260408083205467ffffffffffffffff1683526008825280832087845282528083207fffffffff0000000000000000000000000000000000000000000000000000000087168085529083529281902080547fffffffffffffffffffffffff00000000000000000000000000000000000000001673ffffffffffffffffffffffffffffffffffffffff8716908117909155905190815286917f7c69f06bea0bdef565b709e93a147836b0063ba2dd89f02d0b7e8d931e6a6daa910160405180910390a350505050565b6000838152602081815260408083205467ffffffffffffffff1683526004825280832086845290915290819020905160609190611188908590859061349e565b6000828152602081815260408083205467ffffffffffffffff1683526002825280832085845282528083208484529182905290912080546060929190611b93906134ae565b80601f0160208091040260200160405190810160405280929190818152602001828054611bbf906134ae565b8015611c0c5780601f10611be157610100808354040283529160200191611c0c565b820191906000526020600020905b815481529060010190602001808311611bef57829003601f168201915b5050505050915081516000148015611c3257506000611c2a84612636565b63ffffffff16115b15611cd657638000000060009081526020829052604090208054611c55906134ae565b80601f0160208091040260200160405190810160405280929190818152602001828054611c81906134ae565b8015611cce5780601f10611ca357610100808354040283529160200191611cce565b820191906000526020600020905b815481529060010190602001808311611cb157829003601f168201915b505050505091505b5092915050565b60007fffffffff0000000000000000000000000000000000000000000000000000000082167f59d1d43c000000000000000000000000000000000000000000000000000000001480610615575061061582612662565b60003373ffffffffffffffffffffffffffffffffffffffff7f0000000000000000000000000000000000000000000000000000000000000000161480611dae57503373ffffffffffffffffffffffffffffffffffffffff7f000000000000000000000000000000000000000000000000000000000000000016145b15611dbb57506001919050565b6040517f02571be3000000000000000000000000000000000000000000000000000000008152600481018390526000907f000000000000000000000000000000000000000000000000000000000000000073ffffffffffffffffffffffffffffffffffffffff16906302571be390602401602060405180830381865afa158015611e49573d6000803e3d6000fd5b505050506040513d601f19601f82011682018060405250810190611e6d9190613902565b90507f000000000000000000000000000000000000000000000000000000000000000073ffffffffffffffffffffffffffffffffffffffff168173ffffffffffffffffffffffffffffffffffffffff1603611f74576040517f6352211e000000000000000000000000000000000000000000000000000000008152600481018490527f000000000000000000000000000000000000000000000000000000000000000073ffffffffffffffffffffffffffffffffffffffff1690636352211e90602401602060405180830381865afa158015611f4d573d6000803e3d6000fd5b505050506040513d601f19601f82011682018060405250810190611f719190613902565b90505b73ffffffffffffffffffffffffffffffffffffffff8116331480611fc8575073ffffffffffffffffffffffffffffffffffffffff81166000908152600c6020908152604080832033845290915290205460ff165b80611222575073ffffffffffffffffffffffffffffffffffffffff81166000908152600d60209081526040808320868452825280832033845290915290205460ff16611222565b61205d6040518060e001604052806060815260200160008152602001600061ffff168152602001600061ffff168152602001600063ffffffff16815260200160008152602001600081525090565b82815260c081018290526106158161233f565b602081015181516060916106159161208890826126b8565b84519190612712565b60a081015160c08201516060916106159161208890829061348b565b6000815183511480156112225750508051602091820120825192909101919091201490565b8651602088012060006120e6878787612712565b905083156122105767ffffffffffffffff831660009081526006602090815260408083208d84528252808320858452825280832061ffff8c16845290915290208054612131906134ae565b1590506121905767ffffffffffffffff831660009081526007602090815260408083208d845282528083208584529091528120805461ffff16916121748361391f565b91906101000a81548161ffff021916908361ffff160217905550505b67ffffffffffffffff831660009081526006602090815260408083208d84528252808320858452825280832061ffff8c16845290915281206121d191612cea565b897f03528ed0c2a3ebc993b12ce3c16bb382f9c7d88ef7d8a1bf290eaf35955a12078a8a60405161220392919061395b565b60405180910390a2610819565b67ffffffffffffffff831660009081526006602090815260408083208d84528252808320858452825280832061ffff8c16845290915290208054612253906134ae565b90506000036122b45767ffffffffffffffff831660009081526007602090815260408083208d845282528083208584529091528120805461ffff169161229883613981565b91906101000a81548161ffff021916908361ffff160217905550505b67ffffffffffffffff831660009081526006602090815260408083208d84528252808320858452825280832061ffff8c16845290915290206122f682826137b9565b50897f52a608b3303a48862d07a73d82fa221318c0027fbbcfb1b2329bface3f19ff2b8a8a8460405161232b93929190613999565b60405180910390a250505050505050505050565b60c081015160208201819052815151116123565750565b600061236a826000015183602001516126b8565b826020015161237991906139c8565b82519091506123889082612768565b61ffff16604083015261239c6002826139c8565b82519091506123ab9082612768565b61ffff1660608301526123bf6002826139c8565b82519091506123ce908261278a565b63ffffffff1660808301526123e46004826139c8565b82519091506000906123f69083612768565b61ffff1690506124076002836139c8565b60a08401819052915061241a81836139c8565b60c0909301929092525050565b600063800000008214806106155750600061244183612636565b63ffffffff161192915050565b60608167ffffffffffffffff81111561246957612469613019565b60405190808252806020026020018201604052801561249c57816020015b60608152602001906001900390816124875790505b50905060005b8281101561262e5784156125815760008484838181106124c4576124c46136dd565b90506020028101906124d691906139db565b6124e591602491600491613a40565b6124ee91613a6a565b905085811461257f576040517f08c379a000000000000000000000000000000000000000000000000000000000815260206004820152603460248201527f6d756c746963616c6c3a20416c6c207265636f726473206d757374206861766560448201527f2061206d61746368696e67206e616d656861736800000000000000000000000060648201526084016114a9565b505b60008030868685818110612597576125976136dd565b90506020028101906125a991906139db565b6040516125b792919061349e565b600060405180830381855af49150503d80600081146125f2576040519150601f19603f3d011682016040523d82523d6000602084013e6125f7565b606091505b50915091508161260657600080fd5b80848481518110612619576126196136dd565b602090810291909101015250506001016124a2565b509392505050565b6000603c820361264857506001919050565b638000000091821891821061265e576000610615565b5090565b60007fffffffff0000000000000000000000000000000000000000000000000000000082167fc86902330000000000000000000000000000000000000000000000000000000014806106155750610615826127a7565b6000815b835181106126cc576126cc613aa6565b60006126d885836127fd565b60ff1690506126e88160016139c8565b6126f290836139c8565b9150806000036127025750612708565b506126bc565b611a22838261348b565b60608167ffffffffffffffff81111561272d5761272d613019565b6040519080825280601f01601f191660200182016040528015612757576020820181803683370190505b509050611222848483600086612830565b600061277e836127798460026139c8565b612861565b50016020015160f01c90565b600061279b836127798460046139c8565b50016020015160e01c90565b60007fffffffff0000000000000000000000000000000000000000000000000000000082167f691f34310000000000000000000000000000000000000000000000000000000014806106155750610615826128ad565b600061280e836127798460016139c8565b828281518110612820576128206136dd565b016020015160f81c905092915050565b61283e8561277983876139c8565b61284c8361277983856139c8565b61157382602085010185602088010183612903565b81518111156128a95781516040517f8a3c1cfb0000000000000000000000000000000000000000000000000000000081526114a9918391600401918252602082015260400190565b5050565b60007fffffffff0000000000000000000000000000000000000000000000000000000082167f124a319c000000000000000000000000000000000000000000000000000000001480610615575061061582612989565b5b601f8111156129425781518352602092830192909101907fffffffffffffffffffffffffffffffffffffffffffffffffffffffffffffffe001612904565b8015611a105790518251600160209390930360031b9290921b7fffffffffffffffffffffffffffffffffffffffffffffffffffffffffffffffff0180199091169116179052565b60007fffffffff0000000000000000000000000000000000000000000000000000000082167fa8fa5682000000000000000000000000000000000000000000000000000000001480612a1c57507fffffffff0000000000000000000000000000000000000000000000000000000082167f5c98042b00000000000000000000000000000000000000000000000000000000145b8061061557506106158260007fffffffff0000000000000000000000000000000000000000000000000000000082167fecbfada300000000000000000000000000000000000000000000000000000000148061061557506106158260007fffffffff0000000000000000000000000000000000000000000000000000000082167fbc1c58d100000000000000000000000000000000000000000000000000000000148061061557506106158260007f3b3b57de000000000000000000000000000000000000000000000000000000007fffffffff0000000000000000000000000000000000000000000000000000000083161480612b5b57507ff1cb7e06000000000000000000000000000000000000000000000000000000007fffffffff000000000000000000000000000000000000000000000000000000008316145b80612ba757507f32f111d7000000000000000000000000000000000000000000000000000000007fffffffff000000000000000000000000000000000000000000000000000000008316145b8061061557506106158260007fffffffff0000000000000000000000000000000000000000000000000000000082167f2203ab5600000000000000000000000000000000000000000000000000000000148061061557506106158260007fffffffff0000000000000000000000000000000000000000000000000000000082167fd700ff3300000000000000000000000000000000000000000000000000000000148061061557506106158260007fffffffff0000000000000000000000000000000000000000000000000000000082167f4fbf043300000000000000000000000000000000000000000000000000000000148061061557507f01ffc9a7000000000000000000000000000000000000000000000000000000007fffffffff00000000000000000000000000000000000000000000000000000000831614610615565b508054612cf6906134ae565b6000825580601f10612d06575050565b601f016020900490600052602060002090810190612d249190612d27565b50565b5b8082111561265e5760008155600101612d28565b80357fffffffff0000000000000000000000000000000000000000000000000000000081168114612d6c57600080fd5b919050565b600060208284031215612d8357600080fd5b61122282612d3c565b60008083601f840112612d9e57600080fd5b50813567ffffffffffffffff811115612db657600080fd5b602083019150836020828501011115610dc757600080fd5b600080600060408486031215612de357600080fd5b83359250602084013567ffffffffffffffff811115612e0157600080fd5b612e0d86828701612d8c565b9497909650939450505050565b600080600080600060608688031215612e3257600080fd5b85359450602086013567ffffffffffffffff811115612e5057600080fd5b612e5c88828901612d8c565b909550935050604086013567ffffffffffffffff811115612e7c57600080fd5b612e8888828901612d8c565b969995985093965092949392505050565b60008060408385031215612eac57600080fd5b82359150612ebc60208401612d3c565b90509250929050565b60008060408385031215612ed857600080fd5b50508035926020909101359150565b60005b83811015612f02578181015183820152602001612eea565b50506000910152565b60008151808452612f23816020860160208601612ee7565b601f017fffffffffffffffffffffffffffffffffffffffffffffffffffffffffffffffe0169290920160200192915050565b828152604060208201526000611a226040830184612f0b565b600080600060608486031215612f8357600080fd5b505081359360208301359350604090920135919050565b600060208284031215612fac57600080fd5b5035919050565b6020815260006112226020830184612f0b565b60008060008060608587031215612fdc57600080fd5b8435935060208501359250604085013567ffffffffffffffff81111561300157600080fd5b61300d87828801612d8c565b95989497509550505050565b7f4e487b7100000000000000000000000000000000000000000000000000000000600052604160045260246000fd5b60008060006060848603121561305d57600080fd5b8335925060208401359150604084013567ffffffffffffffff81111561308257600080fd5b8401601f8101861361309357600080fd5b803567ffffffffffffffff8111156130ad576130ad613019565b6040517fffffffffffffffffffffffffffffffffffffffffffffffffffffffffffffffe0603f7fffffffffffffffffffffffffffffffffffffffffffffffffffffffffffffffe0601f8501160116810181811067ffffffffffffffff8211171561311957613119613019565b60405281815282820160200188101561313157600080fd5b816020840160208301376000602083830101528093505050509250925092565b73ffffffffffffffffffffffffffffffffffffffff81168114612d2457600080fd5b80358015158114612d6c57600080fd5b6000806040838503121561319657600080fd5b82356131a181613151565b9150612ebc60208401613173565b6000806000606084860312156131c457600080fd5b8335925060208401356131d681613151565b91506131e460408501613173565b90509250925092565b60008060006060848603121561320257600080fd5b8335925060208401359150604084013561ffff8116811461322257600080fd5b809150509250925092565b60008060006060848603121561324257600080fd5b833561324d81613151565b925060208401359150604084013561322281613151565b60008083601f84011261327657600080fd5b50813567ffffffffffffffff81111561328e57600080fd5b6020830191508360208260051b8501011115610dc757600080fd5b600080602083850312156132bc57600080fd5b823567ffffffffffffffff8111156132d357600080fd5b6132df85828601613264565b90969095509350505050565b6000602082016020835280845180835260408501915060408160051b86010192506020860160005b82811015613362577fffffffffffffffffffffffffffffffffffffffffffffffffffffffffffffffc087860301845261334d858351612f0b565b94506020938401939190910190600101613313565b50929695505050505050565b6000806040838503121561338157600080fd5b82359150602083013561339381613151565b809150509250929050565b6000806000604084860312156133b357600080fd5b83359250602084013567ffffffffffffffff8111156133d157600080fd5b612e0d86828701613264565b6000806000606084860312156133f257600080fd5b8335925061340260208501612d3c565b9150604084013561322281613151565b6000806040838503121561342557600080fd5b823561343081613151565b9150602083013561339381613151565b60008251613452818460208701612ee7565b9190910192915050565b7f4e487b7100000000000000000000000000000000000000000000000000000000600052601160045260246000fd5b818103818111156106155761061561345c565b8183823760009101908152919050565b600181811c908216806134c257607f821691505b6020821081036134fb577f4e487b7100000000000000000000000000000000000000000000000000000000600052602260045260246000fd5b50919050565b601f821115611a1057806000526020600020601f840160051c810160208510156135285750805b601f840160051c820191505b818110156115735760008155600101613534565b67ffffffffffffffff83111561356057613560613019565b6135748361356e83546134ae565b83613501565b6000601f8411600181146135c657600085156135905750838201355b7fffffffffffffffffffffffffffffffffffffffffffffffffffffffffffffffff600387901b1c1916600186901b178355611573565b6000838152602090207fffffffffffffffffffffffffffffffffffffffffffffffffffffffffffffffe0861690835b8281101561361557868501358255602094850194600190920191016135f5565b5086821015613650577fffffffffffffffffffffffffffffffffffffffffffffffffffffffffffffffff60f88860031b161c19848701351681555b505060018560011b0183555050505050565b8183528181602085013750600060208284010152600060207fffffffffffffffffffffffffffffffffffffffffffffffffffffffffffffffe0601f840116840101905092915050565b6040815260006136bf604083018688613662565b82810360208401526136d2818587613662565b979650505050505050565b7f4e487b7100000000000000000000000000000000000000000000000000000000600052603260045260246000fd5b602081526000611a22602083018486613662565b600067ffffffffffffffff821667ffffffffffffffff81036137445761374461345c565b60010192915050565b805160208201517fffffffffffffffffffffffffffffffffffffffff0000000000000000000000008116919060148210156137b2577fffffffffffffffffffffffffffffffffffffffff000000000000000000000000808360140360031b1b82161692505b5050919050565b815167ffffffffffffffff8111156137d3576137d3613019565b6137e7816137e184546134ae565b84613501565b6020601f82116001811461383957600083156138035750848201515b7fffffffffffffffffffffffffffffffffffffffffffffffffffffffffffffffff600385901b1c1916600184901b178455611573565b6000848152602081207fffffffffffffffffffffffffffffffffffffffffffffffffffffffffffffffe08516915b828110156138875787850151825560209485019460019092019101613867565b50848210156138c357868401517fffffffffffffffffffffffffffffffffffffffffffffffffffffffffffffffff600387901b60f8161c191681555b50505050600190811b01905550565b6040815260006138e56040830186612f0b565b82810360208401526138f8818587613662565b9695505050505050565b60006020828403121561391457600080fd5b815161122281613151565b600061ffff8216806139335761393361345c565b7fffffffffffffffffffffffffffffffffffffffffffffffffffffffffffffffff0192915050565b60408152600061396e6040830185612f0b565b905061ffff831660208301529392505050565b600061ffff821661ffff81036137445761374461345c565b6060815260006139ac6060830186612f0b565b61ffff8516602084015282810360408401526138f88185612f0b565b808201808211156106155761061561345c565b60008083357fffffffffffffffffffffffffffffffffffffffffffffffffffffffffffffffe1843603018112613a1057600080fd5b83018035915067ffffffffffffffff821115613a2b57600080fd5b602001915036819003821315610dc757600080fd5b60008085851115613a5057600080fd5b83861115613a5d57600080fd5b5050820193919092039150565b80356020831015610615577fffffffffffffffffffffffffffffffffffffffffffffffffffffffffffffffff602084900360031b1b1692915050565b7f4e487b7100000000000000000000000000000000000000000000000000000000600052600160045260246000fdfea2646970667358221220ef09557d8488103d417184178ba1003d68ed7239eafdb778c9776c6b5cd1363164736f6c634300081a0033",
  "linkReferences": {},
  "deployedLinkReferences": {},
  "immutableReferences": {
    "22161": [
      {
        "length": 32,
        "start": 7661
      }
    ],
    "22164": [
      {
        "length": 32,
        "start": 7793
      },
      {
        "length": 32,
        "start": 7921
      }
    ],
    "22166": [
      {
        "length": 32,
        "start": 7501
      }
    ],
    "22168": [
      {
        "length": 32,
        "start": 7564
      }
    ]
  },
  "inputSourceName": "project/contracts/resolvers/PublicResolver.sol",
  "devdoc": {
    "errors": {
      "InvalidEVMAddress(bytes)": [
        {
          "details": "Error selector: `0x8d666f60`"
        }
      ],
      "OffsetOutOfBoundsError(uint256,uint256)": [
        {
          "details": "`offset` was beyond `length`.       Error selector: `0x8a3c1cfb`"
        }
      ]
    },
    "kind": "dev",
    "methods": {
      "ABI(bytes32,uint256)": {
        "params": {
          "contentTypes": "A bitwise OR of the ABI formats accepted by the caller.",
          "node": "The ENS node to query"
        },
        "returns": {
          "_0": "contentType The content type of the return value",
          "_1": "data The ABI data"
        }
      },
      "addr(bytes32)": {
        "params": {
          "node": "The node to query."
        },
        "returns": {
          "_0": "The associated address."
        }
      },
      "addr(bytes32,uint256)": {
        "params": {
          "coinType": "The coin type.",
          "node": "The node to query."
        },
        "returns": {
          "addressBytes": "The assocated address."
        }
      },
      "approve(bytes32,address,bool)": {
        "details": "Approve a delegate to be able to updated records on a node."
      },
      "clearRecords(bytes32)": {
        "params": {
          "node": "The node to update."
        }
      },
      "contenthash(bytes32)": {
        "params": {
          "node": "The ENS node to query."
        },
        "returns": {
          "_0": "The associated contenthash."
        }
      },
      "data(bytes32,string)": {
        "params": {
          "key": "The key.",
          "node": "The node (namehash) for which data is being fetched."
        },
        "returns": {
          "_0": "The associated arbitrary `bytes` data."
        }
      },
      "dnsRecord(bytes32,bytes32,uint16)": {
        "params": {
          "name": "the keccak-256 hash of the fully-qualified name for which to fetch the record",
          "node": "the namehash of the node for which to fetch the record",
          "resource": "the ID of the resource as per https://en.wikipedia.org/wiki/List_of_DNS_record_types"
        },
        "returns": {
          "_0": "the DNS record in wire format if present, otherwise empty"
        }
      },
      "hasAddr(bytes32,uint256)": {
        "params": {
          "coinType": "The coin type.",
          "node": "The node to query."
        },
        "returns": {
          "_0": "True if the associated address is not empty."
        }
      },
      "hasDNSRecords(bytes32,bytes32)": {
        "params": {
          "name": "the namehash of the node for which to check the records",
          "node": "the namehash of the node for which to check the records"
        }
      },
      "interfaceImplementer(bytes32,bytes4)": {
        "params": {
          "interfaceID": "The EIP 165 interface ID to check for.",
          "node": "The ENS node to query."
        },
        "returns": {
          "_0": "The address that implements this interface, or 0 if the interface is unsupported."
        }
      },
      "isApprovedFor(address,bytes32,address)": {
        "details": "Check to see if the delegate has been approved by the owner for the node."
      },
      "isApprovedForAll(address,address)": {
        "details": "See {IERC1155-isApprovedForAll}."
      },
      "name(bytes32)": {
        "params": {
          "node": "The ENS node to query."
        },
        "returns": {
          "_0": "The associated name."
        }
      },
      "pubkey(bytes32)": {
        "params": {
          "node": "The ENS node to query"
        },
        "returns": {
          "x": "The X coordinate of the curve point for the public key.",
          "y": "The Y coordinate of the curve point for the public key."
        }
      },
      "setABI(bytes32,uint256,bytes)": {
        "params": {
          "contentType": "The content type of the ABI",
          "data": "The ABI data.",
          "node": "The node to update."
        }
      },
      "setAddr(bytes32,address)": {
        "params": {
          "_addr": "The address to set.",
          "node": "The node to update."
        }
      },
      "setAddr(bytes32,uint256,bytes)": {
        "params": {
          "addressBytes": "The address to set.",
          "coinType": "The coin type.",
          "node": "The node to update."
        }
      },
      "setApprovalForAll(address,bool)": {
        "details": "See {IERC1155-setApprovalForAll}."
      },
      "setContenthash(bytes32,bytes)": {
        "params": {
          "hash": "The contenthash to set",
          "node": "The node to update."
        }
      },
      "setDNSRecords(bytes32,bytes)": {
        "params": {
          "data": "the DNS wire format records to set",
          "node": "the namehash of the node for which to set the records"
        }
      },
      "setData(bytes32,string,bytes)": {
        "params": {
          "key": "The key to set.",
          "node": "The node to update.",
          "value": "The arbitrary `bytes` data to set."
        }
      },
      "setInterface(bytes32,bytes4,address)": {
        "params": {
          "implementer": "The address of a contract that implements this interface for this node.",
          "interfaceID": "The EIP 165 interface ID.",
          "node": "The node to update."
        }
      },
      "setName(bytes32,string)": {
        "params": {
          "node": "The node to update."
        }
      },
      "setPubkey(bytes32,bytes32,bytes32)": {
        "params": {
          "node": "The ENS node to query",
          "x": "the X coordinate of the curve point for the public key.",
          "y": "the Y coordinate of the curve point for the public key."
        }
      },
      "setText(bytes32,string,string)": {
        "params": {
          "key": "The key to set.",
          "node": "The node to update.",
          "value": "The text data value to set."
        }
      },
      "setZonehash(bytes32,bytes)": {
        "params": {
          "hash": "The zonehash to set",
          "node": "The node to update."
        }
      },
      "text(bytes32,string)": {
        "params": {
          "key": "The text data key to query.",
          "node": "The ENS node to query."
        },
        "returns": {
          "_0": "The associated text data."
        }
      },
      "zonehash(bytes32)": {
        "params": {
          "node": "The ENS node to query."
        },
        "returns": {
          "_0": "The associated contenthash."
        }
      }
    },
    "version": 1
  },
  "evm": {
    "gasEstimates": {
      "creation": {
        "codeDepositCost": "3023000",
        "executionCost": "infinite",
        "totalCost": "infinite"
      },
      "external": {
        "ABI(bytes32,uint256)": "infinite",
        "addr(bytes32)": "infinite",
        "addr(bytes32,uint256)": "infinite",
        "approve(bytes32,address,bool)": "27182",
        "clearRecords(bytes32)": "infinite",
        "contenthash(bytes32)": "infinite",
        "data(bytes32,string)": "infinite",
        "dnsRecord(bytes32,bytes32,uint16)": "infinite",
        "hasAddr(bytes32,uint256)": "5031",
        "hasDNSRecords(bytes32,bytes32)": "4862",
        "interfaceImplementer(bytes32,bytes4)": "infinite",
        "isApprovedFor(address,bytes32,address)": "infinite",
        "isApprovedForAll(address,address)": "infinite",
        "multicall(bytes[])": "infinite",
        "multicallWithNodeCheck(bytes32,bytes[])": "infinite",
        "name(bytes32)": "infinite",
        "pubkey(bytes32)": "6860",
        "recordVersions(bytes32)": "2567",
        "setABI(bytes32,uint256,bytes)": "infinite",
        "setAddr(bytes32,address)": "infinite",
        "setAddr(bytes32,uint256,bytes)": "infinite",
        "setApprovalForAll(address,bool)": "26700",
        "setContenthash(bytes32,bytes)": "infinite",
        "setDNSRecords(bytes32,bytes)": "infinite",
        "setData(bytes32,string,bytes)": "infinite",
        "setInterface(bytes32,bytes4,address)": "infinite",
        "setName(bytes32,string)": "infinite",
        "setPubkey(bytes32,bytes32,bytes32)": "infinite",
        "setText(bytes32,string,string)": "infinite",
        "setZonehash(bytes32,bytes)": "infinite",
        "supportsInterface(bytes4)": "infinite",
        "text(bytes32,string)": "infinite",
        "zonehash(bytes32)": "infinite"
      },
      "internal": {
        "isAuthorised(bytes32)": "infinite"
      }
    }
  },
  "storageLayout": {
    "storage": [
      {
        "astId": 22647,
        "contract": "project/contracts/resolvers/PublicResolver.sol:PublicResolver",
        "label": "recordVersions",
        "offset": 0,
        "slot": "0",
        "type": "t_mapping(t_bytes32,t_uint64)"
      },
      {
        "astId": 22762,
        "contract": "project/contracts/resolvers/PublicResolver.sol:PublicResolver",
        "label": "versionable_abis",
        "offset": 0,
        "slot": "1",
        "type": "t_mapping(t_uint64,t_mapping(t_bytes32,t_mapping(t_uint256,t_bytes_storage)))"
      },
      {
        "astId": 22929,
        "contract": "project/contracts/resolvers/PublicResolver.sol:PublicResolver",
        "label": "versionable_addresses",
        "offset": 0,
        "slot": "2",
        "type": "t_mapping(t_uint64,t_mapping(t_bytes32,t_mapping(t_uint256,t_bytes_storage)))"
      },
      {
        "astId": 23171,
        "contract": "project/contracts/resolvers/PublicResolver.sol:PublicResolver",
        "label": "versionable_hashes",
        "offset": 0,
        "slot": "3",
        "type": "t_mapping(t_uint64,t_mapping(t_bytes32,t_bytes_storage))"
      },
      {
        "astId": 23730,
        "contract": "project/contracts/resolvers/PublicResolver.sol:PublicResolver",
        "label": "versionable_dataStore",
        "offset": 0,
        "slot": "4",
        "type": "t_mapping(t_uint64,t_mapping(t_bytes32,t_mapping(t_string_memory_ptr,t_bytes_storage)))"
      },
      {
        "astId": 23261,
        "contract": "project/contracts/resolvers/PublicResolver.sol:PublicResolver",
        "label": "versionable_zonehashes",
        "offset": 0,
        "slot": "5",
        "type": "t_mapping(t_uint64,t_mapping(t_bytes32,t_bytes_storage))"
      },
      {
        "astId": 23271,
        "contract": "project/contracts/resolvers/PublicResolver.sol:PublicResolver",
        "label": "versionable_records",
        "offset": 0,
        "slot": "6",
        "type": "t_mapping(t_uint64,t_mapping(t_bytes32,t_mapping(t_bytes32,t_mapping(t_uint16,t_bytes_storage))))"
      },
      {
        "astId": 23279,
        "contract": "project/contracts/resolvers/PublicResolver.sol:PublicResolver",
        "label": "versionable_nameEntriesCount",
        "offset": 0,
        "slot": "7",
        "type": "t_mapping(t_uint64,t_mapping(t_bytes32,t_mapping(t_bytes32,t_uint16)))"
      },
      {
        "astId": 24975,
        "contract": "project/contracts/resolvers/PublicResolver.sol:PublicResolver",
        "label": "versionable_interfaces",
        "offset": 0,
        "slot": "8",
        "type": "t_mapping(t_uint64,t_mapping(t_bytes32,t_mapping(t_bytes4,t_address)))"
      },
      {
        "astId": 25167,
        "contract": "project/contracts/resolvers/PublicResolver.sol:PublicResolver",
        "label": "versionable_names",
        "offset": 0,
        "slot": "9",
        "type": "t_mapping(t_uint64,t_mapping(t_bytes32,t_string_storage))"
      },
      {
        "astId": 25254,
        "contract": "project/contracts/resolvers/PublicResolver.sol:PublicResolver",
        "label": "versionable_pubkeys",
        "offset": 0,
        "slot": "10",
        "type": "t_mapping(t_uint64,t_mapping(t_bytes32,t_struct(PublicKey)25247_storage))"
      },
      {
        "astId": 25465,
        "contract": "project/contracts/resolvers/PublicResolver.sol:PublicResolver",
        "label": "versionable_texts",
        "offset": 0,
        "slot": "11",
        "type": "t_mapping(t_uint64,t_mapping(t_bytes32,t_mapping(t_string_memory_ptr,t_string_storage)))"
      },
      {
        "astId": 22175,
        "contract": "project/contracts/resolvers/PublicResolver.sol:PublicResolver",
        "label": "_operatorApprovals",
        "offset": 0,
        "slot": "12",
        "type": "t_mapping(t_address,t_mapping(t_address,t_bool))"
      },
      {
        "astId": 22184,
        "contract": "project/contracts/resolvers/PublicResolver.sol:PublicResolver",
        "label": "_tokenApprovals",
        "offset": 0,
        "slot": "13",
        "type": "t_mapping(t_address,t_mapping(t_bytes32,t_mapping(t_address,t_bool)))"
      }
    ],
    "types": {
      "t_address": {
        "encoding": "inplace",
        "label": "address",
        "numberOfBytes": "20"
      },
      "t_bool": {
        "encoding": "inplace",
        "label": "bool",
        "numberOfBytes": "1"
      },
      "t_bytes32": {
        "encoding": "inplace",
        "label": "bytes32",
        "numberOfBytes": "32"
      },
      "t_bytes4": {
        "encoding": "inplace",
        "label": "bytes4",
        "numberOfBytes": "4"
      },
      "t_bytes_storage": {
        "encoding": "bytes",
        "label": "bytes",
        "numberOfBytes": "32"
      },
      "t_mapping(t_address,t_bool)": {
        "encoding": "mapping",
        "key": "t_address",
        "label": "mapping(address => bool)",
        "numberOfBytes": "32",
        "value": "t_bool"
      },
      "t_mapping(t_address,t_mapping(t_address,t_bool))": {
        "encoding": "mapping",
        "key": "t_address",
        "label": "mapping(address => mapping(address => bool))",
        "numberOfBytes": "32",
        "value": "t_mapping(t_address,t_bool)"
      },
      "t_mapping(t_address,t_mapping(t_bytes32,t_mapping(t_address,t_bool)))": {
        "encoding": "mapping",
        "key": "t_address",
        "label": "mapping(address => mapping(bytes32 => mapping(address => bool)))",
        "numberOfBytes": "32",
        "value": "t_mapping(t_bytes32,t_mapping(t_address,t_bool))"
      },
      "t_mapping(t_bytes32,t_bytes_storage)": {
        "encoding": "mapping",
        "key": "t_bytes32",
        "label": "mapping(bytes32 => bytes)",
        "numberOfBytes": "32",
        "value": "t_bytes_storage"
      },
      "t_mapping(t_bytes32,t_mapping(t_address,t_bool))": {
        "encoding": "mapping",
        "key": "t_bytes32",
        "label": "mapping(bytes32 => mapping(address => bool))",
        "numberOfBytes": "32",
        "value": "t_mapping(t_address,t_bool)"
      },
      "t_mapping(t_bytes32,t_mapping(t_bytes32,t_mapping(t_uint16,t_bytes_storage)))": {
        "encoding": "mapping",
        "key": "t_bytes32",
        "label": "mapping(bytes32 => mapping(bytes32 => mapping(uint16 => bytes)))",
        "numberOfBytes": "32",
        "value": "t_mapping(t_bytes32,t_mapping(t_uint16,t_bytes_storage))"
      },
      "t_mapping(t_bytes32,t_mapping(t_bytes32,t_uint16))": {
        "encoding": "mapping",
        "key": "t_bytes32",
        "label": "mapping(bytes32 => mapping(bytes32 => uint16))",
        "numberOfBytes": "32",
        "value": "t_mapping(t_bytes32,t_uint16)"
      },
      "t_mapping(t_bytes32,t_mapping(t_bytes4,t_address))": {
        "encoding": "mapping",
        "key": "t_bytes32",
        "label": "mapping(bytes32 => mapping(bytes4 => address))",
        "numberOfBytes": "32",
        "value": "t_mapping(t_bytes4,t_address)"
      },
      "t_mapping(t_bytes32,t_mapping(t_string_memory_ptr,t_bytes_storage))": {
        "encoding": "mapping",
        "key": "t_bytes32",
        "label": "mapping(bytes32 => mapping(string => bytes))",
        "numberOfBytes": "32",
        "value": "t_mapping(t_string_memory_ptr,t_bytes_storage)"
      },
      "t_mapping(t_bytes32,t_mapping(t_string_memory_ptr,t_string_storage))": {
        "encoding": "mapping",
        "key": "t_bytes32",
        "label": "mapping(bytes32 => mapping(string => string))",
        "numberOfBytes": "32",
        "value": "t_mapping(t_string_memory_ptr,t_string_storage)"
      },
      "t_mapping(t_bytes32,t_mapping(t_uint16,t_bytes_storage))": {
        "encoding": "mapping",
        "key": "t_bytes32",
        "label": "mapping(bytes32 => mapping(uint16 => bytes))",
        "numberOfBytes": "32",
        "value": "t_mapping(t_uint16,t_bytes_storage)"
      },
      "t_mapping(t_bytes32,t_mapping(t_uint256,t_bytes_storage))": {
        "encoding": "mapping",
        "key": "t_bytes32",
        "label": "mapping(bytes32 => mapping(uint256 => bytes))",
        "numberOfBytes": "32",
        "value": "t_mapping(t_uint256,t_bytes_storage)"
      },
      "t_mapping(t_bytes32,t_string_storage)": {
        "encoding": "mapping",
        "key": "t_bytes32",
        "label": "mapping(bytes32 => string)",
        "numberOfBytes": "32",
        "value": "t_string_storage"
      },
      "t_mapping(t_bytes32,t_struct(PublicKey)25247_storage)": {
        "encoding": "mapping",
        "key": "t_bytes32",
        "label": "mapping(bytes32 => struct PubkeyResolver.PublicKey)",
        "numberOfBytes": "32",
        "value": "t_struct(PublicKey)25247_storage"
      },
      "t_mapping(t_bytes32,t_uint16)": {
        "encoding": "mapping",
        "key": "t_bytes32",
        "label": "mapping(bytes32 => uint16)",
        "numberOfBytes": "32",
        "value": "t_uint16"
      },
      "t_mapping(t_bytes32,t_uint64)": {
        "encoding": "mapping",
        "key": "t_bytes32",
        "label": "mapping(bytes32 => uint64)",
        "numberOfBytes": "32",
        "value": "t_uint64"
      },
      "t_mapping(t_bytes4,t_address)": {
        "encoding": "mapping",
        "key": "t_bytes4",
        "label": "mapping(bytes4 => address)",
        "numberOfBytes": "32",
        "value": "t_address"
      },
      "t_mapping(t_string_memory_ptr,t_bytes_storage)": {
        "encoding": "mapping",
        "key": "t_string_memory_ptr",
        "label": "mapping(string => bytes)",
        "numberOfBytes": "32",
        "value": "t_bytes_storage"
      },
      "t_mapping(t_string_memory_ptr,t_string_storage)": {
        "encoding": "mapping",
        "key": "t_string_memory_ptr",
        "label": "mapping(string => string)",
        "numberOfBytes": "32",
        "value": "t_string_storage"
      },
      "t_mapping(t_uint16,t_bytes_storage)": {
        "encoding": "mapping",
        "key": "t_uint16",
        "label": "mapping(uint16 => bytes)",
        "numberOfBytes": "32",
        "value": "t_bytes_storage"
      },
      "t_mapping(t_uint256,t_bytes_storage)": {
        "encoding": "mapping",
        "key": "t_uint256",
        "label": "mapping(uint256 => bytes)",
        "numberOfBytes": "32",
        "value": "t_bytes_storage"
      },
      "t_mapping(t_uint64,t_mapping(t_bytes32,t_bytes_storage))": {
        "encoding": "mapping",
        "key": "t_uint64",
        "label": "mapping(uint64 => mapping(bytes32 => bytes))",
        "numberOfBytes": "32",
        "value": "t_mapping(t_bytes32,t_bytes_storage)"
      },
      "t_mapping(t_uint64,t_mapping(t_bytes32,t_mapping(t_bytes32,t_mapping(t_uint16,t_bytes_storage))))": {
        "encoding": "mapping",
        "key": "t_uint64",
        "label": "mapping(uint64 => mapping(bytes32 => mapping(bytes32 => mapping(uint16 => bytes))))",
        "numberOfBytes": "32",
        "value": "t_mapping(t_bytes32,t_mapping(t_bytes32,t_mapping(t_uint16,t_bytes_storage)))"
      },
      "t_mapping(t_uint64,t_mapping(t_bytes32,t_mapping(t_bytes32,t_uint16)))": {
        "encoding": "mapping",
        "key": "t_uint64",
        "label": "mapping(uint64 => mapping(bytes32 => mapping(bytes32 => uint16)))",
        "numberOfBytes": "32",
        "value": "t_mapping(t_bytes32,t_mapping(t_bytes32,t_uint16))"
      },
      "t_mapping(t_uint64,t_mapping(t_bytes32,t_mapping(t_bytes4,t_address)))": {
        "encoding": "mapping",
        "key": "t_uint64",
        "label": "mapping(uint64 => mapping(bytes32 => mapping(bytes4 => address)))",
        "numberOfBytes": "32",
        "value": "t_mapping(t_bytes32,t_mapping(t_bytes4,t_address))"
      },
      "t_mapping(t_uint64,t_mapping(t_bytes32,t_mapping(t_string_memory_ptr,t_bytes_storage)))": {
        "encoding": "mapping",
        "key": "t_uint64",
        "label": "mapping(uint64 => mapping(bytes32 => mapping(string => bytes)))",
        "numberOfBytes": "32",
        "value": "t_mapping(t_bytes32,t_mapping(t_string_memory_ptr,t_bytes_storage))"
      },
      "t_mapping(t_uint64,t_mapping(t_bytes32,t_mapping(t_string_memory_ptr,t_string_storage)))": {
        "encoding": "mapping",
        "key": "t_uint64",
        "label": "mapping(uint64 => mapping(bytes32 => mapping(string => string)))",
        "numberOfBytes": "32",
        "value": "t_mapping(t_bytes32,t_mapping(t_string_memory_ptr,t_string_storage))"
      },
      "t_mapping(t_uint64,t_mapping(t_bytes32,t_mapping(t_uint256,t_bytes_storage)))": {
        "encoding": "mapping",
        "key": "t_uint64",
        "label": "mapping(uint64 => mapping(bytes32 => mapping(uint256 => bytes)))",
        "numberOfBytes": "32",
        "value": "t_mapping(t_bytes32,t_mapping(t_uint256,t_bytes_storage))"
      },
      "t_mapping(t_uint64,t_mapping(t_bytes32,t_string_storage))": {
        "encoding": "mapping",
        "key": "t_uint64",
        "label": "mapping(uint64 => mapping(bytes32 => string))",
        "numberOfBytes": "32",
        "value": "t_mapping(t_bytes32,t_string_storage)"
      },
      "t_mapping(t_uint64,t_mapping(t_bytes32,t_struct(PublicKey)25247_storage))": {
        "encoding": "mapping",
        "key": "t_uint64",
        "label": "mapping(uint64 => mapping(bytes32 => struct PubkeyResolver.PublicKey))",
        "numberOfBytes": "32",
        "value": "t_mapping(t_bytes32,t_struct(PublicKey)25247_storage)"
      },
      "t_string_memory_ptr": {
        "encoding": "bytes",
        "label": "string",
        "numberOfBytes": "32"
      },
      "t_string_storage": {
        "encoding": "bytes",
        "label": "string",
        "numberOfBytes": "32"
      },
      "t_struct(PublicKey)25247_storage": {
        "encoding": "inplace",
        "label": "struct PubkeyResolver.PublicKey",
        "members": [
          {
            "astId": 25244,
            "contract": "project/contracts/resolvers/PublicResolver.sol:PublicResolver",
            "label": "x",
            "offset": 0,
            "slot": "0",
            "type": "t_bytes32"
          },
          {
            "astId": 25246,
            "contract": "project/contracts/resolvers/PublicResolver.sol:PublicResolver",
            "label": "y",
            "offset": 0,
            "slot": "1",
            "type": "t_bytes32"
          }
        ],
        "numberOfBytes": "64"
      },
      "t_uint16": {
        "encoding": "inplace",
        "label": "uint16",
        "numberOfBytes": "2"
      },
      "t_uint256": {
        "encoding": "inplace",
        "label": "uint256",
        "numberOfBytes": "32"
      },
      "t_uint64": {
        "encoding": "inplace",
        "label": "uint64",
        "numberOfBytes": "8"
      }
    }
  },
  "userdoc": {
    "errors": {
      "InvalidEVMAddress(bytes)": [
        {
          "notice": "The supplied address could not be converted to `address`."
        }
      ]
    },
    "events": {
      "DataChanged(bytes32,string,string,bytes)": {
        "notice": "For a specific `node`, the data associated with a `key` has changed."
      }
    },
    "kind": "user",
    "methods": {
      "ABI(bytes32,uint256)": {
        "notice": "Returns the ABI associated with an ENS node. Defined in EIP205."
      },
      "addr(bytes32)": {
        "notice": "Get `addr(60)` as `address` of the associated ENS node."
      },
      "addr(bytes32,uint256)": {
        "notice": "Get the address for coin type of the associated ENS node.         If coin type is EVM and empty, defaults to `addr(COIN_TYPE_DEFAULT)`."
      },
      "clearRecords(bytes32)": {
        "notice": "Increments the record version associated with an ENS node. May only be called by the owner of that node in the ENS registry."
      },
      "contenthash(bytes32)": {
        "notice": "Returns the contenthash associated with an ENS node."
      },
      "data(bytes32,string)": {
        "notice": "For a specific `node`, get the data associated with the key, `key`."
      },
      "dnsRecord(bytes32,bytes32,uint16)": {
        "notice": "Obtain a DNS record."
      },
      "hasAddr(bytes32,uint256)": {
        "notice": "Determine if an addresss is stored for the coin type of the associated ENS node."
      },
      "hasDNSRecords(bytes32,bytes32)": {
        "notice": "Check if a given node has records."
      },
      "interfaceImplementer(bytes32,bytes4)": {
        "notice": "Returns the address of a contract that implements the specified interface for this name. If an implementer has not been set for this interfaceID and name, the resolver will query the contract at `addr()`. If `addr()` is set, a contract exists at that address, and that contract implements EIP165 and returns `true` for the specified interfaceID, its address will be returned."
      },
      "name(bytes32)": {
        "notice": "Returns the name associated with an ENS node, for reverse records. Defined in EIP181."
      },
      "pubkey(bytes32)": {
        "notice": "Returns the SECP256k1 public key associated with an ENS node. Defined in EIP 619."
      },
      "setABI(bytes32,uint256,bytes)": {
        "notice": "Sets the ABI associated with an ENS node. Nodes may have one ABI of each content type. To remove an ABI, set it to the empty string."
      },
      "setAddr(bytes32,address)": {
        "notice": "Set `addr(60)` of the associated ENS node.         `address(0)` is stored as `new bytes(20)`."
      },
      "setAddr(bytes32,uint256,bytes)": {
        "notice": "Set the address for coin type of the associated ENS node.         Reverts `InvalidEVMAddress` if coin type is EVM and not 0 or 20 bytes."
      },
      "setContenthash(bytes32,bytes)": {
        "notice": "Sets the contenthash associated with an ENS node. May only be called by the owner of that node in the ENS registry."
      },
      "setDNSRecords(bytes32,bytes)": {
        "notice": "Set one or more DNS records.  Records are supplied in wire-format. Records with the same node/name/resource must be supplied one after the other to ensure the data is updated correctly. For example, if the data was supplied:     a.example.com IN A 1.2.3.4     a.example.com IN A 5.6.7.8     www.example.com IN CNAME a.example.com. then this would store the two A records for a.example.com correctly as a single RRSET, however if the data was supplied:     a.example.com IN A 1.2.3.4     www.example.com IN CNAME a.example.com.     a.example.com IN A 5.6.7.8 then this would store the first A record, the CNAME, then the second A record which would overwrite the first."
      },
      "setData(bytes32,string,bytes)": {
        "notice": "Sets the data associated with the key, `key` for a specific `node`. May only be called by the owner of that node in the ENS registry."
      },
      "setInterface(bytes32,bytes4,address)": {
        "notice": "Sets an interface associated with a name. Setting the address to 0 restores the default behaviour of querying the contract at `addr()` for interface support."
      },
      "setName(bytes32,string)": {
        "notice": "Sets the name associated with an ENS node, for reverse records. May only be called by the owner of that node in the ENS registry."
      },
      "setPubkey(bytes32,bytes32,bytes32)": {
        "notice": "Sets the SECP256k1 public key associated with an ENS node."
      },
      "setText(bytes32,string,string)": {
        "notice": "Sets the text data associated with an ENS node and key. May only be called by the owner of that node in the ENS registry."
      },
      "setZonehash(bytes32,bytes)": {
        "notice": "setZonehash sets the hash for the zone. May only be called by the owner of that node in the ENS registry."
      },
      "text(bytes32,string)": {
        "notice": "Returns the text data associated with an ENS node and key."
      },
      "zonehash(bytes32)": {
        "notice": "zonehash obtains the hash for the zone."
      }
    },
    "notice": "A simple resolver anyone can use; only allows the owner of a node to set its address.",
    "version": 1
  },
  "argsData": "0x0000000000000000000000007e89b563f936c68c31a360840eb7f9a4aacaf014000000000000000000000000c7e033b8836e4bd55d069d113f018b98478cb091000000000000000000000000f42df26c1b222bee5a6b78cbb8bbfaa0ba07786a000000000000000000000000075703fd8f8ef6b1e8e593dacab2dd702fc28196",
  "transaction": {
    "nonce": "0x17d4",
    "hash": "0xceaf0922d7b19f9d3b6c85ba822a6f2d975a8eb05b97b67c38ab5adf31f43590",
    "origin": "0xffffffffff52d316b7bd028358089bc8066b8f80"
  }
}